:020000040002F8
:10300000D84D00204D3502005535020057350200DD
:10301000593502005B3502005D35020000000000FA
:103020000000000000000000000000005F3502000A
:1030300061350200000000006335020065350200C2
:103040006735020067350200013C02006735020067
:1030500067350200673502006735020067350200F8
:1030600067350200673502006735020067350200E8
:1030700067350200673502006735020067350200D8
:1030800067350200D9380200673502006735020053
:10309000FD38020067350200013902006735020081
:1030A00067350200673502006735020067350200A8
:1030B00067350200673502000000000000000000D4
:1030C0006735020067350200673502006735020088
:1030D0006735020067350200673502000000000016
:1030E00000000000000000000000000000000000E0
:1030F00000000000000000000000000000000000D0
:1031000000000000000000000000000000000000BF
:1031100000000000000000000000000000000000AF
:10312000000000000000000000000000000000009F
:10313000000000000000000000000000000000008F
:10314000000000000000000000000000000000007F
:10315000000000000000000000000000000000006F
:10316000000000000000000000000000000000005F
:10317000000000000000000000000000000000004F
:10318000000000000000000000000000000000003F
:10319000000000000000000000000000000000002F
:1031A000000000000000000000000000000000001F
:1031B000000000000000000000000000000000000F
:1031C00000000000000000000000000000000000FF
:1031D00000000000000000000000000000000000EF
:1031E00000000000000000000000000000000000DF
:1031F00000000000000000000000000000000000CF
:10320000DFF80CD000F0ECFA004800473D61020006
:10321000D84D002030B450E8012F93B2C489234424
:103220008489A34228BF1B1B0489A34202BFBFF3AA
:103230002F8F002007E0C3EA020340E80134002C8E
:10324000E9D14FF001000A6030BC704750E8012F0F
:10325000C2EA024240E801210029F7D1704730B4A8
:1032600050E8022F1FFAA2F3C488A34202BFBFF3A3
:103270002F8F00200DE0C48923448489A34228BFF6
:103280001B1BC2EA034340E80234002CE8D14FF094
:1032900001000A6030BC704750E8022FC2EA2242A7
:1032A00040E802210029F7D17047034653E8022F76
:1032B000D988B2EB324F4FF0000017BF92B241EA0B
:1032C000014142EA014104E05A68B2EB324F08BFC3
:1032D000012043E80212002AE8D1704730B40446C6
:1032E00054E8000F0D4644E80053002BF8D1156058
:1032F00030BC704730B4044654E8000F40EA010582
:1033000044E80053002BF7D1156030BC704730B44F
:10331000044654E8000F00EA010544E80053002B7E
:10332000F7D1156030BC704730B4044654E8000F44
:1033300080EA010544E80053002BF7D1156030BC4A
:10334000704730B4044654E8000F00EB010544E830
:103350000053002BF7D1156030BC704730B40446E1
:1033600054E8000FA0EB010544E80053002BF7D10F
:10337000156030BC7047000030B4044654E8000FBC
:103380000D4644E80053002BF8D1156030BC70475F
:1033900030B4044654E8000F40EA010544E8005305
:1033A000002BF7D1156030BC704730B4044654E8A8
:1033B000000F00EA010544E80053002BF7D1156027
:1033C00030BC704730B4044654E8000F80EA010571
:1033D00044E80053002BF7D1156030BC704730B47F
:1033E000044654E8000F00EB010544E80053002BAD
:1033F000F7D1156030BC704730B4044654E8000F74
:10340000A0EB010544E80053002BF7D1156030BC58
:103410007047000030B4044654E8000F0D4644E8FD
:103420000053002BF8D1156030BC704730B404460F
:1034300054E8000F40EA010544E80053002BF7D19F
:10344000156030BC704730B4044654E8000F00EA01
:10345000010544E80053002BF7D1156030BC7047DC
:1034600030B4044654E8000F80EA010544E80053F4
:10347000002BF7D1156030BC704730B4044654E8D7
:10348000000F00EB010544E80053002BF7D1156055
:1034900030BC704730B4044654E8000FA0EB01057F
:1034A00044E80053002BF7D1156030BC7047000092
:1034B00030B4044654E8000F0D4644E80053002B96
:1034C000F8D1156030BC704730B4044654E8000FA2
:1034D00040EA010544E80053002BF7D1156030BCE9
:1034E000704730B4044654E8000F00EA010544E890
:1034F0000053002BF7D1156030BC704730B4044640
:1035000054E8000F80EA010544E80053002BF7D18E
:10351000156030BC704730B4044654E8000F00EB2F
:10352000010544E80053002BF7D1156030BC70470B
:1035300030B4044654E8000FA0EB010544E8005302
:10354000002BF7D1156030BC70470000064880475B
:1035500006480047FEE7FEE7FEE7FEE7FEE7FEE778
:10356000FEE7FEE7FEE7FEE7053902000132020052
:1035700000487047E09F02002DE9FE43994615463A
:103580008846074601AC022942D3002D40D00020D6
:103590000290A8F101004FF0FF36009022E000FBFE
:1035A000057201FB057011464A469047002805DC6C
:1035B00054F82600304444F8260013E060682A4698
:1035C00000FB057154F8040C00FB057007E00B7854
:1035D00090F800C001F801CB00F8013B521E002A10
:1035E000F5D1764254F8040C61688842D7DC4B462A
:1035F0002A463846FFF7C0FF54F8040C4B46A8EBA8
:103600000001401C00FB05702A46491EFFF7B4FF6D
:10361000BDE8FE8310B5431A934209D28318881877
:1036200003E010F8011D03F8011D521EF9D210BD70
:1036300040EA01039B0703D009E008C9121F08C034
:10364000042AFAD203E011F8013B00F8013B521EB4
:10365000F9D210BDD2B201E000F8012B491EFBD215
:1036600070470022F6E710B513460A46044619468D
:10367000FFF7F0FF204610BD421C10F8011B002987
:10368000FBD1801A704710B5002200E0521C835C09
:103690008C5CA34201D1002BF8D1D8B2E1B2401A20
:1036A00010BD034611F8012B00F8012B002AF9D1B7
:1036B0001846704730B505460020034600E05B1C05
:1036C000934205D2EC5CC85C201A01D1002CF6D1E3
:1036D00030BD2DE9F04791460F468046044600264E
:1036E00014F8015B2DB1FFF743FF0068405DC00790
:1036F000F6D12B2D02D02D2D18D0641E4A46394606
:10370000204600F01EF827B13968A14201D1C7F860
:10371000008071054FF002040BD54042002803DD04
:1037200000F07CFA0460A007BDE8F08746F48066EC
:10373000E4E70028F8DA00F071FA04606FF0004066
:10374000F2E72DE9F05F82460078002715468B46A8
:103750000AF10104B946302801D09DB113E014F8F4
:10376000010B0127782803D0582801D045B10AE081
:103770000DB1102D07D10027102514F8010B02E020
:10378000082500E00A250026B0460EE005FB0800EB
:1037900005FB06F1012701EB10461FFA80F8B6F58C
:1037A000803F00D3B94614F8010B294600F02AF8EF
:1037B0000028EBDABBF1000F05D00FB1641E00E06A
:1037C0005446CBF80040B9F1000F06D000F026FABD
:1037D00002210160C81EBDE8F09F48EA0640FAE7F2
:1037E000064C074D06E0E06840F0010394E807004E
:1037F00098471034AC42F6D3FFF706FD7CAD0200CB
:103800009CAD02003A2800D2303820F02002412A34
:1038100001D3A2F13700884201D34FF0FF30704747
:1038200070B58C1810F8015B15F0070301D110F882
:10383000013B2A1106D110F8012B03E010F8016BAF
:1038400001F8016B5B1EF9D12B0705D40023521E32
:103850000DD401F8013BFAE710F8013BCB1A921C9A
:1038600003E013F8015B01F8015B521EF9D5A14298
:10387000D8D3002070BD00F01F0201219140400903
:10388000800000F1E020C0F88012704700F01F02B5
:10389000012191404009800000F1E020C0F80011B2
:1038A000704700F01F02012191404009800000F1A3
:1038B000E020C0F8001270474907090E002806DA18
:1038C00000F00F0000F1E02080F8141D704700F1B7
:1038D000E02080F80014704707480021C0F840112C
:1038E000C0F84411C0F84811C0F84C11C0F80011DC
:1038F000C0F8041105F06ABD0010014005F0B4BC29
:1039000005F03CB8F0B5AE480023021D0178012552
:10391000101D4FF0805406290BD11678360708D1B8
:103920000678C6F30316032E06D0042E04D0052E07
:1039300002D0062907D00EE0B4F82463A14FC6F3E5
:1039400004263E6002E01678360704D10678C6F3F6
:103950000316032E02D0062904D00FE09B4F9A4E87
:103960007E670EE01678360708D10678C6F3031690
:10397000032E06D0042E04D0052E02D0062907D02F
:103980000EE0D4F84462924FC6F342363E6002E045
:103990001678360704D10678C6F30316032E02D034
:1039A000062906D011E08B4E376827F08077376004
:1039B0000EE01678360708D10678C6F30316032EF4
:1039C00006D0042E04D0052E02D006290AD011E01C
:1039D0004FF08046C6F80C31C6F810317C4E361FC9
:1039E000336002E01678360704D10678C6F3031672
:1039F000032E02D0062905D00CE0754F032664374C
:103A00003E600AE01678360704D10678C6F303163E
:103A1000032E02D006290DD014E06F4F05263E601C
:103A20006D4E783635606C4E083633603F263F1D4C
:103A30003E6002E01678360704D10678C6F3031616
:103A4000052E02D0062957D062E0644E3668644FD6
:103A50003E60624E361D36683F1D3E605F4E083642
:103A600036683F1D3E605D4E0C3636683F1D3E6039
:103A70005A4E103636683F1D3E60584E1436366832
:103A80003F1D3E60554E18363668554F20373E6014
:103A9000524E1C3636683F1D3E60504E203636680A
:103AA0003F1D3E604D4E243636683F1D3E604B4EF6
:103AB000283636683F1D3E60484E2C3636683F1D1E
:103AC0003E60464E30363668454F40373E60434E86
:103AD000343636683F1D3E60404E383636683F1DEE
:103AE0003E603E4E3C3636683F1D3E603B4E4036A3
:103AF00036683F1D3E6002E01678360708D106782A
:103B0000C6F30316032E06D0042E04D0052E02D0D1
:103B1000062907D019E0D4F85812324A01F04F01B3
:103B2000116002E0117809070FD10078C0F303108B
:103B3000032803D0042801D0052806D12A480168AB
:103B4000C90702D06FF00101016022487438016892
:103B500041F470010160BFF34F8FBFF36F8F4FF0DF
:103B60001021D1F80002002803DBD1F8040200285C
:103B700022DA1E4A15601E480468002CFCD0152469
:103B8000C1F800420568002DFCD0C1F8044201686C
:103B90000029FCD0136001680029FCD0BFF34F8FCF
:103BA0000C48F0380168134A01F4E06111430160E8
:103BB000BFF34F8F00BFFDE710490F480860F0BD0D
:103BC000E00F00F0403501400DF0ADBA00C00740F5
:103BD0003C050040FCED00E01056004004040010DD
:103BE00020C50040E40E00400004004004E5014010
:103BF00000E401400400FA050090D003C421002035
:103C00000448017F04480029024901D005F0FCBCAA
:103C100005F06BBC0C2700200020004000487047D6
:103C2000C821002002E008C8121F08C1002AFAD1EA
:103C300070477047002001E001C1121F002AFBD12C
:103C4000704700000121202803DA81400548014027
:103C500003E0402802DA2038814009B10120704792
:103C600000207047FC06FFBD082806D228B10128B5
:103C700003D0042801D0012070470020704780073E
:103C800001D00020704701207047C3688B4206D8DE
:103C900011440069491E814201D80120704700206B
:103CA0007047000004F01EFA03F0FEFF0028FBD16D
:103CB000134C606830B12088012101EB004011A154
:103CC00004F0FEF812480068C00700D000BE60682B
:103CD000022806D32088022101EB00400DA104F048
:103CE000EFF8BFF34F8F0A48E43801680D4A01F43A
:103CF000E06111430160BFF34F8F00BFFDE700009B
:103D000030220020466174616C206572726F72000F
:103D1000F0ED00E053797374656D2072657365741E
:103D2000000000000400FA050EB500210091CDE965
:103D300001106A4644F20100FFF7B4FF0EBD000017
:103D4000074B9B7823B12AB120B10068037C1BB1DB
:103D50000820704707207047417442610020704777
:103D60002C27002070B505F0E9F8104800240B213D
:103D7000047044700E4D817014206C602C706C7057
:103D8000FFF779FD07211420FFF796FD1420FFF7B8
:103D90007DFD0848046007211120FFF78DFD0548CF
:103DA000001F0068A860002070BD00002C270020C4
:103DB00030210020081501402DE9FC47DFF87890FC
:103DC00099F8023073B368B3052902D20720BDE821
:103DD000FC87436933B3437C012B25D0002704467D
:103DE0000025884616468DF80050684600F038F8E1
:103DF00001A805F0EBFCC8B1012101700F49446036
:103E00000968C0E90218C0E904769DF8040089F841
:103E100001009DF8000000F047F81420FFF741FD75
:103E20002846D4E70820D2E70F46D8E704259DF8B6
:103E3000000000F039F8F3E72C27002004150140BA
:103E40000649897839B130B1416921B10021017445
:103E5000022105F097BA0820704700002C270020A7
:103E600030B5EFF3108172B60D4A9468012324B186
:103E70000370002900D162B630BD93604FF0E0239B
:103E8000D3F88051074C25401560C3F88041D3F822
:103E9000844154605A17C3F8842100220270E8E775
:103EA00038280020FC06FFBD0B498A68002A11D083
:103EB00000280FD1EFF3108072B60B684FF0E022AC
:103EC000C2F800314B68C2F8043100228A60002831
:103ED00000D162B670470000382800202DE9F0417B
:103EE000064608680C46411C4FF0A0474FF00105FC
:103EF00006D005FA00F1C7F80815206803F039FE6E
:103F00006068411C02D0002103F02AFE307920496C
:103F100001EB4010A169007F00283068C0F824152B
:103F200025D0607D227D31681043C1F86C05D4E94D
:103F300000123068C0F80C15C0F8142524E0A06801
:103F4000411C02D0002103F00BFEE068411C05D0AB
:103F50008540C7F80855E06803F00BFED4E902126B
:103F60003068C0F80825C0F81015BDE8F081607D04
:103F7000217D32680843C2F86C05D4E9001230682C
:103F8000C0F81425C0F80C15207D0128D7D0ECE727
:103F90000C270020F8B5871C00208DF800000E4685
:103FA00001256846FFF75CFF124C20683060D4E9B9
:103FB0000001401AA168091ABE1C06E001F0E0FFEA
:103FC000D4E90001401AA168091A491C8E42F5D8AB
:103FD000A1682068084004EB8000C16841F003013B
:103FE000C1602068384420609DF80000FFF75CFF46
:103FF0002846F8BDB429002030B482680468531CF8
:104000008360A154D0E901128A4202D330BC03F08C
:1040100072BB30BC70470000034803C8814201D125
:104020000120704700207047B429002070B58168D6
:1040300004468A7C002A4DD0C87C00284AD0121A37
:104040000844D5B200F114016A1C1330FFF7E2FAFC
:10405000A068C17C491EC174A068817C491E81741E
:104060008DB308221C49206903F038FB204602F07A
:104070001FFB8178C078814211D1A06817A2C17C52
:10408000431808212046143302F02EFE204600F08B
:1040900013F929462046BDE8704001F04DB820468E
:1040A00000F01EF9204600F007F9A0680BA2C17CC1
:1040B000431808212046143302F016FE2046BDE8BE
:1040C000704000F003B92069BDE87040044A03A1C4
:1040D00003F004BB70BD0000B44202002573000071
:1040E000349B020070B504468068827CC17C521A01
:1040F00012F0FF053AD0084400F115012A461430A9
:10410000FFF788FAA068817C491E8174204602F07E
:10411000CFFA8178C078814214D1A06814A2C17C02
:10412000431808212046143302F0DEFD114A10A185
:10413000206903F0D3FA6D1EE9B22046BDE8704055
:1041400000F0FABF204600F0CBF8204600F0B4F8AB
:10415000A06807A2C17C431808212046143302F04E
:10416000C3FD2046BDE8704000F0B0B870BD00004F
:1041700025730000389B02002DE9F0410446806859
:104180000F4690F83D11C27C11F00106817CA1EB35
:104190000203DDB20AD07F2901D3002D7ED0A068B2
:1041A000C17C08440021077566B113E07F297CD2E9
:1041B000002DF4D0831803F114012A46481CFFF7A0
:1041C00029FAECE7A068827C521CD2B28274A06803
:1041D000143281544DB3204602F06AFA8178C078D7
:1041E00081420ED1A06832A2C17C4318082120462A
:1041F000143302F079FDA81BC1B2204600F09CFFE9
:1042000021E0204600F06CF8A06829A2C17C431888
:1042100008212046143302F067FD204600F056F8CE
:104220000121204601F068F80DE03EB1A068827CD3
:10423000521CD2B28274A068143281543A461DA135
:10424000206903F04BFAA168C87C401CC874204662
:1042500000F05FFF0028204603D0BDE8F04100F0E9
:1042600077BF01F0D3FA00281FD0204602F020FAD1
:104270000546C078A978401A401EC1B2204600F019
:10428000E9FE204600F064FFE878A978401AC1B240
:10429000204601F03DF82878401E00E005E0C1B25C
:1042A0002046BDE8F04101F027B8BDE8F0810000EC
:1042B00025730000256300000069024A02A103F093
:1042C0000DBA00002C9B0200257300000069024A11
:1042D000024903F003BA0000239B0200C842020017
:1042E0000069024A024903F0F9B90000209B02006C
:1042F000C84202002DE9F04F4FF000099DB005467D
:104300004E464C46CDF8149000F0B6FD284601F01C
:10431000A3FBAA680C2308A901A8143202F0A4F890
:104320000346019840B15BB159A20221284602F030
:10433000DBFC1DB0BDE8F08F284600F009FFF8E770
:104340005A4859490027A1EB00080DF1200A83467D
:104350001AE00FD3284600F0DCFE01005448089B09
:10436000009001D053A200E054A20221284602F09E
:10437000BBFCDEE70BEBC704606801685AF8290054
:10438000FFF781F918B17F1CB7EBD80FE1D94FF0D7
:10439000000BCDF868B06068C7680FB1A9684860C5
:1043A000606809F101044FF0000880680DF15809B8
:1043B00006900198844237D25AF8240042A1FFF7B0
:1043C00062F950B35AF8240040A1FFF75CF920B31A
:1043D000424608F101081AAB2146CDF80090069834
:1043E00000F006FDB8F1000F1ED01A98E0B1016888
:1043F0005AF82400FFF747F90028DAD11A98C16863
:1044000029B1A8F10101DDF818B0264605918068B0
:104410004FF00008641C0690CBE7A86890F83D11A7
:1044200041F0020180F83D11284600F01FFE2846A9
:1044300000F06FFE10B9284600F08AFEBBF1000FB5
:1044400012D0CDF800901AAB31465846059A00F0CC
:10445000CFFCA9681A980AEB860248600199C368E4
:10446000891B284698470AE027B108AA28460199DF
:10447000B84704E017A20221284602F035FCA868DC
:1044800090F83D1121F0020180F83D1151E7000044
:104490000D0A6E6F74207465726D696E6174656467
:1044A0003A2025630D0A0000F4AD02009CAD020025
:1044B000699B0200257325730D0A00000D0A257300
:1044C00025730D0A000000002D6800002D2D686581
:1044D0006C700000506C6561736520737065636972
:1044E000667920737562636F6D6D616E642E0D0A5F
:1044F0000000000000B589B020220D4901A8FFF797
:1045000089F8142001901320029000208DF81800E3
:1045100003200090064801231A4601A91C3802F026
:1045200055FD002801D0FFF7FFFB09B000BD0000DA
:10453000509A02002DE9F0410446C0688EB00D4645
:104540000026C068324601A903F0AAFE18B1002077
:104550000EB0BDE8F0816DB1019803F084FEA16852
:10456000D1F82C01401CC1F82C0100F007000128F3
:104570007ED10126204602F09BF80546807801286E
:1045800004D9401EC1B2204600F0C2FE287801289E
:1045900004D9401EC1B2204600F0CEFD2046FFF7F0
:1045A0008BFE2EB133A20221204602F09DFB5FE07C
:1045B0004FF000080023082202A9019803F064FECE
:1045C000049805900398ADF818008DF81C800298A7
:1045D000082700F00300012802D002281DD03CE08B
:1045E00002983B46860AC0F3C2008DF81A00029872
:1045F00008A9C0F380008DF81B000298C0F3831552
:10460000AA00019803F040FE2069009005AB2A46FD
:1046100008A9304603F07AFD1FE00298850DC0F32B
:10462000C2008DF81A000298C0F380008DF81B00BC
:10463000082D01D22E4600E008263B46324608A946
:10464000019803F021FE3744AD1B05AA314608A8A6
:10465000236903F049FC002DEAD1019803F003FE21
:10466000E068002201A9C06803F01AFE0028A1D06A
:1046700001206DE74C6F7374204C4F4773202D2041
:10468000696E637265617365204C4F472062616398
:104690006B656E642071756575652073697A652E2A
:1046A0000D0A000008B50B46009102A2022102F09B
:1046B0001BFB08BD25733A206D697373696E672013
:1046C000706172616D657465722E0D0A5472792085
:1046D000272573202D682720666F722068656C700F
:1046E0002E0D0A00014802F0E7BC0000349A0200D7
:1046F00030B4406804682469A44630BC60470000B8
:1047000010B5054802F000FD002803D0BDE81040B8
:10471000FFF70ABB10BD0000349A02002DE9FC41EE
:104720000027044600976B46012201A92046FFF7A7
:10473000DFFF0098002818D09DF804607F2EF2D883
:10474000A568687820B101285BD002285BD15FE0C2
:10475000207EB0420ED1A87C0028204607D0FFF76B
:10476000C9FD0221204600F0B9F8BDE8FC8100F047
:10477000EFFCF6E7092E1BD004DC002ED3D0082E68
:1047800004D11DE01B2E11D07F2E21D0FEF7F0FEAC
:104790000068805D10F03E0FC5D095F83D01000720
:1047A0001ED531462046FFF7E7FCBCE701202DE08F
:1047B00095F83D010007B6D5204600F0A9F8B2E70C
:1047C00095F83D010007AED52046FFF72FFCAAE77C
:1047D00095F83D010007A6D52046FFF783FCA2E728
:1047E000A87C7F289FD2E87C2918401CE8740E75AD
:1047F000A068C17C08440775A068817C491C81744D
:1048000091E75B2E01D06F708DE7022068708AE718
:104810006F70A16891F83D010207A6D5413E0C2EAC
:1048200081D2DFE806F007090E2D064C0650060679
:10483000065478E7012100E00021204600F0FAFF4D
:1048400071E7204601F034FF054601784078814247
:1048500003D1A878EA789042A7D0687981424FF0D6
:104860000101204606D100F0F5FB6979204600F0F1
:1048700063FC01E000F040FDA068C17C491C15E02C
:10488000204601F015FF054601788079401C8142E1
:1048900002D1A878012888D001294FF001012046D3
:1048A00006D000F049FCA068C17C491EC1743AE7FB
:1048B00000F02EFD6979204600F01EFDF3E720464A
:1048C00000F0D4FB2FE7204600F0F9FB2BE7421C59
:1048D00062F3000081F83D0125E7000082680229AB
:1048E00011700BD18268002111758268D1748268C1
:1048F000917403A20321036802F0F6B97047000027
:1049000025730000002801D0FEF7B6BE70470000F6
:104910002DE9F04FA5B04FF000080546CDF82880EE
:10492000CDF8108080684746817CC1F17F01C9B213
:104930005FEA010B7BD0C27C00F114019430FEF7DA
:1049400069FEA8680024C17C084480F89440FEF702
:104950000FFE20900168A8680C23C27C0244D27C20
:10496000895CC0F83841AA6801F001090DA91FA8A7
:10497000943201F079FD0D98FFF7C4FFC6B2A2464C
:104980001A940C941F9818B14844401EB8426AD833
:10499000B9F1000F01D0002605E00DA850F827005E
:1049A000FFF7B0FFC6B200241BA822460090641C8B
:1049B0001AAB3946504600F01BFA1A9800286BD003
:1049C00001680DA8324650F82700FEF773FE002854
:1049D0000C9802D00028E7D05EE0D8B11A980068A1
:1049E000FFF790FF0499C0B2884200D90490BBF150
:1049F000000F2BD021A800900CAB42463946504600
:104A000000F0F6F91A98006883190C98006882196A
:104A1000002015E0601E0A901A980068FFF772FFE8
:104A2000C0B20490801B584510DAC0B20DE07FE0A0
:104A300012F800C0614506D1401C10F0FF0010D0F4
:104A4000195C0029F4D1834500D983461A98B4F142
:104A500001080C90A8D262A20421284602F044F971
:104A60001AE0FF20EFE700241BA822460090641CF8
:104A70001AAB3946504600F0BBF9ECB31A9800283F
:104A800056D001680DA850F82700FEF7FCFD00285D
:104A9000EAD11A98D0F808A0BAF1000F09D01A98F4
:104AA00038B11F997F1CFFB201EB09008742FFF468
:104AB00069AF0C9800283BD00A98414640455DD12B
:104AC0009AF8000038B11BA80A4600900CAB394692
:104AD000504600F08DF90C980068FFF713FFB042C4
:104AE00006D00C985A4600688119284600F068FAEA
:104AF0002098A968026800E01DE0C87C0B181B7DA7
:104B0000D25CD2071DD0897C884211D2284601F0A0
:104B1000CFFDA9688478C87C401CC874284601F081
:104B2000C7FD8078A04225D10121284600F0E4FB92
:104B300025B0BDE8F08F2AA20421284602F0D4F85F
:104B4000F6E791F83D01C2070FD020F0010081F88F
:104B50003D0120212846FFF70FFBA86890F83D1182
:104B600041F0010180F83D11E2E720212846FFF7DE
:104B700003FBDDE7284600F0EBFAD9E700212846E1
:104B8000049A03F0A9FF0DF16C090A9C0EE01AAB20
:104B9000224639465046CDF8009000F029F91A987F
:104BA000049A0168284603F097FF641C4445EED937
:104BB00017A2032128462B6802F096F8AB6816A2CC
:104BC00008212846143302F08FF8284600F05EFBD7
:104BD0000C985A4600688119284600F0F1F9A7E7B9
:104BE0005461622066756E6374696F6E3A20636FFC
:104BF0006D6D616E647320636F756E746572206F86
:104C0000766572666C6F7765642E0D0A0000000091
:104C10000D0A25730000000025730000002803D052
:104C20008968012081F83C017047000070B5044696
:104C300040680D4690F8280030B1A0680068FFF782
:104C4000FFF808B108280CD1012685B1606902F08F
:104C50001BFD616800220831606902F037FB08B172
:104C6000062070BD606880F82960002070BD606813
:104C700090F8280048B9074A0021A068FFF760F8BB
:104C80006168002881F82860F0D12046BDE87040B6
:104C900004F0A7B96192020070B5044640680D4661
:104CA0000260606800224360606880F828206068C5
:104CB00080F82920606820220830FEF7ABFC2C61C8
:104CC000074A2946606902F001FB050005D1E0684A
:104CD00003F0A5FC206903F0A2FC284670BD00008B
:104CE0007D9402001A60C0681A4603F0D6BB10B566
:104CF0000446406902F0C8FCA0680068BDE81040A6
:104D0000FFF79EB87CB51A60044600691A4603F0A6
:104D100002FC05001CD1606902F0AAFCC0B9FF20AA
:104D2000009001236A4601A9206903F040FC78B98C
:104D300000980199C2B2606902F014FC05466068EF
:104D400090F8290020B11DB92069009903F01CFCDE
:104D500028467CBD1CB51346CDE9001202A20221F3
:104D600001F0C2FF1CBD000025733A20756E6B6E0A
:104D70006F776E20706172616D6574657220272592
:104D800073270D0A54727920272573202D68272058
:104D9000666F722068656C702E0D0A002DE9F8436D
:104DA0001E46154688460746002418E0786808EB3A
:104DB00004016B460268D2F80CC02A46E04700980E
:104DC00004442D1A58B9B8680178032907D000BFE8
:104DD00090F83C110029FBD0002180F83C11002DF7
:104DE000E4D1002E01D000983060BDE8F8830000C7
:104DF0002DE9F05F1C460A9E15464FF0000959B197
:104E000080B3017839B3426831462846904730680C
:104E1000D8B12660BDE8F09F14491548A1EB000801
:104E2000B5EBD80F11D2DFF84CA00026834609E07D
:104E30000BEBC607786801685AF82500FEF723FCDB
:104E400030B1761CB6EBD80FF2D3C4F80090E1E78E
:104E500078682060DEE7406800EB0210016809B165
:104E60001860D7E7FFE7C3F80090D3E7F4AD02007E
:104E70009CAD0200CC2100202DE9F041856806465A
:104E80000024287D002812D0A046FEF771FB0746BB
:104E9000D0F8000004F1140104F10104695CE4B2EB
:104EA000415CC90705D0002CF4D185F81480BDE819
:104EB000F081641E14F0FF040FD0A87C021B04F1E3
:104EC0001400291805F11400521CFEF7A3FBB16869
:104ED000887C001B8874B168C874B2683D68937C94
:104EE000D01813300446002102E0491CC9B2401E0C
:104EF0000778EF5DFF07F8D18442D8D05B1A1433EE
:104F000002F80380B268907C401A9074B168C8744B
:104F1000CDE700002DE9F05F26484168F1B3DFF8E6
:104F200098B00E688146DBF8004087688078E11B06
:104F300021F07F45ED1CB0B9DFF880804FF4803060
:104F4000C8F84403C8F804031120FEF794FC1120AC
:104F5000FEF79CFC4FF0010AC8F800A02F2002F0D9
:104F6000F7F889F802A0B54200D23546124BE8198D
:104F70003C3320F07F401860DBF800105A46091BD4
:104F800021F07F41001B20F07F40C91C81420FD9D6
:104F9000106818602F2002F0DBF800E004E0BDE8A4
:104FA000F05F1120FEF77DBCBDE8F05F03F0C6BFE7
:104FB000BDE8F09F302100200415014000100140A1
:104FC0002DE9F0410446806815460F46827CC17C7D
:104FD000531A2A44DEB27F2A37D8002D35D0084430
:104FE00000F1140105F114021044721CFEF712FBCB
:104FF000A0682A46C17C084439461430FEF70AFBF3
:10500000A0681430FFF77EFCA16811A28874A06824
:10501000C17C431808212046143301F065FEA068C6
:10502000C17C2944C174204600F073F818B92046A9
:1050300000F0ECFB10B1204600F08AF8002E04D0FE
:105040002046BDE8F04100F021B9BDE8F081000044
:1050500025730000002904D00A46006901A102F06E
:105060003DBB70471B5B25644200000070B50546E0
:1050700001F01EFB044600786178884203D1A078D5
:10508000E17888421AD0E178A078814204D9081AE0
:10509000C1B22846FFF7DEFF20786178884205D943
:1050A000401AC1B2284600F047F804E0081AC1B21D
:1050B000284600F021F9A868817CC17470BD70B5E4
:1050C000054601F0F5FA044601788079401C8142DA
:1050D00002D1A07801281BD0A078012804D9401E55
:1050E000C1B2284600F014F92078A179884206D987
:1050F000401A401EC1B2284600F01EF805E0081A0A
:10510000401CC1B2284600F0F7F8A9680020C87416
:1051100070BD10B504460068FFF7F4FB0146A068B7
:10512000C27C407B1144B1FBF0F200FB121008B1CD
:10513000002010BD012010BD002904D00A460069DE
:1051400001A102F0CBBA70471B5B2564440000004C
:105150000069024A024902F0C1BA0000269B02001F
:10516000C84202002DE9FC5F002604468DF8046069
:1051700080683546B046B14680219430FEF771FA1A
:105180004149206902F0AAFA206902F0B4FA002726
:1051900040F2E73B4FF47A7A6B46012201A92046A0
:1051A000FFF7A6FA0098D8B19DF804001B2806D096
:1051B000A16891F894101B29EED152281CD0A26846
:1051C00008F19401505408F1010000F0FF08B8F113
:1051D000090F08D9A168042081F89490BDE8FC9FCC
:1051E000584601F0FBFF00980028D5D17F1CBFB2C4
:1051F0005745D1D30D20F1E7A16808F194004A4644
:1052000001F80090A16891F895005B2803D081F81F
:1052100094200B20E2E702206FF02F070AE000BF86
:1052200005EB850507EB4505401C2B44C0B29DB23C
:10523000802808D200F19403CB5C3B2BF0D1401CBA
:10524000C0B2802809D30C20C8E700BF06EB860651
:1052500007EB460633449EB2F1E700F19403CB5CC2
:10526000002BF3D1FA20FA2E01D9087200E00E7259
:10527000FA2D02D9A168887201E0A0688572A06841
:1052800080F894200020A9E7449B020070B50546F1
:1052900001F00EFA04468078E178884201D10126B7
:1052A00000E000262846FFF734FF18B9284600F032
:1052B000ADFA10B12846FFF74BFF1EB16078217898
:1052C000401A12E0E078A178401AC1B2284600F0F6
:1052D0001FF820786178884206D9401AC1B2284662
:1052E000BDE8704000F008B8081AC1B22846BDE811
:1052F0007040FFF721BF0000002904D00A46006972
:1053000001A102F0EBB970471B5B2564430000006C
:10531000002904D00A46006901A102F0DFB97047F4
:105320001B5B2564410000000E4910B50A784C78DB
:105330000023A24212D0521CD2B20A70022A00D11B
:105340000B70084A0B780C3252F8232002608868F0
:10535000104420F07F408860012010BD03600020D1
:1053600010BD0000302100202DE9F843104D0F46FC
:1053700080461E4691466946286801F0DCF9040023
:1053800014D01C21FEF76DF901202071C4F814908F
:10539000380BC4F80080C4E902606946286801F04F
:1053A000EBF903F01FFD0020BDE8F8830420FBE7C4
:1053B000E89C020070B516460C46054601F000FE5A
:1053C00030B12846BDE870400022114601F0B4BC5F
:1053D000032C05D028463168BDE87040FFF762B95C
:1053E000102200217068FEF774F904460A22002199
:1053F000B068FEF76EF9024621460023074802F026
:1054000073FA002809D003F041FB03462846BDE8A3
:10541000704003A2022101F067BC70BDF82100209A
:105420006E72665F6673746F726167655F657261E5
:10543000736528292072657475726E65643A20253B
:10544000730D0A0030B50446006885B00D468068CB
:1054500000281CD014216846FEF703F90195A068C6
:105460000490207910B101280DD104E001208DF8BD
:105470000000206904E002208DF80000E0680003CD
:10548000029060690390206881686846884705B08B
:1054900030BD000070B514460D46064601F090FD83
:1054A00030B13046BDE870400022114601F044BCE6
:1054B000012D06D030466168BDE8704004A2FFF7B8
:1054C00049BC3046BDE8704001A1FFF7EBB80000D1
:1054D000666C6173686172656100000038B50446EE
:1054E00001F06EFD30B12046BDE838400022114683
:1054F00001F022BC044920460A690092CB6803A24D
:10550000082101F0F1FB38BDF821002062656769D0
:105510006E3A2025782C20656E643A2025780D0A95
:1055200000000000F8B515460C46064601F048FD9F
:1055300030B13046BDE8F8400022114601F0FCBB16
:10554000032C05D03046BDE8F8400CA1FFF7AAB8FF
:10555000102200216868FEF7BCF80C4C10220021D4
:10556000E060A868FEF7B5F82061009008A2082165
:105570003046E36801F0B8FBF8BD0000666C61736B
:10558000686172656120736574000000F821002075
:10559000626567696E3A2025782C20656E643A2032
:1055A00025780D0A000000002DE9F05F17460E0077
:1055B000814670D013B1F9B2FFF79EFE0024FDF7CB
:1055C000D7FF8246006800E0641C315D415CC9077A
:1055D000FAD100253046FFF795F9D9F80810001BDD
:1055E0004A7BD11B814228D306EB040805E000BFAB
:1055F00018F805100A290CD06D1C8542F8D3311912
:10560000D9F8100002F06AF84846BDE8F05FFFF7ED
:105610009FBDD9F8100002F06EF8414600232A46DB
:105620004846FFF7BBFB2C444846641CFFF790FD3F
:10563000F9B24846FFF760FEE1E78B46DAF8001062
:1056400006EB040818F805000B5CDB0702D0AB463C
:105650000A2804D0E819904201D26D1CF2E7D9F86B
:10566000100002F048F8414600235A464846FFF72A
:1056700095FB5C44DAF8000000E0641C315D415C9D
:10568000C907FAD14846FFF763FDF9B24846FFF76C
:1056900033FE9EE7FFE7BDE8F09F000030B401460F
:1056A0004468114803234268008803EB00402CB192
:1056B000032A16D330BC0D4902F002BC0B78012B33
:1056C00009D0022B0DD1032A0BD3D1E9023208A154
:1056D00030BC02F000BC032A03D3D1E9023212A18C
:1056E000F6E730BC7047000030220020DCA3020047
:1056F0002D2D3E204576656E742072656365697652
:1057000065643A2065726173656420256420706168
:1057100067652066726F6D206164647265737320C3
:10572000307825782E0000002D2D3E204576656EC0
:10573000742072656365697665643A2077726F7468
:10574000652025642062797465732061742061642A
:10575000647265737320307825782E002DE9F0414E
:10576000C0B00F4680464FF480751E461446294649
:105770006846FDF776FFAC4200D92C4623466A46C0
:105780003946144802F008F928B103F07FF90346BE
:1057900011A2022106E0682E0AD0732E05D16B46B5
:1057A00016A20821404601F09FFA40B0BDE8F08102
:1057B00000256E4606E0735D12A20821404601F006
:1057C00093FA6D1CA542F6D30BA20821404601F0C6
:1057D0008BFAEAE7F82100206E72665F6673746FD9
:1057E000726167655F7265616428292072657475EE
:1057F000726E65643A2025730D0A000025730D0A48
:1058000000000000307825782000000010B5044624
:105810000068FFF777F80146A068827C407B11445E
:10582000B1FBF0F200FB121008B1002010BD012006
:1058300010BD0000FEB500260446009601960296B3
:105840008068E9B3D0E94D128A4271D0D0F83001B6
:1058500000286DD02046FFF732FCA068D0F8385100
:10586000002D68D0002309226946284602F00CFD6D
:10587000A1689DF808500098C1F83801A06800237D
:105880000922D0F83801694602F0FEFCA1689DF8B3
:1058900008200923D1F838011431521C02F0F4FC1D
:1058A000A1689DF80800C874A1689DF80800887474
:1058B0009DF80800A84202D22046FEF7FDFC00E059
:1058C0000BE0A3682BA208212046143301F00CFA48
:1058D0002046FFF71EFC60BB42E0D0F838010028EC
:1058E00046D02046FFF7EBFBA06800230922D0F842
:1058F0003801694602F0C8FCA0680199C0F8381167
:10590000A0680029857CB9D19430FEF7FBFF002800
:10591000A06805D000F194011430FDF7C2FE00E04C
:105920000675A0681430FEF7EDFF8DF80800B7E7A4
:105930001EE01AE0FFE71430FEF7E4FF10F0FF0569
:10594000A068D0F83011C0F83811A06805D000F177
:1059500014019430FDF7A5FE90E780F894608DE780
:105960002046FFF753FF002802D02046FFF7F0FB48
:10597000FEBD000025730000FEB50D46816804469B
:105980000026D1F8300138B300230922694602F01D
:105990007BFC0195A06800230922D0F830016946FC
:1059A00002F078FC0196A068D0F830110091807C5C
:1059B0008DF80800A068C0F830510023092269461C
:1059C000284602F067FCA168092328468A7C143126
:1059D000521C02F05FFCFEBDC1F83051A068C0F857
:1059E000345100960196A068807C8DF80800E4E7A9
:1059F000FEB504468068D0F83461002E28D000231C
:105A000009226946304602F03FFCA1680198002552
:105A1000C1F83401009501952B46092269463046AC
:105A2000029502F037FC304602F0FBFBA168D1F88A
:105A3000340170B100230922694602F025FC00956B
:105A4000A06800230922D0F83401694602F022FC44
:105A5000FEBDC1F83051FEBDFEB50446806814306D
:105A6000FEF750FF10F0FF05A0684FF00006C0F8E9
:105A7000386133D0A068D0F83001E0B100230922AA
:105A8000694602F001FC9DF80820AA4213D1A068E3
:105A9000092300F19401D0F83001521C02F0F4FB0C
:105AA000A06800F194011430FDF7EDFD0028A06816
:105AB00080F8946012D000260A352946606902F009
:105AC00080FB0100204604D003B0BDE8F040FFF7A2
:105AD00053BFFFF78DFF761C082EEED3FEBD0000EE
:105AE00038B504460A4801216A46FDF703FC68B947
:105AF0000848606002F054FF05491C238C2208749A
:105B000004488C39001F006800F002FE002038BDF8
:105B1000D0280020EC9C02002DE9FC5F0E0083469B
:105B2000DDE90C47C6F1000098469246814600D454
:105B30000846012503E000BF90FBFAF06D1C5045BC
:105B4000FADAA84500D9454624B1002E01DB7807D2
:105B500000D5641EB80702D5B8F1000F0AD0F807C7
:105B600008D13CB1A54205D220215846641EFEF75B
:105B700043FAF6E7002E02DA4E462D2102E07807BE
:105B800003D52B215846FEF737FA07F00300022809
:105B90000BD1B8F1000F08D13CB1A54205D230219C
:105BA0005846641EFEF728FAF6E7CDE9004743465B
:105BB00052463146584603F0AFFDBDE8FC9F000059
:105BC00070B50E460446007918494FF4A27501EBF2
:105BD0004010017F2068A1B14FF4887102F076FF78
:105BE0004FF49071206802F071FF4FF492712068B9
:105BF00002F06CFF2946206802F068FF0C4920681B
:105C000009E04FF48E7102F050FF2946206802F03F
:105C10004CFF08492068C0F80413206801F04BFBD2
:105C20003146BDE8704001F02ABB00000C2700207F
:105C300010030200800002000248007A002800D011
:105C400001207047D02800202DE9F047394E002769
:105C500080463D46DFF8E090D6F804A057E003D038
:105C60000446D0F81C8035E099F8002002EB420190
:105C7000521CD2B289F8002009EBC10199F8023018
:105C8000091D9A4201D189F8005048680A780446F3
:105C9000012A12D0022A02D0032A3BD108E003F0E5
:105CA00041FB00B10127257434E00574C06900E0B0
:105CB00070680028F9D170602CE0207C50BB8868A7
:105CC0006060C868A0600869E0604869A061F07819
:105CD00000B165606268B168184B501A20F07F40CF
:105CE000984202D2A168084406E0881AA16820F010
:105CF0007F40814202D9081A206000E0256065607B
:105D00000120A56020742046E56103F0EDFAB8F1AA
:105D10000000A4D199F8001099F801008142A3D1A4
:105D200017B97168514502D00120BDE8F087002005
:105D3000FBE70000302100202C270020FFFF7F0020
:105D40001CB5012905D0816891F83D11C1F34001CE
:105D500031B102B00022BDE81040114600F0ECBFA6
:105D6000536804A1CDE90013136808A2022100F0D2
:105D7000BBFF1CBD20756E6B6E6F776E20706172FD
:105D8000616D657465723A200000000025733A2544
:105D90007325730D0A0000002DE9F74F82B01546F8
:105DA00002980F004FF00006C068007A009058D0AB
:105DB000072248A12868FDF77DFC78B1082247A199
:105DC0002868FDF777FC002830D02B6845A20298A0
:105DD00005B00221BDE8F04F00F086BF012F02D0D0
:105DE000022F08D008E0029805B044A2BDE8F04FA9
:105DF000022100F079BF0126DFF81881002400BFDE
:105E000058F824100A226868FDF754FC10B1641C8D
:105E1000052CF5D3052C06D004F0FF090224002E32
:105E200054D0002419E03CA26B68D0E7012F4FF05A
:105E30000009F6D0012449E04A462146009800F0C6
:105E4000FBFB48B90021204602F03EF903463AA286
:105E50000221029800F048FF641C02F0E3F8A0421F
:105E6000EAD805B0BDE8F08F4FF0000A55F824B02D
:105E700002F0D8F88046002609E00021304602F002
:105E800023F920225946FDF715FC90B1761C4645B2
:105E9000F3D3464506D155F8243030A202210298AA
:105EA00000F022FF4A465146009800F0C5FB10B1B1
:105EB0000BE0B246EDE70021504602F005F903463B
:105EC0001DA20221029800F00FFF641CBC42CBD33C
:105ED000C7E70000656E61626C650000646973610C
:105EE000626C6500556E6B6E6F776E206F707469B3
:105EF0006F6E3A2025730D0A000000004261642095
:105F0000706172616D6574657220636F756E742E59
:105F10000D0A000050210020556E6B6E6F776E20C9
:105F20007365766572697479206C6576656C3A2064
:105F300025730D0A000000004C6576656C20756EB7
:105F4000617661696C61626C6520666F72206D6F4D
:105F500064756C653A2025730D0A0000556E6B6EF2
:105F60006F776E206D6F64756C653A25730D0A004E
:105F7000C068012141727047C068002141727047BA
:105F800070B588B0214800F009FC2048001F064683
:105F900000F004FC1E4DD5E9014105E0C0F3891273
:105FA00002EB9050641C044404EA010005EB8000FD
:105FB000C0688207F2D000200DF1080204EA010354
:105FC00005EB8303641CDB6842F82030401C022888
:105FD000F4D3029800F00300012808D002280AD167
:105FE0000298032101EB905004EB900403E0029827
:105FF000C0F3831004443046002101AAFDF771FA72
:10600000002800D06C6008B070BD0000CC2D0020CE
:10601000B42900202DE9FE4F814602F003F807461F
:10602000D9F80C0090F80880407A20B91FA202210C
:10603000484600F059FE22A324A20821484600F059
:1060400053FE2AA20821484600F04EFE002429E013
:1060500001231A462146404601F0EEFF8246002306
:1060600001222146404601F0E7FF0546032801D200
:10607000064600E003260121204602F025F80346EB
:10608000AE4201D225A200E017A2254850F8261002
:1060900050F82A008DE8070022A20821484600F0A7
:1060A00023FE641CBC42D3D3BDE8FE8F4C6F6773E4
:1060B000206172652068616C746564210D0A0000BE
:1060C0006D6F64756C655F6E616D6500252D323492
:1060D00073207C2063757272656E74207C206275FB
:1060E000696C64696E200D0A000000002D2D2D2DB5
:1060F0002D2D2D2D2D2D2D2D2D2D2D2D2D2D2D2DD0
:106100002D2D2D2D2D2D2D2D2D2D2D2D2D2D2D2DBF
:106110002D2D2D2D2D2D0D0A000000002A00000030
:1061200050210020252D323473207C20252D3773FB
:10613000207C20257325730D0A00000008B5FDF7AB
:1061400011FE08B1FDF7F0FD002001F023FF08B1BA
:10615000FDF7EAFDFEF7CEF96F4C032560680328D2
:1061600017D320886DA105EB004001F0A9FE6068FF
:1061700003280ED3208870A105EB004001F0A0FE9B
:106180006068032805D3208871A105EB004001F069
:1061900097FE7B4900227B4801F0CDFB08B1FDF75B
:1061A000C3FD784802F068FD4FF0102040694FF0C1
:1061B0008050016940696068734E032806D32088C7
:1061C00072A105EB0040326801F07EFE0027042337
:1061D0006D4A4FF478316B48009701F073FC08B1B9
:1061E000FDF7A2FD674803F04FFB606803280ED35C
:1061F00020886CA105EB004001F062FE6068032876
:1062000005D3208869A105EB004001F059FE02F09A
:106210007FFB08B1FDF788FD6946012002F032FAE4
:1062200008B1FDF781FD684602F0B8FA08B1FDF744
:106230007BFD654A32606068032805D3208853A13E
:1062400005EB004001F040FE04234F4A5F494D48F2
:10625000009701F037FC08B1FDF766FD494803F0EF
:1062600013FB6068032810D320884EA105EB004083
:1062700001F026FE6068032807D32088424A05EB18
:106280000040121D52A101F01FFE3F4A0C23121DB7
:106290004FF47C313B48009701F014FC08B1FDF746
:1062A00043FD384803F0F0FA6068032829D32088BA
:1062B0003CA105EB004001F003FE6068032820D3F9
:1062C000208849A105EB004001F0FAFD6068032831
:1062D00017D320884FA105EB004001F0F1FD606865
:1062E00003280ED3208856A105EB004001F0E8FDFD
:1062F0006068032805D320885A4905EB004001F067
:10630000DFFDFEF7FDF900BF01F0CEFC00B93EDF76
:10631000FEF7E8F9F8E70000302200206673746F9A
:1063200072616765206578616D706C65207374615A
:106330007274656421000000536F66744465766969
:1063400063652069732070726573656E742E00003A
:10635000496E697469616C697A696E67206E7266EC
:106360005F6673746F726167655F736420696D70D7
:106370006C656D656E746174696F6E2E2E2E0000F3
:10638000F89C0200F8210020202100205772697437
:10639000696E67202225782220746F20666C6173F5
:1063A000682E0000446F6E652E000000456E61622D
:1063B0006C696E672074686520536F6674446576F7
:1063C0006963652E00000000EFBEADDE00E1030052
:1063D00057726974696E67202225732220746F20BA
:1063E000666C6173682E00005573652027726561C5
:1063F000642720746F20726561642062797465730C
:106400002066726F6D2074686520666C6173682EFB
:106410000000000055736520277772697465272096
:10642000746F207772697465206279746573207463
:106430006F2074686520666C6173682E0000000030
:10644000557365202765726173652720746F206519
:106450007261736520666C61736820706167657333
:106460002E00000020A402002DE9FF4F4FF000088D
:1064700081B014468B468146C246C0F8008025781C
:10648000002D71D0FDF774F800900068405DC007E2
:1064900002D004F801AB84E0D9F800008300401C6E
:1064A000C9F800004BF8034015E02678002E78D09C
:1064B000B8F1000F05D1222E10D0272E0ED05C2E61
:1064C0001ED0B04514D12046FEF71CFA0246611CCE
:1064D0002046FDF79FF84FF00008E6E72046FEF75C
:1064E00011FA0246611C2046FDF794F8B046DCE73D
:1064F000B8F1000F50D05C2E61D16078404508D1D2
:106500002046FEF7FFF90246611C2046FDF782F89F
:1065100055E030281CD100270225605DA0F1300134
:10652000072906D86D1C41EAC701EDB2CFB2052D8F
:10653000F3D3022D0CD92046FEF7E4F9421B611972
:106540002046491E921CFDF765F804F8017BACE774
:1065500078281ED100270225605DA0F130010929AD
:1065600003D841EA07100DE021E0A0F161010529FF
:1065700001D8573804E0A0F14101052907D8373880
:1065800040EA07106D1CEDB2C7B2042DE4D3022D12
:10659000D1D8B8F1000F12D100980068805DC00713
:1065A0000DD0D9F8001004988142FFF468AFD9F8F3
:1065B000002040464BF822A005B0BDE8F08F641CD7
:1065C00073E72DE9F047C7880446181D164689462B
:1065D000B0FBF7F1B0FBF7F207FB12009A193A444F
:1065E000D21CB2FBF7F2DDF820A001E02468491EBE
:1065F0000029FBD13D1A8846B54216D818E0BAF1F9
:10660000000F05D0211809EB08002A46091D04E0F7
:10661000204409EB08012A46001DFCF7FBFF00207F
:106620002468761BA844B74201D9354600E03D46B0
:10663000002EE4D1BDE8F08770B5144600230D4666
:1066400006461A4601F0F8FC844201D9002070BDCC
:1066500022462946304601F015FD012070BD00009C
:1066600030B5024669B101F0DDFC0021084C0BE0B9
:1066700001EB410304EB830315685B88AB4202D155
:106680001160002030BD491C8142F1D3052030BD8E
:106690000C22002010B50C460021E1606160034926
:1066A000A160012101F010FD206010BD1C9E0200C0
:1066B00070B58468006804F10805FEF723F9C1B2DB
:1066C000A971E07C6A790844B0FBF2F302FB130382
:1066D0005B1C2B70E07C0844B0FBF2F35B1CAB70DE
:1066E000A07C0844B0FBF2F35B1CEB70A07C084478
:1066F000B0FBF2F102FB1101491C6970284670BD24
:1067000010B5FCF7D2FD08B1002010BD112010BD5E
:1067100010B531B1B2FBF3F403FB14241CB1092012
:1067200010BD0E2010BD016000214160816082819A
:10673000C381084610BD70B50C460546FCF76AFDDE
:10674000002802D021882868084470BD10B50A8846
:1067500049888A4203D1FCF79FFD012010BD00202B
:1067600010BD70B50C460546FCF779FD002802D037
:1067700061882868084470BD10B50A8849888A4233
:1067800003D1FCF763FD012010BD002010BD08B54A
:1067900000216A46FCF757FE009808BD08B50121A4
:1067A0006A46FCF791FE009808BD08B501216A46CB
:1067B000FCF73CFE08BD38B5044600258DF80050B6
:1067C0006846FDF74DFB21686268086890420ED963
:1067D000401E08600178238AE26801FB0325227AC3
:1067E0002168101AC0B20A79824200D208719DF85D
:1067F0000000FDF759FB284638BD38B50546002096
:106800008DF800000C466846FDF72AFBE868298AE7
:10681000201AB0FBF1F12A681068431C1360017064
:106820009DF80000FDF740FB38BD10B530B1017A8E
:1068300042680368891AC9B21A6006E00E2010BDCA
:1068400003681A68541C1C601170491EC9B2F7D243
:10685000006800210171084610BD000070B51546A2
:10686000826892F83D41C4F3400424B11A46294697
:1068700000F062FA06E039B1516804A20B68022107
:1068800000F032FA012070BD002070BD25733A205F
:1068900062616420706172616D6574657220636FFE
:1068A000756E740D0A00000010B5044602290CD163
:1068B000A06890F83D01C0F3400030B120460022AE
:1068C000BDE81040114600F037BA064A06A120691B
:1068D00000F004FF034A2069BDE81040093202A11C
:1068E00000F0FCBE409B0200257300001CB501298E
:1068F00005D002290BD014D94FF0010112E002B0EB
:106900004FF00002BDE81040114600F015BA536880
:106910000849CDE90013136807A2022100F0E4F949
:106920001CBD002102B00023BDE810401A46FFF74D
:1069300095BF0000549B020025733A257325730D03
:106940000A0000003EB50446012901D0012100E003
:10695000002100231A46FFF781FF002818D1E068C4
:10696000C06801F0FCFCC0B2642110FB01F2E168D8
:10697000C9688968B2FBF1F2D2B20092CDE9010197
:10698000A06804A20821D0F82C31204600F0ACF910
:106990003EBD00004C6F7374204C4F47733A202566
:1069A000750D0A4D6178204C4F47207175657565EE
:1069B000207574696C697A6174696F6E3A20257507
:1069C0002525205B25752F25755D0D0A000000002B
:1069D00010B50446012901D0012100E00021002367
:1069E0001A46FFF73BFF002808D1A168C1F82C0127
:1069F000E068C068BDE8104001F0B4BC10BD000004
:106A00007CB514460546012903D0022908D001218E
:106A100007E002B00022BDE87040114600F08CB9DA
:106A2000002100231A46FFF719FF002809D16168E9
:106A30000448CDE9000104A202212846236800F0A1
:106A400053F97CBD549B020025733A257325730DC1
:106A50000A00000010B50446012901D0012100E020
:106A6000002100231A46FFF7F9FE002806D1A0688E
:106A700090F83D1121F0040180F83D1110BD10B5D2
:106A80000446012901D0012100E0002100231A461B
:106A9000FFF7E4FE002806D1A06890F83D1141F010
:106AA000040180F83D1110BD7CB514460D46064624
:106AB000022901D9012100E0002100231A46FFF735
:106AC000CDFE002812D1022D06D0B06890F83D010D
:106AD00000070CD50AA30BE061680A48CDE9000164
:106AE00009A202213046236800F0FEF87CBD09A30C
:106AF00002B03046BDE8704007A2082100F0F4B8AB
:106B00006F6E0000549B020025733A257325730DA8
:106B10000A0000006F6666004563686F2073746149
:106B20007475733A2025730D0A00000010B50446F1
:106B3000012901D0012100E0002100231A46FFF7BE
:106B40008DFE002806D1A06890F83D1121F00801C3
:106B500080F83D1110BD10B50446012901D0012176
:106B600000E0002100231A46FFF778FE002806D136
:106B7000A06890F83D1141F0080180F83D1110BD6A
:106B80007FB50446012901D0012100E00021002346
:106B90001A46FFF763FE002827D1A0680026D0F828
:106BA0003451F5B101E0082E1BD20023092201A9BE
:106BB000284601F069FB9DF80C20A16809232846AE
:106BC0009431521C01F060FBA06833469430009071
:106BD000029D761C05A20821204600F085F8002DB4
:106BE000E1D1A168002081F894007FBD5B2533646A
:106BF0005D2025730D0A00007CB515460446012969
:106C000003D0022917D9012116E0A16801F10C0275
:106C10000D3102F0F5FA00281ED0A16850200FA215
:106C20004873A1681820087302B02046BDE8704080
:106C3000042100F059B8002100231A46FFF70EFE88
:106C4000002809D169681548CDE9000114A2022184
:106C500020462B6800F048F87CBD00006E6F207263
:106C60006573706F6E73652066726F6D20746572E8
:106C70006D696E616C2C20617373756D656420386D
:106C80003078323420636861727320736372656593
:106C90006E2073697A650D0A00000000549B0200A3
:106CA00025733A257325730D0A00000010B50446BC
:106CB000012901D0012100E0002100231A46FFF73D
:106CC000CDFD00280AD1064A06A1206900F006FD84
:106CD000A16850204873A1681820087310BD0000F7
:106CE0004E9B0200257300000FB438B5044607A878
:106CF0000090A06890F83D21520717D5C27B8A42C8
:106D000014D0B0F80F50204602F096FD6A46206974
:106D1000069900F0FCFCE9B2204602F08DFD290A3C
:106D2000204602F06BFD38BC5DF814FB6A46206912
:106D3000069900F0ECFCF6E72DE9F04F804689B0AB
:106D400016460C468948FDF7DDFD05468748543850
:106D5000FDF7D8FD281A1FFA80F9844884A241382B
:106D60000090D8F808000821406803684046FFF703
:106D7000BBFFD8F8080040680068FDF7C3FD054672
:106D80007A484138FDF7BEFD284482B2D8F80800A1
:106D90000023406841684046FEF706FC76A20821C1
:106DA0004046FFF7A1FF16B30CB300251DE000BF5E
:106DB00005EB450A04EB8A0BDBF80400FDF7A2FDA6
:106DC000074654F82A00FDF79DFD391849450BD9AF
:106DD000DBF80400FDF796FD074654F82A00FDF79E
:106DE00091FD38441FFA80F96D1CB542E0D35F482D
:106DF0005438FDF787FD4844801C1FFA80F95B4832
:106E000000904B465FA208214046FFF76DFF09F155
:106E1000030087B2079000233A465CA14046FEF784
:106E2000C3FB002C52D000254EE000BF05EB450A05
:106E300004EB8A0B54F82A00DBF804306BB350B330
:106E40004A4957A25439CDE9001008214046FFF7BE
:106E50004BFF09F102000090DBF80400FDF752FD42
:106E6000074654F82A00FDF74DFD07443F485438C3
:106E7000FDF748FD39180098401A801EC1B24046FF
:106E8000FEF73AFA3A224949D8F8100000F026FCF9
:106E90000098401C0AE0009301E040B100904B468E
:106EA00038A208214046FFF71FFF079887B2DBF89A
:106EB000081029B100233A464046FEF775FB02E070
:106EC0004046FEF745F96D1CB542AFD3D8F808002F
:106ED00040688068002845D0814600200446064668
:106EE00003AD02903246761C02AB01214846009564
:106EF000FDF77EFF029850B10068FDF703FDA04248
:106F0000F0D902980068FDF7FDFC84B2EAE7012E93
:106F100028D027A208214046FFF7E6FE00273A4680
:106F20007F1C02AB012148460095FDF761FF0298E6
:106F3000002817D0A11C8EB200680090334611A221
:106F400008214046FFF7D0FE0298F61CB2B2416815
:106F500021B100234046FEF727FBE0E74046FEF75D
:106F6000F7F8DCE709B0BDE8F08F00007D9B020078
:106F700025732573000000004F7074696F6E733ABB
:106F80000D0A00002020252D2A733A0053686F77E0
:106F900020636F6D6D616E642068656C702E0000FB
:106FA000202025732573257300000000B4420200E1
:106FB000537562636F6D6D616E64733A0D0A000004
:106FC000806890F83D01C0F3400070472DE9F04122
:106FD0001E460546069F00F011F804000CD15EB174
:106FE0003946E86800F0D0FD002802DA0420BDE848
:106FF000F081E868012141722046F8E770B5044647
:10700000C068154623464461606802681668234AD2
:10701000B047002840D1606901F023F900283BD136
:10702000A168C1F83001A168C1F834014FF4A07122
:10703000A068FCF716FBA068012180F83C11A2684B
:10704000184B92F83D0165F3820082F83D01A26879
:1070500040F0080082F83D01A068134A0170A16861
:1070600050204873A1681820087300210C48D21AD8
:1070700007E000BF03EBC1046468246840F82140C6
:10708000491CB1EBD20FF5D3072A04D9D108074B1D
:107090000422FCF771FA002070BD00001D4C0200B4
:1070A000CC2100209CAD0200F4AD0200F991020059
:1070B0000023FDF773BE000010B504468068007819
:1070C000D8B1012819D0022817D12046FDF726FB98
:1070D00000212046FDF72EFA78B10AA203212046AE
:1070E0002368FFF701FEA36806A208212046143397
:1070F000FFF7FAFD2046FEF7C9F82069BDE8104009
:1071000000F0F9BA2573000070B504468068007875
:10711000012801D0082070BD606801688A680021DC
:10712000904705000FD10821204602F085FB012180
:10713000204602F063FB05A1206900F0CFFA02218E
:107140002046FDF7CBFB284670BD00000D0A0A0063
:1071500000283ED01F49204A096800BF00BF00BF79
:1071600000BF00BF00BF00BF00BF91422FD000BFD3
:1071700000BF00BF00BF00BF00BF00BF00BF00BF17
:1071800000BF00BF00BF00BF00BF00BF00BF00BF07
:1071900000BF00BF00BF00BF00BF00BF00BF00BFF7
:1071A00000BF00BF00BF00BF00BF00BF00BF00BFE7
:1071B00000BF00BF00BF00BF00BF00BF00BF00BFD7
:1071C00000BF00BF00BF00BF00BF00BF00BF01384D
:1071D000C3D17047C42100200024F40000283ED011
:1071E0001F49204A096800BF00BF00BF00BF00BFA1
:1071F00000BF00BF00BF91422FD000BF00BF00BF43
:1072000000BF00BF00BF00BF00BF00BF00BF00BF86
:1072100000BF00BF00BF00BF00BF00BF00BF00BF76
:1072200000BF00BF00BF00BF00BF00BF00BF00BF66
:1072300000BF00BF00BF00BF00BF00BF00BF00BF56
:1072400000BF00BF00BF00BF00BF00BF00BF00BF46
:1072500000BF00BF00BF00BF00BF0138C3D17047EF
:10726000C42100200024F40000F01F0201219140FD
:107270004009800000F1E020C0F880117047490704
:10728000090E002806DA00F00F0202F1E02282F86F
:10729000141D03E000F1E02282F8001400F01F0248
:1072A000012191404009800000F1E020C0F88012E7
:1072B000C0F800117047000B40B270470121B1EBDC
:1072C000507F01D101207047002070472DE9F04127
:1072D00005460079164F904607EB40140E46E07EB7
:1072E00010B10820BDE8F081707F20772846FCF7B8
:1072F000F5FD5FEA080060603169216003D0317FED
:107300002846FEF75DFC287907EB4010007F002837
:10731000286801D0082100E00421C0F800150020F1
:10732000E0752076A0750121E176A076DAE700000D
:107330000C2700202DE9F04105460079284E9046A3
:1073400006EB40140F46207F18B10846FFF7B6FF42
:1073500080B1626800234FF404704FF4017172B180
:107360002A7906EB4212127F002A2A6805D0C2F859
:10737000080304E01020BDE8F081C2F80813E27DA4
:10738000B2B1227E7AB162685AB12A7906EB421212
:10739000127F1AB12968C1F8040302E02868C0F816
:1073A00004131120E7E72761012384F8188005E022
:1073B00084F817800020E7606076207628794246BE
:1073C00006EB40103946007F0028284603D0BDE870
:1073D000F04100F06FB8BDE8F04100F017B80000D0
:1073E0000C2700200179084A02EB411101220B7F92
:1073F00001680BB14A6070474FF40173C1F808335C
:1074000000684260704700000C2700202DE9F05F03
:1074100004460079264901EB4015A87E184302D1A5
:10742000204601F0CEFD68680028206806D04FF4A1
:107430000171C0F804130020BDE8F09F4FF4A2765C
:10744000314601F032FBB1464FF4927A4FF4847B1F
:107450005146206801F024FB06465946206801F099
:107460001FFB80464946206801F01AFB074648EAA0
:1074700007003043ECD056EA070007D129462068C0
:1074800001F07AFDE87D697E8842E1D80020E87548
:107490000EB10320D0E70FB10F20CDE7A97E012068
:1074A0000029216801D00860C5E74860C3E70000F3
:1074B0000C2700202DE9F05F894604464FF48875BB
:1074C0009A46904600260068294601F0FFFA4FF4DC
:1074D000A2773946206801F0F9FA2068C0F834959F
:1074E000C0F838852068BAF1000F14D0D0F8001227
:1074F00041F02001C0F800122179DFF8648008EB28
:107500004110406850B120684FF40471C0F8041372
:107510003046BDE8F09F01210160EDE7AA46B9467B
:107520004FF4927B5146206801F0CBFA074649465A
:10753000206801F0C6FA05465946206801F0C1FAF4
:10754000014647EA05000843ECD02379002208EB06
:107550004310C27501B10326002DD9D00F26D7E7FD
:107560000C2700202DE9F047054600793F4E904654
:1075700006EB40140F46207F18B10846FFF79EFE29
:1075800030B1284600F074F820B11120BDE8F08732
:107590001020FBE784F81680A7600027A7822879CF
:1075A0004FF0010806EB40143E46207F0028286873
:1075B00025D04FF49079494601F088FA4FF4AC7A1F
:1075C0005146286801F082FA2868A17DA268C0F8B7
:1075D0004425C0F848152868C0F808806068F0B9EC
:1075E0004946286801F06DFA80465146286801F046
:1075F00068FA58EA0001F3D058BBA7750FE04FF4C2
:107600008E7A514601F051FA2868C0F80880214668
:10761000286801F015FF61684FF4807089B1304629
:10762000B4E75146286801F03BFA10B9A08A4845F2
:10763000F7D1A08A484505D02146286801F000FF0F
:1076400000E08146A08AA17D8842EAD3A08A48450D
:1076500001D10F26D1E75146286801F021FA002810
:10766000F9D02868C0F80C80C7E700000C2700207C
:107670000079044901EB4010807D002800D00120F2
:10768000704700000C27002070B5044600791149AE
:10769000002601EB401520682A7FC0F80065686865
:1076A00088B1207901EB4010007F0028206801D0CC
:1076B000094901E008498C39C0F808132068FFF730
:1076C000FAFDFFF7D1FD204601F04EFAEE766E602E
:1076D00070BD00000C270020100302000FB408B595
:1076E0000399002904D004AA00926A4600F00FF81A
:1076F00001B05DF814FB10B582680446002A05D07D
:10770000D4E90403216898470020A06010BD2DE94A
:10771000FC4791460C00804676D014F8011B39B125
:1077200025290ED04046FCF767FC20780028F4D1CC
:1077300098F80C00002867D04046BDE8FC47FFF7EA
:10774000DABF0020012221782B291BD02D2902D05D
:10775000302908D102E040F0010001E040F00200D1
:10776000641C002AEFD100252A290ED02178A1F12E
:1077700030020A2A11D205EB850201EB4205641C96
:10778000303DF1E740F00400EAE7D9F800100B1DA6
:10779000C9F800300968641C0D44217800232E29A3
:1077A0000BD114F8011FA1F130020A2A05D203EB14
:1077B000830201EB4203303BF3E76C290DD06829CB
:1077C0000BD0692921D00BDC252918D0582931D0BC
:1077D00063290ED0642915D117E014F8011FECE7D6
:1077E000702969D0732932D075291BD0782909D125
:1077F00020E0D9F80000011DC9F8001001784046CA
:10780000FCF7FAFB641C90E76CE0D9F800100A1D45
:10781000C9F800200968CDE900500A224046FEF769
:107820007BF9EFE7D9F800100A1DC9F800200968B4
:107830000A2206E0D9F800100A1DC9F800200968DC
:107840001022CDE90050404601F066FFDAE7D9F892
:10785000001000270A1DC9F800200E68C00705D1D6
:1078600012E04046761C7F1CFCF7C6FB31780029ED
:10787000F7D104E0202140466D1EFCF7BDFBBD4260
:10788000C0D9002DF6D1BDE74EB13046FBF7F4FE6E
:10789000074604E0202140466D1EFCF7ADFBBD42CB
:1078A00006D9002DF6D103E04046761CFCF7A4FB78
:1078B00031780029F8D1A5E7D9F80000011DC9F8F1
:1078C0000010056830214046FCF796FB78214046C1
:1078D000FCF792FB08200021CDE9000103461022AD
:1078E0002946B0E7BDE8FC872DE9F0411F46154663
:1078F00004000E4616D02068B8B1C5B160680268B1
:10790000501E304215D16A432046FCF7BEF980B1C3
:1079100020683B462A46D0F810C031462046BDE8D4
:10792000F04160470E20BDE8F0810820FBE7092008
:10793000F9E71020F7E720B119B101600B68114693
:1079400018470E20704700002DE9F04128B101686A
:1079500019B1C969BDE8F04108470D4D0D48002433
:10796000461B14270DE000BF04EB840005EB8000EC
:10797000016829B1C969884710B10120BDE8F081CB
:10798000641CB6FBF7F0A042EED80020F6E700003A
:10799000F82100200C2200202DE9F0411D4616465A
:1079A00004000F4617D0B6B12068B8B1C5B108467B
:1079B000FCF765F9B0B12A4639462046FCF765F96F
:1079C00080B120682B463246D0F808C039462046A0
:1079D000BDE8F04160470E20BDE8F0810820FBE7DC
:1079E0000920F9E71020F7E7044801214174007AE3
:1079F00008B100207047012070470000D028002007
:107A0000012801D0032808D10449002201284A7422
:107A100000D00020087401F099B97047D0280020E8
:107A200070B5254C0246207A012837D0022841D172
:107A300022480023022A006802D0032A2ED11BE02C
:107A4000E360017911B1012928D10DE0D0E9056584
:107A5000711B4FF48056B14200D3314629448161F5
:107A60004569A9420ED019E00169491C01614269CA
:107A7000914213D1237217E0E168491CE1600829A3
:107A80000CD9E3602372022A0ED00D21FDF7DAFC37
:107A90000B480A49091D0068FEF758FE607C28B1B2
:107AA000BDE8704000F082BF0021EFE7BDE8704004
:107AB00001F04CB970BD0000D02800204821002002
:107AC000E89C02002DE9F8431D46089F16468846AB
:107AD00004000DD066B1206860B135B160684068BF
:107AE000B5FBF0F100FB115030B10920BDE8F8837F
:107AF0000E20FBE70820F9E74046FCF7C0F890B1FC
:107B00003046FCF7BCF870B12A4641462046FCF7E7
:107B1000BCF840B1009720682B463246C768414602
:107B20002046B847E2E71020E0E770B541EA42019D
:107B3000DDE904564FF0A04441EA830141EA052102
:107B400004EB800041EA0641C0F8001770BD1CB587
:107B5000002100910B4601220191FFF7E6FF1CBDB9
:107B60001CB500220B46009211460192FFF7DDFF83
:107B70001CBD1CB5002100910B460122019111464C
:107B8000FFF7D3FF1CBD00002DE9F0410E461D4953
:107B900004460025D1F81024104609E0037AAB42D0
:107BA00005D16D1C0A2DF7DB4FF0FF3527E040684B
:107BB0000028F3D1681C22D02572D1F8100430B10E
:107BC00040686060D1F810044460002713E0002092
:107BD000C1F810446060F8E700231A463946284689
:107BE00000F02AFAB04200D330460246207A3946E5
:107BF00000F048FA7F1C00F015FAB842ECD828468D
:107C0000BDE8F081B4290020704710B54469606870
:107C100001688A680121904718B10420A1680870A2
:107C200010BD0320FAE72DE9F34146690446B06828
:107C3000007804281ED0032807D0002501A9E06899
:107C400000F09BFB85F0010709E00125F6E73946C6
:107C50003046FCF76FFC01A9E06800F08EFB0028BD
:107C6000F5D1019800F0F6FA002D03D0002130463E
:107C7000FCF760FCBDE8FC810A4A012902EBC00068
:107C800007D0022907D0032907D0042907D00020F4
:107C90007047022070470420704700797047407990
:107CA00070470000F4AD02002DE9F04F8DB0FCF7F5
:107CB000B3F918B100200DB0BDE8F08F7D48002168
:107CC000C0F81814BFF34F8FD0E9014504EA05014D
:107CD00000EB81014FF000090AE000BFC1F38912F7
:107CE00002EB9151641C0C4404EA050100EB810194
:107CF000C9688A07F2D0002107AA804604EA050372
:107D000008EB8300641CC06842F82100491C02296A
:107D1000F4D3079800F00300022806D00128079842
:107D200050D0C04380077DD0BEE007985022810D1F
:107D30000B91B2EB905F00D850210F4667F39F5034
:107D4000C0F3C20A079008315B4800F03AFA060017
:107D500069D000F07FFA4B46082207A9304600F0B0
:107D600099FA04EA0501681A8000001D09F1080B60
:107D7000874220D94F4D0C3530B1C2B208EB81019A
:107D8000381A91460C3104E02946FAB20025914692
:107D90002846C7B25B46304600F07CFA0BEB09037D
:107DA00025B13A462946304600F074FA0B98C01CBB
:107DB00004EB90043DE008EB81015B463A46304617
:107DC0000C31F1E7C0F38310062800D30620079991
:107DD00060F38911C1F38310C1F3C20A801C0791BB
:107DE0008100354800F0EDF906005DD000F032FA70
:107DF0004B46082207A9304600F04CFA09F1080961
:107E000000270DE004EA050008EB80014B46042240
:107E100030460C31641C00F03DFA09F104097F1C66
:107E2000079801E00FE03FE0C0F38310B842E9D8C3
:107E3000D6B3D8F81054D8F81804474608B33046DB
:107E400000F011FA30E0D8F8180400283FF433AFFE
:107E50002AE0687A012813D10899184A01EB4101F8
:107E600002EB8101287A896800EB4000C14001F0F3
:107E70000700504504D3296828460A6831469047D0
:107E80006D68002DE5D1304600F0EDF900208DF849
:107E900000006846FBF7E4FFD7F8180400B97C60DF
:107EA0009DF80000FCF700F8FCF7B6F880F0010040
:107EB00001E70000B4290020249E02000C220020CB
:107EC00000231A4601F050B908B5012300926A4612
:107ED00001F04AF908BD1CB5CDE9002302236A462A
:107EE00001F042F91CBD00002DE9F0470E46804626
:107EF0001C46924608293ED894F80C900020207326
:107F00001946104600F08AFE0025B54206D218F840
:107F100005201AA12046FFF7E1FB03E019A1204646
:107F2000FFF7DCFB6D1C082DEFD317A12046FFF7F0
:107F3000D5FB0025B54210D218F80570FBF718FBE9
:107F40000068C05D10F03E0F01D03A4600E02E22DE
:107F50000EA12046FFF7C2FB03E00DA12046FFF76C
:107F6000BDFB6D1C082DE5D301222146504600F0D3
:107F700037FE84F80C90BDE8F087000020253032F1
:107F800078000000202020007C0000002563000015
:107F9000200000002DE9F0471D484FF00009FF21A7
:107FA000C0F80090C0E90191C0F81894C0F814948A
:107FB00080F81C94174800F054F9002826D116497F
:107FC000DFF85880A1EB0800C70800241BE000265A
:107FD00035460CE0AC4209D058F8340058F835105A
:107FE0001422FBF767FB002800DD761C6D1CBD42E8
:107FF000F0D30B4904EB440001EB8000C0F804907F
:1080000004804680641CBC42E1D30020BDE8F087B8
:10801000B4290020249E02002CAE0200F4AD020020
:108020000C22002002480349401AC0087047000093
:108030002CAE0200F4AD02007FB5054611460024C7
:1080400001A87BB1FEF70CFBA0B901980B4900EB2E
:10805000400001EB800005EB45018068C84000F05E
:10806000070407E0FEF7FCFA20B90548019900EB88
:10807000C100847904B0204670BD00000C220020AD
:10808000F4AD020030B50F4B01EB410103EB81046D
:1080900000EB40000723A56803FA00F18D4302F0CE
:1080A00007018140294300252A46A16003FA02F016
:1080B0000840D040A84200D90546D21C0A2AF5D370
:1080C000656030BD0C22002013B56846FEF7C8FA83
:1080D00008B100201CBD0248009950F831001CBDB9
:1080E000F4AD020070B508480125D0F8104480F8BE
:1080F0001C5405E065722168204649688847646819
:10810000002CF7D170BD0000B42900202DE9FF47F5
:1081100081460C9D00200C462F7B287398461646FE
:108120002946184600F07AFD072E42D2DFE806F015
:1081300004090F161F2A360049462846FFF7CEFAD3
:1081400037E0494628462268FFF7C8FA31E0D4E90B
:10815000002349462846FFF7C1FA2AE0A0680090AC
:10816000D4E9002349462846FFF7B8FA21E0D4E9CC
:108170000201CDE90001D4E9002349462846FFF772
:10818000ADFA16E004F1080007C88DE80700D4E94D
:10819000002349462846FFF7A1FA0AE004F1080047
:1081A0000FC88DE80F00D4E9002349462846FFF7A1
:1081B00095FA00222946404600F012FD2F73BDE8D3
:1081C000FF872DE9F041058A80462D1F4819C01C04
:1081D000B0FBF5F0C6B24046FEF7EDFA040019D048
:1081E0000020207101206071E58000272546761E61
:1081F000C4F800800BE04046FEF7DDFA60B161791B
:10820000491C6171286005467F1CC0F80080B74298
:10821000F1D32046BDE8F081204600F002F80020AE
:10822000F8E72DE9F041457901466B1E002201E097
:108230000968521C9A42FBD30F680146002605E0EC
:1082400038460C68FEF7D9FA2146761CAE42F7D3C1
:10825000BDE8F08108B501216A46001DFBF7BFF8B3
:1082600008BDFEF7E2BA38B50446001D01216A4692
:10827000FBF7C2F8009810F0FF0F04D12046BDE8CC
:108280003840FFF7CEBF38BD38B501240094FEF763
:1082900098F938BD38B500240094FEF792F938BD3E
:1082A0002DE9F8430446002790460E468DF80070ED
:1082B0006846FBF7D5FD204600F039F838B10527B0
:1082C0009DF80000FBF7F0FD3846BDE8F883206814
:1082D0000568B8F1000F05D10168204600F046F8A6
:1082E00021680860E268012A0CD0022A0ED0042A14
:1082F00011D06068082A13D005FB02013046FBF755
:1083000089F9DDE76068405D3070D9E7606830F872
:1083100015003080D4E7606850F825003060CFE762
:1083200000EBC501D1E90001C6E90001C8E7016819
:1083300008684968884201D10120704700207047D1
:1083400001680A6849688068884201D9491C00E0D0
:108350000021914201D10120704700207047006840
:10836000806870470068002181607047806888429B
:1083700001D9481C7047002070472DE9F843044696
:108380004FF000080E468DF800806846FBF768FD48
:108390002046FFF7D5FF07000AD0207C40B14FF000
:1083A00004089DF80000FBF77FFD4046BDE8F88318
:1083B0002068456841682046FFF7D8FF216848607B
:1083C00037B1206801682046FFF7D0FF21680860B8
:1083D000E268012A14D0022A16D0042A19D0082AE9
:1083E0001CD06068314605FB0200FBF713F92046FC
:1083F00000F00CFD21688A688242D2D28860D0E702
:10840000616830784855F2E76168308821F81500D6
:10841000EDE76168306841F82500E8E7D6E900013A
:10842000626802EBC502C2E90001E0E72DE9F04114
:108430001E0015460F46044606D0A068FEF7B5F9A3
:1084400010B11120BDE8F081A0686268D0E9033165
:10845000A3EB010C501C844507D10020286016B105
:10846000A068FEF794F90020ECE703EA020001EAB5
:108470000206B04202D3111A491C00E0C91A2A6848
:108480008A4200D211462960216808443860A068F9
:108490002A68C1681144C160E5E72DE9F04105464D
:1084A000806817468846001DFEF77FF910B111203D
:1084B000BDE8F081A868816800690C1A3868A0429C
:1084C00000D204463C60AA68696810699268084056
:1084D0000A40824201D9161A01E00E1A761CB442F3
:1084E00008D92968324608444146FBF793F8A41B93
:1084F0000020B0442968224601444046FBF78AF830
:10850000A8683A68016911440161A868001DFEF776
:108510003EF90020CCE72DE9F04105461746884694
:108520008068FEF742F910B11120BDE8F081A8681B
:1085300081680069081A69680C1A3868641CA042CE
:1085400000D204463C60A8686968806808400E1A3A
:10855000761CB44208D92968324608444146FBF7E4
:1085600059F8A41B0020B04429682246084441461B
:10857000FBF750F8A8683A68816811448160A868E0
:10858000FEF705F90020D0E710B5826894681369FA
:10859000E41AA14201D9042010BD19441161826876
:1085A00051618068001DFEF7F2F8002010BD2DE932
:1085B000F0411E0014460F46054607D0A868001D6E
:1085C000FEF7F3F810B11120BDE8F081A8688168CA
:1085D00040690A1A09D06B681840194081420DD9C8
:1085E000266896420AD9226010E0002020601EB161
:1085F000A868001DFEF7CBF80020E5E7814205D80A
:10860000191A2268491C8A4200D921602968084445
:108610003860A8682268416911444161ECE78268CA
:108620000021916082681161826851618268D16025
:108630008268516080680160704738B5826845681B
:1086400094681369E31AEB1A5B1C994201D9042060
:1086500038BD6318936081686A46CB6080680021EA
:10866000FAF7F1FE08B1002038BD082038BD00003F
:1086700020B1034909680160002070470E2070474F
:10868000309F0200FEB502460E460846FFF7F0FF97
:10869000002876D1002400940194012703208DF84E
:1086A0000020ADF8040002948DF802706946202085
:1086B000326869DF334D50B1696841B100F0E6F9C5
:1086C00002462888304907EB0040FFF7FDFB009485
:1086D0008DF800408DF80140019402948DF802401D
:1086E00069464020326869DF58B1696849B100F0D5
:1086F000CDF92988024607EB014324491846FFF7C4
:10870000E3FB0094019402948DF800406946012037
:10871000326869DF50B1696841B100F0B7F90246CB
:1087200028881B4907EB0040FFF7CEFB4FF4B060F1
:108730000090019402946946A120326869DF50B12B
:10874000696841B100F0A2F902462888114907EB97
:108750000040FFF7B9FB0094019402948DF80040AB
:108760006946A020326869DF50B1696841B100F004
:108770008DF902462888084907EB0040FFF7A4FB63
:108780000020FEBD48220020A8AC0200F0AC020090
:1087900008AC020054AC0200B4AB02002DE9F04179
:1087A0000546D0F800E060DF2B68184C064673459C
:1087B0001BD06068022818D32088022707EB0040EE
:1087C000724613A1FFF787FB606802280DD3F806F5
:1087D000D0F80C012968800200F10050421A20886C
:1087E00017A107EB0040FFF76FFB66B1606850B15F
:1087F000304600F04BF902462088012101EB004091
:1088000018A1FFF761FB3046BDE8F0814822002047
:1088100052414D20737461727473206174203078FA
:1088200025782C2063616E2062652061646A75730F
:1088300074656420746F20307825782E0000000065
:1088400052414D2073697A652063616E2062652014
:1088500061646A757374656420746F20307825785C
:108860002E00000073645F626C655F656E61626C10
:108870006528292072657475726E65642025732ED3
:108880000000000030B593B05FF03805ADF84450FB
:1088900011A903A861DF30B1052816D013B0BDE8D7
:1088A0003040FBF741BA03AC0949684600F0AAF82A
:1088B00007E000BFD0E9002120469047684600F05D
:1088C000B8F802980028E1D0F4E713B030BD0000FA
:1088D000349F020010B50D4C2078A0B10120A0708B
:1088E00000F0BEFB11280CD0022000F0D1FB11DFFC
:1088F000002807D12070A07000F0F2FB032000F0E8
:10890000C7FB002010BD082010BD0000C0210020C2
:1089100038B5174C207808B1082038BD0125A5705E
:10892000002000F09DFB112820D0002000F0B0FBBB
:108930001048114900680090684610DF0028ECD10B
:108940002570A07060700721162000F068FB08B148
:10895000FBF7EAF90721152000F061FB08B1FBF7EE
:10896000E3F900F0D9FB012000F092FB002038BDB4
:10897000C0210020C89E0200A53C02000EB5074998
:10898000684600F03FF805E0D0E9001088476846E7
:1089900000F04FF802980028F6D10EBDE49E0200C8
:1089A0000148007870470000C02100200548817808
:1089B00019B1007818B1FFF78DBF08207047FFF795
:1089C000A7BF0000C02100201FB5684648DF30B1B6
:1089D000052814D004B0BDE81040FBF7A5B908493C
:1089E00001A800F00FF806E0D0E9002100989047B8
:1089F00001A800F01EF803980028E6D0F4E71FBD98
:108A0000509F0200016009684160AFF3008010B51B
:108A1000D0E900215368994201D1002104E0D1E955
:108A20000034A34202D01946816010BD0831416074
:108A3000F0E7816800290BD0026892680A448260DE
:108A400041684B689A4203D108314160FFF7DFBFAC
:108A5000704700000C4A10B502F1F0030EE0991ABD
:108A6000C91001EBD171491002EBC1010C688442BD
:108A700001D90B4602E005D201F108029A42EED379
:108A8000002010BD486810BD2C9D020000B5FFF706
:108A9000E1FF002800D1014800BD0000189D020040
:108AA0004058002800D00120704708B500224250ED
:108AB0004058009008BDD0F80403084000D00120C1
:108AC00070474058002800D00120704708B50022A8
:108AD00042504058009008BD2DE9F84317460C005D
