:020000040002F8
:10300000185500204D33020055330200573302009B
:10301000593302005B3302005D3302000000000000
:103020000000000000000000000000005F3302000C
:1030300061330200000000006333020065330200C8
:103040001536020067330200513A0200F1360200E1
:103050003D370200673302005D340200673302002F
:1030600067330200673302006733020067330200F0
:1030700067330200673302006733020067330200E0
:10308000673302006D3602006733020067330200C7
:103090004D370200673302005137020067330200E8
:1030A00067330200673302006733020067330200B0
:1030B00067330200673302000000000000000000D8
:1030C0006733020067330200673302006733020090
:1030D000673302006733020067330200000000001C
:1030E00000000000000000000000000000000000E0
:1030F00000000000000000000000000000000000D0
:1031000000000000000000000000000000000000BF
:1031100000000000000000000000000000000000AF
:10312000000000000000000000000000000000009F
:10313000000000000000000000000000000000008F
:10314000000000000000000000000000000000007F
:10315000000000000000000000000000000000006F
:10316000000000000000000000000000000000005F
:10317000000000000000000000000000000000004F
:10318000000000000000000000000000000000003F
:10319000000000000000000000000000000000002F
:1031A000000000000000000000000000000000001F
:1031B000000000000000000000000000000000000F
:1031C00000000000000000000000000000000000FF
:1031D00000000000000000000000000000000000EF
:1031E00000000000000000000000000000000000DF
:1031F00000000000000000000000000000000000CF
:10320000DFF80CD000F0ECF8004800471946020047
:103210001855002030B4044654E8000F0D4644E829
:103220000053002BF8D1156030BC704730B4044611
:1032300054E8000F40EA010544E80053002BF7D1A1
:10324000156030BC704730B4044654E8000F00EA03
:10325000010544E80053002BF7D1156030BC7047DE
:1032600030B4044654E8000F80EA010544E80053F6
:10327000002BF7D1156030BC704730B4044654E8D9
:10328000000F00EB010544E80053002BF7D1156057
:1032900030BC704730B4044654E8000FA0EB010581
:1032A00044E80053002BF7D1156030BC7047000094
:1032B00030B4044654E8000F0D4644E80053002B98
:1032C000F8D1156030BC704730B4044654E8000FA4
:1032D00040EA010544E80053002BF7D1156030BCEB
:1032E000704730B4044654E8000F00EA010544E892
:1032F0000053002BF7D1156030BC704730B4044642
:1033000054E8000F80EA010544E80053002BF7D190
:10331000156030BC704730B4044654E8000F00EB31
:10332000010544E80053002BF7D1156030BC70470D
:1033300030B4044654E8000FA0EB010544E8005304
:10334000002BF7D1156030BC70470000064880475D
:1033500006480047FEE7FEE7FEE7FEE7FEE7FEE77A
:10336000FEE7FEE7FEE7FEE7553702000132020006
:1033700000487047F470020040EA01039B0703D045
:1033800009E008C9121F08C0042AFAD203E011F8A4
:10339000013B00F8013B521EF9D27047D2B201E066
:1033A00000F8012B491EFBD270470022F6E710B54A
:1033B00013460A4604461946FFF7F0FF204610BDA3
:1033C000421C10F8011B0029FBD1801A70470346EC
:1033D00011F8012B00F8012B002AF9D1184670478B
:1033E000064C074D06E0E06840F0010394E8070052
:1033F00098471034AC42F6D3FFF706FFF472020090
:103400001473020070B58C1810F8015B15F00703F7
:1034100001D110F8013B2A1106D110F8012B03E06D
:1034200010F8016B01F8016B5B1EF9D12B0705D475
:103430000023521E0DD401F8013BFAE710F8013BBE
:10344000CB1A921C03E013F8015B01F8015B521EDA
:10345000F9D5A142D8D3002070BD00002DE9F04776
:1034600000268CB0DFF86091B0464FF480750124DF
:1034700037460696284601F0D7FD38B1D9F804033F
:10348000204203D0284601F0C5FD26432D1D6400CF
:103490007F1CADB2082FEDD34FF4BE74204601F06F
:1034A000C3FD48B1204601F0B5FD46F0004606AA2E
:1034B0000121002001F09AFD444D16F0FF0F15D0B8
:1034C0000127002437420DD009EB8401D1F8100503
:1034D000D1F81015C0F3042055F82420C1F30141A0
:1034E00002B190477F00641C082CEBD3002E67DAF2
:1034F0004FF0FF30CDE9088000263446281910F837
:10350000507F90F9000027F0C008401C44D009A962
:10351000404601F082F958B34FEA9719404600F04F
:1035200087FD55F820701FB1B9F1030F03D00FE0EC
:10353000B9F1030F30D108A84FEAD80208F0070309
:10354000815C4FF0010C0CFA03FC41EA0C01815440
:103550004FF0A04101EB8800D0F8000706A9C0F3A6
:10356000014A404601F059F918B1BAF1020F03D0EF
:1035700012E0BAF1030F0FD1B9F1030F08D1BAF17C
:10358000020F1BD00221404601F006FD761CF6B268
:1035900017B149464046B847641C042CAED3002EF0
:1035A0000ED06A460121002001F020FD0699009806
:1035B000884205D00690089809909DE70321E2E72C
:1035C0000CB0BDE8F087000000600040D427002068
:1035D00000F01F02012191404009800000F1E0202D
:1035E000C0F88012704700F01F020121914040098D
:1035F000800000F1E020C0F80011704700F01F02C9
:10360000012191404009800000F1E020C0F8001243
:10361000704700002DE9F0414FF48077384601F003
:10362000A9F90124104EA50748B1384601F0A9F9BF
:103630000120C5F808037470002000F001FD4FF46C
:103640008277384601F096F900280BD0384601F011
:1036500098F90220C5F80803B470BDE8F0410120D4
:1036600000F0EEBCBDE8F081C02700200748002133
:10367000C0F84011C0F84411C0F84811C0F84C110E
:10368000C0F80011C0F8041102F0B0BC00100140F5
:1036900000F0ECB970B50E46144900EB400001EBA8
:1036A000C0051446E86A183520B101280FD0022859
:1036B00005D113E0284600F00DFAA04201D2002403
:1036C00011E022463146284600F03CFA0BE028463D
:1036D00000F000FAA042F4D20446F2E73146284650
:1036E00000F003FA0446204670BD0000903200202E
:1036F000F8B511480F4D04464FF48C7102F06DF887
:10370000002815D00026C4F81861D4F818010090DC
:10371000A87F2C46FF2801D001F04FFC6677267267
:10372000D4E9002101B004F10800BDE8F0401047E1
:10373000F8BD00004C2800200030004002494FF046
:10374000402000F0BCBD00007028002002F09CBBAF
:1037500001F0E6BFF0B5AE480023021D0178012557
:10376000101D4FF0805406290BD11678360708D16A
:103770000678C6F30316032E06D0042E04D0052EB9
:1037800002D0062907D00EE0B4F82463A14FC6F397
:1037900004263E6002E01678360704D10678C6F3A8
:1037A0000316032E02D0062904D00FE09B4F9A4E39
:1037B0007E670EE01678360708D10678C6F3031642
:1037C000032E06D0042E04D0052E02D0062907D0E1
:1037D0000EE0D4F84462924FC6F342363E6002E0F7
:1037E0001678360704D10678C6F30316032E02D0E6
:1037F000062906D011E08B4E376827F080773760B6
:103800000EE01678360708D10678C6F30316032EA5
:1038100006D0042E04D0052E02D006290AD011E0CD
:103820004FF08046C6F80C31C6F810317C4E361F7A
:10383000336002E01678360704D10678C6F3031623
:10384000032E02D0062905D00CE0754F03266437FD
:103850003E600AE01678360704D10678C6F30316F0
:10386000032E02D006290DD014E06F4F05263E60CE
:103870006D4E783635606C4E083633603F263F1DFE
:103880003E6002E01678360704D10678C6F30316C8
:10389000052E02D0062957D062E0644E3668644F88
:1038A0003E60624E361D36683F1D3E605F4E0836F4
:1038B00036683F1D3E605D4E0C3636683F1D3E60EB
:1038C0005A4E103636683F1D3E60584E14363668E4
:1038D0003F1D3E60554E18363668554F20373E60C6
:1038E000524E1C3636683F1D3E60504E20363668BC
:1038F0003F1D3E604D4E243636683F1D3E604B4EA8
:10390000283636683F1D3E60484E2C3636683F1DCF
:103910003E60464E30363668454F40373E60434E37
:10392000343636683F1D3E60404E383636683F1D9F
:103930003E603E4E3C3636683F1D3E603B4E403654
:1039400036683F1D3E6002E01678360708D10678DB
:10395000C6F30316032E06D0042E04D0052E02D083
:10396000062907D019E0D4F85812324A01F04F0165
:10397000116002E0117809070FD10078C0F303103D
:10398000032803D0042801D0052806D12A4801685D
:10399000C90702D06FF00101016022487438016844
:1039A00041F470010160BFF34F8FBFF36F8F4FF091
:1039B0001021D1F80002002803DBD1F8040200280E
:1039C00022DA1E4A15601E480468002CFCD015241B
:1039D000C1F800420568002DFCD0C1F8044201681E
:1039E0000029FCD0136001680029FCD0BFF34F8F81
:1039F0000C48F0380168134A01F4E061114301609A
:103A0000BFF34F8F00BFFDE710490F480860F0BDBE
:103A1000E00F00F0403501400DF0ADBA00C00740A6
:103A20003C050040FCED00E010560040040400108E
:103A300020C50040E40E00400004004004E50140C1
:103A400000E401400400FA050090D003F8250020AE
:103A50000448017F04480029024901D002F053BD07
:103A600002F0C2BC2C2800200020004010B5124CEF
:103A700002202061606111A0A06104F17800E06182
:103A80004FF4007020620020A06260620BA1A1646C
:103A9000E06204F51E71E1641021A065C4E9141010
:103AA000E06509A1E01DFFF792FC08A12046FFF7A1
:103AB0008EFC2020A07110BD903200205465726DE4
:103AC000696E616C00000000525454005345474732
:103AD000455200000269C1688A4203D88068401AD2
:103AE000104400E0501A401E70472DE9F047C468AA
:103AF0001746894606464FF000083069A04201D9B2
:103B0000051B02E0B168201A0D1AB0686D1E001B7B
:103B1000A84200D80546BD4200D33D4670682A46FB
:103B200020444946FFF728FCB0687F1B2C44A8447A
:103B3000A944A04200D10024F460002FDDD140460A
:103B4000BDE8F0872DE9F04104468846D4E9020734
:103B5000C51BE168606816460844B54206D941466F
:103B6000FFF70AFCB819E060BDE8F0812A4641463B
:103B7000FFF702FC761B08EB050132466068FFF791
:103B8000FBFBE660F0E702E008C8121F08C1002A4C
:103B9000FAD170477047002001E001C1121F002ACE
:103BA000FBD1704701F0B6FC01F00CFB0028FBD103
:103BB000104C0121208801EB00400FA101F0FAFB1D
:103BC00010480068C00700D000BE2088022101EB29
:103BD00000400DA101F0EEFBBFF34F8F0948E43820
:103BE00001680D4A01F4E06111430160BFF34F8F9A
:103BF00000BFFDE75C260020466174616C206572A1
:103C0000726F7200F0ED00E053797374656D20728D
:103C100065736574000000000400FA050EB500210C
:103C20000091CDE901106A4644F20100FFF7BAFFA6
:103C30000EBD00002DE9FC47DFF8789099F80230BE
:103C400073B368B3052902D20720BDE8FC87436936
:103C500033B3437C012B25D000270446002588463A
:103C600016468DF80050684600F038F801A802F0BA
:103C70001DFDC8B1012101700F4944600968C0E908
:103C80000218C0E904769DF8040089F801009DF847
:103C9000000000F047F81420FFF7B0FC2846D4E7F6
:103CA0000820D2E70F46D8E704259DF8000000F071
:103CB00039F8F3E79828002004150140064989786F
:103CC00039B130B1416921B100210174022102F002
:103CD00069B90820704700009828002030B5EFF33C
:103CE000108172B60D4A9468012324B10370002933
:103CF00000D162B630BD93604FF0E023D3F880511D
:103D0000074C25401560C3F88041D3F884415460C6
:103D10005A17C3F8842100220270E8E7A429002082
:103D2000FC06FFBD0B498A68002A11D000280FD17C
:103D3000EFF3108072B60B684FF0E022C2F800314A
:103D40004B68C2F8043100228A60002800D162B6B4
:103D500070470000A42900202DE9F04701883B4E60
:103D600040F2F3194FF6FF7510291BD011293ED0F0
:103D7000122954D0502946D1C188F289841D91421C
:103D800041D1618902293ED18688304600F03AFA55
:103D9000050038D004F10C0000F0F9F8A8B329466A
:103DA00030464EE0C17B8788044601292BD1A846C6
:103DB000284600F027FA050017D02F80002028722F
:103DC000234843464A460168C5F80A104068C5F8CA
:103DD0000E0004F1100105F10A0000F017FB6872F3
:103DE000F08900280FD129462AE0042013E08088BA
:103DF00000F008FA040006D06068FFF75FFF08B122
:103E000001F0D8FF2580BDE8F087FFE76868FFF77D
:103E100055FF0028F7D0BDE8F04701F0CBBF8788F9
:103E20000646384600F0EEF90400ECD02B464A4630
:103E300006F1080104F10A0000F0E8FA6072214678
:103E40003846BDE8F04700F065B90000EC260020D8
:103E5000802100202DE9F047044603883F480122D5
:103E6000A4B000F1480A102B09D0112B54D01A2B02
:103E700070D1217AB2EB111F53D2012352E0D0E965
:103E800011218A430546011D12A801F066FF442254
:103E900012A901A8FFF770FADFF8C0900026374694
:103EA00009F144090DF104080AE000BF08EB4600DF
:103EB0001D2283884946281D009701F013FF761CB8
:103EC0000198B042F2D8686CA688C04301F02CFF7C
:103ED000A0F57F41FF3917D005EB40000123868014
:103EE00032465146281D01F05DFF01233246494606
:103EF000281D01F057FFE07B02280BD00023174953
:103F0000A2884C31281D20E024B00420BDE8F047F1
:103F1000FFF784BE0123F2E70023A2885146001D6B
:103F200013E000230D490546A2885031001D01F021
:103F300039FF207A0221B1EB101F01D2012300E0EA
:103F400000230649A2885431281D24B0BDE8F0475B
:103F500001F028BF24B0BDE8F0870000082700204A
:103F600030B40288502A10D1034630F8062F4C880E
:103F7000A2420AD14289012A07D14C69002C04D0FF
:103F8000027B9888A44630BC604730BC70470078FC
:103F900000F0010070470000F8B5871C00208DF884
:103FA00000000E4601256846FFF798FE124C206877
:103FB0003060D4E90001401AA168091ABE1C06E06D
:103FC00000F0E0FAD4E90001401AA168091A491C7E
:103FD0008E42F5D8A1682068084004EB8000C168D3
:103FE00041F00301C1602068384420609DF8000062
:103FF000FFF798FE2846F8BD702E002030B4826886
:104000000468531C8360A154D0E901128A4202D390
:1040100030BC00F0C0BE30BC70470000034803C88D
:10402000814201D10120704700207047702E00208E
:104030000249084490F9300070470000D42700205E
:1040400070B5084C050009D010342168002907D04C
:1040500008682060496828468847F6E70834F4E78E
:1040600070BD0000C02700202DE9F05F26484168A0
:10407000F1B3DFF898B00E688146DBF8004087683E
:104080008078E11B21F07F45ED1CB0B9DFF880801E
:104090004FF48030C8F84403C8F804031120FFF738
:1040A00097FA1120FFF79FFA4FF0010AC8F800A015
:1040B0002F2000F0FFFC89F802A0B54200D235465F
:1040C000124BE8193C3320F07F401860DBF80010F9
:1040D0005A46091B21F07F41001B20F07F40C91C7C
:1040E00081420FD9106818602F2000F0E3FC00E037
:1040F00004E0BDE8F05F1120FFF780BABDE8F05F93
:1041000001F082BDBDE8F09F882100200415014028
:104110000010014038B54A7A0F4B62B100220A7292
:104120005969002906D001228DF80020ADF802005F
:104130006846884738BD0A7A62B19B684C68024677
:1041400019462046FFF776FD0028F3D0BDE8384039
:1041500001F030BE5B68F1E7EC2600200E4910B597
:104160000A784C780023A24212D0521CD2B20A70B4
:10417000022A00D10B70084A0B780C3252F8232027
:1041800002608868104420F07F408860012010BDE4
:104190000360002010BD00008821002070B5064695
:1041A0005FF0000404F1B000C0B202F0C3FA0220D4
:1041B00002F0C0FA102002F0BDFA0025304602F0ED
:1041C0008DFA6D1CEDB2562DF8D3641CE4B2082CA8
:1041D000E8D307480321008801EB004005A101F066
:1041E000E9F800BF00F0EEFF0028FBD170BD000031
:1041F0005C2600202066696C6C5F69326320454E46
:10420000440000000146034802888A4200D0002092
:1042100070470000D82600202DE9FC5F0E00834681
:10422000DDE90C47C6F1000098469246814600D46D
:104230000846012503E000BF90FBFAF06D1C5045D5
:10424000FADAA84500D9454624B1002E01DB7807EB
:1042500000D5641EB80702D5B8F1000F0AD0F807E0
:1042600008D13CB1A54205D220215846641EFFF773
:10427000C5FEF6E7002E02DA4E462D2102E0780751
:1042800003D52B215846FFF7B9FE07F0030002289B
:104290000BD1B8F1000F08D13CB1A54205D23021B5
:1042A0005846641EFFF7AAFEF6E7CDE900474346ED
:1042B00052463146584602F09FF9BDE8FC9F2DE971
:1042C000FF470D464FF492770446394601F08AFACB
:1042D0004FF002094FF001084FF4827640B13946A1
:1042E000204601F084FA3146204601F07BFAB0B353
:1042F000B2463146204601F075FA4FF0FF360027EE
:1043000070B35146204601F072FA05F10C0001AB82
:1043100007C883E8070095F8230078B1287B0128B7
:104320002DD0D4F84C05C0B28DF80600287B0228A9
:1043300028D0D4F84C05C0B28DF807004FF4B07106
:10434000204601F054FA4FF4AE71204601F04FFAC6
:1043500095F8250080B395F8230068BB3CE000E0A9
:1043600013E0A868C4F80803C5F80890A868C4F862
:104370000403C4F82080C4F81480BDE8FF87D4F893
:104380003C05D0E7D4F83C05D5E74FF4A4712046AE
:1043900001F02DFA287B80B14FF40070C4F80002C0
:1043A000801CA860C4F80863A868C4F80403C4F8B3
:1043B0000880C4F82080E0E708E005F10C0001ABBC
:1043C00007C883E8070095F8250028B90020C4F83D
:1043D0000002AF60C4F80863D4F8C404C4F8C4048D
:1043E000810702D58DF8008006E0400702D58DF8E0
:1043F000009001E08DF8007095F8250008B985F867
:104400002470D5E9002168469047B6E7F0B5848866
:10441000A518944200D82246A41AC288D6189A42F7
:1044200000D81346D21A4B880788BB420CD3408869
:10443000834209D88888A04206D3A84204D8C888F5
:10444000904201D3B04201D90020F0BD0120F0BD5F
:1044500006490120086006480168C1F300410029AF
:10446000FAD1044900208870704700000C00004019
:1044700018040040C027002017210180418000213E
:10448000017141711B218171C17170472DE9F047A4
:10449000394E002780463D46DFF8E090D6F804A06C
:1044A00057E003D00446D0F81C8035E099F800208E
:1044B00002EB4201521CD2B289F8002009EBC10183
:1044C00099F80230091D9A4201D189F800504868D4
:1044D0000A780446012A12D0022A02D0032A3BD1CC
:1044E00008E001F02FFD00B10127257434E00574C8
:1044F000C06900E070680028F9D170602CE0207C71
:1045000050BB88686060C868A0600869E06048695E
:10451000A061F07800B165606268B168184B501A0C
:1045200020F07F40984202D2A168084406E0881A31
:10453000A16820F07F40814202D9081A206000E083
:10454000256065600120A56020742046E56101F0CA
:10455000DBFCB8F10000A4D199F8001099F8010033
:104560008142A3D117B97168514502D00120BDE83D
:10457000F0870020FBE70000882100209828002019
:10458000FFFF7F0070B588B0214800F0EDF82048AB
:10459000001F064600F0E8F81E4DD5E9014105E090
:1045A000C0F3891202EB9050641C044404EA010039
:1045B00005EB8000C0688207F2D000200DF10802F0
:1045C00004EA010305EB8303641CDB6842F8203036
:1045D000401C0228F4D3029800F00300012808D000
:1045E00002280AD10298032101EB905004EB9004B9
:1045F00003E00298C0F3831004443046002101AA6E
:10460000FEF76FFE002800D06C6008B070BD00009F
:1046100088320020702E0020002000F035FF08B105
:10462000FFF7FCFA00F0C0FD164C032516A1208808
:1046300005EB004000F0BEFE00F0C4FD0028FBD1F9
:10464000208814A105EB004000F0B4FE01F0F2F860
:10465000FF210846FFF7A2FD114800F09FF9002155
:104660000846FFF79BFD0F4800F098F920880EA13F
:1046700005EB004000F09EFE00F0A4FD0028FBD1F9
:10468000FEE700005C2600206D61696E2073746196
:10469000727400006F6C65645F696E69742E00004F
:1046A00040420F0060E3160020456E746572206D75
:1046B00061696E206C6F6F702E0000002DE9F0476D
:1046C000C7880446181D16468946B0FBF7F1B0FBB3
:1046D000F7F207FB12009A193A44D21CB2FBF7F228
:1046E000DDF820A001E02468491E0029FBD13D1A15
:1046F0008846B54216D818E0BAF1000F05D0211847
:1047000009EB08002A46091D04E0204409EB0801D2
:104710002A46001DFEF730FE00202468761BA844C0
:10472000B74201D9354600E03D46002EE4D1BDE850
:10473000F087000030B5024669B100F0D3FE0021D9
:10474000084C0BE001EB410304EB830315685B8825
:10475000AB4202D11160002030BD491C8142F1D32F
:10476000052030BDFC25002008B501216A46FEF772
:10477000ABFD009808BD38B5044600258DF8005003
:104780006846FFF7ABFA21686268086890420ED964
:10479000401E08600178238AE26801FB0325227A23
:1047A0002168101AC0B20A79824200D208719DF8BD
:1047B0000000FFF7B7FA284638BD38B50546002097
:1047C0008DF800000C466846FFF788FAE868298AE9
:1047D000201AB0FBF1F12A681068431C13600170C5
:1047E0009DF80000FFF79EFA38BD10B530B1017A90
:1047F00042680368891AC9B21A6006E00E2010BD2B
:1048000003681A68541C1C601170491EC9B2F7D2A3
:10481000006800210171084610BDC20800F00703BE
:104820000120895C98400840704700002DE9F04362
:10483000858895B00C46002D3DD10188DFF8248194
:104840000026DFF82491012724293CD006DC10291A
:1048500009D011290CD023296DD150E03A290BD071
:10486000552968D12AE00146204601F0F9F862E0B6
:10487000A01DFFF701FE5EE02246408934F8061FC6
:10488000814200D808466080172800D21720608037
:10489000106970B1607960B1D8E90010CDE90310FA
:1048A000ADF80E506088ADF81000136903A91046EA
:1048B00098476671267115B0BDE8F0830146204621
:1048C00001F01CF937E0011D342206A8FEF754FD63
:1048D000BDF81800BDF81C2004EBC0014A73226922
:1048E0004AB3D8E90432CDE90432ADF81200487B6E
:1048F0008DF814002269204604A990471BE0049615
:10490000059630F8041F04EBC1020179127B8A423C
:1049100000D21146ADF81010ADF812100088002238
:1049200004A990DF020006D0B9F800000F4907EB98
:10493000004000F043FDA07A0028BCD0E188284662
:104940009EDF02000BD0112AB5D0B9F8000015B0D7
:1049500007EB0040BDE8F043054900F02FBDA6720B
:10496000E772A8E778680200FC2500208071020049
:10497000F870020000F180400068002800D001209B
:10498000704708B500F18040002101600068009088
:1049900008BD4FF47A71484300F0D2B800283ED0E9
:1049A0001F49204A096800BF00BF00BF00BF00BF09
:1049B00000BF00BF00BF91422FD000BF00BF00BFAB
:1049C00000BF00BF00BF00BF00BF00BF00BF00BFEF
:1049D00000BF00BF00BF00BF00BF00BF00BF00BFDF
:1049E00000BF00BF00BF00BF00BF00BF00BF00BFCF
:1049F00000BF00BF00BF00BF00BF00BF00BF00BFBF
:104A000000BF00BF00BF00BF00BF00BF00BF00BFAE
:104A100000BF00BF00BF00BF00BF0138C3D1704757
:104A2000F82500200024F40000283ED01F49204A29
:104A3000096800BF00BF00BF00BF00BF00BF00BFCC
:104A400000BF91422FD000BF00BF00BF00BF00BF1A
:104A500000BF00BF00BF00BF00BF00BF00BF00BF5E
:104A600000BF00BF00BF00BF00BF00BF00BF00BF4E
:104A700000BF00BF00BF00BF00BF00BF00BF00BF3E
:104A800000BF00BF00BF00BF00BF00BF00BF00BF2E
:104A900000BF00BF00BF00BF00BF00BF00BF00BF1E
:104AA00000BF00BF00BF0138C3D17047F825002008
:104AB0000024F40000283ED01F49204A096800BFA6
:104AC00000BF00BF00BF00BF00BF00BF00BF9142DA
:104AD0002FD000BF00BF00BF00BF00BF00BF00BF9E
:104AE00000BF00BF00BF00BF00BF00BF00BF00BFCE
:104AF00000BF00BF00BF00BF00BF00BF00BF00BFBE
:104B000000BF00BF00BF00BF00BF00BF00BF00BFAD
:104B100000BF00BF00BF00BF00BF00BF00BF00BF9D
:104B200000BF00BF00BF00BF00BF00BF00BF00BF8D
:104B300000BF0138C3D17047F82500200024F400DD
:104B400000283ED01F49204A096800BF00BF00BFAF
:104B500000BF00BF00BF00BF00BF91422FD000BF09
:104B600000BF00BF00BF00BF00BF00BF00BF00BF4D
:104B700000BF00BF00BF00BF00BF00BF00BF00BF3D
:104B800000BF00BF00BF00BF00BF00BF00BF00BF2D
:104B900000BF00BF00BF00BF00BF00BF00BF00BF1D
:104BA00000BF00BF00BF00BF00BF00BF00BF00BF0D
:104BB00000BF00BF00BF00BF00BF00BF00BF013883
:104BC000C3D17047F82500200024F40070B50F4CC5
:104BD0000025207808B1852516E00021A1606160DC
:104BE0002161E1604FF0E020D0F80001012610F0D3
:104BF000010F03D10721002000F022F800F0A2FDF0
:104C000008B9034806602670284670BDC0270020FA
:104C10001805004008B500208DF800006846FFF731
:104C20005DF80648C168491EC160C06808B9FFF751
:104C30000FFC9DF80000FFF775F808BDC0270020A5
:104C40004907090E002806DA00F00F0202F1E022FF
:104C500082F8141D03E000F1E02282F8001400F055
:104C60001F02012191404009800000F1E020C0F8BE
:104C70008012C0F8001170470121B1EB507F01D1C3
:104C800001207047002070470179064A01EB81013D
:104C9000006802EBC1010622C0F80025022081F85D
:104CA000220070477028002070B506460D46007936
:104CB0001F4900EB800001EBC00494F8220008B10A
:104CC000082070BD0020C4E90023A06084F82500FE
:104CD00084F82400A87B84F82700687B10B128465C
:104CE00001F0BEF9296840F20C60890001F1A04191
:104CF000C1F800076968890001F1A041C1F8000707
:104D0000D5E900123068C0F80815C0F80C25A9686C
:104D1000C0F82415206828B13068297B000B40B208
:104D2000FFF78EFF012084F82200002070BD0000F4
:104D3000702800203EB500250095069C8DF80110D6
:104D400002958DF8023001920CB1202200E0002281
:104D5000694600F001F83EBD30B40379064C03EB20
:104D6000830304EBC304006813460A460146204649
:104D700030BC01F0FFB90000702800200FB408B566
:104D80000399002904D004AA00926A4600F00FF8A3
:104D900001B05DF814FB10B582680446002A05D006
:104DA000D4E90403216898470020A06010BD2DE9D4
:104DB000FC4791460C00804676D014F8011B39B1AF
:104DC00025290ED04046FFF719F920780028F4D1A4
:104DD00098F80C00002867D04046BDE8FC47FFF774
:104DE000DABF0020012221782B291BD02D2902D0E7
:104DF000302908D102E040F0010001E040F002005B
:104E0000641C002AEFD100252A290ED02178A1F1B7
:104E100030020A2A11D205EB850201EB4205641C1F
:104E2000303DF1E740F00400EAE7D9F800100B1D2F
:104E3000C9F800300968641C0D44217800232E292C
:104E40000BD114F8011FA1F130020A2A05D203EB9D
:104E5000830201EB4203303BF3E76C290DD0682954
:104E60000BD0692921D00BDC252918D0582931D045
:104E700063290ED0642915D117E014F8011FECE75F
:104E8000702969D0732932D075291BD0782909D1AE
:104E900020E0D9F80000011DC9F800100178404653
:104EA000FFF7ACF8641C90E76CE0D9F800100A1D1D
:104EB000C9F800200968CDE900500A224046FFF7F2
:104EC000ABF9EFE7D9F800100A1DC9F8002009680E
:104ED0000A2206E0D9F800100A1DC9F80020096866
:104EE0001022CDE90050404601F086FBDAE7D9F800
:104EF000001000270A1DC9F800200E68C00705D160
:104F000012E04046761C7F1CFFF778F831780029C4
:104F1000F7D104E0202140466D1EFFF76FF8BD4237
:104F2000C0D9002DF6D1BDE74EB13046FEF748FAA4
:104F3000074604E0202140466D1EFFF75FF8BD42A2
:104F400006D9002DF6D103E04046761CFFF756F84F
:104F500031780029F8D1A5E7D9F80000011DC9F87A
:104F60000010056830214046FFF748F87821404698
:104F7000FFF744F808200021CDE900010346102284
:104F80002946B0E7BDE8FC874FF0A04202EB800065
:104F90000321C0F8001770474FF0A04202EB8000D9
:104FA000D0F8002722F44032C0F80027D0F80027BC
:104FB00042EA0141C0F8001770474FF0A0420121BA
:104FC0008140C2F8081570474FF0A042012181408E
:104FD000C2F80815704701224FF0A043824011B17A
:104FE000C3F808257047C3F80C25704718B5084B5F
:104FF0006C4601441B68009306E000BF54F8203063
:10500000D3F81035401C08C28142F7D818BD000003
:1050100090680200034908B5084400210160006857
:10502000009008BD0060004002494058012800D0AF
:10503000002070470060004030B5124B0146002050
:10504000D3F81044224609E0157A854205D1401C68
:105050000A28F7DB4FF0FF3030BD5268002AF3D149
:10506000421CF9D00872D3F810242AB152684A6061
:10507000D3F81024516030BD0022C3F810144A60E8
:1050800030BD0000702E00207047FEF701BB704756
:1050900008B5044A00924FF48063034A00F006F812
:1050A00008BD0000C55D0200B0290020F0B595B034
:1050B0001C4615460F4608461A9E00F0E3FA1821D2
:1050C00009A8FEF772F90E96CDE9095400230822CB
:1050D00003A9384600F0F0FA059806900498ADF858
:1050E0001C0000208DF820000398082600F0030023
:1050F000012802D002281DD03CE003983346850ADF
:10510000C0F3C2008DF81E0003980FA9C0F3800001
:105110008DF81F000398C0F38314A200384600F0F6
:10512000CBFA09A8009006AB22460FA9284600F04A
:1051300005FA1FE00398840DC0F3C2008DF81E002D
:105140000398C0F380008DF81F00082C01D225467B
:1051500000E0082533462A460FA9384600F0ACFA8D
:105160002E44641B09AB06AA29460FA800F036F9A5
:10517000002CEAD1384600F08EFA15B0F0BD0000E0
:10518000084A012902EBC00005D0022903D00329F7
:1051900003D0042903D0002070470079704740797C
:1051A000704700001473020010B5FFF76EFF042172
:1051B0000348FFF741FF02490120487210BD00007B
:1051C0009C2100202DE9F04F8DB0FEF727FF18B18C
:1051D00000200DB0BDE8F08F74480021C0F818140D
:1051E000BFF34F8FD0E9014604EA060100EB8101CD
:1051F0004FF000090AE000BFC1F3891202EB9151A0
:10520000641C0C4404EA060100EB8101C9688A07AA
:10521000F2D0002103AA804604EA060008EB8000D1
:10522000641CC06842F82100491C43460229F3D39C
:10523000039800F00300022806D0012803984FD0FD
:10524000C04380077ED0ACE003985022810D8A468F
:10525000B2EB905F00D850210D4665F39F5003904C
:105260000831534800F0C5F907006CD000F00AFA85
:105270004B46082203A9384600F024FA04EA060146
:10528000701A8000001D09F1080B854221D9474E94
:105290000C3630B1C2B208EB8101281A91460C31AC
:1052A00004E03146EAB2002691463046C5B25B467C
:1052B000384600F007FA0BEB09032EB12A463146B7
:1052C0004FEA070000F0FEF90AF1030004EB900436
:1052D0003BE008EB81015B462A4638460C31F1E79A
:1052E000C0F38310062800D30620039960F38911C8
:1052F000C1F38310801C039181002D4800F079F9DF
:1053000007004ED000F0BEF94B46082203A93846EC
:1053100000F0D8F909F1080900250DE004EA0600BB
:1053200008EB80014B46042238460C31641C00F027
:10533000C9F909F104096D1C0398C0F38310A84250
:10534000ECD801E00BE02CE05FB3D8F81054D8F8AB
:105350001804464690B1384600F09DF921E0D3F894
:10536000180400283FF435AF1BE0687A012804D107
:10537000296828460A68394690476D68002DF4D19F
:10538000384600F088F900208DF800006846FEF7E6
:10539000A5FCD6F8180400B974609DF80000FEF76B
:1053A000C1FCFEF73BFE80F0010012E7702E0020EA
:1053B000B068020000231A4600F01EBD08B50123A4
:1053C00000926A4600F018FD08BD1CB5CDE9002327
:1053D00002236A4600F010FD1CBD00002DE9F047D5
:1053E0000E4680461C46924608293ED894F80C90FA
:1053F000002020731946104600F0D8FB0025B54266
:1054000006D218F805201AA12046FFF7B7FC03E0E2
:1054100019A12046FFF7B2FC6D1C082DEFD317A190
:105420002046FFF7ABFC0025B54210D218F80570F6
:10543000FDF79EFF0068C05D10F03E0F01D03A46B8
:1054400000E02E220EA12046FFF798FC03E00DA1FC
:105450002046FFF793FC6D1C082DE5D30122214661
:10546000504600F085FB84F80C90BDE8F087000002
:105470002025303278000000202020007C00000031
:105480002563000020000000114810B5FF21816055
:10549000002101604160C0F81814C0F8141480F8AD
:1054A0001C140C4800F0F5F800280FD10A480B49ED
:1054B0000B4B401AC108002005E000BF00EB400282
:1054C00023F82200401C8842F8D3002010BD0000C1
:1054D000702E0020B0680200747302001473020082
:1054E000FC25002002480349401AC008704700000C
:1054F000747302001473020013B56846FFF71AF9BB
:1055000008B100201CBD0248009950F831001CBDB4
:105510001473020070B508480125D0F8104480F8D3
:105520001C5405E065722168204649688847646814
:10553000002CF7D170BD0000702E00202DE9FF4730
:1055400081460C9D00200C462F7B287398461646FA
:105550002946184600F02AFB072E42D2DFE806F063
:1055600004090F161F2A360049462846FFF706FC95
:1055700037E0494628462268FFF700FC31E0D4E9CD
:10558000002349462846FFF7F9FB2AE0A06800906F
:10559000D4E9002349462846FFF7F0FB21E0D4E98F
:1055A0000201CDE90001D4E9002349462846FFF76E
:1055B000E5FB16E004F1080007C88DE80700D4E910
:1055C000002349462846FFF7D9FB0AE004F108000A
:1055D0000FC88DE80F00D4E9002349462846FFF79D
:1055E000CDFB00222946404600F0C2FA2F73BDE8E9
:1055F000FF872DE9F041058A80462D1F4819C01C00
:10560000B0FBF5F0C6B24046FFF7B5F8040019D07C
:105610000020207101206071E58000272546761E5C
:10562000C4F800800BE04046FFF7A5F860B161794F
:10563000491C6171286005467F1CC0F80080B74294
:10564000F1D32046BDE8F081204600F002F80020AA
:10565000F8E72DE9F041457901466B1E002201E093
:105660000968521C9A42FBD30F680146002605E0E8
:1056700038460C68FFF7A1F82146761CAE42F7D3F6
:10568000BDE8F08108B501216A46001DFDF7F5FD72
:1056900008BDFFF7AAB838B50446001D01216A46C7
:1056A000FDF7F8FD009810F0FF0F04D12046BDE88B
:1056B0003840FFF7CEBF38BD38B501240094FEF75F
:1056C000FDFF38BD38B500240094FEF7F7FF38BD64
:1056D00030B593B05FF03805ADF8445011A903A878
:1056E00061DF30B1052816D013B0BDE83040FEF7B9
:1056F00095BA03AC0949684600F048F807E000BFD6
:10570000D0E9002120469047684600F056F80298FC
:105710000028E1D0F4E713B030BD00003869020082
:105720000EB50749684600F031F805E0D0E90010F1
:105730008847684600F041F802980028F6D10EBD6F
:10574000F06802000148007870470000F021002056
:105750001FB5684648DF30B1052814D004B0BDE855
:105760001040FEF75BBA084901A800F00FF806E008
:10577000D0E900210098904701A800F01EF8039896
:105780000028E6D0F4E71FBD5469020001600968F3
:105790004160AFF3008010B5D0E900215368994211
:1057A00001D1002104E0D1E90034A34202D019461E
:1057B000816010BD08314160F0E7816800290BD09D
:1057C000026892680A44826041684B689A4203D139
:1057D00008314160FFF7DFBF70474058002800D014
:1057E000012070474058002800D00120704708B5BC
:1057F000002242504058009008BD4058002800D078
:105800000120704708B5002242504058009008BD62
:10581000D0F80403084000D0012070474058002809
:1058200000D00120704708B5002242504058009037
:1058300008BD000070B56B4C03256BA1208805EBFB
:105840000040FFF7B7FD00BFFFF7BCFC0028FBD10D
:105850004FF47A763046FFF79CF800F061FC208820
:1058600064A105EB0040FFF7A5FD00BFFFF7AAFC10
:105870000028FBD10F20FFF787FB00210F20FFF747
:10588000AAFB3046FFF785F801210F20FFF7A3FBA5
:1058900040F2DC50FFF77DF80E20FFF775FB208803
:1058A00059A105EB0040FFF785FD00BFFFF78AFC1B
:1058B0000028FBD1AE2000F03DFF208856A105EB6B
:1058C0000040FFF777FD00BFFFF77CFC0028FBD10D
:1058D000022000F02FFF102000F02CFF402000F0ED
:1058E00029FFB02000F026FF812000F023FFBF2019
:1058F00000F020FFA12000F01DFFA62000F01AFFFD
:10590000208848A105EB0040FFF754FDFFF75AFC43
:105910000028FBD1A82000F00DFF3F2000F00AFF77
:10592000AD2000F007FF8A2000F004FF322000F0D5
:1059300001FFC82000F0FEFED32000F0FBFE002097
:1059400000F0F8FED52000F0F5FE802000F0F2FE19
:10595000D92000F0EFFE222000F0ECFEDA2000F06B
:10596000E9FE122000F0E6FE208831A105EB0040A0
:10597000FFF720FDFFF726FC0028FBD1DB2000F01D
:10598000D9FE402000F0D6FE0B20FFF7FDFA0121E2
:105990000B20FFF720FBAF2000F0CCFE208827A1D2
:1059A00005EB0040FFF706FDFFF70CFC0028FBD1DC
:1059B000208824A105EB0040FFF7FCFCFFF702FC68
:1059C0000028FBD1FF210846FEF7E8FB208820A134
:1059D00005EB0040FFF7EEFCFFF7F4FB0028FBD1DE
:1059E00070BD00005C260020535049204F4C4544B8
:1059F0002E0000007477695F696E69745F6F6C6573
:105A00006420656E64000000696E7465726E616C7E
:105A10002073746172740000696E7465726E616CDB
:105A200020300000696E7465726E616C2031000078
:105A3000696E7465726E616C2032000020454E44C0
:105A4000000000002066696C6C2073746172740041
:105A5000206F6C65645F696E697420454E44000078
:105A60002DE9FC418E88027900EBC605AC1D2A7336
:105A7000C97B012902D0022904D101E0008800E09D
:105A800040882080218860880127DFF86480814277
:105A90000CD930469EDF020025D0112A25D0B8F857
:105AA0000000144907EB0040FFF788FCA079E1797A
:105AB000884216D9002000900190287BADF80000A4
:105AC000287BADF8020000226946304690DF0300D3
:105AD00007D0B8F80000324607EB00400649FFF750
:105AE00074FCBDE8FC816771E0E72771DEE7000028
:105AF000FC250020F8700200C87102007CB5064643
:105B00008D88C88806EBC504A41D172800D217206D
:105B10002188814200D808466080002020712188B9
:105B20002846ADDF020007D00E480121008801EBB6
:105B300000400D49FFF742FC6079002810D1306920
:105B400000280DD00948D0E90210CDE90010ADF8C9
:105B500002506088ADF804003269694630469047CB
:105B60007CBD0000FC2500203C710200786802002A
:105B700010B50C46C17949B11AB109A12046FFF709
:105B8000FDF82046BDE81040FFF705B9007A00286F
:105B9000F3D0044804A102682046FFF7EFF8ECE7D1
:105BA0000D0A0000CC2100202573000070B50446CA
:105BB000C0790D4600281CD1207A50B1A179A08867
:105BC000FFF7DEFA0B4951F820200BA12846FFF71A
:105BD000D5F8A0880021FFF78FFC03460549A0797E
:105BE000143951F820202846BDE8704003A1FFF782
:105BF000C5B870BDCC210020257300003C25733E44
:105C00002025733A2000000070B5012670044FF083
:105C1000E0210025C1F88001084C4010C4F8480379
:105C2000C4F8080366602F20FEF744FFA660044C0A
:105C30002F20A560FEF73EFFA57070BD001001404B
:105C40008821002070B50546C87D0C4600284FF419
:105C5000847128460AD0FFF7D5FDD5F81805627E75
:105C6000E1688854607E401C607670BDFFF7CAFD15
:105C7000D5F8180570BD1FB501238DF800308DF8DB
:105C800008100192D0E90012684690471FBD00003D
:105C900038B50021012558B101280ED003280BD1B9
:105CA00007210020FEF7CCFFBDE83840FEF7B2BF69
:105CB0004FF0E020C0F8805138BD8DF800106846E4
:105CC000FEF70CF8064C207808B9FEF77FFFE06875
:105CD000401CE060A5709DF80000FEF723F838BD79
:105CE000C027002070B50028049D18D0002916D0C8
:105CF000002A14D05FF0000430F814609E420FD1E7
:105D000000200123A34008E001EB800426680DB1C8
:105D10001E4300E09E43401C26609042F4D370BDB9
:105D2000641C202CE8D370BD70B5054600242146C4
:105D3000284600F00AF808B1204670BD641CA4B2E1
:105D4000202CF4D34FF6FF7070BD01228A4002422E
:105D500001D001207047002070472DE9F04192B03A
:105D600080464FF0000017460D00009012D000242E
:105D70006E46A1B23846FFF7E8FF40B1009935F80A
:105D8000140006EB410188800098401C0090641CC0
:105D9000202CEED3442269464046FDF7EDFA12B0BE
:105DA000BDE8F08108B5009313460122FFF79AFF82
:105DB00008BD000002498969002900D008477047E2
:105DC000EC2600202DE9F04114000F460DD00025EF
:105DD0000A26791922460020FDF75CFC0544241AA6
:105DE00008B9761E01D0002CF3D1BDE8F08100285F
:105DF00001D1FEF725B970472DE9F843214C8846BB
:105E0000054691461F4669461846A668FEF7C4F83F
:105E100070B30098811C00220AE000BF01EA060C62
:105E200059F8223004EB8C0C491C521CCCF80C3075
:105E3000BA42F3D30246401C304004EB80002B0CE6
:105E4000C36002EA060004EB8002E80652F80C0F79
:105E500002D540F0040001E020F0040065F3C50025
:105E600067F3891068F39F2020F00300401C106046
:105E700094F81C0402E000BFFFF7A4F90028FBD14E
:105E8000BDE8F883702E00202DE9F84F1D4C002549
:105E90006846D4E901A6FEF761F9002738B300236C
:105EA000009A61681CE0D1F800C00846944503D907
:105EB000ACEB02020A6015E0A2EB0C02634407603F
:105EC000D0F80CC0C1698146BCF1000F08D006EBC8
:105ED000030828F07F48C0E9018CC9F81C5005462A
:105EE0000029E0D128466160FEF7D0FA03E0284699
:105EF000FEF7CCFA10B15046FEF7B6F8E770BDE8F1
:105F0000F88F0000882100200D4B10B5596831B181
:105F100002680C68A24204D8A21A0A60C1615860E3
:105F200010BD0B4603E00B46C969121B21B10C687A
:105F30009442F8D3A41A0C600260C161D86110BD0C
:105F4000882100202DE9F041144E77683D462C460B
:105F500003E0844204D02546E469002CF9D11BE01B
:105F6000D4B1A5420BD1F869706040B90C49012049
:105F700088600021B160F0702F20FEF79BFD216842
:105F8000E069E86110B102681144016070688742FD
:105F900002D00120BDE8F0810020FBE7882100202D
:105FA000001001407CB5064600240D468DF80040E7
:105FB0006846FDF793FE01A800F078FB70B105700C
:105FC000094946609DF8040048709DF80000FDF7FF
:105FD000A9FE1420FDF712FB20467CBD04249DF889
:105FE0000000FDF79FFEF7E7982800202DE9F0411B
:105FF000194D6C68002C2CD0184800270068A9683F
:10600000B846401A20F07F462068B0420CD821469E
:10601000361A0744E469087C20B181F81080886949
:1060200049698847002CEFD129786878814206D1E8
:10603000401CC0B26870022801D185F80180064872
:1060400069780C3040F82170BDE8F0411420FDF76C
:10605000D5BABDE8F0810000882100200415014078
:106060002DE9F041044640F20C602168890001F1FD
:10607000A041C1F800076168890001F1A041C1F8A1
:1060800000072068FEF7A0FF6068FEF79DFF21680B
:1060900040F20D60890001F1A041C1F8000761687C
:1060A000890001F1A041C1F800070420FEF7BCFC03
:1060B00000274FF0A04601252179D6F81005C840E9
:1060C00010F0010F02D0002F1DD010E0217805FA4A
:1060D00001F0C6F80C050420FEF7A6FC2068FEF7C8
:1060E00073FF0420FEF7A0FC7F1C092FE4DB20795E
:1060F0008540C6F80C550420FEF796FC6068BDE8A4
:10610000F041FEF761BFBDE8F08100000078002893
:1061100002D102490120487070470000F32100209D
:106120001FB50D480321008801EB00400BA1FFF7CC
:1061300041F90E4B0FCB8DE80F000C4800230C4AA1
:1061400069460838FEF7B0FD08B1FDF767FD07485E
:106150000838FEF799FD1FBD5C2600207477695F43
:10616000696E69745F6F6C6564000000706902009D
:106170000D6102002DE9F05F06461F4615460C46EC
:106180004FF0000A4FF0080B4FF482795068FEF789
:1061900073FD00287ED04FF0FF30C4F8080396F856
:1061A000240028B1B068C4F804031120BDE8F09FB2
:1061B000780703D4F80601D4012000E0002086F817
:1061C000240095E8070006F10C0383E80700C7F3F5
:1061D000001086F825006878C4F888054FF48271AD
:1061E0002046FFF704FB4FF492712046FFF7FFFAB9
:1061F000F8074FF0010800D04046C4F85005B80732
:1062000001D5404600E00020C4F840052878002869
:106210006CD001287DD002284ED0032814D04FF036
:10622000070A380704D42878032801D044F80B80E3
:10623000306800286ED0780702D54FF40070B06047
:10624000B068C4F80403ACE0A868FEF715FD08B315
:106250004FF48070C4F80002A8786968C4F8441547
:10626000C4F848054FF4A8712046FFF7C0FA4FF470
:10627000B0712046FFF7BBFA4FF4A4712046FFF738
:10628000B6FAC4F82080C4F8088000BF4FF4A871A3
:10629000204600E028E0FFF7A5FA0028F6D04FF4EA
:1062A000A8712046FFF7A3FAE878A968C4F8441556
:1062B000C4F848053C4815E0A8786968C4F8441556
:1062C000C4F84805A868FEF7D7FC68B1E878A96863
:1062D000C4F83415C4F838054FF48450C4F80002EB
:1062E00040F20220B0609CE710205FE7A878696860
:1062F000C4F84415C4F84805B8060FD54FF48070AB
:10630000C4F800022848B0604FF4A47949462046FA
:1063100001E00CE01BE0FFF76AFA05E04FF40070C3
:10632000C4F80002801CB060C4F8208079E7A87827
:106330006968C4F83415C4F838054FF48050C4F8BF
:10634000000240F20220B0604FF0000BECE747463D
:106350004FF482754FF492780BE041462046FFF7E8
:1063600041FA30B141462046FFF741FA27626761A2
:10637000A94649462046FFF735FA0028EDD0D4F863
:10638000C404C4F8C404002186F8241048B10321D1
:10639000820701D548F20121400701D548F20221C8
:1063A0008A46504602E700000002040070B50C4621
:1063B00005464FF48E71FFF725FAA18AA068415C6B
:1063C000A08A401CA082C5F81C1570BD1FB5002214
:1063D0008DF800208DF80810816801918275D0E950
:1063E0000012684690471FBD2DE9FF470C46054641
:1063F0004FF40071FFF70CFA01274FF401780026E3
:1064000018B34FF4927949462846FFF7F6F9E0B100
:1064100049462846FFF7F6F9C5F80883A07E00B97B
:106420006F6002208DF80000D5F88004C5F8800464
:106430000390E07D8DF80800E0680190E67526760F
:10644000D4E900126846904727E004212846FFF768
:10645000DFF910B34FF484712846FFF7CEF9E0B1AD
:1064600021462846FFF7EEFBE07D617E884214D18D
:10647000207E38B1617EE268E0752069E0602676B2
:10648000667607E0A07E00B96F60C5F80883E67500
:10649000617EE2682046FFF7EEFB4FF48E784146BE
:1064A0002846FFF7AAF988B1A08AA17D884204D2C4
:1064B00021462846FFF77AFF08E041462846FFF7C5
:1064C000A1F9A17D11B12046FFF780FF4FF4A2781A
:1064D00041462846FFF791F9002812D04146284648
:1064E000FFF790F9A07E00B12F60E07D002808D072
:1064F000E675617EE26804B02046BDE8F047FFF72C
:10650000BABBBDE8FF872DE9FF410C464FF49277F7
:1065100005463946FFF782F90026C0B139462846BC
:10652000FFF781F902208DF80000D5F88004C5F846
:1065300080040390D5F83C058DF80800E0680190D0
:10654000E6752676D4E900126846904724E04FF4B9
:10655000887739462846FFF761F9E8B13946284679
:10656000FFF761F9D5F83C05C1B2E07D884213D14F
:10657000207E60B1E268D5F8000220F02000C5F866
:106580000002207EE0752069E060267601E0E67575
:10659000E2682046FFF76FFB4FF4A27739462846A2
:1065A000FFF73CF968B139462846FFF73CF9E07D32
:1065B00038B1E675D5F83C05E268C1B22046FFF770
:1065C0005AFB4FF4907631462846FFF727F900280A
:1065D0000FD031462846FFF726F9A07D002808D0C5
:1065E000D5F84C0504B0C1B22046BDE8F041FFF734
:1065F000EDBEBDE8FF8100002DE9F05F8346DDE9D7
:106600000A4A994690460D460846012703E000BF16
:10661000B0FBF8F07F1C4045FAD2B94500D94F468F
:106620005FEACA7012D18CB15FEA8A7002D5B9F103
:10663000000F01D0202607E0302605E031465846FD
:10664000641EFDF7DBFC0CB1A742F7D35FF0010637
:10665000B9F1010F02D9A9F1010903E0B5FBF6F088
:10666000404502D306FB08F6F2E7DFF83C9000BF96
:10667000B5FBF6F000FB165519F800105846FDF76B
:10668000BDFCB6FBF8F6002EF2D15FEACA7009D065
:10669000002C07D0A74205D220215846641EFDF7E2
:1066A000ADFCF5E7BDE8F09F946802000A494A781E
:1066B0008B78521CD2B2934200D100220B789342C5
:1066C00001D1002070470270487800EB400001EBD8
:1066D000C000001D704700009828002001B5134835
:1066E00082B00178C01CFCF760FE01210E20FEF78D
:1066F00072FCC820FEF724FA00211020FEF76BFC84
:10670000C820FEF71DFA01200346009002AA3C2192
:106710000748FEF70FFB08B1FDF780FAC820FEF727
:106720000FFA01211020FEF756FC0EBDF3210020C8
:106730006869020031B5344C032582B0208833A14A
:1067400005EB0040FEF736FEFEF73CFD0028FBD1CE
:1067500033480178C01CFCF728FE208831A105EBE6
:106760000040FEF727FE00BFFEF72CFD0028FBD1FE
:1067700000210E20FEF72FFC20882EA105EB004003
:10678000FEF718FEFEF71EFD0028FBD1C820FEF71D
:10679000D7F900211020FEF71EFC208829A105EB67
:1067A0000040FEF707FE00BFFEF70CFD0028FBD1FE
:1067B000C820FEF7C5F900200090012302AA3C2161
:1067C0002448FEF7B7FA08B1FDF728FA208822A17D
:1067D00005EB0040FEF7EEFDFEF7F4FC0028FBD1D0
:1067E0004FF49670FEF7ACF901211020FEF7F3FB91
:1067F00020881DA105EB0040FEF7DCFDFEF7E2FC62
:106800000028FBD13EBD00005C2600207772697431
:10681000655F695F693263207374617274000000A0
:10682000F321002077726974655F695F69326320C4
:106830003000000077726974655F695F69326320B8
:106840003100000077726974655F695F69326320A7
:10685000320000006869020077726974655F695FE1
:10686000693263203300000077726974655F695F85
:1068700069326320656E6400770A00000000000042
:10688000770A0000000000007ADA00000000000033
:106890000000005030313233343536373839414218
:1068A00043444546915002008F5002008950020037
:1068B000B0210020A8210020B0210020B02D002010
:1068C00018000000000000000000000000000000B0
:1068D0000000000001000007C4680200D468020044
:1068E00008000000FC6802000C69020008000000BB
:1068F0000C6902001C69020008000000AC73020071
:10690000B473020000000000000000009C7302004D
:10691000AC7302000000000000000000747302006D
:106920007C73020000000000000000007C73020085
:1069300094730200802100201C6902003469020067
:1069400008000000947302009C7302000000000025
:1069500000000000446902005469020008000000C1
:106960000030004003000100003000400000000043
:106970001B0000001A000000000068060200000072
:106980000D0C001006FF0000000000800000000059
:10699000FFFFFFFF07FF00000000004000000000B5
:1069A00000000000000000000000000000000000E7
:1069B00000000000000000000000000000000000D7
:1069C00000000000000000000000000000000000C7
:1069D00000000000000000000000000000000000B7
:1069E00000000000000000000000000000000000A7
:1069F00000000000000000000000FFFFFF07070785
:106A0000070707FFFFFF000000FE0202023232020A
:106A1000023232020202C2E2321A9A9A1A32E2C2F6
:106A200002FE000000000000000000000000000066
:106A30000000000000000000000000000000000056
:106A40000000000000000000000000000000000046
:106A5000000000000000000000000000C0C0FCF8C2
:106A6000F0E0FCFCFCFCFCFCFCFCFCFCFCFCFCFC8E
:106A7000FCFC7F4040404C4C40404C4C404040432C
:106A8000474C585959584C4743407F00000000007C
:106A900000000000000000000000000000000000F6
:106AA00000000000000000000000000000000000E6
:106AB00000000000000000000000000000000000D6
:106AC000000000000003033F1F0F073F3F3F3F3F11
:106AD0003F3F3F3F3F3F3F3F3F3F3F000000000001
:106AE00000000000000000000000000000000000A6
:106AF0000000000000000000000000000000000096
:106B00000000000000000000000000000000000085
:106B10000000000000000000000000000000000075
:106B20000000000000000000000000000000000065
:106B30000000000000FFFFFFE0E0E0E0E0E0FFFF1A
:106B4000FF00000000000000000000000000000046
:106B50000000000000000000000000000000000035
:106B60000000000000000000000000000000000025
:106B70000000000000000000000000000000000015
:106B80000000000000000000000000FFFFFF0707FA
:106B900007070707FFFFFF000000FE020202323274
:106BA00002023232020202C2E2321A9A9A1A32E225
:106BB000C202FE0000000000000000000000000013
:106BC00000000000000000000000000000000000C5
:106BD00000000000000000000000C0C0FCF8F0E071
:106BE000FCFCFCFCFCFCFCFCFCFCFCFCFCFCFCFCE5
:106BF0007F4040404C4C40404C4C40404043474C10
:106C0000585959584C4743407F000000000000008D
:106C10000000000000000000000000000000000074
:106C20000000000000000000000000000000000064
:106C300003033F1F0F073F3F3F3F3F3F3F3F3F3F64
:106C40003F3F3F3F3F3F00000000000000000000CA
:106C50000000000000000000000000000000000034
:106C60000000000000000000000000000000000024
:106C70000000000000000000000000000000000014
:106C800000000000000000000000000000FFFFFF07
:106C9000E0E0E0E0E0E0FFFFFF00000000010203B1
:106CA0000405060708090A0B0C0D0E0F0000000072
:106CB000101112131415161718191A1B1C1D1E1F5C
:106CC00000000000202122232425262728292A2B02
:106CD0002C2D2E2F00000000303132333435363762
:106CE00038393A3B3C3D3E3F0000000040414243C2
:106CF0004445464748494A4B4C4D4E4F0000000022
:106D0000505152535455565758595A5B5C5D5E5F0B
:106D100000000000606162636465666768696A6BB1
:106D20006C6D6E6F00000000707172737475767711
:106D300078797A7B7C7D7E7F000000008081828371
:106D40008485868788898A8B8C8D8E8F00000000D1
:106D5000909192939495969798999A9B9C9D9E9FBB
:106D600000000000A0A1A2A3A4A5A6A7A8A9AAAB61
:106D7000ACADAEAF00000000B0B1B2B3B4B5B6B7C1
:106D8000B8B9BABBBCBDBEBF00000000C0C1C2C321
:106D9000C4C5C6C7C8C9CACBCCCDCECF0000000081
:106DA000D0D1D2D3D4D5D6D7D8D9DADBDCDDDEDF6B
:106DB00000000000E0E1E2E3E4E5E6E7E8E9EAEB11
:106DC000ECEDEEEF00000000F0F1F2F3F4F5F6F771
:106DD000F8F9FAFBFCFDFEFF0000000000000000D7
:106DE00000000000000000000000000000000000A3
:106DF0000000000000000000000000000000000093
:106E00000000000000000000000000000000000082
:106E100000000000615149454300000000615149F4
:106E200045430000000061514945430000000061F6
:106E300051494543000000006151494543000000AD
:106E4000006151494543000000006151494543003C
:106E5000000000615149454300000000615149456F
:106E600043000000006151494543000000006151AA
:106E700049454300000000615149454300000000BE
:106E80003E5149453E00000000427F4000000000A6
:106E900042615149460000002141454B310000004C
:106EA0001814127F100000002745454539000000E6
:106EB0003C4A494930000000017109050300000007
:106EC0003649494936000000064949291E0000009C
:106ED0007E1111117E0000007F49494936000000F3
:106EE0003E414141220000007F4141221C00000040
:106EF0007F494949410000007F090909010000005C
:106F00003E4149497A0000007F0808087F000000E0
:106F100000417F41000000002040413F010000008F
:106F20007F081422410000007F40404040000000E4
:106F30007F020C027F0000007F0408107F00000029
:106F40003E4141413E0000007F0909090600000062
:106F50003E4151215E0000007F09192946000000D2
:106F6000464949493100000001017F01010000004C
:106F70003F4040403F0000001F2040201F00000015
:106F80003F4038403F0000006314081463000000D5
:106F900007087008070000006151494543000000E0
:106FA00020545454780000007F48444438000000C6
:106FB0003844444420000000384444487F00000026
:106FC0003854545418000000087E090102000000E3
:106FD000064949493F0000007F080404780000008A
:106FE00000447D40000000002040443D00000000BF
:106FF0007F1028440000000000417F400000000096
:107000007C0418047C0000007C0804047800000064
:1070100038444444380000007C1414140800000074
:10702000081414187C0000007C0804040800000008
:107030004854545420000000043F44402000000005
:107040003C4040207C0000001C2040201C00000030
:107050003C4030403C000000442810284400000020
:107060000C5050503C0000004464544C440000005C
:10707000004040404040404040404141414141404B
:107080004040404040404040404040404040404000
:10709000400502020202020202020202020202028F
:1070A0000220202020202020202020020202020294
:1070B00002029090909090901010101010101010EC
:1070C00010101010101010101010101002020202F8
:1070D000020288888888888808080808080808083C
:1070E0000808080808080808080808080202020238
:1070F000400000007170020073645F626C655F673E
:10710000617474635F65786368616E67655F6D74F1
:10711000755F726571756573742829207265747561
:10712000726E656420756E65787065637465642041
:1071300076616C756520307825782E0073645F6207
:107140006C655F67617474735F65786368616E67AF
:10715000655F6D74755F7265706C79282920726542
:107160007475726E656420756E657870656374659C
:10717000642076616C756520307825782E000000DB
:1071800073645F626C655F6761705F646174615FA7
:107190006C656E6774685F7570646174652829201A
:1071A000287265706C79292072657475726E6564D9
:1071B00020756E65787065637465642076616C75A2
:1071C0006520307825782E0073645F626C655F6798
:1071D00061705F646174615F6C656E6774685F7530
:1071E00070646174652829202872657175657374EF
:1071F00029206F6E20636F6E6E656374696F6E20F9
:10720000307825782072657475726E656420756EAD
:1072100065787065637465642076616C756520308F
:107220007825782E000000007761726E696E670025
:1072300064656275670000001B5B313B33306D0095
:107240001B5B306D000000001B5B313B33316D0078
:107250001B5B313B33326D001B5B313B33336D00C5
:107260001B5B313B33346D001B5B313B33356D00B1
:107270001B5B313B33366D001B5B313B33376D009D
:10728000696E666F000000006572726F7200000028
:10729000626C655F6761747400000000636C6F630B
:1072A0006B0000006770696F74650000756172742F
:1072B00000000000737069007477690062616C6C93
:1072C0006F6300007077725F6D676D74000000007F
:1072D000617070006E72665F736468006E72665FE4
:1072E0007364685F626C65006E72665F7364685F8A
:1072F000736F6300B4730200802100200C0500004E
:1073000004340200687402008C2600208C2E0000D9
:10731000963B020090720200000003009C72020083
:1073200000000000A472020000000000AC72020025
:1073300000000000B472020000000000B8720200F9
:1073400000000000BC72020000000000C4720200D5
:1073500000000000D072020000000300D47202009E
:1073600000000300DC72020000000300E87202006B
:1073700000000300553E020000000000613F0200D3
:107380008C2600202D480200A4260020593D020032
:1073900000000000EF5D020000000000D156020076
:1073A000000000005157020000000000915C020044
:1073B00000000000011C041DA46802148872021A57
:1073C00028041A80041A30041A40041A38041A488F
:1073D000041A50041A58041A60041A68041A700433
:1073E0001A78043142010D2255FF55AA02311C8240
:1073F000FF803009232E095002210E79C6A1918900
:1074000086800E794281898976800E79102C22FF40
:10741000A0800E4F4F8989897180314482FF803668
:10742000C6A191898636428189897649F069782199
:10743000367E89898B70360301F907011A7618297F
:10744000282E0ED191917E202C81818108092C500B
:107450000927AA5978094CFE09290259F0094E5802
:0874600011049090D00300001C
:0400000500023201C2
:00000001FF
