:020000040002F8
:10300000407200204D330200553302005733020056
:10301000593302005B3302005D3302000000000000
:103020000000000000000000000000005F3302000C
:1030300061330200000000006333020065330200C8
:10304000493B020067330200D1400200253D0200E7
:10305000713D020067330200C13802007D3B02006F
:1030600085400200673302006733020067330200C5
:1030700067330200673302006733020067330200E0
:1030800067330200593B02006733020067330200D6
:10309000813D020067330200853D02006733020074
:1030A00067330200673302006733020067330200B0
:1030B00067330200673302000000000000000000D8
:1030C0006733020067330200673302006733020090
:1030D000673302006733020067330200000000001C
:1030E00000000000000000000000000000000000E0
:1030F00000000000000000000000000000000000D0
:1031000000000000000000000000000000000000BF
:1031100000000000000000000000000000000000AF
:10312000000000000000000000000000000000009F
:10313000000000000000000000000000000000008F
:10314000000000000000000000000000000000007F
:10315000000000000000000000000000000000006F
:10316000000000000000000000000000000000005F
:10317000000000000000000000000000000000004F
:10318000000000000000000000000000000000003F
:10319000000000000000000000000000000000002F
:1031A000000000000000000000000000000000001F
:1031B000000000000000000000000000000000000F
:1031C00000000000000000000000000000000000FF
:1031D00000000000000000000000000000000000EF
:1031E00000000000000000000000000000000000DF
:1031F00000000000000000000000000000000000CF
:10320000DFF80CD000F01EFB00480047D95902003F
:103210004072002030B4044654E8000F0D4644E8E4
:103220000053002BF8D1156030BC704730B4044611
:1032300054E8000F40EA010544E80053002BF7D1A1
:10324000156030BC704730B4044654E8000F00EA03
:10325000010544E80053002BF7D1156030BC7047DE
:1032600030B4044654E8000F80EA010544E80053F6
:10327000002BF7D1156030BC704730B4044654E8D9
:10328000000F00EB010544E80053002BF7D1156057
:1032900030BC704730B4044654E8000FA0EB010581
:1032A00044E80053002BF7D1156030BC7047000094
:1032B00030B4044654E8000F0D4644E80053002B98
:1032C000F8D1156030BC704730B4044654E8000FA4
:1032D00040EA010544E80053002BF7D1156030BCEB
:1032E000704730B4044654E8000F00EA010544E892
:1032F0000053002BF7D1156030BC704730B4044642
:1033000054E8000F80EA010544E80053002BF7D190
:10331000156030BC704730B4044654E8000F00EB31
:10332000010544E80053002BF7D1156030BC70470D
:1033300030B4044654E8000FA0EB010544E8005304
:10334000002BF7D1156030BC70470000064880475D
:1033500006480047FEE7FEE7FEE7FEE7FEE7FEE77A
:10336000FEE7FEE7FEE7FEE7893D020001320200CC
:10337000004870471892020040EA01039B0703D0FF
:1033800009E008C9121F08C0042AFAD203E011F8A4
:10339000013B00F8013B521EF9D27047D2B201E066
:1033A00000F8012B491EFBD270470022F6E710B54A
:1033B00013460A4604461946FFF7F0FF204610BDA3
:1033C000421C10F8011B0029FBD1801A70470346EC
:1033D00011F8012B00F8012B002AF9D1184670478B
:1033E0002DE9FE4F804681EA0300C00F0C46009095
:1033F00021F0004123F00045B8EB0200A94105D2BD
:103400004046214690461C460B46024623F00040AB
:10341000104347D0270DC7F30A00C3F30A510290A7
:10342000401A019040286BDAC3F3130040F4801B6C
:103430000098924620B10023D2EB030A63EB0B0BFA
:1034400001985946C0F14002504600F035F9064651
:103450000D4650465946019A00F04DF910EB080010
:103460006141002487EA115284EAE7731A4340D08D
:10347000009A62B3019A012A4FEA075215DC001B39
:1034800061EB02014FF0004202EA0752CDE900422F
:10349000001C41F5801132462B4600F084F903B040
:1034A000BDE8F08F40462146F9E7001B61EB0201C1
:1034B000001C41F5801300185B412018A2F500178D
:1034C00047EB030140EAD570B6196D4111E06D0874
:1034D0004FEA360645EAC0754FEA0752001B61EB1A
:1034E0000201001C41F5801149084FEA3000001923
:1034F000514132462B4603B0BDE8F04F00F044B9CD
:103500000098012240000023D0EB020263EBE0733D
:10351000009821464FEAE074B8EB000061EB04012B
:10352000E9E783F000435BE781F0004158E72DE9CC
:10353000FE4F81EA030404F0004421F000410094AE
:103540004FF0000B23F0004350EA01045ED052EA32
:1035500003045BD0C3F30A54C1F30A552C44A4F20C
:10356000F3340194A0FB0254C1F3130141F4801120
:10357000C3F3130343F4801301FB024400FB034E27
:10358000840A970A44EA815447EA8357A4FB0768F0
:1035900002958D0A05FB07854FEA932C04FB0C541A
:1035A0002705029D4FEA065847EA1637B5EB08058E
:1035B0006EEB070C870E920E47EA811742EA8312E0
:1035C000A7FB0201B6EB0B0164EB00042B0D43EAF1
:1035D0000C335E1844EB1C50DA465146E7FB0201FF
:1035E000C5F313044FEA0B3343EA14534FEA043292
:1035F000019C43EA0603A4F10C040294009CCDE96B
:1036000000B400F0D0F803B0BDE8F08F0020014610
:10361000F9E70EB5C10F80EAE0700844CA0700213F
:1036200040F233438DE80E000A460B4600F0BBF82B
:1036300003B000BD0EB540F2334102910021CDE947
:1036400000110A460B4600F0AEF803B000BDC1F30E
:103650000A5210B5C1F3130140F2FF3341F4801157
:103660009A4201DA002010BD40F233439A42A2F29E
:10367000334203DC524200F02EF810BD904010BDE2
:1036800001F0004330B421F0004150EA010206D0BD
:103690000A0DA2F56072C1F31301002A02DC30BCEE
:1036A00000207047440F44EAC104C100E01830BC58
:1036B00000EBC25000F031B8202A04DB203A00FAB7
:1036C00002F1002070479140C2F1200320FA03F379
:1036D000194390407047202A04DB203A21FA02F077
:1036E0000021704721FA02F3D040C2F1200291403C
:1036F000084319467047202A06DBCB17203A41FAC7
:1037000002F043EAE07306E041FA02F3D040C2F16E
:10371000200291400843194670470029A8BF70470E
:10372000401C490008BF20F00100704710B4B0FAF7
:1037300080FC00FA0CF050EA010404BF10BC704792
:1037400049B1CCF1200421FA04F411FA0CF118BFAC
:10375000012121430843A3EB0C01CB1D4FEA00617B
:103760004FEA102042BF002010BC704700EBC3504E
:1037700010440029A4BF10BC7047401C490008BF7A
:1037800020F0010010BC704710B5141E73F1000446
:1037900008DA401C41F1000192185B411A4301D143
:1037A00020F0010010BD2DE9F04D92469B4611B16D
:1037B000B1FA81F202E0B0FA80F220329046FFF7CF
:1037C0007BFF04460F4640EA0A0041EA0B015346DC
:1037D0005A46084313D0114653EA010019D0C8F1E4
:1037E00040025046FFF777FF05460E4650465946C1
:1037F0004246FFF761FF084305D0012004E0204660
:103800003946BDE8F08D0020054346EAE0762C43BA
:1038100037430A986305E40AA0EB08000022FD0A7A
:1038200044EA47540A3002D500200146E9E7010581
:1038300010196941DDE9084500196941BDE8F04DFD
:10384000A2E70000064C074D06E0E06840F00103E7
:1038500094E8070098471034AC42F6D3FFF7D4FC45
:10386000BC980200DC98020070B58C1810F8015B5F
:1038700015F0070301D110F8013B2A1106D110F809
:10388000012B03E010F8016B01F8016B5B1EF9D10D
:103890002B0705D40023521E0DD401F8013BFAE793
:1038A00010F8013BCB1A921C03E013F8015B01F8FE
:1038B000015B521EF9D5A142D8D3002070BD000093
:1038C0002DE9F04700268CB0DFF86091B0464FF448
:1038D0008075012437460696284603F079FB38B1F7
:1038E000D9F80403204203D0284603F067FB26439F
:1038F0002D1D64007F1CADB2082FEDD34FF4BE74B4
:10390000204603F065FB48B1204603F057FB46F024
:10391000004606AA0121002003F03CFB444D16F0AE
:10392000FF0F15D00127002437420DD009EB840189
:10393000D1F81005D1F81015C0F3042055F8242053
:10394000C1F3014102B190477F00641C082CEBD306
:10395000002E67DA4FF0FF30CDE9088000263446AC
:10396000281910F8507F90F9000027F0C008401C7B
:1039700044D009A9404602F06AFB58B34FEA9719B0
:10398000404601F043FC55F820701FB1B9F1030F18
:1039900003D00FE0B9F1030F30D108A84FEAD802E5
:1039A00008F00703815C4FF0010C0CFA03FC41EABC
:1039B0000C0181544FF0A04101EB8800D0F80007C2
:1039C00006A9C0F3014A404602F041FB18B1BAF122
:1039D000020F03D012E0BAF1030F0FD1B9F1030FB8
:1039E00008D1BAF1020F1BD00221404603F09CFA25
:1039F000761CF6B217B149464046B847641C042C01
:103A0000AED3002E0ED06A460121002003F0C2FA88
:103A100006990098884205D00690089809909DE77D
:103A20000321E2E70CB0BDE8F08700000060004031
:103A30005028002000F01F02012191404009800021
:103A400000F1E020C0F88012704700F01F02012151
:103A500091404009800000F1E020C0F8001170475B
:103A600000F01F02012191404009800000F1E02098
:103A7000C0F8001270474907090E002806DA00F066
:103A80000F0000F1E02080F8141D704700F1E020E5
:103A900080F8001470470000F8B507464E1C0D462C
:103AA000304602F06FF9402104460170002003E027
:103AB0002118401C4F70C0B2A842F9D301200090D9
:103AC000F3B222463C21074803F0D8F80649002209
:103AD0000A700A78002AFCD00546204601F0D6FC80
:103AE0002846F8BD64910200272200202DE9F84302
:103AF00080464E1C0D46304602F044F9002704462D
:103B00000770384606E000BF18F800102218401C65
:103B10005170C0B2A842F7D301200090F3B2224600
:103B20003C21074803F0AAF806490F700A78002ADA
:103B3000FCD00546204601F0A9FC2846BDE8F883E4
:103B4000649102002722002010B502F0A3FCBDE81A
:103B5000104002F003BE000007480021C0F84011E9
:103B6000C0F84411C0F84811C0F84C11C0F8001159
:103B7000C0F8041104F06ABD001001402DE9FE43B5
:103B80004FF48278404603F0C5FD4C4F00254C4C65
:103B9000012600B3404603F0C5FD94F82E0010B195
:103BA00094F82F10D1B18DF80050616801912189EE
:103BB000ADF80810E26832B1218B61836260218127
:103BC000E56010B102E0257400E03E6021686846BF
:103BD000884784F82F5094F82E0060B34FF4807714
:103BE000384603F097FD30B3384603F09BFD628BF7
:103BF00094F82D108A420AD9A2EB010080B26083AA
:103C00002289A2EB0000626802EB400005E007D1C8
:103C1000E06828B184F82F60658303F035FD04E087
:103C20008A4202D184F82F606583404603F07AFD12
:103C30002248001D06604FF48877384603F06AFD7D
:103C400048B1384603F06EFD257402208DF800005F
:103C50002168684688474FF48A77384603F05AFD52
:103C600028B1384603F05EFD2574BDE8FE834FF0B1
:103C700000484FF48C7967691DE000BFB7FA87F000
:103C800028FA00F109EB80058F43284603F042FD36
:103C900088B1284603F046FDA5F58C75E8088DF837
:103CA000040045F38000401C8DF800608DF805008D
:103CB000216868468847002FE0D1D6E700700040B1
:103CC0001429002000F012BA70B50E46144900EB1A
:103CD000400001EBC0051446E86A183520B1012800
:103CE0000FD0022805D113E0284600F033FAA04295
:103CF00001D2002411E022463146284600F062FA43
:103D00000BE0284600F026FAA042F4D20446F2E77F
:103D10003146284600F029FA0446204670BD0000CE
:103D2000A82F0020F8B511480F4D04464FF48C71B0
:103D300003F0B7FE002815D00026C4F81861D4F8A7
:103D400018010090A87F2C46FF2801D003F0FDF851
:103D500066772672D4E9002101B004F10800BDE8BD
:103D6000F0401047F8BD0000C82800200030004097
:103D700002494FF0402001F06ABC0000EC2800200E
:103D800004F0B2BB03F030BEF0B5AE480023021D14
:103D900001780125101D4FF0805406290BD11678AB
:103DA000360708D10678C6F30316032E06D0042E74
:103DB00004D0052E02D0062907D00EE0B4F8246303
:103DC000A14FC6F304263E6002E01678360704D100
:103DD0000678C6F30316032E02D0062904D00FE09E
:103DE0009B4F9A4E7E670EE01678360708D106780C
:103DF000C6F30316032E06D0042E04D0052E02D0DF
:103E0000062907D00EE0D4F84462924FC6F342363A
:103E10003E6002E01678360704D10678C6F3031632
:103E2000032E02D0062906D011E08B4E376827F00A
:103E3000807737600EE01678360708D10678C6F32B
:103E40000316032E06D0042E04D0052E02D0062918
:103E50000AD011E04FF08046C6F80C31C6F8103198
:103E60007C4E361F336002E01678360704D10678A0
:103E7000C6F30316032E02D0062905D00CE0754FB9
:103E8000032664373E600AE01678360704D10678C8
:103E9000C6F30316032E02D006290DD014E06F4F8F
:103EA00005263E606D4E783635606C4E08363360C0
:103EB0003F263F1D3E6002E01678360704D10678A3
:103EC000C6F30316052E02D0062957D062E0644ED1
:103ED0003668644F3E60624E361D36683F1D3E6058
:103EE0005F4E083636683F1D3E605D4E0C363668C4
:103EF0003F1D3E605A4E103636683F1D3E60584E9C
:103F0000143636683F1D3E60554E18363668554F9C
:103F100020373E60524E1C3636683F1D3E60504E84
:103F2000203636683F1D3E604D4E243636683F1DB4
:103F30003E604B4E283636683F1D3E60484E2C365C
:103F400036683F1D3E60464E30363668454F403736
:103F50003E60434E343636683F1D3E60404E383634
:103F600036683F1D3E603E4E3C3636683F1D3E6023
:103F70003B4E403636683F1D3E6002E016783607FD
:103F800008D10678C6F30316032E06D0042E04D0FB
:103F9000052E02D0062907D019E0D4F85812324A6B
:103FA00001F04F01116002E0117809070FD100788C
:103FB000C0F30310032803D0042801D0052806D13C
:103FC0002A480168C90702D06FF001010160224848
:103FD0007438016841F470010160BFF34F8FBFF383
:103FE0006F8F4FF01021D1F80002002803DBD1F8C9
:103FF0000402002822DA1E4A15601E480468002CBC
:10400000FCD01524C1F800420568002DFCD0C1F891
:10401000044201680029FCD0136001680029FCD02B
:10402000BFF34F8F0C48F0380168134A01F4E06188
:1040300011430160BFF34F8F00BFFDE710490F48E8
:104040000860F0BDE00F00F0403501400DF0ADBA62
:1040500000C007403C050040FCED00E01056004069
:104060000404001020C50040E40E0040000400409D
:1040700004E5014000E401400400FA050090D0038B
:104080002C2600202DE9F84300250F4C04274FF47F
:10409000A078BE034FEA050908EB850006FA05F192
:1040A00022585AB1D4F804230A4207D044F80090A9
:1040B0002158064A00915168126890476D1CEDB274
:1040C000BD42E9D3BDE8F8830080004044290020C8
:1040D0000448017F04480029024901D004F09EBD34
:1040E00004F00DBDA82800200020004010B5124C9F
:1040F00002202061606111A0A06104F17800E061FC
:104100004FF4007020620020A06260620BA1A164E5
:10411000E06204F51E71E1641021A065C4E9141089
:10412000E06509A1E01DFFF752F908A12046FFF75D
:104130004EF92020A07110BDA82F00205465726D8B
:10414000696E616C000000005254540053454747AB
:10415000455200000269C1688A4203D88068401A4B
:10416000104400E0501A401E70472DE9F047C46823
:104170001746894606464FF000083069A04201D92B
:10418000051B02E0B168201A0D1AB0686D1E001BF5
:10419000A84200D80546BD4200D33D4670682A4675
:1041A00020444946FFF7E8F8B0687F1B2C44A84438
:1041B000A944A04200D10024F460002FDDD1404684
:1041C000BDE8F0872DE9F04104468846D4E90207AE
:1041D000C51BE168606816460844B54206D94146E9
:1041E000FFF7CAF8B819E060BDE8F0812A464146F9
:1041F000FFF7C2F8761B08EB050132466068FFF74F
:10420000BBF8E660F0E700000FB4084610B5064AB8
:1042100002A900F038F8044602A9002000F044F892
:10422000204610BC5DF814FBA942020002E008C859
:10423000121F08C1002AFAD170477047002001E020
:1042400001C1121F002AFBD1704700000121202864
:1042500003DA81400548014003E0402802DA2038B3
:10426000814009B10120704700207047FC06FFBD66
:10427000082806D228B1012803D0042801D0012043
:104280007047002070472DE9F04116460F4604465E
:10429000002503E03946B047641C6D1C20780028D7
:1042A000F8D12846BDE8F0810A68531C0B601070F5
:1042B0007047000070B5264C0325A0B0208825A1CA
:1042C00005EB004003F048F802F04EFF0028FBD158
:1042D000254826A1827C208805EB004003F040F8A9
:1042E00002F042FF0028FBD11F4E2088183605EB54
:1042F0000040327823A103F033F800BF02F034FF0E
:104300000028FBD125483C2100681E9030788DF8AC
:104310007A006846FFF749F802208DF80000012472
:104320008DF8024006208DF803003C210FA8FFF70E
:104330003CF81EA81490ADF84C400FA9684600F058
:10434000B8FA002801D000F0E3F820B070BD0000FA
:10435000BC2600206164766572746973696E675F5C
:10436000696E697400000000EC2600206D5F6C62CD
:10437000732E757569645F74797065203D202569B9
:10438000000000006D5F6E75732E757569645F7453
:10439000797065203D20256900000000348F0200FF
:1043A0001FB5002002908DF8080000900390402176
:1043B00001908DF80000ADF80A10ADF80C00012155
:1043C000684673DF08B100F0A3F8002000F0F0FDAC
:1043D0001FBD000070B50024084D05E0686810F8A6
:1043E000340002F09FF8641C28788442F6D3044815
:1043F0000068BDE8704000F017B90000A821002057
:104400008C8F020070B50024064D06E0686801211B
:1044100010F8340002F0AAF8641C28788442F5D31E
:10442000002070BDA8210020F8B515460C460646B0
:10443000052A01D20720F8BD02F07EF918B902F072
:104440004DF90028F7D1104900204E600C70C1E9E9
:1044500002500E4D08610DE006EBC4006968009142
:1044600081788DF801100078094A694602F0D0F889
:104470000028E0D1641EE4B2EED2BDE8F840054A5F
:104480000021024800F050B8A82100208C8F0200C3
:104490003D550200C553020003F00EF802F064FE21
:1044A0000028FBD1104C0121208801EB00400FA116
:1044B00002F052FF10480068C00700D000BE2088FC
:1044C000022101EB00400DA102F046FFBFF34F8F28
:1044D0000948E43801680D4A01F4E06111430160C4
:1044E000BFF34F8F00BFFDE7BC260020466174611B
:1044F0006C206572726F7200F0ED00E05379737496
:10450000656D207265736574000000000400FA0593
:104510000EB500210091CDE901106A4644F2010078
:10452000FFF7BAFF0EBD0000074B9B7823B12AB1FD
:1045300020B10068037C1BB108207047072070473A
:1045400041744261002070477029002070B503F06B
:10455000A9FC104800240B21047044700E4D81709A
:1045600014206C602C706C70FFF764FA0721142023
:10457000FFF781FA1420FFF768FA08480460072162
:104580001120FFF778FA0548001F0068A860002096
:1045900070BD000070290020BC21002008150140DA
:1045A0002DE9FC47DFF8789099F8023073B368B3CF
:1045B000052902D20720BDE8FC87436933B3437C59
:1045C000012B25D0002704460025884616468DF885
:1045D0000050684600F038F801A804F02BFCC8B180
:1045E000012101700F4944600968C0E90218C0E95F
:1045F00004769DF8040089F801009DF8000000F0A1
:1046000047F81420FFF72CFA2846D4E70820D2E711
:104610000F46D8E704259DF8000000F039F8F3E7CD
:1046200070290020041501400649897839B130B15C
:10463000416921B100210174022103F0E3BF082088
:10464000704700007029002030B5EFF3108172B67A
:104650000D4A9468012324B10370002900D162B689
:1046600030BD93604FF0E023D3F88051074C2540D4
:104670001560C3F88041D3F8844154605A17C3F8D9
:10468000842100220270E8E77C2A0020FC06FFBD9E
:104690000B498A68002A11D000280FD1EFF310804F
:1046A00072B60B684FF0E022C2F800314B68C2F8D6
:1046B000043100228A60002800D162B670470000F1
:1046C0007C2A0020400C01D0002070470120704758
:1046D0000E4910B503204FF0A042C1F800074FF477
:1046E0008001C2F808150A49098800EB014009A1B8
:1046F00002F032FE03F0A2FC03F0D8FC03F0C8FC89
:1047000002F032FD0028FBD110BD0000580000501F
:10471000BC26002053414144432048414C2073694A
:104720006D706C65206578616D706C652E000000A1
:104730002DE9FC47002517880646158090F82D00C6
:104740001446894630B13A462146484600F01AF9E7
:10475000050009D1B0784FF00C0A18B32088C8467C
:10476000001DB84202D95046BDE8FC87684679DF93
:104770000028F9D12088032108F800102088192189
:10478000401C80B2208008F800102088401C80B2B5
:10479000208000EB0801BDF8000004F0B7FA218882
:1047A00008442080F0780222C8B1218896F90330AD
:1047B00001F1030C4846BC45D5D8425421884FF03E
:1047C000010C491C89B2218000F801C02188491CD4
:1047D00089B2218009F801302088401C208070684F
:1047E000B8B1218890F9003001F1030C4846BC456E
:1047F000B9D8425421880A22491C89B221804254E6
:104800002188491C89B2218009F801302088401C88
:104810002080308950B1CDE900474B460622022165
:1048200006F1080004F01EFB05009DD1308A50B14E
:10483000CDE900474B460722032106F1100004F0A2
:1048400011FB050090D1308B50B1CDE900474B46AC
:104850001522142106F1180004F004FB050083D191
:10486000306A30B13B462246494600F041FD050022
:10487000DBD1706A30B13B462246494601F0B8FAB6
:104880000500D2D196F82C0038B13B462246494665
:10489000304603F051FD0500C7D1307838B13B46B2
:1048A00022464946304601F02BFB0500BDD1284683
:1048B0005AE7F0B50C4693B01F210726ADF800105B
:1048C000ADF80410002750B1C17849070DD56A46EC
:1048D00002A9FFF72DFF002808D102AD02E0002554
:1048E000ADF800706CB1E07810B1304613B0F0BD97
:1048F00001AA0AA92046FFF71BFF0028F6D10AAA41
:1049000002E00022ADF80470BDF80400C3B2BDF8A7
:104910000000C1B2284672DFE8E7000070B504006D
:1049200012D001461C221448FEF726FD1248134DF2
:104930000560206850B17ADF002806D12068016840
:1049400029604068686005E00E2070BD0B487BDF81
:104950000028FAD108484FF6FF711438084A20F8A9
:10496000041B0549343901600021FFF7DDFD0028F3
:10497000EBD0032070BD0000682700208C210020B0
:10498000CD8D02007CB5054608880C460930904262
:1049900001D90C207CBD68466DDF0028FAD1218842
:1049A0000820685420881B21401C80B22080295494
:1049B0002088401C80B220802844DDF8011001606E
:1049C000BDF8051081802088801D80B220809DF870
:1049D0000010490800D0012129542088401C208063
:1049E00000207CBD30B50188544D89B00446212992
:1049F00054D012DC012972D05148032210290088BA
:104A000002EB00401AD0112931D0132952D10023D2
:104A10001A46852128887FDF22E03B2956D051297C
:104A200065D0522948D0562944D100BF02F09CFBE2
:104A30000028FBD1A088132176DF11E041A102F00C
:104A40008BFC00BF02F090FB0028FBD1012000F09E
:104A5000AFFA002000F0A4FAA0882880FFF7D2FC6B
:104A6000002827D009B0BDE83040FFF751BD38A17C
:104A700002F072FC02F078FB0028FBD1012000F06C
:104A80008FFA4FF6FF702880FFF7A4FC08B1FFF7FC
:104A90003FFD09B0BDE83040FFF782BC02F064FB87
:104AA0000028FBD10090A08869468FDF41E000BF5D
:104AB000FFF72EFD09B030BD02F056FB0028FBD1F8
:104AC00000231A4619462888A9DFC9E702F04CFBE3
:104AD0000028FBD1A088132176DFC1E7FFE702F0B1
:104AE00043FB0028FBD1A088002166DFB8E702F075
:104AF0003BFB0028FBD11022A11D04A8FEF73CFCC3
:104B00009DF810100029D5D09DF81800042803D076
:104B1000062801D00528CDD102290DD05FF0010073
:104B20008DF800004FF4C170ADF80400A08869460C
:104B3000A8DF0028BCD1BDE70220F1E780210020DA
:104B4000BC260020436F6E6E6563746564000000D0
:104B5000446973636F6E6E65637465640000000082
:104B60002DE9F04701883B4E40F2F3194FF6FF75EF
:104B700010291BD011293ED0122954D0502946D1DA
:104B8000C188F289841D914241D1618902293ED1B7
:104B90008688304600F0FEFC050038D004F10C0099
:104BA00000F096F9A8B3294630464EE0C17B8788CD
:104BB000044601292BD1A846284600F0EBFC05004D
:104BC00017D02F8000202872234843464A460168A8
:104BD000C5F80A104068C5F80E0004F1100105F18F
:104BE0000A0000F0ECFD6872F08900280FD1294618
:104BF0002AE0042013E0808800F0CCFC040006D0FA
:104C00006068FFF711FD08B103F078FB2580BDE86F
:104C1000F087FFE76868FFF707FD0028F7D0BDE8D9
:104C2000F04703F06BBB87880646384600F0B2FCBD
:104C30000400ECD02B464A4606F1080104F10A00B4
:104C400000F0BDFD607221463846BDE8F04700F037
:104C500095BB0000682700208C2100202DE9F0473B
:104C6000044603883F480122A4B000F1480A102BF3
:104C700009D0112B54D01A2B70D1217AB2EB111F0D
:104C800053D2012352E0D0E911218A430546011D88
:104C900012A803F006FB442212A901A8FEF76CFB40
:104CA000DFF8C0900026374609F144090DF10408E9
:104CB0000AE000BF08EB46001D2283884946281DF4
:104CC000009703F0B3FA761C0198B042F2D8686CF2
:104CD000A688C04303F0CCFAA0F57F41FF3917D076
:104CE00005EB40000123868032465146281D03F023
:104CF000FDFA012332464946281D03F0F7FAE07B0E
:104D000002280BD000231749A2884C31281D20E02F
:104D100024B00420BDE8F047FFF7FABB0123F2E717
:104D20000023A2885146001D13E000230D490546CB
:104D3000A2885031001D03F0D9FA207A0221B1EB8C
:104D4000101F01D2012300E000230649A28854313C
:104D5000281D24B0BDE8F04703F0C8BA24B0BDE870
:104D6000F08700008427002030B40288502A10D138
:104D7000034630F8062F4C88A2420AD14289012A04
:104D800007D14C69002C04D0027B9888A44630BC23
:104D9000604730BC7047000030B5174B0D4604002B
:104DA0000FCB85B08DE80F0023D015B34FF6FF7001
:104DB000A0822868A0610020A0752146684662DFB5
:104DC000002814D120788DF812000120ADF81000D1
:104DD000A21C04A9A0DF002809D12946204603F01F
:104DE00098F8002803D12946204603F00DFE05B0AF
:104DF00030BD0E20FBE70000688F02007FB5002960
:104E000017D0002815D00288102A0DD0112A0DD0F5
:104E1000502A0FD0572A0CD11A4B1868D3E9022315
:104E20008DE80F0089692AE0808801E04FF6FF7065
:104E300088827FBD01910C46821DC38809890025A7
:104E400012308B4202D1518902290CD0A1898B42A8
:104E5000EFD1A1690029ECD002905089ADF80C0087
:104E60008DF800500AE000F033F818B10120A07569
:104E7000022001E0A57503208DF80000A1696846B5
:104E800088477FBD588F02001FB560B1838AA3F5A4
:104E90007F44FF3C09D0837D3BB11388142B06D996
:104EA000072004B010BD0E20FBE70820F9E700231F
:104EB00000930193029303938388CDE90221ADF817
:104EC000003001218DF80210808A6946A6DFE8E7EC
:104ED000007800F0010070477CB502208DF80400D6
:104EE00014460D46962001F07EF900200090012323
:104EF00001AA1821074801F0C1FE002808D1962018
:104F000001F071F9E3B22A461821024801F0A4FE2B
:104F10007CBD0000649102003EB514A1154CD1E99E
:104F20000001CDE901012088032505EB004012A115
:104F300002F012FA02F018F90028FBD101200090CB
:104F4000052301AA1821104801F098FE08B1FFF7C7
:104F5000DFFA20880DA105EB004002F0FDF900BF4B
:104F600002F002F90028FBD13EBD00000F0310083B
:104F700011000000BC260020626D613235305F698F
:104F80006E69742E0000000064910200626D61324F
:104F9000353020696E697420636F6D706C657400C4
:104FA0000249085C012101F0DEBF0000388F0200D9
:104FB0000249085C002101F0D6BF0000388F0200D2
:104FC0007CB50024084E25460122305D0095002363
:104FD0001146019501F07CFF641C032CF4D3BDE85D
:104FE0007C4000F003B80000388F020010B50024A8
:104FF0002046FFF7D5FF641C032CF9D310BD000039
:10500000F8B5871C00208DF800000E460125684683
:10501000FFF71AFB124C20683060D4E90001401AF7
:10502000A168091ABE1C06E000F08CFCD4E900015E
:10503000401AA168091A491C8E42F5D8A168206857
:10504000084004EB8000C16841F00301C1602068A2
:10505000384420609DF80000FFF71AFB2846F8BD91
:10506000882B002030B482680468531C8360A154EC
:10507000D0E901128A4202D330BC01F030BE30BC0C
:1050800070470000034803C8814201D101207047E6
:1050900000207047882B00207CB50C46042803D0E4
:1050A000BDE87C40FFF734BA244E03250A46308819
:1050B00023A105EB004002F053F900BF02F054F8C1
:1050C0000028FBD1012C38D125A16846FFF79CF8B8
:1050D0000122ADF80420308822A105EB004002F047
:1050E0003FF930886A4605EB004021A102F038F90B
:1050F00002F03AF80028FBD101AA69462548FFF7DB
:10510000C3FE04463088224605EB004022A102F08F
:1051100027F900BF02F028F80028FBD1002C0CD0A2
:10512000A4F54050023808D0082C06D043F20140C4
:10513000844202D02046FFF7EBF97CBDBC2600205C
:1051400053656E6420627574746F6E20737461743D
:1051500065206368616E67652E2025690000000088
:10516000390000006C656E203D20256900000000BC
:1051700053656E6420627574746F6E20737461740D
:1051800065206368616E67652064617461203D20FD
:1051900025730000042700206572725F636F6465E9
:1051A000203D20256900000005494FF0FF32082806
:1051B00041F8202002D3084480F8482070470000BE
:1051C00050280020F0B54FF0FF3512B1002308261B
:1051D00001E008230C260C4C05E000BF54F82370B6
:1051E0007F1C04D05B1CB342F8D32846F0BD2618C0
:1051F0005DB286F8305044F82310002AF5D1E1184A
:1052000081F84800F1E700005028002002490844D6
:1052100090F93000704700005028002070B5084C0D
:10522000050009D010342168002907D008682060E3
:10523000496828468847F6E70834F4E770BD00005F
:105240003C2800202DE9F05F26484168F1B3DFF8E3
:1052500098B00E688146DBF8004087688078E11BD3
:1052600021F07F45ED1CB0B9DFF880804FF480302D
:10527000C8F84403C8F804031120FEF7DBFB112033
:10528000FEF7E3FB4FF0010AC8F800A02F2001F061
:105290003BF889F802A0B54200D23546124BE81916
:1052A0003C3320F07F401860DBF800105A46091BA1
:1052B00021F07F41001B20F07F40C91C81420FD9A3
:1052C000106818602F2001F01FF800E004E0BDE82E
:1052D000F05F1120FEF7C4BBBDE8F05F02F0E2BD55
:1052E000BDE8F09FBC2100200415014000100140E2
:1052F0002DE9F04117880646B81D14460D46984220
:1053000002D90C20BDE8F0813188072206290AD392
:105310004FF4486C4FF6FF73614501D9994202D1B1
:105320007088062801D21046ECE7604501D9984202
:10533000F9D1994203D0984201D08142F3D8052097
:10534000E85520881221401C80B2208029542088F2
:10535000401C80B220804119308803F0D7FC21889E
:10536000084480B220804119708803F0CFFC218866
:10537000084420800020C5E7FFF7CAB838B54A7A4C
:105380000F4B62B100220A725969002906D001222E
:105390008DF80020ADF802006846884738BD0A7ACB
:1053A00062B19B684C68024619462046FFF7F8F840
:1053B0000028F3D0BDE8384002F0A0BF5B68F1E7F9
:1053C000682700202DE9F04100260125144C22E039
:1053D0006068226900EBC607387805FA00F11142CF
:1053E00017D08A43226101F06FF902463878E368EA
:1053F00005FA00F1194002FA00F3994209D17978CF
:10540000012901D0012100E0002151407A6802B158
:105410009047761CF6B220788642D9D3BDE8F08159
:10542000A82100200E4910B50A784C780023A2422A
:1054300012D0521CD2B20A70022A00D10B70084A54
:105440000B780C3252F8232002608868104420F058
:105450007F408860012010BD0360002010BD000067
:10546000BC21002070B506460024204602F09EFCB8
:10547000002501213046FEF70FFB6D1CEDB2802D9B
:10548000F7D3641CE4B2082CEFD370BD10B500282C
:1054900021D0114B0022001F196803E0814203D87C
:1054A0000A4649680029F9D152B11368841A9C420E
:1054B00004D1006818441060104602E0506000E01B
:1054C000186039B102680B1A934203D10B681A4471
:1054D00002604968416010BD3026002010B50E48BA
:1054E0004A8803889A4211D10A88A2F52063773B43
:1054F0000CD18988C91E8AB242800848032113460C
:10550000008801EB004006A101F031FF01F02CFE04
:105510000028FBD110BD000080210020BC26002007
:1055200044617461206C656E20697320736574201A
:10553000746F203078255828256429002DE9F04122
:10554000124E07460125BD403068FFF76DF8002870
:105550000DD10F4C2069284207D1384601F0B4F82C
:105560000028E06805D0284304E0A8432061BDE896
:10557000F081A843E060206928432061A168306879
:10558000BDE8F0410022FFF70BB800008C8F02004D
:10559000A82100200146034802888A4200D000204A
:1055A00070470000542700202DE9FC5F0E00834661
:1055B000DDE90C47C6F1000098469246814600D4CA
:1055C0000846012503E000BF90FBFAF06D1C504532
:1055D000FADAA84500D9454624B1002E01DB780748
:1055E00000D5641EB80702D5B8F1000F0AD0F8073D
:1055F00008D13CB1A54205D220215846641EFFF7D0
:1056000031FDF6E7002E02DA4E462D2102E0780742
:1056100003D52B215846FFF725FD07F0030002288C
:105620000BD1B8F1000F08D13CB1A54205D2302111
:105630005846641EFFF716FDF6E7CDE900474346DE
:1056400052463146584603F067FBBDE8FC9F2DE902
:10565000FF470D464FF492770446394602F04CFA64
:105660004FF002094FF001084FF4827640B13946FD
:10567000204602F046FA3146204602F03DFAB0B329
:10568000B2463146204602F037FA4FF0FF36002787
:1056900070B35146204602F034FA05F10C0001AB1C
:1056A00007C883E8070095F8230078B1287B012814
:1056B0002DD0D4F84C05C0B28DF80600287B022806
:1056C00028D0D4F84C05C0B28DF807004FF4B07163
:1056D000204602F016FA4FF4AE71204602F011FA9D
:1056E00095F8250080B395F8230068BB3CE000E006
:1056F00013E0A868C4F80803C5F80890A868C4F8BF
:105700000403C4F82080C4F81480BDE8FF87D4F8EF
:105710003C05D0E7D4F83C05D5E74FF4A47120460A
:1057200002F0EFF9287B80B14FF40070C4F800025A
:10573000801CA860C4F80863A868C4F80403C4F80F
:105740000880C4F82080E0E708E005F10C0001AB18
:1057500007C883E8070095F8250028B90020C4F899
:105760000002AF60C4F80863D4F8C404C4F8C404E9
:10577000810702D58DF8008006E0400702D58DF83C
:10578000009001E08DF8007095F8250008B985F8C3
:105790002470D5E9002168469047B6E70121814091
:1057A00003484068014201D0012070470020704743
:1057B00094210020014601208840FEF783BFF0B508
:1057C0008488A518944200D82246A41AC288D61804
:1057D0009A4200D81346D21A4B880788BB420CD392
:1057E0004088834209D88888A04206D3A84204D8BA
:1057F000C888904201D3B04201D90020F0BD0120F9
:10580000F0BD01218140C80300D001207047000095
:1058100006490120086006480168C1F300410029DB
:10582000FAD1044900208870704700000C00004045
:10583000180400403C2800201721018041800021ED
:10584000017141711B218171C17170472DE9F047D0
:10585000394E002780463D46DFF8E090D6F804A098
:1058600057E003D00446D0F81C8035E099F80020BA
:1058700002EB4201521CD2B289F8002009EBC101AF
:1058800099F80230091D9A4201D189F80050486800
:105890000A780446012A12D0022A02D0032A3BD1F8
:1058A00008E002F07FFE00B10127257434E00574A2
:1058B000C06900E070680028F9D170602CE0207C9D
:1058C00050BB88686060C868A0600869E06048698B
:1058D000A061F07800B165606268B168184B501A39
:1058E00020F07F40984202D2A168084406E0881A5E
:1058F000A16820F07F40814202D9081A206000E0B0
:10590000256065600120A56020742046E56102F0F5
:105910002BFEB8F10000A4D199F8001099F801000D
:105920008142A3D117B97168514502D00120BDE869
:10593000F0870020FBE70000BC2100207029002038
:10594000FFFF7F0070B588B0214800F027FB20489A
:10595000001F064600F022FB1E4DD5E9014105E07F
:10596000C0F3891202EB9050641C044404EA010065
:1059700005EB8000C0688207F2D000200DF108021C
:1059800004EA010305EB8303641CDB6842F8203062
:10599000401C0228F4D3029800F00300012808D02C
:1059A00002280AD10298032101EB905004EB9004E5
:1059B00003E00298C0F3831004443046002101AA9A
:1059C000FDF78FFC002800D06C6008B070BD0000AF
:1059D000A02F0020882B00202DED0E8B88B00020FA
:1059E00001F024FD08B1FEF793FD01F0AFFBA64DD9
:1059F0000324A6A1288804EB004001F0ADFC00BF01
:105A000001F0B2FB0028FBD102F0BAFEFFF7D8FA92
:105A1000FEF79CFD08B1FEF77BFD40F266620121B6
:105A2000A348FEF701FD08B1FEF772FD01F0A6FFE5
:105A300008B1FEF76DFD002669460120009601F0D1
:105A400085FE08B1FEF764FD684601F003FF08B16A
:105A5000FEF75EFD9DF8080096A120F00F00401CA7
:105A600020F0F00010308DF808000B2202A87CDF37
:105A700008B1FEF74DFD00965020ADF80000A020C3
:105A80000196ADF80200ADF804604FF4C870ADF8AF
:105A9000060068467ADF08B1FEF73AFD8849894872
:105AA00000F0DDFA08B1FEF733FD87480090854825
:105AB00069461C38FFF770F908B1FEF729FD288800
:105AC00082A104EB004001F047FC00BF01F04CFB59
:105AD0000028FBD1FEF7EEFB1C216846FDF765FCB4
:105AE0004FF42020CDE90060801002907E480590A0
:105AF0007E488DF80C400690ADF80E608DF8106071
:105B00006846FEF70BFF08B1FEF702FD288878A172
:105B100004EB004001F020FC01F026FB0028FBD143
:105B2000FEF73EFC02F048F8FFF7F6F9FEF7D0FD6D
:105B3000754F4FEA47089FED75CB9FED76DB774EAB
:105B4000DFED779A02F03CFC384600F051FB002173
:105B50000846FFF787FC404600F04AFB06226946EC
:105B60001820FFF7B9F908B1FEF7D2FC9DF8000044
:105B700000F0C000FDF75EFD41EC180B9DF8010040
:105B8000FDF758FDB0EE4CAAF0EE6CAA53EC1A2BC0
:105B9000FDF7CDFC53EC182BFDF722FCB0EE4DBA0F
:105BA000F0EE6DBA53EC1B2BFDF7C1FCFDF768FD61
:105BB00009EE100A19EE100AB04201DD39EE699AB9
:105BC0009DF8020000F0C000FDF734FD41EC180B19
:105BD0009DF80300FDF72EFD53EC1A2BFDF7A7FCF3
:105BE00053EC182BFDF7FCFB53EC1B2BFDF79FFC34
:105BF000FDF746FD08EE900A18EE900AB04201DD6E
:105C000078EEE98A9DF8040000F0C000FDF712FD6F
:105C100041EC1E0B9DF80500FDF70CFD53EC1A2B13
:105C2000FDF785FC53EC1E2BFDF7DAFB53EC1B2B29
:105C3000FDF77DFCFDF724FD08EE100A18EE100AB2
:105C4000B04201DD38EE698ABCEEC90A288835A168
:105C500004EB004010EE102A01F082FBBCEEE80AD3
:105C6000288838A104EB004010EE102A01F078FBE0
:105C7000BCEEC80A28883BA104EB004010EE102AB5
:105C800001F06EFB5EE70000BC260020202D2D2DCC
:105C90002D2D2D2D2D2D2D2D2D2D2D2D2D2D2D2D34
:105CA0002D2D20206D61696E207374617274000067
:105CB000842100205A6169676C6520736F797500D3
:105CC000DD54020020270020497B020073657276B4
:105CD000696365735F696E697420737461722034DF
:105CE00074207A7A7A000000817C020079530200E5
:105CF000426C696E6B79206578616D706C6520739C
:105D00007461727465642E0040420F000000000050
:105D100000007040000000000000903F0080FF4342
:105D20000000804420416363656C65726174696F33
:105D30006E20696E20582D41786973203A3D2025E8
:105D40006900000020416363656C65726174696F6E
:105D50006E20696E20592D41786973203A3D2025C7
:105D60006900000020416363656C65726174696F4E
:105D70006E20696E205A2D41786973203A3D2025A6
:105D800069000000F0B50B30154D20F0070100242C
:105D9000144A0FE003688B420BD38B4205D95E1A7D
:105DA00043184768C3E9006700E04368136002C016
:105DB00004E0021D10680028ECD12046002802D122
:105DC000286808B10020F0BD064A07481060074A5D
:105DD000121A22F00702C0E9002401202860D7E748
:105DE000342600203026002044320020405200207B
:105DF00070B5144682880E4605462088111D014460
:105E0000921C994201D8FE2A01D90C2070BD521C67
:105E100032542088FF21401C80B2208031542088D9
:105E2000401C80B220808119288802F06FFF2188F1
:105E3000084480B22080AA8842B1A96841B13044A8
:105E4000FDF79AFA2088A98808442080002070BDB8
:105E5000072070BD2DE9F047C7880446181D164677
:105E60008946B0FBF7F1B0FBF7F207FB12009A1975
:105E70003A44D21CB2FBF7F2DDF820A001E024681E
:105E8000491E0029FBD13D1A8846B54216D818E0B4
:105E9000BAF1000F05D0211809EB08002A46091DA8
:105EA00004E0204409EB08012A46001DFDF764FACE
:105EB00000202468761BA844B74201D9354600E08B
:105EC0003D46002EE4D1BDE8F087000030B5024623
:105ED00069B101F0D9FA0021084C0BE001EB410354
:105EE00004EB830315685B88AB4202D1116000208C
:105EF00030BD491C8142F1D3052030BD3826002039
:105F0000F8B50E46017814460546012901D1687896
:105F100030B12088821C9A422DD8012902D006E097
:105F20000720F8BD69780144891C994223D8181AC2
:105F3000801E87B2ADF800702188B01C0844694605
:105F40007DDF0028EDD12878022805D1BDF80010AA
:105F5000B94201D809210AE00821012805D1687851
:105F6000B84202D8ADF8000001E0ADF80070BDF80D
:105F70000000FE2801D90C20F8BD2288401CB05436
:105F80002088401C80B2208031542088401C208012
:105F9000BDF80010084420800020F8BD08B501219C
:105FA0006A46FDF791F9009808BD38B5044600250A
:105FB0008DF800506846FEF747FB21686268086864
:105FC00090420ED9401E08600178238AE26801FBE6
:105FD0000325227A2168101AC0B20A79824200D2BF
:105FE00008719DF80000FEF753FB284638BD38B510
:105FF000054600208DF800000C466846FEF724FB9D
:10600000E868298A201AB0FBF1F12A681068431C5D
:10601000136001709DF80000FEF73AFB38BD10B523
:1060200030B1017A42680368891AC9B21A6006E081
:106030000E2010BD03681A68541C1C601170491EA4
:10604000C9B2F7D2006800210171084610BDC2082C
:1060500000F007030120895C98400840704710B5A4
:1060600060B10161172120F8021B20F8021B1B21DF
:1060700000F8021BFFF7E0FB002010BD0E2010BD52
:106080002DE9F043858895B00C46002D3DD101885F
:10609000DFF824810026DFF82491012724293CD051
:1060A00006DC102909D011290CD023296DD150E02C
:1060B0003A290BD0552968D12AE00146204601F043
:1060C000EDFD62E0A01DFFF7B7FB5EE022464089D0
:1060D00034F8061F814200D808466080172800D295
:1060E00017206080106970B1607960B1D8E9001044
:1060F000CDE90310ADF80E506088ADF810001369BB
:1061000003A9104698476671267115B0BDE8F08363
:106110000146204601F010FE37E0011D342206A89A
:10612000FDF72AF9BDF81800BDF81C2004EBC001EA
:106130004A7322694AB3D8E90432CDE90432ADF892
:106140001200487B8DF814002269204604A990476C
:106150001BE00496059630F8041F04EBC102017998
:10616000127B8A4200D21146ADF81010ADF8121021
:106170000088002204A990DF020006D0B9F80000D0
:106180000F4907EB004001F0EBF8A07A0028BCD0E3
:10619000E18828469EDF02000BD0112AB5D0B9F85D
:1061A000000015B007EB0040BDE8F043054901F0E1
:1061B000D7B8A672E772A8E7408F02003826002001
:1061C000A49202001C92020000F1804000680028A6
:1061D00000D00120704708B500F180400021016027
:1061E0000068009008BD4FF47A71484300F0D2B8BF
:1061F00000283ED01F49204A096800BF00BF00BFE9
:1062000000BF00BF00BF00BF00BF91422FD000BF42
:1062100000BF00BF00BF00BF00BF00BF00BF00BF86
:1062200000BF00BF00BF00BF00BF00BF00BF00BF76
:1062300000BF00BF00BF00BF00BF00BF00BF00BF66
:1062400000BF00BF00BF00BF00BF00BF00BF00BF56
:1062500000BF00BF00BF00BF00BF00BF00BF00BF46
:1062600000BF00BF00BF00BF00BF00BF00BF0138BC
:10627000C3D170472C2600200024F40000283ED013
:106280001F49204A096800BF00BF00BF00BF00BF10
:1062900000BF00BF00BF91422FD000BF00BF00BFB2
:1062A00000BF00BF00BF00BF00BF00BF00BF00BFF6
:1062B00000BF00BF00BF00BF00BF00BF00BF00BFE6
:1062C00000BF00BF00BF00BF00BF00BF00BF00BFD6
:1062D00000BF00BF00BF00BF00BF00BF00BF00BFC6
:1062E00000BF00BF00BF00BF00BF00BF00BF00BFB6
:1062F00000BF00BF00BF00BF00BF0138C3D170475F
:106300002C2600200024F40000283ED01F49204AFB
:10631000096800BF00BF00BF00BF00BF00BF00BFD3
:1063200000BF91422FD000BF00BF00BF00BF00BF21
:1063300000BF00BF00BF00BF00BF00BF00BF00BF65
:1063400000BF00BF00BF00BF00BF00BF00BF00BF55
:1063500000BF00BF00BF00BF00BF00BF00BF00BF45
:1063600000BF00BF00BF00BF00BF00BF00BF00BF35
:1063700000BF00BF00BF00BF00BF00BF00BF00BF25
:1063800000BF00BF00BF0138C3D170472C260020DA
:106390000024F40000283ED01F49204A096800BFAD
:1063A00000BF00BF00BF00BF00BF00BF00BF9142E1
:1063B0002FD000BF00BF00BF00BF00BF00BF00BFA5
:1063C00000BF00BF00BF00BF00BF00BF00BF00BFD5
:1063D00000BF00BF00BF00BF00BF00BF00BF00BFC5
:1063E00000BF00BF00BF00BF00BF00BF00BF00BFB5
:1063F00000BF00BF00BF00BF00BF00BF00BF00BFA5
:1064000000BF00BF00BF00BF00BF00BF00BF00BF94
:1064100000BF0138C3D170472C2600200024F400AF
:1064200070B50F4C0025207808B1852516E00021B5
:10643000A16061602161E1604FF0E020D0F80001CF
:10644000012610F0010F03D10721002000F04EF8C3
:1064500001F0DCFA08B9034806602670284670BDD2
:106460003C2800201805004008B500208DF80000E9
:106470006846FEF7E9F80648C168491EC160C06871
:1064800008B9FFF7C5F99DF80000FEF701F908BD4E
:106490003C2800202DE9F0414FF480773846FFF783
:1064A00093FE0124104EA50748B13846FFF793FE2E
:1064B0000120C5F8080374700020FEF7AFFE4FF40A
:1064C00082773846FFF780FE00280BD03846FFF76A
:1064D00082FE0220C5F80803B470BDE8F041012037
:1064E000FEF79CBEBDE8F0813C2800204907090E5C
:1064F000002806DA00F00F0202F1E02282F8141DF3
:1065000003E000F1E02282F8001400F01F020121F4
:1065100091404009800000F1E020C0F88012C0F8EE
:106520000011704710B5044601F058FC28B1204610
:10653000BDE81040002100F0F7BC204601F05AFCF5
:1065400000280FD02046FEF761FE074A02EB8001CB
:10655000D1F8103523F00103C1F810350121814035
:10656000C2F8081310BD0000006000402DE9F041A2
:106570008846054601F032FC234E002828461AD0F2
:10658000FEF744FE304490F848008009032802D00A
:1065900001280ED007E04FF0A040D0F81005E840E9
:1065A00010F0010F05D003212846BDE8F04100F0AE
:1065B000BBBC0221F8E701F01DFC002822D02846D0
:1065C000FEF724FE04464FF4807000EB84000F4F6A
:1065D00081B207EB8400D0F8102542F00102C0F828
:1065E0001025084600F0EAFCB8F1000F0AD0284652
:1065F000FEF70CFE56F82000002803D00120A04032
:10660000C7F80403BDE8F081502800200060004076
:106610002DE9FC41DFF8A480044608EB04000027C4
:1066200090F930001346C0170E46401C01D00827D1
:1066300041E0F27819462046FEF7C4FD0546401CAD
:1066400038D0B07850B14FF0A04000EB8400D0F8C3
:10665000001721F00201C0F8001707E0002173784D
:10666000204600910A46019100F044FCF078C0B148
:106670001348317800EB8500D0F81025114B1A40F3
:10668000C0F810254FF4F8524FF4403302EA0422C8
:1066900003EA01410A43D0F810150A43C0F8102557
:1066A00009E008EB0500327810F8481F41EA821132
:1066B000017000E004273846BDE8FC815028002026
:1066C00000600040FFE0FCFF4FF0A041D1F8101542
:1066D000C14011F0010000D00120704770B5144D89
:1066E00095F8540008B1082070BD0020411E2A18FA
:1066F000401CC0B282F830102028F8D30024204675
:10670000FEF752FD641CE4B20C2CF8D307210620DE
:10671000FFF7ECFE4FF4BE7000F050FC05494FF05F
:106720000040C1F80403012085F85400002070BD2A
:106730005028002000600040034890F854000028D2
:1067400000D0012070470000502800200121B1EB4B
:10675000507F01D1012070470020704770B54FF085
:106760008040D0F80443114D600706D54FF4847083
:1067700000F080FF08B168688047A00607D54FF495
:106780008A7000F077FF10B1A96800208847600682
:106790000AD54FF48C7000F06DFF002804D0A96872
:1067A000BDE870400120084770BD00009C2100201A
:1067B000012802D101484068004770479C21002011
:1067C00038B5104C01280DD003280AD1072100202C
:1067D000FFF78CFE6068002803D004200107C1F891
:1067E000040338BD00208DF800006846FDF72CFF3B
:1067F000606808B1012035DF9DF80000FDF748FF13
:1068000038BD00009C2100202DE9F84F0427174EC9
:1068100000248246A1464FF0010800BF8DF8009089
:106820006846FDF711FF08FA04F5354203D020460B
:10683000FEF7B4FF60B19DF80000FDF729FF27B116
:1068400004F10104AE43E4B2E8D13846BDE8F88F64
:10685000074908FA04F000274A68104348608AF89C
:1068600000409DF80000FDF713FFEEE7FFFF010079
:10687000942100202DE9F04114460D00074612D066
:106880008CB10026FEF7BDFF78B13846FEF786FFD3
:1068900068B1084800EBC700C0F81055C0F81445AF
:1068A0003046BDE8F0810E20FBE70726F8E7082612
:1068B000F6E7000000F0014070B505460024FEF741
:1068C00079FF68B12846FEF79CFF18B12846FEF70D
:1068D00065FF38B104490120A8400860204670BD1A
:1068E0000724FBE70824F9E704F501400448017890
:1068F00009B1852070470121017000207047000018
:10690000942100202DE9F041254C064612200D4629
:10691000C4F808032348017C022918D0027C0146F0
:106920004FF4807891F82E10012A12D00222C4F878
:10693000042301270774466005810022C26021B349
:10694000458390F82D10304600F09EFE25E0122081
:1069500002E0C2682AB10220C4F804031120BDE895
:10696000F081C660058361B94746384600F0D2FE23
:106970000028FAD0384600F0D5FE2946304600F00F
:1069800083FE0220C4F8040307E02946304600F0E5
:106990007BFE404600F0C6FE27600020DFE70000D7
:1069A000007000401429002070B50C4614490546BB
:1069B000087C08B1112070BD2079124E08B1012861
:1069C00001D10020306001EB4500027F1AB911F8B7
:1069D0002D2F521C0A70E1790177217A41772146E7
:1069E000284600F059FE227AE179284600F088FE18
:1069F000207908B1012801D101203060002070BD4C
:106A000014290020007500402DE9F0411D4C054679
:106A100094F82C0010B10820BDE8F08109B115B13F
:106A200002E00720F8E7184D44F8101B17492878B2
:106A30000860091D68780860E878A0770127277743
:106A40000020207060776060114EE0776FF00040AA
:106A5000C6F808034FF4827000F064FEB01500F031
:106A600061FEA9780720FFF741FD0220C6F8040364
:106A7000A07F10B10120C6F804030448F038076075
:106A80000020C9E714290020888F0200F07500401B
:106A900000700040044890F82E0008B1002000E08B
:106AA0000420024908447047142900200070004067
:106AB00030B54FF4803405688C4013B1C5F80443F9
:106AC00001E0C5F80843006800EB8100C0F84025EC
:106AD00030BD0000016801220A600079034A00EB22
:106AE000400002EB8000022101727047442900201F
:106AF000F0B40468049E40F20115D4F800728D4091
:106B0000AF43C4F800720468D4F800521D43C4F8BF
:106B100000523346F0BCFFF7CBBF0000F8B5044687
:106B20000D460079204900EB400001EB8006307AE9
:106B300008B10820F8BD3AB1326068687060002082
:106B400003464FF4A07709E00720F8BD226807EB61
:106B5000800153505158401CC0B20091617981426C
:106B6000F4D82068E978000B40B2FFF7BFFC20683A
:106B70006978D0F8042561F30102C0F80425206883
:106B8000A978D0F8082561F30102C0F8082520682B
:106B90002978D0F8102561F30302C0F810250120F0
:106BA00030720020F8BD0000442900200179064A17
:106BB00001EB8101006802EBC1010622C0F800254B
:106BC000022081F822007047EC28002070B50646AC
:106BD0000D4600791F4900EB800001EBC00494F8DA
:106BE000220008B1082070BD0020C4E90023A06085
:106BF00084F8250084F82400A87B84F82700687BAB
:106C000010B1284601F05CFD296840F20C60890053
:106C100001F1A041C1F800076968890001F1A041B4
:106C2000C1F80007D5E900123068C0F80815C0F8AF
:106C30000C25A968C0F82415206828B13068297B84
:106C4000000B40B2FFF752FC012084F82200002024
:106C500070BD0000EC2800203EB5074D2C68AD68E3
:106C600000948DF80110019202958DF802300022F7
:106C7000694600F015F83EBD7C8F02003EB5002548
:106C80000095069C8DF8011002958DF80230019256
:106C90000CB1202200E00022694600F001F83EBD60
:106CA00030B40379064C03EB830304EBC3040068A0
:106CB00013460A460146204630BC01F079BD00006B
:106CC000EC2800200FB408B50399002904D004AAC9
:106CD00000926A4600F00FF801B05DF814FB10B5A1
:106CE00082680446002A05D0D4E904032168984745
:106CF0000020A06010BD2DE9FC4791460C008046A5
:106D000076D014F8011B39B125290ED04046FEF784
:106D1000A9F920780028F4D198F80C00002867D051
:106D20004046BDE8FC47FFF7DABF0020012221788A
:106D30002B291BD02D2902D0302908D102E040F0A8
:106D4000010001E040F00200641C002AEFD10025A0
:106D50002A290ED02178A1F130020A2A11D205EB9E
:106D6000850201EB4205641C303DF1E740F0040070
:106D7000EAE7D9F800100B1DC9F800300968641C57
:106D80000D44217800232E290BD114F8011FA1F105
:106D900030020A2A05D203EB830201EB4203303BA7
:106DA000F3E76C290DD068290BD0692921D00BDCC1
:106DB000252918D0582931D063290ED0642915D13E
:106DC00017E014F8011FECE7702969D0732932D05D
:106DD00075291BD0782909D120E0D9F80000011DC0
:106DE000C9F8001001784046FEF73CF9641C90E7B2
:106DF0006CE0D9F800100A1DC9F800200968CDE937
:106E000000500A224046FEF7CFFBEFE7D9F800100A
:106E10000A1DC9F8002009680A2206E0D9F8001006
:106E20000A1DC9F8002009681022CDE9005040462B
:106E300001F072FFDAE7D9F8001000270A1DC9F83F
:106E400000200E68C00705D112E04046761C7F1C6A
:106E5000FEF708F931780029F7D104E020214046F7
:106E60006D1EFEF7FFF8BD42C0D9002DF6D1BDE77B
:106E70004EB13046FCF7A4FA074604E02021404614
:106E80006D1EFEF7EFF8BD4206D9002DF6D103E0E6
:106E90004046761CFEF7E6F831780029F8D1A5E7E0
:106EA000D9F80000011DC9F80010056830214046DE
:106EB000FEF7D8F878214046FEF7D4F808200021E4
:106EC000CDE90001034610222946B0E7BDE8FC8762
:106ED00070B541EA4201DDE904564FF0A04441EAB1
:106EE000830141EA052104EB800041EA0641C0F834
:106EF000001770BD70B541EA4201DDE904564FF05C
:106F0000A04441EA830141EA052104EB800041EA03
:106F10000641C0F8001770BD4FF0A04202EB8000A0
:106F20000321C0F8001770474FF0A04202EB800029
:106F3000D0F8002722F44032C0F80027D0F800270C
:106F400042EA0141C0F8001770474FF0A04201210A
:106F50008140C2F8081570474FF0A04201218140DE
:106F6000C2F80815704701224FF0A043824011B1CA
:106F7000C3F808257047C3F80C25704701224FF06D
:106F8000A043824011B1C3F808257047C3F80C250F
:106F90007047000018B5084B6C4601441B6800930D
:106FA00006E000BF54F82030D3F81035401C08C26A
:106FB0008142F7D818BD0000788F0200034908B558
:106FC0000844002101600068009008BD0060004096
:106FD00002494058012800D000207047006000405E
:106FE00030B5124B01460020D3F81044224609E088
:106FF000157A854205D1401C0A28F7DB4FF0FF3097
:1070000030BD5268002AF3D1421CF9D00872D3F87F
:1070100010242AB152684A60D3F81024516030BD60
:107020000022C3F810144A6030BD0000882B0020F5
:107030007047FCF747BE704708B5034A00924023EB
:10704000024A00F005F808BD0D830200882A0020DE
:10705000F0B595B01C4615460F4608461A9E00F03E
:10706000E3FA182109A8FCF7A0F90E96CDE9095416
:107070000023082203A9384600F0F0FA059806908C
:107080000498ADF81C0000208DF820000398082615
:1070900000F00300012802D002281DD03CE0039834
:1070A0003346850AC0F3C2008DF81E0003980FA96D
:1070B000C0F380008DF81F000398C0F38314A20072
:1070C000384600F0CBFA09A8009006AB22460FA97B
:1070D000284600F005FA1FE00398840DC0F3C200B3
:1070E0008DF81E000398C0F380008DF81F00082C57
:1070F00001D2254600E0082533462A460FA9384626
:1071000000F0ACFA2E44641B09AB06AA29460FA86E
:1071100000F036F9002CEAD1384600F08EFA15B0AE
:10712000F0BD0000084A012902EBC00005D0022989
:1071300003D0032903D0042903D00020704700792D
:107140007047407970470000DC98020010B5FFF7E7
:1071500070FF04210348FFF743FF024901204872F2
:1071600010BD0000D02100202DE9F04F8DB0FDF7BB
:1071700089FF18B100200DB0BDE8F08F74480021E0
:10718000C0F81814BFF34F8FD0E9014604EA060196
:1071900000EB81014FF000090AE000BFC1F3891242
:1071A00002EB9151641C0C4404EA060100EB8101DE
:1071B000C9688A07F2D0002103AA804604EA0600C3
:1071C00008EB8000641CC06842F82100491C43465B
:1071D0000229F3D3039800F00300022806D0012807
:1071E00003984FD0C04380077ED0ACE00398502274
:1071F000810D8A46B2EB905F00D850210D4665F3B1
:107200009F5003900831534800F0C5F907006CD037
:1072100000F00AFA4B46082203A9384600F024FA87
:1072200004EA0601701A8000001D09F1080B85426E
:1072300021D9474E0C3630B1C2B208EB8101281A71
:1072400091460C3104E03146EAB2002691463046C0
:10725000C5B25B46384600F007FA0BEB09032EB1C6
:107260002A4631464FEA070000F0FEF90AF1030012
:1072700004EB90043BE008EB81015B462A4638466C
:107280000C31F1E7C0F38310062800D306200399E0
:1072900060F38911C1F38310801C039181002D4894
:1072A00000F079F907004ED000F0BEF94B460822F5
:1072B00003A9384600F0D8F909F1080900250DE0C6
:1072C00004EA060008EB80014B46042238460C31E4
:1072D000641C00F0C9F909F104096D1C0398C0F39E
:1072E0008310A842ECD801E00BE02CE05FB3D8F8A3
:1072F0001054D8F81804464690B1384600F09DF96D
:1073000021E0D3F8180400283FF435AF1BE0687A79
:10731000012804D1296828460A68394690476D68D3
:10732000002DF4D1384600F088F900208DF80000D7
:107330006846FDF789F9D6F8180400B974609DF81D
:107340000000FDF7A5F9FDF79DFE80F0010012E7B2
:10735000882B0020B490020000231A4601F07AB86E
:1073600008B5012300926A4601F074F808BD1CB507
:10737000CDE9002302236A4601F06CF81CBD000031
:107380002DE9F0470E4680461C46924608293ED815
:1073900094F80C90002020731946104600F054FD1C
:1073A0000025B54206D218F805201AA12046FFF79D
:1073B00089FC03E019A12046FFF784FC6D1C082D11
:1073C000EFD317A12046FFF77DFC0025B54210D270
:1073D00018F80570FBF7CCFF0068C05D10F03E0F99
:1073E00001D03A4600E02E220EA12046FFF76AFCAB
:1073F00003E00DA12046FFF765FC6D1C082DE5D3C9
:1074000001222146504600F001FD84F80C90BDE8B1
:10741000F087000020253032780000002020200076
:107420007C0000002563000020000000114810B51A
:10743000FF218160002101604160C0F81814C0F88C
:10744000141480F81C140C4800F0F5F800280FD133
:107450000A480B490B4B401AC108002005E000BF49
:1074600000EB400223F82200401C8842F8D30020A1
:1074700010BD0000882B0020B49002005499020037
:10748000DC9802003826002002480349401AC00850
:107490007047000054990200DC98020013B568465A
:1074A000FEF714FD08B100201CBD0248009950F8F9
:1074B00031001CBDDC98020070B508480125D0F8E9
:1074C000104480F81C5405E0657221682046496824
:1074D00088476468002CF7D170BD0000882B00201D
:1074E0002DE9FF4781460C9D00200C462F7B287319
:1074F000984616462946184600F0A6FC072E42D2AA
:10750000DFE806F004090F161F2A36004946284610
:10751000FFF7D8FB37E0494628462268FFF7D2FB41
:1075200031E0D4E9002349462846FFF7CBFB2AE0A7
:10753000A0680090D4E9002349462846FFF7C2FB23
:1075400021E0D4E90201CDE90001D4E90023494654
:107550002846FFF7B7FB16E004F1080007C88DE8DE
:107560000700D4E9002349462846FFF7ABFB0AE0B1
:1075700004F108000FC88DE80F00D4E90023494644
:107580002846FFF79FFB00222946404600F03EFCBC
:107590002F73BDE8FF872DE9F041058A80462D1F36
:1075A0004819C01CB0FBF5F0C6B24046FEF7FDFC22
:1075B000040019D00020207101206071E5800027AF
:1075C0002546761EC4F800800BE04046FEF7EDFC31
:1075D00060B16179491C6171286005467F1CC0F863
:1075E0000080B742F1D32046BDE8F081204600F08C
:1075F00002F80020F8E72DE9F041457901466B1EBD
:10760000002201E00968521C9A42FBD30F68014630
:10761000002605E038460C68FEF7E9FC2146761C9A
:10762000AE42F7D3BDE8F08108B501216A46001DDE
:10763000FBF723FE08BDFEF7F2BC38B50446001D7B
:1076400001216A46FBF726FE009810F0FF0F04D1D7
:107650002046BDE83840FFF7CEBF38BD38B501241D
:107660000094FEF7F7FB38BD38B500240094FEF710
:10767000F1FB38BD00F180410868002210B1012003
:107680000A60704710467047024A1060101D016082
:10769000704700002C76004010B50A784B783024F3
:1076A00002F0030204EA03131A438B784FF4E064F8
:1076B00004EA03231A43CB784FF4805404EA0333DB
:1076C0001A430B794FF4E02404EA03431A434B793D
:1076D0004FF4801404EA03531A438B79240104EA1B
:1076E00003631A43030105481844C0F81825CA79F2
:1076F000097AC0F81415C0F8102510BD00700040BC
:10770000030103481844C0F81425C0F81015704749
:107710000070004002494058002800D00120704706
:1077200000700040034908B5084400220260006868
:10773000009008BD0070004020B103490968016055
:10774000002070470E20704738910200FEB50246B7
:107750000E460846FFF7F0FF00286ED10024009483
:107760000194012503208DF80020ADF80400029457
:107770008DF8025069462020326869DF2F4F48B1EA
:1077800000F0B0F93988024605EB01432C49184650
:10779000FFF7E6FD00948DF800508DF8014001944C
:1077A00002948DF8024069464020326869DF40B19A
:1077B00000F098F902463888224905EB0040FFF7AF
:1077C000CFFD00940A208DF80000019402946946D0
:1077D0000120326869DF48B100F084F93988024637
:1077E00005EB014318491846FFF7BAFD4FF4B060A6
:1077F0000090019402946946A120326869DF40B18B
:1078000000F070F902463888104905EB0040FFF798
:10781000A7FD0094019402948DF800406946A020D1
:10782000326869DF40B100F05DF9024638880849E6
:1078300005EB0040FFF794FD0020FEBDD42600209C
:10784000B0970200F8970200109702005C970200C0
:10785000BC9602002DE9F0410446D0F800E060DF5C
:107860002368144D0646734515D02888022707EB78
:107870000040724610A1FFF77AFDF806D0F80C011F
:107880002168800200F10050421A288816A107EBF7
:107890000040FFF765FD56B1304600F023F902467F
:1078A0002888012101EB004018A1FFF759FD30465F
:1078B000BDE8F081D426002052414D2073746172DE
:1078C000747320617420307825782C2063616E20D9
:1078D00062652061646A757374656420746F20301A
:1078E0007825782E0000000052414D2073697A659A
:1078F0002063616E2062652061646A7573746564DB
:1079000020746F20307825782E00000073645F6249
:107910006C655F656E61626C65282920726574759F
:10792000726E65642025732E0000000030B593B0A0
:107930005FF03805ADF8445011A903A861DF30B1FC
:10794000052816D013B0BDE83040FCF7E1BD03AC0C
:107950000949684600F07EF807E000BFD0E9002141
:1079600020469047684600F08CF802980028E1D045
:10797000F4E713B030BD00003C91020038B5174C5D
:10798000207808B1082038BD0125A570002000F03E
:107990001FFC112820D0002000F032FC10481149B3
:1079A00000680090684610DF0028ECD12570A070B8
:1079B00060700721162000F0BFFB08B1FCF7A8FD9E
:1079C0000721152000F0B8FB08B1FCF7A1FD00F07D
:1079D00019FD012000F014FC002038BD24220020F5
:1079E000D8900200994402000EB50749684600F09D
:1079F00031F805E0D0E900108847684600F041F80A
:107A000002980028F6D10EBDF490020001480078DB
:107A100070470000242200201FB5684648DF30B1BF
:107A2000052814D004B0BDE81040FCF771BD08492A
:107A300001A800F00FF806E0D0E900210098904777
:107A400001A800F01EF803980028E6D0F4E71FBD57
:107A500058910200016009684160AFF3008010B5E1
:107A6000D0E900215368994201D1002104E0D1E915
:107A70000034A34202D01946816010BD0831416034
:107A8000F0E7816800290BD0026892680A4482609E
:107A900041684B689A4203D108314160FFF7DFBF6C
:107AA00070474058002800D0012070470C4A10B59C
:107AB00002F1F0030EE0991AC91001EBD1714910DF
:107AC00002EBC1010C68844201D90B4602E005D2E9
:107AD00001F108029A42EED3002010BD486810BDA3
:107AE000B88F020000B5FFF7E1FF002800D1014880
:107AF00000BD0000A48F02004058002800D00120E3
:107B0000704708B5002242504058009008BD4058C8
:107B1000002800D00120704708B50022425040588C
:107B2000009008BDD0F80403084000D00120704741
:107B30004058002800D00120704708B5002242506C
:107B40004058009008BD000070B50E4D0446032655
:107B500028880DA106EB0040FFF7FEFBFFF704FBB2
:107B60000028FBD1207800280AD128880BA106EB39
:107B70000040A268FFF7F4FBFFF7F6FA0028FBD1FC
:107B800070BD0000BC2600206E75735F6461746177
:107B90005F68616E646C6572000000006E75735FF3
:107BA000646174615F68616E646C657220446174C5
:107BB00061203D202573000070B588B01C2222A1F1
:107BC0006846FBF7D9FB274C032527A1208805EB46
:107BD0000040FFF7C1FB00BFFFF7C6FA0028FBD14A
:107BE0000F20FFF799F900210F20FFF7C7F94FF495
:107BF000FA763046FEF7F7FA01210F20FFF7BEF9BB
:107C00003046FEF7F0FA01216846FBF76FFF0B20C4
:107C1000FFF782F901210B20FFF7B0F96420FEF78E
:107C2000E2FAAF208DF8000001216846FBF75EFF05
:107C3000208810A105EB0040FFF78EFBFFF794FAB8
:107C40000028FBD108B070BDAE021040B081BFA1CA
:107C5000A6A83FAD8A32C8D300D580D922DA12DB7C
:107C600040000000BC260020496E6974204F4C453E
:107C7000442E0000204F4C454420454E4400000057
:107C80000078002807D104483B21008876DF0028CF
:107C900001D0FCF73DBC7047802100202DE9FC415C
:107CA0008E88027900EBC605AC1D2A73C97B0129B9
:107CB00002D0022904D101E0008800E04088208041
:107CC000218860880127DFF8648081420CD9304622
:107CD0009EDF020025D0112A25D0B8F800001449F3
:107CE00007EB0040FFF73CFBA079E179884216D909
:107CF000002000900190287BADF80000287BADF8B3
:107D0000020000226946304690DF030007D0B8F831
:107D10000000324607EB00400649FFF728FBBDE8AC
:107D2000FC816771E0E72771DEE70000382600205C
:107D30001C920200EC9202007CB506468D88C88831
:107D400006EBC504A41D172800D217202188814204
:107D500000D8084660800020207121882846ADDFC9
:107D6000020007D00E480121008801EB00400D49B8
:107D7000FFF7F6FA6079002810D1306900280DD09D
:107D80000948D0E90210CDE90010ADF80250608832
:107D9000ADF8040032696946304690477CBD00006A
:107DA0003826002060920200408F020008B5B030F3
:107DB0008DF8000001216846FBF798FE02208DF83F
:107DC000000001216846FBF791FE10208DF80000AD
:107DD00001216846FBF78AFE08BD000004490844FB
:107DE00090F93000082801DB01207047002070471F
:107DF000502800200449084490F93000082801D296
:107E000001207047002070475028002010B50C4614
:107E1000C17949B11AB109A12046FEF753FF2046A6
:107E2000BDE81040FEF75BBF007A0028F3D004489D
:107E300004A102682046FEF745FFECE70D0A0000AA
:107E4000002200202573000070B50446C0790D465D
:107E500000281CD1207A50B1A179A088FFF762F9DF
:107E60000B4951F820200BA12846FEF72BFFA088D4
:107E70000021FFF713FB03460549A079143951F897
:107E800020202846BDE8704003A1FEF71BBF70BD4F
:107E900000220020257300003C25733E2025733A04
:107EA0002000000070B5012670044FF0E02100258D
:107EB000C1F88001084C4010C4F84803C4F8080316
:107EC00066602F20FEF720FAA660044C2F20A560E4
:107ED000FEF71AFAA57070BD00100140BC21002009
:107EE00070B50546C87D0C4600284FF484712846BD
:107EF0000AD0FFF711FED5F81805627EE1688854B4
:107F0000607E401C607670BDFFF706FED5F8180550
:107F100070BD30B58FB005461C216846FBF745FAA9
:107F200000249DF80000019440F00C008DF8000042
:107F3000039404940594069428788DF83600022062
:107F4000ADF834000C949DF83000142120F00F009F
:107F5000401C20F0F00010308DF830009DF831000A
:107F600020F00F00401C20F0F00010308DF83100A0
:107F70009DF8320020F00600801C20F0180040F030
:107F800001008DF8320007A8FBF70FFA0DA8079043
:107F90000CA808900120ADF824001420ADF826406C
:107FA000ADF82800688805F10C0307AA6946A2DF2E
:107FB0000FB030BD1FB501238DF800308DF80810CB
:107FC0000192D0E90012684690471FBD70B5054682
:107FD0002DED028B0078002824D104216868FEF77B
:107FE00091FC08B1FCF794FA9FED108B6D680024AA
:107FF00035F91400FBF70DFB53EC182BFBF797FA40
:10800000FBF725FB641C82B2042CF1DB0948032139
:10801000008801EB004008A1FFF7A2F9FFF7A4F8E0
:108020000028FBD1BDEC028B70BD00006666666661
:108030006666E63FBC260020256400000EB5114AA6
:1080400007CA8DE8070010490020FEF7DDFC08B1E3
:10805000FCF75EFA69460020FEF7A6FC08B1FCF7C3
:1080600057FA04210948FEF74DFC08B1FCF750FA15
:10807000064804210830FEF745FC002801D0FCF733
:1080800047FA0EBD8C910200CD7F020030320020F5
:10809000054810B50078FEF70FFC002803D0BDE8B6
:1080A0001040FCF735BA10BD282600203EB5FEF77B
:1080B0001DFC08B1FCF72CFA1B491C4AD1E902014E
:1080C000CDE9010103208DF8060001A91648FEF74D
:1080D00025FD08B1FCF71CFA134C2068D0F81005F8
:1080E000134A0123C2400020014600902046FEF7BB
:1080F000FFFC2046FEF7EEFC246804F5A074FEF7B2
:10810000C9FC05460B48FEF77FFB08B1FCF700FAF7
:1081100008482A4621460078FEF7ACFB002801D02B
:10812000FCF7F6F93EBD00007C910200E5840200F8
:1081300000B4C4042826002070B50D460446FCF7A0
:1081400085F870B12846FCF793F868B16807000E0F
:10815000002C0CDA04F00F0101F1E02181F8140D7C
:1081600009E042F2010070BD42F2020070BD04F16C
:10817000E02484F80004002070BD000038B5002120
:10818000012558B101280ED003280BD1072100206A
:10819000FEF7ACF9BDE83840FEF766B94FF0E020D5
:1081A000C0F8805138BD8DF800106846FCF74CFAD5
:1081B000064C207808B9FEF733F9E068401CE0600F
:1081C000A5709DF80000FCF763FA38BD3C2800203C
:1081D0003EB5044609496846FFF73CFC08E000BF8D
:1081E000D0E900212046904730B16846FFF749FCAE
:1081F00002980028F4D13EBD11203EBDDC90020063
:108200003EB5044608496846FFF724FC07E000BF76
:10821000D0E90021204690476846FFF732FC0298DB
:108220000028F5D13EBD0000E890020070B500289E
:10823000049D18D0002916D0002A14D05FF0000445
:1082400030F814609E420FD100200123A34008E0C3
:1082500001EB800426680DB11E4300E09E43401CE4
:1082600026609042F4D370BD641C202CE8D370BD0E
:1082700070B5054600242146284600F00AF808B1EA
:10828000204670BD641CA4B2202CF4D34FF6FF70BE
:1082900070BD01228A40024201D0012070470020B7
:1082A00070472DE9F04192B080464FF0000017462C
:1082B0000D00009012D000246E46A1B23846FFF7A0
:1082C000E8FF40B1009935F8140006EB41018880C1
:1082D0000098401C0090641C202CEED34422694678
:1082E0004046FBF749F812B0BDE8F08108B50093AD
:1082F00013460122FFF79AFF08BD00000249896971
:10830000002900D008477047682700202DE9F04178
:1083100014000F460DD000250A26791922460020A8
:10832000FBF7D2FC0544241A08B9761E01D0002CB4
:10833000F3D1BDE8F08100002DE9F0410746806AE5
:1083400014468846C8B3002531E000BFB96A05EB82
:10835000450001EB8006B088801CFE2802D90C2065
:10836000BDE8F0812288401C08F80200208816220F
:10837000401C80B2208008F800202088401C80B279
:10838000208000EB0801308800F0C0FC2188084400
:1083900080B22080B28842B1B16871B14044FAF72E
:1083A000EBFF2088B188084420806D1CEDB297F85F
:1083B0002C00A842CAD80020D2E7FFE70720CFE769
:1083C0002DE9F04100260B4F34462046FFF7EEFC26
:1083D0000025B85D761CB6B20121FBF75DFB6D1C74
:1083E000EDB2802DF5D3641CE4B2082CEDD3BDE8CA
:1083F000F081000028220020002801D1FCF70EBFE8
:108400007047000010B51620FBF720FF80B10F4821
:1084100090F800044009FBF72BFF60B10C4882681C
:108420004FF480016AB1016841F48001016010BD20
:1084300042F2010001E042F20200BDE81040FCF708
:1084400067B84FF0E020C0F8001110BD16E000E062
:108450007C2A00202DE9F843214C884605469146A8
:108460001F4669461846A668FCF7CAFD70B3009817
:10847000811C00220AE000BF01EA060C59F82230F4
:1084800004EB8C0C491C521CCCF80C30BA42F3D3D0
:108490000246401C304004EB80002B0CC36002EA13
:1084A000060004EB8002E80652F80C0F02D540F0FB
:1084B000040001E020F0040065F3C50067F38910B3
:1084C00068F39F2020F00300401C106094F81C0407
:1084D00002E000BFFEF748FE0028FBD1BDE8F883AC
:1084E000882B0020704700002DE9F84F1D4C002517
:1084F0006846D4E901A6FCF795FF002738B30023AE
:10850000009A61681CE0D1F800C00846944503D980
:10851000ACEB02020A6015E0A2EB0C0263440760B8
:10852000D0F80CC0C1698146BCF1000F08D006EB41
:10853000030828F07F48C0E9018CC9F81C500546A3
:108540000029E0D128466160FDF780F903E0284664
:10855000FDF77CF910B15046FCF774FEE770BDE8FA
:10856000F88F0000BC2100200D4B10B5596831B1C7
:1085700002680C68A24204D8A21A0A60C16158605D
:1085800010BD0B4603E00B46C969121B21B10C68F4
:108590009442F8D3A41A0C600260C161D86110BD86
:1085A000BC2100202DE9F041144E77683D462C4651
:1085B00003E0844204D02546E469002CF9D11BE095
:1085C000D4B1A5420BD1F869706040B90C490120C3
:1085D00088600021B160F0702F20FDF795FE2168C2
:1085E000E069E86110B10268114401607068874277
:1085F00002D00120BDE8F0810020FBE7BC21002073
:10860000001001407CB5064600240D468DF8004060
:108610006846FCF719F801A800F00CFC70B1057071
:10862000094946609DF8040048709DF80000FCF779
:108630002FF81420FBF714FA20467CBD04249DF883
:108640000000FCF725F8F7E7702900202DE9F0413C
:10865000194D6C68002C2CD0184800270068A968B8
:10866000B846401A20F07F462068B0420CD8214618
:10867000361A0744E469087C20B181F810808869C3
:1086800049698847002CEFD129786878814206D162
:10869000401CC0B26870022801D185F801800648EC
:1086A00069780C3040F82170BDE8F0411420FBF7E8
:1086B000D7B9BDE8F0810000BC21002004150140BD
:1086C0002DE9F041044640F20C602168890001F177
:1086D000A041C1F800076168890001F1A041C1F81B
:1086E00000072068FEF738FC6068FEF735FC21685B
:1086F00040F20D60890001F1A041C1F800076168F6
:10870000890001F1A041C1F800070420FDF7B6FD82
:1087100000274FF0A04601252179D6F81005C84062
:1087200010F0010F02D0002F1DD010E0217805FAC3
:1087300001F0C6F80C050420FDF7A0FD2068FEF747
:108740000BFC0420FDF79AFD7F1C092FE4DB207948
:108750008540C6F80C550420FDF790FD6068BDE823
:10876000F041FEF7F9BBBDE8F08100000078002879
:1087700002D1024901200870704700002722002022
:108780001FB5094B0FCB8DE80F0007480023074AA0
:1087900069460838FEF71AFA08B1FBF7B9FE024835
:1087A0000838FEF703FA1FBD6C9102006D870200C6
:1087B0002DE9F05F06461F4615460C464FF0000AAD
:1087C0004FF0080B4FF482795068FDF7BFFF002887
:1087D0007ED04FF0FF30C4F8080396F8240028B18B
:1087E000B068C4F804031120BDE8F09F780703D4F3
:1087F000F80601D4012000E0002086F8240095E866
:10880000070006F10C0383E80700C7F3001086F8A1
:1088100025006878C4F888054FF482712046FFF778
:1088200070F94FF492712046FFF76BF9F8074FF09B
:10883000010800D04046C4F85005B80701D54046AD
:1088400000E00020C4F84005287800286CD00128FA
:108850007DD002284ED0032814D04FF0070A3807E5
:1088600004D42878032801D044F80B80306800280D
:108870006ED0780702D54FF40070B060B068C4F8CD
:108880000403ACE0A868FDF761FF08B34FF4807003
:10889000C4F80002A8786968C4F84415C4F848050B
:1088A0004FF4A8712046FFF72CF94FF4B071204621
:1088B000FFF727F94FF4A4712046FFF722F9C4F817
:1088C0002080C4F8088000BF4FF4A871204600E063
:1088D00028E0FFF711F90028F6D04FF4A8712046E0
:1088E000FFF70FF9E878A968C4F84415C4F84805FB
:1088F0003C4815E0A8786968C4F84415C4F84805F0
:10890000A868FDF723FF68B1E878A968C4F83415B2
:10891000C4F838054FF48450C4F8000240F2022035
:10892000B0609CE710205FE7A8786968C4F8441538
:10893000C4F84805B8060FD54FF48070C4F800029B
:108940002848B0604FF4A4794946204601E00CE085
:108950001BE0FFF7D6F805E04FF40070C4F8000202
:10896000801CB060C4F8208079E7A8786968C4F8F2
:108970003415C4F838054FF48050C4F8000240F2B2
:108980000220B0604FF0000BECE747464FF48275D1
:108990004FF492780BE041462046FFF7ADF830B136
:1089A00041462046FFF7ADF827626761A946494670
:1089B0002046FFF7A1F80028EDD0D4F8C404C4F88D
:1089C000C404002186F8241048B10321820701D590
:1089D00048F20121400701D548F202218A4650465B
:1089E00002E700000002040070B50C4605464FF493
:1089F0008E71FFF791F8A18AA068415CA08A401CA3
:108A0000A082C5F81C1570BD30B58FB00024054696
:108A100007949DF81C001C2120F00F00401C20F042
:108A2000F00010308DF81C009DF81D0020F00F00A4
:108A3000401C20F0F00010308DF81D009DF81E0045
:108A400020F00600801C8DF81E006846FAF7ADFC89
:108A50009DF80000019440F010008DF8000007A878
:108A6000CDE904400394069428788DF83A00032059
:108A7000ADF838000D949DF83400142120F00F005B
:108A8000401C20F0F00010308DF834009DF83500C7
:108A900020F00F00401C20F0F00010308DF8350061
:108AA0009DF8360020F00600801C20F0180040F0F1
:108AB00001008DF8360008A8FAF777FC0EA8089098
:108AC0000DA809900120ADF828001420ADF82A4027
:108AD000ADF82C0068882B1D08AA6946A2DF0FB0EC
