:020000040002F8
:10300000A85800204D350200553502005735020002
:10301000593502005B3502005D35020000000000FA
:103020000000000000000000000000005F3502000A
:1030300061350200000000006335020065350200C2
:10304000F138020067350200D13C0200673502000A
:103050006735020067350200193702006735020044
:1030600067350200673502006735020067350200E8
:1030700067350200673502006735020067350200D8
:1030800067350200493902006735020067350200E2
:10309000CD39020067350200D139020067350200E0
:1030A00067350200673502006735020067350200A8
:1030B00067350200673502000000000000000000D4
:1030C0006735020067350200673502006735020088
:1030D0006735020067350200673502000000000016
:1030E00000000000000000000000000000000000E0
:1030F00000000000000000000000000000000000D0
:1031000000000000000000000000000000000000BF
:1031100000000000000000000000000000000000AF
:10312000000000000000000000000000000000009F
:10313000000000000000000000000000000000008F
:10314000000000000000000000000000000000007F
:10315000000000000000000000000000000000006F
:10316000000000000000000000000000000000005F
:10317000000000000000000000000000000000004F
:10318000000000000000000000000000000000003F
:10319000000000000000000000000000000000002F
:1031A000000000000000000000000000000000001F
:1031B000000000000000000000000000000000000F
:1031C00000000000000000000000000000000000FF
:1031D00000000000000000000000000000000000EF
:1031E00000000000000000000000000000000000DF
:1031F00000000000000000000000000000000000CF
:10320000DFF80CD000F04AFA00480047C16F020016
:10321000A858002030B4044654E8000F0D4644E896
:103220000053002BF8D1156030BC704730B4044611
:1032300054E8000F40EA010544E80053002BF7D1A1
:10324000156030BC704730B4044654E8000F00EA03
:10325000010544E80053002BF7D1156030BC7047DE
:1032600030B4044654E8000F80EA010544E80053F6
:10327000002BF7D1156030BC704730B4044654E8D9
:10328000000F00EB010544E80053002BF7D1156057
:1032900030BC704730B4044654E8000FA0EB010581
:1032A00044E80053002BF7D1156030BC7047000094
:1032B00030B450E8012F93B2C48923448489A342D7
:1032C00028BF1B1B0489A34202BFBFF32F8F00201E
:1032D00007E0C3EA020340E80134002CE9D14FF0D3
:1032E00001000A6030BC704750E8012FC2EA024278
:1032F00040E801210029F7D1704730B450E8022F8F
:103300001FFAA2F3C488A34202BFBFF32F8F00208D
:103310000DE0C48923448489A34228BF1B1BC2EA51
:10332000034340E80234002CE8D14FF001000A606A
:1033300030BC704750E8022FC2EA224240E8022126
:103340000029F7D17047034653E8022FD988B2EB22
:10335000324F4FF0000017BF92B241EA014142EAFA
:10336000014104E05A68B2EB324F08BF012043E844
:103370000212002AE8D1704730B4044654E8000F26
:103380000D4644E80053002BF8D1156030BC70475F
:1033900030B4044654E8000F40EA010544E8005305
:1033A000002BF7D1156030BC704730B4044654E8A8
:1033B000000F00EA010544E80053002BF7D1156027
:1033C00030BC704730B4044654E8000F80EA010571
:1033D00044E80053002BF7D1156030BC704730B47F
:1033E000044654E8000F00EB010544E80053002BAD
:1033F000F7D1156030BC704730B4044654E8000F74
:10340000A0EB010544E80053002BF7D1156030BC58
:103410007047000030B4044654E8000F0D4644E8FD
:103420000053002BF8D1156030BC704730B404460F
:1034300054E8000F40EA010544E80053002BF7D19F
:10344000156030BC704730B4044654E8000F00EA01
:10345000010544E80053002BF7D1156030BC7047DC
:1034600030B4044654E8000F80EA010544E80053F4
:10347000002BF7D1156030BC704730B4044654E8D7
:10348000000F00EB010544E80053002BF7D1156055
:1034900030BC704730B4044654E8000FA0EB01057F
:1034A00044E80053002BF7D1156030BC7047000092
:1034B00030B4044654E8000F0D4644E80053002B96
:1034C000F8D1156030BC704730B4044654E8000FA2
:1034D00040EA010544E80053002BF7D1156030BCE9
:1034E000704730B4044654E8000F00EA010544E890
:1034F0000053002BF7D1156030BC704730B4044640
:1035000054E8000F80EA010544E80053002BF7D18E
:10351000156030BC704730B4044654E8000F00EB2F
:10352000010544E80053002BF7D1156030BC70470B
:1035300030B4044654E8000FA0EB010544E8005302
:10354000002BF7D1156030BC70470000064880475B
:1035500006480047FEE7FEE7FEE7FEE7FEE7FEE778
:10356000FEE7FEE7FEE7FEE7D53902000132020082
:103570002DE9F05F0546002092469B4688460646A8
:10358000814640241BE0284641464746224600F03B
:1035900075F853465A46C01A914110D31146184641
:1035A000224600F05CF82D1A67EB01084F462246D0
:1035B0000120002100F053F817EB00094E41201EB6
:1035C000A4F10104DFDC484631462A464346BDE803
:1035D000F09F000000487047CCC1020040EA0103A0
:1035E0009B0703D009E008C9121F08C0042AFAD2B9
:1035F00003E011F8013B00F8013B521EF9D270477D
:10360000D2B201E000F8012B491EFBD27047002224
:10361000F6E710B513460A4604461946FFF7F0FFD1
:10362000204610BD421C10F8011B0029FBD1801A56
:10363000704730B504460020034600E05B1C93420F
:1036400003D2E05CCD5C401BF8D030BD034611F8DE
:10365000012B00F8012B002AF9D118467047202AC7
:1036600004DB203A00FA02F1002070479140C2F1D9
:10367000200320FA03F3194390407047202A04DB0B
:10368000203A21FA02F00021704721FA02F3D040DB
:10369000C2F120029140084319467047064C074D7D
:1036A00006E0E06840F0010394E807009847103412
:1036B000AC42F6D3FFF7A8FD30C9020050C90200A2
:1036C00070B58C1810F8015B15F0070301D110F8E4
:1036D000013B2A1106D110F8012B03E010F8016B11
:1036E00001F8016B5B1EF9D12B0705D40023521E94
:1036F0000DD401F8013BFAE710F8013BCB1A921CFC
:1037000003E013F8015B01F8015B521EF9D5A142F9
:10371000D8D3002070BD00002DE9F04700268CB002
:10372000DFF86091B0464FF4807501243746069665
:10373000284604F03BFC38B1D9F80403204203D0FA
:10374000284604F029FC26432D1D64007F1CADB2E1
:10375000082FEDD34FF4BE74204604F027FC48B187
:10376000204604F019FC46F0004606AA012100207C
:1037700004F0FEFB444D16F0FF0F15D00127002486
:1037800037420DD009EB8401D1F81005D1F810159E
:10379000C0F3042055F82420C1F3014102B1904741
:1037A0007F00641C082CEBD3002E67DA4FF0FF304B
:1037B000CDE9088000263446281910F8507F90F98A
:1037C000000027F0C008401C44D009A9404603F07F
:1037D00077FE58B34FEA9719404601F05FFD55F860
:1037E00020701FB1B9F1030F03D00FE0B9F1030F3F
:1037F00030D108A84FEAD80208F00703815C4FF0E7
:10380000010C0CFA03FC41EA0C0181544FF0A04179
:1038100001EB8800D0F8000706A9C0F3014A404632
:1038200003F04EFE18B1BAF1020F03D012E0BAF164
:10383000030F0FD1B9F1030F08D1BAF1020F1BD05A
:103840000221404604F083FB761CF6B217B14946CC
:103850004046B847641C042CAED3002E0ED06A46F6
:103860000121002004F084FB06990098884205D0CD
:103870000690089809909DE70321E2E70CB0BDE8A7
:10388000F087000000600040AC2D002000F01F0217
:10389000012191404009800000F1E020C0F8801231
:1038A000704700F01F02012191404009800000F1A3
:1038B000E020C0F80011704700F01F020121914084
:1038C0004009800000F1E020C0F80012704749076D
:1038D000090E002806DA00F00F0000F1E02080F861
:1038E000141D704700F1E02080F8001470470000BC
:1038F0002DE9F0414FF48077384603F07CFF012436
:10390000104EA50748B1384603F07CFF0120C5F8EA
:1039100008037470002001F007FD4FF482773846E9
:1039200003F069FF00280BD0384603F06BFF02203C
:10393000C5F80803B470BDE8F041012001F0F4BC03
:10394000BDE8F081982D002007480021C0F8401103
:10395000C0F84411C0F84811C0F84C11C0F800116B
:10396000C0F8041107F08EBD0010014000F0BEB990
:1039700070B50E46144900EB400001EBC00514463B
:10398000E86A183520B101280FD0022805D113E0CC
:10399000284600F0DFF9A04201D2002411E02246BF
:1039A0003146284600F00EFA0BE0284600F0D2F926
:1039B000A042F4D20446F2E73146284600F0D5F999
:1039C0000446204670BD00001C36002007F0A8BC4D
:1039D00004F0C8BFF0B5AE480023021D01780125F0
:1039E000101D4FF0805406290BD11678360708D1E8
:1039F0000678C6F30316032E06D0042E04D0052E37
:103A000002D0062907D00EE0B4F82463A14FC6F314
:103A100004263E6002E01678360704D10678C6F325
:103A20000316032E02D0062904D00FE09B4F9A4EB6
:103A30007E670EE01678360708D10678C6F30316BF
:103A4000032E06D0042E04D0052E02D0062907D05E
:103A50000EE0D4F84462924FC6F342363E6002E074
:103A60001678360704D10678C6F30316032E02D063
:103A7000062906D011E08B4E376827F08077376033
:103A80000EE01678360708D10678C6F30316032E23
:103A900006D0042E04D0052E02D006290AD011E04B
:103AA0004FF08046C6F80C31C6F810317C4E361FF8
:103AB000336002E01678360704D10678C6F30316A1
:103AC000032E02D0062905D00CE0754F032664377B
:103AD0003E600AE01678360704D10678C6F303166E
:103AE000032E02D006290DD014E06F4F05263E604C
:103AF0006D4E783635606C4E083633603F263F1D7C
:103B00003E6002E01678360704D10678C6F3031645
:103B1000052E02D0062957D062E0644E3668644F05
:103B20003E60624E361D36683F1D3E605F4E083671
:103B300036683F1D3E605D4E0C3636683F1D3E6068
:103B40005A4E103636683F1D3E60584E1436366861
:103B50003F1D3E60554E18363668554F20373E6043
:103B6000524E1C3636683F1D3E60504E2036366839
:103B70003F1D3E604D4E243636683F1D3E604B4E25
:103B8000283636683F1D3E60484E2C3636683F1D4D
:103B90003E60464E30363668454F40373E60434EB5
:103BA000343636683F1D3E60404E383636683F1D1D
:103BB0003E603E4E3C3636683F1D3E603B4E4036D2
:103BC00036683F1D3E6002E01678360708D1067859
:103BD000C6F30316032E06D0042E04D0052E02D001
:103BE000062907D019E0D4F85812324A01F04F01E3
:103BF000116002E0117809070FD10078C0F30310BB
:103C0000032803D0042801D0052806D12A480168DA
:103C1000C90702D06FF001010160224874380168C1
:103C200041F470010160BFF34F8FBFF36F8F4FF00E
:103C30001021D1F80002002803DBD1F8040200288B
:103C400022DA1E4A15601E480468002CFCD0152498
:103C5000C1F800420568002DFCD0C1F8044201689B
:103C60000029FCD0136001680029FCD0BFF34F8FFE
:103C70000C48F0380168134A01F4E0611143016017
:103C8000BFF34F8F00BFFDE710490F480860F0BD3C
:103C9000E00F00F0403501400DF0ADBA00C0074024
:103CA0003C050040FCED00E010560040040400100C
:103CB00020C50040E40E00400004004004E501403F
:103CC00000E401400400FA050090D003EC24002039
:103CD0000448017F04480029024901D007F0B9BC1B
:103CE00007F028BC042E00200020004010B5124C24
:103CF00002202061606111A0A06104F17800E06100
:103D00004FF4007020620020A06260620BA1A164E9
:103D1000E06204F51E71E1641021A065C4E914108D
:103D2000E06509A1E01DFFF791FC08A12046FFF71F
:103D30008DFC2020A07110BD1C3600205465726DD2
:103D4000696E616C000000005254540053454747AF
:103D5000455200000269C1688A4203D88068401A4F
:103D6000104400E0501A401E70472DE9F047C46827
:103D70001746894606464FF000083069A04201D92F
:103D8000051B02E0B168201A0D1AB0686D1E001BF9
:103D9000A84200D80546BD4200D33D4670682A4679
:103DA00020444946FFF71AFCB0687F1B2C44A84406
:103DB000A944A04200D10024F460002FDDD1404688
:103DC000BDE8F0872DE9F04104468846D4E90207B2
:103DD000C51BE168606816460844B54206D94146ED
:103DE000FFF7FCFBB819E060BDE8F0812A464146C8
:103DF000FFF7F4FB761B08EB050132466068FFF71E
:103E0000EDFBE660F0E702E008C8121F08C1002AD7
:103E1000FAD170477047002001E001C1121F002A4B
:103E2000FBD170470121202803DA81400548014079
:103E300003E0402802DA2038814009B101207047B0
:103E400000207047FC06FFBD082806D228B10128D3
:103E500003D0042801D0012070470020704710B51E
:103E600060B159B102780B785208B2EB530F05D10B
:103E70000622401C491CFFF7DCFB08B1002010BDE6
:103E8000012010BD800701D000207047012070473D
:103E9000C3688B4206D811440069491E814201D88B
:103EA000012070470020704710B501220221002038
:103EB00001F05CF808B1072810D107220221012087
:103EC00001F054F808B1072808D100210A22084659
:103ED00001F04CF808B1072800D1002010BD000007
:103EE00000B5A9B0A0216846FFF791FB02208DF82C
:103EF000000001208DF802008DF87C0006214FF4AF
:103F000096708DF803102290002023900748269089
:103F10006946074800F02AFB08B100F0E7F80121E4
:103F2000034800F020FB29B000BD0000C18A020058
:103F30007C25002010B550B10A480321008801EB10
:103F4000004009A104F0FAF906F02EF903E003217C
:103F5000094800F0F3FB002803D0BDE8104000F052
:103F6000C5B810BD4C250020457261736520626F95
:103F70006E64732E000000007C25002070B58CB0AC
:103F800015460E4600236C46C3F10F01415CE15417
:103F90005B1C102BF8D30D2104F11000FFF737FB49
:103FA0000020C0F10F02315C2244401C1174032830
:103FB000F7D3684643DF0020C0F10F01214491F898
:103FC00020102954401C0328F6D30CB070BD0220E9
:103FD00000F032BF0149097900F0E2BC142400204E
:103FE00070B50024064D06E06868012110F8340021
:103FF00003F0ACFC641C28788442F5D3002070BD2B
:1040000034240020F8B515460C460646052A01D290
:104010000720F8BD03F080FD18B903F04FFD00281C
:10402000F7D1104900204E600C70C1E902500E4DCE
:1040300008610DE006EBC4006968009181788DF895
:1040400001100078094A694603F0D2FC0028E0D14B
:10405000641EE4B2EED2BDE8F840054A00210248F1
:1040600000F050B83424002020BF02000964020090
:10407000E155020004F024FA04F068F80028FBD1AE
:10408000104C0121208801EB00400FA104F056F9EB
:1040900010480068C00700D000BE2088022101EB54
:1040A00000400DA104F04AF9BFF34F8F0948E438EE
:1040B00001680D4A01F4E06111430160BFF34F8FC5
:1040C00000BFFDE74C250020466174616C206572DD
:1040D000726F7200F0ED00E053797374656D2072B9
:1040E00065736574000000000400FA050EB5002138
:1040F0000091CDE901106A4644F20100FFF7BAFFD2
:104100000EBD0000074B9B7823B12AB120B1006897
:10411000037C1BB10820704707207047417442613F
:1041200000207047442E002070B506F025FB104893
:1041300000240B21047044700E4D817014206C60BB
:104140002C706C70FFF7A2FB07211420FFF7BFFB58
:104150001420FFF7A6FB0848046007211120FFF791
:10416000B6FB0548001F0068A860002070BD000075
:10417000442E002048240020081501402DE9FC476A
:10418000DFF8789099F8023073B368B3052902D24A
:104190000720BDE8FC87436933B3437C012B25D05E
:1041A000002704460025884616468DF800506846CC
:1041B00000F038F801A807F03FFBC8B101210170F9
:1041C0000F4944600968C0E90218C0E904769DF807
:1041D000040089F801009DF8000000F047F8142061
:1041E000FFF76AFB2846D4E70820D2E70F46D8E756
:1041F00004259DF8000000F039F8F3E7442E002074
:10420000041501400649897839B130B1416921B1BD
:1042100000210174022107F011B908207047000045
:10422000442E002030B5EFF3108172B60D4A946829
:10423000012324B10370002900D162B630BD936020
:104240004FF0E023D3F88051074C25401560C3F8A8
:104250008041D3F8844154605A17C3F88421002266
:104260000270E8E7502F0020FC06FFBD0B498A686A
:10427000002A11D000280FD1EFF3108072B60B681E
:104280004FF0E022C2F800314B68C2F8043100223E
:104290008A60002800D162B670470000502F0020CD
:1042A0002DE9F047074600888EB0804600F03CFBC1
:1042B0000646404602F026FB824604462E4800256C
:1042C0002A460178404600F081FB002E50D07879D4
:1042D000400734D501254FF6FF7603AB2A46072168
:1042E000504605F001F8010004D0404606F0B4FC49
:1042F00000252BE0B1463146049802F057FA0646F5
:1043000048450FD004460146404602F0E5FA4046D3
:10431000FFF760FE30B9404606F078FC4046FFF7F4
:1043200059FE48B122460721504605F073F80100B6
:1043300003D0404606F090FC00254E4506D040468E
:1043400005F0D6F910B1504602F0C8FA02208DF8F7
:104350001800ADF81A807879400701D5012000E0F7
:1043600002208DF820008DF8215006A801F018FBDE
:104370000EB0BDE8F0870000142400202DE9FC47B2
:10438000002517880646158090F82D0014468946AA
:1043900030B13A462146484600F0BAFB050009D143
:1043A000B0784FF00C0A18B32088C846001DB842F8
:1043B00002D95046BDE8FC87684679DF0028F9D16C
:1043C0002088032108F8001020881921401C80B2A1
:1043D000208008F800102088401C80B2208000EB6C
:1043E0000801BDF8000007F0ACF9218808442080DE
:1043F000F0780222C8B1218896F9033001F1030C4C
:104400004846BC45D5D8425421884FF0010C491C80
:1044100089B2218000F801C02188491C89B221801D
:1044200009F801302088401C20807068B8B12188CC
:1044300090F9003001F1030C4846BC45B9D842540C
:1044400021880A22491C89B2218042542188491CB2
:1044500089B2218009F801302088401C20803089F1
:1044600050B1CDE900474B460622022106F1080073
:1044700007F0FAF905009DD1308A50B1CDE9004727
:104480004B460722032106F1100007F0EDF9050065
:1044900090D1308B50B1CDE900474B461522142105
:1044A00006F1180007F0E0F9050083D1306A30B159
:1044B0003B462246494600F0A1FF0500DBD1706A69
:1044C00030B13B462246494602F0A6FD0500D2D156
:1044D00096F82C0038B13B4622464946304606F055
:1044E0004DFC0500C7D1307838B13B4622464946DD
:1044F000304602F0A3FE0500BDD128465AE7F0B5CC
:104500000C4693B01F210726ADF80010ADF804103B
:10451000002750B1C17849070DD56A4602A9FFF7B7
:104520002DFF002808D102AD02E00025ADF8007093
:104530006CB1E07810B1304613B0F0BD01AA0AA901
:104540002046FFF71BFF0028F6D10AAA02E000224E
:10455000ADF80470BDF80400C3B2BDF80000C1B2EC
:10456000284672DFE8E780F82410704770B50D0028
:10457000044653D0F4B3012020700026E6702022B8
:1045800005F17801201DFFF729F884F82460D5F89B
:104590009800C4F8CC00D5F89C00C4F8D0004FF6C1
:1045A000FF70A4F8C800C4F82560A4F8296084F856
:1045B0002B6004F130003C210646FFF728F82878EC
:1045C00084F83000A87884F83200E87884F8330062
:1045D000687884F83100D5E90401C4E91001D5E90F
:1045E0000201C4E90E01D5E90601C4E9120195F8FA
:1045F0002D0000E012E084F85D00686AD8B104F193
:10460000780104F16C0061676065696A098801805E
:10461000686A616D80888880002008E00E2070BD87
:10462000696A22188968095C82F87810401C616DFB
:1046300089888142F4D8A86AE8B104F1A400C4F8DA
:10464000A0000C38A065A96A89888180A86AA16D3C
:1046500000880880002006E0A96A22188968095CA1
:1046600082F8A410401CA16D89888142F4D895F885
:104670002C0084F85C00286A48B104F1C40020656D
:10468000296A49884180286A216D00880880686805
:1046900000B1606305F13C013046BDE87040FFF7B2
:1046A0002EBF10B50288102A1AD0112A1FD01B2A3B
:1046B0001CD1007A0C46002818D1E0780521401C56
:1046C000B0FBF1F201FB1201204600F037F80028A0
:1046D0000CD0D4F8D010002908D0BDE8104008470D
:1046E000C27B012A02D18088A1F8C80010BD0C4607
:1046F000002184F8D4108088B4F8C8108842F5D11D
:1047000020790028F2D10121DEE710B50C460228FD
:1047100001D0032811D1607800280ED000206070ED
:10472000E178204600F00AF8002806D0D4F8D0102E
:10473000002902D0BDE81040084710BD2DE9FF4711
:10474000044600780F4638B1E770002003F024FBE0
:10475000012628B16670D2E0082004B0BDE8F087D9
:104760000025C4F82550A4F8295084F82B50A079CE
:1047700010B1E078012806D0E07970B1E078012826
:1047800001D0022809D1D4F8CC1021B184F82C60D2
:104790000820884701E084F82C5004F1260100200D
:1047A0000A5C0AB1304603E0401C0628F8D300201A
:1047B0004FF002084FF0030A4FF00409012F06D012
:1047C000022F09D0032F0CD0042F12D10DE0A179B4
:1047D00011B108B130460DE0E17911B108B14046A0
:1047E00008E0207A08B1504604E0607A08B14846F3
:1047F00000E02846E070D4F8CC1041B1032801D085
:10480000042804D1607910B194F8D400A8B184F8D8
:10481000D55000950295019503958DF800508DF8BF
:104820000850E17804F1250004F13002052958D23E
:10483000DFE801F0670A131F3B0084F8D65084F8C4
:10484000D56007208847E4E7A67001908DF80060E6
:10485000ADF80C50ADF80A5043E084F802800190A6
:104860008DF80060208AADF80C00A089ADF80A0030
:1048700037E0A08AADF80A00208BADF80C00607913
:1048800080B194F8D40068B994F8D60050B18DF88E
:10489000088084F8339000211046FFF730FE00BBFB
:1048A00005211AE084F802A01BE0A08BADF80A00F5
:1048B000208CADF80C00607988B194F8D40070B900
:1048C00094F8D60058B18DF8088084F83390002110
:1048D0001046FFF714FE20B90621A17001E084F80C
:1048E0000290E07830B194F82410684673DF002815
:1048F0007FF433AFD4F8CC1009B1A07888470020FA
:104900002BE7A570F6E7000002494A6C091D06F086
:104910003DB800006C27002002460248016D001DD2
:1049200006F021B86C27002070B50A4E0546002419
:104930002A46301D716C06F016F840B12A46301D2B
:10494000F16C06F010F808B1022400E001242046C2
:1049500070BD00006C27002010B50024204606F032
:104960005FFF28B1641CE4B2182CF7D3182010BDE7
:1049700003480122A240016811430160204610BD96
:104980006C27002010B5044606F04AFF002803D02B
:10499000024800EB8400806D10BD00006C270020F1
:1049A00070B505460C46084606F03AFF002809D0C7
:1049B00005482A4600EB8401001D896DBDE8704062
:1049C00005F0D1BF70BD00006C27002070B5064611
:1049D00015460C46084606F023FF00280AD0064874
:1049E0002B4600EB84013246BDE87040001D583173
:1049F00005F0F1BF70BD00006C27002070B540B11C
:104A00000C4D297839B1044605F090FE28B10020FC
:104A100070BD0E2070BD082070BDE868062807D262
:104A20000549226801EB8001401C0A60E860EEE75E
:104A3000042070BDC82300202428002040B105496F
:104A400000220123CA600B70C1E9010210467047C1
:104A50000E207047C823002070B504002DD0002917
:104A60002BD020480078002827D020880D46112818
:104A700015D0302804D0322807D033281ED109E0C1
:104A8000211D284604F0DCF918E0211D284604F019
:104A90004DF813E0211D284604F020F90EE0A0880F
:104AA000B5F8CA12884209D1002085F8C70285F8F6
:104AB000C8024FF6FF70A5F8CA0270BD95F8C8028B
:104AC0000028FAD020883028F7D34F28F5D8A088BE
:104AD000B5F8CA128842F0D12846BDE8704000F00F
:104AE00015BE0000C823002048B1084A137843B11E
:104AF000D26832B190F8C7222AB1112070470E2037
:104B000070470820704700F001BE0000C823002055
:104B10007CB5054608880C460930904201D90C2026
:104B20007CBD68466DDF0028FAD1218808206854D2
:104B300020881B21401C80B2208029542088401CE2
:104B400080B220802844DDF801100160BDF8051016
:104B500081802088801D80B220809DF80010490847
:104B600000D0012129542088401C208000207CBDD9
:104B700010B5018888B03B2919D012DC012941D039
:104B8000344A03231029128803EB024217D011295B
:104B90001DD0212924D100210091808869468FDF12
:104BA00053E0512932D052291CD0562918D13B2923
:104BB00024D0562914D18088132176DF17E01046BF
:104BC00025A103F0BBFB072000F0F2F90FE008B0CD
:104BD0001046BDE8104023A103F0B0BBFFF786FAF2
:104BE00008B010BD002380881A461946A9DF0028A6
:104BF000F6D008B0BDE81040FFF778BA80881321DE
:104C000076DFF4E78088002166DFF0E70446811D47
:104C1000102204A8FEF7E2FC9DF810100029DFD056
:104C20009DF81800042803D0062801D00528D7D104
:104C300002290DD05FF001008DF800004FF4C17023
:104C4000ADF80400A0886946A8DF0028C6D1C7E7F0
:104C50000220F1E74C250020436F6E6E656374659A
:104C6000642E0000446973636F6E6E6563746564DF
:104C70002E00000010B51A4C0188606810290ED073
:104C800011292BD1401E606028D1FFF70DF90028B3
:104C900024D02168002921D0BDE810400847D0B9B0
:104CA00000210122084600F061F908B107280FD160
:104CB00007220221012000F059F908B1072807D185
:104CC00004220221002000F051F920B1072802D06F
:104CD000216801B188476068401C606010BD000019
:104CE000C02300202DE9F047044603883F480122F5
:104CF000A4B000F1480A102B09D0112B54D01A2B64
:104D000070D1217AB2EB111F53D2012352E0D0E9C6
:104D100011218A430546011D12A805F037FE4422E1
:104D200012A901A8FEF75AFCDFF8C090002637460A
:104D300009F144090DF104080AE000BF08EB460040
:104D40001D2283884946281D009705F0D1FD761C59
:104D50000198B042F2D8686CA688C04305F0EAFD1D
:104D6000A0F57F41FF3917D005EB40000123868075
:104D700032465146281D05F02EFE01233246494693
:104D8000281D05F028FEE07B02280BD000231749E0
:104D9000A2884C31281D20E024B00420BDE8F04753
:104DA000FFF7A4B90123F2E70023A2885146001DB2
:104DB00013E000230D490546A2885031001D05F07F
:104DC0000AFE207A0221B1EB101F01D2012300E07C
:104DD00000230649A2885431281D24B0BDE8F047BD
:104DE00005F0F9BD24B0BDE8F08700006C27002075
:104DF00010B504460748007800280AD0204601F084
:104E00005BFC204605F0FEFF2046BDE8104001F0A7
:104E1000D5B910BD042400200649095C4FF0A0401C
:104E2000D0F81005C84010F0010000D0012080F03B
:104E30000100704748BD020007490B5C4FF0A041DC
:104E4000D1F804250120984020EA0203C1F8083572
:104E50001040C1F80C05704744BD02000649095CCA
:104E60004FF0A040D0F80405C84010F0010000D079
:104E7000012080F00100704744BD020010B50246D9
:104E8000064B4FF0FF3000215C5C944201D1084694
:104E900010BD491C0429F7D310BD000048BD020015
:104EA00070B50C4E0C004FF0000530600BD00120A7
:104EB00000F05AF808B1022004E0002000F054F895
:104EC00000B10B202070706810B9FEF7EDFF0546A9
:104ED000284670BDC02300202DE9F0470D468146CD
:104EE000FFF7CCFF0446042836D2DFF874801B4855
:104EF0001C4EA8F10C0725B3012D0ED0022D2BD18D
:104F000004EB440030444578002D25D0B9680029D1
:104F100022D02846BDE8F047084704EB4401755C01
:104F20000E44717849B10E4A4FF40041093A806845
:104F3000FFF724F908B987F80390B17808F804104E
:104F4000E2E78068FFF75EF904EB4401314418F8AA
:104F500004008D78A842D7D0BDE8F0874CBD020090
:104F6000BC23002040270020FFF756BF70B5002368
:104F7000042810D20D4D00EB4004012A02D1012972
:104F80000CD00022094E00EB4000304461B10129F1
:104F900006D0022906D00723184670BD0E30C2B2D3
:104FA0002A55F9E74270F7E78270F5E740270020BD
:104FB000044A014600201279D20702D0084600F0C8
:104FC00045B87047B02300201B4A10B5C2E9010163
:104FD000800721D50024012211462046FFF7C6FF95
:104FE000641C042C02D20028F5D010BD0028FCD18E
:104FF00040F2666204211148FFF704F80028F4D15A
:10500000FEF7EEFF0028F0D10C480D4A0021001FEA
:10501000FFF778F80028E8D108480A4A00210C3840
:10502000FFF770F80028E0D104480121BDE81040E6
:10503000054A0838FFF766B8B023002058BD0200C3
:10504000315202009D6B0200CF3F02002DE9F05F5C
:105050004F4C054600266078B34618B184F801B07D
:1050600001F090FD4B4F4FF47A694FF4C87A4FF03E
:105070000108182D23D2DFE805F0870C0C23383EF9
:10508000454A4C554C554A5E5E5E5E5E8787878713
:105090004A4A0020FFF7E2FE30B1022D02D14FF460
:1050A000E16014E0484612E0022D01D1C8200EE074
:1050B00050460CE000223868FFF760F8064660E0D2
:1050C0000020FFF7CBFE0028F0D04FF44870410CD1
:1050D000C0034FF4FA72801841F1000125705200AC
:1050E0000023FEF745FA0146E4E70020FFF7B6FE8D
:1050F0000028DDD0D6E70020FFF7B0FE257041F68E
:105100009A11D7E70020FFF797FE257006E025707B
:1051100037E084F801800120FFF78EFE002240F680
:10512000CD41C8E784F801800120FFF785FE002209
:105130004FF48041BFE77868FFF764F80646D5F181
:10514000110000D016B184F802B01AE0012816D977
:1051500080B2C8214843C117C90341EA5041C00386
:105160004FF4FA72801841F1000152000023FEF75B
:10517000FFF9014600227868FFF700F8064684F838
:1051800002803046BDE8F09F01F0FCFCBFE7000064
:10519000B02300204CBD0200F8B5871C00208DF81C
:1051A00000000E4601256846FFF73CF8124C2068C7
:1051B0003060D4E90001401AA168091ABE1C06E05B
:1051C00001F0B4FED4E90001401AA168091A491C93
:1051D0008E42F5D8A1682068084004EB8000C168C1
:1051E00041F00301C1602068384420609DF8000050
:1051F000FFF73CF82846F8BDFC31002030B4826847
:105200000468531C8360A154D0E901128A4202D37E
:1052100030BC02F098BC30BC70470000034803C8A3
:10522000814201D10120704700207047FC310020ED
:1052300000780221FFF750BE05494FF0FF320828E1
:1052400041F8202002D3084480F84820704700002D
:10525000AC2D0020F0B54FF0FF3512B10023082629
:1052600001E008230C260C4C05E000BF54F8237025
:105270007F1C04D05B1CB342F8D32846F0BD26182F
:105280005DB286F8305044F82310002AF5D1E118B9
:1052900081F84800F1E70000AC2D002002490844E5
:1052A00090F9300070470000AC2D002008B5024690
:1052B00090F8C6020B4600EB8001C1EB801002EBB8
:1052C000400092F8C52242B1521ED2B202EBC20196
:1052D00000EB4102518A491C00E0C188ADF8001082
:1052E0000089ADF802006946184696DF08BD70B522
:1052F00004464FF6FF750A462846AC4208D14FF4E3
:1053000080742146104604F09FFDA04209D070BD74
:10531000FF2CFCD82146104604F089FD08B1204638
:1053200070BD284670BD000070B5084C050009D05E
:1053300010342168002907D0086820604968284691
:105340008847F6E70834F4E770BD0000982D002088
:105350002DE9F05F26484168F1B3DFF898B00E6898
:105360008146DBF8004087688078E11B21F07F45AB
:10537000ED1CB0B9DFF880804FF48030C8F84403EA
:10538000C8F804031120FEF781FA1120FEF789FA0C
:105390004FF0010AC8F800A02F2002F03BFA89F86C
:1053A00002A0B54200D23546124BE8193C3320F03A
:1053B0007F401860DBF800105A46091B21F07F413E
:1053C000001B20F07F40C91C81420FD91068186073
:1053D0002F2002F01FFA00E004E0BDE8F05F11208A
:1053E000FEF76ABABDE8F05F05F0C6B9BDE8F09F08
:1053F0004824002004150140001001402DE9F0412F
:1054000017880646B81D14460D46984202D90C204E
:10541000BDE8F0813188072206290AD34FF4486C91
:105420004FF6FF73614501D9994202D17088062871
:1054300001D21046ECE7604501D99842F9D1994272
:1054400003D0984201D08142F3D80520E855208846
:105450001221401C80B2208029542088401C80B238
:1054600020804119308806F06CF92188084480B208
:1054700020804119708806F064F921880844208052
:105480000020C5E7F0B585B016460F4604461D4618
:1054900014220B496846FEF7A1F80A488DF80870F7
:1054A000ADF80240ADF80A608DF80C50017800228A
:1054B0002046FFF78BFA684600F072FA05B0F0BD9F
:1054C000E0BE0200142400200146014802F056B953
:1054D000E02600207FB50C4610B1012004B070BD5D
:1054E0002079002638B141F61D5501281BD002282D
:1054F00026D00F20F2E70220207102960396E06882
:105500000190694601A805F077F850B102988188AA
:10551000E18000882081BDF80010029805F0EAF8CB
:10552000DCE70A20DAE70A4B6A460021A01D05F0F5
:105530001FF838B1064918398E61CE610A28CDD1DD
:105540002846CBE702488188019805F0D3F8F5E7B3
:10555000742400202DE9F843054690F8C6020F4652
:1055600000EB8001C1EB801005EB400695F8C542C9
:10557000914604EBC40006EB40013279601C0A310D
:10558000904226D16B460022284601F0C5FA18B396
:1055900010E0401EA04201D1002004E004EBC40052
:1055A00006EB40001C30804602466B46284601F060
:1055B000B3FA30B1002038706946484697DFBDE83D
:1055C000F88395F8C5024146401C641C85F8C50265
:1055D000E4B23079A042DCD8012038700020EEE738
:1055E0002DE9F04100260125144C22E06068226973
:1055F00000EBC607387805FA00F1114217D08A434C
:10560000226102F051FA02463878E36805FA00F1A7
:10561000194002FA00F3994209D17978012901D0A1
:10562000012100E0002151407A6802B19047761CC8
:10563000F6B220788642D9D3BDE8F0813424002028
:105640002DE9F047894690F8C612904601EB810299
:10565000C2EB811100EB4107384605F067F8060000
:105660002FD0194CA06806282BD2184D762205EBB6
:10567000C0103946A0F80280001DFDF7AFFF0027DB
:10568000B9F1000F04D0A06805EBC010077004E06A
:10569000A168022005EBC1110870A06805EBC011DC
:1056A000401CCE67A060E16888420AD1002604E071
:1056B00005EBC610C16F8847761CE0688642F7D3B9
:1056C000A760BDE8F0870000C82300203C28002028
:1056D00070B50E4690F8C612154601EB8102C2EB7A
:1056E0008111A0B000EB410005F020F8040009D0C2
:1056F0007C2205496846FDF771FFADF80250684607
:105700000196A04720B070BD78BD020070B50E466E
:1057100004464FF43371FDF77AFF11480025A4F8D1
:10572000CA62856084F8C9520E4884F8C65284F86B
:10573000C5520068206022460121304694DF0121D5
:10574000112806D0002809D184F8C71284F8C8525D
:1057500003E084F8C71284F8C812002070BD00006E
:10576000C8230020242800200E4910B50A784C7860
:105770000023A24212D0521CD2B20A70022A00D1D7
:105780000B70084A0B780C3252F8232002608868AC
:10579000104420F07F408860012010BD036000208D
:1057A00010BD00004824002013460A460021FFF7E0
:1057B00069BE00002DE9F843104D0F4680461E4695
:1057C00091466946286801F0F0FD040014D01C21C0
:1057D000FDF71DFF01202071C4F81490380BC4F8A8
:1057E0000080C4E902606946286801F0FFFD04F00A
:1057F0005BFE0020BDE8F8830420FBE750BF0200F9
:1058000010B503780022072B06D2DFE803F0050469
:105810000610202930000A7010BD01230B70038987
:105820008B818388CB81C06888600A7410BD022296
:105830000A7002898A818288CA81C2688A60807DF2
:10584000062802D00020087410BD0120FBE70322C7
:105850000A70C2888A810289CA81C068886010BDC6
:1058600004230B70C0888881CA818A6010BD05201E
:10587000087010BD70B5064D0646002455F824107A
:1058800009B130468847641C042CF7D370BD000072
:10589000682F002030B50446006885B00D4680684A
:1058A00000281CD014216846FDF7B1FE0195A068C0
:1058B0000490207910B101280DD104E001208DF869
:1058C0000000206904E002208DF80000E068000379
:1058D000029060690390206881686846884705B037
:1058E00030BD70B586B015460C00064619D0112C97
:1058F00017D0082C15D014216846FDF788FEADF8A6
:105900000260304600F0FEFFADF804000D2C0AD016
:10591000862C1CD007208DF800000294684600F009
:105920004DF806B070BD03208DF8000025B1287831
:10593000C00701D0012000E002208DF808000020FF
:105940008DF80C0041F20110ADF80A00E6E70620E0
:105950008DF80000E2E7000010B50446408800F032
:10596000D1FFA080024801682046BDE810400847EA
:10597000E02300202DE9F04107460024064E074DA4
:1059800005E000BF56F8241038468847641CE878C4
:105990008442F7DBBDE8F0814C2D00200424002078
:1059A00010B50446408800F0ADFFA08002480168B1
:1059B0002046BDE810400847B4BE0200014909680E
:1059C0000847000008BF02007047000070B586B0AD
:1059D000044614216846FDF71AFEA0890026A0F5AA
:1059E0004040ADF8040020782D4D062835D2DFE880
:1059F00000F0340303032E4EA08900F0C7F9012103
:105A000030B9E08943F6FE72A0F54040904224D8B8
:105A1000A07B8DF808002078032810D05FF00000EC
:105A20008DF80900A0680390606850B109208DF8D6
:105A3000000060680490684603F034FD0DE001202A
:105A4000EEE708208DF800008DF81010F3E7A0892C
:105A500000F09CF908B1E08938B16878002802D0DC
:105A60006E7003F04FFE06B070BD606838B10B2059
:105A70008DF800006E70AE7003F044FEDBE70A2084
:105A80008DF80000BDF8040003F0CCFEF2E713200F
:105A90008DF800004FF6FF70ADF80400CBE7000072
:105AA000F023002038B504460E480078A8B1A4F5CC
:105AB0007F40FF380FD0684604F030FC78B10521F4
:105AC000017001210171C480684604F035FC04F0C6
:105AD000DBFC002038BD042038BD022038BD082082
:105AE00038BD00007C2400200C4808B5007888B13F
:105AF000684604F013FC78B106210170684604F092
:105B00001BFC0748017809B10121017304F0BCFCBA
:105B1000002008BD022008BD082008BD7C2400200C
:105B20002C300020F0B589B014216846FDF76FFDD8
:105B30002C4C207818B16846FFF79CFE50E0201DE1
:105B4000012105AAFDF772FBB8BB4FF01020416997
:105B50000004026940694B1C01D100FB02F122489C
:105B600000220161A1F54051C160204902F00BF90A
:105B7000002820D11F481C238C221D49006801F0F9
:105B800001FC03F043FA050014D0022D12D00027C7
:105B90000126062D12D006A804F0C0FB88B10670BD
:105BA0000C2D18D2DFE805F0170F170F1716171670
:105BB000171113110B2009B0F0BD11E026706760BA
:105BC000B9E70820F7E7077105E0032100E00221AB
:105BD000017100E0067106A804F0AEFB04F054FC6D
:105BE0000020E8E77C240020F024002060BF0200B1
:105BF000782F002028BF020038B5040014D0694671
:105C000004F0FAFCA0B1BDF8000000EB80010948E7
:105C100000EB8100C16849B1A17A39B1C168491E60
:105C2000C1600020A07238BD052038BD062038BDF7
:105C30000A2038BD043000201FB501A9684604F0D1
:105C400097FC04B010BD07B513460A46694600200C
:105C500004F08EFC0EBD07B513460A4600216846C7
:105C600004F086FC0EBD20B119B100680860002068
:105C700070470520704700007CB50D46040019D020
:105C8000C5B1694604F0B8FCB0B1BDF800000B49DD
:105C900000EB800001EB8000012101AA0C30666856
:105CA000FDF7EBFA2E6060680C3068600120A0728E
:105CB00000207CBD05207CBD0A207CBD0430002076
:105CC00018B10323002205F015BF052070470223F9
:105CD000002205F00FBF12B1022305F00BBF052013
:105CE00070470000094908B50A69042A0BD0084A20
:105CF000096942F821000548012110306A46FDF784
:105D0000BCFA002008BD0C2008BD00005C24002067
:105D1000682F002038B5044609480D46007858B170
:105D200064B16946284605F0DFFF002803D1BDF8BD
:105D300000102180658038BD022038BD052038BDA7
:105D40007C24002010B504460E48007898B1A4B118
:105D50002188022913D80C4A01EB810002EB800252
:105D600060885289C31C934209D805F0B1FF002016
:105D70002080608010BD022010BD052010BD0420D1
:105D800010BD00007C2400200430002043F6FE718A
:105D9000A0F54040884201D801207047002070479C
:105DA00010B504460078182802D1FEF7D5FD207002
:105DB00010BD10B504460078182802D1FEF7CCFDBE
:105DC000207010BD70B51346002206461546862980
:105DD00002D0112902D002E0012200E001250D4C81
:105DE00073B1A179FEF7F2FD2A4661793046FEF7DC
:105DF000EDFD0022A1783046FEF7E8FD002203E029
:105E0000A178FEF7E3FD2A4661783046BDE8704090
:105E1000FEF7DCBD1C240020406804F095BA0000A9
:105E200070B5394D044642882888032686B006EBB3
:105E3000004036A102F086FA207800281CD0012804
:105E400054D0022857D003284ED128883DA106EB14
:105E5000004002F073FA2888A28806EB004043A1B4
:105E600002F070FAE288288806B006EB0040BDE830
:105E7000704045A102F066BA2888494906EB004007
:105E800002F05CFA122204F10E016846FDF7A6FB4F
:105E900061886A46434801F0F7FB08B1FEF726F92E
:105EA000608805A904F012F908B1FEF71FF93D4812
:105EB0007622211D8C38FDF791FB3A490023782288
:105EC0008C39BDF8140004F0C6F8862801D1FFF71C
:105ED0000BFE08B1FEF70AF90121324801F0AEFBD2
:105EE000002801D0FEF702F906B070BD28882E49BF
:105EF00006EB004003E028882CA106EB004006B02A
:105F0000BDE8704002F01ABA4C25002047415454B5
:105F100053205365727669636520636C69656E749E
:105F200020646973636F6E6E656374656420636F6C
:105F30006E6E656374696F6E2068616E646C652057
:105F400025692E0053657276696365204368616E2A
:105F500067656420696E6469636174696F6E20723D
:105F6000656365697665642E0000000048616E64B3
:105F70006C652072616E67652073746172743A207B
:105F8000253034780000000048616E646C65207232
:105F9000616E676520656E643A20253034780000B4
:105FA00024C20200E026002068C202004741545487
:105FB00053205365727669636520636C69656E74FE
:105FC00020646973636F6E6E6563746564000000BE
:105FD0004089002800D001207047000070B508B14A
:105FE000012070BD194C0025207B08B1257301E00C
:105FF00000F0A0F82078082826D2DFE800F0250479
:10600000080C10251420BDE8704000F021B8BDE850
:10601000704000F07DB8BDE8704000F05FB8BDE8AA
:10602000704000F03BB86088084900EB80002839D8
:1060300001EB80004068BDE8704002F0C7BF6560BA
:10604000BDE8704002F0D0BF0F2070BD2C300020A2
:106050001149F0B48A1C00200346A1F128050C1850
:10606000A67A4EB1A37200EB800405EB8404E668C7
:1060700016B9247C012C0AD0401C80B20228EED331
:106080000B704B804B60F0BC41F61D507047108088
:10609000F0BC00F03DB800002C3000200C484188D6
:1060A00001EB8102A0F1280101EB8201CA6852B123
:1060B0000521017007480221818001680023012227
:1060C000054801F039BE042202704968F6E7000075
:1060D0002C30002084240020F024002038B50A4908
:1060E000084803240B684268898803EB81015388C0
:1060F0000470DB1C00201B0400909B0B034801F084
:10610000E1FE38BD2C30002084240020F024002043
:10611000074910B54888091D04F0BEFA18B1BDE85A
:106120001040FFF7DBBFBDE81040FFF7B7BF00002E
:106130002C300020F0B51F481F49012506780224A5
:106140008B88A0F12802082E19D2DFE806F0041887
:10615000181B222F2F170189491C01810021418022
:1061600080F80C1001EB810312F8233043B10023B7
:106170004418491C89B2A3720229F3D30570F0BDFB
:106180000123F5E742685288D21C1A448A800470C1
:10619000F0BD46880D6806EB860602EB860256685F
:1061A0000E60556013818C80062100E0072101708C
:1061B000F0BD00002C3000208424002030B5018880
:1061C0008588224C85B0502924D0522902D05429E8
:1061D00032D103E0284600F053FE2DE014221C4982
:1061E0006846FDF7FBF9ADF80250284600F08AFB3F
:1061F000ADF8040000F034F9002261792846FEF77A
:10620000E5FB002221792846FEF7E0FB6846FFF710
:10621000A3FB11E0017B01290ED1817A01290BD169
:106220000089A0F52451023906D10121284600F049
:106230005BFEA07803F096FBE07803F093FB2079F7
:1062400005B0BDE8304003F08DBB0000D82300202E
:1062500030BE020010B50446007800280FD16088D7
:1062600000F00EFE608800F0A3F9002807D0044972
:10627000608801220979BDE81040FEF7A7BB10BD78
:10628000D823002010B5124C00202070FEF764FBCC
:10629000A070FEF761FBE070FEF75EFB2071FEF779
:1062A0005BFB6071A17818290FD0E17818290CD018
:1062B0002179182909D0182807D00121601C03F082
:1062C000AFFD01202070002010BD032010BD000094
:1062D000D82300202DE9F04192B000F0D9F86846AB
:1062E000FEF712FB00246E460D4D4FF6FF780DE0D1
:1062F00006EB4407B88800F005FB404504D1B88898
:1063000001222979FEF762FB641CA4B20098A04226
:10631000EED8287903F026FB12B0BDE8F08100002A
:10632000D82300207CB5044600781C4D08282FD1C6
:10633000607A38BB207A4FF6FF7601280DD0072807
:1063400002D0082824D11EE0A08800F019FAB0423B
:106350001ED0012100F0C8FD1AE0A0886A46012184
:1063600002F098FF70B90198007858B1A08800F049
:1063700007FAB0420CD001222979FEF727FB2879D1
:1063800003F0F0FA04E005480021401C03F083FD0F
:10639000A878BDE87C4003F0E5BA0000D8230020CF
:1063A00010B504460A4841782046FEF7F9FA68B16C
:1063B0000848002101EB410200EB82025288A24210
:1063C00001D1C8B210BD491C1429F3D3FF2010BD60
:1063D000EA2300203C2B002070B5094D094E002413
:1063E00004EB440005EB800071784088FEF7D8FA92
:1063F00020B1641C142CF3D3FF2070BDE0B270BD3B
:106400003C2B0020EA2300202DE9F041124E0746E4
:106410000125BD403068FDF7F5FE00280DD10F4C79
:106420002069284207D1384601F03EFB0028E06889
:1064300005D0284304E0A8432061BDE8F081A843CB
:10644000E060206928432061A1683068BDE8F04120
:106450000022FDF793BE000020BF0200342400207C
:106460001CB5054AD2E90212CDE9001200226946A4
:1064700002F035FF1CBD000048BE020003484FF685
:10648000FF7181800121017000207047E42300200A
:1064900010B54FF6FF7002F0B5FE03498880BDE8E5
:1064A000104004F003BC0000E42300202DE9FC416F
:1064B000804600F027FA002403250127A0F57F413C
:1064C0002646FF3908D06A46082102F0E3FE18B9D3
:1064D0000198841D8688056832462B462146404631
:1064E000A9DF042804D0082804D00B2808D002E033
:1064F000112000E00020002F00D10B20BDE8FC811E
:106500000027A80701D50125E6E73443F5D000248C
:1065100026460325E0E72DE9FC41804600F0F2F92C
:106520000646A0F57F40FF380ED001252A466D1C97
:106530000027ADB26B460821304602F0D5FE0400BC
:1065400006D0072C25D025E043F20200BDE8FC81EF
:10655000019903230A1D0B604046891DAADF040030
:1065600004D00C2C09D0052C09D009E032460821B2
:10657000104602F04FFF04460CE0012700E0002423
:106580000821304602F032FF00B10324002FCDD1A4
:1065900000E00C242046D9E704488088A0F57F411C
:1065A000FF3901D004F082BB70470000E4230020D3
:1065B0000EB502A9019100F0A5F96A46012102F089
:1065C00069FE08B100200EBD019800780EBD0000E4
:1065D0002DE9F04107464FF6FF760A48ABDF10B1D0
:1065E0000320BDE8F081074C43F20305A41E3246A8
:1065F00061883846A7DFA842F3D16088401C6080DC
:10660000F5E70000E6230020428800EB82020C320E
:106610008A4201D9022070478188A1F57F42FF3A62
:1066200003D0008808B100207047012070478842DD
:1066300004D20068401C01D0012070470020704740
:106640003EB5027802230C46B3EB520F17D1B0F8D7
:106650000110ADF80010C1788DF802108188ADF8F6
:10666000041080798DF8060002AA01A92046FDF7E2
:1066700085FC032202A96846FCF7DBFF08B1002075
:106680003EBD01203EBD000010B50C46FFF788FE60
:10669000FF280CD0074900EB400001EB8000416867
:1066A00021600189A180807AA071002010BD0520A1
:1066B00010BD00003C2B002070B5018892B010295D
:1066C00059D1011D34226846FCF788FF9DF804006B
:1066D0004FF6FF76032134466D46B1EB500F2AD0BA
:1066E00002F04EFF9DF8040040080ED001280CD0A7
:1066F000022820D118E00F99281D1131FDF7AFFBBA
:1067000018B100BFBDF8344015E00EAA0DA907204E
:1067100002F00AFF0028EED10DE00F99281D491C58
:10672000FFF78EFF0028EDD10EAA0DA9072002F079
:10673000FBFE0028F1D1BDF80000291D00F0CCFDC2
:10674000B44218D0BDF80000214600F0C5F8BDF8ED
:106750000000ADF836000020ADF83840074E8DF847
:1067600034000DAD044600BF56F824102846884773
:10677000641C022CF8D312B070BD00005CBE020095
:10678000094A002101EB410332F82330834205D14D
:1067900001EB410002EB800040887047491C14293E
:1067A000F0D34FF6FF7070473C2B00203EB50C46EF
:1067B000054602F0E5FE0BE0BDF80000A04207D060
:1067C0002846029900F02EF810B1BDF800003EBD39
:1067D00001AA6946072002F0A7FE0028ECD14FF677
:1067E000FF703EBD10B50D4C18200D4A60700020A2
:1067F0004FF6FF7100EB400302EB8303401C59800E
:106800001428F7D3FEF7A8F86070182803D00120E9
:106810002070002010BD032010BD0000EA230020DE
:106820003C2B00202DE9F0410C46054600F11107F4
:1068300001F111061022491C401CFCF7FAFE48B970
:10684000681C00F08FF928B1601C00F08BF908B1CA
:10685000012400E0002431463846FDF700FB3B7878
:106860000222B2EB530F0CD00321B1EB530F08D02F
:106870003378B2EB530F04D0B1EB530F01D00121A9
:1068800000E00021084201D18C4302D00120BDE884
:10689000F0810020FBE7018811B9421892780AB113
:1068A00001207047491C0829F7D30020704710B514
:1068B0000C460346FFF7EFFF00280AD0188821880E
:1068C000884205D10822A11C981CFCF7B2FE08B131
:1068D000002010BD012010BD02F0F8BF70B50446C5
:1068E000FFF74EFF0546204602F0D7FC4FF6FF713A
:1068F00004468D4203D014B9284602F0E7FF204633
:1069000070BD000010B5FFF74BFDFF2805D004490E
:1069100000EB400031F8200010BD4FF6FF7010BDB5
:106920003C2B00203EB5044602F02AFE0EE0019901
:1069300020464631FFF7BBFF28B9019920462A318E
:10694000FFF7B5FF10B1BDF808003EBD6A4602A9C9
:10695000072002F0E9FD0028E9D14FF6FF703EBDA7
:1069600038B504460A4801216A46FCF711FD68B9AA
:106970000848606002F008F805491C238C2208745E
:1069800004488C39001F006800F0FCFC002038BD72
:10699000D830002054BF02002DE9F0412D4F0025D2
:1069A00018B17D600120BDE8F0810879012258B15D
:1069B000294E01280CD0274C4FF002080834022839
:1069C00021D0032842D128E00A7102F00DFB3BE000
:1069D0005FF0000000EB800116F82110022908D0BA
:1069E000401C80B20228F5D33A707D6041F61D50FC
:1069F000D9E700EB800006F8205006EB80004068E5
:106A000002F0E4FA20E00D71A4F8048000230122D2
:106A10001248216801F090F916E00D71206802F02B
:106A2000D5FA0D4923682831498801EB810206EB2C
:106A30008201D1F804C0C4F800C04B60A3880B8168
:106A4000A4F8048006F822500028ACD07D600E2007
:106A5000A9E700007C24002004300020F02400205E
:106A60002DE9FC5F0E008346DDE90C47C6F100000E
:106A700098469246814600D40846012503E000BFAF
:106A800090FBFAF06D1C5045FADAA84500D945464E
:106A900024B1002E01DB780700D5641EB80702D5AB
:106AA000B8F1000F0AD0F80708D13CB1A54205D2D1
:106AB00020215846641EFEF7A1FBF6E7002E02DAFD
:106AC0004E462D2102E0780703D52B215846FEF7CC
:106AD00095FB07F0030002280BD1B8F1000F08D195
:106AE0003CB1A54205D230215846641EFEF786FB14
:106AF000F6E7CDE90047434652463146584604F092
:106B000035FEBDE8FC9F00000248007A002800D056
:106B100001207047D830002010B509892AB1D088EB
:106B2000491C814218D1002010BD90F8C62202EB0A
:106B30008204C4EB821200EB420212899142F2D02D
:106B4000491C198090F8C61201EB8102C2EB811139
:106B500000EB4100008902E01980D088401E588077
:106B6000012010BD0021425C0AB101207047491C80
:106B70001029F8D300207047800701D0002070470B
:106B80000120704704488078002803D00220401C70
:106B90000428FCD370470000B0230020034801798B
:106BA000C90702D00078FEF751BA7047B023002021
:106BB00006490120086006480168C1F30041002928
:106BC000FAD1044900208870704700000C00004092
:106BD00018040040982D00201721018041800021D9
:106BE000017141711B218171C17170472DE9FE4F07
:106BF0002A4D984691460F00824601D000260DE0AE
:106C0000684600F095FB6A460021504602F0B1FA52
:106C10002878009E10B99DF8090098B14A4631467F
:106C2000504604F03BFA0446014600225046FFF766
:106C3000C9F8112C1AD008DC74B3082C2CD00D2CF8
:106C400009D129E00520BDE8FE8F862C1AD0A4F5D5
:106C50004050023820D00325B8F1000F04D032464E
:106C600021465046FEF73DFE2846ECE73A46297994
:106C70005046FDF7ABFE4A46E9785046FDF7A6FEC2
:106C80000025E9E73A4629795046FDF79FFE4A4636
:106C9000E9785046FDF79AFE2546DDE71C240020E2
:106CA0002DE9F041204F0E46154604463978FDF790
:106CB00077FE002835D0204602F036FA50B3204641
:106CC000FFF720FE80462046B978FDF769FE08B13F
:106CD000012700E00227204602F00AFD0028404676
:106CE00002D0FFF7FBFD0DE0A8F57F41FF3909D089
:106CF000072102F07BFB010004D0052902D02046C9
:106D000003F0AAFF2B46324639462046BDE8F04143
:106D1000FEF7B8BB2A4631462046BDE8F041FEF7F3
:106D200043BDBDE8F0810000142400202DE9F043AC
:106D300091B08146FDF726FE002820D06846FDF779
:106D4000E3FD00246E4617E006EB44054946A8889B
:106D5000FDF726FE78B10B4FA888F978FDF720FEE5
:106D60008046A8883979FDF71BFE0146A8880123D3
:106D70004246FFF73BFF641C0098A042E4D811B0E4
:106D8000BDE8F0831C2400202DE9F047394E002790
:106D900080463D46DFF8E090D6F804A057E003D0E7
:106DA0000446D0F81C8035E099F8002002EB42013F
:106DB000521CD2B289F8002009EBC10199F80230C7
:106DC000091D9A4201D189F8005048680A780446A2
:106DD000012A12D0022A02D0032A3BD108E004F093
:106DE000FDFA00B10127257434E00574C06900E0A4
:106DF00070680028F9D170602CE0207C50BB886856
:106E00006060C868A0600869E0604869A061F078C7
:106E100000B165606268B168184B501A20F07F407D
:106E2000984202D2A168084406E0881AA16820F0BE
:106E30007F40814202D9081A206000E02560656029
:106E40000120A56020742046E56104F0A9FAB8F19C
:106E50000000A4D199F8001099F801008142A3D153
:106E600017B97168514502D00120BDE8F0870020B4
:106E7000FBE7000048240020442E0020FFFF7F0095
:106E800030B585B00546002414216846FCF7BFFBE9
:106E9000A5F57F40ADF80250FF3815D02846FFF722
:106EA00005FB98B10B2815D0112811D0A0F5405141
:106EB000023903D00146284603F0BAFE09482246AB
:106EC000C1782846FDF782FD05B030BD0E2002E0F6
:106ED0000124F3E70F208DF800006846FEF73CFD23
:106EE000ECE70000D82300200A4602498978FDF724
:106EF0006DBD0000D8230020F8B5054600780C468B
:106F0000002620420FD100208DF800006846FDF7D2
:106F100089F92878204202D12043287001269DF863
:106F20000000FDF7A3F93046F8BD000070B588B049
:106F3000214800F066FA2048001F064600F061FA7A
:106F40001E4DD5E9014105E0C0F3891202EB9050D6
:106F5000641C044404EA010005EB8000C068820759
:106F6000F2D000200DF1080204EA010305EB8303CF
:106F7000641CDB6842F82030401C0228F4D30298DD
:106F800000F00300012808D002280AD1029803214A
:106F900001EB905004EB900403E00298C0F38310DF
:106FA00004443046002101AAFCF79BFA002800D0D7
:106FB0006C6008B070BD000014360020FC31002069
:106FC00000F0B2F80A480321008801EB004009A153
:106FD00001F0B4F90F480078FCF7ACFF01F0B6F807
:106FE0000028FBD13EDF0028F8D0FDF77FF8F5E759
:106FF0004C250020474154542053657276696365DF
:1070000020636C69656E7420737461727465642E9C
:1070100000000000E020002070B5144682880E4673
:1070200005462088111D0144921C994201D8FE2A70
:1070300001D90C2070BD521C32542088FF21401C05
:1070400080B2208031542088401C80B22080811979
:10705000288804F076FB2188084480B22080AA8822
:1070600042B1A96841B13044FCF7B8FA2088A98838
:1070700008442080002070BD072070BD2DE9F04736
:10708000C7880446181D16468946B0FBF7F1B0FBC9
:10709000F7F207FB12009A193A44D21CB2FBF7F23E
:1070A000DDF820A001E02468491E0029FBD13D1A2B
:1070B0008846B54216D818E0BAF1000F05D021185D
:1070C00009EB08002A46091D04E0204409EB0801E9
:1070D0002A46001DFCF782FA00202468761BA8448B
:1070E000B74201D9354600E03D46002EE4D1BDE867
:1070F000F087000030B5024669B101F0C9F90021FE
:10710000084C0BE001EB410304EB830315685B883B
:10711000AB4202D11160002030BD491C8142F1D345
:10712000052030BD042500203EB5002001F082F985
:1071300008B1FCF7DBFF00F0FBFFFCF7F5FF08B13F
:10714000FCF7D4FF354C00210320FDF73DFF08B1CB
:10715000FCF7CCFF69460020FDF7A2FE08B1FCF762
:10716000C5FF9DF80000022856D00020207001F0D5
:10717000C3FB08B1FCF7BAFF002469460120009464
:1071800001F086FA08B1FCF7B1FF684601F002FB96
:1071900008B1FCF7ABFF9DF8080021A120F00F001B
:1071A000401C20F0F00010308DF808000C2202A8DE
:1071B0007CDF08B1FCF79AFF00945020ADF8000086
:1071C000A0200194ADF80200ADF804404FF4C8705F
:1071D000ADF8060068467ADF08B1FCF787FF0021AA
:1071E000134800F075F908B1FCF780FF1148FDF76E
:1071F00025FC08B1FCF77AFF0F4800900C4869465F
:10720000143000F057FA08B1FCF770FFFCF768FE85
:10721000BDE83E4002F068BB0120A7E7E020002067
:107220004E6F726469635F4741545453000000001D
:10723000CC260020C9540200215E0200F8B50E469B
:10724000017814460546012901D1687830B12088BB
:10725000821C9A422DD8012902D006E00720F8BDF1
:1072600069780144891C994223D8181A801E87B274
:10727000ADF800702188B01C084469467DDF002805
:10728000EDD12878022805D1BDF80010B94201D807
:1072900009210AE00821012805D16878B84202D8FE
:1072A000ADF8000001E0ADF80070BDF80000FE2868
:1072B00001D90C20F8BD2288401CB0542088401C05
:1072C00080B2208031542088401C2080BDF80010FE
:1072D000084420800020F8BD70B505460C004FF032
:1072E000FF0020D04FF6FF76B5421CD00E48012299
:1072F00041782846FDF76AFB2846FFF751F8FF283A
:1073000003D1FFF769F8FF280DD0084B00EB4002CE
:1073100003EB82014D8023F8226022684A60A28834
:107320000A81A2798A7270BDEA2300203C2B0020DA
:10733000034A00219268C0E9002181607047000083
:107340001C24002070B54FF6FF750E46A84201D1EF
:10735000002000E0401C84B208E02146304602F0E4
:107360008EFD08B1204670BD641CA4B2FF2CF4D978
:10737000284670BD10B5FBF7E6FF08B1002010BD30
:10738000112010BD10B531B1B2FBF3F403FB14248E
:107390001CB1092010BD0E2010BD0160002141600C
:1073A00081608281C381084610BD70B50C460546D8
:1073B000FBF77EFF002802D021882868084470BDB2
:1073C00010B50A8849888A4203D1FBF7B3FF012030
:1073D00010BD002010BD70B50C460546FBF78DFFB3
:1073E000002802D061882868084470BD10B50A885A
:1073F00049888A4203D1FBF777FF012010BD0020A6
:1074000010BD08B501216A46FCF75EF8009808BD7A
:1074100008B56A46FBF731FF009808BD38B5044649
:1074200000258DF800506846FCF7FCFE2168626874
:10743000086890420ED9401E08600178238AE268ED
:1074400001FB0325227A2168101AC0B20A79824210
:1074500000D208719DF80000FCF708FF284638BDEF
:1074600038B5054600208DF800000C466846FCF74C
:10747000D9FEE868298A201AB0FBF1F12A68106861
:10748000431C136001709DF80000FCF7EFFE38BD4F
:1074900010B530B1017A42680368891AC9B21A601E
:1074A00006E00E2010BD03681A68541C1C601170A1
:1074B000491EC9B2F7D2006800210171084610BD0B
:1074C000C20800F007030120895C9840084070471B
:1074D00010B560B10161172120F8021B20F8021BD2
:1074E0001B2100F8021BFFF777FB002010BD0E20C8
:1074F00010BD00002DE9F043858895B00C46002DA5
:107500003DD10188DFF824810026DFF8249101278E
:1075100024293CD006DC102909D011290CD02329BC
:107520006DD150E03A290BD0552968D12AE00146A7
:10753000204601F085FB62E0A01DFFF74DFB5EE0F9
:107540002246408934F8061F814200D808466080F0
:10755000172800D217206080106970B1607960B17F
:10756000D8E90010CDE90310ADF80E506088ADF8F1
:107570001000136903A9104698476671267115B06B
:10758000BDE8F0830146204601F020FC37E0011DF4
:10759000342206A8FCF722F8BDF81800BDF81C201C
:1075A00004EBC0014A7322694AB3D8E90432CDE939
:1075B0000432ADF81200487B8DF814002269204691
:1075C00004A990471BE00496059630F8041F04EBCD
:1075D000C1020179127B8A4200D21146ADF8101027
:1075E000ADF812100088002204A990DF020006D036
:1075F000B9F800000F4907EB004000F0A3FEA07AA5
:107600000028BCD0E18828469EDF02000BD0112A5A
:10761000B5D0B9F8000015B007EB0040BDE8F04365
:10762000054900F08FBEA672E772A8E764BE0200AB
:107630001025002034C30200ACC202007FB504460E
:1076400000780D4658B1A08AA0F57F41FF3906D0D9
:107650002046FEF7BDFC10B125B1022003E0082052
:1076600004B070BD0020ADF80C00064807C88DE8D6
:107670000700A089ADF8020003A80290A08A69461D
:107680009CDFEDE710BF020078B103787BB1818207
:107690004AB1518981819189C181118A4182D189FF
:1076A000018211894181002070470E207047082017
:1076B0007047000070B50D46040013D095B12868DE
:1076C00080B120212046FBF7A2FF4FF6FF70A08279
:1076D0002868A0610448FDF791F9002801D1012133
:1076E000217070BD0E2070BD0CBF020030B5054684
:1076F00008789FB00C46002824D0002C22D0002D02
:1077000020D0288811281FD039281BD16189688989
:10771000884217D1A069002814D0A8889DDF10B135
:10772000E16901B18847288AA169ADF80400688A37
:10773000ADF8060003208DF80000A888ADF802001F
:10774000684688471FB030BDA08AA9888842F9D111
:107750004FF6FF70A0822046FEF73AFC0028F1D0D9
:1077600002208DF80000A1696846884700206081EA
:10777000A081E08160822082E4E70000F0B5054648
:1077800000789FB00C46002833D001208DF800000F
:10779000207804F10E0200BBA08841F60101884266
:1077A0001FD1A07901281CD1002142F60526207A9C
:1077B00015E000BF01EBC10332F81370B7420DD1E1
:1077C00002EB43031B799B0608D57622211D01A8F5
:1077D000FBF704FF00208DF8000002E0491C8842FE
:1077E000E8D8A969002904D06088ADF8020068468D
:1077F00088471FB0F0BD00F180400068002800D02D
:107800000120704708B500F1804000210160006848
:10781000009008BD00283ED01F49204A096800BFDB
:1078200000BF00BF00BF00BF00BF00BF00BF91424C
:107830002FD000BF00BF00BF00BF00BF00BF00BF10
:1078400000BF00BF00BF00BF00BF00BF00BF00BF40
:1078500000BF00BF00BF00BF00BF00BF00BF00BF30
:1078600000BF00BF00BF00BF00BF00BF00BF00BF20
:1078700000BF00BF00BF00BF00BF00BF00BF00BF10
:1078800000BF00BF00BF00BF00BF00BF00BF00BF00
:1078900000BF0138C3D17047EC2400200024F4005D
:1078A00070B50F4C0025207808B1852516E0002121
:1078B000A16061602161E1604FF0E020D0F800013B
:1078C000012610F0010F03D10721002000F022F85B
:1078D00001F05AF808B9034806602670284670BDC2
:1078E000982D00201805004008B500208DF80000F4
:1078F0006846FCF797FC0648C168491EC160C0682D
:1079000008B9FFF755F99DF80000FCF7AFFC08BD7A
:10791000982D00204907090E002806DA00F00F0212
:1079200002F1E02282F8141D03E000F1E02282F867
:10793000001400F01F02012191404009800000F175
:10794000E020C0F88012C0F8001170472DE9F04126
:107950008846054602F072F8234E002828461AD0C1
:10796000FDF79CFC304490F848008009032802D0C1
:1079700001280ED007E04FF0A040D0F81005E840F5
:1079800010F0010F05D003212846BDE8F04100F0BA
:10799000DEBA0221F8E702F05DF8002822D028467E
:1079A000FDF77CFC04464FF4807000EB84000F4F21
:1079B00081B207EB8400D0F8102542F00102C0F834
:1079C0001025084600F0E8FAB8F1000F0AD0284662
:1079D000FDF764FC56F82000002803D00120A040E9
:1079E000C7F80403BDE8F081AC2D00200060004022
:1079F0002DE9FC41DFF8A480044608EB04000027D1
:107A000090F930001346C0170E46401C01D00827DD
:107A100041E0F27819462046FDF71CFC0546401C63
:107A200038D0B07850B14FF0A04000EB8400D0F8CF
:107A3000001721F00201C0F8001707E00021737859
:107A4000204600910A46019100F06FFAF078C0B12B
:107A50001348317800EB8500D0F81025114B1A40FF
:107A6000C0F810254FF4F8524FF4403302EA0422D4
:107A700003EA01410A43D0F810150A43C0F8102563
:107A800009E008EB0500327810F8481F41EA82113E
:107A9000017000E004273846BDE8FC81AC2D0020D1
:107AA00000600040FFE0FCFF4FF0A041D1F810154E
:107AB000C14011F0010000D00120704770B5144D95
:107AC00095F8540008B1082070BD0020411E2A1806
:107AD000401CC0B282F830102028F8D30024204681
:107AE000FDF7AAFB641CE4B20C2CF8D30721062096
:107AF000FFF710FF4FF4BE7000F04EFA05494FF04B
:107B00000040C1F80403012085F85400002070BD36
:107B1000AC2D002000600040034890F8540000287D
:107B200000D0012070470000AC2D00200FB408B534
:107B30000399002904D004AA00926A4600F00FF8C5
:107B400001B05DF814FB10B582680446002A05D028
:107B5000D4E90403216898470020A06010BD2DE9F6
:107B6000FC4791460C00804676D014F8011B39B1D1
:107B700025290ED04046FDF741FB20780028F4D19E
:107B800098F80C00002867D04046BDE8FC47FFF796
:107B9000DABF0020012221782B291BD02D2902D009
:107BA000302908D102E040F0010001E040F002007D
:107BB000641C002AEFD100252A290ED02178A1F1DA
:107BC00030020A2A11D205EB850201EB4205641C42
:107BD000303DF1E740F00400EAE7D9F800100B1D52
:107BE000C9F800300968641C0D44217800232E294F
:107BF0000BD114F8011FA1F130020A2A05D203EBC0
:107C0000830201EB4203303BF3E76C290DD0682976
:107C10000BD0692921D00BDC252918D0582931D067
:107C200063290ED0642915D117E014F8011FECE781
:107C3000702969D0732932D075291BD0782909D1D0
:107C400020E0D9F80000011DC9F800100178404675
:107C5000FDF7D4FA641C90E76CE0D9F800100A1D17
:107C6000C9F800200968CDE900500A224046FEF715
:107C7000F7FEEFE7D9F800100A1DC9F800200968DF
:107C80000A2206E0D9F800100A1DC9F80020096888
:107C90001022CDE90050404603F068FDDAE7D9F83C
:107CA000001000270A1DC9F800200E68C00705D182
:107CB00012E04046761C7F1CFDF7A0FA31780029BF
:107CC000F7D104E0202140466D1EFDF797FABD4232
:107CD000C0D9002DF6D1BDE74EB13046FBF7A2FC6E
:107CE000074604E0202140466D1EFDF787FABD429D
:107CF00006D9002DF6D103E04046761CFDF77EFA4A
:107D000031780029F8D1A5E7D9F80000011DC9F89C
:107D10000010056830214046FDF770FA7821404692
:107D2000FDF76CFA08200021CDE90001034610227E
:107D30002946B0E7BDE8FC872DE9F0411F4615460E
:107D400004000E4616D02068B8B1C5B1606802685C
:107D5000501E304215D16A432046FCF799F880B195
:107D600020683B462A46D0F810C031462046BDE880
:107D7000F04160470E20BDE8F0810820FBE70920B4
:107D8000F9E71020F7E720B119B101600B6811463F
:107D900018470E20704700002DE9F04128B1016816
:107DA00019B1C969BDE8F04108470D4D0D480024DF
:107DB000461B14270DE000BF04EB840005EB800098
:107DC000016829B1C969884710B10120BDE8F08177
:107DD000641CB6FBF7F0A042EED80020F6E70000E6
:107DE000F024002004250020044801214174007A79
:107DF00008B100207047012070470000D8300020F3
:107E0000012801D0032808D10449002201284A741E
:107E100000D00020087402F0EBBA7047D830002080
:107E200070B5254C0246207A012837D0022841D16E
:107E300022480023022A006802D0032A2ED11BE028
:107E4000E360017911B1012928D10DE0D0E9056580
:107E5000711B4FF48056B14200D3314629448161F1
:107E60004569A9420ED019E00169491C01614269C6
:107E7000914213D1237217E0E168491CE16008299F
:107E80000CD9E3602372022A0ED00D21FDF702FD0A
:107E90000B480A49091D0068FFF792FA607C28B177
:107EA000BDE8704000F076BD0021EFE7BDE870400E
:107EB00002F09EBA70BD0000D83000208C24002053
:107EC00050BF02002DE9F8431D46089F164688461C
:107ED00004000DD066B1206860B135B160684068BB
:107EE000B5FBF0F100FB115030B10920BDE8F8837B
:107EF0000E20FBE70820F9E74046FBF7C3FF90B1EF
:107F00003046FBF7BFFF70B12A4641462046FBF7DB
:107F1000BFFF40B1009720682B463246C7684146F4
:107F20002046B847E2E71020E0E770B541EA420199
:107F3000DDE904564FF0A04441EA830141EA0521FE
:107F400004EB800041EA0641C0F8001770BD4FF015
:107F5000A04202EB8000D0F8002722F44032C0F8A3
:107F60000027D0F8002742EA0141C0F80017704707
:107F700018B5084B6C4601441B68009306E000BF2F
:107F800054F82030D3F81035401C08C28142F7D88D
:107F900018BD00001CBF0200034908B508440021B9
:107FA00001600068009008BD006000400249405830
:107FB000012800D0002070470060004030B5124B0F
:107FC00001460020D3F81044224609E0157A854284
:107FD00005D1401C0A28F7DB4FF0FF3030BD526856
:107FE000002AF3D1421CF9D00872D3F810242AB128
:107FF00052684A60D3F81024516030BD0022C3F8A3
:1080000010144A6030BD0000FC3100207047FBF7BF
:10801000ADBC704708B5034A00924023024A00F005
:1080200005F808BD81AC0200FC300020F0B595B029
:108030001C4615460F4608461A9E00F0F9FA18210C
:1080400009A8FBF7E4FA0E96CDE9095400230822AB
:1080500003A9384600F006FB059806900498ADF891
:108060001C0000208DF820000398082600F0030073
:10807000012802D002281DD03CE003983346850A2F
:10808000C0F3C2008DF81E0003980FA9C0F3800052
:108090008DF81F000398C0F38314A200384600F047
:1080A000E1FA09A8009006AB22460FA9284600F085
:1080B0001BFA1FE00398840DC0F3C2008DF81E0068
:1080C0000398C0F380008DF81F00082C01D22546CC
:1080D00000E0082533462A460FA9384600F0C2FAC8
:1080E0002E44641B09AB06AA29460FA800F04CF9E0
:1080F000002CEAD1384600F0A4FA15B0F0BD00001B
:108100000A4A012902EBC00007D0022907D003293F
:1081100007D0042907D000207047022070470420B0
:1081200070470079704740797047000050C90200DD
:1081300010B5FFF76CFF04210348FFF73FFF02492A
:108140000120487210BD0000942400202DE9F04F5A
:108150008DB0FDF763F818B100200DB0BDE8F08FC9
:1081600074480021C0F81814BFF34F8FD0E90146BE
:1081700004EA060100EB81014FF000090AE000BFAC
:10818000C1F3891202EB9151641C0C4404EA06010C
:1081900000EB8101C9688A07F2D0002103AA80465A
:1081A00004EA060008EB8000641CC06842F8210065
:1081B000491C43460229F3D3039800F00300022828
:1081C00006D0012803984FD0C04380077ED0ACE092
:1081D00003985022810D8A46B2EB905F00D850215F
:1081E0000D4665F39F5003900831534800F0D7F9CE
:1081F00007006CD000F01CFA4B46082203A9384651
:1082000000F036FA04EA0601701A8000001D09F138
:10821000080B854221D9474E0C3630B1C2B208EB6B
:108220008101281A91460C3104E03146EAB2002659
:1082300091463046C5B25B46384600F019FA0BEB62
:1082400009032EB12A4631464FEA070000F010FA22
:108250000AF1030004EB90043BE008EB81015B466C
:108260002A4638460C31F1E7C0F38310062800D3C4
:108270000620039960F38911C1F38310801C0391D8
:1082800081002D4800F08BF907004ED000F0D0F9A6
:108290004B46082203A9384600F0EAF909F108091B
:1082A00000250DE004EA060008EB80014B4604229D
:1082B00038460C31641C00F0DBF909F104096D1C2F
:1082C0000398C0F38310A842ECD801E00BE02CE047
:1082D0005FB3D8F81054D8F81804464690B1384621
:1082E00000F0AFF921E0D3F8180400283FF435AFCF
:1082F0001BE0687A012804D1296828460A683946B3
:1083000090476D68002DF4D1384600F09AF90020AE
:108310008DF800006846FBF785FFD6F8180400B911
:1083200074609DF80000FBF7A1FFFCF777FF80F079
:10833000010012E7FC31002090C0020000231A4621
:1083400002F0A6BF08B5012300926A4602F0A0FF22
:1083500008BD1CB5CDE9002302236A4602F098FF50
:108360001CBD3EB5069C8DE81C0003236A4602F046
:108370008FFF3EBD7FB5DDE908458DE83C00042355
:108380006A4602F085FF7FBD2DE9F0470E46804624
:108390001C46924608293ED894F80C900020207381
:1083A0001946104601F08CFF0025B54206D218F898
:1083B00005201AA12046FFF7B9FB03E019A12046CA
:1083C000FFF7B4FB6D1C082DEFD317A12046FFF774
:1083D000ADFB0025B54210D218F80570FBF7FAF88E
:1083E0000068C05D10F03E0F01D03A4600E02E223A
:1083F0000EA12046FFF79AFB03E00DA12046FFF7F0
:1084000095FB6D1C082DE5D301222146504601F055
:1084100039FF84F80C90BDE8F08700002025303249
:1084200078000000202020007C0000002563000070
:1084300020000000114810B5FF218160002101607B
:108440004160C0F81814C0F8141480F81C140C48CB
:1084500000F0F5F800280FD10A480B490B4B401AE1
:10846000C108002005E000BF00EB400223F8220015
:10847000401C8842F8D3002010BD0000FC310020D1
:1084800090C00200A0C9020050C9020004250020CB
:1084900002480349401AC00870470000A0C9020002
:1084A00050C9020013B56846FEF724FE08B100204B
:1084B0001CBD0248009950F831001CBD50C9020093
:1084C00070B508480125D0F8104480F81C5405E028
:1084D000657221682046496888476468002CF7D196
:1084E00070BD0000FC3100202DE9FF4781460C9D46
:1084F00000200C462F7B28739846164629461846BE
:1085000001F0DEFE072E42D2DFE806F004090F1666
:108510001F2A360049462846FFF708FB37E0494640
:1085200028462268FFF702FB31E0D4E900234946E0
:108530002846FFF7FBFA2AE0A0680090D4E9002360
:1085400049462846FFF7F2FA21E0D4E90201CDE9D5
:108550000001D4E9002349462846FFF7E7FA16E070
:1085600004F1080007C88DE80700D4E90023494654
:108570002846FFF7DBFA0AE004F108000FC88DE88F
:108580000F00D4E9002349462846FFF7CFFA00221E
:108590002946404601F076FE2F73BDE8FF872DE99E
:1085A000F041058A80462D1F4819C01CB0FBF5F02C
:1085B000C6B24046FEF732FF040019D000202071F9
:1085C00001206071E58000272546761EC4F80080F2
:1085D0000BE04046FEF722FF60B16179491C6171F2
:1085E000286005467F1CC0F80080B742F1D32046C2
:1085F000BDE8F081204600F002F80020F8E72DE900
:10860000F041457901466B1E002201E00968521CC9
:108610009A42FBD30F680146002605E038460C68F5
:10862000FEF71EFF2146761CAE42F7D3BDE8F0816F
:1086300008B501216A46001DFAF71FFF08BDFEF7C5
:1086400027BF38B50446001D01216A46FAF722FF0C
:10865000009810F0FF0F04D12046BDE83840FFF726
:10866000CEBF38BD38B501240094FEF707FD38BDF4
:1086700038B500240094FEF701FD38BD20B1034950
:1086800009680160002070470E2070471CC102007D
:10869000FEB502460E460846FFF7F0FF00286BD1F4
:1086A000002400940194012503208DF80020ADF8EA
:1086B000040002948DF8025069462020326869DF78
:1086C0002E4F40B100F0D6F9024638882C4905EB10
:1086D0000040FFF737FE00948DF800508DF8014000
:1086E000019402948DF8024069464020326869DFA7
:1086F00040B100F0BFF902463888224905EB00403E
:10870000FFF720FE0094019402948DF80040694622
:108710000120326869DF40B100F0ACF902463888C8
:10872000194905EB0040FFF70DFE4FF4B0600090D3
:10873000019402946946A120326869DF40B100F0DB
:1087400099F902463888114905EB0040FFF7FAFD18
:108750000094019402948DF800406946A02032688C
:1087600069DF40B100F086F902463888084905EB18
:108770000040FFF7E7FD0020FEBD0000642500205B
:1087800040C8020088C80200A0C70200ECC702006F
:108790004CC702002DE9F0410446D0F800E060DF4C
:1087A0002368144D0646734515D02888022707EB29
:1087B0000040724610A1FFF7CCFDF806D0F80C017E
:1087C0002168800200F10050421A288816A107EBA8
:1087D0000040FFF7B7FD56B1304600F04BF90246B6
:1087E0002888012101EB004018A1FFF7ABFD3046BE
:1087F000BDE8F0816425002052414D207374617200
:10880000747320617420307825782C2063616E2089
:1088100062652061646A757374656420746F2030CA
:108820007825782E0000000052414D2073697A654A
:108830002063616E2062652061646A75737465648B
:1088400020746F20307825782E00000073645F62FA
:108850006C655F656E61626C652829207265747550
:10886000726E65642025732E0000000030B593B051
:108870005FF03805ADF8445011A903A861DF30B1AD
:10888000052816D013B0BDE83040FBF72FBC03AC71
:108890000949684600F0AAF807E000BFD0E90021C6
:1088A00020469047684600F0B8F802980028E1D0CA
:1088B000F4E713B030BD000020C1020010B50D4C2C
:1088C0002078A0B10120A07001F0E4FF11280CD0A5
:1088D000022001F0F7FF11DF002807D12070A070FF
:1088E00002F092FC032001F0EDFF002010BD0820F3
:1088F00010BD0000E824002038B5174C207808B1DE
:10890000082038BD0125A570002001F0C3FF112803
:1089100020D0002001F0D6FF1048114900680090D7
:10892000684610DF0028ECD12570A0706070072128
:10893000162001F064FF08B1FBF7D8FB07211520D2
:1089400001F05DFF08B1FBF7D1FB02F079FC0120DB
:1089500001F0B8FF002038BDE8240020B4C00200B8
:10896000754002000EB50749684600F03FF805E083
:10897000D0E900108847684600F04FF802980028B8
:10898000F6D10EBDD0C0020001480078704700004B
:10899000E82400200548817819B1007818B1FFF764
:1089A0008DBF08207047FFF7A7BF0000E824002014
:1089B0001FB5684648DF30B1052814D004B0BDE8C3
:1089C0001040FBF793BB084901A800F00FF806E040
:1089D000D0E900210098904701A800F01EF8039804
:1089E0000028E6D0F4E71FBD3CC102000160096821
:1089F0004160AFF3008010B5D0E90021536899427F
:108A000001D1002104E0D1E90034A34202D019468B
:108A1000816010BD08314160F0E7816800290BD00A
:108A2000026892680A44826041684B689A4203D1A6
:108A300008314160FFF7DFBF704700000C4A10B5F6
:108A400002F1F0030EE0991AC91001EBD17149103F
:108A500002EBC1010C68844201D90B4602E005D249
:108A600001F108029A42EED3002010BD486810BD03
:108A700094BF020000B5FFF7E1FF002800D10148D4
:108A800000BD000080BF02004058002800D0012037
:108A9000704708B5002242504058009008BDD0F8F9
:108AA0000403084000D0012070474058002800D03F
:108AB0000120704708B5002242504058009008BD80
:108AC0000E4910B50988032202EB014270B1032858
:108AD00012D110460AA1FFF731FC0220FCF768FA18
