:020000040002F8
:1030000060A40020153402001D3402001F340200A9
:1030100021340200233402002534020000000000A5
:103020000000000000000000000000002734020043
:1030300029340200000000002B3402002D3402006D
:10304000FD3B02002F3402002F340200313E02000B
:103050007D3E02002F34020075390200893C0200D7
:103060002F3402002F3402002F3402002F340200CC
:103070002F3402002F3402002F3402002F340200BC
:103080002F340200553C02002F3402002F3402007E
:103090008D3E02002F340200913E02002F340200C8
:1030A0002F3402002F34020091410200A54102009A
:1030B0002F3402002F340200000000000000000046
:1030C0002F3402002F3402002F3402002F3402006C
:1030D000793C02002F3402002F340200000000006F
:1030E00000000000000000000000000000000000E0
:1030F00000000000000000000000000000000000D0
:1031000000000000000000000000000000000000BF
:1031100000000000000000000000000000000000AF
:10312000000000000000000000000000000000009F
:10313000000000000000000000000000000000008F
:10314000000000000000000000000000000000007F
:10315000000000000000000000000000000000006F
:10316000000000000000000000000000000000005F
:10317000000000000000000000000000000000004F
:10318000000000000000000000000000000000003F
:10319000000000000000000000000000000000002F
:1031A000000000000000000000000000000000001F
:1031B000000000000000000000000000000000000F
:1031C00000000000000000000000000000000000FF
:1031D00000000000000000000000000000000000EF
:1031E00000000000000000000000000000000000DF
:1031F00000000000000000000000000000000000CF
:10320000DFF80CD000F01CFB0048004721650200ED
:1032100060A4002030B450E8012F93B2C489234445
:103220008489A34228BF1B1B0489A34202BFBFF3AA
:103230002F8F002007E0C3EA020340E80134002C8E
:10324000E9D14FF001000A6030BC704750E8012F0F
:10325000C2EA024240E801210029F7D1704730B4A8
:1032600050E8022F1FFAA2F3C488A34202BFBFF3A3
:103270002F8F00200DE0C48923448489A34228BFF6
:103280001B1BC2EA034340E80234002CE8D14FF094
:1032900001000A6030BC704750E8022FC2EA2242A7
:1032A00040E802210029F7D17047034653E8022F76
:1032B000D988B2EB324F4FF0000017BF92B241EA0B
:1032C000014142EA014104E05A68B2EB324F08BFC3
:1032D000012043E80212002AE8D1704730B40446C6
:1032E00054E8000F0D4644E80053002BF8D1156058
:1032F00030BC704730B4044654E8000F40EA010582
:1033000044E80053002BF7D1156030BC704730B44F
:10331000044654E8000F00EA010544E80053002B7E
:10332000F7D1156030BC704730B4044654E8000F44
:1033300080EA010544E80053002BF7D1156030BC4A
:10334000704730B4044654E8000F00EB010544E830
:103350000053002BF7D1156030BC704730B40446E1
:1033600054E8000FA0EB010544E80053002BF7D10F
:10337000156030BC7047000030B4044654E8000FBC
:103380000D4644E80053002BF8D1156030BC70475F
:1033900030B4044654E8000F40EA010544E8005305
:1033A000002BF7D1156030BC704730B4044654E8A8
:1033B000000F00EA010544E80053002BF7D1156027
:1033C00030BC704730B4044654E8000F80EA010571
:1033D00044E80053002BF7D1156030BC704730B47F
:1033E000044654E8000F00EB010544E80053002BAD
:1033F000F7D1156030BC704730B4044654E8000F74
:10340000A0EB010544E80053002BF7D1156030BC58
:10341000704700000648804706480047FEE7FEE781
:10342000FEE7FEE7FEE7FEE7FEE7FEE7FEE7FEE774
:10343000953E0200013202002DE9F05F05460020B2
:1034400092469B4688460646814640241BE0284615
:1034500041464746224600F001F953465A46C01AF3
:10346000914110D311461846224600F0E8F82D1A73
:1034700067EB01084F4622460120002100F0DFF8EB
:1034800017EB00094E41201EA4F10104DFDC484681
:1034900031462A464346BDE8F09F00000048704789
:1034A000689E020038B5D0E90221491E01EB4101B6
:1034B00002EBC1014268C1EB011102EB810102681C
:1034C000C1EB011102EB8102D0E9043101EB4101B2
:1034D00003EB81013023A1F5527191FBF3F4174DF9
:1034E0006C4302EBC41291FBF3F403FB1411009242
:1034F0001A2902DB124B1A4400920C2291FBF2F3C0
:10350000104C6343009C04EBC313009391FBF2F354
:1035100002FB13110C4A08E0491E40F2A324535C3D
:103520006343009C04EBC31300930029F4DC0146C1
:10353000684600F0A9F8009838BD00003F0C0F0065
:103540008051010067C203006C9E020010B500F0BC
:1035500095F8BDE8104000F0DDB840EA01039B0794
:1035600003D009E008C9121F08C0042AFAD203E0F8
:1035700011F8013B00F8013B521EF9D27047D2B25C
:1035800001E000F8012B491EFBD270470022F6E74C
:1035900010B513460A4604461946FFF7F0FF2046C9
:1035A00010BD421C10F8011B0029FBD1801A704786
:1035B000034611F8012B00F8012B002AF9D1184617
:1035C000704730B505460020034600E05B1C93427F
:1035D00005D2EC5CC85C201A01D1002CF6D130BDBC
:1035E00070B50F4D00B92868002412E00A4602E0C9
:1035F0009E4203D0521C1378002BF9D1DAB2224339
:1036000005D02BB124B1002100F8011B04E00446D1
:10361000401C0678002EE9D12860204670BD0000CD
:103620004042002070B5064600F080FE0468054662
:103630000A220021304600F0CBF82C6070BD202A11
:1036400004DB203A00FA02F1002070479140C2F1F9
:10365000200320FA03F3194390407047202A04DB2B
:10366000203A21FA02F00021704721FA02F3D040FB
:10367000C2F120029140084319467047014900F009
:1036800003B800001464002010B500683C22B0FBB1
:10369000F2F302FB1303B0FBF2F00B60B0FBF2F3AA
:1036A00002FB1303B0FBF2F018224B60B0FBF2F305
:1036B00002FB1303B0FBF2F0021D8B600723B2FB89
:1036C000F3F403FB1422800040F2B55300F66C3093
:1036D0008A61B0FBF3F2B0FBF3F403FB1400443255
:1036E00080084A61C8613B2802D3920700D0401C81
:1036F0000022074C13460A61E25C824203D8801A1A
:103700005B1C0B61F8E7401CC860084610BD000058
:10371000789E0200F0B52A4B2A4C85B000218269C0
:1037200002EB42020A44491CA25C03F8012B032964
:10373000F5DB244C4FF0200C002103F801CB1534AD
:10374000026902EB42020A44491CA25C03F8012B05
:103750000329F5DBC16800918168019141680291FC
:1037600001680391406918A200F26C706C460A2748
:10377000049017E003F8010B12F8010F08B10225BD
:1037800000E0042502CC284607E091FBF7F607FB92
:10379000161691FBF7F130361E54061EA0F10100FB
:1037A000F3DC2B4410780028E4D11F7058700448D3
:1037B000017A302901D180F808C005B00048F0BD79
:1037C00040640020849E020020203A3A200000003D
:1037D0002DE9F04791460F4680460446002614F82E
:1037E000015B2DB1FFF75AFE0068405DC007F6D1BE
:1037F0002B2D02D02D2D18D0641E4A463946204666
:1038000000F030F827B13968A14201D1C7F8008033
:1038100071054FF002040BD54042002803DD00F093
:1038200085FD0460A007BDE8F08746F48066E4E704
:103830000028F8DA00F07AFD04606FF00040F2E74B
:10384000064C074D06E0E06840F0010394E80700ED
:1038500098471034AC42F6D3FFF7D6FCDCA6020042
:10386000FCA602002DE9F05F82460078002715468D
:103870008B460AF10104B946302801D09DB113E00E
:1038800014F8010B0127782803D0582801D045B13E
:103890000AE00DB1102D07D10027102514F8010BF7
:1038A00002E0082500E00A250026B0460EE005FBF0
:1038B000080005FB06F1012701EB10461FFA80F80E
:1038C000B6F5803F00D3B94614F8010B294600F045
:1038D00018F80028EBDABBF1000F05D00FB1641E19
:1038E00000E05446CBF80040B9F1000F06D000F0DC
:1038F0001DFD02210160C81EBDE8F09F48EA064098
:10390000FAE73A2800D2303820F02002412A01D3C9
:10391000A2F13700884201D34FF0FF30704770B5F5
:103920008C1810F8015B15F0070301D110F8013B6A
:103930002A1106D110F8012B03E010F8016B01F8F1
:10394000016B5B1EF9D12B0705D40023521E0DD449
:1039500001F8013BFAE710F8013BCB1A921C03E097
:1039600013F8015B01F8015B521EF9D5A142D8D3CF
:10397000002070BD2DE9F04700268CB0DFF8609183
:10398000B0464FF48075012437460696284603F06A
:10399000DDFE38B1D9F80403204203D0284603F0F5
:1039A000CBFE26432D1D64007F1CADB2082FEDD346
:1039B0004FF4BE74204603F0C9FE48B1204603F020
:1039C000BBFE46F0004606AA0121002003F0A0FE3F
:1039D000444D16F0FF0F15D00127002437420DD0BB
:1039E00009EB8401D1F81005D1F81015C0F30420BB
:1039F00055F82420C1F3014102B190477F00641CB7
:103A0000082CEBD3002E67DA4FF0FF30CDE90880A9
:103A100000263446281910F84C7F90F9000027F052
:103A2000C008401C44D009A9404603F0C0F858B370
:103A30004FEA9719404601F083FF55F820701FB1F7
:103A4000B9F1030F03D00FE0B9F1030F30D108A88B
:103A50004FEAD80208F00703815C4FF0010C0CFA22
:103A600003FC41EA0C0181544FF0A04101EB8800B6
:103A7000D0F8000706A9C0F3014A404603F097F8C2
:103A800018B1BAF1020F03D012E0BAF1030F0FD14F
:103A9000B9F1030F08D1BAF1020F1BD00221404641
:103AA00003F000FE761CF6B217B149464046B8470F
:103AB000641C032CAED3002E0ED06A4601210020D8
:103AC00003F026FE06990098884205D006900898D3
:103AD00009909DE70321E2E70CB0BDE8F087000004
:103AE00000600040DC45002000F01F0201219140F1
:103AF0004009800000F1E020C0F88012704700F01B
:103B00001F02012191404009800000F1E020C0F82F
:103B10000011704700F01F02012191404009800010
:103B200000F1E020C0F8001270474907090E002894
:103B300006DA00F00F0000F1E02080F8141D704755
:103B400000F1E02080F8001470470000F8B5074647
:103B50004E1C0D46304602F0AFFE40210446017077
:103B6000002003E02118401C4F70C0B2A842F9D3D6
:103B700001200090F3B222463C21074803F0CAFB23
:103B8000064900220A700A78002AFCD00546204621
:103B900002F074F92846F8BDA09D0200442B0020D5
:103BA0002DE9F84380464E1C0D46304602F084FE57
:103BB000002704460770384606E000BF18F80010DA
:103BC0002218401C5170C0B2A842F7D301200090C7
:103BD000F3B222463C21074803F09CFB06490F70D4
:103BE0000A78002AFCD00546204602F047F928460C
:103BF000BDE8F883A09D0200442B00202DE9F04190
:103C00004FF48077384603F051F80124104EA50791
:103C100048B1384603F051F80120C5F80803747024
:103C2000002001F049FF4FF48277384603F03EF858
:103C300000280BD0384603F040F80220C5F80803EE
:103C4000B470BDE8F041012001F036BFBDE8F0815D
:103C5000C845002007480021C0F84011C0F84411B1
:103C6000C0F84811C0F84C11C0F80011C0F8041198
:103C700005F026BC0010014004220021014803F099
:103C800071BA0000004002402DE9FE434FF48278F3
:103C9000404604F0D1F84C4F00254C4C012600B3AF
:103CA000404604F0D1F894F82E0010B194F82F108B
:103CB000D1B18DF80050616801912189ADF80810EB
:103CC000E26832B1218B618362602181E56010B1CD
:103CD00002E0257400E03E6021686846884784F869
:103CE0002F5094F82E0060B34FF48077384604F0DC
:103CF000A3F830B3384604F0A7F8628B94F82D107F
:103D00008A420AD9A2EB010080B260832289A2EB29
:103D10000000626802EB400005E007D1E06828B1CE
:103D200084F82F60658304F07FF804E08A4202D1B2
:103D300084F82F606583404604F086F82248001D11
:103D400006604FF48877384604F076F848B1384674
:103D500004F07AF8257402208DF800002168684686
:103D600088474FF48A77384604F066F828B1384619
:103D700004F06AF82574BDE8FE834FF000484FF464
:103D80008C7967691DE000BFB7FA87F028FA00F167
:103D900009EB80058F43284604F04EF888B1284689
:103DA00004F052F8A5F58C75E8088DF8040045F389
:103DB0008000401C8DF800608DF805002168684681
:103DC0008847002FE0D1D6E70070004078460020F9
:103DD00000F00ABA70B50E46144900EB400001EB42
:103DE000C0051446E86A183520B101280FD0022812
:103DF00005D113E0284600F02BFAA04201D200249E
:103E000011E022463146284600F05AFA0BE02846D7
:103E100000F01EFAA042F4D20446F2E731462846EA
:103E200000F021FA0446204670BD0000A84D002095
:103E3000F8B511480F4D04464FF48C7104F015FA93
:103E4000002815D00026C4F81861D4F81801009095
:103E5000A87F2C46FF2801D003F03CFC6677267231
:103E6000D4E9002101B004F10800BDE8F04010479A
:103E7000F8BD0000544600200030004002494FF0D9
:103E8000402002F063B900002C46002005F066BA1D
:103E900004F080B9F0B5AE480023021D0178012579
:103EA000101D4FF0805406290BD11678360708D123
:103EB0000678C6F30316032E06D0042E04D0052E72
:103EC00002D0062907D00EE0B4F82463A14FC6F350
:103ED00004263E6002E01678360704D10678C6F361
:103EE0000316032E02D0062904D00FE09B4F9A4EF2
:103EF0007E670EE01678360708D10678C6F30316FB
:103F0000032E06D0042E04D0052E02D0062907D099
:103F10000EE0D4F84462924FC6F342363E6002E0AF
:103F20001678360704D10678C6F30316032E02D09E
:103F3000062906D011E08B4E376827F0807737606E
:103F40000EE01678360708D10678C6F30316032E5E
:103F500006D0042E04D0052E02D006290AD011E086
:103F60004FF08046C6F80C31C6F810317C4E361F33
:103F7000336002E01678360704D10678C6F30316DC
:103F8000032E02D0062905D00CE0754F03266437B6
:103F90003E600AE01678360704D10678C6F30316A9
:103FA000032E02D006290DD014E06F4F05263E6087
:103FB0006D4E783635606C4E083633603F263F1DB7
:103FC0003E6002E01678360704D10678C6F3031681
:103FD000052E02D0062957D062E0644E3668644F41
:103FE0003E60624E361D36683F1D3E605F4E0836AD
:103FF00036683F1D3E605D4E0C3636683F1D3E60A4
:104000005A4E103636683F1D3E60584E143636689C
:104010003F1D3E60554E18363668554F20373E607E
:10402000524E1C3636683F1D3E60504E2036366874
:104030003F1D3E604D4E243636683F1D3E604B4E60
:10404000283636683F1D3E60484E2C3636683F1D88
:104050003E60464E30363668454F40373E60434EF0
:10406000343636683F1D3E60404E383636683F1D58
:104070003E603E4E3C3636683F1D3E603B4E40360D
:1040800036683F1D3E6002E01678360708D1067894
:10409000C6F30316032E06D0042E04D0052E02D03C
:1040A000062907D019E0D4F85812324A01F04F011E
:1040B000116002E0117809070FD10078C0F30310F6
:1040C000032803D0042801D0052806D12A48016816
:1040D000C90702D06FF001010160224874380168FD
:1040E00041F470010160BFF34F8FBFF36F8F4FF04A
:1040F0001021D1F80002002803DBD1F804020028C7
:1041000022DA1E4A15601E480468002CFCD01524D3
:10411000C1F800420568002DFCD0C1F804420168D6
:104120000029FCD0136001680029FCD0BFF34F8F39
:104130000C48F0380168134A01F4E0611143016052
:10414000BFF34F8F00BFFDE710490F480860F0BD77
:10415000E00F00F0403501400DF0ADBA00C007405F
:104160003C050040FCED00E0105600400404001047
:1041700020C50040E40E00400004004004E501407A
:1041800000E401400400FA050090D0033C42002006
:1041900006220249024801F0B8BF0000A8460020EC
:1041A00000A0014006220249024801F0AEBF000013
:1041B000B446002000B001407CB5002014460D46F6
:1041C0008DF804000090012301AA1C21054803F08A
:1041D000A1F8002805D1E3B22A461C21014803F0CA
:1041E00087F87CBDA09D020010B5124C0220206112
:1041F000606111A0A06104F17800E0614FF40070EB
:1042000020620020A06260620BA1A164E06204F55C
:104210001E71E1641021A065C4E91410E06509A1D4
:10422000E01DFFF7C5F908A12046FFF7C1F92020DE
:10423000A07110BDA84D00205465726D696E616C4F
:1042400000000000525454005345474745520000B7
:104250000269C1688A4203D88068401A104400E0AD
:10426000501A401E70472DE9F047C468174689462A
:1042700006464FF000083069A04201D9051B02E054
:10428000B168201A0D1AB0686D1E001BA84200D834
:104290000546BD4200D33D4670682A462044494643
:1042A000FFF75BF9B0687F1B2C44A844A944A042E7
:1042B00000D10024F460002FDDD14046BDE8F08736
:1042C0002DE9F04104468846D4E90207C51BE168A0
:1042D000606816460844B54206D94146FFF73DF9E5
:1042E000B819E060BDE8F0812A464146FFF735F98C
:1042F000761B08EB050132466068FFF72EF9E66091
:10430000F0E700000FB4084B10B504A902AA039807
:1043100000F03EF8044602A9002000F099F920467A
:1043200010BC5DF814FB00005146020000487047C5
:104330004C42002002E008C8121F08C1002AFAD12E
:1043400070477047002001E001C1121F002AFBD115
:10435000704700000121202803DA81400548014010
:1043600003E0402802DA2038814009B1012070477B
:1043700000207047FC06FFBD082806D228B101289E
:1043800003D0042801D001207047002070470000AE
:104390002DE9FF4F8DB09B460F460446002606E0F0
:1043A00025280BD05A460F999047641C761C20781C
:1043B0000028F5D111B03046BDE8F08F0025A846A1
:1043C0000122984900E0054314F8013F203B02FA1E
:1043D00003F00842F7D120782E2817D114F8010FE6
:1043E00045F004052A280ED06FF02F022078A0F1A6
:1043F000300109290AD808EB880102EB410100EBE2
:104400000108641CF2E757F8048B641C20786C28C0
:104410000DD004DC4C2812D06A2811D104E0742895
:104420000DD07A280CD10AE045F4001507E0617838
:1044300045F48015814202D1641C05F58015641C89
:104440002278692A45D008DC002AB3D0582A69D0DE
:10445000632A10D0642A08D13BE0702A67D0732AFF
:1044600013D0752A5CD0782A5CD010465A460F9932
:104470009047761CD3E017F8040B8DF8000000205D
:104480008DF80100E946012003E057F8049B4FF046
:10449000FF3069074FF0000501D40AE06D1C454567
:1044A0000DDA8542FADB19F805100029F6D106E08D
:1044B0006D1C8542FCDB19F805100029F8D12E444B
:1044C00004E019F8010B5A460F9990476D1EF8D277
:1044D000A5E00A200021CDE90801C5F30250022819
:1044E0000DD001CFC117031E71F100030DDA4FF09B
:1044F000000CD0EB0C006CEB01012D2308E0FF1D3C
:1045000027F00707F7E80201EDE72B0504D52B2379
:104510008DF8283001233BE0EB0739D02023F7E763
:104520000A2000E010200021CDE9080107E010205A
:10453000002145F00405CDE908014FF00808C5F356
:10454000025002280FD001CF00214FF0000A2B07A4
:104550001FD5702A0DD0DDE908C38CF0100C5CEA81
:10456000030C0CD015E0FF1D27F00707F7E8020148
:10457000EBE740228DF828204FF0010A0BE050EACB
:10458000010306D030238DF828308DF8292002232E
:104590009A46582A04D024A20DF120090B9209E072
:1045A00026A2F9E7DDE90823FEF746FF0B9B9B5C9B
:1045B00009F8013D50EA0102F4D1ADEB09002030C9
:1045C0000890680701D44FF001080899884502DD7A
:1045D000A8EB010000E000208046002506E00AA8C4
:1045E0005A46405D0F9990476D1C761C5545F6DB89
:1045F00004E030205A460F999047761CB8F100012C
:10460000A8F10108F5DC05E019F8010B5A460F99ED
:104610009047761C0899481E08900029F4DC641C19
:10462000C5E6000009280100303132333435363711
:1046300038396162636465660000000030313233EE
:10464000343536373839414243444546000000008E
:104650000A68531C0B601070704710B501220221CC
:10466000002001F017F808B1072810D10722022115
:10467000012001F00FF808B1072808D100210A2213
:10468000084601F007F808B1072800D1002010BD46
:1046900003F0E6FA03F02AF90028FBD1104C0121BF
:1046A000208801EB00400FA103F018FA10480068C1
:1046B000C00700D000BE2088022101EB00400DA100
:1046C00003F00CFABFF34F8F0948E43801680D4A34
:1046D00001F4E06111430160BFF34F8F00BFFDE7BC
:1046E000E8420020466174616C206572726F72004E
:1046F000F0ED00E053797374656D20726573657435
:10470000000000000400FA050EB500210091CDE97B
:1047100001106A4644F20100FFF7BAFF0EBD000027
:10472000074B9B7823B12AB120B10068037C1BB1F1
:10473000082070470720704741744261002070478D
:104740007C47002070B504F0BBF9104800240B2111
:10475000047044700E4D817014206C602C706C706D
:10476000FFF7C2F907211420FFF7DFF91420FFF744
:10477000C6F90848046007211120FFF7D6F905485B
:10478000001F0068A860002070BD00007C4700206A
:10479000D82A0020081501402DE9FC47DFF8789061
:1047A00099F8023073B368B3052902D20720BDE837
:1047B000FC87436933B3437C012B25D00027044693
:1047C0000025884616468DF80050684600F038F8F7
:1047D00001A805F037F9C8B1012101700F49446003
:1047E0000968C0E90218C0E904769DF8040089F858
:1047F00001009DF8000000F047F81420FFF78AF947
:104800002846D4E70820D2E70F46D8E704259DF8CC
:10481000000000F039F8F3E77C4700200415014060
:104820000649897839B130B1416921B1002101745B
:10483000022104F021BE0820704700007C470020C0
:1048400030B5EFF3108172B60D4A9468012324B19C
:104850000370002900D162B630BD93604FF0E023B1
:10486000D3F88051074C25401560C3F88041D3F838
:10487000844154605A17C3F8842100220270E8E78B
:10488000C0460020FC06FFBD0B498A68002A11D0F3
:1048900000280FD1EFF3108072B60B684FF0E022C2
:1048A000C2F800314B68C2F8043100228A60002847
:1048B00000D162B670470000C0460020400C01D015
:1048C00000207047012070472DE9FC47002517881C
:1048D0000646158090F82D001446894630B13A46B8
:1048E0002146484600F0EAFA050009D1B0784FF0B9
:1048F0000C0A18B32088C846001DB84202D9504699
:10490000BDE8FC87684679DF0028F9D120880321BB
:1049100008F8001020881921401C80B2208008F877
:1049200000102088401C80B2208000EB0801BDF8F8
:10493000000004F0F4FF218808442080F07802226F
:10494000C8B1218896F9033001F1030C4846BC45F3
:10495000D5D8425421884FF0010C491C89B22180DE
:1049600000F801C02188491C89B2218009F8013072
:104970002088401C20807068B8B1218890F90030F0
:1049800001F1030C4846BC45B9D8425421880A229B
:10499000491C89B2218042542188491C89B2218056
:1049A00009F801302088401C2080308950B1CDE9C1
:1049B00000474B460622022106F1080005F05AF88E
:1049C00005009DD1308A50B1CDE900474B46072202
:1049D000032106F1100005F04DF8050090D1308B51
:1049E00050B1CDE900474B461522142106F11800BD
:1049F00005F040F8050083D1306A30B13B462246CD
:104A0000494601F0C3F80500DBD1706A30B13B467E
:104A10002246494601F086FF0500D2D196F82C00C7
:104A200038B13B4622464946304604F01FFB05009C
:104A3000C7D1307838B13B4622464946304601F06E
:104A4000F9FF0500BDD128465AE7F0B50C4693B0F2
:104A50001F210726ADF80010ADF80410002750B153
:104A6000C17849070DD56A4602A9FFF72DFF002836
:104A700008D102AD02E00025ADF800706CB1E0781D
:104A800010B1304613B0F0BD01AA0AA92046FFF7C5
:104A90001BFF0028F6D10AAA02E00022ADF804703C
:104AA000BDF80400C3B2BDF80000C1B2284672DFF1
:104AB000E8E780F82410704770B50D00044653D025
:104AC000F4B3012020700026E670202205F1780161
:104AD000201DFEF742FD84F82460D5F89800C4F844
:104AE000CC00D5F89C00C4F8D0004FF6FF70A4F8B5
:104AF000C800C4F82560A4F8296084F82B6004F18C
:104B000030003C210646FEF741FD287884F830004D
:104B1000A87884F83200E87884F83300687884F85C
:104B20003100D5E90401C4E91001D5E90201C4E965
:104B30000E01D5E90601C4E9120195F82D0000E047
:104B400012E084F85D00686AD8B104F1780104F1DC
:104B50006C0061676065696A09880180686A616DD7
:104B600080888880002008E00E2070BD696A2218C5
:104B70008968095C82F87810401C616D89888142DF
:104B8000F4D8A86AE8B104F1A400C4F8A0000C3875
:104B9000A065A96A89888180A86AA16D00880880BB
:104BA000002006E0A96A22188968095C82F8A4102E
:104BB000401CA16D89888142F4D895F82C0084F8B6
:104BC0005C00286A48B104F1C4002065296A49885C
:104BD0004180286A216D00880880686800B16063A0
:104BE00005F13C013046BDE87040FFF72EBF10B51F
:104BF0000288102A1AD0112A1FD01B2A1CD1007A31
:104C00000C46002818D1E0780521401CB0FBF1F2D9
:104C100001FB1201204600F037F800280CD0D4F830
:104C2000D010002908D0BDE810400847C27B012AF7
:104C300002D18088A1F8C80010BD0C46002184F87C
:104C4000D4108088B4F8C8108842F5D120790028A3
:104C5000F2D10121DEE710B50C46022801D003286D
:104C600011D1607800280ED000206070E1782046D5
:104C700000F00AF8002806D0D4F8D010002902D09D
:104C8000BDE81040084710BD2DE9FF4704460078F5
:104C90000F4638B1E770002002F066FC012628B10B
:104CA0006670D2E0082004B0BDE8F0870025C4F8A3
:104CB0002550A4F8295084F82B50A07910B1E07841
:104CC000012806D0E07970B1E078012801D00228EF
:104CD00009D1D4F8CC1021B184F82C600820884781
:104CE00001E084F82C5004F1260100200A5C0AB18E
:104CF000304603E0401C0628F8D300204FF002089D
:104D00004FF0030A4FF00409012F06D0022F09D0FB
:104D1000032F0CD0042F12D10DE0A17911B108B1ED
:104D200030460DE0E17911B108B1404608E0207A43
:104D300008B1504604E0607A08B1484600E02846D1
:104D4000E070D4F8CC1041B1032801D0042804D17C
:104D5000607910B194F8D400A8B184F8D5500095CA
:104D60000295019503958DF800508DF80850E17873
:104D700004F1250004F13002052958D2DFE801F0E2
:104D8000670A131F3B0084F8D65084F8D5600720CB
:104D90008847E4E7A67001908DF80060ADF80C50EC
:104DA000ADF80A5043E084F8028001908DF800606D
:104DB000208AADF80C00A089ADF80A0037E0A08A7F
:104DC000ADF80A00208BADF80C00607980B194F842
:104DD000D40068B994F8D60050B18DF8088084F8F2
:104DE000339000211046FFF730FE00BB05211AE08A
:104DF00084F802A01BE0A08BADF80A00208CADF86F
:104E00000C00607988B194F8D40070B994F8D60099
:104E100058B18DF8088084F8339000211046FFF7D0
:104E200014FE20B90621A17001E084F80290E07818
:104E300030B194F82410684673DF00287FF433AF54
:104E4000D4F8CC1009B1A078884700202BE7A570D2
:104E5000F6E7000070B5040012D001461C22144889
:104E6000FEF77BFB1248134D0560206850B17ADFD6
:104E7000002806D12068016829604068686005E064
:104E80000E2070BD0B487BDF0028FAD108484FF692
:104E9000FF711438084A20F8041B054934390160B1
:104EA0000021FFF73DFC0028EBD0032070BD00007F
:104EB000F4440020B82A0020DD9902007CB50546A4
:104EC00008880C460930904201D90C207CBD684608
:104ED0006DDF0028FAD121880820685420881B2122
:104EE000401C80B2208029542088401C80B2208041
:104EF0002844DDF801100160BDF80510818020888C
:104F0000801D80B220809DF80010490800D001214A
:104F100029542088401C208000207CBD70B50446A8
:104F200001884F480322002600884E4D88B002EBCE
:104F30000040232948D01FDC11292CD010DC012986
:104F400064D010290AD148A102F0C8FD072000F062
:104F5000C3FB08B1FFF7D8FBA088A88108B070BDDB
:104F6000132928D02129F9D142A102F0B7FD0096DA
:104F7000A08869468FDF30E03B2940D051294CD0D2
:104F800052292DD05629E9D13FA102F0A7FDA088D2
:104F9000132176DF2CE042A102F0A0FD6E704FF6E7
:104FA000FF71A98108B03046BDE8704004F0FEB83A
:104FB000FFF7AAFBD2E73EA102F090FD00231A46BC
:104FC0008521A8897FDF13E041A102F087FD0096CB
:104FD0000196A0880022694690DF0028E8D1BDE74D
:104FE00045A102F07BFD00231A461946A889A9DFD6
:104FF0000028B3D008B0BDE87040FFF785BB46A1DC
:1050000002F06CFDA088132176DFF1E748A102F0E1
:1050100065FDA088002166DFEAE74CA102F05EFD95
:105020001022A11D04A8FEF798FA9DF8101000297F
:1050300094D09DF81800042803D0062801D0052834
:105040008CD102290AD001208DF800004FF4C170E4
:10505000ADF80400A0886946A8DFBEE70220F3E7A8
:10506000E8420020682A0020436F6E6E6563746515
:1050700064000000504859207570646174652072A6
:105080006571756573742E00424C455F47415454F9
:10509000535F4556545F54494D454F5554000000E9
:1050A000446973636F6E6E6563746564000000002D
:1050B000424C455F4741505F4556545F5345435FFF
:1050C000504152414D535F52455155455354000094
:1050D000424C455F4741505F4556545F44415441FF
:1050E0005F4C454E4754485F5550444154455F52CC
:1050F0004551554553540000424C455F4741545477
:10510000535F4556545F5359535F415454525F4D5A
:10511000495353494E470000424C455F4741545460
:10512000435F4556545F54494D454F555400000068
:10513000424C455F4556545F555345525F4D454D72
:105140005F5245515545535400000000424C455FA5
:1051500047415454535F4556545F52575F4155542D
:10516000484F52495A455F524551554553540000E6
:1051700010B51A4C0188606810290ED011292BD166
:10518000401E606028D1FFF768FA002824D021680B
:10519000002921D0BDE810400847D0B900210122E4
:1051A000084600F077FA08B107280FD1072202213C
:1051B000012000F06FFA08B1072807D1042202216C
:1051C000002000F067FA20B1072802D0216801B161
:1051D00088476068401C606010BD0000B02A002055
:1051E0002DE9F04701883B4E40F2F3194FF6FF7569
:1051F00010291BD011293ED0122954D0502946D154
:10520000C188F289841D914241D1618902293ED130
:105210008688304600F01CFF050038D004F10C00F1
:1052200000F07EF9A8B3294630464EE0C17B87885E
:10523000044601292BD1A846284600F009FF0500A5
:1052400017D02F8000202872234843464A46016821
:10525000C5F80A104068C5F80E0004F1100105F108
:105260000A0001F02CF86872F08900280FD1294655
:105270002AE0042013E0808800F0EAFE040006D053
:105280006068FFF7CDFA08B103F0D2FE2580BDE8D3
:10529000F087FFE76868FFF7C3FA0028F7D0BDE89A
:1052A000F04703F0C5BE87880646384600F0D0FEBA
:1052B0000400ECD02B464A4606F1080104F10A002E
:1052C00000F0FDFF607221463846BDE8F04700F06F
:1052D000A3BC0000F4440020B82A00202DE9F047C8
:1052E000044603883F480122A4B000F1480A102B6D
:1052F00009D0112B54D01A2B70D1217AB2EB111F87
:1053000053D2012352E0D0E911218A430546011D01
:1053100012A803F060FE442212A901A8FEF71DF9AD
:10532000DFF8C0900026374609F144090DF1040862
:105330000AE000BF08EB46001D2283884946281D6D
:10534000009703F00DFE761C0198B042F2D8686C0D
:10535000A688C04303F026FEA0F57F41FF3917D091
:1053600005EB40000123868032465146281D03F09C
:1053700057FE012332464946281D03F051FEE07BCB
:1053800002280BD000231749A2884C31281D20E0A9
:1053900024B00420BDE8F047FFF7B6B90123F2E7D7
:1053A0000023A2885146001D13E000230D49054645
:1053B000A2885031001D03F033FE207A0221B1EBA8
:1053C000101F01D2012300E000230649A2885431B6
:1053D000281D24B0BDE8F04703F022BE24B0BDE88C
:1053E000F08700001045002030B5174B0D46040033
:1053F0000FCB85B08DE80F0023D015B34FF6FF70AB
:10540000A0822868A0610020A0752146684662DF5E
:10541000002814D120788DF812000120ADF810007A
:10542000A21C04A9A0DF002809D12946204603F0C8
:10543000ADFB002803D12946204604F003FA05B04D
:1054400030BD0E20FBE70000989B02007FB50029CD
:1054500017D0002815D00288102A0DD0112A0DD09F
:10546000502A0FD0572A0CD11A4B1868D3E90223BF
:105470008DE80F0089692AE0808801E04FF6FF700F
:1054800088827FBD01910C46821DC3880989002551
:1054900012308B4202D1518902290CD0A1898B4252
:1054A000EFD1A1690029ECD002905089ADF80C0031
:1054B0008DF800500AE000F033F818B10120A07513
:1054C000022001E0A57503208DF80000A16968465F
:1054D00088477FBD889B02001FB560B1838AA3F512
:1054E0007F44FF3C09D0837D3BB11388F42B06D960
:1054F000072004B010BD0E20FBE70820F9E70023C9
:1055000000930193029303938388CDE90221ADF8C0
:10551000003001218DF80210808A6946A6DFE8E795
:10552000007800F00100704707490B5C4FF0A04184
:10553000D1F804250120984020EA0203C1F808357B
:105540001040C1F80C057047459B02000249085CF9
:10555000012102F0D1B80000459B02000249085C1D
:10556000002102F0C9B80000459B02000649095C11
:105570004FF0A040D0F80405C84010F0010000D062
:10558000012080F001007047459B020010B5002407
:105590002046FFF7DBFF641C042CF9D310BD10B5C7
:1055A00000242046FFF7DAFF641C042CF9D310BD59
:1055B00010B50246064B4FF0FF3000215C5C944270
:1055C00001D1084610BD491C0329F7D310BD0000C6
:1055D000429B02002DE9F05F884606460024FFF753
:1055E000E7FF054603284DD2DFF89CB0DFF89C901A
:1055F000274FABF1040AB8F1000F1AD0B8F1010F30
:1056000009D0B8F1020F3DD100EB40003844042E20
:10561000447835D029E0042E03D1D9F80800FFF7EB
:10562000FFF805EB45003C5C384481780BF8051029
:105630001BE0042E03D0D9F80800FFF7F1F805EBC2
:10564000450038441BF805108078814200D104469B
:10565000042E0AD10C4A4FF4C031521ED9F808006A
:10566000FFF79AF808B98AF80360002C0AD000BF47
:10567000DAF80C10002905D02046BDE8F05F084795
:105680001524F5E7BDE8F09FA42A00204C9B0200FA
:105690009444002070B50023032810D20D4D00EB78
:1056A0004004012A02D101290CD00022094E00EB4E
:1056B0004000304461B1012906D0022906D00723F9
:1056C000184670BD0E30C2B22A55F9E74270F7E7AE
:1056D0008270F5E794440020044A01460020127AC3
:1056E000D20702D0084600F003B87047A02A002075
:1056F0002DE9F05F6A4C054600266078B34618B184
:1057000084F801B000F00EFE664F4FF47A694FF452
:10571000C87A4FF00108182D62D2DFE805F0AC0C12
:105720000C31404D62676B746B74BE7D7D7D7D7DF9
:10573000ACAFB2B5BEBE0020FFF718FF00284FF097
:10574000000008D0FFF702FF022D02D14FF4E16004
:1057500008E0484606E0FFF701FF022D01D1C8200E
:1057600000E05046410CC0034FF4FA72801841F13A
:105770000001257052000023FDF75EFE01462AE07D
:105780000020FFF7F3FE00284FF0000004D0FFF7E1
:10579000DDFE4FF44870E5E7FFF7E0FEDFE70020AD
:1057A000FFF7E4FE00284FF0000002D0FFF7CEFE26
:1057B000CFE7FFF7D3FED4E70020FFF7D7FE00289E
:1057C0004FF0000002D0FFF7C1FE01E0FFF7C6FE78
:1057D000257041F69A1100223868FEF7DDFF064673
:1057E00046E00020FFF7A0FE257008E0002051E011
:1057F00025703DE084F801800120FFF795FE00222E
:1058000040F6CD41E8E784F801800120FFF78CFEE7
:1058100000224FF48041DFE77868FFF701F8064681
:10582000D5F1110000D02EB10220FFF78FFE84F8D1
:1058300002B01DE0012816D980B2C8214843C11723
:10584000C90341EA5041C0034FF4FA72801841F194
:10585000000152000023FDF7EFFD014600227868A9
:10586000FEF79AFF06460220FFF778FE84F80280D2
:105870003046BDE8F09F00F055FDB9E700F052FD5D
:10588000B4E700F04FFD04E000F04CFD0020FFF70E
:1058900065FE0120FFF762FEAAE7FFF780FEA7E79B
:1058A000A02A00204C9B0200F8B5871C00208DF830
:1058B00000000E4601256846FEF7C2FF124C206824
:1058C0003060D4E90001401AA168091ABE1C06E044
:1058D00000F0DCFDD4E90001401AA168091A491C56
:1058E0008E42F5D8A1682068084004EB8000C168AA
:1058F00041F00301C1602068384420609DF8000039
:10590000FEF7C2FF2846F8BD8849002030B48268FF
:105910000468531C8360A154D0E901128A4202D367
:1059200030BC01F028BD30BC70470000034803C8FC
:10593000814201D101207047002070478849002032
:105940000249084490F92C0070470000DC45002013
:10595000F0B5334C07460325208889B005EB00409D
:1059600030A102F0BBF800BF01F0C0FF0028FBD15E
:10597000304E012030A2707107CA04AB002F83E8BB
:10598000070040D002A98B1D0A1D02A8811C00F04F
:10599000AFF9BDF80E10BDF80C00CDE9000120886C
:1059A000BDF80A30BDF8082005EB004025A102F043
:1059B000B1F8BDF80E10BDF80C00CDE90001BDF83E
:1059C0000A30BDF8082026A104A8FEF79BFC208819
:1059D00004AA05EB004025A102F084F804A8FDF715
:1059E000E0FDADF81C0007AA04A92948FFF774FDE3
:1059F0000246208827A105EB004002F073F8002042
:105A0000707109B0F0BD2088727805EB004025A1C7
:105A100002F068F801F06AFF0028FBD1EFE7000010
:105A2000E8420020636865636B5F66756E63746946
:105A30006F6E2E00682A002030307C30307C303091
:105A40007C303000646C76722072656164203D2089
:105A500025642C2025642C2025642C20256400003E
:105A600025787C25787C25787C25780053656E64C4
:105A700020627574746F6E2073746174652063683E
:105A8000616E67652064617461203D2025730000AC
:105A90004C4300206572725F636F6465203D202572
:105AA00064000000626C655F636F6E6E65637420F6
:105AB0003D202564202E000070B5084C050009D05B
:105AC00010342168002907D00868206049682846FA
:105AD0008847F6E70834F4E770BD0000C8450020A9
:105AE0002DE9F05F26484168F1B3DFF898B00E6801
:105AF0008146DBF8004087688078E11B21F07F4514
:105B0000ED1CB0B9DFF880804FF48030C8F8440352
:105B1000C8F804031120FDF7E7FF1120FDF7EFFFA0
:105B20004FF0010AC8F800A02F2001F065F989F8AC
:105B300002A0B54200D23546124BE8193C3320F0A2
:105B40007F401860DBF800105A46091B21F07F41A6
:105B5000001B20F07F40C91C81420FD910681860DB
:105B60002F2001F049F900E004E0BDE8F05F1120CA
:105B7000FDF7D0BFBDE8F05F02F0A2BFBDE8F09F27
:105B8000D82A002004150140001001402DE9F04101
:105B900017880646B81D14460D46984202D90C20B7
:105BA000BDE8F0813188072206290AD34FF4486CFA
:105BB0004FF6FF73614501D9994202D170880628DA
:105BC00001D21046ECE7604501D99842F9D19942DB
:105BD00003D0984201D08142F3D80520E8552088AF
:105BE0001221401C80B2208029542088401C80B2A1
:105BF00020804119308803F092FE2188084480B249
:105C000020804119708803F08AFE21880844208092
:105C10000020C5E7FEF778BD38B54A7A0F4B62B170
:105C200000220A725969002906D001228DF800204D
:105C3000ADF802006846884738BD0A7A62B19B68B1
:105C40004C68024619462046FEF7A6FD0028F3D010
:105C5000BDE8384003F0ECB95B68F1E7F44400209C
:105C60007CB50446114E01EBC405042130882A7B23
:105C700001EB004023460EA101F03BFF0020009005
:105C80000190287BADF80000287BADF802000022CF
:105C90006946204690DF030007D03088012101EBE0
:105CA00000402246114901F024FF7CBD64420020DF
:105CB00052657175657374696E6720746F207570B5
:105CC000646174652064617461206C656E677468DA
:105CD00020746F202575206F6E20636F6E6E656374
:105CE00074696F6E20307825782E000074A0020051
:105CF0002DE9FE4F1E4C80460F46208803251E4688
:105D0000914605EB00401BA101F0E8FE01F0EEFD1D
:105D10000028FBD1042202A91C20FEF74DFA82467E
:105D20009DF80B109DF80A00CDE9000120889DF830
:105D300009309DF8082005EB004012A101F0EAFEB1
:105D400001F0D4FD0028FBD1042000F0C3FF9DF832
:105D50000810A8F800109DF8090038809DF80A1076
:105D6000A9F800109DF80B0030805046BDE8FE8F6A
:105D7000E8420020646C767220697320737461724B
:105D80007400000058595A5F4932435F7265676971
:105D9000737465725F726561642072656164203D31
:105DA0002025642C2025642C2025642C20256400CB
:105DB0000E4910B50A784C780023A24212D0521C2A
:105DC000D2B20A70022A00D10B70084A0B780C324A
:105DD00052F8232002608868104420F07F408860D9
:105DE000012010BD0360002010BD0000D82A002053
:105DF000014801F019BA0000B89D020030B5044610
:105E0000006885B00D46806800281CD014216846C3
:105E1000FDF7BCFB0195A0680490207910B1012822
:105E20000DD104E001208DF80000206904E002207B
:105E30008DF80000E068000302906069039020681C
:105E400081686846884705B030BD000070B50A4ECD
:105E50000024E0B2002102F06BFD002505EBC41028
:105E60000121305CFDF772FE6D1C802DF6DB641C99
:105E7000082CEEDB70BD00003050002010B500286B
:105E800021D0114B0022001F196803E0814203D882
:105E90000A4649680029F9D152B11368841A9C4214
:105EA00004D1006818441060104602E0506000E021
:105EB000186039B102680B1A934203D10B681A4477
:105EC00002604968416010BD4442002001464368B9
:105ED0000C480322008802EB004013B10AA101F034
:105EE000FDBD0A78012A07D0022A09D1D1E9023280
:105EF00012A100BF01F0FDBDD1E9023217A1F9E7FF
:105F000070470000E84200202D2D3E204552524FA0
:105F100052207768696C6520657865637574696E71
:105F20006720616E206673746F72616765206F70A1
:105F300065726174696F6E2E000000002D2D3E2089
:105F40006572617365642025642C2020616464722D
:105F500065737320307825782E0000002D2D3E20AB
:105F600077726F74652025642C2061646472657398
:105F70007320307825782E0070B5044610484A8882
:105F8000104D838903269A420FD10A88A2F5206317
:105F9000773B0AD18988C91E8AB2C28128881346F4
:105FA00006EB004008A101F0A4FD28882388628840
:105FB00006EB0040BDE870400AA101F09ABD000068
:105FC000682A0020E842002044617461206C656EFC
:105FD0002069732073657420746F203078255828E9
:105FE00025642900415454204D5455206578636838
:105FF000616E676520636F6D706C657465642E20DB
:1060000063656E7472616C203078257820706572DB
:106010006970686572616C20307825780000000036
:1060200010B50949094800F0D6FD08B1FEF76CFB30
:106030004021064800F0C3FD002803D0BDE8104011
:10604000FEF762BB10BD0000795F020068430020CC
:106050000146034802888A4200D0002070470000B1
:10606000E04400202DE9FC5F0E008346DDE90C478B
:10607000C6F1000098469246814600D408460125A4
:1060800003E000BF90FBFAF06D1C5045FADAA8451A
:1060900000D9454624B1002E01DB780700D5641EE7
:1060A000B80702D5B8F1000F0AD0F80708D13CB103
:1060B000A54205D220215846641EFFF727FCF6E7CB
:1060C000002E02DA4E462D2102E0780703D52B215F
:1060D0005846FFF71BFC07F0030002280BD1B8F16C
:1060E000000F08D13CB1A54205D230215846641EAC
:1060F000FFF70CFCF6E7CDE9004743465246314630
:10610000584603F011FCBDE8FC9F2DE9F84300253B
:106110001646884604462F4614E04FF4A07000EB64
:1061200085004FF480312258A9404AB1D4F80423A5
:106130000A4205D0275021580091D8E90021904704
:106140006D1CEDB2B542E8D3BDE8F8832DE9FF47F9
:106150000D464FF492770446394602F0B1F84FF0FD
:1061600002094FF001084FF4827640B139462046CB
:1061700002F0ABF83146204602F0A2F8B0B3B246C6
:106180003146204602F09CF84FF0FF36002770B3EE
:106190005146204602F099F805F10C0001AB07C802
:1061A00083E8070095F8230078B1287B01282DD0DB
:1061B000D4F84C05C0B28DF80600287B022828D000
:1061C000D4F84C05C0B28DF807004FF4B0712046EA
:1061D00002F07BF84FF4AE71204602F076F895F8A5
:1061E000250080B395F8230068BB3CE000E013E095
:1061F000A868C4F80803C5F80890A868C4F80403A0
:10620000C4F82080C4F81480BDE8FF87D4F83C05AA
:10621000D0E7D4F83C05D5E74FF4A471204602F04E
:1062200054F8287B80B14FF40070C4F80002801C41
:10623000A860C4F80863A868C4F80403C4F8088018
:10624000C4F82080E0E708E005F10C0001AB07C8C6
:1062500083E8070095F8250028B90020C4F800025B
:10626000AF60C4F80863D4F8C404C4F8C404810758
:1062700002D58DF8008006E0400702D58DF8009029
:1062800001E08DF8007095F8250008B985F82470B4
:10629000D5E9002168469047B6E70000012181401A
:1062A00003484068014201D0012070470020704738
:1062B000C02A0020014601208840FEF7FFBAF0B551
:1062C0008488A518944200D82246A41AC288D618F9
:1062D0009A4200D81346D21A4B880788BB420CD387
:1062E0004088834209D88888A04206D3A84204D8AF
:1062F000C888904201D3B04201D90020F0BD0120EE
:10630000F0BD01218140C80300D001207047026820
:10631000134602E08A4204D01268002AFAD10B60C8
:10632000016070470A4810B5807860B1002401E030
:10633000022C06D02046FFF709F9641C042CF7D381
:1063400010BD0324F6E7BDE81040FFF71FB90000B9
:10635000A02A002006490120086006480168C1F310
:1063600000410029FAD104490020887070470000DC
:106370000C00004018040040C8450020F7210180AF
:1063800017214180002101714171FB2181711B2185
:10639000C17170472DE9F047394E002780463D46D0
:1063A000DFF8E090D6F804A057E003D00446D0F818
:1063B0001C8035E099F8002002EB4201521CD2B259
:1063C00089F8002009EBC10199F80230091D9A42B1
:1063D00001D189F8005048680A780446012A12D091
:1063E000022A02D0032A3BD108E003F015F800B1DD
:1063F0000127257434E00574C06900E07068002846
:10640000F9D170602CE0207C50BB88686060C8685F
:10641000A0600869E0604869A061F07800B165603B
:106420006268B168184B501A20F07F40984202D23F
:10643000A168084406E0881AA16820F07F408142E4
:1064400002D9081A206000E0256065600120A5607F
:1064500020742046E56102F0C1FFB8F10000A4D12C
:1064600099F8001099F801008142A3D117B9716819
:10647000514502D00120BDE8F0870020FBE7000075
:10648000D82A00207C470020FFFF7F0070B588B02D
:10649000214800F033FB2048001F064600F02EFB89
:1064A0001E4DD5E9014105E0C0F3891202EB905081
:1064B000641C044404EA010005EB8000C068820704
:1064C000F2D000200DF1080204EA010305EB83037A
:1064D000641CDB6842F82030401C0228F4D3029888
:1064E00000F00300012808D002280AD102980321F5
:1064F00001EB905004EB900403E00298C0F383108A
:1065000004443046002101AAFCF74FFF002800D0C8
:106510006C6008B070BD0000A04D002088490020CC
:106520004FF4FA64A8B0204600F0CFFB032001F03E
:10653000B1F80121032001F0D4F801203DDFFEF77E
:1065400001F908B1FEF7E0F8002001F043FB08B1C3
:10655000FEF7DAF801F0BCF98E4F03268EA13888D9
:1065600006EB004001F0BAFA03F03AF8204600F0DA
:10657000ACFB02F0C5FA01F0D7FD08B1FEF7C4F894
:10658000002469460120009401F072FC08B1FEF776
:10659000BBF8684601F016FD08B1FEF7B5F89DF8A6
:1065A00008008CA120F00F00401C20F0F0001030FB
:1065B0008DF80800072202A87CDF08B1FEF7A4F8D6
:1065C0004FF4C87A00940194ADF800A04FF44871DC
:1065D000ADF80440ADF80210ADF806A068467ADFC9
:1065E00008B1FEF791F8FFF71BFD7C480090694663
:1065F0007B48FEF7F9FE08B1FEF786F8A021684651
:10660000FCF7C4FF02208DF800008DF80240062040
:106610008DF803004FF001087249ADF84C801491D9
:106620002820CDE92204704826906D488DF87C80A2
:1066300069463030FEF740FA08B1FEF765F8684861
:1066400001213030FEF735FA1C216846FCF79EFF29
:106650004FF42030CDE900404FF4702002906348A1
:10666000059063488DF80C600690ADF80E408DF8EB
:1066700010406846FEF7EEFB08B1FEF745F8594DAD
:106680005CA1103D6C72388806EB004001F026FAE0
:106690006C72AC72EC72AC706C702C7101F026F9FB
:1066A0000028FBD1388860A106EB004001F016FA03
:1066B0004B4803213030FEF7E7FA08B1FEF724F823
:1066C000E87990B338885BA106EB004001F006FA48
:1066D0003888444A06EB0040173264A101F002FA00
:1066E00001F004F90028FBD13E481730FCF759FFB0
:1066F0003C49ADF800006A4617313948FEF7ECFE18
:10670000814638884A4606EB00405C4901F0EAF9C8
:1067100001F0ECF80028FBD15FEA090001D0FDF799
:10672000F3FFEC7185F8088002E0FFE7287A60B398
:10673000388853A106EB004001F0D0F901F0D6F8FB
:106740000028FBD127481030FCF72BFF2549ADF876
:1067500000006A4610312248FEF7BEFE81463888A6
:10676000204B06EB004010334A46524901F0C1F974
:1067700001F0BCF80028FBD15FEA090001D0FDF769
:10678000C3FF6C7285F801802C72504600F09DFAB0
:1067900096E70000E84200203D3D3D3D3D3D3D3D4A
:1067A0003D3D3D3D3D3D3D3D3D3D3D3D3D3D3D3D19
:1067B0003D3D3D3D2020202070726F6772616D204D
:1067C000696E697420737461727420746573747473
:1067D00074740000532D544543482000D9820200B0
:1067E0004C430020782A0020558402007584020062
:1067F000155C02003D3D3D3D3D3D3D3D3D3D3D3D4A
:106800003D3D3D3D3D3D3D3D3D3D3D3D3D3D3D3DB8
:106810002020202070726F6772616D20666F722079
:1068200073746172740000005541525420537461B6
:106830007274210077726974655F646174615F636B
:1068400068616E67655F666C6167207374617274FE
:1068500020202D2D2D2D2D2D2D2D2D2D2D2D2D2D82
:106860002D2D2D2D2D2D2D2D2D2D00006F6B5F64C9
:10687000617461203A20257300000000C09E020070
:10688000737465705F646174615F73656E645F6685
:106890006C616720737461727420202D2D2D2D2D55
:1068A0002D2D2D2D2D2D2D2D2D2D2D2D2D2D2D2D18
:1068B0002D2D2D00089F0200F0B50B30154D20F056
:1068C00007010024144A0FE003688B420BD38B426C
:1068D00005D95E1A43184768C3E9006700E04368BA
:1068E000136002C004E0021D10680028ECD12046AD
:1068F000002802D1286808B10020F0BD064A0748E8
:106900001060074A121A22F00702C0E90024012091
:106910002860D7E7484200204442002064640020F9
:106920006084002070B5144682880E460546208893
:10693000111D0144921C994201D8FE2A01D90C2054
:1069400070BD521C32542088FF21401C80B2208030
:1069500031542088401C80B220808119288802F0A0
:10696000DEFF2188084480B22080AA8842B1A9684D
:1069700041B13044FCF7F1FD2088A988084420800B
:10698000002070BD072070BD2DE9F047C788044680
:10699000181D16468946B0FBF7F1B0FBF7F207FB6E
:1069A00012009A193A44D21CB2FBF7F2DDF820A08B
:1069B00001E02468491E0029FBD13D1A8846B542F2
:1069C00016D818E0BAF1000F05D0211809EB08001D
:1069D0002A46091D04E0204409EB08012A46001D4F
:1069E000FCF7BBFD00202468761BA844B74201D900
:1069F000354600E03D46002EE4D1BDE8F0870000BA
:106A000030B5024669B101F013F90021084C0BE0E2
:106A100001EB410304EB830315685B88AB4202D1B1
:106A20001160002030BD491C8142F1D3052030BDEA
:106A300064420020F8B50E46017814460546012947
:106A400001D1687830B12088821C9A422DD8012962
:106A500002D006E00720F8BD69780144891C9942FC
:106A600023D8181A801E87B2ADF800702188B01C98
:106A7000084469467DDF0028EDD12878022805D139
:106A8000BDF80010B94201D809210AE00821012807
:106A900005D16878B84202D8ADF8000001E0ADF841
:106AA0000070BDF80000FE2801D90C20F8BD228836
:106AB000401CB0542088401C80B220803154208873
:106AC000401C2080BDF80010084420800020F8BD44
:106AD00010B50A8849888A4203D1FCF7DDFB012002
:106AE00010BD002010BD70B50C460546FCF7B7FB85
:106AF000002802D061882868084470BD08B50121CB
:106B00006A46FCF745FC009808BD38B504460025E8
:106B10008DF800506846FDF793FE216862680868AA
:106B200090420ED9401E08600178238AE26801FB7A
:106B30000325227A2168101AC0B20A79824200D253
:106B400008719DF80000FDF79FFE284638BD38B556
:106B5000054600208DF800000C466846FDF770FEE3
:106B6000E868298A201AB0FBF1F12A681068431CF2
:106B7000136001709DF80000FDF786FE38BD10B56A
:106B800030B1017A42680368891AC9B21A6006E016
:106B90000E2010BD03681A68541C1C601170491E39
:106BA000C9B2F7D2006800210171084610BDC208C1
:106BB00000F007030120895C98400840704728B125
:106BC000A1F11702E12A03D3072070470E20704776
:106BD00001800020704710B560B10161F72120F8F5
:106BE000021B20F8021BFB2100F8021BFFF7C6FB6B
:106BF000002010BD0E2010BD70B585880C46002DFC
:106C00004DD1018824291FD006DC102909D0112973
:106C10000CD0232921D11CE03A290BD055291CD1B5
:106C20000DE00146204601F033FC16E0A01DFFF701
:106C3000A5FB12E00146204601F028FE0DE00146CA
:106C4000204601F093FD08E00146204601F08CFC4F
:106C500003E00146204601F017FDA07A00281ED06F
:106C6000E18828469EDF02000D484FF0010109D05F
:106C7000112A14D00088BDE8704001EB004009499A
:106C800000F030BF0023A372E1720088E288BDE803
:106C90007040042101EB0040034900F02ABF70BDA1
:106CA00064420020A49F02005C9F020000F180402B
:106CB0000068002800D00120704708B500F180402E
:106CC000002101600068009008BD4FF47A714843CC
:106CD00000F006B84FF47A71484300F0D3B80000D2
:106CE00000283ED01F49204A096800BF00BF00BFEE
:106CF00000BF00BF00BF00BF00BF91422FD000BF48
:106D000000BF00BF00BF00BF00BF00BF00BF00BF8B
:106D100000BF00BF00BF00BF00BF00BF00BF00BF7B
:106D200000BF00BF00BF00BF00BF00BF00BF00BF6B
:106D300000BF00BF00BF00BF00BF00BF00BF00BF5B
:106D400000BF00BF00BF00BF00BF00BF00BF00BF4B
:106D500000BF00BF00BF00BF00BF00BF00BF0138C1
:106D6000C3D170473C4200200024F40000283ED0EC
:106D70001F49204A096800BF00BF00BF00BF00BF15
:106D800000BF00BF00BF91422FD000BF00BF00BFB7
:106D900000BF00BF00BF00BF00BF00BF00BF00BFFB
:106DA00000BF00BF00BF00BF00BF00BF00BF00BFEB
:106DB00000BF00BF00BF00BF00BF00BF00BF00BFDB
:106DC00000BF00BF00BF00BF00BF00BF00BF00BFCB
:106DD00000BF00BF00BF00BF00BF00BF00BF00BFBB
:106DE00000BF00BF00BF00BF00BF0138C3D1704764
:106DF0003C4200200024F40000283ED01F49204AD5
:106E0000096800BF00BF00BF00BF00BF00BF00BFD8
:106E100000BF91422FD000BF00BF00BF00BF00BF26
:106E200000BF00BF00BF00BF00BF00BF00BF00BF6A
:106E300000BF00BF00BF00BF00BF00BF00BF00BF5A
:106E400000BF00BF00BF00BF00BF00BF00BF00BF4A
:106E500000BF00BF00BF00BF00BF00BF00BF00BF3A
:106E600000BF00BF00BF00BF00BF00BF00BF00BF2A
:106E700000BF00BF00BF0138C3D170473C420020B3
:106E80000024F40000283ED01F49204A096800BFB2
:106E900000BF00BF00BF00BF00BF00BF00BF9142E6
:106EA0002FD000BF00BF00BF00BF00BF00BF00BFAA
:106EB00000BF00BF00BF00BF00BF00BF00BF00BFDA
:106EC00000BF00BF00BF00BF00BF00BF00BF00BFCA
:106ED00000BF00BF00BF00BF00BF00BF00BF00BFBA
:106EE00000BF00BF00BF00BF00BF00BF00BF00BFAA
:106EF00000BF00BF00BF00BF00BF00BF00BF00BF9A
:106F000000BF0138C3D170473C4200200024F40088
:106F100070B50F4C0025207808B1852516E00021BA
:106F2000A16061602161E1604FF0E020D0F80001D4
:106F3000012610F0010F03D10721002000F056F8C0
:106F400001F03AF908B9034806602670284670BD7A
:106F5000C84500201805004008B500208DF8000045
:106F60006846FDF76DFC0648C168491EC160C068EF
:106F700008B9FFF7EFF99DF80000FDF785FC08BDA3
:106F8000C8450020F8B5174D0446A878002648B13A
:106F900014B16168012088478DF800606846FDF7EC
:106FA0004FFC17E08DF800606846FDF749FC24B1FE
:106FB0000C4821461030FFF7AAF9E86850B94FF4A1
:106FC0008270FFF77AFE02204107C1F804030649E8
:106FD00001200860E868401CE8609DF80000FDF7AB
:106FE00053FCF8BDC8450020080000404907090EC1
:106FF000002806DA00F00F0202F1E02282F8141DE8
:1070000003E000F1E02282F8001400F01F020121E9
:1070100091404009800000F1E020C0F88012C0F8E3
:10702000001170470121B1EB507F01D10120704761
:107030000020704770B505460024FFF73BF968B1A2
:107040002846FFF75EF918B12846FFF727F938B14F
:1070500004490120A8400860204670BD0724FBE7D2
:107060000824F9E704F501402DE9F04105464FF405
:10707000A07000EB810086B228684FF480348C4009
:10708000C0F848432868C0F8084322F07F406A7976
:10709000154F02EB42023A445278002A2A6802EB6A
:1070A0008101C1F8400512D02968D1F80425111AD0
:1070B000824202D26FF07F400144687900EB4000C9
:1070C00038448078884202DD0D20BDE8F08133B17C
:1070D0003146286800F0A2FE2868C0F804432868FA
:1070E000C0F844430020F0E7C82A002001680122CC
:1070F0000A604079024A00EB4000022111547047B7
:10710000C82A002070B50D4604465AB1607914496A
:107110000E1F41F82020607900EB4000305C18B170
:10712000082070BD072070BDA97894F90400FFF70E
:107130005DFF20682988C0F808156179287901EB7E
:107140004101314448706179E87801EB41013144F3
:1071500088706179012001EB41017054002070BDFD
:10716000CC2A00202DE9F0479146884604464FF48A
:1071700080354FF4A0760027DFF884A016E000BF2A
:10718000D4F8040328420DD0A05958B1C4F848538C
:10719000C4F808533146204600F040FE5AF8281043
:1071A000F8B28847361D6D00B6B27F1C4F45E7D355
:1071B000D4F804034FF4807110F0010F09D0D4F813
:1071C000000130B1204600F029FE5AF828100420B2
:1071D0008847D4F804034FF4827110F0020F0CD0EA
:1071E000D4F80401002808D0204600F017FE5AF811
:1071F0002810BDE8F04705200847BDE8F0870000EB
:10720000CC2A002070B50E4605464FF4807101244B
:10721000006800F003FE2868C0F84443002E02D046
:107220002868C0F8044370BD016801220A60007933
:10723000034A00EB400002EB80000221017270471C
:10724000A84600200179064A01EB8101006802EBA3
:10725000C1010622C0F80025022081F822007047F3
:107260002C46002070B506460D4600791F4900EBFC
:10727000800001EBC00494F8220008B1082070BD22
:107280000020C4E90023A06084F8250084F82400CD
:10729000A87B84F82700687B10B1284602F04AF9E1
:1072A000296840F20C60890001F1A041C1F8000793
:1072B0006968890001F1A041C1F80007D5E9001211
:1072C0003068C0F80815C0F80C25A968C0F8241566
:1072D000206828B13068297B000B40B2FFF786FE9A
:1072E000012084F82200002070BD00002C46002000
:1072F0003EB5074D2C68AD6800948DF801100192E1
:1073000002958DF802300022694600F015F83EBD66
:10731000AC9B02003EB500250095069C8DF801103F
:1073200002958DF8023001920CB1202200E000227B
:10733000694600F001F83EBD30B40379064C03EB1A
:10734000830304EBC304006813460A460146204643
:1073500030BC02F05BB900002C4600200FB408B529
:107360000399002904D004AA00926A4600F00FF89D
:1073700001B05DF814FB10B582680446002A05D000
:10738000D4E90403216898470020A06010BD2DE9CE
:10739000FC4791460C00804676D014F8011B39B1A9
:1073A00025290ED04046FEF7B1FA20780028F4D106
:1073B00098F80C00002867D04046BDE8FC47FFF76E
:1073C000DABF0020012221782B291BD02D2902D0E1
:1073D000302908D102E040F0010001E040F0020055
:1073E000641C002AEFD100252A290ED02178A1F1B2
:1073F00030020A2A11D205EB850201EB4205641C1A
:10740000303DF1E740F00400EAE7D9F800100B1D29
:10741000C9F800300968641C0D44217800232E2926
:107420000BD114F8011FA1F130020A2A05D203EB97
:10743000830201EB4203303BF3E76C290DD068294E
:107440000BD0692921D00BDC252918D0582931D03F
:1074500063290ED0642915D117E014F8011FECE759
:10746000702969D0732932D075291BD0782909D1A8
:1074700020E0D9F80000011DC9F80010017840464D
:10748000FEF744FA641C90E76CE0D9F800100A1D7E
:10749000C9F800200968CDE900500A224046FEF7ED
:1074A000E1FDEFE7D9F800100A1DC9F800200968CE
:1074B0000A2206E0D9F800100A1DC9F80020096860
:1074C0001022CDE90050404602F02EFADAE7D9F852
:1074D000001000270A1DC9F800200E68C00705D15A
:1074E00012E04046761C7F1CFEF710FA3178002926
:1074F000F7D104E0202140466D1EFEF707FABD4299
:10750000C0D9002DF6D1BDE74EB13046FCF749F8A1
:10751000074604E0202140466D1EFEF7F7F9BD4204
:1075200006D9002DF6D103E04046761CFEF7EEF9B1
:1075300031780029F8D1A5E7D9F80000011DC9F874
:107540000010056830214046FEF7E0F978214046FA
:10755000FEF7DCF908200021CDE9000103461022E6
:107560002946B0E7BDE8FC872DE9F04128B1016864
:1075700019B1C969BDE8F04108470D4D0D48002417
:10758000461B14270DE000BF04EB840005EB8000D0
:10759000016829B1C969884710B10120BDE8F081AF
:1075A000641CB6FBF7F0A042EED80020F6E700001E
:1075B0005042002064420020044801214174007AB6
:1075C00008B1002070470120704700005847002094
:1075D000012801D0032808D10449002201284A7457
:1075E00000D00020087401F01FBA704758470020EF
:1075F00070B5254C0246207A012837D0022841D1A7
:1076000022480023022A006802D0032A2ED11BE060
:10761000E360017911B1012928D10DE0D0E90565B8
:10762000711B4FF48056B14200D331462944816129
:107630004569A9420ED019E00169491C01614269FE
:10764000914213D1237217E0E168491CE1600829D7
:107650000CD9E3602372022A0ED00D21FEF7CEFB77
:107660000B480A49091D0068FFF732FA607C28B10F
:10767000BDE8704000F0A6BD0021EFE7BDE8704016
:1076800001F0D2B970BD000058470020D02A002078
:10769000C89B02004FF0A04202EB80000321C0F81B
:1076A000001770474FF0A04202EB8000D0F800278F
:1076B00022F44032C0F80027D0F8002742EA014106
:1076C000C0F8001770474FF0A04201218140C2F876
:1076D000081570474FF0A04201218140C2F80815FB
:1076E000704701224FF0A043824011B1C3F8082532
:1076F0007047C3F80C25704701224FF0A043824029
:1077000011B1C3F808257047C3F80C257047000075
:1077100018B5084B6C4601441B68009306E000BF97
:1077200054F82030D3F81035401C08C28142F7D8F5
:1077300018BD0000A89B0200034908B508440021B9
:1077400001600068009008BD006000400249405898
:10775000012800D0002070470060004030B5124B77
:1077600001460020D3F81044224609E0157A8542EC
:1077700005D1401C0A28F7DB4FF0FF3030BD5268BE
:10778000002AF3D1421CF9D00872D3F810242AB190
:1077900052684A60D3F81024516030BD0022C3F80B
:1077A00010144A6030BD0000884900207047FCF783
:1077B0000FBB704708B5034A00924023024A00F00D
:1077C00005F808BD4190020088480020F0B595B04A
:1077D0001C4615460F4608461A9E00F0F9FA182175
:1077E00009A8FBF7D3FE0E96CDE909540023082221
:1077F00003A9384600F006FB059806900498ADF8FA
:107800001C0000208DF820000398082600F00300DB
:10781000012802D002281DD03CE003983346850A97
:10782000C0F3C2008DF81E0003980FA9C0F38000BA
:107830008DF81F000398C0F38314A200384600F0AF
:10784000E1FA09A8009006AB22460FA9284600F0ED
:107850001BFA1FE00398840DC0F3C2008DF81E00D0
:107860000398C0F380008DF81F00082C01D2254634
:1078700000E0082533462A460FA9384600F0C2FA30
:107880002E44641B09AB06AA29460FA800F04CF948
:10789000002CEAD1384600F0A4FA15B0F0BD000083
:1078A0000A4A012902EBC00007D0022907D00329A8
:1078B00007D0042907D00020704702207047042019
:1078C000704700797047407970470000FCA60200BD
:1078D00010B5FFF76CFF04210348FFF73FFF024993
:1078E0000120487210BD0000EC2A00202DE9F04F65
:1078F0008DB0FEF71BF818B100200DB0BDE8F08F79
:1079000074480021C0F81814BFF34F8FD0E9014626
:1079100004EA060100EB81014FF000090AE000BF14
:10792000C1F3891202EB9151641C0C4404EA060174
:1079300000EB8101C9688A07F2D0002103AA8046C2
:1079400004EA060008EB8000641CC06842F82100CD
:10795000491C43460229F3D3039800F00300022890
:1079600006D0012803984FD0C04380077ED0ACE0FA
:1079700003985022810D8A46B2EB905F00D85021C7
:107980000D4665F39F5003900831534800F0D7F936
:1079900007006CD000F01CFA4B46082203A93846B9
:1079A00000F036FA04EA0601701A8000001D09F1A1
:1079B000080B854221D9474E0C3630B1C2B208EBD4
:1079C0008101281A91460C3104E03146EAB20026C2
:1079D00091463046C5B25B46384600F019FA0BEBCB
:1079E00009032EB12A4631464FEA070000F010FA8B
:1079F0000AF1030004EB90043BE008EB81015B46D5
:107A00002A4638460C31F1E7C0F38310062800D32C
:107A10000620039960F38911C1F38310801C039140
:107A200081002D4800F08BF907004ED000F0D0F90E
:107A30004B46082203A9384600F0EAF909F1080983
:107A400000250DE004EA060008EB80014B46042205
:107A500038460C31641C00F0DBF909F104096D1C97
:107A60000398C0F38310A842ECD801E00BE02CE0AF
:107A70005FB3D8F81054D8F81804464690B1384689
:107A800000F0AFF921E0D3F8180400283FF435AF37
:107A90001BE0687A012804D1296828460A6839461B
:107AA00090476D68002DF4D1384600F09AF9002017
:107AB0008DF800006846FCF7C3FED6F8180400B93C
:107AC00074609DF80000FCF7DFFEFDF72FFF80F0EB
:107AD000010012E788490020E89C020000231A46B2
:107AE00001F0F4BB08B5012300926A4601F0EEFBF9
:107AF00008BD1CB5CDE9002302236A4601F0E6FB70
:107B00001CBD3EB5069C8DE81C0003236A4601F0AF
:107B1000DDFB3EBD7FB5DDE908458DE83C00042373
:107B20006A4601F0D3FB7FBD2DE9F0470E46804643
:107B30001C46924608293ED894F80C9000202073E9
:107B40001946104600F042FF0025B54206D218F84B
:107B500005201AA12046FFF701FC03E019A12046E9
:107B6000FFF7FCFB6D1C082DEFD317A12046FFF794
:107B7000F5FB0025B54210D218F80570FBF78EFC16
:107B80000068C05D10F03E0F01D03A4600E02E22A2
:107B90000EA12046FFF7E2FB03E00DA12046FFF710
:107BA000DDFB6D1C082DE5D301222146504600F077
:107BB000EFFE84F80C90BDE8F087000020253032FD
:107BC00078000000202020007C00000025630000D9
:107BD00020000000114810B5FF21816000210160E4
:107BE0004160C0F81814C0F8141480F81C140C4834
:107BF00000F0F5F800280FD10A480B490B4B401A4A
:107C0000C108002005E000BF00EB400223F822007D
:107C1000401C8842F8D3002010BD00008849002095
:107C2000E89C020074A70200FCA602006442002047
:107C300002480349401AC0087047000074A70200B8
:107C4000FCA6020013B56846FEF7DAFE08B1002074
:107C50001CBD0248009950F831001CBDFCA6020072
:107C600070B508480125D0F8104480F81C5405E090
:107C7000657221682046496888476468002CF7D1FE
:107C800070BD0000884900202DE9FF4781460C9D0A
:107C900000200C462F7B2873984616462946184626
:107CA00000F094FE072E42D2DFE806F004090F161A
:107CB0001F2A360049462846FFF750FB37E0494661
:107CC00028462268FFF74AFB31E0D4E90023494601
:107CD0002846FFF743FB2AE0A0680090D4E9002380
:107CE00049462846FFF73AFB21E0D4E90201CDE9F5
:107CF0000001D4E9002349462846FFF72FFB16E090
:107D000004F1080007C88DE80700D4E900234946BC
:107D10002846FFF723FB0AE004F108000FC88DE8AE
:107D20000F00D4E9002349462846FFF717FB00223D
:107D30002946404600F02CFE2F73BDE8FF872DE951
:107D4000F041058A80462D1F4819C01CB0FBF5F094
:107D5000C6B24046FEF7D9FE040019D000202071BB
:107D600001206071E58000272546761EC4F800805A
:107D70000BE04046FEF7C9FE60B16179491C6171B4
:107D8000286005467F1CC0F80080B742F1D320462A
:107D9000BDE8F081204600F002F80020F8E72DE968
:107DA000F041457901466B1E002201E00968521C32
:107DB0009A42FBD30F680146002605E038460C685E
:107DC000FEF7C5FE2146761CAE42F7D3BDE8F08132
:107DD00008B501216A46001DFBF7B3FA08BDFEF79E
:107DE000CEBE38B50446001D01216A46FBF7B6FA3F
:107DF000009810F0FF0F04D12046BDE83840FFF78F
:107E0000CEBF38BD38B501240094FEF7BDFD38BDA6
:107E100038B500240094FEF7B7FD38BD08B5002240
:107E200042504058009008BD024A1060101D016089
:107E3000704700002C76004002494058002800D0CE
:107E40000120704700700040034908B50844002233
:107E500002600068009008BD0070004020B1034936
:107E600009680160002070470E207047749D020071
:107E70002DE9FE4306460D460846FFF7EFFF0028B2
:107E80007ED18046CDF80080CDF804800124032007
:107E90008DF80060ADF80400CDF808808DF8024040
:107EA000694620202A6869DF3F4F40B100F0FEF9A3
:107EB000024638883D4904EB0040FFF713FECDF839
:107EC00000808DF800408DF80180CDF80480CDF859
:107ED00008808DF80280694640202A6869DF40B139
:107EE00000F0E4F902463888314904EB0040FFF71E
:107EF000F9FDCDF800808DF80060F720ADF80200A4
:107F0000CDF80480CDF80880694623202A6869DF0F
:107F100040B100F0CBF902463888264904EB004016
:107F2000FFF7E0FDCDF80080CDF80480CDF80880A3
:107F30008DF800404646694601202A6869DF40B155
:107F400000F0B4F9024638881B4904EB0040FFF703
:107F5000C9FD4FF4B0600090019602966946A120D9
:107F60002A6869DF40B100F0A1F902463888134958
:107F700004EB0040FFF7B6FD00960196029600E084
:107F800010E08DF800606946A0202A6869DF40B1E2
:107F900000F08CF902463888094904EB0040FFF7ED
:107FA000A1FD0020BDE8FE83004300208CA5020057
:107FB000D4A5020020A60200ECA4020038A502000D
:107FC00098A402002DE9F0410446D0F800E060DFFB
:107FD0002368144D0646734515D02888022707EB01
:107FE0000040724610A1FFF784FDF806D0F80C019E
:107FF0002168800200F10050421A288816A107EB80
:108000000040FFF76FFD56B1304600F04FF90246D1
:108010002888012101EB004018A1FFF763FD3046DD
:10802000BDE8F0810043002052414D20737461721D
:10803000747320617420307825782C2063616E2061
:1080400062652061646A757374656420746F2030A2
:108050007825782E0000000052414D2073697A6522
:108060002063616E2062652061646A757374656463
:1080700020746F20307825782E00000073645F62D2
:108080006C655F656E61626C652829207265747528
:10809000726E65642025732E0000000030B5EBB0D1
:1080A0004FF4CE75ADF8A8516AA9684661DF30B1CA
:1080B000052816D06BB0BDE83040FCF725BB6C46F8
:1080C000094967A800F0AAF807E000BFD0E900213D
:1080D0002046904767A800F0B8F869980028E1D0DA
:1080E000F4E76BB030BD0000789D020010B50D4C78
:1080F0002078A0B10120A07000F004FF11280CD05E
:10810000022000F017FF11DF002807D12070A070B7
:1081100001F098F8032000F00DFF002010BD0820AA
:1081200010BD0000402B002038B5174C207808B156
:10813000082038BD0125A570002000F0E3FE1128BD
:1081400020D0002000F0F6FE104811490068009091
:10815000684610DF0028ECD12570A0706070072100
:10816000162000F083FE08B1FCF7CEFA0721152097
:1081700000F07CFE08B1FCF7C7FA01F07FF801209F
:1081800000F0D8FE002038BD402B00200C9D0200DE
:10819000914602000EB50749684600F03FF805E039
:1081A000D0E900108847684600F04FF80298002890
:1081B000F6D10EBD289D02000148007870470000EE
:1081C000402B00200548817819B1007818B1FFF7DD
:1081D0008DBF08207047FFF7A7BF0000402B00208D
:1081E0001FB5684648DF30B1052814D004B0BDE89B
:1081F0001040FCF789BA084901A800F00FF806E022
:10820000D0E900210098904701A800F01EF80398DB
:108210000028E6D0F4E71FBD949D020001600968C4
:108220004160AFF3008010B5D0E900215368994256
:1082300001D1002104E0D1E90034A34202D0194663
:10824000816010BD08314160F0E7816800290BD0E2
:10825000026892680A44826041684B689A4203D17E
:1082600008314160FFF7DFBF70474058002800D059
:10827000012070470C4A10B502F1F0030EE0991A84
:10828000C91001EBD171491002EBC1010C688442A5
:1082900001D90B4602E005D201F108029A42EED361
:1082A000002010BD486810BDEC9B020000B5FFF730
:1082B000E1FF002800D1014800BD0000D89B02006A
:1082C0004058002800D00120704708B500224250D5
:1082D0004058009008BD0000FEB50178002969D122
:1082E00082683AA101A8FCF70DF8002438A101A882
:1082F000FBF776F9374D06E045F8240034A100205D
:10830000641CFBF76DF90028F6D1052232A128681C
:10831000FBF757F9002831D0042231A12868FBF778
:1083200050F9314E0327314C00282BD060790028BA
:1083300045D02FA102A8FBF7E5FF02A8FBF731F912
:1083400082B2ADF8002030882CA107EB0040FFF787
:10835000C9FB308802AA07EB00402FA1FFF7C2FB40
:10836000FFF7C4FA0028FBD11A486A4602A9343044
:10837000FDF7B2F808B1FCF7C7F91BE00120FDF7E3
:10838000E7FA17E0686800F0B5FE606131880246E0
:1083900007EB014328A11846FFF7A4FBFFF7A6FA55
:1083A0000028FBD1E078012802D1002000F01CFD5C
:1083B00001202072FFF79AFA0028FBD1FEBDE07879
:1083C0000128DBD100F010FDD8E700002573000084
:1083D0007C000000184300204F524445520000002A
:1083E00054494D4500000000E8420020682A002062
:1083F000636865636B696E670000000063686563AE
:108400006B5F666C61672069732074727565206CA0
:10841000656E203D20256900636865636B5F666C4F
:1084200061672069732074727565202064617461CE
:10843000203D20257300000054494D45207265639E
:108440006569766520206E6F775F6D696E203D20CF
:108450002564000010B500280AD0032808D10220A6
:10846000FDF73AF9002803D0BDE81040FCF74CB9FD
:1084700010BD00000078002807D104483B21808906
:1084800076DF002801D0FCF73FB97047682A00204A
:108490002DE9F0418E88054600EBC6040079207373
:1084A000C87BA41D012802D0022804D101E028883D
:1084B00000E06888208022886088824218D9174F9F
:1084C0004FF004083346398808EB014014A1FFF748
:1084D00010FB218830469EDF02004FF0010011D0D2
:1084E000112A11D0398800EB01401D49FFF7FAFA33
:1084F000A079E17988420ED929463046BDE8F0419D
:10850000FDF7AEBB6071F3E720713988324608EBA6
:1085100001401449EAE7BDE8F08100006442002010
:1085200052657175657374696E6720746F2075701C
:108530006461746520415454204D545520746F205B
:108540002575206279746573206F6E20636F6E6E7F
:10855000656374696F6E20307825782E0000000006
:10856000A49F0200D4A002002DE9F0438FB007467B
:1085700034226846091DFAF7F0FFBDF80060BDF827
:10858000040007EBC609204CC2B2804689F80D20D2
:108590002088042505EB004033461CA1FFF7A9FA0B
:1085A0002088BDF8062005EB004024A1FFF79AFAC9
:1085B0002088424605EB004025A1FFF793FA20886A
:1085C000BDF80A2005EB004026A1FFF78BFA2088B2
:1085D000BDF8082005EB004026A1FFF783FA3869B3
:1085E00000280ED02749D1E90401CDE90D01ADF8ED
:1085F000366099F80D008DF838003A690DA93846B3
:1086000090470FB0BDE8F08364420020446174617C
:10861000206C656E67746820757064617465642091
:10862000746F202575206F6E20636F6E6E656374A6
:10863000696F6E2030782530782E00006D61785F8C
:1086400072785F6F63746574733A2025750000005B
:108650006D61785F74785F6F63746574733A202519
:10866000750000006D61785F72785F74696D653ABE
:10867000202575006D61785F74785F74696D653A67
:1086800020257500709B02002DE9FC41002200921C
:108690000192164D0F7A0C1D8A88298800EBC206BC
:1086A0004FF0040808EB01403B4611A1FFF721FA07
:1086B000327BBA4200D33A46ADF80020ADF8022032
:1086C0002988238808EB014019A1FFF712FA2088B6
:1086D0000022694690DF020006D02888012101EBC4
:1086E00000402149FFF7FEF9BDE8FC81644200200B
:1086F00050656572206F6E20636F6E6E656374697E
:108700006F6E203078257820726571756573746599
:108710006420612064617461206C656E67746820F8
:108720006F662025752062797465732E0000000045
:108730005570646174696E672064617461206C6552
:108740006E67746820746F20257520627974657374
:10875000206F6E20636F6E6E656374696F6E20307C
:108760007825782E000000002CA002002DE9FC479F
:108770008E88DFF89080CD8800EBC604B8F8001032
:1087800007464FF0040909EB01402B4632461EA173
:10879000A41DFFF7AEF9172D00D217252088A84297
:1087A00000D805466580002020710096B8F80010BA
:1087B000238809EB01406288454622A1FFF7A1F911
:1087C00021883046ADDF020006D02888012101EB68
:1087D00000402C49FFF786F96079002810D13869EC
:1087E00000280DD02849D1E90201CDE90001ADF8FA
:1087F00002606088ADF804003A69694638469047DF
:10880000BDE8FC876442002050656572206F6E20D1
:10881000636F6E6E656374696F6E203078257820A3
:1088200072657175657374656420616E204154547E
:10883000204D5455206F662025752062797465732C
:108840002E0000005570646174696E6720415454B5
:10885000204D545520746F202575206279746573FE
:108860002028646573697265643A20257529206F34
:108870006E20636F6E6E656374696F6E203078254D
:10888000782E0000E89F0200709B02007CB58D8866
:10889000064600EBC5044A8934F8060F904200D81A
:1088A00002466280172A00D21722104862800421F3
:1088B00000882B4601EB00400DA1FFF71AF9306943
:1088C00078B1607968B11949D1E90001CDE90001B9
:1088D000ADF802506088ADF8040032696946304650
:1088E00090470020607120717CBD00006442002030
:1088F000415454204D545520757064617465642052
:10890000746F202575206279746573206F6E206303
:108910006F6E6E656374696F6E20307825782028DD
:10892000726573706F6E7365292E0000709B020074
:1089300038B5B0300C468DF8000001216846FBF7D1
:108940002FF9A01C8DF8000001216846FBF728F9DB
:1089500010348DF8004001216846FBF721F938BD3D
:1089600008B5B0308DF8000001216846FBF718F912
:1089700005208DF8000001216846FBF711F913204E
:108980008DF8000001216846FBF70AF908BD0000D8
:1089900010B50C46C17949B11AB109A12046FEF7BC
:1089A000DDFC2046BDE81040FEF7E5BC007A00285B
:1089B000F3D0044804A102682046FEF7CFFCECE7A0
:1089C0000D0A00001C2B00202573000070B5044622
:1089D000C0790D4600281CD1207A50B1A179A08819
:1089E000FEF75EFF0B4951F820200BA12846FEF749
:1089F000B5FCA0880021FFF725F903460549A079B9
:108A0000143951F820202846BDE8704003A1FEF734
:108A1000A5BC70BD1C2B0020257300003C25733EB7
:108A20002025733A200000002DE9F041214C00255B
:108A3000214E207A012730B92048311D0068FEF709
:108A400052F8306038B1022020723168087928B1BC
:108A500001281ED116E06560BDE8F081D1E905036B
:108A6000C01A4FF48052904200D31046B7EB900FDB
:108A700001D2820800E001220869C968184419443B
:108A800029DF03E0D1E90301084428DF38B11128C8
:108A90000ED003213068FDF7B1F92572DBE7207CA9
:108AA0000028D9D1BDE8F04100210220FEF7A0BD89
:108AB0002772D1E758470020D02A0020C89B020027
:108AC00070B5012670044FF0E0210025C1F8800147
:108AD000084C4010C4F84803C4F8080366602F200F
