:020000040002F8
:10300000285B0020153402001D3402001F3402002A
:1030100021340200233402002534020000000000A5
:103020000000000000000000000000002734020043
:1030300029340200000000002B3402002D3402006D
:10304000A13702002F340200813B02002F3402001E
:103050002F3402002F340200C93502002F34020041
:103060002F3402002F3402002F3402002F340200CC
:103070002F3402002F3402002F3402002F340200BC
:103080002F340200F93702002F3402002F340200DF
:103090007D3802002F340200813802002F340200F4
:1030A0002F3402002F3402002F3402002F3402008C
:1030B0002F3402002F340200000000000000000046
:1030C0002F3402002F3402002F3402002F3402006C
:1030D0002F3402002F3402002F34020000000000C1
:1030E00000000000000000000000000000000000E0
:1030F00000000000000000000000000000000000D0
:1031000000000000000000000000000000000000BF
:1031100000000000000000000000000000000000AF
:10312000000000000000000000000000000000009F
:10313000000000000000000000000000000000008F
:10314000000000000000000000000000000000007F
:10315000000000000000000000000000000000006F
:10316000000000000000000000000000000000005F
:10317000000000000000000000000000000000004F
:10318000000000000000000000000000000000003F
:10319000000000000000000000000000000000002F
:1031A000000000000000000000000000000000001F
:1031B000000000000000000000000000000000000F
:1031C00000000000000000000000000000000000FF
:1031D00000000000000000000000000000000000EF
:1031E00000000000000000000000000000000000DF
:1031F00000000000000000000000000000000000CF
:10320000DFF80CD000F0A2F900480047ED570200AB
:10321000285B002030B450E8012F93B2C4892344C6
:103220008489A34228BF1B1B0489A34202BFBFF3AA
:103230002F8F002007E0C3EA020340E80134002C8E
:10324000E9D14FF001000A6030BC704750E8012F0F
:10325000C2EA024240E801210029F7D1704730B4A8
:1032600050E8022F1FFAA2F3C488A34202BFBFF3A3
:103270002F8F00200DE0C48923448489A34228BFF6
:103280001B1BC2EA034340E80234002CE8D14FF094
:1032900001000A6030BC704750E8022FC2EA2242A7
:1032A00040E802210029F7D17047034653E8022F76
:1032B000D988B2EB324F4FF0000017BF92B241EA0B
:1032C000014142EA014104E05A68B2EB324F08BFC3
:1032D000012043E80212002AE8D1704730B40446C6
:1032E00054E8000F0D4644E80053002BF8D1156058
:1032F00030BC704730B4044654E8000F40EA010582
:1033000044E80053002BF7D1156030BC704730B44F
:10331000044654E8000F00EA010544E80053002B7E
:10332000F7D1156030BC704730B4044654E8000F44
:1033300080EA010544E80053002BF7D1156030BC4A
:10334000704730B4044654E8000F00EB010544E830
:103350000053002BF7D1156030BC704730B40446E1
:1033600054E8000FA0EB010544E80053002BF7D10F
:10337000156030BC7047000030B4044654E8000FBC
:103380000D4644E80053002BF8D1156030BC70475F
:1033900030B4044654E8000F40EA010544E8005305
:1033A000002BF7D1156030BC704730B4044654E8A8
:1033B000000F00EA010544E80053002BF7D1156027
:1033C00030BC704730B4044654E8000F80EA010571
:1033D00044E80053002BF7D1156030BC704730B47F
:1033E000044654E8000F00EB010544E80053002BAD
:1033F000F7D1156030BC704730B4044654E8000F74
:10340000A0EB010544E80053002BF7D1156030BC58
:10341000704700000648804706480047FEE7FEE781
:10342000FEE7FEE7FEE7FEE7FEE7FEE7FEE7FEE774
:1034300085380200013202002DE9F05F05460020C8
:1034400092469B4688460646814640241BE0284615
:1034500041464746224600F068F853465A46C01A8D
:10346000914110D311461846224600F04FF82D1A0C
:1034700067EB01084F4622460120002100F046F884
:1034800017EB00094E41201EA4F10104DFDC484681
:1034900031462A464346BDE8F09F00000048704789
:1034A0000C86020040EA01039B0703D009E008C92B
:1034B000121F08C0042AFAD203E011F8013B00F8F9
:1034C000013B521EF9D27047D2B201E000F8012B45
:1034D000491EFBD270470022F6E710B513460A4694
:1034E00004461946FFF7F0FF204610BD421C10F8B5
:1034F000011B0029FBD1801A7047034611F8012BEC
:1035000000F8012B002AF9D118467047202A04DB65
:10351000203A00FA02F1002070479140C2F12003E6
:1035200020FA03F3194390407047202A04DB203A25
:1035300021FA02F00021704721FA02F3D040C2F1D3
:10354000200291400843194670470000064C074D81
:1035500006E0E06840F0010394E807009847103463
:10356000AC42F6D3FFF750FEDC8C0200FC8C02006C
:1035700070B58C1810F8015B15F0070301D110F835
:10358000013B2A1106D110F8012B03E010F8016B62
:1035900001F8016B5B1EF9D12B0705D40023521EE5
:1035A0000DD401F8013BFAE710F8013BCB1A921C4D
:1035B00003E013F8015B01F8015B521EF9D5A1424B
:1035C000D8D3002070BD00002DE9F04700268CB054
:1035D000DFF86091B0464FF48075012437460696B7
:1035E000284603F0A3F838B1D9F80403204203D0E9
:1035F000284603F091F826432D1D64007F1CADB2D0
:10360000082FEDD34FF4BE74204603F08FF848B175
:10361000204603F081F846F0004606AA012100206A
:1036200003F066F8444D16F0FF0F15D00127002473
:1036300037420DD009EB8401D1F81005D1F81015EF
:10364000C0F3042055F82420C1F3014102B1904792
:103650007F00641C082CEBD3002E67DA4FF0FF309C
:10366000CDE9088000263446281910F8507F90F9DB
:10367000000027F0C008401C44D009A9404602F0D1
:10368000E6FA58B34FEA9719404601F075FD55F830
:1036900020701FB1B9F1030F03D00FE0B9F1030F90
:1036A00030D108A84FEAD80208F00703815C4FF038
:1036B000010C0CFA03FC41EA0C0181544FF0A041CB
:1036C00001EB8800D0F8000706A9C0F3014A404684
:1036D00002F0BDFA18B1BAF1020F03D012E0BAF14C
:1036E000030F0FD1B9F1030F08D1BAF1020F1BD0AC
:1036F0000221404602F0E0FF761CF6B217B14946BF
:103700004046B847641C042CAED3002E0ED06A4647
:103710000121002002F0ECFF06990098884205D0B4
:103720000690089809909DE70321E2E70CB0BDE8F8
:10373000F0870000006000401C31002000F01F02F4
:10374000012191404009800000F1E020C0F8801282
:10375000704700F01F02012191404009800000F1F4
:10376000E020C0F80011704700F01F0201219140D5
:103770004009800000F1E020C0F8001270474907BE
:10378000090E002806DA00F00F0000F1E02080F8B2
:10379000141D704700F1E02080F80014704700000D
:1037A0002DE9F0414FF48077384602F019FB0124EF
:1037B000104EA50748B1384602F019FB0120C5F8A4
:1037C00008037470002001F0DFFC4FF48277384664
:1037D00002F006FB00280BD0384602F008FB02205E
:1037E000C5F80803B470BDE8F041012001F0CCBC7D
:1037F000BDE8F0810831002007480021C0F84011E1
:10380000C0F84411C0F84811C0F84C11C0F80011BC
:10381000C0F8041104F00ABA0010014000F0BEB96B
:1038200070B50E46144900EB400001EBC00514468C
:10383000E86A183520B101280FD0022805D113E01D
:10384000284600F0DFF9A04201D2002411E0224610
:103850003146284600F00EFA0BE0284600F0D2F977
:10386000A042F4D20446F2E73146284600F0D5F9EA
:103870000446204670BD00009C38002004F024B9A6
:1038800003F046BCF0B5AE480023021D01780125C7
:10389000101D4FF0805406290BD11678360708D139
:1038A0000678C6F30316032E06D0042E04D0052E88
:1038B00002D0062907D00EE0B4F82463A14FC6F366
:1038C00004263E6002E01678360704D10678C6F377
:1038D0000316032E02D0062904D00FE09B4F9A4E08
:1038E0007E670EE01678360708D10678C6F3031611
:1038F000032E06D0042E04D0052E02D0062907D0B0
:103900000EE0D4F84462924FC6F342363E6002E0C5
:103910001678360704D10678C6F30316032E02D0B4
:10392000062906D011E08B4E376827F08077376084
:103930000EE01678360708D10678C6F30316032E74
:1039400006D0042E04D0052E02D006290AD011E09C
:103950004FF08046C6F80C31C6F810317C4E361F49
:10396000336002E01678360704D10678C6F30316F2
:10397000032E02D0062905D00CE0754F03266437CC
:103980003E600AE01678360704D10678C6F30316BF
:10399000032E02D006290DD014E06F4F05263E609D
:1039A0006D4E783635606C4E083633603F263F1DCD
:1039B0003E6002E01678360704D10678C6F3031697
:1039C000052E02D0062957D062E0644E3668644F57
:1039D0003E60624E361D36683F1D3E605F4E0836C3
:1039E00036683F1D3E605D4E0C3636683F1D3E60BA
:1039F0005A4E103636683F1D3E60584E14363668B3
:103A00003F1D3E60554E18363668554F20373E6094
:103A1000524E1C3636683F1D3E60504E203636688A
:103A20003F1D3E604D4E243636683F1D3E604B4E76
:103A3000283636683F1D3E60484E2C3636683F1D9E
:103A40003E60464E30363668454F40373E60434E06
:103A5000343636683F1D3E60404E383636683F1D6E
:103A60003E603E4E3C3636683F1D3E603B4E403623
:103A700036683F1D3E6002E01678360708D10678AA
:103A8000C6F30316032E06D0042E04D0052E02D052
:103A9000062907D019E0D4F85812324A01F04F0134
:103AA000116002E0117809070FD10078C0F303100C
:103AB000032803D0042801D0052806D12A4801682C
:103AC000C90702D06FF00101016022487438016813
:103AD00041F470010160BFF34F8FBFF36F8F4FF060
:103AE0001021D1F80002002803DBD1F804020028DD
:103AF00022DA1E4A15601E480468002CFCD01524EA
:103B0000C1F800420568002DFCD0C1F804420168EC
:103B10000029FCD0136001680029FCD0BFF34F8F4F
:103B20000C48F0380168134A01F4E0611143016068
:103B3000BFF34F8F00BFFDE710490F480860F0BD8D
:103B4000E00F00F0403501400DF0ADBA00C0074075
:103B50003C050040FCED00E010560040040400105D
:103B600020C50040E40E00400004004004E5014090
:103B700000E401400400FA050090D0031C2B002053
:103B80000448017F04480029024901D004F029BA01
:103B900004F098B9743100200020004010B5124C98
:103BA00002202061606111A0A06104F17800E06151
:103BB0004FF4007020620020A06260620BA1A1643B
:103BC000E06204F51E71E1641021A065C4E91410DF
:103BD000E06509A1E01DFFF790FC08A12046FFF772
:103BE0008CFC2020A07110BD9C3800205465726DA3
:103BF000696E616C00000000525454005345474701
:103C0000455200000269C1688A4203D88068401AA0
:103C1000104400E0501A401E70472DE9F047C46878
:103C20001746894606464FF000083069A04201D980
:103C3000051B02E0B168201A0D1AB0686D1E001B4A
:103C4000A84200D80546BD4200D33D4670682A46CA
:103C500020444946FFF726FCB0687F1B2C44A8444B
:103C6000A944A04200D10024F460002FDDD14046D9
:103C7000BDE8F0872DE9F04104468846D4E9020703
:103C8000C51BE168606816460844B54206D941463E
:103C9000FFF708FCB819E060BDE8F0812A4641460C
:103CA000FFF700FC761B08EB050132466068FFF762
:103CB000F9FBE660F0E70000014A024900F031B884
:103CC000E5530200C02A002002E008C8121F08C104
:103CD000002AFAD170477047002001E001C1121F8D
:103CE000002AFBD1704700000121202803DA81401F
:103CF0000548014003E0402802DA2038814009B13C
:103D00000120704700207047FC06FFBD082806D23E
:103D100028B1012803D0042801D0012070470020D9
:103D200070472DE9F04116460F460446002503E092
:103D30003946B047641C6D1C20780028F8D128460D
:103D4000BDE8F08110B501220221002001F0B6F893
:103D500008B1072810D107220221012001F0AEF896
:103D600008B1072808D100210A22084601F0A6F868
:103D700008B1072800D1002010BD000002F04EFF5E
:103D800002F0A4FD0028FBD1104C0121208801EB9A
:103D900000400FA102F092FE10480068C00700D05A
:103DA00000BE2088022101EB00400DA102F086FE3A
:103DB000BFF34F8F0948E43801680D4A01F4E06110
:103DC00011430160BFF34F8F00BFFDE7682B002058
:103DD000466174616C206572726F7200F0ED00E0F4
:103DE00053797374656D207265736574000000000B
:103DF0000400FA050EB500210091CDE901106A46D4
:103E000044F20100FFF7BAFF0EBD10B58268C36827
:103E1000934203D001F0D3FA002010BD052010BD5D
:103E200029B112B1531E134203D0092070470E204E
:103E300070470160838000218160C160084670473F
:103E400010B58268C3689A1A83889A4203D801F031
:103E5000C0FA002010BD042010BD0000074B9B7865
:103E600023B12AB120B10068037C1BB10820704740
:103E70000720704741744261002070479431002050
:103E800070B503F093FB104800240B2104704470BC
:103E90000E4D817014206C602C706C70FFF74EFC1E
:103EA00007211420FFF76BFC1420FFF752FC084891
:103EB000046007211120FFF762FC0548001F00681D
:103EC000A860002070BD000094310020942A0020DA
:103ED000081501402DE9FC47DFF8789099F8023089
:103EE00073B368B3052902D20720BDE8FC87436994
:103EF00033B3437C012B25D0002704460025884698
:103F000016468DF80050684600F0CAF801A804F083
:103F100073F9C8B1012101700F4944600968C0E913
:103F20000218C0E904769DF8040089F801009DF8A4
:103F3000000000F0D9F81420FFF716FC2846D4E75B
:103F40000820D2E70F46D8E704259DF8000000F0CE
:103F5000CBF8F3E794310020041501400649897835
:103F600039B130B1416921B100210174022103F05E
:103F700039BE0820704700009431002070B50A4E09
:103F800001460A48B578FFF740FF04464DB10020CE
:103F9000B070711C0122C81D02F00EF808B1FFF7C5
:103FA00029FF204670BD0000A82A0020A032002072
:103FB000F0B5284E89B01F460D00044672603BD014
:103FC000A888296882B22448FFF72AFF002834D144
:103FD000A889A96882B220481030FFF721FF002885
:103FE0002BD120221D496846FFF75CFA60690690D4
:103FF000207C00B101208DF814008DF81C70607CCD
:1040000000B10E208DF81500E0680290A0680390C2
:1040100020680190606800900E48114A6946083097
:1040200001F096FF002808D1B0702068401C04D031
:104030009DF81D0018B106E0072009B0F0BD054845
:10404000083002F011F803490122491CC81D01F093
:10405000B3FFF2E7A82A0020A032002080830200EC
:10406000257E020010B501460B48FFF7E9FE04006B
:1040700010D10A4802F042F960B9084906480839E7
:10408000FFF7C3FE30B9054901220839034802F0A1
:10409000AFF80446204610BDB0320020B02A002000
:1040A00030B5EFF3108172B60D4A9468012324B144
:1040B0000370002900D162B630BD93604FF0E02359
:1040C000D3F88051074C25401560C3F88041D3F8E0
:1040D000844154605A17C3F8842100220270E8E733
:1040E000C0320020FC06FFBD0B498A68002A11D0AF
:1040F00000280FD1EFF3108072B60B684FF0E0226A
:10410000C2F800314B68C2F8043100228A600028EE
:1041100000D162B670470000C03200202DE9F041A6
:10412000064608680C46411C4FF0A0474FF00105B9
:1041300006D005FA00F1C7F80815206802F0A1FAC8
:104140006068411C02D0002102F092FA30792049C7
:1041500001EB4010A169007F00283068C0F82415E9
:1041600025D0607D227D31681043C1F86C05D4E90B
:1041700000123068C0F80C15C0F8142524E0A068BF
:10418000411C02D0002102F073FAE068411C05D006
:104190008540C7F80855E06802F073FAD4E90212C6
:1041A0003068C0F80825C0F81015BDE8F081607DC2
:1041B000217D32680843C2F86C05D4E900123068EA
:1041C000C0F81425C0F80C15207D0128D7D0ECE7E5
:1041D000743100202DE9FC4700251788064615801C
:1041E00090F82D001446894630B13A46214648469B
:1041F00000F0EAFA050009D1B0784FF00C0A18B3C4
:104200002088C846001DB84202D95046BDE8FC8748
:10421000684679DF0028F9D12088032108F80010CA
:1042200020881921401C80B2208008F800102088C6
:10423000401C80B2208000EB0801BDF8000003F0B4
:1042400048FF218808442080F0780222C8B12188E4
:1042500096F9033001F1030C4846BC45D5D84254C9
:1042600021884FF0010C491C89B2218000F801C05F
:104270002188491C89B2218009F801302088401C1E
:1042800020807068B8B1218890F9003001F1030CEA
:104290004846BC45B9D8425421880A22491C89B2F3
:1042A000218042542188491C89B2218009F80130BB
:1042B0002088401C2080308950B1CDE900474B4612
:1042C0000622022106F1080003F0AEFF05009DD191
:1042D000308A50B1CDE900474B460722032106F151
:1042E000100003F0A1FF050090D1308B50B1CDE953
:1042F00000474B461522142106F1180003F094FFE5
:10430000050083D1306A30B13B462246494600F071
:10431000A5FF0500DBD1706A30B13B462246494615
:1043200001F050FB0500D2D196F82C0038B13B4685
:1043300022464946304603F0DDFA0500C7D1307801
:1043400038B13B4622464946304601F0C3FB0500E2
:10435000BDD128465AE7F0B50C4693B01F21072679
:10436000ADF80010ADF80410002750B1C17849072E
:104370000DD56A4602A9FFF72DFF002808D102AD2E
:1043800002E00025ADF800706CB1E07810B1304665
:1043900013B0F0BD01AA0AA92046FFF71BFF0028B1
:1043A000F6D10AAA02E00022ADF80470BDF80400BC
:1043B000C3B2BDF80000C1B2284672DFE8E780F85A
:1043C0002410704770B50D00044653D0F4B301209B
:1043D00020700026E670202205F17801201DFFF7ED
:1043E00061F884F82460D5F89800C4F8CC00D5F8BA
:1043F0009C00C4F8D0004FF6FF70A4F8C800C4F8C1
:104400002560A4F8296084F82B6004F130003C2179
:104410000646FFF760F8287884F83000A87884F81A
:104420003200E87884F83300687884F83100D5E900
:104430000401C4E91001D5E90201C4E90E01D5E97E
:104440000601C4E9120195F82D0000E012E084F89D
:104450005D00686AD8B104F1780104F16C0061670D
:104460006065696A09880180686A616D80888880F2
:10447000002008E00E2070BD696A22188968095C76
:1044800082F87810401C616D89888142F4D8A86A4E
:10449000E8B104F1A400C4F8A0000C38A065A96A32
:1044A00089888180A86AA16D00880880002006E0C4
:1044B000A96A22188968095C82F8A410401CA16DC1
:1044C00089888142F4D895F82C0084F85C00286A29
:1044D00048B104F1C4002065296A49884180286AEE
:1044E000216D00880880686800B1606305F13C01B7
:1044F0003046BDE87040FFF72EBF10B50288102A85
:104500001AD0112A1FD01B2A1CD1007A0C46002871
:1045100018D1E0780521401CB0FBF1F201FB12013B
:10452000204600F037F800280CD0D4F8D01000292D
:1045300008D0BDE810400847C27B012A02D180881C
:10454000A1F8C80010BD0C46002184F8D410808862
:10455000B4F8C8108842F5D120790028F2D10121A1
:10456000DEE710B50C46022801D0032811D160788F
:1045700000280ED000206070E178204600F00AF894
:10458000002806D0D4F8D010002902D0BDE8104091
:10459000084710BD2DE9FF47044600780F4638B1A3
:1045A000E770002001F0BCFF012628B16670D2E060
:1045B000082004B0BDE8F0870025C4F82550A4F811
:1045C000295084F82B50A07910B1E078012806D04A
:1045D000E07970B1E078012801D0022809D1D4F83F
:1045E000CC1021B184F82C600820884701E084F8C1
:1045F0002C5004F1260100200A5C0AB1304603E089
:10460000401C0628F8D300204FF002084FF0030AA0
:104610004FF00409012F06D0022F09D0032F0CD030
:10462000042F12D10DE0A17911B108B130460DE08F
:10463000E17911B108B1404608E0207A08B150464E
:1046400004E0607A08B1484600E02846E070D4F8FB
:10465000CC1041B1032801D0042804D1607910B1F5
:1046600094F8D400A8B184F8D5500095029501952E
:1046700003958DF800508DF80850E17804F125007D
:1046800004F13002052958D2DFE801F0670A131F50
:104690003B0084F8D65084F8D56007208847E4E7CB
:1046A000A67001908DF80060ADF80C50ADF80A507E
:1046B00043E084F8028001908DF80060208AADF814
:1046C0000C00A089ADF80A0037E0A08AADF80A0016
:1046D000208BADF80C00607980B194F8D40068B9F3
:1046E00094F8D60050B18DF8088084F833900021FA
:1046F0001046FFF730FE00BB05211AE084F802A047
:104700001BE0A08BADF80A00208CADF80C0060799E
:1047100088B194F8D40070B994F8D60058B18DF8E7
:10472000088084F8339000211046FFF714FE20B96A
:104730000621A17001E084F80290E07830B194F88D
:104740002410684673DF00287FF433AFD4F8CC1010
:1047500009B1A078884700202BE7A570F6E7000094
:1047600070B5040012D001461C221448FEF79AFED0
:104770001248134D0560206850B17ADF002806D139
:104780002068016829604068686005E00E2070BDFF
:104790000B487BDF0028FAD108484FF6FF71143828
:1047A000084A20F8041B0549343901600021FFF74D
:1047B00055FB0028EBD0032070BD000034300020F2
:1047C0008C2A0020918102007CB5054608880C46A1
:1047D0000930904201D90C207CBD68466DDF00286D
:1047E000FAD121880820685420881B21401C80B2FF
:1047F000208029542088401C80B220802844DDF885
:1048000001100160BDF8051081802088801D80B2F4
:1048100020809DF80010490800D0012129542088EB
:10482000401C208000207CBD70B501880026554DBD
:1048300088B00446232956D029DC53484FF00302A0
:104840001129008802EB004032D013DC012970D01E
:10485000102938D14DA102F031F900BF02F036F82D
:104860000028FBD1072000F04BFB08B1FFF7C2FA8C
:10487000A08827E013292CD0212924D102F026F882
:104880000028FBD10096A08869468FDF35E03B29E0
:1048900046D0512955D0522932D0562913D100BFC4
:1048A00002F014F80028FBD1A088132176DF30E055
:1048B00039A102F003F900BF02F008F80028FBD18B
:1048C0004FF6FF70688008B070BD00BFFFF792FA26
:1048D000F9E701F0FBFF0028FBD100231A468521F0
:1048E00068887FDF15E001F0F1FF0028FBD100961A
:1048F0000196A0880022694690DF0028E6D1E2E711
:1049000001F0E4FF0028FBD100231A46194668880D
:10491000A9DF0028D7D008B0BDE87040FFF76ABA19
:1049200001F0D4FF0028FBD1A088132176DFF0E747
:10493000FFE701F0CBFF0028FBD1A088002166DF54
:10494000E7E71022A11D04A8FEF7ACFD9DF81010AA
:104950000029B8D09DF81800042803D0062801D0FB
:104960000528B0D102290BD05FF001008DF80000BE
:104970004FF4C170ADF80400A0886946A8DFBCE719
:104980000220F3E7682A0020682B0020436F6E6E38
:104990006563746564000000446973636F6E6E65DF
:1049A000637465640000000010B51A4C01886068EB
:1049B00010290ED011292BD1401E606028D1FFF79D
:1049C000C1F9002824D02168002921D0BDE8104079
:1049D0000847D0B900210122084600F06FFA08B15B
:1049E00007280FD107220221012000F067FA08B141
:1049F000072807D104220221002000F05FFA20B12D
:104A0000072802D0216801B188476068401C6060B7
:104A100010BD0000842A00202DE9F04701883B4E9C
:104A200040F2F3194FF6FF7510291BD011293ED023
:104A3000122954D0502946D1C188F289841D91424F
:104A400041D1618902293ED18688304600F014FDAB
:104A5000050038D004F10C0000F07EF9A8B3294617
:104A600030464EE0C17B8788044601292BD1A846F9
:104A7000284600F001FD050017D02F800020287285
:104A8000234843464A460168C5F80A104068C5F8FD
:104A90000E0004F1100105F10A0000F087FD6872B4
:104AA000F08900280FD129462AE0042013E08088ED
:104AB00000F0E2FC040006D06068FFF74FFA08B18E
:104AC00002F0FAFE2580BDE8F087FFE76868FFF78F
:104AD00045FA0028F7D0BDE8F04702F0EDBE878820
:104AE0000646384600F0C8FC0400ECD02B464A4687
:104AF00006F1080104F10A0000F058FD6072214639
:104B00003846BDE8F04700F0EFBB0000343000202D
:104B10008C2A00202DE9F047044603883F480122F3
:104B2000A4B000F1480A102B09D0112B54D01A2B35
:104B300070D1217AB2EB111F53D2012352E0D0E998
:104B400011218A430546011D12A802F088FE442265
:104B500012A901A8FEF7A6FCDFF8C0900026374690
:104B600009F144090DF104080AE000BF08EB460012
:104B70001D2283884946281D009702F035FE761CC9
:104B80000198B042F2D8686CA688C04302F04EFE8D
:104B9000A0F57F41FF3917D005EB40000123868047
:104BA00032465146281D02F07FFE01233246494617
:104BB000281D02F079FEE07B02280BD00023174964
:104BC000A2884C31281D20E024B00420BDE8F04725
:104BD000FFF710B90123F2E70023A2885146001D18
:104BE00013E000230D490546A2885031001D02F054
:104BF0005BFE207A0221B1EB101F01D2012300E0FD
:104C000000230649A2885431281D24B0BDE8F0478E
:104C100002F04ABE24B0BDE8F0870000503000200A
:104C200030B5174B0D4604000FCB85B08DE80F0053
:104C300023D015B34FF6FF70A0822868A061002032
:104C4000A0752146684662DF002814D120788DF8CF
:104C500012000120ADF81000A21C04A9A0DF00285A
:104C600009D12946204602F0D8FC002803D1294664
:104C7000204603F025F805B030BD0E20FBE700000C
:104C80006C8302007FB5002917D0002815D0028858
:104C9000102A0DD0112A0DD0502A0FD0572A0CD12E
:104CA0001A4B1868D3E902238DE80F0089692AE0BE
:104CB000808801E04FF6FF7088827FBD01910C462D
:104CC000821DC3880989002512308B4202D1518987
:104CD00002290CD0A1898B42EFD1A1690029ECD027
:104CE00002905089ADF80C008DF800500AE000F0F9
:104CF00033F818B10120A075022001E0A57503204A
:104D00008DF80000A169684688477FBD5C8302007A
:104D10001FB560B1838AA3F57F44FF3C09D0837D32
:104D20003BB11388F42B06D9072004B010BD0E2028
:104D3000FBE70820F9E70023009301930293039314
:104D40008388CDE90221ADF8003001218DF80210F1
:104D5000808A6946A6DFE8E7007800F00100704726
:104D60000149085C704700001483020007490B5C8E
:104D70004FF0A041D1F804250120984020EA020319
:104D8000C1F808351040C1F80C05704710830200C7
:104D90000021082001F0A1BC0121082001F09DBCE8
:104DA0000649095C4FF0A040D0F80405C84010F057
:104DB000010000D0012080F0010070471083020044
:104DC00010B500240021082001F087FC641C042C8D
:104DD000F8D310BD10B500240121082001F07DFC9E
:104DE000641C042CF8D310BD10B50246064B4FF0DE
:104DF000FF3000215C5C944201D1084610BD491C83
:104E00000429F7D310BD00001483020010B5002060
:104E100000F05EF908B1062806D1012000F058F92B
:104E200008B1062800D1002010BD00002DE9F04790
:104E30000D468146FFF7D8FF0446042836D2DFF836
:104E400074801B481C4EA8F10C0725B3012D0ED011
:104E5000022D2BD104EB440030444578002D25D0A1
:104E6000B968002922D02846BDE8F047084704EB7E
:104E70004401755C0E44717849B10E4A4FF400410B
:104E8000093A8068FFF726F808B987F80390B178E7
:104E900008F80410E2E78068FFF760F804EB4401CB
:104EA000314418F804008D78A842D7D0BDE8F087C7
:104EB00018830200802A0020D42F002070B5002320
:104EC000042810D20D4D00EB4004012A02D1012923
:104ED0000CD00022094E00EB4000304461B10129A2
:104EE00006D0022906D00723184670BD0E30C2B284
:104EF0002A55F9E74270F7E78270F5E7D42F0020D2
:104F0000044A014600201279D20702D0084600F078
:104F100003B87047742A00202DE9F05F6A4C0546FB
:104F200000266078B34618B184F801B000F060FB49
:104F3000664F4FF47A694FF4C87A4FF00108182D84
:104F400062D2DFE805F0AC0C0C31404D62676B7447
:104F50006B74BE7D7D7D7D7DACAFB2B5BEBE0020E5
:104F6000FFF71EFF00284FF0000008D0FFF710FFEA
:104F7000022D02D14FF4E16008E0484606E0FFF759
:104F80000BFF022D01D1C82000E05046410CC003A8
:104F90004FF4FA72801841F100012570520000238D
:104FA000FEF74AFA01462AE00020FFF7F9FE002842
:104FB0004FF0000004D0FFF7EBFE4FF44870E5E738
:104FC000FFF7EAFEDFE70020FFF7EAFE00284FF0D8
:104FD000000002D0FFF7DCFECFE7FFF7DDFED4E7ED
:104FE0000020FFF7DDFE00284FF0000002D0FFF7A1
:104FF000CFFE01E0FFF7D0FE257041F69A110022A6
:105000003868FEF767FF064646E00020FFF7AEFE71
:10501000257008E0002051E025703DE084F8018013
:105020000120FFF7A3FE002240F6CD41E8E784F817
:1050300001800120FFF79AFE00224FF48041DFE754
:105040007868FEF78BFF0646D5F1110000D02EB12F
:105050000220FFF79DFE84F802B01DE0012816D95A
:1050600080B2C8214843C117C90341EA5041C00377
:105070004FF4FA72801841F1000152000023FEF74C
:10508000DBF9014600227868FEF724FF064602207D
:10509000FFF782FE84F802803046BDE8F09F00F002
:1050A000A7FAB9E700F0A4FAB4E700F0A1FA04E027
:1050B00000F09EFA0020FFF76FFE0120FFF76CFE64
:1050C000AAE7FFF787FEA7E7742A002018830200EB
:1050D00010B5FFF745FE032101F0DDFA002010BDF9
:1050E000F8B5871C00208DF800000E4601256846A3
:1050F000FEF7D6FF124C20683060D4E90001401A58
:10510000A168091ABE1C06E000F026FBD4E90001E4
:10511000401AA168091A491C8E42F5D8A168206876
:10512000084004EB8000C16841F00301C1602068C1
:10513000384420609DF80000FEF7D6FF2846F8BDF1
:105140007C34002030B482680468531C8360A1540E
:10515000D0E901128A4202D330BC01F0E8B830BC79
:1051600070470000034803C8814201D10120704705
:10517000002070477C3400200249084490F9300038
:10518000704700001C31002070B5084C050009D0A4
:1051900010342168002907D0086820604968284633
:1051A0008847F6E70834F4E770BD000008310020B6
:1051B0002DE9F05F26484168F1B3DFF898B00E683A
:1051C0008146DBF8004087688078E11B21F07F454D
:1051D000ED1CB0B9DFF880804FF48030C8F844038C
:1051E000C8F804031120FEF7A9FA1120FEF7B1FA5E
:1051F0004FF0010AC8F800A02F2000F001FE89F846
:1052000002A0B54200D23546124BE8193C3320F0DB
:105210007F401860DBF800105A46091B21F07F41DF
:10522000001B20F07F40C91C81420FD91068186014
:105230002F2000F0E5FD00E004E0BDE8F05F112064
:10524000FEF792BABDE8F05F02F0B0B9BDE8F09F9A
:10525000942A002004150140001001402DE9F0417E
:1052600017880646B81D14460D46984202D90C20F0
:10527000BDE8F0813188072206290AD34FF4486C33
:105280004FF6FF73614501D9994202D17088062813
:1052900001D21046ECE7604501D99842F9D1994214
:1052A00003D0984201D08142F3D80520E8552088E8
:1052B0001221401C80B2208029542088401C80B2DA
:1052C00020804119308802F004FF2188084480B210
:1052D00020804119708802F0FCFE2188084420805B
:1052E0000020C5E7FEF786BD38B54A7A0F4B62B19C
:1052F00000220A725969002906D001228DF8002087
:10530000ADF802006846884738BD0A7A62B19B68EA
:105310004C68024619462046FEF7DCFD0028F3D013
:10532000BDE8384002F0C8BA5B68F1E734300020CD
:105330000E4910B50A784C780023A24212D0521CB4
:10534000D2B20A70022A00D10B70084A0B780C32D4
:1053500052F8232002608868104420F07F40886063
:10536000012010BD0360002010BD0000942A002021
:1053700030B50446006885B00D46806800281CD012
:1053800014216846FEF7A7F80195A06804902079DB
:1053900010B101280DD104E001208DF80000206932
:1053A00004E002208DF80000E068000302906069CC
:1053B0000390206881686846884705B030BD8268E0
:1053C00083881A4003689A5C0A708168491C81606E
:1053D0007047C26883881A4003689954C168491CA1
:1053E000C160704710B50446C0B2FEF73BFE2046D0
:1053F00010BD00000B484A8843889A4211D10A88A0
:10540000A2F52063773B0CD18988C91E8AB28280BD
:10541000054803211346008801EB004003A101F079
:1054200058BB7047682A0020682B002044617461D3
:10543000206C656E2069732073657420746F203052
:10544000782558282564290010B50949094800F035
:1054500012FC08B1FEF7CEFC4021064800F0FFFB2D
:10546000002803D0BDE81040FEF7C4BC10BD00000A
:10547000F5530200A82E00200146034802888A4204
:1054800000D0002070470000203000202DE9FC5F94
:105490000E008346DDE90C47C6F1000098469246AF
:1054A000814600D40846012503E000BF90FBFAF0D6
:1054B0006D1C5045FADAA84500D9454624B1002EA6
:1054C00001DB780700D5641EB80702D5B8F1000FDC
:1054D0000AD0F80708D13CB1A54205D22021584690
:1054E000641EFFF72FFEF6E7002E02DA4E462D214E
:1054F00002E0780703D52B215846FFF723FE07F07B
:10550000030002280BD1B8F1000F08D13CB1A5422D
:1055100005D230215846641EFFF714FEF6E7CDE9A8
:105520000047434652463146584602F0D7FDBDE893
:10553000FC9F000070B50E460446007918494FF4F0
:10554000A27501EB4010017F2068A1B14FF4887172
:1055500001F086FE4FF49071206801F081FE4FF457
:105560009271206801F07CFE2946206801F078FEE7
:105570000C49206809E04FF48E7101F060FE294665
:10558000206801F05CFE08492068C0F80413206818
:1055900000F0D2FC3146BDE8704000F0B1BC000024
:1055A000743100201003020080000200F0B58488EE
:1055B000A518944200D82246A41AC288D6189A4246
:1055C00000D81346D21A4B880788BB420CD34088B8
:1055D000834209D88888A04206D3A84204D8C88844
:1055E000904201D3B04201D90020F0BD0120F0BDAE
:1055F0000A4810B5807860B1002401E0022C06D082
:105600002046FFF7C5FB641C042CF7D310BD032410
:10561000F6E7BDE81040FFF7D3BB0000742A002076
:1056200006490120086006480168C1F300410029CD
:10563000FAD1044900208870704700000C00004037
:105640001804004008310020F72101801721418013
:10565000002101714171FB2181711B21C1717047D2
:105660002DE9F047394E002780463D46DFF8E090AF
:10567000D6F804A057E003D00446D0F81C8035E0EB
:1056800099F8002002EB4201521CD2B289F80020A6
:1056900009EBC10199F80230091D9A4201D189F83C
:1056A000005048680A780446012A12D0022A02D023
:1056B000032A3BD108E002F065FA00B10127257406
:1056C00034E00574C06900E070680028F9D17060AA
:1056D0002CE0207C50BB88686060C868A0600869C6
:1056E000E0604869A061F07800B165606268B16807
:1056F000184B501A20F07F40984202D2A16808440B
:1057000006E0881AA16820F07F40814202D9081A79
:10571000206000E0256065600120A56020742046BF
:10572000E56102F011FAB8F10000A4D199F8001077
:1057300099F801008142A3D117B97168514502D08F
:105740000120BDE8F0870020FBE70000942A00203C
:1057500094310020FFFF7F0070B588B0214800F031
:105760001DFA2048001F064600F018FA1E4DD5E924
:10577000014105E0C0F3891202EB9050641C04441F
:1057800004EA010005EB8000C0688207F2D0002027
:105790000DF1080204EA010305EB8303641CDB68D6
:1057A00042F82030401C0228F4D3029800F0030095
:1057B000012808D002280AD10298032101EB905059
:1057C00004EB900403E00298C0F3831004443046D5
:1057D000002101AAFDF7E9FD002800D06C6008B0A7
:1057E00070BD0000943800207C340020A8B0002058
:1057F00001F0CEF908B1FEF7FDFA01F059F8FEF715
:105800003FFB08B1FEF7F6FA182259496846FDF742
:1058100049FE5848069058494FF48070CDE9070179
:1058200009900723554A06A96846FEF7C1FB08B14F
:10583000FEF7E0FA01F036FC08B1FEF7DBFA0024CF
:1058400069460120009401F0D1FA08B1FEF7D2FABE
:10585000684601F075FB08B1FEF7CCFA9DF8080028
:1058600047A120F00F00401C20F0F00010308DF810
:1058700008000B2202A87CDF08B1FEF7BBFA0094F7
:105880001020ADF800003C200194ADF80200ADF806
:1058900004404FF4C870ADF8060068467ADF08B1DE
:1058A000FEF7A8FAFFF7D0FD38480090694638485F
:1058B000FFF7B6F908B1FEF79DFAA0216846FDF79B
:1058C0000AFE02208DF800008DF8024005208DF8B8
:1058D00003000120ADF84C008DF87C0040202D49DC
:1058E00022901491B42023902B4826902848694692
:1058F0003030FEF767FD08B1FEF77CFA244801213D
:105900003030FEF75CFD1C216846FDF7E4FD4FF4E6
:105910002030CDE900404FF4702002901F480590E0
:1059200003251F488DF80C500690ADF80E408DF8F9
:1059300010406846FEF714FF08B1FEF75BFA19A0A5
:10594000FEF7BAF91B481CA1008805EB004001F0E6
:10595000B5F800BF00F0BAFF0028FBD10C480321C6
:105960003030FEF717FE08B1FEF744FAFEE70000FC
:10597000F88202008C2C00208C2D0020B97D0200C2
:105980004E6F726469635F736F7975006D720200A8
:105990008C2E00206E2A00202D730200517302000D
:1059A000E55202000D0A554152542053746172743D
:1059B000210D0A00682B0020554152542053746178
:1059C0007274210070B5144682880E460546208800
:1059D000111D0144921C994201D8FE2A01D90C20C4
:1059E00070BD521C32542088FF21401C80B22080A0
:1059F00031542088401C80B220808119288802F010
:105A000068FB2188084480B22080AA8842B1A96836
:105A100041B13044FDF746FD2088A9880844208024
:105A2000002070BD072070BD2DE9F047C7880446EF
:105A3000181D16468946B0FBF7F1B0FBF7F207FBDD
:105A400012009A193A44D21CB2FBF7F2DDF820A0FA
:105A500001E02468491E0029FBD13D1A8846B54261
:105A600016D818E0BAF1000F05D0211809EB08008C
:105A70002A46091D04E0204409EB08012A46001DBE
:105A8000FDF710FD00202468761BA844B74201D919
:105A9000354600E03D46002EE4D1BDE8F087000029
:105AA00030B5024669B101F0A1F80021084C0BE0C5
:105AB00001EB410304EB830315685B88AB4202D121
:105AC0001160002030BD491C8142F1D3052030BD5A
:105AD000202B0020F8B50E46017814460546012912
:105AE00001D1687830B12088821C9A422DD80129D2
:105AF00002D006E00720F8BD69780144891C99426C
:105B000023D8181A801E87B2ADF800702188B01C07
:105B1000084469467DDF0028EDD12878022805D1A8
:105B2000BDF80010B94201D809210AE00821012876
:105B300005D16878B84202D8ADF8000001E0ADF8B0
:105B40000070BDF80000FE2801D90C20F8BD2288A5
:105B5000401CB0542088401C80B2208031542088E2
:105B6000401C2080BDF80010084420800020F8BDB3
:105B700010B50A8849888A4203D1FDF78DFB0120C0
:105B800010BD002010BD70B50C460546FDF767FB43
:105B9000002802D061882868084470BD08B501213A
:105BA0006A46FDF7F5FB009808BD38B504460025A8
:105BB0008DF800506846FEF773FA2168626808683D
:105BC00090420ED9401E08600178238AE26801FBEA
:105BD0000325227A2168101AC0B20A79824200D2C3
:105BE00008719DF80000FEF77FFA284638BD38B5E9
:105BF000054600208DF800000C466846FEF750FA76
:105C0000E868298A201AB0FBF1F12A681068431C61
:105C1000136001709DF80000FEF766FA38BD10B5FC
:105C200030B1017A42680368891AC9B21A6006E085
:105C30000E2010BD03681A68541C1C601170491EA8
:105C4000C9B2F7D2006800210171084610BDC20830
:105C500000F007030120895C98400840704728B194
:105C6000A1F11702E12A03D3072070470E207047E5
:105C700001800020704710B560B10161F72120F864
:105C8000021B20F8021BFB2100F8021BFFF7DCFCC3
:105C9000002010BD0E2010BD2DE9F043858895B081
:105CA0000C46002D3DD10188DFF824810026DFF865
:105CB0002491012724293CD006DC102909D0112980
:105CC0000CD023296DD150E03A290BD0552968D149
:105CD0002AE00146204601F049FB62E0A01DFFF7E3
:105CE000B3FC5EE02246408934F8061F814200D8AA
:105CF00008466080172800D217206080106970B1B4
:105D0000607960B1D8E90010CDE90310ADF80E500C
:105D10006088ADF81000136903A9104698476671B2
:105D2000267115B0BDE8F0830146204601F06CFBFA
:105D300037E0011D342206A8FDF7B4FBBDF81800BA
:105D4000BDF81C2004EBC0014A7322694AB3D8E9AC
:105D50000432CDE90432ADF81200487B8DF814000E
:105D60002269204604A990471BE00496059630F866
:105D7000041F04EBC1020179127B8A4200D2114652
:105D8000ADF81010ADF812100088002204A990DFC1
:105D9000020006D0B9F800000F4907EB004000F000
:105DA00091FEA07A0028BCD0E18828469EDF020040
:105DB0000BD0112AB5D0B9F8000015B007EB0040A0
:105DC000BDE8F043054900F07DBEA672E772A8E782
:105DD00044830200202B00209886020010860200D7
:105DE00000F180400068002800D00120704708B50D
:105DF00000F18040002101600068009008BD0000B3
:105E000000283ED01F49204A096800BF00BF00BFDC
:105E100000BF00BF00BF00BF00BF91422FD000BF36
:105E200000BF00BF00BF00BF00BF00BF00BF00BF7A
:105E300000BF00BF00BF00BF00BF00BF00BF00BF6A
:105E400000BF00BF00BF00BF00BF00BF00BF00BF5A
:105E500000BF00BF00BF00BF00BF00BF00BF00BF4A
:105E600000BF00BF00BF00BF00BF00BF00BF00BF3A
:105E700000BF00BF00BF00BF00BF00BF00BF0138B0
:105E8000C3D170471C2B00200024F40070B50F4CC8
:105E90000025207808B1852516E00021A160616009
:105EA0002161E1604FF0E020D0F80001012610F000
:105EB000010F03D10721002000F022F801F03AF988
:105EC00008B9034806602670284670BD08310020D6
:105ED0001805004008B500208DF800006846FEF760
:105EE000DFF80648C168491EC160C06808B9FFF7FD
:105EF00097FB9DF80000FEF7F7F808BD0831002079
:105F00004907090E002806DA00F00F0202F1E0222C
:105F100082F8141D03E000F1E02282F8001400F082
:105F20001F02012191404009800000F1E020C0F8EB
:105F30008012C0F800117047000B40B27047012179
:105F4000B1EB507F01D10120704700207047000065
:105F50002DE9F04105460079164F904607EB4014B5
:105F60000E46E07E10B10820BDE8F081707F2077FA
:105F70002846FEF7D3F85FEA0800606031692160C7
:105F800003D0317F2846FFF7D5FA287907EB401078
:105F9000007F0028286801D0082100E00421C0F813
:105FA00000150020E0752076A0750121E176A0762D
:105FB000DAE70000743100202DE9F0410546007950
:105FC000284E904606EB40140F46207F18B1084635
:105FD000FFF7B5FF80B1626800234FF404704FF4FF
:105FE000017172B12A7906EB4212127F002A2A68E7
:105FF00005D0C2F8080304E01020BDE8F081C2F823
:106000000813E27DB2B1227E7AB162685AB12A7970
:1060100006EB4212127F1AB12968C1F8040302E0AC
:106020002868C0F804131120E7E72761012384F8EA
:10603000188005E084F817800020E76060762076FD
:106040002879424606EB40103946007F0028284652
:1060500003D0BDE8F04100F073B8BDE8F04100F0B6
:106060001BB800007431002070B504460079094D5A
:1060700005EB4010017F00290AD1807E002807D15E
:10608000204601F027FB2179012005EB411188769C
:1060900070BD0000743100202DE9F05F04460079E6
:1060A000264901EB4015A87E184302D1204601F095
:1060B00011FB68680028206806D04FF40171C0F811
:1060C00004130020BDE8F09F4FF4A276314601F0A2
:1060D000B6F8B1464FF4927A4FF4847B514620686B
:1060E00001F0A8F806465946206801F0A3F880465A
:1060F0004946206801F09EF8074648EA0700304309
:10610000ECD056EA070007D12946206801F06CFA66
:10611000E87D697E8842E1D80020E8750EB1032051
:10612000D0E70FB10F20CDE7A97E0120002921681B
:1061300001D00860C5E74860C3E700007431002063
:106140002DE9F05F894604464FF488759A469046DB
:1061500000260068294601F083F84FF4A2773946FB
:10616000206801F07DF82068C0F83495C0F83885C3
:106170002068BAF1000F14D0D0F8001241F02001CD
:10618000C0F800122179DFF8648008EB4110406804
:1061900050B120684FF40471C0F804133046BDE8D4
:1061A000F09F01210160EDE7AA46B9464FF4927BCA
:1061B0005146206801F04FF807464946206801F033
:1061C0004AF805465946206801F045F8014647EA75
:1061D00005000843ECD02379002208EB4310C27578
:1061E00001B10326002DD9D00F26D7E77431002046
:1061F0002DE9F047054600793F4E904606EB4014E6
:106200000F46207F18B10846FFF799FE30B12846A7
:1062100000F074F820B11120BDE8F0871020FBE7F2
:1062200084F81680A7600027A78228794FF001081C
:1062300006EB40143E46207F0028286825D04FF406
:106240009079494601F00CF84FF4AC7A5146286831
:1062500001F006F82868A17DA268C0F84425C0F8BE
:1062600048152868C0F808806068F0B94946286871
:1062700000F0F1FF80465146286800F0ECFF58EA34
:106280000001F3D058BBA7750FE04FF48E7A51464A
:1062900000F0D5FF2868C0F808802146286801F082
:1062A000FFFC61684FF4807089B13046B4E7514615
:1062B000286800F0BFFF10B9A08A4845F7D1A08A2E
:1062C000484505D02146286801F0EAFC00E08146F7
:1062D000A08AA17D8842EAD3A08A484501D10F2631
:1062E000D1E75146286800F0A5FF0028F9D02868BA
:1062F000C0F80C80C7E70000743100200079044921
:1063000001EB4010807D002800D001207047000084
:10631000743100200FB408B50399002904D004AAF1
:1063200000926A4600F00FF801B05DF814FB10B55A
:1063300082680446002A05D0D4E9040321689847FE
:106340000020A06010BD2DE9FC4791460C0080465E
:1063500076D014F8011B39B125290ED04046FEF73E
:10636000F1FE20780028F4D198F80C00002867D0BE
:106370004046BDE8FC47FFF7DABF00200122217844
:106380002B291BD02D2902D0302908D102E040F062
:10639000010001E040F00200641C002AEFD100255A
:1063A0002A290ED02178A1F130020A2A11D205EB58
:1063B000850201EB4205641C303DF1E740F004002A
:1063C000EAE7D9F800100B1DC9F800300968641C11
:1063D0000D44217800232E290BD114F8011FA1F1BF
:1063E00030020A2A05D203EB830201EB4203303B61
:1063F000F3E76C290DD068290BD0692921D00BDC7B
:10640000252918D0582931D063290ED0642915D1F7
:1064100017E014F8011FECE7702969D0732932D016
:1064200075291BD0782909D120E0D9F80000011D79
:10643000C9F8001001784046FEF784FE641C90E71E
:106440006CE0D9F800100A1DC9F800200968CDE9F0
:1064500000500A224046FFF719F8EFE7D9F800107C
:106460000A1DC9F8002009680A2206E0D9F80010C0
:106470000A1DC9F8002009681022CDE900504046E5
:1064800001F02CFEDAE7D9F8001000270A1DC9F840
:1064900000200E68C00705D112E04046761C7F1C24
:1064A000FEF750FE31780029F7D104E02021404664
:1064B0006D1EFEF747FEBD42C0D9002DF6D1BDE7E7
:1064C0004EB13046FDF712F8074604E02021404661
:1064D0006D1EFEF737FEBD4206D9002DF6D103E052
:1064E0004046761CFEF72EFE31780029F8D1A5E74C
:1064F000D9F80000011DC9F8001005683021404698
:10650000FEF720FE78214046FEF71CFE0820002101
:10651000CDE90001034610222946B0E7BDE8FC871B
:106520002DE9F04128B1016819B1C969BDE8F04110
:1065300008470D4D0D480024461B14270DE000BFF1
:1065400004EB840005EB8000016829B1C969884724
:1065500010B10120BDE8F081641CB6FBF7F0A04249
:10656000EED80020F6E70000000000000000000068
:10657000044801214174007A08B1002070470120CD
:106580007047000058330020012801D0032808D1AB
:106590000449002201284A7400D00020087400F049
:1065A000B9BF70475833002070B5254C0246207A99
:1065B000012837D0022841D122480023022A00684E
:1065C00002D0032A2ED11BE0E360017911B1012929
:1065D00028D10DE0D0E90565711B4FF48056B1421A
:1065E00000D33146294481614569A9420ED019E0A2
:1065F0000169491C01614269914213D1237217E07C
:10660000E168491CE16008290CD9E3602372022A81
:106610000ED00D21FEF7ACFE0B480A49091D00689B
:10662000FFF7A6FA607C28B1BDE8704000F088BD95
:106630000021EFE7BDE8704000F06CBF70BD0000C6
:1066400058330020B82A0020B083020070B541EA18
:106650004201DDE904564FF0A04441EA830141EADA
:10666000052104EB800041EA0641C0F8001770BD27
:106670001CB500220B46009211460192FFF7E6FF7F
:106680001CBD1CB5002100910B4601220191114651
:10669000FFF7DCFF1CBD4FF0A04202EB8000D0F8FA
:1066A000002722F44032C0F80027D0F8002742EA41
:1066B0000141C0F8001770474FF0A04202EB800084
:1066C000D0F8002722F44032C0F80027D0F8002785
:1066D00042EA0141C0F80017704701224FF0A04381
:1066E000824011B1C3F808257047C3F80C257047E4
:1066F00018B5084B6C4601441B68009306E000BFC8
:1067000054F82030D3F81035401C08C28142F7D825
:1067100018BD00007C830200034908B5084400212D
:1067200001600068009008BD0060004002494058C8
:10673000012800D0002070470060004030B5124BA7
:1067400001460020D3F81044224609E0157A85421C
:1067500005D1401C0A28F7DB4FF0FF3030BD5268EE
:10676000002AF3D1421CF9D00872D3F810242AB1C0
:1067700052684A60D3F81024516030BD0022C3F83B
:1067800010144A6030BD00007C3400207047FDF7D3
:1067900045B8704708B5034A00924023024A00F00A
:1067A00005F808BDC97802007C330020F0B595B02B
:1067B0001C4615460F4608461A9E00F0E7FA1821B7
:1067C00009A8FCF788FE0E96CDE90954002308229B
:1067D00003A9384600F0F4FA059806900498ADF83D
:1067E0001C0000208DF820000398082600F003000C
:1067F000012802D002281DD03CE003983346850AC8
:10680000C0F3C2008DF81E0003980FA9C0F38000EA
:106810008DF81F000398C0F38314A200384600F0DF
:10682000CFFA09A8009006AB22460FA9284600F02F
:1068300009FA1FE00398840DC0F3C2008DF81E0012
:106840000398C0F380008DF81F00082C01D2254664
:1068500000E0082533462A460FA9384600F0B0FA72
:106860002E44641B09AB06AA29460FA800F03AF98A
:10687000002CEAD1384600F092FA15B0F0BD0000C5
:106880000A4A012902EBC00007D0022907D00329D8
:1068900007D0042907D00020704702207047042049
:1068A000704700797047407970470000FC8C020007
:1068B00010B5FFF76CFF04210348FFF73FFF0249C3
:1068C0000120487210BD0000C42A00202DE9F04FBD
:1068D0008DB0FEF747FC18B100200DB0BDE8F08F79
:1068E00074480021C0F81814BFF34F8FD0E9014657
:1068F00004EA060100EB81014FF000090AE000BF45
:10690000C1F3891202EB9151641C0C4404EA0601A4
:1069100000EB8101C9688A07F2D0002103AA8046F2
:1069200004EA060008EB8000641CC06842F82100FD
:10693000491C43460229F3D3039800F003000228C0
:1069400006D0012803984FD0C04380077ED0ACE02A
:1069500003985022810D8A46B2EB905F00D85021F7
:106960000D4665F39F5003900831534800F0C5F978
:1069700007006CD000F00AFA4B46082203A93846FB
:1069800000F024FA04EA0601701A8000001D09F1E3
:10699000080B854221D9474E0C3630B1C2B208EB04
:1069A0008101281A91460C3104E03146EAB20026F2
:1069B00091463046C5B25B46384600F007FA0BEB0D
:1069C00009032EB12A4631464FEA070000F0FEF9CE
:1069D0000AF1030004EB90043BE008EB81015B4605
:1069E0002A4638460C31F1E7C0F38310062800D35D
:1069F0000620039960F38911C1F38310801C039171
:106A000081002D4800F079F907004ED000F0BEF962
:106A10004B46082203A9384600F0D8F909F10809C5
:106A200000250DE004EA060008EB80014B46042235
:106A300038460C31641C00F0C9F909F104096D1CD9
:106A40000398C0F38310A842ECD801E00BE02CE0DF
:106A50005FB3D8F81054D8F81804464690B13846B9
:106A600000F09DF921E0D3F8180400283FF435AF79
:106A70001BE0687A012804D1296828460A6839464B
:106A800090476D68002DF4D1384600F088F9002059
:106A90008DF800006846FDF703FBD6F8180400B92E
:106AA00074609DF80000FDF71FFBFEF75BFB80F0B4
:106AB000010012E77C340020D084020000231A4633
:106AC00000F0BABF08B5012300926A4600F0B4FF97
:106AD00008BD1CB5CDE9002302236A4600F0ACFFD7
:106AE0001CBD00002DE9F0470E4680461C4692462C
:106AF00008293ED894F80C900020207319461046BF
:106B000000F0DAFC0025B54206D218F805201AA1DB
:106B10002046FFF7FFFB03E019A12046FFF7FAFB31
:106B20006D1C082DEFD317A12046FFF7F3FB0025BE
:106B3000B54210D218F80570FCF7B0FC0068C05DD3
:106B400010F03E0F01D03A4600E02E220EA1204662
:106B5000FFF7E0FB03E00DA12046FFF7DBFB6D1C18
:106B6000082DE5D301222146504600F087FC84F829
:106B70000C90BDE8F087000020253032780000003E
:106B8000202020007C000000256300002000000081
:106B9000114810B5FF218160002101604160C0F8FB
:106BA0001814C0F8141480F81C140C4800F0F5F800
:106BB00000280FD10A480B490B4B401AC10800208E
:106BC00005E000BF00EB400223F82200401C884291
:106BD000F8D3002010BD00007C340020D0840200D7
:106BE0004C8D0200FC8C0200202B0020024803493F
:106BF000401AC008704700004C8D0200FC8C020057
:106C000013B56846FEF74CFF08B100201CBD0248D2
:106C1000009950F831001CBDFC8C020070B508488A
:106C20000125D0F8104480F81C5405E065722168F5
:106C30002046496888476468002CF7D170BD000081
:106C40007C3400202DE9FF4781460C9D00200C4636
:106C50002F7B2873984616462946184600F02CFCD0
:106C6000072E42D2DFE806F004090F161F2A36006D
:106C700049462846FFF74EFB37E04946284622683A
:106C8000FFF748FB31E0D4E9002349462846FFF7E7
:106C900041FB2AE0A0680090D4E900234946284639
:106CA000FFF738FB21E0D4E90201CDE90001D4E986
:106CB000002349462846FFF72DFB16E004F10800A3
:106CC00007C88DE80700D4E9002349462846FFF7A6
:106CD00021FB0AE004F108000FC88DE80F00D4E999
:106CE000002349462846FFF715FB00222946404667
:106CF00000F0C4FB2F73BDE8FF872DE9F041058A42
:106D000080462D1F4819C01CB0FBF5F0C6B24046A6
:106D1000FEF74BFF040019D00020207101206071A4
:106D2000E58000272546761EC4F800800BE040462B
:106D3000FEF73BFF60B16179491C6171286005462F
:106D40007F1CC0F80080B742F1D32046BDE8F08137
:106D5000204600F002F80020F8E72DE9F0414579DF
:106D600001466B1E002201E00968521C9A42FBD3C7
:106D70000F680146002605E038460C68FEF737FF2D
:106D80002146761CAE42F7D3BDE8F08108B501215B
:106D90006A46001DFCF7D5FA08BDFEF740BF38B5BE
:106DA0000446001D01216A46FCF7D8FA009810F04D
:106DB000FF0F04D12046BDE83840FFF7CEBF38BDF5
:106DC00038B501240094FEF72FFE38BD38B50024F5
:106DD0000094FEF729FE38BD20B10349096801601F
:106DE000002070470E2070475C8502002DE9FE43AD
:106DF00006460D460846FFF7EFFF00287ED1804685
:106E0000CDF80080CDF80480012403208DF80060C7
:106E1000ADF80400CDF808808DF8024069462020C6
:106E20002A6869DF3F4F40B100F0FAF9024638881E
:106E30003D4904EB0040FFF745FECDF800808DF89A
:106E400000408DF80180CDF80480CDF808808DF8E1
:106E50000280694640202A6869DF40B100F0E0F90D
:106E600002463888314904EB0040FFF72BFECDF88D
:106E700000808DF80060F720ADF80200CDF80480A6
:106E8000CDF80880694623202A6869DF40B100F008
:106E9000C7F902463888264904EB0040FFF712FE86
:106EA000CDF80080CDF80480CDF808808DF8004042
:106EB0004646694601202A6869DF40B100F0B0F912
:106EC000024638881B4904EB0040FFF7FBFD4FF4F6
:106ED000B0600090019602966946A1202A6869DF99
:106EE00040B100F09DF902463888134904EB004098
:106EF000FFF7E8FD00960196029600E010E08DF89D
:106F000000606946A0202A6869DF40B100F088F976
:106F100002463888094904EB0040FFF7D3FD002002
:106F2000BDE8FE83802B0020A48B0200EC8B0200C6
:106F3000388C0200048B0200508B0200B08A0200E1
:106F40002DE9F0410446D0F800E060DF2368144DDD
:106F50000646734515D02888022707EB0040724685
:106F600010A1FFF7B6FDF806D0F80C0121688002E9
:106F700000F10050421A288816A107EB0040FFF7E5
:106F8000A1FD56B1304600F04BF902462888012198
:106F900001EB004018A1FFF795FD3046BDE8F081F8
:106FA000802B002052414D207374617274732061F4
:106FB0007420307825782C2063616E206265206112
:106FC000646A757374656420746F20307825782E38
:106FD0000000000052414D2073697A652063616EA4
:106FE0002062652061646A757374656420746F2023
:106FF000307825782E00000073645F626C655F65F1
:107000006E61626C6528292072657475726E6564A4
:107010002025732E0000000030B5EBB04FF4CE7584
:10702000ADF8A8516AA9684661DF30B1052816D0CD
:107030006BB0BDE83040FCF7DDBE6C46094967A87F
:1070400000F0AAF807E000BFD0E9002120469047F1
:1070500067A800F0B8F869980028E1D0F4E76BB0B1
:1070600030BD00006085020010B50D4C2078A0B145
:107070000120A07000F08AFB11280CD0022000F043
:107080009DFB11DF002807D12070A07000F090FC5C
:10709000032000F093FB002010BD082010BD00006D
:1070A000182B002038B5174C207808B1082038BDBF
:1070B0000125A570002000F069FB112820D00020D8
:1070C00000F07CFB1048114900680090684610DF12
:1070D0000028ECD12570A07060700721162000F008
:1070E00009FB08B1FCF786FE0721152000F002FB22
:1070F00008B1FCF77FFE00F077FC012000F05EFB9A
:10710000002038BD182B0020F48402007D3D0200D1
:107110000EB50749684600F03FF805E0D0E90010D9
:107120008847684600F04FF802980028F6D10EBD57
:10713000108502000148007870470000182B0020DD
:107140000548817819B1007818B1FFF78DBF082084
:107150007047FFF7A7BF0000182B00201FB5684637
:1071600048DF30B1052814D004B0BDE81040FCF76A
:1071700041BE084901A800F00FF806E0D0E900215F
:107180000098904701A800F01EF803980028E6D068
:10719000F4E71FBD7C850200016009684160AFF320
:1071A000008010B5D0E900215368994201D1002137
:1071B00004E0D1E90034A34202D01946816010BD39
:1071C00008314160F0E7816800290BD002689268BD
:1071D0000A44826041684B689A4203D10831416099
:1071E000FFF7DFBF704700000C4A10B502F1F00353
:1071F0000EE0991AC91001EBD171491002EBC101DF
:107200000C68844201D90B4602E005D201F1080264
:107210009A42EED3002010BD486810BDD48302000E
:1072200000B5FFF7E1FF002800D1014800BD0000D4
:10723000C08302004058002800D00120704708B5E4
:10724000002242504058009008BDD0F80403084086
:1072500000D0012070474058002800D0012070471E
:1072600008B5002242504058009008BD2DE9F04179
:107270001D4F05460321388801EB00401BA1FFF795
:107280001DFC00BFFFF722FB0028FBD1287828BB9C
:1072900000264FF0010812E0A868805DFCF7E2FECE
:1072A00004000BD0112CF7D03988224608EB01409E
:1072B00013A1FFF707FC2046FCF79CFD761CA8896C
:1072C000B042E9D8A989A868084410F8010C0D2833
:1072D00004D10A20FCF7C6FE1128FAD0FFF7F6FA0F
:1072E0000028FBD1BDE8F081682B00206E75735F2C
:1072F000646174615F68616E646C657200000000B7
:107300004661696C656420726563656976696E675C
:10731000204E5553206D6573736167652E2045724D
:10732000726F7220307825782E20000010B550B191
:1073300003280CD10220FDF7E3FD002807D0BDE8AB
:107340001040FCF757BDBDE8104000F017BB10BD62
:107350000078002807D104483B21408876DF0028C8
:1073600001D0FCF747BD7047682A00202DE9FC4199
:107370008E88027900EBC605AC1D2A73C97B0129F2
:1073800002D0022904D101E0008800E0408820807A
:10739000218860880127DFF8648081420CD930465B
:1073A0009EDF020025D0112A25D0B8F8000014492C
:1073B00007EB0040FFF786FBA079E179884216D9F8
:1073C000002000900190287BADF80000287BADF8EC
:1073D000020000226946304690DF030007D0B8F86B
:1073E0000000324607EB00400649FFF772FBBDE89C
:1073F000FC816771E0E72771DEE70000202B0020A9
:1074000010860200E08602007CB506468D88C8889A
:1074100006EBC504A41D172800D21720218881423D
:1074200000D8084660800020207121882846ADDF02
:10743000020007D00E480121008801EB00400D49F1
:10744000FFF740FB6079002810D1306900280DD08B
:107450000948D0E90210CDE90010ADF8025060886B
:10746000ADF8040032696946304690477CBD0000A3
:10747000202B0020548602004483020010B50C46E5
:10748000C17949B11AB109A12046FEF743FF204650
:10749000BDE81040FEF74BBF007A0028F3D0044847
:1074A00004A102682046FEF735FFECE70D0A000054
:1074B000F42A00202573000070B50446C0790D46FB
:1074C00000281CD1207A50B1A179A088FFF7D8F903
:1074D0000B4951F820200BA12846FEF71BFFA0887E
:1074E0000021FFF78DFB03460549A079143951F8B7
:1074F00020202846BDE8704003A1FEF70BBF70BDF9
:10750000F42A0020257300003C25733E2025733AA1
:10751000200000002DE9F041214C0025214E207A69
:10752000012730B92048311D0068FEF72CFB306080
:1075300038B1022020723168087928B101281ED1A3
:1075400016E06560BDE8F081D1E90503C01A4FF48B
:107550008052904200D31046B7EB900F01D28208C0
:1075600000E001220869C9681844194429DF03E0D2
:10757000D1E90301084428DF38B111280ED00321D6
:107580003068FDF7F5FE2572DBE7207C0028D9D1B5
:10759000BDE8F04100210220FFF706B82772D1E7CD
:1075A00058330020B82A0020B083020070B50126AD
:1075B00070044FF0E0210025C1F88001084C401014
:1075C000C4F84803C4F8080366602F20FEF718FCCF
:1075D000A660044C2F20A560FEF712FCA57070BDBC
:1075E00000100140942A002070B50546C87D0C4665
:1075F00000284FF4847128460AD0FFF720FED5F802
:107600001805627EE1688854607E401C607670BD1B
:10761000FFF715FED5F8180570BD30B58FB00546DB
:107620001C216846FBF757FF00249DF800000194D9
:1076300040F00C008DF80000039404940594069427
:1076400028788DF836000220ADF834000C949DF8AF
:107650003000142120F00F00401C20F0F00010300A
:107660008DF830009DF8310020F00F00401C20F014
:10767000F00010308DF831009DF8320020F0060047
:10768000801C20F0180040F001008DF8320007A89F
:10769000FBF721FF0DA807900CA808900120ADF87A
:1076A0002400F420ADF82640ADF82800688805F1E4
:1076B0000C0307AA6946A2DF0FB030BD1FB5012336
:1076C0008DF800308DF808100192D0E9001268465C
:1076D00090471FBD10B5044600684FF49271FFF744
:1076E000AEFD4FF484712068FFF7A9FD20680121E9
:1076F000016010BD70B50D460446FCF7F5FA70B197
:107700002846FCF703FB68B16807000E002C0CDA72
:1077100004F00F0101F1E02181F8140D09E042F2BB
:10772000010070BD42F2020070BD04F1E02484F853
:107730000004002070BD000038B50021012558B1BB
:1077400001280ED003280BD107210020FEF7D8FB1B
:10775000BDE83840FEF7BEBB4FF0E020C0F88051D6
:1077600038BD8DF800106846FCF79AFC064C20786E
:1077700008B9FEF78BFBE068401CE060A5709DF83F
:107780000000FCF7B1FC38BD083100203EB50446CE
:1077900009496846FFF700FD08E000BFD0E9002175
:1077A0002046904730B16846FFF70DFD029800284B
:1077B000F4D13EBD11203EBDF88402003EB5044622
:1077C00008496846FFF7E8FC07E000BFD0E9002160
:1077D000204690476846FFF7F6FC02980028F5D14E
:1077E0003EBD00000485020070B50028049D18D03D
:1077F000002916D0002A14D05FF0000430F814607D
:107800009E420FD100200123A34008E001EB800439
:1078100026680DB11E4300E09E43401C2660904246
:10782000F4D370BD641C202CE8D370BD70B5054640
:1078300000242146284600F00AF808B1204670BD11
:10784000641CA4B2202CF4D34FF6FF7070BD01224B
:107850008A40024201D001207047002070472DE984
:10786000F04192B080464FF0000017460D000090A6
:1078700012D000246E46A1B23846FFF7E8FF40B1AF
:10788000009935F8140006EB410188800098401CEF
:107890000090641C202CEED3442269464046FBF73E
:1078A00001FE12B0BDE8F08108B500931346012235
:1078B000FFF79AFF08BD000002498969002900D03E
:1078C00008477047343000202DE9F04114000F467E
:1078D0000DD000250A26791922460020FBF7A0FFCB
:1078E0000544241A08B9761E01D0002CF3D1BDE856
:1078F000F08100002DE9F0410746806A1446884671
:10790000C8B3002531E000BFB96A05EB450001EBC3
:107910008006B088801CFE2802D90C20BDE8F081CA
:107920002288401C08F8020020881622401C80B2E1
:10793000208008F800202088401C80B2208000EBC6
:107940000801308800F0C5FB2188084480B22080FF
:10795000B28842B1B16871B14044FBF7A3FD208801
:10796000B188084420806D1CEDB297F82C00A84225
:10797000CAD80020D2E7FFE70720CFE710B50020E4
:10798000FDF7BEFA08B1FCF735FAFDF73FFA08B18A
:10799000FCF730FA32DF002803D0BDE81040FCF7D6
:1079A00029BA10BD002801D1FDF7EEBB70470000D9
:1079B00010B51620FCF798F948B10A4882684FF4D0
:1079C000800152B1016821F48001016010BDBDE861
:1079D000104042F20100FCF70DBA4FF0E020C0F871
:1079E000801110BDC032002010B51620FCF77CF9C4
:1079F00080B10F4890F800044009FCF787F960B1A6
:107A00000C4882684FF480016AB1016841F480013A
:107A1000016010BD42F2010001E042F20200BDE847
:107A20001040FCF7E7B94FF0E020C0F8001110BD9E
:107A300016E000E0C03200202DE9F843214C8846D2
:107A4000054691461F4669461846A668FDF748FB5D
:107A500070B30098811C00220AE000BF01EA060C06
:107A600059F8223004EB8C0C491C521CCCF80C3019
:107A7000BA42F3D30246401C304004EB80002B0C8A
:107A8000C36002EA060004EB8002E80652F80C0F1D
:107A900002D540F0040001E020F0040065F3C500C9
:107AA00067F3891068F39F2020F00300401C1060EA
:107AB00094F81C0402E000BFFEF708FF0028FBD189
:107AC000BDE8F8837C3400202DE9F84F1D4C0025DB
:107AD0006846D4E901A6FDF72BFC002738B3002344
:107AE000009A61681CE0D1F800C00846944503D9AB
:107AF000ACEB02020A6015E0A2EB0C0263440760E3
:107B0000D0F80CC0C1698146BCF1000F08D006EB6B
:107B1000030828F07F48C0E9018CC9F81C500546CD
:107B20000029E0D128466160FDF79AFD03E0284670
:107B3000FDF796FD10B15046FDF73AFBE770BDE842
:107B4000F88F0000942A00200D4B10B5596831B110
:107B500002680C68A24204D8A21A0A60C161586087
:107B600010BD0B4603E00B46C969121B21B10C681E
:107B70009442F8D3A41A0C600260C161D86110BDB0
:107B8000942A00202DE9F041144E77683D462C469A
:107B900003E0844204D02546E469002CF9D11BE0BF
:107BA000D4B1A5420BD1F869706040B90C490120ED
:107BB00088600021B160F0702F20FEF721F9216864
:107BC000E069E86110B102681144016070688742A1
:107BD00002D00120BDE8F0810020FBE7942A0020BC
:107BE000001001407CB5064600240D468DF800408B
:107BF0006846FCF755FA01A800F0FEFA70B105706E
:107C0000094946609DF8040048709DF80000FCF7A3
:107C10006BFA1420FBF7A8FD20467CBD04249DF8D8
:107C20000000FCF761FAF7E7943100202DE9F041FC
:107C3000194D6C68002C2CD0184800270068A968E2
:107C4000B846401A20F07F462068B0420CD8214642
:107C5000361A0744E469087C20B181F810808869ED
:107C600049698847002CEFD129786878814206D18C
:107C7000401CC0B26870022801D185F80180064816
:107C800069780C3040F82170BDE8F0411420FBF712
:107C90006BBDBDE8F0810000942A0020041501406E
:107CA00070B50C4605464FF48E71FFF7C8FAA18AED
:107CB000A068415CA08A401CA082C5F81C1570BD5C
:107CC00030B58FB00024054607949DF81C001C2198
:107CD00020F00F00401C20F0F00010308DF81C0048
:107CE0009DF81D0020F00F00401C20F0F000103027
:107CF0008DF81D009DF81E0020F00600801C8DF8F8
:107D00001E006846FBF7E7FB9DF80000019440F079
:107D100010008DF8000007A8CDE9044003940694F4
:107D200028788DF83A000320ADF838000D949DF8BE
:107D30003400142120F00F00401C20F0F00010301F
:107D40008DF834009DF8350020F00F00401C20F025
:107D5000F00010308DF835009DF8360020F0060058
:107D6000801C20F0180040F001008DF8360008A8B3
:107D7000FBF7B1FB0EA808900DA809900120ADF803
:107D80002800F420ADF82A40ADF82C0068882B1D9F
:107D900008AA6946A2DF0FB030BD1FB500228DF8DA
:107DA00000208DF80810816801918275D0E90012D9
:107DB000684690471FBD000038B5017841B10129E0
:107DC00001D0022928D14068BDE83840FCF712B83C
:107DD000134C124D20782844FCF7D0F82078401C32
:107DE000C0B22918207011F8011C0A2902D0A188FC
:107DF000884211D320780949ADF800006A4601F5A0
:107E00003D70FCF785FF082804D01128F2D008B196
:107E1000FBF7F0FF0020207038BD0000982B0020F9
:107E2000682A00207CB50178244D81B301290BD04C
:107E300002292BD18DF80010C068691C0190012225
:107E4000C81DFEF7B9F82EE0406801781C48FBF722
:107E5000F7FF1B4C012618B18DF80060019006E079
:107E6000A068E168814205D000208DF800006968B3
:107E700068468847A068E168081AA188884207D840
:107E80000E490122491CC81DFEF796F87CBD01E091
:107E9000AE70FBE70A4809491030FBF7B6FF30B176
:107EA00003208DF80000696868468847EEE70349BB
:107EB000012201F10800FEF79BF9E7E7A82A00205C
:107EC000A03200202DE9FF470C4605464FF4007113
:107ED000FFF7BBF901274FF40178002618B34FF4E0
:107EE000927949462846FFF7A5F9E0B14946284668
:107EF000FFF7A5F9C5F80883A07E00B96F600220DE
:107F00008DF80000D5F88004C5F880040390E07D6A
:107F10008DF80800E0680190E6752676D4E9001235
:107F20006846904727E004212846FFF78EF910B3F2
:107F30004FF484712846FFF77DF9E0B121462846C9
:107F4000FFF752FBE07D617E884214D1207E38B17C
:107F5000617EE268E0752069E0602676667607E07B
:107F6000A07E00B96F60C5F80883E675617EE2689F
:107F70002046FFF7A3FB4FF48E7841462846FFF7D3
:107F800059F988B1A08AA17D884204D221462846A9
:107F9000FFF786FE08E041462846FFF750F9A17D2D
:107FA00011B12046FFF7F9FE4FF4A278414628466A
:107FB000FFF740F9002812D041462846FFF73FF965
:107FC000A07E00B12F60E07D002808D0E675617EBC
:107FD000E26804B02046BDE8F047FFF76FBBBDE89C
:107FE000FF872DE9FF410C464FF49277054639464D
:107FF000FFF731F90026C0B139462846FFF730F9BE
:1080000002208DF80000D5F88004C5F880040390A4
:10801000D5F83C058DF80800E0680190E6752676F5
:10802000D4E900126846904724E04FF48877394637
:108030002846FFF710F9E8B139462846FFF710F94E
:10804000D5F83C05C1B2E07D884213D1207E60B1F5
:10805000E268D5F8000220F02000C5F80002207E7A
:10806000E0752069E060267601E0E675E26820466A
:10807000FFF724FB4FF4A27739462846FFF7EBF8C9
:1080800068B139462846FFF7EBF8E07D38B1E67570
:10809000D5F83C05E268C1B22046FFF70FFB4FF46C
:1080A000907631462846FFF7D6F800280FD03146A3
:1080B0002846FFF7D5F8A07D002808D0D5F84C0554
:1080C00004B0C1B22046BDE8F041FFF766BEBDE88E
:1080D000FF810870000A4870022070472DE9F05FA8
:1080E0008346DDE90A4A994690460D46084601272F
:1080F00003E000BFB0FBF8F07F1C4045FAD2B94561
:1081000000D94F465FEACA7012D18CB15FEA8A701B
:1081100002D5B9F1000F01D0202607E0302605E096
:1081200031465846641EFDF70DF80CB1A742F7D34F
:108130005FF00106B9F1010F02D9A9F1010903E0CD
:10814000B5FBF6F0404502D306FB08F6F2E7DFF890
:108150003C9000BFB5FBF6F000FB165519F8001077
:108160005846FCF7EFFFB6FBF8F6002EF2D15FEAB7
:10817000CA7009D0002C07D0A74205D2202158464A
:10818000641EFCF7DFFFF5E7BDE8F09FA083020067
:10819000F8B5054680B2FDF76FF9040013D0154E0F
:1081A000207A0027317B88420ED2A8B204F10A015E
:1081B00075DF28B1112806D0BDE8F840FFF77CBB79
:1081C000207A401C2072F8BD2772307C38B1A8B2EA
:1081D0003B2176DF18B1082801D0FFF76DFB7169EC
:1081E0000029F0D08DF80070ADF80250684688473D
:1081F000F8BD0000343000200A494A788B78521CC0
:10820000D2B2934200D100220B78934201D10020D8
:1082100070470270487800EB400001EBC000001D81
:1082200070470000943100202DE9FC411646DDE93D
:108230000854CDE900541F468046022200F00CF895
:10824000002807D1CDE900543B4610223146404674
:1082500000F002F8BDE8FC812DE9FC5F0026DDE9B5
:108260000C4B994692468E4680462788354630E02C
:10827000D8F80400002200EB8500694600680190F0
:1082800001A864DF002830D19DF8000050451FD1BF
:108290000EB1002100E0022122880844111859453E
:1082A00022D846B9521C90B2208009F800E02088FC
:1082B000401C20800126218801A801EB09026946A3
:1082C00064DF002811D120889DF800100844208028
:1082D0006D1CB8F80000A842CADC56B12088C01B4B
:1082E000401E80B2FF2802D90C20BDE8FC9F09F88F
:1082F00007000020F9E70000130000001400000050
:108300000000000000000000000000000000D60196
:108310000708090904050606942F0020B42F002041
:10832000E02F0020040003002D4E02000500030092
:108330002D4E0200060003002D4E02000600030031
:108340002D4E0200770A000000000000770A0000AE
:10835000000000007ADA00000000000001000000C8
:108360000000000000000000000000009ECADC24A5
:108370000EE5A9E093F3A3B50000406E00000050A5
:10838000FFFFFFFFFFFFFFFFFFFFFFFFFFFFFFFFFD
:1083900000000000000000000000D60107010000FE
:1083A000303132333435363738394142434445462B
:1083B0006C330020001000000400000001000000E9
:1083C000556E6B6E6F776E206572726F7220636F81
:1083D0006465000000000000188A0200010000002F
:1083E000D888020002000000588702000300000045
:1083F0004C89020004000000A08902000500000072
:10840000988802000600000038880200070000007B
:108410008889020008000000AC8802000900000002
:10842000F88802000A000000008A02000B00000029
:10843000408702000C000000C48802000D0000000C
:10844000248A02000E000000788902000F0000005C
:10845000B489020010000000E88902001100000049
:10846000388A020080000000788802008100000045
:10847000FC87020082000000BC870200830000002D
:108480009C87020084000000D8870200850000005D
:108490005088020086000000608902009000000001
:1084A00018880200910000007C8702000082000012
:1084B000C8890200018200001489020002820000C3
:1084C0003089020095670200936702008D67020001
:1084D000D82A0020D02A0020D82A0020BC3300202F
:1084E00018000000848D02008C8D02000000000046
:1084F0000000000001000007E4840200F484020090
:10850000080000001C8502002C8502000800000005
:108510002C8502003C85020008000000B48D02009A
:10852000C48D02000000000000000000A48D0200C5
:10853000B48D020000000000000000004C8D02001D
:10854000548D0200548D0200748D0200748D02005F
:108550007C8D02007C8D0200848D0200682A002040
:108560003C8502005C850200080000008C8D020042
:108570009C8D02009C8D0200A48D02006C8502007F
:108580007C85020008000000004040404040404020
:1085900040404141414141404040404040404040D6
:1085A000404040404040404040050202020202027A
:1085B00002020202020202020220202020202020C9
:1085C00020202002020202020202909090909090DD
:1085D000101010101010101010101010101010109B
:1085E000101010100202020202028888888888880F
:1085F00008080808080808080808080808080808FB
:1086000008080808020202024000000089850200F2
:1086100073645F626C655F67617474635F657863E0
:1086200068616E67655F6D74755F7265717565739E
:108630007428292072657475726E656420756E6584
:10864000787065637465642076616C756520307838
:1086500025782E0073645F626C655F676174747364
:108660005F65786368616E67655F6D74755F72657D
:10867000706C7928292072657475726E6564207536
:108680006E65787065637465642076616C756520CD
:10869000307825782E00000073645F626C655F6738
:1086A00061705F646174615F6C656E6774685F754B
:1086B0007064617465282920287265706C7929209E
:1086C00072657475726E656420756E657870656329
:1086D0007465642076616C756520307825782E008D
:1086E00073645F626C655F6761705F646174615F32
:1086F0006C656E6774685F757064617465282920A5
:10870000287265717565737429206F6E20636F6EB2
:108710006E656374696F6E20307825782072657499
:1087200075726E656420756E6578706563746564D6
:108730002076616C756520307825782E0000000069
:108740004E52465F4552524F525F494E56414C4938
:10875000445F4441544100004E52465F4552524FDF
:10876000525F534F46544445564943455F4E4F541C
:108770005F454E41424C4544000000004E52465F6A
:108780004552524F525F464541545552455F4E4FF8
:10879000545F454E41424C45440000004E52465FF6
:1087A0004552524F525F4D555445585F554E4C4FB0
:1087B000434B5F4641494C45440000004E52465FE2
:1087C0004552524F525F4D555445585F4C4F434BA5
:1087D0005F4641494C4544004E52465F4552524F18
:1087E000525F4D555445585F434F4E445F494E4983
:1087F000545F4641494C4544000000004E52465FDC
:108800004552524F525F4D555445585F494E495459
:108810005F4641494C4544004E52465F4552524FD7
:10882000525F4150495F4E4F545F494D504C454D4A
:10883000454E5445440000004E52465F4552524F4B
:10884000525F4E4F545F535550504F525445440061
:108850004E52465F4552524F525F4D4F44554C4524
:108860005F414C52454144595F494E495449414C3E
:10887000495A4544000000004E52465F4552524F4F
:10888000525F4D4F44554C455F4E4F545F494E49E2
:108890005449414C5A4544004E52465F4552524F4E
:1088A000525F4E4F545F464F554E44004E52465F06
:1088B0004552524F525F494E56414C49445F5354C2
:1088C000415445004E52465F4552524F525F44411B
:1088D00054415F53495A45004E52465F4552524FEC
:1088E000525F5356435F48414E444C45525F4D4999
:1088F0005353494E470000004E52465F4552524F77
:10890000525F494E56414C49445F4C454E4754488E
:10891000000000004E52465F4552524F525F445293
:10892000565F5457495F4552525F414E41434B0099
:108930004E52465F4552524F525F4452565F545713
:10894000495F4552525F444E41434B004E52465F91
:108950004552524F525F494E5445524E414C0000D1
:108960004E52465F4552524F525F53544F52414709
:10897000455F46554C4C00004E52465F4552524FA3
:10898000525F4E554C4C00004E52465F4552524F7E
:10899000525F494E56414C49445F504152414D004F
:1089A0004E52465F4552524F525F4E4F5F4D454DBE
:1089B000000000004E52465F4552524F525F464FF4
:1089C0005242494444454E004E52465F4552524F32
:1089D000525F4452565F5457495F4552525F4F565B
:1089E000455252554E0000004E52465F4552524F7E
:1089F000525F494E56414C49445F41444452000045
:108A00004E52465F4552524F525F494E56414C4975
:108A1000445F464C414753004E52465F53554343D3
:108A2000455353004E52465F4552524F525F544990
:108A30004D454F55540000004E52465F4552524F2F
:108A4000525F4255535900007761726E696E67003C
:108A500064656275670000001B5B313B33306D005D
:108A60001B5B306D000000001B5B313B33316D0040
:108A70001B5B313B33326D001B5B313B33336D008D
:108A80001B5B313B33346D001B5B313B33356D0079
:108A90001B5B313B33366D001B5B313B33376D0065
:108AA000696E666F000000006572726F72000000F0
:108AB00073645F626C655F6366675F7365742829C2
:108AC0002072657475726E65642025732077686501
:108AD0006E20617474656D7074696E6720746F20A8
