:020000040800F2
:10000000780700200901000861220008531F00083A
:100010005D22000809060008412C000800000000CD
:10002000000000000000000000000000492300085C
:1000300049060008000000009D220008C92A0008A7
:100040002301000823010008230100082301000800
:1000500023010008230100082301000823010008F0
:100060002301000823010008230100080D060008F1
:1000700023010008230100082301000823010008D0
:1000800023010008230100082301000823010008C0
:1000900023010008230100082301000823010008B0
:1000A00000000000230100082301000823010008CC
:1000B0002301000823010008230100082301000890
:1000C0002301000823010008230100082301000880
:1000D0002301000823010008230100082301000870
:1000E0002301000823010008230100082301000860
:1000F00023010008DFF80CD000F05EF9004800474B
:10010000692F000878070020064880470648004706
:10011000FEE7FEE7FEE7FEE7FEE7FEE7FEE7FEE7B7
:10012000FEE7FEE7DD2B0008F5000008D2B201E093
:1001300000F8012B491EFBD270470022F6E710B5EC
:1001400013460A4604461946FFF7F0FF204610BD45
:100150002DE9F04D81EA030404F0004B21F0004545
:1001600014464FF0000A23F0004150EA050220D067
:1001700054EA01021DD0C5F30A570246C5F3130322
:10018000C1F31300C1F30A5640F4801543F4801301
:10019000A7EB0608101BD64608F2FD3873EB0500E6
:1001A00002D308F1010801E092185B41B8F1000F99
:1001B00003DA00200146BDE8F08D00204FF48011E5
:1001C000064684460EE0171B73EB050705D3121B8A
:1001D00063EB050306434CEA010C49084FEA300083
:1001E00092185B4150EA0107EDD152EA030012D0A8
:1001F00082EA040083EA0501084305D0101BAB41E5
:1002000006D20122002306E000224FF0004302E064
:100210006FF0010253101AEB06004CEB085110EB83
:100220000A0041EB0B01BDE8F04D00F067B80EB5D8
:1002300040F2334102910021CDE900110A460B46FC
:1002400000F06BF803B000BDC1F30A5210B5C1F362
:10025000130140F2FF3341F480119A4201DA002089
:1002600010BD40F233439A42A2F2334203DC5242C1
:1002700000F034F810BD904010BD2DE9F05F054648
:10028000002092469B4688460646814640241BE055
:10029000284641464746224600F020F853465A4633
:1002A000C01A914110D311461846224600F096F824
:1002B0002D1A67EB01084F4622460120002100F06D
:1002C0008DF817EB00094E41201EA4F10104DFDC7C
:1002D000484631462A464346BDE8F09F202A04DBC3
:1002E000203A21FA02F00021704721FA02F3D040AF
:1002F000C2F12002914008431946704710B5141E00
:1003000073F1000408DA401C41F1000192185B41CE
:100310001A4301D120F0010010BD2DE9F04D9246A5
:100320009B4611B1B1FA81F202E0B0FA80F22032BC
:10033000904600F053F804460F4640EA0A0041EAAE
:100340000B0153465A46084313D0114653EA0100A5
:1003500019D0C8F140025046FFF7C0FF05460E46CF
:1003600050465946424600F039F8084305D001206E
:1003700004E020463946BDE8F08D0020054346EAFA
:10038000E0762C4337430A986305E40AA0EB0800A3
:100390000022FD0A44EA47540A3002D500200146F3
:1003A000E9E7010510196941DDE9084500196941CE
:1003B000BDE8F04DA2E70000064C074D06E0E068FE
:1003C00040F0010394E8070098471034AC42F6D39C
:1003D000FFF794FEE831000808320008202A04DB09
:1003E000203A00FA02F1002070479140C2F1200348
:1003F00020FA03F319439040704730B58C1810F879
:10040000012B12F00F0301D110F8013B120906D1A4
:1004100010F8012B03E010F8015B01F8015B5B1E93
:10042000F9D101E001F8013B521EFBD1A142E6D314
:10043000002030BD70B505466C6AE06C00F05000DD
:1004400050BBE06C40F40070E0642068806800F00D
:100450004050E8B9606AD8B92068006B00F0F870C5
:1004600020B12068806800F4806088B92068406806
:1004700020F0200021684860E06C20F48070E06487
:10048000E06C00F4805018B9E06C40F00100E064CA
:10049000204600F0E9F903E0606C016B28468847CC
:1004A00070BD70B505466C6AE06C40F04000E064D9
:1004B000206D40F004002065204600F0D7F970BDA3
:1004C00070B50446656A284600F0CFF970BD00009B
:1004D00038B5044600250020009020680068C0F36D
:1004E000801090BB2068806840F00100216888601F
:1004F000174800681749B0FBF1F000EB400000908E
:1005000002E00098401E009000980028F9D100F009
:100510004DFD054613E000F049FD401B02280ED9B1
:10052000E06C40F01000E064206D40F001002065B8
:1005300000BF002084F8480000BF012038BD2068BB
:100540000068C0F380100028E5D00020F6E7000026
:100550000000002040420F0010B5002401220A498B
:100560000A4800F0B3FA00200949088000BF07E0FC
:100570000020084941F82400074921F81400641CB0
:10058000012CF5DB10BD00003401002044010020E7
:10059000380100203C0100203601002000201649CF
:1005A0000988491C144A118000BF1BE0134951F807
:1005B0002010134A32F810201144104A42F820103B
:1005C0000D490988FF290BDD114651F82010C1F3B0
:1005D0000F210C4A22F810100021084A42F820107E
:1005E000411CC8B20128E1DB03490988FF2902DD6B
:1005F0000021014A11807047380100203C01002091
:10060000340100203601002000BFFEE710B502488B
:1006100000F0CAFA10BD00009801002030B590F833
:1006200040500124AC40C56B6C6004686360446852
:10063000102C04D10468A2600468E16003E004683F
:10064000A1600468E26030BD704700BFFEE71CB5E2
:10065000044600200090019006226946282001F0FF
:100660008DFC9DF800009DF8011040EA01202080DB
:100670009DF802009DF8031040EA012060809DF87B
:1006800004009DF8051040EA0120A0801CBD000078
:1006900038B5024600230020009000BF92F84800C1
:1006A000012801D1022038BD012082F8480000BF96
:1006B0004868072812D21068006C0C79641E04EB9D
:1006C00084051F24AC40A0430D796D1E05EB850504
:1006D0000C68AC4020431468206453E048680D283F
:1006E00012D21068C06B0C79E41F04EB84051F2440
:1006F000AC40A0430D79ED1F05EB85050C68AC40BF
:1007000020431468E0633DE04868132812D2106863
:10071000806B0C790D3C04EB84051F24AC40A04396
:100720000D790D3D05EB85050C68AC402043146840
:10073000A06327E04868192812D21068406B0C7932
:10074000133C04EB84051F24AC40A0430D79133DFA
:1007500005EB85050C68AC4020431468606311E02C
:100760001068006B0C79193C04EB84051F24AC4025
:10077000A0430D79193D05EB85050C68AC4020437D
:100780001468206308680A2810D2106840690C7841
:1007900004EB44050724AC40A0430D7805EB450568
:1007A0008C68AC402043146860612CE00868142811
:1007B00012D2106800690C780A3C04EB4405072447
:1007C000AC40A0430D780A3D05EB45058C68AC4074
:1007D00020431468206116E008681A2812D81068AF
:1007E000C0680C78143C04EB44050724AC40A043DB
:1007F0000D78143D05EB45058C68AC40204314682A
:10080000E06000E000BF0868102802D008681128E6
:100810001DD11248006800F40000C0B90F480068FC
:1008200040F400000D4C2060086810280FD10C48DF
:1008300000680C4CB0FBF4F000EB8000400000902E
:1008400002E00098401E009000980028F9D100BFF7
:10085000002082F8480000BF184624E70427014022
:100860000000002040420F007047704770470000B2
:10087000F8B504460027002600250CB90120F8BD74
:10088000206910B1E06A00B100BF606B102800D091
:1008900000BFE06CA0B90020206584F8480000BFCC
:1008A0006148006840F001005F4908600846006840
:1008B00000F00100009000BF00BF204600F0BEF82D
:1008C000E06C00F01000002874D1E06C20F4885037
:1008D00040F00200E0645548006820F44030616850
:1008E0000843524908606169E06808434FF40072A8
:1008F00092FAA2F2B2FA82F2E16B91400843216AC5
:100900000843022292FAA2F2B2FA82F2616A91409C
:1009100008430543606B102803D0D4E90D01084358
:10092000054320680068C0F3801090BBA0690543B0
:10093000E169A06808432169B1F5807F02D021698F
:10094000012902D14FF4807100E0002108430643E1
:10095000E06A012816D1606A60B9206B401E4FF42E
:10096000604191FAA1F1B1FA81F1884040F4006050
:10097000064307E0E06C40F02000E064206D40F0AA
:1009800001002065206840682949084030432168FB
:1009900048602068806827490840284321688860AB
:1009A0002069B0F5807F02D02069012803D14FF47F
:1009B000807001E035E00020B0F5807F10D1206824
:1009C000006B20F0F871A06A401E4FF0F87292FAA6
:1009D000A2F2B2FA82F2904001432068016305E07E
:1009E0002068006B20F0F870216808632068806838
:1009F00011490840A84208D100202065E06C20F091
:100A0000020040F00100E0640CE0E06C20F0020025
:100A100040F01000E064206D40F0010020650127E7
:100A200000E0012738462AE7203802400427014029
:100A3000FF16FCFC8DF1FFC0FEFF80BF10B586B035
:100A400004461D492068884233D100BF1B48006816
:100A500040F40070194908600846006800F400700E
:100A6000009000BF00BF01200190032002900020F1
:100A7000039001A9124800F09FF91248124908603A
:100A8000002048600021104881608021C160490039
:100A9000016189004161202181610021C16100F073
:100AA000F7F808B1FFF7D1FD00BF07486064446262
:100AB00000BF06B010BD00000024014020380240F5
:100AC0000000024008600240980100202DE9F0413A
:100AD00004460D461646002700BF94F8480001283A
:100AE00002D10220BDE8F081012084F8480000BF57
:100AF0002046FFF7EDFC0746002F4DD1E06C40F299
:100B00000161884340F48070E0642068406800F42C
:100B1000806028B1E06C20F4005040F48050E06424
:100B2000E06C00F4805020B1206D20F006002065BC
:100B300001E00020206500BF002084F8480000BFCD
:100B40001648616C88621648616CC8621548616C11
:100B500008636FF02200216808602068406840F058
:100B60008060216848602068806840F48070216857
:100B70008860226802F1580133462A46606C00F012
:100B8000BFF82068806800F0405028B9206880686D
:100B900040F08040216888603846A3E735040008AB
:100BA000C1040008A304000870B50446E06B0568A2
:100BB0002068066894F84010042088402840D0B18E
:100BC00006F00400B8B12068006800F0200028B9E1
:100BD0002068006820F004002168086094F8401044
:100BE00004208840E16B4860E06A00284ED020462F
:100BF000E16A88474AE094F8401002208840284083
:100C000008B306F00200F0B12068006800F0200090
:100C100040B92068006820F00A00216808600120BF
:100C200084F8210094F8401002208840E16B48606D
:100C300000BF002084F8200000BFA06A30B3204627
:100C4000A16A884722E094F8401008208840284094
:100C5000E0B106F00800C8B12068006820F00E007E
:100C60002168086094F8401001208840E16B4860DA
:100C70000120A06384F8210000BF002084F8200038
:100C800000BF206B10B12046216B884770BD00006B
:100C90000146002209B901207047184B0868C01AA4
:100CA0001423B0FBF3F08000086414480838C863CC
:100CB000022081F821000868026843F6F070824340
:100CC000D1E901031843CB6818430B6918434B69FA
:100CD00018438B691843CB691843024308680260C4
:100CE00000208862C862086348638863012081F835
:100CF0002100002081F8200000BFCDE708600240FD
:100D00002DE9F04104460D4616461F464FF00008F7
:100D100000BF94F82000012802D10220BDE8F08134
:100D2000012084F8200000BF94F8210001282CD174
:100D3000022084F821000020A0632068006820F0D1
:100D40000100216808603B46324629462046FFF7ED
:100D500065FCE06A30B12068006840F00E00216850
:100D600008600BE02068006820F00400216808603B
:100D70002068006840F00A00216808602068006868
:100D800040F001002168086006E000BF002084F800
:100D9000200000BF4FF002084046BFE731B50024F5
:100DA00000F004F9044600BF00F000F9001B0099B0
:100DB0008842F9D338BD000078B5034600220024EC
:100DC0000020CAE0012696400D6805EA0604002CC2
:100DD00071D04D68022D02D04D68122D13D1D60866
:100DE00003F1200555F826005507EE0E0F25B540F6
:100DF000A8435607F60E0D69B5402843D60803F1FF
:100E0000200545F82600186856000325B540A8437C
:100E10000D7905F003055600B540284318604D686C
:100E2000012D08D04D68022D05D04D68112D02D03E
:100E30004D68122D13D1986856000325B540A8437C
:100E40005600CD68B5402843986058680125954004
:100E5000A8430D79C5F30015954028435860D8681C
:100E600056000325B540A84356008D68B540284379
:100E7000D8604D6805F08055B5F1805F6CD100BF3A
:100E8000394D2D6845F00105374E356035462D68E2
:100E900005F00105009500BF00BF344D960855F8D8
:100EA000260095072E0F0F25B540A843304DAB42C5
:100EB00002D1002515E04FE02E4DAB4201D10125B6
:100EC0000FE02D4DAB4201D102250AE02B4DAB4284
:100ED00001D1032505E02A4DAB4201D1042500E0F4
:100EE00005259607360FB5402843204D960845F84E
:100EF0002600244D2868A0434D6805F48035B5F5DB
:100F0000803F00D120431F4D28602D1D2868A0433D
:100F10004D6805F40035B5F5003F00D12043194D6B
:100F20002D1D28602D1D2868A0434D6805F48015EF
:100F3000B5F5801F00D12043124D083528602D1DC6
:100F40002868A0434D6805F40015B5F5001F00D1D1
:100F500020430C4D0C352860521C0D68D540002DE7
:100F60007FF430AF78BD0000203802400800014017
:100F7000000002400004024000080240000C024051
:100F80000010024000040140024613690B400BB1FF
:100F9000012000E00020704742694A4042617047EA
:100FA0000AB1816101E00B04836170470148006868
:100FB000704700004001002002480068401C0149C1
:100FC000086070474001002010B5032000F0C0F811
:100FD000002000F005F800F017F8002010BD000018
:100FE00070B50446074800684FF47A71B0FBF1F51C
:100FF000284600F090FF00222146501E00F069F8BC
:10100000002070BD0000002008B500BF294800681E
:1010100040F00040274908600846006800F00040A2
:10102000009000BF00BF00BF081F006840F0010033
:10103000091F08600846006800F00100009000BF2A
:1010400000BF00BF081D006840F08050091D086007
:101050000846006800F08050009000BF00BF0320E9
:1010600000F076F8002211466FF00B0000F031F826
:10107000002211466FF00A0000F02BF80022114602
:101080006FF0090000F025F800221146501F00F013
:1010900020F800221146101F00F01BF80022114614
:1010A000901E00F016F800221146501E00F011F8B4
:1010B00008BD00002438024000BF00F01F020121DB
:1010C00091404209920002F1E022C2F8001100BFF3
:1010D00070472DE9F05F80460D461646002701F067
:1010E000C1F8074639462A46334601F00700C0F1E9
:1010F000070ABAF1040F02D94FF0040A01E0C0F167
:10110000070AD14600F1040ABAF1070F02D24FF0E4
:10111000000A01E0A0F1030AD4464FF0010A0AFADE
:1011200009FAAAF1010A0AEA020A0AFA0CFA4FF0CD
:10113000010B0BFA0CFBABF1010B0BEA030B4AEAB8
:101140000B042146404601F095F8BDE8F09F0000F1
:1011500000BF00F00702064B19684FF6FF03194065
:10116000044B0B4343EA0221014B196000BF704757
:101170000CED00E00000FA050248006800F4C050E1
:10118000704700000070004070B504460D46002610
:10119000B348006800F00100A84218D200BF012D3A
:1011A00005D1AF48006840F00400AD490860AC4884
:1011B000006820F001002843A949086000BF0846E4
:1011C000006800F00100A84201D0012070BD207825
:1011D00000F00200022807D1A248006820F0F000C9
:1011E000A16808439F490860207800F001000028AA
:1011F0007BD06068022821D12020010391FAA1F15F
:10120000B1FA81F108430121B1EB601F03D1954888
:101210000838006802E093482C30006820210A0357
:1012200092FAA2F2B2FA82F2114301F01F020121F6
:101230009140084000286CD10120C7E7606803286E
:1012400020D12020010591FAA1F1B1FA81F10843E2
:101250000121B1EB601F03D182480838006802E029
:1012600080482C30006820210A0592FAA2F2B2FAD6
:1012700082F2114301F01F02012191400840A8BBF6
:101280000120A3E76068012820D12020022191FAE3
:10129000A1F1B1FA81F108430121B1EB601F03D143
:1012A00070480838006802E06E482C300068202141
:1012B000022292FAA2F2B2FA82F2114301F01F0264
:1012C00001219140084088B901207FE720200101D9
:1012D00091FAA1F1B1FA81F108430121B1EB601F4C
:1012E00005D160480838006804E069E011E05D4815
:1012F0002C30006820210A0192FAA2F2B2FA82F29E
:10130000114301F01F0201219140084008B901205A
:101310005CE75448006820F00300616808435149C5
:101320000860FFF743FE06466068022810D108E017
:10133000FFF73CFE801B41F28831884201D903202F
:1013400044E74848006800F00C000828F0D137E076
:101350006068032810D108E0FFF728FE801B41F2E7
:101360008831884201D9032030E73E48006800F008
:101370000C000C28F0D123E06068012810D108E0AF
:10138000FFF714FE801B41F28831884201D9032007
:101390001CE73448006800F00C000428F0D10FE08E
:1013A00008E0FFF703FE801B41F28831884201D933
:1013B00003200BE72B48006800F00C000028F0D158
:1013C0002748006800F00100A84218D900BF012D8D
:1013D00005D12348006840F00400214908602048F6
:1013E000006820F0010028431D49086000BF08463E
:1013F000006800F00100A84201D00120E6E6207854
:1014000000F00400042807D11648006820F4E060CA
:10141000E168084313490860207800F008000828B4
:1014200008D11048006820F46050216940EAC100EA
:101430000C49086000F022F80A49096801F0F0013F
:10144000F02292FAA2F2B2FA82F2D140064A515C3C
:10145000C840064908600020FFF7C2FD0020B5E63D
:10146000003C024008380240CD3100080000002056
:10147000014800687047000000000020F0B500211E
:1014800000230024002200250020254E316801F0B1
:101490000C067EB3042E04D0082E04D00C2E2AD1C4
:1014A00003E020483AE0204838E001F470164FF499
:1014B000701797FAA7F7B7FA87F7FE401B4FBB5D87
:1014C00001F440064FF4400797FAA7F7B7FA87F7F9
:1014D000FE40741C124E366806F4803626B1124E59
:1014E0005E43B6FBF4F203E00E4E5E43B6FBF4F24D
:1014F000104613E000E000BF094E361F366806F4C0
:1015000060464FF4604797FAA7F7B7FA87F726FACD
:1015100007F56E1C0127B740F80300BF00BFF0BD00
:10152000083802400024F400001BB700C431000852
:10153000F8B504460025207800F00100002879D095
:10154000F748006800F00C0008280CD0F448006848
:1015500000F00C000C282BD1F148006800F480301A
:10156000B0F5803F24D12020010391FAA1F1B1FA16
:1015700081F108430121B1EB601F03D1E84808382D
:10158000006802E0E6482C30006820210A0392FA45
:10159000A2F2B2FA82F2114301F01F02012191403E
:1015A00008400028CBD06068002843D10120F8BD56
:1015B00000BF6068012808D1D9480838006840F4A5
:1015C0008030D749083908602DE0606868B9D44890
:1015D0000838006820F48030D1490839086008468E
:1015E000006820F4802008601DE0606805280DD1A7
:1015F000CB480838006840F48020C94908390860A1
:101600000846006840F4803008600CE0C4480838A0
:10161000006820F48030C249083908600846006834
:1016200020F48020086000BF606860B3FFF7BEFC54
:10163000054607E052E0FFF7B9FC401B642801D9DA
:101640000320B4E72020010391FAA1F1B1FA81F15E
:1016500008430121B1EB601F03D1B148083800688D
:1016600002E0AF482C30006820210A0392FAA2F26F
:10167000B2FA82F2114301F01F02012191400840A9
:101680000028D8D02AE0FFF791FC054606E0FFF7D6
:101690008DFC401B642801D9032088E7202001032A
:1016A00091FAA1F1B1FA81F108430121B1EB601F78
:1016B00003D19B480838006802E099482C30006844
:1016C00020210A0392FAA2F2B2FA82F2114301F047
:1016D0001F020121914008400028D8D1207800F055
:1016E0000200022845D18E48006800F00C00042852
:1016F0000AD08B48006800F00C000C283BD18848C9
:10170000006800F48030A8BB2020022191FAA1F1EA
:10171000B1FA81F108430121B1EB601F03D1804888
:101720000838006802E07E482C3000682021022240
:1017300092FAA2F2B2FA82F2114301F01F020121E1
:101740009140084020B1E068012801D001202EE737
:101750007348001F006820F4F8504FF4F85292FAD2
:10176000A2F2B2FA82F22169914008436C49091F42
:1017700008607DE0FFE7E068F0B3012090FAA0F197
:10178000B1FA81F1674A42F82100FFF70FFC0546E4
:1017900006E0FFF70BFC401B022801D9032006E7F7
:1017A0002020022191FAA1F1B1FA81F1084301212F
:1017B000B1EB601F03D15A480838006802E058486E
:1017C0002C3000682021022292FAA2F2B2FA82F2B0
:1017D000114301F01F020121914008400028D8D098
:1017E0004F48001F006820F4F8504FF4F85292FA66
:1017F000A2F2B2FA82F200E006E0216991400843C9
:101800004749091F086033E00020012191FAA1F146
:10181000B1FA81F1434A42F82100FFF7C7FB0546C0
:1018200006E0FFF7C3FB401B022801D90320BEE6F8
:101830002020022191FAA1F1B1FA81F1084301219E
:10184000B1EB601F03D136480838006802E0344825
:101850002C3000682021022292FAA2F2B2FA82F21F
:10186000114301F01F020121914008400028D8D106
:10187000207800F01000102873D12948006800F08B
:101880000C0000286ED12020010191FAA1F1B1FADB
:1018900081F108430121B1EB601F03D120480838D2
:1018A000006802E01E482C30006820210A0192FAEC
:1018B000A2F2B2FA82F2114301F01F02012191401B
:1018C000084018B1A06908B9012070E61449091F41
:1018D000206A096801F46041884225D9206A00F035
:1018E000DFFC08B1012062E60D48001F006820F40B
:1018F0006040216A08430A49091F086008460068D9
:1019000020F07F404FF07F4292FAA2F2B2FA82F2C8
:10191000E169914008430249091F086023E0000083
:101920000838024000004742FC48006820F460404C
:10193000216A0843F94908600846006820F07F40A2
:101940004FF07F4292FAA2F2B2FA82F2E16991403C
:101950000843F2490860206A00F0A2FC18B1012097
:1019600025E6A5E01FE04FF4604191FAA1F1B1FA3C
:1019700081F1206AC840401C01218140C803E74929
:10198000091D096801F0F001F02292FAA2F2B2FA00
:1019900082F2D140E24A515CC840E249086000202E
:1019A000FFF71EFB84E0A069F0B30120010291FA69
:1019B000A1F1B1FA81F1DC4A42F82100FFF7F6FA11
:1019C000054606E0FFF7F2FA401B022801D9032082
:1019D000EDE52020010191FAA1F1B1FA81F108436E
:1019E0000121B1EB601F03D1CC48001F006802E069
:1019F000CA483030006820210A0192FAA2F2B2FAF5
:101A000082F2114301F01F02012191400840002899
:101A1000D8D0C248006820F46040216A0843BF491A
:101A200008600846006800E00DE020F07F404FF0BD
:101A30007F4292FAA2F2B2FA82F2E169914008433F
:101A4000B649086034E000204FF4807191FAA1F1AA
:101A5000B1FA81F1B44A42F82100FFF7A7FA05462E
:101A600006E0FFF7A3FA401B022801D903209EE5F8
:101A70002020010191FAA1F1B1FA81F1084301217D
:101A8000B1EB601F03D1A548001F006802E0A34826
:101A90003030006820210A0192FAA2F2B2FA82F2F2
:101AA000114301F01F020121914008400028D8D1C4
:101AB000207800F0080008286ED16069A8B30120E2
:101AC00090FAA0F1B1FA81F1974A02EB8101C1F8D5
:101AD0008006FFF76BFA054606E0FFF767FA401B42
:101AE000022801D9032062E54020022191FAA1F1E8
:101AF000B1FA81F108430121B1EB601F03D187489E
:101B0000001F006802E08548303000684021022252
:101B100092FAA2F2B2FA82F2114301F01F020121FD
:101B2000914008400028D8D036E0FFE7002101208E
:101B300090FAA0F0B0FA80F07B4A02EB8000C0F887
:101B40008016FFF733FA054606E0FFF72FFA401B31
:101B5000022801D903202AE54020022191FAA1F1AF
:101B6000B1FA81F108430121B1EB601F03D16B4849
:101B7000001F006802E069483030006840210222FE
:101B800092FAA2F2B2FA82F2114301F01F0201218D
:101B9000914008400028D8D1207800F004000428A3
:101BA00075D100265D482030006800F0805080B973
:101BB00000BF5A482030006840F08050574920311B
:101BC00008600846006800F08050009000BF00BF29
:101BD00001265648006800F48070B0B95348006888
:101BE00040F4807051490860FFF7E0F9054606E0CF
:101BF000FFF7DCF9401B642801D90320D7E44B48E8
:101C0000006800F480700028F2D000BFA0680128AE
:101C100008D142483030006840F480703F4930318C
:101C200008602DE0A06868B93C483030006820F4B6
:101C300080703A49303108600846006820F48060BE
:101C400008601DE0A06805280DD1344830300068D8
:101C500040F480603149303108600846006840F443
:101C6000807008600CE02D483030006820F48070EF
:101C70002A49303108600846006820F48060086016
:101C800000BFA06870B3FFF791F9054609E06AE06C
:101C9000FFF78CF9401B41F28831884201D90320BB
:101CA00085E44020C10091FAA1F1B1FA81F1084325
:101CB0000121B1EB601F03D11848001F006802E04A
:101CC0001648303000684021CA0092FAA2F2B2FAF7
:101CD00082F2114301F01F020121914008400028C7
:101CE000D6D035E0FFF762F9054608E0FFF75EF968
:101CF000401B41F28831884201D9032057E440203B
:101D0000C10091FAA1F1B1FA81F108430121B1EBCF
:101D1000601F0DD10148001F00680BE0043802402D
:101D2000CD31000800000020000047420070004054
:101D30006C4800684021CA0092FAA2F2B2FA82F21C
:101D4000114301F01F020121914008400028CDD12C
:101D5000012E07D163481038006820F08050614997
:101D60001039086000BF606AF0B35E482C38006824
:101D700000F00C000C287AD0606A022879D100208B
:101D80004FF0807191FAA1F1B1FA81F1564A42F80F
:101D90002100FFF70BF9054606E0FFF707F9401BA6
:101DA000022801D9032002E42020010591FAA1F1C3
:101DB000B1FA81F108430121B1EB601F03D1494819
:101DC0003438006801E04748006820210A0592FA8B
:101DD000A2F2B2FA82F2114301F01F0201219140F6
:101DE00008400028D9D100E07AE0D4E90A0108438C
:101DF000216B08433B492C39096821F47D010843D4
:101E000038492C3908600120010691FAA1F1B1FA94
:101E100081F1354A42F82100FFF7C8F8054606E08F
:101E2000FFF7C4F8401B022801D9032009E4202051
:101E3000010591FAA1F1B1FA81F108430121B1EB59
:101E4000601F03D127483438006801E02548006846
:101E500020210A0592FAA2F2B2FA82F2114301F0AD
:101E60001F020121914008400028D9D038E035E018
:101E7000FFE700214FF0807090FAA0F0B0FA80F0F8
:101E8000194A42F82010FFF791F8054606E0FFF7DF
:101E90008DF8401B022801D9032058E420200105B9
:101EA00091FAA1F1B1FA81F108430121B1EB601F70
:101EB00003D10C483438006801E00A48006820214A
:101EC0000A0592FAA2F2B2FA82F2114301F01F025D
:101ED0000121914008400028D9D101E0012036E4D9
:101EE000002034E43438024000004742042808D17E
:101EF0004FF0E021096941F004014FF0E022116147
:101F000007E04FF0E021096921F004014FF0E022E1
:101F100011617047704770B504462546681EB0F1E0
:101F2000807F01D301200FE0681E4FF0E02148615F
:101F30000F214FF0FF3000F09DF900204FF0E0211D
:101F4000886107200861002070BD10B5FFF7E2FF2F
:101F500010BD00BFFEE7000010B5012211020648C7
:101F6000FFF71EF8012280210348FFF719F80A2025
:101F7000FEF714FF10BD0000000002402DE9F04103
:101F800005460E46174600224FF480710E48FFF7B3
:101F900007F80120FEF702FF45F08005284600F013
:101FA00043F8002404E0301900F010F8601CC4B2BB
:101FB000BC42F8DB0120FEF7F1FE012211020248CB
:101FC000FEF7EEFFBDE8F0810000024070B5044668
:101FD000002280211348FEF7E3FF0120FEF7DEFE1A
:101FE00000202070802519E0012280210D48FEF795
:101FF000D7FF0120FEF7D2FE20210A48FEF7C4FFDA
:10200000012802D120782843207000228021054831
:10201000FEF7C6FF0120FEF7C1FE6D10002DE3DCC8
:1020200070BD00000000024070B50546002280210E
:102030001548FEF7B5FF0120FEF7B0FE80241FE033
:1020400004EA0500A04205D1012240210E48FEF716
:10205000A7FF04E0002240210B48FEF7A1FF012268
:1020600080210948FEF79CFF0120FEF797FE002221
:1020700080210548FEF794FF0120FEF78FFE6410D3
:10208000002CDDDC70BD00000000024013B50446EA
:10209000012201A9204600F001F81CBD2DE9F04104
:1020A00005460E46174600224FF480710E48FEF793
:1020B00077FF0120FEF772FE05F07F052846FFF747
:1020C000B3FF002404E0305DFFF7AEFF601CC4B234
:1020D000BC42F8DB0120FEF761FE0122110202483A
:1020E000FEF75EFFBDE8F081000002400EB5174824
:1020F0001749086000204860002115488160C160D0
:102100004FF480710161002141618161C16101620F
:102110000121416281620021C162102141630021DD
:1021200081630121C163FEF7A3FB08B1FEF78DFABD
:102130000020009001200190072002906946044889
:10214000FEF7A6FA08B1FEF780FA0EBD00240140A2
:102150004401002008B500BF0A48006840F08070C4
:10216000084908600846006800F08070009000BFD1
:1021700000BF002211460B20FEF7ABFF0B20FEF73D
:102180009BFF08BD1C38024000B587B000BF304837
:10219000006840F020002E4908600846006800F002
:1021A0002000019000BF00BF00BF0846006840F05B
:1021B000010008600846006800F00100019000BFBF
:1021C00000BF00BF0846006840F0020008600846F3
:1021D000006800F00200019000BF00BF00224FF431
:1021E000E4711C48FEF7DCFE00224BF203011A48A2
:1021F000FEF7D6FE4FF4E470029001200390002019
:102200000490059002A91348FEF7D6FD4FF4F15053
:10221000029000200390049002A90E48FEF7CCFD26
:102220004BF20300029001200390002004900590DF
:1022300002A90948FEF7C0FD44F2380002900020D0
:102240000390049002A90448FEF7B6FD07B000BD54
:102250001C380240000002400004024000BFFEE7BC
:102260007047000002480068C0F302207047000079
:102270000CED00E010B5002807DA0A07140E054A35
:1022800000F00F031B1FD45403E00A07130E024A89
:10229000135410BD18ED00E000E400E070470000AA
:1022A000F8B50546002600242548006800F0F00037
:1022B00058BB23481C30006800F0805018B1FEF76E
:1022C0005BFF06461AE000BF1D481C30006840F066
:1022D00080501B491C3108600846006800F080509F
:1022E000009000BF00BFFEF747FF064614481C30B1
:1022F000006820F0805012491C310860B6F5C05FBC
:1023000003D1B5F5404F00D1012400BF012C05D108
:102310000C48006840F004000A4908600948006859
:1023200020F0010020430749086000BF084600680C
:1023300000F00100A04201D00120F8BD0020FCE720
:1023400008380240003C02407047000010B5244CA1
:10235000012211032348FEF723FE23490968086977
:102360008047002000F0EAF92048844204D9882000
:102370001F490968487003E080201D4909684870BA
:102380001B4800684178012000F058FB012000F054
:10239000D5F9204600F05EF90F2000F06DFA7D209F
:1023A00000F0DEF8002000F087F9012000F002F9CB
:1023B000072000F007FA012000F02AF940F2FF3070
:1023C00000F036FAFF2000F0EDF9FF2000F0DAF916
:1023D000012000F093F9044909688868804710BD1E
:1023E000A0700837000402401801002040DD4A1F99
:1023F0001C01002010B500242E48006890F813013D
:10240000052853D2DFE800F00304161B2D004EE030
:102410004FF480512848FEF7B7FD0446012C08D13F
:102420000821122000F00AFB02202249096881F8E5
:1024300013013CE01F4909688868804737E04FF482
:1024400080511D48FEF7A0FD0446012C08D1402113
:10245000122000F0F3FA04201649096881F81301EC
:1024600025E0122000F02CF81449096888741348FC
:102470000068807C00F02000202804D12021122058
:1024800000F0DCFA0DE0132000F01AF80B4909689F
:10249000C8740A480068C17C06480068143000F01F
:1024A00041F8044909688868804700E000BF00BF20
:1024B00010BD000018010020000002401C01002097
:1024C00038B5044601226946204600F003F89DF81D
:1024D000000038BD2DE9F04105460E4617460022A2
:1024E0004FF480510E48FEF75BFD0120FEF756FCCD
:1024F00005F07F05284600F0F7F9002404E03019C4
:1025000000F0CAF9601CC4B2BC42F8DB0120FEF73F
:1025100045FC012211030248FEF742FDBDE8F081AF
:102520000004024070B504460D462A4621460020AC
:10253000FFF7D0FF70BD000010B500220221074850
:10254000FEF72EFD0120FEF729FC0122022103489F
:10255000FEF726FD0620FEF721FC10BD0004024018
:1025600070B5054600241D20FFF7AAFF044604F0BD
:102570000F047D2D05D0FA2D06D0B5F5FA7F09D1CF
:1025800005E044F0700406E044F0800403E044F009
:10259000900400E070BD00BF05480068447704481F
:1025A0000068417F1D2000F049FA00BFF2E70000FB
:1025B0001C01002070B5054600241D20FFF780FF98
:1025C000044604F0F104012D06D0022D07D0032D9E
:1025D00008D0042D0CD108E044F0020409E044F0D6
:1025E000040406E044F0060403E044F0080400E0BC
:1025F00070BD00BF05480068447704480068417F0B
:102600001D2000F01BFA00BFF2E700001C010020B3
:1026100070B5054600241E20FFF752FF044604F063
:10262000FB0415B1012D06D102E044F0020403E0E1
:1026300044F0040400E070BD00BF054800688477E2
:1026400003480068817F1E2000F0F8F900BFF2E720
:102650001C0100202DE9F04104462046FDF7E7FD6E
:1026600005460022124BFDF773FD0746FDF7ECFD12
:102670000446200C0F4909688871200A0D49096831
:10268000C8710C4909680C720A48006881790620F3
:1026900000F0D4F907480068C179072000F0CEF9AE
:1026A00004480068017A082000F0C8F9BDE8F0810C
:1026B00080844E401C01002070B5054600241D207A
:1026C000FFF7FEFE044604F0FE0415B1012D05D10E
:1026D00001E000BF03E044F0010400E070BD00BF72
:1026E00005480068447704480068417F1D2000F0D9
:1026F000A5F900BFF2E700001C01002010B5044658
:1027000001220D48016826312620FFF7E3FE0A4822
:10271000006890F8260000F0F70040EAC40006497F
:10272000096881F826000448006890F826102620E1
:1027300000F084F910BD00001C01002070B50446B3
:10274000032C01D0022C05D1002201210C48FEF7F8
:1027500027FC08E0042C01D0052C04D101221146ED
:102760000748FEF71DFC0120FFF7AAFE00F0F80065
:1027700040EA04052946012000F060F970BD000020
:102780000004024010B504460548006880F8224065
:102790000348006890F82210222000F04FF910BD85
:1027A0001C01002010B504460548006880F823404D
:1027B0000348006890F82310232000F03FF910BD73
:1027C0001C01002070B5054600241E20FFF778FE8E
:1027D000044604F00F04A81F07281AD2DFE800F00F
:1027E00004070A0D1013160044F0600412E044F0D0
:1027F00070040FE044F080040CE044F0900409E021
:1028000044F0A00406E044F0B00403E044F0C00447
:1028100000E070BD00BF0548006884770348006889
:10282000817F1E2000F00AF900BFF2E71C010020A2
:1028300010B5044602220F4801681E311E20FFF722
:1028400049FE0C480068807F00F0FC006FF0FC013E
:1028500001EA24210843074909688877054909687E
:10286000CC770222034801681E311E2000F0EEF8EA
:1028700010BD00001C01002070B5044600250F2C7F
:1028800000DD0F24702504F00F00054329460920C0
:1028900000F0D4F870BD000070B5044600224FF47B
:1028A00000511048FEF77CFB00202070802515E0C9
:1028B000012251030B48FEF773FB4FF48041094896
:1028C000FEF762FB012802D1207828432070002205
:1028D0004FF400510348FEF763FB6D10002DE7DC59
:1028E00070BD00000004024070B5054600224FF4A0
:1028F00000511248FEF754FB80241BE004EA050057
:10290000A04205D10122D1030C48FEF749FB05E0A6
:1029100000224FF400410948FEF742FB0122510317
:102920000648FEF73DFB00224FF400510348FEF736
:1029300037FB6410002CE1DC70BD00000004024095
:1029400010B50120FFF7FAFE00201549096881F84B
:102950003D001349096881F83E00022210480168D1
:102960003D31402000F072F8FF210E48006814301D
:10297000FDF7E3FB0A480068C07B09490968487312
:1029800007480068417B0D2000F058F80520FFF74C
:10299000D5FE03200349096881F8130110BD00002A
:1029A0001C0100201801002070B505460C460120CE
:1029B000FFF7C4FE1F48006880F822401D480068E9
:1029C00090F82210222000F039F8002019490968F7
:1029D000887318480068817B0E2000F02FF80020D3
:1029E00014490968487313480068417B0D2000F0C2
:1029F00025F841200F49096881F83D0040200D4924
:102A0000096881F83E0002220A4801683D314020F1
:102A100000F01CF80748006890F82210284600F0E3
:102A20003DF80320FFF78AFE01200349096881F879
:102A3000130170BD1C0100201801002013B50446CD
:102A4000012201A9204600F001F81CBD2DE9F0414A
:102A500005460E46174600224FF480510E48FEF7F9
:102A60009FFA0120FEF79AF945F080052846FFF706
:102A70003BFF002404E0305DFFF736FF601CC4B26A
:102A8000BC42F8DB0120FEF789F90122110302485C
:102A9000FEF786FABDE8F0810004024070B50446F6
:102AA0000D462A4621460020FFF7D0FF70BD0000EA
:102AB00010B54FF47A720249024800F0C7FA10BD0F
:102AC000AD0F00084C02002010B5FEF775FAFFF7B5
:102AD0003CFA10BD10B5044800F0E1FA034909685A
:102AE000C868804710BD00004C020020180100207B
:102AF00010B5FFF7DDFFFDF72FFD114B01224FF45D
:102B0000FA71104800F082FA0F4B01220A210D4899
:102B100000F07CFA0D4B01220D490A4800F076FACC
:102B2000FFF71AFA0F212020FFF7B0FA80212320A7
:102B3000FFF7ACFA074909680868804710BD000034
:102B4000592F00084C0200209D050008653100083F
:102B500040771B001801002010B592B01E48006895
:102B600020F4C05040F400601B490860022005902A
:102B7000012008901020099002200E9000210F9152
:102B8000810410918105119105A8FEF7D1FC08B1CF
:102B9000FDF75BFD0F2000900320019000200290C4
:102BA0000390049001216846FEF7EEFA08B1FDF7A4
:102BB0004CFDFEF75DFC4FF47A71B0FBF1F420465A
:102BC000FFF7A9F90420FFF791F900221146501EE2
:102BD000FEF77FFA12B010BD007000401448006884
:102BE00040F48070124908601148083000681149AB
:102BF00008400F49083108600D4800680E49084038
:102C00000B4908600846006820F4802008600848E6
:102C10000830006820F47D00054908310860002074
:102C2000091D08604FF0006004490860704700000B
:102C3000003802400CC0FF88FEFFFEEE08ED00E009
:102C400000BFFEE70FB4084B10B504A902AA039811
:102C500000F01CF8044602A9002000F077F9204695
:102C600010BC5DF814FB00004D2F000802E008C8FE
:102C7000121F08C1002AFAD170477047002001E0F6
:102C800001C1121F002AFBD1704700002DE9FF4F40
:102C90008DB09B460F460446002606E025280BD043
:102CA0005A460F999047641C761C20780028F5D16D
:102CB00011B03046BDE8F08F0025A84601229849A2
:102CC00000E0054314F8013F203B02FA03F00842FC
:102CD000F7D120782E2817D114F8010F45F00405FC
:102CE0002A280ED06FF02F022078A0F13001092998
:102CF0000AD808EB880102EB410100EB0108641CD3
:102D0000F2E757F8048B641C20786C280DD004DCA3
:102D10004C2812D06A2811D104E074280DD07A28EA
:102D20000CD10AE045F4001507E0617845F4801500
:102D3000814202D1641C05F58015641C2278692A41
:102D400045D008DC002AB3D0582A69D0632A10D0B5
:102D5000642A08D13BE0702A67D0732A13D0752A01
:102D60005CD0782A5CD010465A460F999047761C62
:102D7000D3E017F8040B8DF8000000208DF8010057
:102D8000E946012003E057F8049B4FF0FF30690744
:102D90004FF0000501D40AE06D1C45450DDA85426F
:102DA000FADB19F805100029F6D106E06D1C854202
:102DB000FCDB19F805100029F8D12E4404E019F8BD
:102DC000010B5A460F9990476D1EF8D2A5E00A20D4
:102DD0000021CDE90801C5F3025002280DD001CF32
:102DE000C117031E71F100030DDA4FF0000CD0EB98
:102DF0000C006CEB01012D2308E0FF1D27F00707F5
:102E0000F7E80201EDE72B0504D52B238DF82830D8
:102E100001233BE0EB0739D02023F7E70A2000E04D
:102E200010200021CDE9080107E01020002145F025
:102E30000405CDE908014FF00808C5F30250022847
:102E40000FD001CF00214FF0000A2B071FD5702AA9
:102E50000DD0DDE908C38CF0100C5CEA030C0CD03B
:102E600015E0FF1D27F00707F7E80201EBE7402216
:102E70008DF828204FF0010A0BE050EA010306D03C
:102E800030238DF828308DF8292002239A46582ABD
:102E900004D024A20DF120090B9209E026A2F9E743
:102EA000DDE90823FDF7E9F90B9B9B5C09F8013D7F
:102EB00050EA0102F4D1ADEB090020300890680718
:102EC00001D44FF001080899884502DDA8EB010004
:102ED00000E000208046002506E00AA85A46405D32
:102EE0000F9990476D1C761C5545F6DB04E03020A9
:102EF0005A460F999047761CB8F10001A8F10108D5
:102F0000F5DC05E019F8010B5A460F999047761C3D
:102F10000899481E08900029F4DC641CC5E60000EE
:102F2000092801003031323334353637383961629F
:102F30006364656600000000303132333435363763
:102F40003839414243444546000000000A68531C9A
:102F50000B6010707047000010B508210148FEF7A3
:102F60001BF810BD00000240FEF72EF8FFF7F4FD3D
:102F7000FFF70AF9FFF7EEF8FFF7B8F8FFF7B8FD2B
:102F800001E0FFF7A7FDFCE770B504460D46002100
:102F900038E004F10C0000EB0110007878BB01264A
:102FA00004F10C0000EB0110067004F10C0000EBC2
:102FB00001104560AAB104F10C0000EB011040685B
:102FC00020B904F10C0000EB0110466004F10C0084
:102FD00000EB0110466804F10C0000EB0110866064
:102FE00005E0002604F10C0000EB0110866004F1FE
:102FF0000C0000EB0110C360481CC0B270BDFFE7BD
:10300000481CC1B21029C4DB0020F7E7F0B5054623
:103010000C4616461F464FF47A7004FB00F13B46FF
:103020003246284600F001F8F0BD2DE9F041044693
:103030000D4616461F46A068B5FBF0F83B463246E3
:1030400041462046FFF7A0FFBDE8F0812DE9F041A1
:1030500004460E4617462660206880476060A760D9
:10306000002518E0002104F10C0000EB05100170B0
:10307000491E04F10C0000EB05104160002104F131
:103080000C0000EB0510816004F10C0000EB051052
:10309000C160681CC5B2102DE4DBBDE8F0812DE9EC
:1030A000F04104462068804706466068B04201D17E
:1030B000BDE8F0816068B04202D26068371A03E070
:1030C0006068C0F1FF3087196660002546E004F1B2
:1030D0000C0000EB0510007870B304F10C0000EB5D
:1030E00005104068B8420BD904F10C0000EB051044
:1030F0004068C11B04F10C0000EB051041602CE09E
:1031000004F10C0000EB0510C06828B104F10C01BB
:1031100001EB0511C868804704F10C0000EB0510B5
:10312000806850B104F10C0000EB0510816804F1D7
:103130000C0000EB051041600FE0002104F10C00D1
:1031400000EB0510017004F10C0000EB051041606C
:1031500004F10C0000EB0510C1606D1C102DB6D3FE
:1031600000BFA5E70EB50D48FDF771FA0B48808842
:103170000A494988094A1288CDE900210290084885
:103180000388084A08A10D48FFF75CFD0C48006859
:103190001E214268094890470EBD00002A01002008
:1031A00034010020200000C025783A2578202578B9
:1031B0002025782025780D0A000000005803002003
:1031C00018010020030406080C101820300000002D
:1031D00000000000000102030406070809000000C7
:1031E0000001020304000000083200080000002073
:1031F00044010000FA0300082C32000844010020BA
:10320000340600007C2C00082F68FF1F004D2300AF
:1032100008A929000841290AFF08F52300083925D3
:0C3220000008313204062520DC010020EB
:04000005080000F5FA
:00000001FF
