:020000040800F2
:10000000F80B002009010008D11900088D1800081C
:10001000CD190008D1030008B12A00080000000033
:10002000000000000000000000000000B91A0008F5
:10003000D5030008000000000D1A00086122000826
:100040002301000823010008230100082301000800
:1000500023010008230100082301000823010008F0
:1000600023010008230100082301000823010008E0
:1000700023010008230100082301000823010008D0
:1000800023010008230100082301000823010008C0
:1000900023010008230100082301000823010008B0
:1000A00000000000230100082301000823010008CC
:1000B0002301000823010008230100082301000890
:1000C0002301000823010008230100082301000880
:1000D0002301000855290008230100082301000816
:1000E0002301000823010008230100082301000860
:1000F00023010008DFF80CD000F02CF9004800477D
:10010000E52A0008F80B002006488047064800470B
:10011000FEE7FEE7FEE7FEE7FEE7FEE7FEE7FEE7B7
:10012000FEE7FEE741230008F5000008D2B201E037
:1001300000F8012B491EFBD270470022F6E710B5EC
:1001400013460A4604461946FFF7F0FF204610BD45
:100150002DE9F04D81EA030404F0004B21F0004545
:1001600014464FF0000A23F0004150EA050220D067
:1001700054EA01021DD0C5F30A570246C5F3130322
:10018000C1F31300C1F30A5640F4801543F4801301
:10019000A7EB0608101BD64608F2FD3873EB0500E6
:1001A00002D308F1010801E092185B41B8F1000F99
:1001B00003DA00200146BDE8F08D00204FF48011E5
:1001C000064684460EE0171B73EB050705D3121B8A
:1001D00063EB050306434CEA010C49084FEA300083
:1001E00092185B4150EA0107EDD152EA030012D0A8
:1001F00082EA040083EA0501084305D0101BAB41E5
:1002000006D20122002306E000224FF0004302E064
:100210006FF0010253101AEB06004CEB085110EB83
:100220000A0041EB0B01BDE8F04D00F036B80EB509
:1002300040F2334102910021CDE900110A460B46FC
:1002400000F03AF803B000BDC1F30A5210B5C1F393
:10025000130140F2FF3341F480119A4201DA002089
:1002600010BD40F233439A42A2F2334203DC5242C1
:1002700000F003F810BD904010BD202A04DB203AA6
:1002800021FA02F00021704721FA02F3D040C2F1B6
:100290002002914008431946704710B5141E73F1AF
:1002A000000408DA401C41F1000192185B411A4336
:1002B00001D120F0010010BD2DE9F04D92469B4682
:1002C00011B1B1FA81F202E0B0FA80F22032904628
:1002D00000F052F804460F4640EA0A0041EA0B01DA
:1002E00053465A46084313D0114653EA010019D029
:1002F000C8F140025046FFF7C0FF05460E46504683
:100300005946424600F038F8084305D0012004E081
:1003100020463946BDE8F08D0020054346EAE076E8
:100320002C4337430A986305E40AA0EB0800002237
:10033000FD0A44EA47540A3002D500200146E9E7A5
:10034000010510196941DDE9084500196941BDE859
:10035000F04DA2E7064C074D06E0E06840F00103CF
:1003600094E8070098471034AC42F6D3FFF7C6FE76
:10037000002D0008202D0008202A04DB203A00FA76
:1003800002F1002070479140C2F1200320FA03F3EC
:1003900019439040704730B58C1810F8012B12F0BB
:1003A0000F0301D110F8013B120906D110F8012BFF
:1003B00003E010F8015B01F8015B5B1EF9D101E07D
:1003C00001F8013B521EFBD1A142E6D3002030BD13
:1003D00000BFFEE7704700BFFEE731B5002400F024
:1003E00003F9044600BF00F0FFF8001B00998842A3
:1003F000F9D338BD78B50346002200240020CAE0B6
:10040000012696400D6805EA0604002C71D04D685F
:10041000022D02D04D68122D13D1D60803F120050C
:1004200055F826005507EE0E0F25B540A843560790
:10043000F60E0D69B5402843D60803F1200545F8AE
:100440002600186856000325B540A8430D7905F02D
:1004500003055600B540284318604D68012D08D0AB
:100460004D68022D05D04D68112D02D04D68122D1A
:1004700013D1986856000325B540A8435600CD68AF
:10048000B54028439860586801259540A8430D79E8
:10049000C5F30015954028435860D86856000325D9
:1004A000B540A84356008D68B5402843D8604D68D4
:1004B00005F08055B5F1805F6CD100BF394D2D68D6
:1004C00045F00105374E356035462D6805F00105CC
:1004D000009500BF00BF344D960855F826009507DB
:1004E0002E0F0F25B540A843304DAB4202D1002559
:1004F00015E04FE02E4DAB4201D101250FE02D4D0F
:10050000AB4201D102250AE02B4DAB4201D10325BC
:1005100005E02A4DAB4201D1042500E005259607F0
:10052000360FB5402843204D960845F82600244D47
:100530002868A0434D6805F48035B5F5803F00D1AB
:1005400020431F4D28602D1D2868A0434D6805F4E9
:100550000035B5F5003F00D12043194D2D1D286011
:100560002D1D2868A0434D6805F48015B5F5801F42
:1005700000D12043124D083528602D1D2868A04366
:100580004D6805F40015B5F5001F00D120430C4D52
:100590000C352860521C0D68D540002D7FF430AF1B
:1005A00078BD0000203802400800014000000240F1
:1005B0000004024000080240000C0240001002400B
:1005C00000040140024613690B400BB1012000E01A
:1005D0000020704742694A40426170470AB1816118
:1005E00001E00B0483617047014800687047000018
:1005F0002801002002480068401C0149086070473B
:100600002801002010B5032000F0C0F8002000F001
:1006100005F800F017F8002010BD000070B5044682
:10062000074800684FF47A71B0FBF1F5284600F0F6
:10063000BCFF00222146501E00F069F8002070BD6A
:100640000000002008B500BF2948006840F00040C5
:10065000274908600846006800F00040009000BF8D
:1006600000BF00BF081F006840F00100091F0860BC
:100670000846006800F00100009000BF00BF00BF06
:10068000081D006840F08050091D08600846006899
:1006900000F08050009000BF00BF032000F076F80B
:1006A000002211466FF00B0000F031F800221146D5
:1006B0006FF00A0000F02BF8002211466FF00900DD
:1006C00000F025F800221146501F00F020F800220B
:1006D0001146101F00F01BF800221146901E00F07A
:1006E00016F800221146501E00F011F808BD000057
:1006F0002438024000BF00F01F020121914042094E
:10070000920002F1E022C2F8001100BF70472DE90B
:10071000F05F80460D461646002701F05BF907465C
:1007200039462A46334601F00700C0F1070ABAF1FC
:10073000040F02D94FF0040A01E0C0F1070AD146C4
:1007400000F1040ABAF1070F02D24FF0000A01E0EB
:10075000A0F1030AD4464FF0010A0AFA09FAAAF1F5
:10076000010A0AEA020A0AFA0CFA4FF0010B0BFA24
:100770000CFBABF1010B0BEA030B4AEA0B0421461D
:10078000404601F02FF9BDE8F09F000000BF00F0E7
:100790000702064B19684FF6FF031940044B0B4341
:1007A00043EA0221014B196000BF70470CED00E0E5
:1007B0000000FA050248006800F4C05070470000CD
:1007C0000070004070B504460D460026B34800682E
:1007D00000F00100A84218D200BF012D05D1AF489A
:1007E000006840F00400AD490860AC48006820F0A3
:1007F00001002843A949086000BF0846006800F0CE
:100800000100A84201D0012070BD207800F0020054
:10081000022807D1A248006820F0F000A168084330
:100820009F490860207800F0010000287BD06068B4
:10083000022821D12020010391FAA1F1B1FA81F11E
:1008400008430121B1EB601F03D1954808380068C7
:1008500002E093482C30006820210A0392FAA2F2A9
:10086000B2FA82F2114301F01F02012191400840C7
:1008700000286CD10120C7E76068032820D1202020
:10088000010591FAA1F1B1FA81F108430121B1EB1F
:10089000601F03D182480838006802E080482C308D
:1008A000006820210A0592FAA2F2B2FA82F21143FC
:1008B00001F01F02012191400840A8BB0120A3E7DD
:1008C0006068012820D12020022191FAA1F1B1FA1B
:1008D00081F108430121B1EB601F03D17048083852
:1008E000006802E06E482C3000682021022292FA53
:1008F000A2F2B2FA82F2114301F01F0201219140EB
:10090000084088B901207FE72020010191FAA1F178
:10091000B1FA81F108430121B1EB601F05D16048B4
:100920000838006804E069E011E05D482C30006898
:1009300020210A0192FAA2F2B2FA82F2114301F0E6
:100940001F0201219140084008B901205CE754488A
:10095000006820F003006168084351490860FFF710
:1009600043FE06466068022810D108E0FFF73CFE0F
:10097000801B41F28831884201D9032044E748486E
:10098000006800F00C000828F0D137E06068032808
:1009900010D108E0FFF728FE801B41F28831884221
:1009A00001D9032030E73E48006800F00C000C2815
:1009B000F0D123E06068012810D108E0FFF714FEB1
:1009C000801B41F28831884201D903201CE734485A
:1009D000006800F00C000428F0D10FE008E0FFF7F9
:1009E00003FE801B41F28831884201D903200BE7C6
:1009F0002B48006800F00C000028F0D12748006860
:100A000000F00100A84218D900BF012D05D12348EC
:100A1000006840F00400214908602048006820F088
:100A2000010028431D49086000BF0846006800F027
:100A30000100A84201D00120E6E6207800F0040081
:100A4000042807D11648006820F4E060E1680843F4
:100A500013490860207800F00800082808D11048E1
:100A6000006820F46050216940EAC1000C49086028
:100A700000F04EF80A49096801F0F001F02292FAFC
:100A8000A2F2B2FA82F2D140064A515CC84006494D
:100A900008600020FFF7C2FD0020B5E6003C0240E0
:100AA00008380240E52C00080000002001480068DA
:100AB000704700000000002000B5FFF7F7FF07496E
:100AC000096801F4E0614FF4E06292FAA2F2B2FA2E
:100AD00082F2D140024A515CC84000BD0838024051
:100AE000F52C000800B5FFF7E1FF0749096801F49C
:100AF00060514FF4605292FAA2F2B2FA82F2D140FF
:100B0000024A515CC84000BD08380240F52C00087C
:100B1000F0B5002100230024002200250020254EEE
:100B2000316801F00C067EB3042E04D0082E04D0E8
:100B30000C2E2AD103E020483AE0204838E001F4A6
:100B400070164FF4701797FAA7F7B7FA87F7FE40B9
:100B50001B4FBB5D01F440064FF4400797FAA7F71F
:100B6000B7FA87F7FE40741C124E366806F48036DA
:100B700026B1124E5E43B6FBF4F203E00E4E5E4326
:100B8000B6FBF4F2104613E000E000BF094E361F3A
:100B9000366806F460464FF4604797FAA7F7B7FA4D
:100BA00087F726FA07F56E1C0127B740F80300BF48
:100BB00000BFF0BD083802400024F400001BB7005D
:100BC000DC2C0008F8B504460025207800F0010070
:100BD000002879D0F748006800F00C0008280CD0F5
:100BE000F448006800F00C000C282BD1F148006894
:100BF00000F48030B0F5803F24D12020010391FA29
:100C0000A1F1B1FA81F108430121B1EB601F03D1D9
:100C1000E8480838006802E0E6482C3000682021E7
:100C20000A0392FAA2F2B2FA82F2114301F01F0211
:100C30000121914008400028CBD06068002843D1B2
:100C40000120F8BD00BF6068012808D1D9480838E4
:100C5000006840F48030D749083908602DE06068AA
:100C600068B9D4480838006820F48030D149083980
:100C700008600846006820F4802008601DE0606875
:100C800005280DD1CB480838006840F48020C949B8
:100C9000083908600846006840F4803008600CE0BD
:100CA000C4480838006820F48030C2490839086018
:100CB0000846006820F48020086000BF606860B3C8
:100CC000FFF792FC054607E052E0FFF78DFC401B62
:100CD000642801D90320B4E72020010391FAA1F18F
:100CE000B1FA81F108430121B1EB601F03D1B14892
:100CF0000838006802E0AF482C30006820210A0361
:100D000092FAA2F2B2FA82F2114301F01F0201211B
:100D1000914008400028D8D02AE0FFF765FC05463E
:100D200006E0FFF761FC401B642801D9032088E737
:100D30002020010391FAA1F1B1FA81F108430121C8
:100D4000B1EB601F03D19B480838006802E0994866
:100D50002C30006820210A0392FAA2F2B2FA82F241
:100D6000114301F01F020121914008400028D8D111
:100D7000207800F00200022845D18E48006800F07B
:100D80000C0004280AD08B48006800F00C000C28E6
:100D90003BD18848006800F48030A8BB20200221A5
:100DA00091FAA1F1B1FA81F108430121B1EB601F81
:100DB00003D180480838006802E07E482C30006883
:100DC0002021022292FAA2F2B2FA82F2114301F039
:100DD0001F0201219140084020B1E068012801D0A4
:100DE00001202EE77348001F006820F4F8504FF4EC
:100DF000F85292FAA2F2B2FA82F2216991400843C3
:100E00006C49091F08607DE0FFE7E068F0B301204E
:100E100090FAA0F1B1FA81F1674A42F82100FFF798
:100E2000E3FB054606E0FFF7DFFB401B022801D984
:100E3000032006E72020022191FAA1F1B1FA81F105
:100E400008430121B1EB601F03D15A4808380068FC
:100E500002E058482C3000682021022292FAA2F2C7
:100E6000B2FA82F2114301F01F02012191400840C1
:100E70000028D8D04F48001F006820F4F8504FF4E5
:100E8000F85292FAA2F2B2FA82F200E006E0216988
:100E9000914008434749091F086033E000200121C1
:100EA00091FAA1F1B1FA81F1434A42F82100FFF72A
:100EB0009BFB054606E0FFF797FB401B022801D984
:100EC0000320BEE62020022191FAA1F1B1FA81F1BE
:100ED00008430121B1EB601F03D136480838006890
:100EE00002E034482C3000682021022292FAA2F25B
:100EF000B2FA82F2114301F01F0201219140084031
:100F00000028D8D1207800F01000102873D129488B
:100F1000006800F00C0000286ED12020010191FA39
:100F2000A1F1B1FA81F108430121B1EB601F03D1B6
:100F300020480838006802E01E482C300068202154
:100F40000A0192FAA2F2B2FA82F2114301F01F02F0
:100F500001219140084018B1A06908B9012070E64C
:100F60001449091F206A096801F46041884225D9A3
:100F7000206A00F04DFD08B1012062E60D48001F17
:100F8000006820F46040216A08430A49091F08608C
:100F90000846006820F07F404FF07F4292FAA2F2AC
:100FA000B2FA82F2E169914008430249091F0860E0
:100FB00023E000000838024000004742FC48006877
:100FC00020F46040216A0843F94908600846006837
:100FD00020F07F404FF07F4292FAA2F2B2FA82F202
:100FE000E16991400843F2490860206A00F010FD71
:100FF00018B1012025E6A5E01FE04FF4604191FA09
:10100000A1F1B1FA81F1206AC840401C0121814060
:10101000C803E749091D096801F0F001F02292FABE
:10102000A2F2B2FA82F2D140E24A515CC840E249EF
:1010300008600020FFF7F2FA84E0A069F0B3012015
:10104000010291FAA1F1B1FA81F1DC4A42F82100E2
:10105000FFF7CAFA054606E0FFF7C6FA401B02286A
:1010600001D90320EDE52020010191FAA1F1B1FAA7
:1010700081F108430121B1EB601F03D1CC48001F6F
:10108000006802E0CA483030006820210A0192FA64
:10109000A2F2B2FA82F2114301F01F020121914043
:1010A00008400028D8D0C248006820F46040216A77
:1010B0000843BF4908600846006800E00DE020F0E2
:1010C0007F404FF07F4292FAA2F2B2FA82F2E169D7
:1010D00091400843B649086034E000204FF4807125
:1010E00091FAA1F1B1FA81F1B44A42F82100FFF777
:1010F0007BFA054606E0FFF777FA401B022801D984
:1011000003209EE52020010191FAA1F1B1FA81F1BD
:1011100008430121B1EB601F03D1A548001F0068FF
:1011200002E0A3483030006820210A0192FAA2F2BE
:10113000B2FA82F2114301F01F02012191400840EE
:101140000028D8D1207800F0080008286ED1606906
:10115000A8B3012090FAA0F1B1FA81F1974A02EB0D
:101160008101C1F88006FFF73FFA054606E0FFF768
:101170003BFA401B022801D9032062E540200221EE
:1011800091FAA1F1B1FA81F108430121B1EB601F9D
:1011900003D18748001F006802E0854830300068AE
:1011A0004021022292FAA2F2B2FA82F2114301F035
:1011B0001F020121914008400028D8D036E0FFE707
:1011C0000021012090FAA0F0B0FA80F07B4A02EBF7
:1011D0008000C0F88016FFF707FA054606E0FFF723
:1011E00003FA401B022801D903202AE540200221EE
:1011F00091FAA1F1B1FA81F108430121B1EB601F2D
:1012000003D16B48001F006802E069483030006875
:101210004021022292FAA2F2B2FA82F2114301F0C4
:101220001F020121914008400028D8D1207800F009
:101230000400042875D100265D482030006800F0C5
:10124000805080B900BF5A482030006840F080507C
:101250005749203108600846006800F0805000902F
:1012600000BF00BF01265648006800F48070B0B986
:101270005348006840F4807051490860FFF7B4F9A2
:10128000054606E0FFF7B0F9401B642801D90320AA
:10129000D7E44B48006800F480700028F2D000BF0B
:1012A000A068012808D142483030006840F48070BE
:1012B0003F49303108602DE0A06868B93C483030C3
:1012C000006820F480703A493031086008460068B0
:1012D00020F4806008601DE0A06805280DD1344826
:1012E0003030006840F48060314930310860084691
:1012F000006840F4807008600CE02D4830300068D1
:1013000020F480702A49303108600846006820F4D3
:101310008060086000BFA06870B3FFF765F90546FC
:1013200009E06AE0FFF760F9401B41F2883188422A
:1013300001D9032085E44020C10091FAA1F1B1FA5E
:1013400081F108430121B1EB601F03D11848001F50
:10135000006802E01648303000684021CA0092FA66
:10136000A2F2B2FA82F2114301F01F020121914070
:1013700008400028D6D035E0FFF736F9054608E0EA
:10138000FFF732F9401B41F28831884201D903202E
:1013900057E44020C10091FAA1F1B1FA81F108436C
:1013A0000121B1EB601F0DD10148001F00680BE067
:1013B00004380240E52C00080000002000004742ED
:1013C000007000406C4800684021CA0092FAA2F206
:1013D000B2FA82F2114301F01F020121914008404C
:1013E0000028CDD1012E07D163481038006820F0C5
:1013F000805061491039086000BF606AF0B35E48F0
:101400002C38006800F00C000C287AD0606A0228A2
:1014100079D100204FF0807191FAA1F1B1FA81F1F8
:10142000564A42F82100FFF7DFF8054606E0FFF7CD
:10143000DBF8401B022801D9032002E4202001052B
:1014400091FAA1F1B1FA81F108430121B1EB601FDA
:1014500003D149483438006801E04748006820213A
:101460000A0592FAA2F2B2FA82F2114301F01F02C7
:101470000121914008400028D9D100E07AE0D4E968
:101480000A010843216B08433B492C39096821F4C0
:101490007D01084338492C3908600120010691FA82
:1014A000A1F1B1FA81F1354A42F82100FFF79CF829
:1014B000054606E0FFF798F8401B022801D90320F3
:1014C00009E42020010591FAA1F1B1FA81F1084364
:1014D0000121B1EB601F03D127483438006801E0D7
:1014E0002548006820210A0592FAA2F2B2FA82F297
:1014F000114301F01F020121914008400028D9D07A
:1015000038E035E0FFE700214FF0807090FAA0F05E
:10151000B0FA80F0194A42F82010FFF765F8054646
:1015200006E0FFF761F8401B022801D9032058E4C8
:101530002020010591FAA1F1B1FA81F108430121BE
:10154000B1EB601F03D10C483438006801E00A4851
:10155000006820210A0592FAA2F2B2FA82F211433F
:1015600001F01F020121914008400028D9D101E07B
:10157000012036E4002034E43438024000004742C1
:10158000042808D14FF0E021096941F004014FF02F
:10159000E022116107E04FF0E021096921F0040128
:1015A0004FF0E02211617047704770B50446254640
:1015B000681EB0F1807F01D301200FE0681E4FF05C
:1015C000E02148610F214FF0FF3000F00BFA0020BE
:1015D0004FF0E021886107200861002070BD10B540
:1015E000FFF7E2FF10BD7047F8B50446002500265E
:1015F0002068006800F001052068C06800F480766B
:1016000025B11EB1E06B40F00100E0632068006886
:10161000C0F340052068406900F0010625B11EB105
:10162000E06B40F00400E06320680068C0F38005D0
:1016300025B11EB1E06B40F00200E0632068006855
:10164000C0F3C00525B11EB1E06B40F00800E063B7
:1016500020680068C0F340152068C06800F02006CC
:101660001DB116B1204600F0B5FE20680068C0F339
:10167000C0152068C06800F080061DB116B1204674
:1016800001F0B2F820680068C0F380152068C068D7
:1016900000F040061DB116B1204600F083FEE06B5D
:1016A00070B100BF2068006800902068406800901A
:1016B00000BF00BF012084F839002046FFF793FFE8
:1016C000F8BD10B504460CB9012010BDA06900B1E9
:1016D00000E000BF94F8390028B9002084F83800F1
:1016E000204600F025F8022084F839002068C06800
:1016F00020F400502168C860204600F0C9FE206830
:10170000006920F49040216808612068406920F059
:101710002A00216848612068C06840F400502168B0
:10172000C8600020E063012084F839000020CCE785
:1017300010B586B0044615492068884224D100BF00
:101740001348006840F4804011490860084600686A
:1017500000F48040009000BF00BF4FF4C0600190D3
:10176000022002900120039003200490072005909E
:1017700001A90848FEF73EFE002211462520FEF78B
:10178000C6FF2520FEF7B6FF06B010BD00380140A9
:10179000203802400000024070472DE9F04704461F
:1017A0000D46164699464FF0000894F83980B8F176
:1017B000010F02D0B8F1220F65D105B116B9012091
:1017C000BDE8F08700BF94F83800012801D102205D
:1017D000F6E7012084F8380000BF0020E06394F8A9
:1017E0003900222803D1322084F8390002E0122087
:1017F00084F83900A684E68428E0E08C401EE0846A
:10180000A068B0F5805F14D14B46002280212046AD
:1018100001F022F808B10320D2E72F463888C0F340
:10182000080021684860206908B9AD1C0EE06D1CF5
:101830000CE04B4600228021204601F00DF808B153
:101840000320BDE715F8010B21684860E08C0028F3
:10185000D3DC4B4600224021204600F0FDFF08B1BA
:101860000320ADE794F83900322803D1222084F810
:10187000390002E0012084F8390000BF002084F81C
:10188000380000BF9CE702209AE7704700BFFEE7E0
:1018900000B587B000BF3B48006840F004003949FC
:1018A00008600846006800F00400019000BF00BF17
:1018B00000BF0846006840F0200008600846006845
:1018C00000F02000019000BF00BF00BF0846006884
:1018D00040F0010008600846006800F00100019037
:1018E00000BF00BF00BF0846006840F0020008606B
:1018F0000846006800F00200019000BF00BF00220F
:10190000BD212148FEF76AFE00224FF4A0611F4866
:10191000FEF764FE4FF40050029000200390049004
:1019200002A91B48FEF766FDBD200290012003902E
:1019300000200490059002A91348FEF75BFD48F2D1
:101940004000029000200390049002A90E48FEF788
:1019500051FD4FF4A06002900120039000200490FC
:10196000059002A90948FEF745FD40F618200290AF
:1019700000200390049002A90448FEF73BFD07B045
:1019800000BD00001C38024000000240000402407C
:101990000008024010B50B480B4908604FF4E130D5
:1019A0004860002108488160C16001610C214161EB
:1019B00000218161C161FFF784FE08B1FEF70BFDD4
:1019C00010BD0000003801402C01002000BFFEE7E0
:1019D0007047000002480068C0F302207047000012
:1019E0000CED00E010B5002807DA0A07140E054ACE
:1019F00000F00F031B1FD45403E00A07130E024A22
:101A0000135410BD18ED00E000E400E07047000042
:101A1000F8B50546002600242548006800F0F000CF
:101A200058BB23481C30006800F0805018B1FEF706
:101A3000C1FE06461AE000BF1D481C30006840F099
:101A400080501B491C3108600846006800F0805037
:101A5000009000BF00BFFEF7ADFE064614481C30E4
:101A6000006820F0805012491C310860B6F5C05F54
:101A700003D1B5F5404F00D1012400BF012C05D1A1
:101A80000C48006840F004000A49086009480068F2
:101A900020F0010020430749086000BF08460068A5
:101AA00000F00100A04201D00120F8BD0020FCE7B9
:101AB00008380240003C02407047000010B5244C3A
:101AC000012210212348FEF789FD2349096808698E
:101AD0008047002000F0FCF92048844204D9882087
:101AE0001F490968487003E080201D490968487053
:101AF0001B4800684178012000F06CFB012000F0D9
:101B0000E7F9204600F070F90F2000F089FA7D20F7
:101B100000F0F0F8002000F099F9012000F014F92D
:101B2000072000F023FA012000F03CF940F2FF30DA
:101B300000F052FAFF2000F009FAFF2000F0F6F959
:101B4000012000F0A5F9044909688868804710BDA4
:101B5000A0700837000002401801002040DD4A1F35
:101B60001C01002070B500253648006890F813016C
:101B7000052863D2DFE800F00304161B2D005EE0A9
:101B80004FF400613048FEF71DFD0546012D08D1D8
:101B90000821122000F01EFB02202A49096881F862
:101BA00013014CE0274909688868804747E04FF4F3
:101BB00000612548FEF706FD0546012D08D14021AC
:101BC000122000F007FB04201E49096881F8130168
:101BD00035E0122000F03CF81C49096888741B4865
:101BE0000068807C00F02000202804D120211220F1
:101BF00000F0F0FA1DE0132000F02AF813490968FC
:101C0000C87412480068C17C0E480068143000F0A7
:101C100051F8002407E00B4909681431085D00F011
:101C2000C1FE601C84B209480068C07CA042F2DC9E
:101C300000BF044909688868804700E000BF00BF12
:101C400070BD000018010020000402401C010020AB
:101C500038B5044601226946204600F003F89DF895
:101C6000000038BD2DE9F04105460E46174600221A
:101C700010210F48FEF7B2FC0120FEF7AEFB05F085
:101C80007F05284600F000FA002404E0301900F037
:101C9000D7F9601CC4B2BC42F8DB0120FEF79DFB03
:101CA000012210210248FEF799FCBDE8F0810000F6
:101CB0000000024070B504460D462A462146002029
:101CC000FFF7D0FF70BD000010B500224FF4806117
:101CD0000748FEF783FC0120FEF77FFB01229102FB
:101CE0000348FEF77BFC0620FEF777FB10BD0000E3
:101CF0000004024070B5054600241D20FFF7A8FF30
:101D0000044604F00F047D2D05D0FA2D06D0B5F55C
:101D1000FA7F09D105E044F0700406E044F0800445
:101D200003E044F0900400E070BD00BF0548006887
:101D3000447704480068417F1D2000F04BFA00BF43
:101D4000F2E700001C01002070B5054600241D20AC
:101D5000FFF77EFF044604F0F104012D06D0022DAA
:101D600007D0032D08D0042D0CD108E044F0020464
:101D700009E044F0040406E044F0060403E044F003
:101D8000080400E070BD00BF0548006844770448BF
:101D90000068417F1D2000F01DFA00BFF2E700003F
:101DA0001C01002070B5054600241E20FFF750FFDF
:101DB000044604F0FB0415B1012D06D102E044F005
:101DC000020403E044F0040400E070BD00BF0548D5
:101DD0000068847703480068817F1E2000F0FAF9CC
:101DE00000BFF2E71C0100202DE9F0410446204627
:101DF000FEF71DFA05460022124BFEF7A9F9074629
:101E0000FEF722FA0446200C0F4909688871200A5F
:101E10000D490968C8710C4909680C720A480068C4
:101E20008179062000F0D6F907480068C1790720BB
:101E300000F0D0F904480068017A082000F0CAF9DF
:101E4000BDE8F08180844E401C01002070B505463D
:101E500000241D20FFF7FCFE044604F0FE0415B12B
:101E6000012D05D101E000BF03E044F0010400E0D2
:101E700070BD00BF05480068447704480068417F92
:101E80001D2000F0A7F900BFF2E700001C010020B0
:101E900010B5044601220D48016826312620FFF7BF
:101EA000E1FE0A48006890F8260000F0F70040EADA
:101EB000C4000649096881F826000448006890F8C3
:101EC0002610262000F086F910BD00001C0100201D
:101ED00070B50446032C01D0022C0AD10022012146
:101EE0001148FEF77BFB012208210F48FEF776FB25
:101EF0000DE0042C01D0052C09D1012211460A481D
:101F0000FEF76CFB002208210748FEF767FB012063
:101F1000FFF79EFE00F0F80040EA04052946012084
:101F200000F058F970BD00000000024010B50446F2
:101F30000548006880F822400348006890F82210A5
:101F4000222000F047F910BD1C01002010B5044606
:101F50000548006880F823400348006890F8231083
:101F6000232000F037F910BD1C01002070B5054694
:101F700000241E20FFF76CFE044604F00F04A81F87
:101F800007281AD2DFE800F004070A0D1013160024
:101F900044F0600412E044F070040FE044F0800468
:101FA0000CE044F0900409E044F0A00406E044F0A2
:101FB000B00403E044F0C00400E070BD00BF054879
:101FC0000068847703480068817F1E2000F002F9D2
:101FD00000BFF2E71C01002010B5044602220F48A2
:101FE00001681E311E20FFF73DFE0C480068807F0F
:101FF00000F0FC006FF0FC0101EA242108430749CE
:102000000968887705490968CC7702220348016886
:102010001E311E2000F0E6F810BD00001C0100205B
:1020200070B5044600250F2C00DD0F24702504F048
:102030000F0005432946092000F0CCF870BD0000D0
:1020400070B50446002220210E48FEF7C7FA002092
:102050002070802513E0012220210A48FEF7BEFAF5
:1020600040210848FEF7AEFA012802D12078284323
:102070002070002220210348FEF7B0FA6D10002DD9
:10208000E9DC70BD0000024070B505460022202149
:102090001048FEF7A3FA802419E004EA0500A042E4
:1020A00005D1012280210B48FEF798FA04E00022B6
:1020B00080210848FEF792FA012220210548FEF708
:1020C0008DFA002220210348FEF788FA6410002CC4
:1020D000E3DC70BD0000024010B50120FFF7F8FE00
:1020E00000201549096881F83D001349096881F805
:1020F0003E000222104801683D31402000F072F895
:10210000FF210E4800681430FEF717F80A480068EF
:10211000C07B09490968487307480068417B0D2066
:1021200000F058F80520FFF7D3FE032003490968A3
:1021300081F8130110BD00001C01002018010020CF
:1021400070B505460C460120FFF7C2FE1F48006827
:1021500080F822401D48006890F82210222000F0EC
:1021600039F8002019490968887318480068817B8C
:102170000E2000F02FF80020144909684873134816
:102180000068417B0D2000F025F841200F490968C7
:1021900081F83D0040200D49096881F83E00022287
:1021A0000A4801683D31402000F01CF807480068EB
:1021B00090F82210284600F03DF80320FFF788FE33
:1021C00001200349096881F8130170BD1C0100203A
:1021D0001801002013B50446012201A9204600F091
:1021E00001F81CBD2DE9F04105460E4617460022B8
:1021F00010210F48FEF7F2F90120FEF7EEF845F046
:1022000080052846FFF740FF002404E0305DFFF71B
:102210003BFF601CC4B2BC42F8DB0120FEF7DDF8D6
:10222000012210210248FEF7D9F9BDE8F081000033
:102230000000024070B504460D462A4621460020A3
:10224000FFF7D0FF70BD000010B54FF47A7202495D
:10225000024800F0B7FC10BDE9050008DC010020D1
:1022600010B5FEF7C7F9FFF7BAF910BD10B505486C
:1022700000F0D1FC04490968C868804700F0CEFB33
:1022800010BD0000DC0100201801002010B5FFF790
:10229000DBFF00F073FB064B01224FF4FA71054897
:1022A00000F070FC044909680868804710BD000010
:1022B000D52A0008DC0100201801002010B592B0DA
:1022C0001E48006820F4C05040F400601B490860BC
:1022D00002200590012008901020099002200E9005
:1022E00000210F91810410918105119105A8FEF73D
:1022F00069FC08B1FEF76FF80F20009003200190F1
:10230000002002900390049001216846FEF75AFADB
:1023100008B1FEF760F8FEF7C9FB4FF47A71B0FB25
:10232000F1F42046FFF741F90420FFF729F90022D4
:102330001146501EFEF7EBF912B010BD00700040C0
:102340001448006840F48070124908601148083051
:102350000068114908400F49083108600D480068BD
:102360000E4908400B4908600846006820F48020A8
:10237000086008480830006820F47D0005490831ED
:1023800008600020091D08604FF0006004490860E3
:1023900070470000003802400CC0FF88FEFFFEEED0
:1023A00008ED00E010B504462068C06820F0400049
:1023B0002168C86094F83900322803D1222084F8BB
:1023C000390002E0012084F839002046FFF75DFA69
:1023D000002010BD70B50446002694F83960222E06
:1023E00001D0322E52D1A068B0F5805F13D1A56A1A
:1023F000206940B920684068C0F308002880A06ABE
:10240000801CA06219E020684068C0B22880A06AE1
:10241000401CA06211E0206938B920684068C1B250
:10242000A26A501CA062117007E02068406800F0AA
:102430007F01A26A501CA0621170E08D401E80B224
:10244000E08508BB2068C06820F020002168C860D3
:1024500094F83900322803D1122084F839000EE0B4
:102460002068C06820F480702168C86020684069D6
:1024700020F0010021684861012084F839002046DD
:10248000FFF78AF9002070BD0020FCE70220FAE780
:102490002DE9F041044600252068006920F44050F1
:1024A000E1680843216808612169A06808436169FF
:1024B0000843E16940EA01052068C06849F20C61FF
:1024C000884328432168C8602068406920F4407030
:1024D000A169084321684861E069B0F5004F7CD1EB
:1024E000C049206888425DD1FEF7FCFA00EBC001CC
:1024F00001EB001061684900B0FBF1F06421B0FB12
:10250000F1F00601FEF7EEFA00EBC00101EB00105E
:1025100061684900B0FBF1F7FEF7E4FA00EBC00197
:1025200001EB001061684900B0FBF1F06421B0FBE1
:10253000F1F000EBC00101EB0010A7EB80003221AD
:1025400001EBC0006421B0FBF1F000F0F80006EBF5
:102550004006FEF7C7FA00EBC00101EB001061680E
:102560004900B0FBF1F7FEF7BDFA00EBC00101EB4B
:10257000001061684900B0FBF1F06421B0FBF1F09C
:1025800000EBC00101EB0010A7EB8000322101EB52
:10259000C0006421B0FBF1F000F007003044216876
:1025A00088601CE1FEF788FA00EBC00101EB001027
:1025B00061684900B0FBF1F06421B0FBF1F0060165
:1025C000FEF77AFA00EBC00101EB001061684900E8
:1025D000B0FBF1F7FEF770FA00E043E000EBC0015A
:1025E00001EB001061684900B0FBF1F06421B0FB21
:1025F000F1F000EBC00101EB0010A7EB80003221ED
:1026000001EBC0006421B0FBF1F000F0F80006EB34
:102610004006FEF751FA00EBC00101EB00106168C3
:102620004900B0FBF1F7FEF747FA00EBC00101EB00
:10263000001061684900B0FBF1F06421B0FBF1F0DB
:1026400000EBC00101EB0010A7EB8000322101EB91
:10265000C0006421B0FBF1F000F0070030442168B5
:102660008860BCE05F49206888425CD1FEF73AFA96
:1026700000EBC00101EB001061688900B0FBF1F6CE
:10268000FEF730FA00EBC00101EB00106168890031
:10269000B0FBF1F06421B0FBF1F000EBC00101EB05
:1026A0000010A6EB8000322101EB00106421B0FB8A
:1026B000F1F000F0F006FEF715FA00EBC00101EBB7
:1026C000001061688900B0FBF1F06421B0FBF1F00B
:1026D00006EB0016FEF706FA00EBC00101EB001056
:1026E00061688900B0FBF1F7FEF7FCF900EBC0016F
:1026F00001EB001061688900B0FBF1F06421B0FBD0
:10270000F1F000EBC00101EB0010A7EB80003221DB
:1027100001EB00106421B0FBF1F000F00F00304439
:10272000216888605BE0FEF7C7F900EBC00101EBB0
:10273000001061688900B0FBF1F6FEF7BDF900EB0F
:10274000C00101EB001061688900B0FBF1F0642169
:10275000B0FBF1F000EBC00101EB0010A6EB800034
:10276000322101EB00106421B0FBF1F000F0F00623
:10277000FEF7A2F900EBC00101EB001061688900CF
:10278000B0FBF1F06421B0FBF1F006EB0016FEF7B0
:1027900093F900EBC00101EB001061688900B0FB08
:1027A000F1F7FEF789F900EBC00101EB0010616859
:1027B0008900B0FBF1F06421B0FBF1F000EBC00147
:1027C00001EB0010A7EB8000322101EB0010642127
:1027D000B0FBF1F000F00F00304421688860BDE8E4
:1027E000F08100000038014010B50146002391F847
:1027F0003930122B01D0322B2CD18868B0F5805F94
:102800000FD10A6A1088C0F308000C68606008697C
:1028100018B9086A801C086209E0086A401C08624E
:1028200005E00C6A601C086220780C686060C88C47
:10283000401E80B2C88458B90868C06820F0800083
:102840000C68E0600868C06840F040000C68E06018
:10285000002010BD0220FCE72DE9F04104460E46A1
:1028600017461D464FF00008FDF7BEFE80469FBB91
:102870002BE0681C48B32DB1FDF7B6FEA0EB0800B5
:10288000A84222D92068C06820F080002168C86072
:102890002068C06820F020002168C8602068C068F7
:1028A00020F480702168C8602068406920F0010031
:1028B00021684861012084F8390000BF002084F8B5
:1028C000380000BF0320BDE8F08120680068304078
:1028D000B04202D1012001E003E000200028C8D06E
:1028E00035E02AE0681C40B32DB1FDF77DFEA0EB7A
:1028F0000800A84221D92068C06820F08000216823
:10290000C8602068C06820F020002168C860206886
:10291000C06820F480702168C8602068406920F099
:10292000010021684861012084F8390000BF0020BF
:1029300084F8380000BF0320C5E7206800683040F5
:10294000B04201D1012000E000200028CAD10020BF
:10295000B9E7000010B50748006800F0200028B172
:102960000449091D0968C8B200F026F80248FEF7BC
:102970003BFE10BD003801402C01002010B54FF483
:1029800082610648FDF7D9FB05480068C06840F041
:10299000200003490968C86010BD0000E80200205B
:1029A0002C01002001B53223012269460148FEF7BF
:1029B000F4FE08BD2C01002010B50446144815494A
:1029C0000988445413480088401C1249088008466E
:1029D0000088FF2801DD002008800F4890F80112D0
:1029E00090F80102401C0C4A82F80102104644543F
:1029F00090F80102B0F5007F03DB0020114681F85A
:102A00000102FDF7F1FD0449C1F8040210BD000008
:102A1000F806002022010020E802002030B5ADF5C4
:102A2000017D002500242048006890F8130101284A
:102A300002D10DF5017D30BDFDF7D6FD05461B48E1
:102A4000D0F80402281A322800D8F2E71CE0174810
:102A500090F8000215490A5C2046611C8CB201A95D
:102A60000A54124890F80002401C104981F80002F4
:102A7000084690F80002B0F5007F02DB002081F8E4
:102A80000002FA2C00DB07E0084890F80102074931
:102A900091F800128842DAD100BF1CB1E1B201A85E
:102AA000FFF74EFB00BFC4E718010020E80200203A
:102AB00000BFFEE702E008C8121F08C1002AFAD1D1
:102AC00070477047002001E001C1121F002AFBD1AE
:102AD0007047000010B504210148FDF77BFD10BDD3
:102AE00000000240FDF78EFDFFF7E8FBFEF7D0FE89
:102AF000FEF750FFFFF7CAFB01E0FFF7B7FBFCE76B
:102B000070B504460D46002138E004F10C0000EBDE
:102B10000110007878BB012604F10C0000EB0110D5
:102B2000067004F10C0000EB01104560AAB104F13D
:102B30000C0000EB0110406820B904F10C0000EB20
:102B40000110466004F10C0000EB0110466804F12E
:102B50000C0000EB0110866005E0002604F10C007B
:102B600000EB0110866004F10C0000EB0110C36063
:102B7000481CC0B270BDFFE7481CC1B21029C4DBBD
:102B80000020F7E7F0B505460C4616461F464FF401
:102B90007A7004FB00F13B463246284600F001F80B
:102BA000F0BD2DE9F04104460D4616461F46A068CB
:102BB000B5FBF0F83B46324641462046FFF7A0FF02
:102BC000BDE8F0812DE9F04104460E461746266027
:102BD000206880476060A760002518E0002104F1AC
:102BE0000C0000EB05100170491E04F10C0000EB15
:102BF00005104160002104F10C0000EB051081601C
:102C000004F10C0000EB0510C160681CC5B2102D6A
:102C1000E4DBBDE8F0812DE9F041044620688047FF
:102C200006466068B04201D1BDE8F0816068B042FC
:102C300002D26068371A03E06068C0F1FF3087197C
:102C40006660002546E004F10C0000EB05100078FA
:102C500070B304F10C0000EB05104068B8420BD9CA
:102C600004F10C0000EB05104068C11B04F10C00DE
:102C700000EB051041602CE004F10C0000EB0510A6
:102C8000C06828B104F10C0101EB0511C868804748
:102C900004F10C0000EB0510806850B104F10C0049
:102CA00000EB0510816804F10C0000EB0510416099
:102CB0000FE0002104F10C0000EB0510017004F19D
:102CC0000C0000EB0510416004F10C0000EB051056
:102CD000C1606D1C102DB6D300BFA5E70304060824
:102CE0000C1018203000000000000000000102035A
:102CF00004060708090000000001020304000000A8
:102D0000202D0008000000202C0100009603000880
:102D1000442D00082C010020CC0A0000C42A000821
:102D20002F68FF1F00BD1A000841210008D9200AA2
:102D3000FF08651B0008C91C0008313204D6206C4E
:042D4000010020006E
:04000005080000F5FA
:00000001FF
