:020000040002F8
:10300000B84A00204D330200553302005733020006
:10301000593302005B3302005D3302000000000000
:103020000000000000000000000000005F3302000C
:1030300061330200000000006333020065330200C8
:10304000CD350200673302004D39020067330200BC
:103050006733020067330200F53302006733020072
:1030600067330200673302006733020067330200F0
:1030700067330200673302006733020067330200E0
:10308000673302002536020067330200673302000F
:1030900049360200673302004D36020067330200F2
:1030A00067330200673302006733020067330200B0
:1030B00067330200673302000000000000000000D8
:1030C0006733020067330200673302006733020090
:1030D000673302006733020067330200000000001C
:1030E00000000000000000000000000000000000E0
:1030F00000000000000000000000000000000000D0
:1031000000000000000000000000000000000000BF
:1031100000000000000000000000000000000000AF
:10312000000000000000000000000000000000009F
:10313000000000000000000000000000000000008F
:10314000000000000000000000000000000000007F
:10315000000000000000000000000000000000006F
:10316000000000000000000000000000000000005F
:10317000000000000000000000000000000000004F
:10318000000000000000000000000000000000003F
:10319000000000000000000000000000000000002F
:1031A000000000000000000000000000000000001F
:1031B000000000000000000000000000000000000F
:1031C00000000000000000000000000000000000FF
:1031D00000000000000000000000000000000000EF
:1031E00000000000000000000000000000000000DF
:1031F00000000000000000000000000000000000CF
:10320000DFF80CD000F0E4F800480047D94D020088
:10321000B84A002030B4044654E8000F0D4644E894
:103220000053002BF8D1156030BC704730B4044611
:1032300054E8000F40EA010544E80053002BF7D1A1
:10324000156030BC704730B4044654E8000F00EA03
:10325000010544E80053002BF7D1156030BC7047DE
:1032600030B4044654E8000F80EA010544E80053F6
:10327000002BF7D1156030BC704730B4044654E8D9
:10328000000F00EB010544E80053002BF7D1156057
:1032900030BC704730B4044654E8000FA0EB010581
:1032A00044E80053002BF7D1156030BC7047000094
:1032B00030B4044654E8000F0D4644E80053002B98
:1032C000F8D1156030BC704730B4044654E8000FA4
:1032D00040EA010544E80053002BF7D1156030BCEB
:1032E000704730B4044654E8000F00EA010544E892
:1032F0000053002BF7D1156030BC704730B4044642
:1033000054E8000F80EA010544E80053002BF7D190
:10331000156030BC704730B4044654E8000F00EB31
:10332000010544E80053002BF7D1156030BC70470D
:1033300030B4044654E8000FA0EB010544E8005304
:10334000002BF7D1156030BC70470000064880475D
:1033500006480047FEE7FEE7FEE7FEE7FEE7FEE77A
:10336000FEE7FEE7FEE7FEE751360200013202000B
:10337000004870478076020040EA01039B0703D0B3
:1033800009E008C9121F08C0042AFAD203E011F8A4
:10339000013B00F8013B521EF9D27047D2B201E066
:1033A00000F8012B491EFBD270470022F6E710B54A
:1033B00013460A4604461946FFF7F0FF204610BDA3
:1033C000421C10F8011B0029FBD1801A7047000035
:1033D000064C074D06E0E06840F0010394E8070062
:1033E00098471034AC42F6D3FFF70EFF087D020079
:1033F000287D02002DE9F04700268CB0DFF86091AF
:10340000B0464FF48075012437460696284602F0F0
:10341000FDFB38B1D9F80403204203D0284602F05E
:10342000EBFB26432D1D64007F1CADB2082FEDD3AE
:103430004FF4BE74204602F0E9FB48B1204602F08A
:10344000DBFB46F0004606AA0121002002F0C0FB8B
:10345000444D16F0FF0F15D00127002437420DD040
:1034600009EB8401D1F81005D1F81015C0F3042040
:1034700055F82420C1F3014102B190477F00641C3C
:10348000082CEBD3002E67DA4FF0FF30CDE908802F
:1034900000263446281910F8507F90F9000027F0D4
:1034A000C008401C44D009A9404601F09AFE58B318
:1034B0004FEA9719404601F019F955F820701FB1ED
:1034C000B9F1030F03D00FE0B9F1030F30D108A811
:1034D0004FEAD80208F00703815C4FF0010C0CFAA8
:1034E00003FC41EA0C0181544FF0A04101EB88003C
:1034F000D0F8000706A9C0F3014A404601F071FE6A
:1035000018B1BAF1020F03D012E0BAF1030F0FD1D4
:10351000B9F1030F08D1BAF1020F1BD002214046C6
:1035200002F03AFB761CF6B217B149464046B8475E
:10353000641C042CAED3002E0ED06A46012100205C
:1035400002F046FB06990098884205D0069008983C
:1035500009909DE70321E2E70CB0BDE8F087000089
:1035600000600040E423002000F01F020121914090
:103570004009800000F1E020C0F88012704700F0A0
:103580001F02012191404009800000F1E020C0F8B5
:103590000011704700F01F02012191404009800096
:1035A00000F1E020C0F8001270474907090E00281A
:1035B00006DA00F00F0000F1E02080F8141D7047DB
:1035C00000F1E02080F80014704700002DE9F04180
:1035D0004FF48077384601F0C1FE0124104EA50754
:1035E00048B1384601F0C1FE0120C5F808037470E7
:1035F000002001F083F84FF48277384601F0AEFEE8
:1036000000280BD0384601F0B0FE0220C5F80803B0
:10361000B470BDE8F041012001F070B8BDE8F08160
:10362000D023002007480021C0F84011C0F8441101
:10363000C0F84811C0F84C11C0F80011C0F80411CE
:1036400003F020BC0010014003F06ABB02F098BFF9
:10365000F0B5AE480023021D01780125101D4FF082
:10366000805406290BD11678360708D10678C6F3A0
:103670000316032E06D0042E04D0052E02D00629F0
:1036800007D00EE0B4F82463A14FC6F304263E60D1
:1036900002E01678360704D10678C6F30316032E27
:1036A00002D0062904D00FE09B4F9A4E7E670EE0B1
:1036B0001678360708D10678C6F30316032E06D00F
:1036C000042E04D0052E02D0062907D00EE0D4F82F
:1036D0004462924FC6F342363E6002E016783607E7
:1036E00004D10678C6F30316032E02D0062906D0AD
:1036F00011E08B4E376827F0807737600EE0167840
:10370000360708D10678C6F30316032E06D0042E1A
:1037100004D0052E02D006290AD011E04FF08046D1
:10372000C6F80C31C6F810317C4E361F336002E00B
:103730001678360704D10678C6F30316032E02D096
:10374000062905D00CE0754F032664373E600AE079
:103750001678360704D10678C6F30316032E02D076
:1037600006290DD014E06F4F05263E606D4E783669
:1037700035606C4E083633603F263F1D3E6002E0E8
:103780001678360704D10678C6F30316052E02D044
:10379000062957D062E0644E3668644F3E60624E40
:1037A000361D36683F1D3E605F4E083636683F1D49
:1037B0003E605D4E0C3636683F1D3E605A4E1036F8
:1037C00036683F1D3E60584E143636683F1D3E60D9
:1037D000554E18363668554F20373E60524E1C36CF
:1037E00036683F1D3E60504E203636683F1D3E60B5
:1037F0004D4E243636683F1D3E604B4E28363668A7
:103800003F1D3E60484E2C3636683F1D3E60464E9A
:1038100030363668454F40373E60434E3436366862
:103820003F1D3E60404E383636683F1D3E603E4E7E
:103830003C3636683F1D3E603B4E403636683F1D85
:103840003E6002E01678360708D10678C6F3031604
:10385000032E06D0042E04D0052E02D0062907D050
:1038600019E0D4F85812324A01F04F01116002E019
:10387000117809070FD10078C0F30310032803D093
:10388000042801D0052806D12A480168C90702D0BA
:103890006FF00101016022487438016841F4700141
:1038A0000160BFF34F8FBFF36F8F4FF01021D1F83E
:1038B0000002002803DBD1F80402002822DA1E4AA5
:1038C00015601E480468002CFCD01524C1F8004285
:1038D0000568002DFCD0C1F8044201680029FCD025
:1038E000136001680029FCD0BFF34F8F0C48F038FB
:1038F0000168134A01F4E06111430160BFF34F8F87
:1039000000BFFDE710490F480860F0BDE00F00F070
:10391000403501400DF0ADBA00C007403C05004005
:10392000FCED00E0105600400404001020C50040EB
:10393000E40E00400004004004E5014000E40140C2
:103940000400FA050090D003202200200448017FE3
:1039500004480029024901D003F0A9BB03F018BBB9
:103960003C2400200020004002E008C8121F08C1CB
:10397000002AFAD170477047002001E001C1121FF0
:10398000002AFBD1704700000121202803DA814082
:103990000548014003E0402802DA2038814009B19F
:1039A0000120704700207047FC06FFBD082806D2A2
:1039B00028B1012803D0042801D00120704700203D
:1039C00070471FB5002002908DF80800009003900A
:1039D000402101908DF80000ADF80A10ADF80C0000
:1039E0000121684673DF08B100F0A2F8002000F062
:1039F00035FD1FBD70B50024084D05E0686810F85E
:103A0000340001F065FD641C28788442F6D3044834
:103A10000068BDE8704000F017B900009421002054
:103A2000FC73020070B50024064D06E068680121B1
:103A300010F8340001F070FD641C28788442F5D33E
:103A4000002070BD94210020F8B515460C460646AE
:103A5000052A01D20720F8BD01F044FE18B901F093
:103A600013FE0028F7D1104900204E600C70C1E908
:103A700002500E4D08610DE006EBC400696800912C
:103A800081788DF801100078094A694601F096FDA9
:103A90000028E0D1641EE4B2EED2BDE8F840054A49
:103AA0000021024800F050B894210020FC7302006D
:103AB00045490200A548020002F02CFB02F082F901
:103AC0000028FBD1104C0121208801EB00400FA100
:103AD00002F070FA10480068C00700D000BE2088CD
:103AE000022101EB00400DA102F064FABFF34F8FF9
:103AF0000948E43801680D4A01F4E06111430160AE
:103B0000BFF34F8F00BFFDE76C2200204661746158
:103B10006C206572726F7200F0ED00E0537973747F
:103B2000656D207265736574000000000400FA057D
:103B30000EB500210091CDE901106A4644F2010062
:103B4000FFF7BAFF0EBD0000074B9B7823B12AB1E7
:103B500020B10068037C1BB1082070470720704724
:103B600041744261002070477C24002070B502F04F
:103B7000DDFE104800240B21047044700E4D81704E
:103B800014206C602C706C70FFF7EEFC0721142081
:103B9000FFF70BFD1420FFF7F2FC08480460072133
:103BA0001120FFF702FD0548001F0068A8600020F3
:103BB00070BD00007C240020A821002008150140D1
:103BC0002DE9FC47DFF8789099F8023073B368B3B9
:103BD000052902D20720BDE8FC87436933B3437C43
:103BE000012B25D0002704460025884616468DF86F
:103BF0000050684600F038F801A803F063FBC8B134
:103C0000012101700F4944600968C0E90218C0E948
:103C100004769DF8040089F801009DF8000000F08A
:103C200047F81420FFF7B6FC2846D4E70820D2E76F
:103C30000F46D8E704259DF8000000F039F8F3E7B7
:103C40007C240020041501400649897839B130B13F
:103C5000416921B100210174022103F0EFB808206D
:103C6000704700007C24002030B5EFF3108172B65D
:103C70000D4A9468012324B10370002900D162B673
:103C800030BD93604FF0E023D3F88051074C2540BE
:103C90001560C3F88041D3F8844154605A17C3F8C3
:103CA000842100220270E8E788250020FC06FFBD81
:103CB0000B498A68002A11D000280FD1EFF3108039
:103CC00072B60B684FF0E022C2F800314B68C2F8C0
:103CD000043100228A60002800D162B670470000DB
:103CE000882500202DE9F041064608680C46411C55
:103CF0004FF0A0474FF0010506D005FA00F1C7F8D4
:103D00000815206801F03EFF6068411C02D00021C8
:103D100001F02FFF3079204901EB4010A169007FAD
:103D200000283068C0F8241525D0607D227D3168D8
:103D30001043C1F86C05D4E900123068C0F80C15C6
:103D4000C0F8142524E0A068411C02D0002101F035
:103D500010FFE068411C05D08540C7F80855E068B1
:103D600001F010FFD4E902123068C0F80825C0F84D
:103D70001015BDE8F081607D217D32680843C2F8EE
:103D80006C05D4E900123068C0F81425C0F80C1591
:103D9000207D0128D7D0ECE73C2400202DE9FC470A
:103DA000002517880646158090F82D001446894690
:103DB00030B13A462146484600F01AF9050009D1CB
:103DC000B0784FF00C0A18B32088C846001DB842DE
:103DD00002D95046BDE8FC87684679DF0028F9D152
:103DE0002088032108F8001020881921401C80B287
:103DF000208008F800102088401C80B2208000EB52
:103E00000801BDF8000003F0CAF9218808442080A9
:103E1000F0780222C8B1218896F9033001F1030C31
:103E20004846BC45D5D8425421884FF0010C491C66
:103E300089B2218000F801C02188491C89B2218003
:103E400009F801302088401C20807068B8B12188B2
:103E500090F9003001F1030C4846BC45B9D84254F2
:103E600021880A22491C89B2218042542188491C98
:103E700089B2218009F801302088401C20803089D7
:103E800050B1CDE900474B460622022106F1080059
:103E900003F030FA05009DD1308A50B1CDE90047DA
:103EA0004B460722032106F1100003F023FA050018
:103EB00090D1308B50B1CDE900474B4615221421EB
:103EC00006F1180003F016FA050083D1306A30B10C
:103ED0003B462246494600F07BFC0500DBD1706A78
:103EE00030B13B462246494601F04CF80500D2D19C
:103EF00096F82C0038B13B4622464946304602F03F
:103F000055FE0500C7D1307838B13B4622464946B8
:103F1000304601F0BFF80500BDD128465AE7F0B59C
:103F20000C4693B01F210726ADF80010ADF8041021
:103F3000002750B1C17849070DD56A4602A9FFF79D
:103F40002DFF002808D102AD02E00025ADF8007079
:103F50006CB1E07810B1304613B0F0BD01AA0AA9E7
:103F60002046FFF71BFF0028F6D10AAA02E0002234
:103F7000ADF80470BDF80400C3B2BDF80000C1B2D2
:103F8000284672DFE8E7000070B5040012D0014651
:103F90001C221448FFF7F0F91248134D0560206801
:103FA00050B17ADF002806D1206801682960406896
:103FB000686005E00E2070BD0B487BDF0028FAD159
:103FC00008484FF6FF711438084A20F8041B0549C9
:103FD000343901600021FFF7B7FD0028EBD0032042
:103FE00070BD0000FC2200208C2100205D720200C8
:103FF0007CB5054608880C460930904201D90C2052
:104000007CBD68466DDF0028FAD1218808206854FD
:1040100020881B21401C80B2208029542088401C0D
:1040200080B220802844DDF801100160BDF8051041
:1040300081802088801D80B220809DF80010490872
:1040400000D0012129542088401C208000207CBD04
:1040500070B5444D018888B02E880446212946D089
:1040600018DC012958D0404803221029008802EBAF
:1040700000401BD0112927D0132941D100231A4613
:10408000852130467FDF00283AD008B0BDE8704077
:10409000FFF74EBD3B293BD0512941D0522931D0A9
:1040A00056292DD18088132176DFECE72FA101F06E
:1040B00081FF012000F0D2F9002000F0C7F9A088AC
:1040C0002880FFF7AFFCDEE72BA101F073FF012092
:1040D00000F0BCF94FF6FF702880FFF78BFC08B1A9
:1040E000FFF726FD08B0BDE87040FFF76ABC00206E
:1040F0000090A08869468FDF2FE000BFFFF718FD12
:1041000008B070BD00231A4619463046A9DFBAE749
:104110008088132176DFB6E78088002166DFB2E76A
:104120001022A11D04A8FFF727F99DF810100029FF
:10413000E6D09DF81800042803D0062801D00528F1
:10414000DED102290CD001208DF800004FF4C1709F
:10415000ADF80400A0886946A8DF0028CED1CFE7DB
:104160000220F1E7802100206C220020436F6E6E58
:104170006563746564000000446973636F6E6E6507
:1041800063746564000000002DE9F04701883B4E30
:1041900040F2F3194FF6FF7510291BD011293ED0BC
:1041A000122954D0502946D1C188F289841D9142E8
:1041B00041D1618902293ED18688304600F0EEFB6C
:1041C000050038D004F10C0000F03CF9A8B32946F2
:1041D00030464EE0C17B8788044601292BD1A84692
:1041E000284600F0DBFB050017D02F800020287246
:1041F000234843464A460168C5F80A104068C5F896
:104200000E0004F1100105F10A0000F061FC687273
:10421000F08900280FD129462AE0042013E0808885
:1042200000F0BCFB040006D06068FFF70DFD08B18C
:1042300002F0A0FC2580BDE8F087FFE76868FFF783
:1042400003FD0028F7D0BDE8F04702F093BC878853
:104250000646384600F0A2FB0400ECD02B464A4646
:1042600006F1080104F10A0000F032FC60722146F8
:104270003846BDE8F04700F0F1BA0000FC2200200B
:104280008C2100202DE9F047044603883F48012295
:10429000A4B000F1480A102B09D0112B54D01A2BCE
:1042A00070D1217AB2EB111F53D2012352E0D0E931
:1042B00011218A430546011D12A802F02EFC44225A
:1042C00012A901A8FFF758F8DFF8C090002637467A
:1042D00009F144090DF104080AE000BF08EB4600AB
:1042E0001D2283884946281D009702F0DBFB761CBF
:1042F0000198B042F2D8686CA688C04302F0F4FB83
:10430000A0F57F41FF3917D005EB400001238680DF
:1043100032465146281D02F025FC0123324649460B
:10432000281D02F01FFCE07B02280BD00023174958
:10433000A2884C31281D20E024B00420BDE8F047BD
:10434000FFF7F6BB0123F2E70023A2885146001DC8
:1043500013E000230D490546A2885031001D02F0EC
:1043600001FC207A0221B1EB101F01D2012300E0F1
:1043700000230649A2885431281D24B0BDE8F04727
:1043800002F0F0BB24B0BDE8F08700001823002045
:1043900030B50446134B85B008680D4660610FCBFD
:1043A0008DE80F0004F11201684662DF002816D183
:1043B000A07C8DF8120041F22350ADF81000224687
:1043C00004A90120A0DF002809D12946204600F0D9
:1043D000B9F8002803D12946204600F09BFB05B020
:1043E00030BD0000E873020030B40288502A10D1BA
:1043F000034630F8062F4C88A2420AD14289012A8E
:1044000007D14C69002C04D0027B9888A44630BCAC
:10441000604730BC704707B586B001220023009387
:10442000ADF810200193029303938DF8022049897F
:10443000ADF8001008A9039104A902916946A6DF0E
:1044400009B000BD007800F0010070470249085C27
:10445000012101F0B2BB0000C87302000249085CF0
:10446000002101F0AABB0000C87302007CB5002443
:10447000084E25460122305D009500231146019526
:1044800001F038FB641C042CF4D3BDE87C4000F040
:1044900003B80000C873020010B500242046FFF7DF
:1044A000D5FF641C042CF9D310BD0000F8B5871C9F
:1044B00000208DF800000E4601256846FFF7D4FB6A
:1044C000124C20683060D4E90001401AA168091A32
:1044D000BE1C06E000F036FCD4E90001401AA168D9
:1044E000091A491C8E42F5D8A1682068084004EBDF
:1044F0008000C16841F00301C16020683844206039
:104500009DF80000FFF7D4FB2846F8BD9426002054
:1045100030B482680468531C8360A154D0E901124E
:104520008A4202D330BC01F0ECB930BC70470000C5
:10453000034803C8814201D1012070470020704721
:104540009426002030B58FB00024054607949DF8CE
:104550001C001C2120F00F00401C20F0F000103047
:104560008DF81C009DF81D0020F00F00401C20F06D
:10457000F00010308DF81D009DF81E0020F00600A0
:10458000801C8DF81E006846FEF70FFF9DF80000A6
:10459000019440F012008DF8000007A8CDE9044016
:1045A00003940694A87C8DF83A0041F22450ADF8AB
:1045B00038000D949DF83400142120F00F00401CA9
:1045C00020F0F00010308DF834009DF8350020F018
:1045D000FF008DF835009DF8360020F00600801CA5
:1045E00020F019008DF8360008A8FEF7DEFE0EA8B0
:1045F00008900DA809900120ADF82800ADF82A40D8
:10460000ADF82C000C94288805F10A0308AA694625
:10461000A2DF0FB030BD000010B50C460D2819D137
:104620000F480321008801EB00400EA101F0C2FCFD
:104630001448224612490088FFF7EDFE00280DD0ED
:10464000A0F54051023909D0082807D043F20141B2
:10465000884203D0BDE81040FFF76ABA10BD0000E1
:104660006C22002053656E6420627574746F6E2036
:104670007374617465206368616E67652E00000065
:104680009C2200208021002005494FF0FF3208289D
:1046900041F8202002D3084480F8482070470000E9
:1046A000E4230020F0B54FF0FF3512B100230826B7
:1046B00001E008230C260C4C05E000BF54F82370E1
:1046C0007F1C04D05B1CB342F8D32846F0BD2618EB
:1046D0005DB286F8305044F82310002AF5D1E11875
:1046E00081F84800F1E70000E42300200249084473
:1046F00090F9300070470000E423002070B5084CAA
:10470000050009D010342168002907D0086820600E
:10471000496828468847F6E70834F4E770BD00008A
:10472000D02300202DE9F05F26484168F1B3DFF87F
:1047300098B00E688146DBF8004087688078E11BFE
:1047400021F07F45ED1CB0B9DFF880804FF4803058
:10475000C8F84403C8F804031120FEF705FF112030
:10476000FEF70DFF4FF0010AC8F800A02F2000F05F
:1047700005FE89F802A0B54200D23546124BE81971
:104780003C3320F07F401860DBF800105A46091BCC
:1047900021F07F41001B20F07F40C91C81420FD9CE
:1047A000106818602F2000F0E9FD00E004E0BDE88B
:1047B000F05F1120FEF7EEBEBDE8F05F02F0B6B884
:1047C000BDE8F09FA8210020041501400010014021
:1047D0002DE9F04117880646B81D14460D4698424B
:1047E00002D90C20BDE8F0813188072206290AD3BE
:1047F0004FF4486C4FF6FF73614501D9994202D1DD
:104800007088062801D21046ECE7604501D998422D
:10481000F9D1994203D0984201D08142F3D80520C2
:10482000E85520881221401C80B22080295420881D
:10483000401C80B220804119308802F0B0FC2188F1
:10484000084480B220804119708802F0A8FC2188B9
:10485000084420800020C5E7FFF76AB938B54A7AD6
:104860000F4B62B100220A725969002906D0012259
:104870008DF80020ADF802006846884738BD0A7AF6
:1048800062B19B684C68024619462046FFF798F9CA
:104890000028F3D0BDE8384002F06CB95B68F1E75E
:1048A000FC2200202DE9F04100260125144C22E0D5
:1048B0006068226900EBC607387805FA00F11142FA
:1048C00017D08A43226100F0D5FE02463878E368AB
:1048D00005FA00F1194002FA00F3994209D17978FA
:1048E000012901D0012100E0002151407A6802B184
:1048F0009047761CF6B220788642D9D3BDE8F08185
:10490000942100200E4910B50A784C780023A24269
:1049100012D0521CD2B20A70022A00D10B70084A7F
:104920000B780C3252F8232002608868104420F083
:104930007F408860012010BD0360002010BD000092
:10494000A82100202DE9F041124E07460125BD4067
:104950003068FFF779F900280DD10F4C2069284203
:1049600007D1384600F086FE0028E06805D02843CD
:1049700004E0A8432061BDE8F081A843E06020691D
:1049800028432061A1683068BDE8F0410022FFF7AC
:1049900017B90000FC73020094210020014603486F
:1049A00002888A4200D0002070470000E8220020E0
:1049B0002DE9FC5F0E008346DDE90C47C6F10000DF
:1049C00098469246814600D40846012503E000BF80
:1049D00090FBFAF06D1C5045FADAA84500D945461F
:1049E00024B1002E01DB780700D5641EB80702D57C
:1049F000B8F1000F0AD0F80708D13CB1A54205D2A2
:104A000020215846641EFFF783FDF6E7002E02DAE8
:104A10004E462D2102E0780703D52B215846FFF79B
:104A200077FD07F0030002280BD1B8F1000F08D181
:104A30003CB1A54205D230215846641EFFF768FDFF
:104A4000F6E7CDE90047434652463146584602F064
:104A5000ABFBBDE8FC9F000070B50E460446007934
:104A600018494FF4A27501EB4010017F2068A1B1F5
:104A70004FF4887101F01EFE4FF49071206801F030
:104A800019FE4FF49271206801F014FE2946206847
:104A900001F010FE0C49206809E04FF48E7101F01E
:104AA000F8FD2946206801F0F4FD08492068C0F8A7
:104AB0000413206800F009FD3146BDE8704000F0A5
:104AC000E8BC00003C24002010030200800002002B
:104AD000F0B58488A518944200D82246A41AC2884A
:104AE000D6189A4200D81346D21A4B880788BB4280
:104AF0000CD34088834209D88888A04206D3A842B4
:104B000004D8C888904201D3B04201D90020F0BD3A
:104B10000120F0BD30B58FB005461C216846FEF778
:104B200044FC00249DF80000019440F00A008DF838
:104B300000000394049405940694A87C8DF8360034
:104B400041F22550ADF834000C949DF8300014214A
:104B500020F00F00401C20F0F00010308DF83000E5
:104B60009DF8310020F00F00401C20F0F0001030C4
:104B70008DF831009DF8320020F00600801C20F0F6
:104B800019008DF8320007A8FEF70FFC0DA807905A
:104B90000CA808900120ADF82400ADF82640ADF82F
:104BA00028000B942888AB1C07AA6946A2DF0FB027
:104BB00030BD000070B50B4C03254FF0020032B140
:104BC000FFF74CFC208808A105EB004005E0FFF74B
:104BD0003DFC208809A105EB0040BDE8704001F0D4
:104BE000E9B900006C22002052656365697665644E
:104BF000204C4544204F4E21000000005265636563
:104C000069766564204C4544204F464621000000EB
:104C100006490120086006480168C1F300410029E7
:104C2000FAD1044900208870704700000C00004051
:104C300018040040D023002017210180418000216A
:104C4000017141711B218171C17170472DE9F047DC
:104C5000394E002780463D46DFF8E090D6F804A0A4
:104C600057E003D00446D0F81C8035E099F80020C6
:104C700002EB4201521CD2B289F8002009EBC101BB
:104C800099F80230091D9A4201D189F8005048680C
:104C90000A780446012A12D0022A02D0032A3BD104
:104CA00008E002F09BF800B10127257434E0057498
:104CB000C06900E070680028F9D170602CE0207CA9
:104CC00050BB88686060C868A0600869E060486997
:104CD000A061F07800B165606268B168184B501A45
:104CE00020F07F40984202D2A168084406E0881A6A
:104CF000A16820F07F40814202D9081A206000E0BC
:104D0000256065600120A56020742046E56102F001
:104D100047F8B8F10000A4D199F8001099F8010003
:104D20008142A3D117B97168514502D00120BDE875
:104D3000F0870020FBE70000A82100207C24002051
:104D4000FFFF7F0070B588B0214800F0F1F92048DE
:104D5000001F064600F0ECF91E4DD5E9014105E0C3
:104D6000C0F3891202EB9050641C044404EA010071
:104D700005EB8000C0688207F2D000200DF1080228
:104D800004EA010305EB8303641CDB6842F820306E
:104D9000401C0228F4D3029800F00300012808D038
:104DA00002280AD10298032101EB905004EB9004F1
:104DB00003E00298C0F3831004443046002101AAA6
:104DC000FEF78FFA002800D06C6008B070BD0000BC
:104DD000AC2A002094260020A0B0FFF747FBFEF786
:104DE000C5FE08B1FEF7A4FE002001F04DF908B1A0
:104DF000FEF79EFE00F0D8FF40F2666201215048A7
:104E0000FEF722FE08B1FEF793FE01F083FB08B126
:104E1000FEF78EFE002469460120009401F062FA3C
:104E200008B1FEF785FE684601F0E0FA08B1FEF72A
:104E30007FFE9DF8080043A120F00F00401C20F0E9
:104E4000F00010308DF808000D2202A87CDF08B1B8
:104E5000FEF76EFE00945020ADF80000A0200194F3
:104E6000ADF80200ADF804404FF4C870ADF806008C
:104E700068467ADF08B1FEF75BFE0021354800F096
:104E8000B8F908B1FEF754FE33480090314869463E
:104E90001838FFF77DFA08B1FEF74AFE2F483C218B
:104EA00000681E902B481838807C8DF87A00684680
:104EB000FEF77BFA02208DF8000001258DF80250E4
:104EC00006208DF803003C210FA8FEF76EFA1EA8FD
:104ED0001490ADF84C500FA96846FFF720F808B1C0
:104EE000FEF726FE1C216846FEF75FFA4FF42020ED
:104EF000CDE900408010029019480590032519481B
:104F00008DF80C500690ADF80E408DF810406846B4
:104F1000FFF73AF808B1FEF70BFE134813A100881B
:104F200005EB004001F046F8FEF74BFD00F04AFFAC
:104F30000028FBD13EDF0028F8D0FEF7F9FDF5E7A9
:104F4000842100204E6F726469635F426C696E6BEE
:104F500079000000B4220020B54B0200C4730200A7
:104F6000C1660200594802006C220020426C696E42
:104F70006B79206578616D706C65207374617274F3
:104F800065642E0070B5144682880E46054620885A
:104F9000111D0144921C994201D8FE2A01D90C200E
:104FA00070BD521C32542088FF21401C80B22080EA
:104FB00031542088401C80B220808119288802F05A
:104FC000EEF82188084480B22080AA8842B1A968FE
:104FD00041B13044FEF7D0F92088A98808442080E8
:104FE000002070BD072070BD2DE9F047C78804463A
:104FF000181D16468946B0FBF7F1B0FBF7F207FB28
:1050000012009A193A44D21CB2FBF7F2DDF820A044
:1050100001E02468491E0029FBD13D1A8846B542AB
:1050200016D818E0BAF1000F05D0211809EB0800D6
:105030002A46091D04E0204409EB08012A46001D08
:10504000FEF79AF900202468761BA844B74201D9DC
:10505000354600E03D46002EE4D1BDE8F087000073
:1050600030B5024669B101F03DF80021084C0BE073
:1050700001EB410304EB830315685B88AB4202D16B
:105080001160002030BD491C8142F1D3052030BDA4
:1050900024220020F8B50E46017814460546012961
:1050A00001D1687830B12088821C9A422DD801291C
:1050B00002D006E00720F8BD69780144891C9942B6
:1050C00023D8181A801E87B2ADF800702188B01C52
:1050D000084469467DDF0028EDD12878022805D1F3
:1050E000BDF80010B94201D809210AE008210128C1
:1050F00005D16878B84202D8ADF8000001E0ADF8FB
:105100000070BDF80000FE2801D90C20F8BD2288EF
:10511000401CB0542088401C80B22080315420882C
:10512000401C2080BDF80010084420800020F8BDFD
:1051300008B501216A46FEF7C7F8009808BD38B5E2
:10514000044600258DF800506846FEF78DFD216865
:105150006268086890420ED9401E08600178238A70
:10516000E26801FB0325227A2168101AC0B20A798D
:10517000824200D208719DF80000FEF799FD284692
:1051800038BD38B5054600208DF800000C4668464D
:10519000FEF76AFDE868298A201AB0FBF1F12A6857
:1051A0001068431C136001709DF80000FEF780FD3D
:1051B00038BD10B530B1017A42680368891AC9B2A6
:1051C0001A6006E00E2010BD03681A68541C1C60AB
:1051D0001170491EC9B2F7D200680021017108465A
:1051E00010BDC20800F007030120895C9840084008
:1051F000704710B560B10161172120F8021B20F83B
:10520000021B1B2100F8021BFFF716FD002010BD3A
:105210000E2010BD2DE9F043858895B00C46002D79
:105220003DD10188DFF824810026DFF82491012791
:1052300024293CD006DC102909D011290CD02329BF
:105240006DD150E03A290BD0552968D12AE00146AA
:10525000204601F043FA62E0A01DFFF7EDFC5EE09E
:105260002246408934F8061F814200D808466080F3
:10527000172800D217206080106970B1607960B182
:10528000D8E90010CDE90310ADF80E506088ADF8F4
:105290001000136903A9104698476671267115B06E
:1052A000BDE8F0830146204601F066FA37E0011DB3
:1052B000342206A8FEF760F8BDF81800BDF81C20DF
:1052C00004EBC0014A7322694AB3D8E90432CDE93C
:1052D0000432ADF81200487B8DF814002269204694
:1052E00004A990471BE00496059630F8041F04EBD0
:1052F000C1020179127B8A4200D21146ADF810102A
:10530000ADF812100088002204A990DF020006D038
:10531000B9F800000F4907EB004000F04FFEA07AFB
:105320000028BCD0E18828469EDF02000BD0112A5D
:10533000B5D0B9F8000015B007EB0040BDE8F04368
:10534000054900F03BBEA672E772A8E7D0730200E1
:10535000242200200C7702008476020000F18040B5
:105360000068002800D00120704708B500F1804097
:10537000002101600068009008BD000000283ED0B8
:105380001F49204A096800BF00BF00BF00BF00BF1F
:1053900000BF00BF00BF91422FD000BF00BF00BFC1
:1053A00000BF00BF00BF00BF00BF00BF00BF00BF05
:1053B00000BF00BF00BF00BF00BF00BF00BF00BFF5
:1053C00000BF00BF00BF00BF00BF00BF00BF00BFE5
:1053D00000BF00BF00BF00BF00BF00BF00BF00BFD5
:1053E00000BF00BF00BF00BF00BF00BF00BF00BFC5
:1053F00000BF00BF00BF00BF00BF0138C3D170476E
:10540000202200200024F40070B50F4C00252078E5
:1054100008B1852516E00021A16061602161E1608D
:105420004FF0E020D0F80001012610F0010F03D169
:105430000721002000F02DF801F0B4F808B9034866
:1054400006602670284670BDD02300201805004055
:1054500008B500208DF800006846FEF705FC0648F8
:10546000C168491EC160C06808B9FFF7D1FB9DF84B
:105470000000FEF71DFC08BDD023002000F01F0235
:10548000012191404009800000F1E020C0F8801126
:1054900070474907090E002806DA00F00F0202F1F2
:1054A000E02282F8141D03E000F1E02282F80014EB
:1054B00000F01F02012191404009800000F1E0202E
:1054C000C0F88012C0F800117047000B40B270475E
:1054D00010B5044601F08AF928B12046BDE8104015
:1054E000002100F059BB204601F08CF900280FD0B4
:1054F0002046FFF7FBF8074A02EB8001D1F8103590
:1055000023F00103C1F8103501218140C2F80813CE
:1055100010BD0000006000402DE9F04188460546BE
:1055200001F064F9234E002828461AD0FFF7DEF870
:10553000304490F848008009032802D001280ED09A
:1055400007E04FF0A040D0F81005E84010F0010F40
:1055500005D003212846BDE8F04100F01DBB022123
:10556000F8E701F04FF9002822D02846FFF7BEF8EF
:1055700004464FF4807000EB84000F4F81B207EBBC
:105580008400D0F8102542F00102C0F8102508462A
:1055900000F032FBB8F1000F0AD02846FFF7A6F85A
:1055A00056F82000002803D00120A040C7F80403CB
:1055B000BDE8F081E4230020006000402DE9FC41BB
:1055C000DFF8A480044608EB0400002790F93000BF
:1055D0001346C0170E46401C01D0082741E0F27860
:1055E00019462046FFF75EF80546401C38D0B078D3
:1055F00050B14FF0A04000EB8400D0F8001721F02C
:105600000201C0F8001707E00021737820460091DE
:105610000A46019100F080FAF078C0B11348317861
:1056200000EB8500D0F81025114B1A40C0F810256A
:105630004FF4F8524FF4403302EA042203EA0141E6
:105640000A43D0F810150A43C0F8102509E008EB0A
:105650000500327810F8481F41EA8211017000E01D
:1056600004273846BDE8FC81E423002000600040A8
:10567000FFE0FCFF4FF0A041D1F81015C14011F040
:10568000010000D00120704770B5144D95F854000A
:1056900008B1082070BD0020411E2A18401CC0B26D
:1056A00082F830102028F8D300242046FEF7ECFFC3
:1056B000641CE4B20C2CF8D307210620FFF7E9FEA6
:1056C0004FF4BE7000F098FA05494FF00040C1F861
:1056D0000403012085F85400002070BDE42300205D
:1056E00000600040034890F85400002800D00120DA
:1056F00070470000E42300200121B1EB507F01D16D
:1057000001207047002070472DE9F04105460079DF
:10571000164F904607EB40140E46E07E10B108206D
:10572000BDE8F081707F20772846FEF7DBFA5FEA5C
:10573000080060603169216003D0317F2846FFF79F
:105740008BF9287907EB4010007F0028286801D0EA
:10575000082100E00421C0F800150020E075207643
:10576000A0750121E176A076DAE700003C24002054
:105770002DE9F047054600793F4E904606EB401470
:105780000F46207F18B10846FFF7B6FF30B1284614
:1057900000F074F820B11120BDE8F0871020FBE77D
:1057A00084F81680A7600027A78228794FF00108A7
:1057B00006EB40143E46207F0028286825D04FF491
:1057C0009079494600F076FF4FF4AC7A514628684C
:1057D00000F070FF2868A17DA268C0F84425C0F8D9
:1057E00048152868C0F808806068F0B949462868FC
:1057F00000F05BFF80465146286800F056FF58EAEB
:105800000001F3D058BBA7750FE04FF48E7A5146D4
:1058100000F03FFF2868C0F808802146286801F0A2
:105820006BFB61684FF4807089B13046B4E7514634
:10583000286800F029FF10B9A08A4845F7D1A08A4E
:10584000484505D02146286801F056FB00E0814616
:10585000A08AA17D8842EAD3A08A484501D10F26BB
:10586000D1E75146286800F00FFF0028F9D02868DA
:10587000C0F80C80C7E700003C24002000790449F0
:1058800001EB4010807D002800D00120704700000F
:105890003C24002070B5044600791149002601EB34
:1058A000401520682A7FC0F80065686888B12079B3
:1058B00001EB4010007F0028206801D0094901E079
:1058C00008498C39C0F808132068FFF7FEFDFFF780
:1058D000D5FD204600F0A2FFEE766E6070BD0000A0
:1058E0003C240020100302000FB408B503990029DE
:1058F00004D004AA00926A4600F00FF801B05DF8E7
:1059000014FB10B582680446002A05D0D4E90403CC
:10591000216898470020A06010BD2DE9FC47914602
:105920000C00804676D014F8011B39B125290ED021
:105930004046FEF7EDFD20780028F4D198F80C00E1
:10594000002867D04046BDE8FC47FFF7DABF0020DB
:10595000012221782B291BD02D2902D0302908D1F2
:1059600002E040F0010001E040F00200641C002A67
:10597000EFD100252A290ED02178A1F130020A2A80
:1059800011D205EB850201EB4205641C303DF1E7C5
:1059900040F00400EAE7D9F800100B1DC9F8003008
:1059A0000968641C0D44217800232E290BD114F8BA
:1059B000011FA1F130020A2A05D203EB830201EB99
:1059C0004203303BF3E76C290DD068290BD06929DD
:1059D00021D00BDC252918D0582931D063290ED0CD
:1059E000642915D117E014F8011FECE7702969D07C
:1059F000732932D075291BD0782909D120E0D9F834
:105A00000000011DC9F8001001784046FEF780FD36
:105A1000641C90E76CE0D9F800100A1DC9F800205A
:105A20000968CDE900500A224046FEF7C1FFEFE7C2
:105A3000D9F800100A1DC9F8002009680A2206E0FA
:105A4000D9F800100A1DC9F8002009681022CDE914
:105A50000050404601F0A8FBDAE7D9F80010002713
:105A60000A1DC9F800200E68C00705D112E04046A3
:105A7000761C7F1CFEF74CFD31780029F7D104E03D
:105A8000202140466D1EFEF743FDBD42C0D9002DCA
:105A9000F6D1BDE74EB13046FDF792FC074604E073
:105AA000202140466D1EFEF733FDBD4206D9002D74
:105AB000F6D103E04046761CFEF72AFD3178002936
:105AC000F8D1A5E7D9F80000011DC9F80010056854
:105AD00030214046FEF71CFD78214046FEF718FDB8
:105AE00008200021CDE90001034610222946B0E735
:105AF000BDE8FC8770B541EA4201DDE904564FF08C
:105B0000A04441EA830141EA052104EB800041EA17
:105B10000641C0F8001770BD70B541EA4201DDE9E9
:105B200004564FF0A04441EA830141EA052104EB09
:105B3000800041EA0641C0F8001770BD70B541EA27
:105B40004201DDE904564FF0A04441EA830141EAF5
:105B5000052104EB800041EA0641C0F8001770BD42
:105B60001CB5002100910B4601220191FFF7E6FFD1
:105B70001CBD1CB500220B46009211460192FFF796
:105B8000DDFF1CBD1CB5002100910B4601220191D7
:105B90001146FFF7D3FF1CBD4FF0A04202EB80007F
:105BA000D0F8002722F44032C0F80027D0F80027B0
:105BB00042EA0141C0F80017704701224FF0A043AC
:105BC000824011B1C3F808257047C3F80C2570470F
:105BD00018B5084B6C4601441B68009306E000BFF3
:105BE00054F82030D3F81035401C08C28142F7D851
:105BF00018BD0000F8730200034908B508440021ED
:105C000001600068009008BD0060004002494058F3
:105C1000012800D0002070470060004030B5124BD2
:105C200001460020D3F81044224609E0157A854247
:105C300005D1401C0A28F7DB4FF0FF3030BD526819
:105C4000002AF3D1421CF9D00872D3F810242AB1EB
:105C500052684A60D3F81024516030BD0022C3F866
:105C600010144A6030BD000094260020F0B595B0B5
:105C70001C4615460F4608461A9E00F003FB1821E5
:105C800009A8FDF792FB0E96CDE9095400230822DE
:105C900003A9384600F010FB059806900498ADF86B
:105CA0001C0000208DF820000398082600F0030057
:105CB000012802D002281DD03CE003983346850A13
:105CC000C0F3C2008DF81E0003980FA9C0F3800036
:105CD0008DF81F000398C0F38314A200384600F02B
:105CE000EBFA09A8009006AB22460FA9284600F05F
:105CF00025FA1FE00398840DC0F3C2008DF81E0042
:105D00000398C0F380008DF81F00082C01D22546AF
:105D100000E0082533462A460FA9384600F0CCFAA1
:105D20002E44641B09AB06AA29460FA800F056F9B9
:105D3000002CEAD1384600F0AEFA15B0F0BD70473D
:105D4000012001F0FDB8000010B50448FFF7A2FDE6
:105D5000BDE81040002001F0F3B80000C021002091
:105D600008B5034A00924023024AFFF77FFF08BDAF
:105D7000856B0200942500200A4A012902EBC0002D
:105D800007D0022907D0032907D0042907D0002013
:105D900070470220704704207047007970474079AF
:105DA00070470000287D020010B5FFF7C9FF0421ED
:105DB0000348FFF733FF02490120487210BD00007D
:105DC000C82100202DE9F04F8DB0FEF7B1FB18B1CE
:105DD00000200DB0BDE8F08F74480021C0F8181401
:105DE000BFF34F8FD0E9014604EA060100EB8101C1
:105DF0004FF000090AE000BFC1F3891202EB915194
:105E0000641C0C4404EA060100EB8101C9688A079E
:105E1000F2D0002103AA804604EA060008EB8000C5
:105E2000641CC06842F82100491C43460229F3D390
:105E3000039800F00300022806D0012803984FD0F1
:105E4000C04380077ED0ACE003985022810D8A4683
:105E5000B2EB905F00D850210D4665F39F50039040
:105E60000831534800F0C5F907006CD000F00AFA79
:105E70004B46082203A9384600F024FA04EA06013A
:105E8000701A8000001D09F1080B854221D9474E88
:105E90000C3630B1C2B208EB8101281A91460C31A0
:105EA00004E03146EAB2002691463046C5B25B4670
:105EB000384600F007FA0BEB09032EB12A463146AB
:105EC0004FEA070000F0FEF90AF1030004EB90042A
:105ED0003BE008EB81015B462A4638460C31F1E78E
:105EE000C0F38310062800D30620039960F38911BC
:105EF000C1F38310801C039181002D4800F079F9D3
:105F000007004ED000F0BEF94B46082203A93846E0
:105F100000F0D8F909F1080900250DE004EA0600AF
:105F200008EB80014B46042238460C31641C00F01B
:105F3000C9F909F104096D1C0398C0F38310A84244
:105F4000ECD801E00BE02CE05FB3D8F81054D8F89F
:105F50001804464690B1384600F09DF921E0D3F888
:105F6000180400283FF435AF1BE0687A012804D1FB
:105F7000296828460A68394690476D68002DF4D193
:105F8000384600F088F900208DF800006846FDF7DB
:105F90006BFED6F8180400B974609DF80000FDF798
:105FA00087FEFEF7C5FA80F0010012E79426002074
:105FB0004475020000231A4600F06ABE08B50123AA
:105FC00000926A4600F064FE08BD1CB5CDE90023CE
:105FD00002236A4600F05CFE1CBD00002DE9F0477C
:105FE0000E4680461C46924608293ED894F80C90EE
:105FF000002020731946104600F06AFC0025B542C7
:1060000006D218F805201AA12046FFF76DFC03E020
:1060100019A12046FFF768FC6D1C082DEFD317A1CE
:106020002046FFF761FC0025B54210D218F8057034
:10603000FDF79EF90068C05D10F03E0F01D03A46B2
:1060400000E02E220EA12046FFF74EFC03E00DA13A
:106050002046FFF749FC6D1C082DE5D3012221469F
:10606000504600F017FC84F80C90BDE8F087000063
:106070002025303278000000202020007C00000025
:106080002563000020000000114810B5FF21816049
:10609000002101604160C0F81814C0F8141480F8A1
:1060A0001C140C4800F0F5F800280FD10A480B49E1
:1060B0000B4B401AC108002005E000BF00EB400276
:1060C00023F82200401C8842F8D3002010BD0000B5
:1060D0009426002044750200787D0200287D02008D
:1060E0002422002002480349401AC00870470000DB
:1060F000787D0200287D020013B56846FEF7B0FFE8
:1061000008B100201CBD0248009950F831001CBDA8
:10611000287D020070B508480125D0F8104480F8A9
:106120001C5405E065722168204649688847646808
:10613000002CF7D170BD0000942600202DE9FF4708
:1061400081460C9D00200C462F7B287398461646EE
:106150002946184600F0BCFB072E42D2DFE806F0C5
:1061600004090F161F2A360049462846FFF7BCFBD4
:1061700037E0494628462268FFF7B6FB31E0D4E90C
:10618000002349462846FFF7AFFB2AE0A0680090AD
:10619000D4E9002349462846FFF7A6FB21E0D4E9CD
:1061A0000201CDE90001D4E9002349462846FFF762
:1061B0009BFB16E004F1080007C88DE80700D4E94E
:1061C000002349462846FFF78FFB0AE004F1080048
:1061D0000FC88DE80F00D4E9002349462846FFF791
:1061E00083FB00222946404600F054FB2F73BDE894
:1061F000FF872DE9F041058A80462D1F4819C01CF4
:10620000B0FBF5F0C6B24046FEF799FF040019D086
:106210000020207101206071E58000272546761E50
:10622000C4F800800BE04046FEF789FF60B1617959
:10623000491C6171286005467F1CC0F80080B74288
:10624000F1D32046BDE8F081204600F002F800209E
:10625000F8E72DE9F041457901466B1E002201E087
:106260000968521C9A42FBD30F680146002605E0DC
:1062700038460C68FEF785FF2146761CAE42F7D300
:10628000BDE8F08108B501216A46001DFCF7F5FF65
:1062900008BDFEF78EBF38B50446001D01216A46D1
:1062A000FCF7F8FF009810F0FF0F04D12046BDE87E
:1062B0003840FFF7CEBF38BD38B501240094FEF753
:1062C00093FE38BD38B500240094FEF78DFE38BD2E
:1062D00020B1034909680160002070470E20704713
:1062E000D0750200FEB502460E460846FFF7F0FFE5
:1062F00000286ED1002400940194012503208DF81C
:106300000020ADF8040002948DF802506946202068
:10631000326869DF2F4F48B100F0ACF93988024686
:1063200005EB01432C491846FFF748FE00948DF811
:1063300000508DF80140019402948DF802406946A6
:106340004020326869DF40B100F094F90246388895
:10635000224905EB0040FFF731FE00940A208DF83A
:1063600000000194029469460120326869DF48B157
:1063700000F080F93988024605EB014318491846B8
:10638000FFF71CFE4FF4B060009001940294694640
:10639000A120326869DF40B100F06CF9024638880C
:1063A000104905EB0040FFF709FE009401940294A8
:1063B0008DF800406946A020326869DF40B100F0E6
:1063C00059F902463888084905EB0040FFF7F6FD09
:1063D0000020FEBD84220020187C0200607C0200A8
:1063E000787B0200C47B0200247B02002DE9F0418F
:1063F0000446D0F800E060DF2368144D064673457C
:1064000015D02888022707EB0040724610A1FFF73D
:10641000DCFDF806D0F80C012168800200F1005084
:10642000421A288816A107EB0040FFF7C7FD56B1B6
:10643000304600F01FF902462888012101EB004098
:1064400018A1FFF7BBFD3046BDE8F0818422002093
:1064500052414D20737461727473206174203078DE
:1064600025782C2063616E2062652061646A7573F3
:1064700074656420746F20307825782E0000000049
:1064800052414D2073697A652063616E20626520F8
:1064900061646A757374656420746F203078257840
:1064A0002E00000073645F626C655F656E61626CF4
:1064B0006528292072657475726E65642025732EB7
:1064C0000000000030B593B05FF03805ADF84450DF
:1064D00011A903A861DF30B1052816D013B0BDE8BB
:1064E0003040FDF725BB03AC0949684600F07EF853
:1064F00007E000BFD0E9002120469047684600F041
:106500008CF802980028E1D0F4E713B030BD000009
:10651000D475020038B5174C207808B1082038BD72
:106520000125A570002000F08FFA112820D000204E
:1065300000F0A2FA1048114900680090684610DF88
:106540000028ECD12570A07060700721162000F0A3
:1065500030FA08B1FDF7ECFA0721152000F029FA0E
:1065600008B1FDF7E5FA00F06BFB012000F084FABA
:10657000002038BD1C22002068750200B93A0200D4
:106580000EB50749684600F031F805E0D0E9001083
:106590008847684600F041F802980028F6D10EBD01
:1065A0008475020001480078704700001C2200201A
:1065B0001FB5684648DF30B1052814D004B0BDE8E7
:1065C0001040FDF7B5BA084901A800F00FF806E041
:1065D000D0E900210098904701A800F01EF8039828
:1065E0000028E6D0F4E71FBDF075020001600968DD
:1065F0004160AFF3008010B5D0E9002153689942A3
:1066000001D1002104E0D1E90034A34202D01946AF
:10661000816010BD08314160F0E7816800290BD02E
:10662000026892680A44826041684B689A4203D1CA
:1066300008314160FFF7DFBF704700000C4A10B51A
:1066400002F1F0030EE0991AC91001EBD171491063
:1066500002EBC1010C68844201D90B4602E005D26D
:1066600001F108029A42EED3002010BD486810BD27
:106670002874020000B5FFF7E1FF002800D10148AF
:1066800000BD0000147402004058002800D0012012
:10669000704708B5002242504058009008BDD0F81D
:1066A0000403084000D0012070474058002800D063
:1066B0000120704708B5002242504058009008BDA4
:1066C0000078002807D104483B21008876DF0028A5
:1066D00001D0FDF72DBA7047802100202DE9FC4143
:1066E0008E88027900EBC605AC1D2A73C97B01298F
:1066F00002D0022904D101E0008800E04088208017
:10670000218860880127DFF8648081420CD93046F7
:106710009EDF020025D0112A25D0B8F800001449C8
:1067200007EB0040FFF74AFCA079E179884216D9CF
:10673000002000900190287BADF80000287BADF888
:10674000020000226946304690DF030007D0B8F807
:106750000000324607EB00400649FFF736FCBDE873
:10676000FC816771E0E72771DEE70000242200204A
:1067700084760200547702007CB506468D88C8886E
:1067800006EBC504A41D172800D2172021888142DA
:1067900000D8084660800020207121882846ADDF9F
:1067A000020007D00E480121008801EB00400D498E
:1067B000FFF704FC6079002810D1306900280DD063
:1067C0000948D0E90210CDE90010ADF80250608808
:1067D000ADF8040032696946304690477CBD000040
:1067E00024220020C8760200D07302000449084425
:1067F00090F93000082801DB012070470020704725
:10680000E42300200449084490F93000082801D20C
:106810000120704700207047E423002070B5034634
:1068200000791B4901EB40101968027F4FF0FF30DF
:10683000002AD1F80C25D1F81465D1F80855D1F803
:10684000104504D0C1F80C05C1F8140503E0C1F8E7
:106850001405C1F80C051968C1F80805C1F8100540
:10686000501C02D01046FFF77BF9701C02D0304656
:10687000FFF776F9601C02D02046FFF771F9681C1B
:1068800004D02846BDE87040FFF76AB970BD00002B
:106890003C24002010B50C46C17949B11AB109A1B8
:1068A0002046FFF721F82046BDE81040FFF729B841
:1068B000007A0028F3D0044804A102682046FFF7BC
:1068C00013F8ECE70D0A0000F82100202573000002
:1068D00070B50446C0790D4600281CD1207A50B10D
:1068E000A179A088FFF748FA0B4951F820200BA1A5
:1068F0002846FEF7F9FFA0880021FFF7FDFB0346BD
:106900000549A079143951F820202846BDE8704087
:1069100003A1FEF7E9BF70BDF82100202573000038
:106920003C25733E2025733A2000000070B50126F7
:1069300070044FF0E0210025C1F88001084C4010A0
:10694000C4F84803C4F8080366602F20FEF716FD5C
:10695000A660044C2F20A560FEF710FDA57070BD49
:1069600000100140A821002070B50546C87D0C46E6
:1069700000284FF4847128460AD0FFF78AFED5F824
:106980001805627EE1688854607E401C607670BDA8
:10699000FFF77FFED5F8180570BD1FB501238DF8F0
:1069A00000308DF808100192D0E900126846904737
:1069B0001FBD70B50D460446FCF7E6FF70B12846D2
:1069C000FCF7F4FF68B16807000E002C0CDA04F045
:1069D0000F0101F1E02181F8140D09E042F20100FC
:1069E00070BD42F2020070BD04F1E02484F800049E
:1069F000002070BD38B50021012558B101280ED006
:106A000003280BD107210020FEF743FDBDE83840E5
:106A1000FEF71EBD4FF0E020C0F8805138BD8DF864
:106A200000106846FDF720F9064C207808B9FEF7FB
:106A3000EBFCE068401CE060A5709DF80000FDF7ED
:106A400037F938BDD02300203EB5044609496846D1
:106A5000FFF7CCFD08E000BFD0E9002120469047B9
:106A600030B16846FFF7D9FD02980028F4D13EBD49
:106A700011203EBD6C7502003EB5044608496846CB
:106A8000FFF7B4FD07E000BFD0E9002120469047A2
:106A90006846FFF7C2FD02980028F5D13EBD000010
:106AA0007875020070B50028049D18D0002916D012
:106AB000002A14D05FF0000430F814609E420FD119
:106AC00000200123A34008E001EB800426680DB1FB
:106AD0001E4300E09E43401C26609042F4D370BDEC
:106AE000641C202CE8D370BD70B5054600242146F7
:106AF000284600F00AF808B1204670BD641CA4B214
:106B0000202CF4D34FF6FF7070BD01228A40024260
:106B100001D001207047002070472DE9F04192B06C
:106B200080464FF0000017460D00009012D0002460
:106B30006E46A1B23846FFF7E8FF40B1009935F83C
:106B4000140006EB410188800098401C0090641CF2
:106B5000202CEED3442269464046FCF70DFC12B0CF
:106B6000BDE8F08108B5009313460122FFF79AFFB4
:106B700008BD000002498969002900D00847704714
:106B8000FC22002010B5084C0020D2B22070201D3D
:106B9000FEF7EEFD08B1FCF7CBFF6078002802D0CD
:106BA00021780029FAD010BDBC2100202DE9F04148
:106BB0000746806A14468846C8B3002531E000BF06
:106BC000B96A05EB450001EB8006B088801CFE2801
:106BD00002D90C20BDE8F0812288401C08F8020090
:106BE00020881622401C80B2208008F800202088CF
:106BF000401C80B2208000EB0801308800F0CFFA02
:106C00002188084480B22080B28842B1B16871B155
:106C10004044FCF7B1FB2088B188084420806D1CFB
:106C2000EDB297F82C00A842CAD80020D2E7FFE7BF
:106C30000720CFE7002801D1FDF760BD70470000B5
:106C400010B51620FCF7A0FE80B10F4890F80004A4
:106C50004009FCF7ABFE60B10C4882684FF480013C
:106C60006AB1016841F48001016010BD42F2010087
:106C700001E042F20200BDE81040FCF759BF4FF0BE
:106C8000E020C0F8001110BD16E000E088250020CB
:106C90002DE9F843214C8846054691461F46694632
:106CA0001846A668FDF702FC70B30098811C00220C
:106CB0000AE000BF01EA060C59F8223004EB8C0C04
:106CC000491C521CCCF80C30BA42F3D30246401C8B
:106CD000304004EB80002B0CC36002EA060004EB9A
:106CE0008002E80652F80C0F02D540F0040001E0E3
:106CF00020F0040065F3C50067F3891068F39F2056
:106D000020F00300401C106094F81C0402E000BF57
:106D1000FFF758F80028FBD1BDE8F883942600203F
:106D20002DE9F84F1D4C00256846D4E901A6FDF772
:106D3000E9FD002738B30023009A61681CE0D1F810
:106D400000C00846944503D9ACEB02020A6015E086
:106D5000A2EB0C0263440760D0F80CC0C169814605
:106D6000BCF1000F08D006EB030828F07F48C0E90B
:106D7000018CC9F81C5005460029E0D12846616005
:106D8000FDF764FF03E02846FDF760FF10B15046B1
:106D9000FDF7C8FCE770BDE8F88F0000A8210020CF
:106DA0000D4B10B5596831B102680C68A24204D885
:106DB000A21A0A60C161586010BD0B4603E00B4681
:106DC000C969121B21B10C689442F8D3A41A0C6053
:106DD0000260C161D86110BDA82100202DE9F041F9
:106DE000144E77683D462C4603E0844204D0254685
:106DF000E469002CF9D11BE0D4B1A5420BD1F869AC
:106E0000706040B90C49012088600021B160F070C9
:106E10002F20FEF7B3FA2168E069E86110B102683B
:106E2000114401607068874202D00120BDE8F08102
:106E30000020FBE7A8210020001001407CB5064699
:106E400000240D468DF800406846FCF70DFF01A8B0
:106E500000F038FA70B10570094946609DF80400E9
:106E600048709DF80000FCF723FF1420FCF792FB0C
:106E700020467CBD04249DF80000FCF719FFF7E7CD
:106E80007C2400202DE9F041194D6C68002C2CD099
:106E9000184800270068A968B846401A20F07F46C5
:106EA0002068B0420CD82146361A0744E469087CB1
:106EB00020B181F81080886949698847002CEFD19A
:106EC00029786878814206D1401CC0B268700228D7
:106ED00001D185F80180064869780C3040F82170AE
:106EE000BDE8F0411420FCF755BBBDE8F08100007F
:106EF000A82100200415014070B50C4605464FF44A
:106F00008E71FFF7C6FBA18AA068415CA08A401C75
:106F1000A082C5F81C1570BD1FB500228DF8002099
:106F20008DF80810816801918275D0E900126846D9
:106F300090471FBD0149012008707047BC21002007
:106F400010B588B0044620220E496846FCF714FAB2
:106F500006200090C01F0190029003904FF0EB704C
:106F600006900CB1084A00E0002269460748FEF787
:106F7000CBFB08B1FCF7DCFD0448001F447008B0EF
:106F800010BD000024750200356F0200C0210020F2
:106F90002DE9FF470C4605464FF40071FFF77FFBD4
:106FA00001274FF40178002618B34FF4927949462F
:106FB0002846FFF769FBE0B149462846FFF769FB21
:106FC000C5F80883A07E00B96F6002208DF800002C
:106FD000D5F88004C5F880040390E07D8DF80800A2
:106FE000E0680190E6752676D4E90012684690477D
:106FF00027E004212846FFF752FB10B34FF48471B9
:107000002846FFF741FBE0B121462846FFF7ACFCDC
:10701000E07D617E884214D1207E38B1617EE268D5
:10702000E0752069E0602676667607E0A07E00B90C
:107030006F60C5F80883E675617EE2682046FFF759
:10704000ACFC4FF48E7841462846FFF71DFB88B113
:10705000A08AA17D884204D221462846FFF74CFF32
:1070600008E041462846FFF714FBA17D11B12046F8
:10707000FFF752FF4FF4A27841462846FFF704FB82
:10708000002812D041462846FFF703FBA07E00B13E
:107090002F60E07D002808D0E675617EE26804B0CC
:1070A0002046BDE8F047FFF778BCBDE8FF872DE933
:1070B000FF410C464FF4927705463946FFF7F5FA43
:1070C0000026C0B139462846FFF7F4FA02208DF8B1
:1070D0000000D5F88004C5F880040390D5F83C057D
:1070E0008DF80800E0680190E6752676D4E9001274
:1070F0006846904724E04FF4887739462846FFF7E2
:10710000D4FAE8B139462846FFF7D4FAD5F83C0559
:10711000C1B2E07D884213D1207E60B1E268D5F82B
:10712000000220F02000C5F80002207EE0752069F2
:10713000E060267601E0E675E2682046FFF72DFC68
:107140004FF4A27739462846FFF7AFFA68B13946BF
:107150002846FFF7AFFAE07D38B1E675D5F83C0573
:10716000E268C1B22046FFF718FC4FF49076314632
:107170002846FFF79AFA00280FD031462846FFF735
:1071800099FAA07D002808D0D5F84C0504B0C1B20A
:107190002046BDE8F041FFF7BFBEBDE8FF810870A3
:1071A000000A4870022070472DE9F05F8346DDE950
:1071B0000A4A994690460D460846012703E000BF5B
:1071C000B0FBF8F07F1C4045FAD2B94500D94F46D4
:1071D0005FEACA7012D18CB15FEA8A7002D5B9F148
:1071E000000F01D0202607E0302605E03146584642
:1071F000641EFDF78DF90CB1A742F7D35FF00106CD
:10720000B9F1010F02D9A9F1010903E0B5FBF6F0CC
:10721000404502D306FB08F6F2E7DFF83C9000BFDA
:10722000B5FBF6F000FB165519F800105846FDF7AF
:107230006FF9B6FBF8F6002EF2D15FEACA7009D0FA
:10724000002C07D0A74205D220215846641EFDF726
:107250005FF9F5E7BDE8F09F04740200F8B5054654
:1072600080B2FDF79BFB040013D0154E207A002757
:10727000317B88420ED2A8B204F10A0175DF28B131
:10728000112806D0BDE8F840FFF774BC207A401CF6
:107290002072F8BD2772307C38B1A8B23B2176DF6E
:1072A00018B1082801D0FFF765FC71690029F0D0FA
:1072B0008DF80070ADF8025068468847F8BD0000B0
:1072C000FC2200200A494A788B78521CD2B29342A1
:1072D00000D100220B78934201D100207047027048
:1072E000487800EB400001EBC000001D7047000033
:1072F0007C2400202DE9FC411646DDE90854CDE947
:1073000000541F468046022200F00CF8002807D1E6
:10731000CDE900543B4610223146404600F002F8C9
:10732000BDE8FC812DE9FC5F0026DDE90C4B9946A8
:1073300092468E4680462788354630E0D8F80400CD
:10734000002200EB850069460068019001A864DF17
:10735000002830D19DF8000050451FD10EB100210A
:1073600000E00221228808441118594522D846B964
:10737000521C90B2208009F800E02088401C208038
:107380000126218801A801EB0902694664DF002873
:1073900011D120889DF80010084420806D1CB8F899
:1073A0000000A842CADC56B12088C01B401E80B233
:1073B000FF2802D90C20BDE8FC9F09F80700002037
:1073C000F9E7000023150000111213140D0E0F1021
:1073D000770A000000000000770A000000000000AB
:1073E0007ADA00000000000023D1BCEA5F782315A0
:1073F000DEEF121200000000000000505C240020AC
:1074000003000000303132333435363738394142E9
:1074100043444546556E6B6E6F776E206572726F92
:107420007220636F64650000000000008C7A020027
:10743000010000004C79020002000000CC7702003D
:1074400003000000C079020004000000147A02006A
:10745000050000000C79020006000000AC78020074
:1074600007000000FC7902000800000020790200FB
:10747000090000006C7902000A000000747A020022
:107480000B000000B47702000C0000003879020005
:107490000D000000987A02000E000000EC79020056
:1074A0000F000000287A0200100000005C7A020041
:1074B00011000000AC7A020080000000EC780200AD
:1074C0008100000070780200820000003078020025
:1074D0008300000010780200840000004C78020055
:1074E00085000000C478020086000000D479020004
:1074F000900000008C78020091000000F0770200FC
:10750000008200003C7A02000182000088790200BB
:1075100002820000A4790200615D0200495D020060
:107520003F5D0200FFFFFFFFFFFFFFFFFFFFFFFFC9
:10753000FFFFFFFF00000000000000000000D60178
:1075400007010000DC210020D4210020DC210020E4
:10755000D4250020180000000000000000000000FA
:107560000000000000000000010000075875020044
:10757000687502000800000090750200A075020006
:1075800008000000A0750200B075020008000000AD
:10759000B87D0200C07D0200000000000000000075
:1075A000A87D0200B87D020000000000000000007D
:1075B000787D0200807D0200807D0200907D0200C7
:1075C000907D0200987D0200987D0200A07D02005F
:1075D00080210020B0750200D07502000800000074
:1075E000A07D0200A87D0200000000000000000055
:1075F000E0750200F0750200080000000040404005
:107600004040404040404141414141404040404075
:107610004040404040404040404040404005020221
:1076200002020202020202020202020202202020E0
:10763000202020202020200202020202020290903C
:10764000909090901010101010101010101010103A
:10765000101010101010101002020202020288888E
:10766000888888880808080808080808080808089A
:107670000808080808080808020202024000000082
:10768000FD75020073645F626C655F6761747463AB
:107690005F65786368616E67655F6D74755F72655D
:1076A000717565737428292072657475726E6564CE
:1076B00020756E65787065637465642076616C759D
:1076C0006520307825782E0073645F626C655F6793
:1076D000617474735F65786368616E67655F6D740C
:1076E000755F7265706C7928292072657475726E89
:1076F000656420756E657870656374656420766175
:107700006C756520307825782E00000073645F6208
:107710006C655F6761705F646174615F6C656E6703
:1077200074685F75706461746528292028726570BB
:107730006C79292072657475726E656420756E654A
:10774000787065637465642076616C756520307847
:1077500025782E0073645F626C655F6761705F649B
:107760006174615F6C656E6774685F757064617485
:1077700065282920287265717565737429206F6EDC
:1077800020636F6E6E656374696F6E203078257844
:107790002072657475726E656420756E65787065AB
:1077A000637465642076616C756520307825782E69
:1077B000000000004E52465F4552524F525F494E04
:1077C00056414C49445F4441544100004E52465F8B
:1077D0004552524F525F534F4654444556494345D4
:1077E0005F4E4F545F454E41424C454400000000FF
:1077F0004E52465F4552524F525F46454154555294
:10780000455F4E4F545F454E41424C454400000099
:107810004E52465F4552524F525F4D555445585F48
:10782000554E4C4F434B5F4641494C454400000088
:107830004E52465F4552524F525F4D555445585F28
:107840004C4F434B5F4641494C4544004E52465FC6
:107850004552524F525F4D555445585F434F4E4429
:107860005F494E49545F4641494C45440000000081
:107870004E52465F4552524F525F4D555445585FE8
:10788000494E49545F4641494C4544004E52465F7B
:107890004552524F525F4150495F4E4F545F494DE0
:1078A000504C454D454E5445440000004E52465FF5
:1078B0004552524F525F4E4F545F535550504F52A6
:1078C000544544004E52465F4552524F525F4D4F11
:1078D00044554C455F414C52454144595F494E49DE
:1078E0005449414C495A4544000000004E52465FFD
:1078F0004552524F525F4D4F44554C455F4E4F5489
:107900005F494E495449414C5A4544004E52465FE6
:107910004552524F525F4E4F545F464F554E4400B2
:107920004E52465F4552524F525F494E56414C4966
:10793000445F5354415445004E52465F4552524FA6
:10794000525F444154415F53495A45004E52465F8D
:107950004552524F525F5356435F48414E444C4547
:10796000525F4D495353494E470000004E52465F07
:107970004552524F525F494E56414C49445F4C4527
:107980004E475448000000004E52465F4552524F49
:10799000525F4452565F5457495F4552525F414EC1
:1079A00041434B004E52465F4552524F525F445244
:1079B000565F5457495F4552525F444E41434B0016
:1079C0004E52465F4552524F525F494E5445524EB9
:1079D000414C00004E52465F4552524F525F535445
:1079E0004F524147455F46554C4C00004E52465F52
:1079F0004552524F525F4E554C4C00004E52465F1E
:107A00004552524F525F494E56414C49445F504196
:107A100052414D004E52465F4552524F525F4E4FBB
:107A20005F4D454D000000004E52465F4552524F9B
:107A3000525F464F5242494444454E004E52465FC3
:107A40004552524F525F4452565F5457495F455218
:107A5000525F4F56455252554E0000004E52465FFF
:107A60004552524F525F494E56414C49445F414442
:107A7000445200004E52465F4552524F525F494EAB
:107A800056414C49445F464C414753004E52465F75
:107A900053554343455353004E52465F4552524F50
:107AA000525F54494D454F55540000004E52465FB9
:107AB0004552524F525F4255535900007761726EE2
:107AC000696E670064656275670000001B5B313B8F
:107AD00033306D001B5B306D000000001B5B313BE1
:107AE00033316D001B5B313B33326D001B5B313B2F
:107AF00033336D001B5B313B33346D001B5B313B1B
:107B000033356D001B5B313B33366D001B5B313B06
:107B100033376D00696E666F000000006572726F2A
:107B20007200000073645F626C655F6366675F7319
:107B3000657428292072657475726E6564202573DA
:107B4000207768656E20617474656D7074696E6706
:107B500020746F2073657420424C455F4741545434
:107B6000535F4346475F534552564943455F434839
:107B7000414E4745442E000073645F626C655F634D
:107B800066675F73657428292072657475726E6507
:107B900064202573207768656E20617474656D704C
:107BA00074696E6720746F2073657420424C455F62
:107BB000434F4D4D4F4E5F4346475F56535F5555BC
:107BC00049442E0073645F626C655F6366675F7330
:107BD000657428292072657475726E65642025733A
:107BE000207768656E20617474656D7074696E6766
:107BF00020746F2073657420424C455F4741545494
:107C0000535F4346475F415454525F5441425F5370
:107C1000495A452E0000000073645F626C655F6323
:107C200066675F73657428292072657475726E6566
:107C300064202573207768656E20617474656D70AB
:107C400074696E6720746F2073657420424C455FC1
:107C5000434F4E4E5F4346475F4741502E00000062
:107C600073645F626C655F6366675F736574282920
:107C70002072657475726E6564202573207768655F
:107C80006E20617474656D7074696E6720746F2006
:107C900073657420424C455F4741505F4346475FE0
:107CA000524F4C455F434F554E542E00626C655FFA
:107CB0006761747400000000636C6F636B00000008
:107CC0006770696F74650000756172740000000070
:107CD00062616C6C6F6300007077725F6D676D74CA
:107CE00000000000617070006E72665F736468006F
:107CF0006E72665F7364685F626C65006E72665F69
:107D00007364685F736F6300C07D02008021002090
:107D10001C01000068390200DC7E02009C22002069
:107D20001C28000078390200AC7C0200000003002F
:107D3000B87C020000000000C07C020000000000CF
:107D4000C87C020000000000D07C0200000000009F
:107D5000D87C020000000000E47C02000000030068
:107D6000E87C020000000300F07C02000000030039
:107D7000FC7C0200000003008542020000000000BD
:107D800015520200B42200208941020000000000C8
:107D9000E94302009C220020514002000000000044
:107DA000356C020000000000C56402000000000005
:107DB000B165020000000000F5690200000000004B
:107DC000FFFF00000D000300194602000000000044
:107DD00000000000000000000000000000000000A3
:107DE0000000000000000000000000000000000093
:107DF0000000000000000000000000000000000083
:107E00000020004000000000187502000000000083
:107E10000000000000000000000000000000000062
:107E200000000000000000001C7B0200BC7A020081
:107E3000147B0200C47A0200D47A0200CC7A0200D9
:107E4000DC7A0200E47A0200EC7A0200F47A0200A2
:107E5000FC7A0200047B02000C7B020000000000A0
:107E60000090D003000000000000000000000000AF
:107E70000000000000000000000000000000000002
:107E800000000000000000000000000000000000F2
:107E900000000000000000000000000000000000E2
:107EA00000000000000000000000000000000000D2
:107EB00000000000000000000000000000000000C2
:107EC00000000000000000000000000000000000B2
:0C7ED000000000000000000000000000A6
:0400000500023201C2
:00000001FF
