:020000040002F8
:10300000884F0020E9350200F1350200F335020057
:10301000F5350200F7350200F93502000000000026
:10302000000000000000000000000000FB3502006E
:10303000FD35020000000000FF35020001360200ED
:1030400003360200033602009D3C020003360200F4
:103050000336020003360200033602000336020084
:103060000336020003360200033602000336020074
:103070000336020003360200033602000336020064
:1030800003360200753902000336020003360200DF
:1030900099390200033602009D390200033602000E
:1030A0000336020003360200033602000336020034
:1030B000033602000336020000000000000000009A
:1030C0000336020003360200033602000336020014
:1030D000033602000336020003360200000000003F
:1030E00000000000000000000000000000000000E0
:1030F00000000000000000000000000000000000D0
:1031000000000000000000000000000000000000BF
:1031100000000000000000000000000000000000AF
:10312000000000000000000000000000000000009F
:10313000000000000000000000000000000000008F
:10314000000000000000000000000000000000007F
:10315000000000000000000000000000000000006F
:10316000000000000000000000000000000000005F
:10317000000000000000000000000000000000004F
:10318000000000000000000000000000000000003F
:10319000000000000000000000000000000000002F
:1031A000000000000000000000000000000000001F
:1031B000000000000000000000000000000000000F
:1031C00000000000000000000000000000000000FF
:1031D00000000000000000000000000000000000EF
:1031E00000000000000000000000000000000000DF
:1031F00000000000000000000000000000000000CF
:10320000DFF80CD000F03AFB00480047A16802004C
:10321000884F002030B4044654E8000F0D4644E8BF
:103220000053002BF8D1156030BC704730B4044611
:1032300054E8000F40EA010544E80053002BF7D1A1
:10324000156030BC704730B4044654E8000F00EA03
:10325000010544E80053002BF7D1156030BC7047DE
:1032600030B4044654E8000F80EA010544E80053F6
:10327000002BF7D1156030BC704730B4044654E8D9
:10328000000F00EB010544E80053002BF7D1156057
:1032900030BC704730B4044654E8000FA0EB010581
:1032A00044E80053002BF7D1156030BC7047000094
:1032B00030B450E8012F93B2C48923448489A342D7
:1032C00028BF1B1B0489A34202BFBFF32F8F00201E
:1032D00007E0C3EA020340E80134002CE9D14FF0D3
:1032E00001000A6030BC704750E8012FC2EA024278
:1032F00040E801210029F7D1704730B450E8022F8F
:103300001FFAA2F3C488A34202BFBFF32F8F00208D
:103310000DE0C48923448489A34228BF1B1BC2EA51
:10332000034340E80234002CE8D14FF001000A606A
:1033300030BC704750E8022FC2EA224240E8022126
:103340000029F7D17047034653E8022FD988B2EB22
:10335000324F4FF0000017BF92B241EA014142EAFA
:10336000014104E05A68B2EB324F08BF012043E844
:103370000212002AE8D1704730B4044654E8000F26
:103380000D4644E80053002BF8D1156030BC70475F
:1033900030B4044654E8000F40EA010544E8005305
:1033A000002BF7D1156030BC704730B4044654E8A8
:1033B000000F00EA010544E80053002BF7D1156027
:1033C00030BC704730B4044654E8000F80EA010571
:1033D00044E80053002BF7D1156030BC704730B47F
:1033E000044654E8000F00EB010544E80053002BAD
:1033F000F7D1156030BC704730B4044654E8000F74
:10340000A0EB010544E80053002BF7D1156030BC58
:103410007047000030B4044654E8000F0D4644E8FD
:103420000053002BF8D1156030BC704730B404460F
:1034300054E8000F40EA010544E80053002BF7D19F
:10344000156030BC704730B4044654E8000F00EA01
:10345000010544E80053002BF7D1156030BC7047DC
:1034600030B4044654E8000F80EA010544E80053F4
:10347000002BF7D1156030BC704730B4044654E8D7
:10348000000F00EB010544E80053002BF7D1156055
:1034900030BC704730B4044654E8000FA0EB01057F
:1034A00044E80053002BF7D1156030BC7047000092
:1034B00030B4044654E8000F0D4644E80053002B96
:1034C000F8D1156030BC704730B4044654E8000FA2
:1034D00040EA010544E80053002BF7D1156030BCE9
:1034E000704730B4044654E8000F00EA010544E890
:1034F0000053002BF7D1156030BC704730B4044640
:1035000054E8000F80EA010544E80053002BF7D18E
:10351000156030BC704730B4044654E8000F00EB2F
:10352000010544E80053002BF7D1156030BC70470B
:1035300030B4044654E8000FA0EB010544E8005302
:10354000002BF7D1156030BC7047000030B4044642
:1035500054E8000F0D4644E80053002BF8D11560E5
:1035600030BC704730B4044654E8000F40EA01050F
:1035700044E80053002BF7D1156030BC704730B4DD
:10358000044654E8000F00EA010544E80053002B0C
:10359000F7D1156030BC704730B4044654E8000FD2
:1035A00080EA010544E80053002BF7D1156030BCD8
:1035B000704730B4044654E8000F00EB010544E8BE
:1035C0000053002BF7D1156030BC704730B404466F
:1035D00054E8000FA0EB010544E80053002BF7D19D
:1035E000156030BC70470000064880470648004719
:1035F000FEE7FEE7FEE7FEE7FEE7FEE7FEE7FEE7A3
:10360000FEE7FEE7A13902000132020000487047E0
:10361000D0B302002DE9FE43994615468846074679
:1036200001AC022942D3002D40D000200290A8F125
:1036300001004FF0FF36009022E000FB057201FB15
:10364000057011464A469047002805DC54F82600CC
:10365000304444F8260013E060682A4600FB0571F8
:1036600054F8040C00FB057007E00B7890F800C0DC
:1036700001F801CB00F8013B521E002AF5D1764239
:1036800054F8040C61688842D7DC4B462A46384619
:10369000FFF7C0FF54F8040C4B46A8EB0001401C98
:1036A00000FB05702A46491EFFF7B4FFBDE8FE8304
:1036B00010B5431A934209D28318881803E010F812
:1036C000011D03F8011D521EF9D210BD40EA01038D
:1036D0009B0703D009E008C9121F08C0042AFAD2C8
:1036E00003E011F8013B00F8013B521EF9D210BD76
:1036F000D2B201E000F8012B491EFBD27047002234
:10370000F6E710B513460A4604461946FFF7F0FFE0
:10371000204610BD421C10F8011B0029FBD1801A65
:10372000704710B5002200E0521C835C8C5CA34201
:1037300001D1002BF8D1D8B2E1B2401A10BD034636
:1037400011F8012B00F8012B002AF9D11846704717
:1037500030B505460020034600E05B1C934205D2CD
:10376000EC5CC85C201A01D1002CF6D130BD2DE9EB
:10377000F04791460F4680460446002614F8015B48
:103780002DB1FFF743FF0068405DC007F6D12B2D38
:1037900002D02D2D18D0641E4A463946204600F02E
:1037A0001EF827B13968A14201D1C7F80080710520
:1037B0004FF002040BD54042002803DD00F07CFAF4
:1037C0000460A007BDE8F08746F48066E4E70028BF
:1037D000F8DA00F071FA04606FF00040F2E72DE9CA
:1037E000F05F82460078002715468B460AF10104F7
:1037F000B946302801D09DB113E014F8010B012720
:10380000782803D0582801D045B10AE00DB1102D19
:1038100007D10027102514F8010B02E0082500E06D
:103820000A250026B0460EE005FB080005FB06F160
:10383000012701EB10461FFA80F8B6F5803F00D350
:10384000B94614F8010B294600F02AF80028EBDAF3
:10385000BBF1000F05D00FB1641E00E05446CBF859
:103860000040B9F1000F06D000F026FA02210160F5
:10387000C81EBDE8F09F48EA0640FAE7064C074D2F
:1038800006E0E06840F0010394E807009847103430
:10389000AC42F6D3FFF7B8FC3CC202005CC20200A7
:1038A0003A2800D2303820F02002412A01D3A2F178
:1038B0003700884201D34FF0FF30704770B58C1845
:1038C00010F8015B15F0070301D110F8013B2A1134
:1038D00006D110F8012B03E010F8016B01F8016B21
:1038E0005B1EF9D12B0705D40023521E0DD401F81D
:1038F000013BFAE710F8013BCB1A921C03E013F8E6
:10390000015B01F8015B521EF9D5A142D8D300201A
:1039100070BD00F01F02012191404009800000F1BC
:10392000E020C0F88012704700F01F020121914092
:103930004009800000F1E020C0F80011704700F05D
:103940001F02012191404009800000F1E020C0F8F1
:10395000001270474907090E002806DA00F00F0030
:1039600000F1E02080F8141D704700F1E02080F89D
:103970000014704707480021C0F84011C0F84411F6
:10398000C0F84811C0F84C11C0F80011C0F804117B
:1039900006F08CBD0010014006F0D6BC05F0D2BB8D
:1039A000F0B5AE480023021D01780125101D4FF02F
:1039B000805406290BD11678360708D10678C6F34D
:1039C0000316032E06D0042E04D0052E02D006299D
:1039D00007D00EE0B4F82463A14FC6F304263E607E
:1039E00002E01678360704D10678C6F30316032ED4
:1039F00002D0062904D00FE09B4F9A4E7E670EE05E
:103A00001678360708D10678C6F30316032E06D0BB
:103A1000042E04D0052E02D0062907D00EE0D4F8DB
:103A20004462924FC6F342363E6002E01678360793
:103A300004D10678C6F30316032E02D0062906D059
:103A400011E08B4E376827F0807737600EE01678EC
:103A5000360708D10678C6F30316032E06D0042EC7
:103A600004D0052E02D006290AD011E04FF080467E
:103A7000C6F80C31C6F810317C4E361F336002E0B8
:103A80001678360704D10678C6F30316032E02D043
:103A9000062905D00CE0754F032664373E600AE026
:103AA0001678360704D10678C6F30316032E02D023
:103AB00006290DD014E06F4F05263E606D4E783616
:103AC00035606C4E083633603F263F1D3E6002E095
:103AD0001678360704D10678C6F30316052E02D0F1
:103AE000062957D062E0644E3668644F3E60624EED
:103AF000361D36683F1D3E605F4E083636683F1DF6
:103B00003E605D4E0C3636683F1D3E605A4E1036A4
:103B100036683F1D3E60584E143636683F1D3E6085
:103B2000554E18363668554F20373E60524E1C367B
:103B300036683F1D3E60504E203636683F1D3E6061
:103B40004D4E243636683F1D3E604B4E2836366853
:103B50003F1D3E60484E2C3636683F1D3E60464E47
:103B600030363668454F40373E60434E343636680F
:103B70003F1D3E60404E383636683F1D3E603E4E2B
:103B80003C3636683F1D3E603B4E403636683F1D32
:103B90003E6002E01678360708D10678C6F30316B1
:103BA000032E06D0042E04D0052E02D0062907D0FD
:103BB00019E0D4F85812324A01F04F01116002E0C6
:103BC000117809070FD10078C0F30310032803D040
:103BD000042801D0052806D12A480168C90702D067
:103BE0006FF00101016022487438016841F47001EE
:103BF0000160BFF34F8FBFF36F8F4FF01021D1F8EB
:103C00000002002803DBD1F80402002822DA1E4A51
:103C100015601E480468002CFCD01524C1F8004231
:103C20000568002DFCD0C1F8044201680029FCD0D1
:103C3000136001680029FCD0BFF34F8F0C48F038A7
:103C40000168134A01F4E06111430160BFF34F8F33
:103C500000BFFDE710490F480860F0BDE00F00F01D
:103C6000403501400DF0ADBA00C007403C050040B2
:103C7000FCED00E0105600400404001020C5004098
:103C8000E40E00400004004004E5014000E401406F
:103C90000400FA050090D003582200200448017F58
:103CA00004480029024901D006F01EBD06F08DBC73
:103CB000D027002000200040004870475C220020F0
:103CC00002E008C8121F08C1002AFAD170477047E5
:103CD000002001E001C1121F002AFBD17047000043
:103CE0000121202803DA81400548014003E04028F3
:103CF00002DA2038814009B1012070470020704766
:103D0000FC06FFBD082806D228B1012803D00428EC
:103D100001D00120704700207047800701D00020AB
:103D2000704701207047C3688B4206D81144006970
:103D3000491E814201D801207047002070470000D1
:103D400004F0B4FD04F094FB0028FBD1134C606830
:103D500030B12088012101EB004011A104F094FC56
:103D600012480068C00700D000BE6068022806D371
:103D70002088022101EB00400DA104F085FCBFF377
:103D80004F8F0A48E43801680D4A01F4E06111439D
:103D90000160BFF34F8F00BFFDE70000DC22002071
:103DA000466174616C206572726F7200F0ED00E024
:103DB00053797374656D207265736574000000003B
:103DC0000400FA050EB500210091CDE901106A4604
:103DD00044F20100FFF7B4FF0EBD0000074B9B78D3
:103DE00023B12AB120B10068037C1BB108207047C1
:103DF000072070474174426100207047F02700207F
:103E000070B506F0D7F8104800240B2104704470F8
:103E10000E4D817014206C602C706C70FFF779FD72
:103E200007211420FFF796FD1420FFF77DFD0848B9
:103E3000046007211120FFF78DFD0548001F006871
:103E4000A860002070BD0000F02700209421002011
:103E5000081501402DE9FC47DFF8789099F8023009
:103E600073B368B3052902D20720BDE8FC87436914
:103E700033B3437C012B25D0002704460025884618
:103E800016468DF80050684600F038F801A806F094
:103E900075FDC8B1012101700F4944600968C0E98E
:103EA0000218C0E904769DF8040089F801009DF825
:103EB000000000F047F81420FFF741FD2846D4E742
:103EC0000820D2E70F46D8E704259DF8000000F04F
:103ED00039F8F3E7F02700200415014006498978F6
:103EE00039B130B1416921B100210174022106F0DC
:103EF000B9BA082070470000F027002030B5EFF372
:103F0000108172B60D4A9468012324B10370002910
:103F100000D162B630BD93604FF0E023D3F88051FA
:103F2000074C25401560C3F88041D3F884415460A4
:103F30005A17C3F8842100220270E8E7FC28002009
:103F4000FC06FFBD0B498A68002A11D000280FD15A
:103F5000EFF3108072B60B684FF0E022C2F8003128
:103F60004B68C2F8043100228A60002800D162B692
:103F700070470000FC2800202DE9F0410646086843
:103F80000C46411C4FF0A0474FF0010506D005FA42
:103F900000F1C7F80815206804F0CFF96068411CEB
:103FA00002D0002104F0C0F93079204901EB401023
:103FB000A169007F00283068C0F8241525D0607DF5
:103FC000227D31681043C1F86C05D4E900123068D5
:103FD000C0F80C15C0F8142524E0A068411C02D0DC
:103FE000002104F0A1F9E068411C05D08540C7F824
:103FF0000855E06804F0A1F9D4E902123068C0F86D
:104000000825C0F81015BDE8F081607D217D32687B
:104010000843C2F86C05D4E900123068C0F81425D2
:10402000C0F80C15207D0128D7D0ECE7D027002060
:10403000F8B5871C00208DF800000E460125684663
:10404000FFF75CFF124C20683060D4E90001401A91
:10405000A168091ABE1C06E002F044FBD4E9000185
:10406000401AA168091A491C8E42F5D8A168206837
:10407000084004EB8000C16841F00301C160206882
:10408000384420609DF80000FFF75CFF2846F8BD2B
:10409000682B002030B482680468531C8360A154EC
:1040A000D0E901128A4202D330BC03F058BF30BCC1
:1040B00070470000034803C8814201D101207047C6
:1040C00000207047682B002070B5816804468A7C08
:1040D000002A4DD0C87C00284AD0121A0844D5B214
:1040E00000F114016A1C1330FFF7E2FAA068C17CEA
:1040F000491EC174A068817C491E81748DB3082259
:104100001C49206903F01EFF204602F0FFFE817863
:10411000C078814211D1A06817A2C17C4318082140
:104120002046143303F014FA204600F013F9294610
:104130002046BDE8704001F053B8204600F01EF95B
:10414000204600F007F9A0680BA2C17C43180821A3
:104150002046143303F0FCF92046BDE8704000F01F
:1041600003B92069BDE87040044A03A103F0EABE28
:1041700070BD0000504302002573000024AF020010
:1041800070B504468068827CC17C521A12F0FF052B
:104190003AD0084400F115012A461430FFF788FA96
:1041A000A068817C491E8174204602F0AFFE8178B0
:1041B000C078814214D1A06814A2C17C43180821A0
:1041C0002046143303F0C4F9114A10A1206903F00A
:1041D000B9FE6D1EE9B22046BDE8704001F000B89E
:1041E000204600F0CBF8204600F0B4F8A06807A203
:1041F000C17C431808212046143303F0A9F9204656
:10420000BDE8704000F0B0B870BD0000257300003C
:1042100028AF02002DE9F041044680680F4690F86F
:104220003D11C27C11F00106817CA1EB0203DDB2DD
:104230000AD07F2901D3002D7ED0A068C17C08441C
:104240000021077566B113E07F297CD2002DF4D0E0
:10425000831803F114012A46481CFFF729FAECE7FA
:10426000A068827C521CD2B28274A068143281543D
:104270004DB3204602F04AFE8178C07881420ED1CB
:10428000A06832A2C17C431808212046143303F0F1
:104290005FF9A81BC1B2204600F0A2FF21E0204632
:1042A00000F06CF8A06829A2C17C431808212046C0
:1042B000143303F04DF9204600F056F80121204652
:1042C00001F06EF80DE03EB1A068827C521CD2B2C3
:1042D0008274A068143281543A461DA1206903F00B
:1042E00031FEA168C87C401CC874204600F065FF00
:1042F0000028204603D0BDE8F04100F07DBF01F06A
:1043000099FC00281FD0204602F000FE0546C07828
:10431000A978401A401EC1B2204600F0EFFE2046A8
:1043200000F06AFFE878A978401AC1B2204601F08F
:1043300043F82878401E00E005E0C1B22046BDE801
:10434000F04101F02DB8BDE8F081000025730000B8
:10435000256300000069024A02A103F0F3BD0000DA
:104360001CAF0200257300000069024A024903F0F5
:10437000E9BD000013AF0200644302000069024A75
:10438000024903F0DFBD000010AF020064430200E9
:104390002DE9F04F4FF000099DB005464E464C46C2
:1043A000CDF8149000F0A0FD284601F09DFEAA680B
:1043B0000C2308A901A8143202F084FC03460198DA
:1043C00040B15BB159A20221284603F0C1F81DB0EB
:1043D000BDE8F08F284600F00FFFF8E75A4859492A
:1043E0000027A1EB00080DF1200A83461AE00FD345
:1043F000284600F0E2FE01005448089B009001D0DE
:1044000053A200E054A20221284603F0A1F8DEE7FF
:104410000BEBC704606801685AF82900FFF781F9BF
:1044200018B17F1CB7EBD80FE1D94FF0000BCDF8D6
:1044300068B06068C7680FB1A9684860606809F132
:1044400001044FF0000880680DF1580906900198AA
:10445000844237D25AF8240042A1FFF762F950B3E0
:104460005AF8240040A1FFF75CF920B3424608F156
:1044700001081AAB2146CDF80090069800F0F0FC38
:10448000B8F1000F1ED01A98E0B101685AF8240064
:10449000FFF747F90028DAD11A98C16829B1A8F1C5
:1044A0000101DDF818B02646059180684FF000083C
:1044B000641C0690CBE7A86890F83D1141F002011A
:1044C00080F83D11284600F025FE284600F075FED4
:1044D00010B9284600F090FEBBF1000F12D0CDF8C5
:1044E00000901AAB31465846059A00F0B9FCA9680D
:1044F0001A980AEB860248600199C368891B28460E
:1045000098470AE027B108AA28460199B84704E06D
:1045100017A20221284603F01BF8A86890F83D1165
:1045200021F0020180F83D1151E700000D0A6E6F85
:1045300074207465726D696E617465643A202563D8
:104540000D0A0000CCC202005CC2020059AF02009A
:10455000257325730D0A00000D0A257325730D0AB6
:10456000000000002D6800002D2D68656C700000B3
:10457000506C65617365207370656369667920733B
:104580007562636F6D6D616E642E0D0A0000000030
:1045900000B589B020220D4901A8FFF789F8142041
:1045A00001901320029000208DF818000320009045
:1045B000064801231A4601A91C3803F03BF90028DC
:1045C00001D0FFF7FFFB09B000BD000018AE0200EC
:1045D0002DE9F0410446C0688EB00D460026C06843
:1045E000324601A904F041FA18B100200EB0BDE82E
:1045F000F0816DB1019804F01AFAA168D1F82C018C
:10460000401CC1F82C0100F0070001287ED10126D2
:10461000204602F07BFC05468078012804D9401E24
:10462000C1B2204600F0C8FE2878012804D9401EF7
:10463000C1B2204600F0D4FD2046FFF78BFE2EB11C
:1046400033A20221204602F083FF5FE04FF0000812
:104650000023082202A9019804F0FAF904980590B1
:104660000398ADF818008DF81C800298082700F018
:104670000300012802D002281DD03CE002983B46EE
:10468000860AC0F3C2008DF81A00029808A9C0F388
:1046900080008DF81B000298C0F38315AA000198D2
:1046A00004F0D6F92069009005AB2A4608A93046E7
:1046B00004F010F91FE00298850DC0F3C2008DF8D8
:1046C0001A000298C0F380008DF81B00082D01D25B
:1046D0002E4600E008263B46324608A9019804F021
:1046E000B7F93744AD1B05AA314608A8236903F082
:1046F000DFFF002DEAD1019804F099F9E06800226B
:1047000001A9C06804F0B1F90028A1D001206DE72B
:104710004C6F7374204C4F4773202D20696E637269
:1047200065617365204C4F47206261636B656E6401
:104730002071756575652073697A652E0D0A000014
:10474000014803F0EDB80000FCAD020030B4406851
:1047500004682469A44630BC6047000010B50548D1
:1047600003F006F9002803D0BDE81040FFF72ABB8C
:1047700010BD0000FCAD02002DE9FC4100270446FD
:10478000019701AB012269462046FFF7DFFF019840
:1047900000281CD09DF800007F28F2D804F064F9AE
:1047A000A568687820B101285DD002285FD163E058
:1047B000207E9DF80060B0420ED1A87C00282046E3
:1047C00007D0FFF7E5FD0221204600F0C1F8BDE863
:1047D000FC8100F011FDF6E7092E1BD004DC002E51
:1047E000CFD0082E04D11DE01B2E11D07F2E21D05A
:1047F000FEF70CFF0068805D10F03E0FC1D095F809
:104800003D0100071ED531462046FFF703FDB8E7FE
:1048100001202FE095F83D010007B2D5204600F0B9
:10482000B1F8AEE795F83D010007AAD52046FFF79D
:104830004BFCA6E795F83D010007A2D52046FFF7FF
:104840009FFC9EE7A87C7F289BD2E87C2918401C0F
:10485000E8740E75A068C17C08440775A068817C67
:10486000491C81748DE79DF800005B2801D06F70B2
:1048700087E70220687084E76F70A16891F83D01B6
:104880000207A4D59DF80020413A0C2ABFD2DFE8E8
:1048900002F007090E31065006540606065870E766
:1048A000012100E00021204601F00CFB69E72046D1
:1048B00002F02CFB054600786978884203D1A9787C
:1048C000EA789142A3D0697988424FF001012046ED
:1048D0000AD100F013FC6979204600F081FCA16840
:1048E000C87C401CC8744CE700F05AFDA068C17C2D
:1048F000491C15E0204602F009FB05460078A9791D
:10490000491C884202D1A97801298AD001284FF098
:104910000101204606D000F063FCA068C17C491E5E
:10492000C1742EE700F048FD6979204600F038FD9B
:10493000F3E7204600F0EEFB23E7204600F013FCEF
:104940001FE7421C62F3000081F83D0119E70000F7
:104950008268022911700BD182680021117582686A
:10496000D1748268917403A20321036802F0F0BD40
:104970007047000025730000002801D0FEF7CABE72
:10498000704700002DE9F04FA5B04FF00008054634
:10499000CDF82880CDF8108080684746817CC1F131
:1049A0007F01C9B25FEA010B7BD0C27C00F1140128
:1049B0009430FEF77DFEA8680024C17C084480F88E
:1049C0009440FEF723FE20900168A8680C23C27C67
:1049D0000244D27C895CC0F83841AA6801F0010920
:1049E0000DA91FA8943202F06DF90D98FFF7C4FFCE
:1049F000C6B2A2461A940C941F9818B14844401E9F
:104A0000B8426AD8B9F1000F01D0002605E00DA820
:104A100050F82700FFF7B0FFC6B200241BA82246BB
:104A20000090641C1AAB3946504600F019FA1A98E7
:104A300000286BD001680DA8324650F82700FEF719
:104A400087FE00280C9802D00028E7D05EE0D8B19D
:104A50001A980068FFF790FF0499C0B2884200D905
:104A60000490BBF1000F2BD021A800900CAB424664
:104A70003946504600F0F4F91A98006883190C98EA
:104A800000688219002015E0601E0A901A980068DC
:104A9000FFF772FFC0B20490801B584510DAC0B215
:104AA0000DE07FE012F800C0614506D1401C10F017
:104AB000FF0010D0195C0029F4D1834500D983464A
:104AC0001A98B4F101080C90A8D262A204212846D9
:104AD00002F03EFD1AE0FF20EFE700241BA822466B
:104AE0000090641C1AAB3946504600F0B9F9ECB39B
:104AF0001A98002856D001680DA850F82700FEF734
:104B000010FE0028EAD11A98D0F808A0BAF1000FD8
:104B100009D01A9838B11F997F1CFFB201EB090028
:104B20008742FFF469AF0C9800283BD00A984146B1
:104B300040455DD19AF8000038B11BA80A460090A4
:104B40000CAB3946504600F08BF90C980068FFF723
:104B500013FFB04206D00C985A46006881192846C7
:104B600000F066FA2098A968026800E01DE0C87CA1
:104B70000B181B7DD25CD2071DD0897C884211D2D4
:104B8000284602F0C3F9A9688478C87C401CC87420
:104B9000284602F0BBF98078A04225D101212846A1
:104BA00000F0FEFB25B0BDE8F08F2AA204212846C4
:104BB00002F0CEFCF6E791F83D01C2070FD020F0DD
:104BC000010081F83D0120212846FFF723FBA8685A
:104BD00090F83D1141F0010180F83D11E2E72021FC
:104BE0002846FFF717FBDDE7284600F005FBD9E76D
:104BF00000212846049A04F053FB0DF16C090A9C2D
:104C00000EE01AAB224639465046CDF8009000F02F
:104C100027F91A98049A0168284604F041FB641C9D
:104C20004445EED917A2032128462B6802F090FCD8
:104C3000AB6816A208212846143302F089FC2846E6
:104C400000F078FB0C985A4600688119284600F05D
:104C5000EFF9A7E75461622066756E6374696F6E41
:104C60003A20636F6D6D616E647320636F756E744F
:104C70006572206F766572666C6F7765642E0D0ABB
:104C8000000000000D0A25730000000025730000DD
:104C9000002803D08968012081F83C01704700009A
:104CA00070B5044640680D4690F8280030B1A06801
:104CB0000068FFF713F908B108280CD1012685B167
:104CC000606903F015F9616800220831606902F03B
:104CD00031FF08B1062070BD606880F829600020AF
:104CE00070BD606890F8280048B9074A0021A068A4
:104CF000FFF774F86168002881F82860F0D1204639
:104D0000BDE8704005F0A9B941A3020070B50446A2
:104D100040680D460260606800224360606880F869
:104D20002820606880F82920606820220830FEF77B
:104D3000BFFC2C61074A2946606902F0FBFE0500B2
:104D400005D1E06804F050F8206904F04DF82846D9
:104D500070BD00005DA502001A60C0681A4603F02D
:104D600081BF10B50446406903F0C2F8A06800682E
:104D7000BDE81040FFF7B2B87CB51A600446006980
:104D80001A4603F0ADFF05001CD1606903F0A4F8DA
:104D9000C0B9FF20009001236A4601A9206903F0F1
:104DA000EBFF78B900980199C2B2606903F00EF880
:104DB0000546606890F8290020B11DB92069009966
:104DC00003F0C7FF28467CBD2DE9F8431E46154673
:104DD00088460746002418E0786808EB04016B4613
:104DE0000268D2F80CC02A46E047009804442D1A05
:104DF00058B9B8680178032907D000BF90F83C1172
:104E00000029FBD0002180F83C11002DE4D1002EB8
:104E100001D000983060BDE8F883000008B50B466B
:104E2000009102A2022102F093FB08BD25733A20F3
:104E300077726F6E6720706172616D657465722044
:104E4000636F756E742E0D0A5472792027257320B6
:104E50002D682720666F722068656C702E0D0A0021
:104E60002DE9F05F1C460A9E15464FF0000959B126
:104E700080B3017839B3426831462846904730689C
:104E8000D8B12660BDE8F09F14491548A1EB000891
:104E9000B5EBD80F11D2DFF84CA00026834609E00D
:104EA0000BEBC607786801685AF82500FEF739FC55
:104EB00030B1761CB6EBD80FF2D3C4F80090E1E71E
:104EC00078682060DEE7406800EB0210016809B1F5
:104ED0001860D7E7FFE7C3F80090D3E7CCC2020021
:104EE0005CC20200602200202DE9F0418568064680
:104EF0000024287D002812D0A046FEF787FB074635
:104F0000D0F8000004F1140104F10104695CE4B27A
:104F1000415CC90705D0002CF4D185F81480BDE8A8
:104F2000F081641E14F0FF040FD0A87C021B04F172
:104F30001400291805F11400521CFEF7B9FBB168E2
:104F4000887C001B8874B168C874B2683D68937C23
:104F5000D01813300446002102E0491CC9B2401E9B
:104F60000778EF5DFF07F8D18442D8D05B1A14337D
:104F700002F80380B268907C401A9074B168C874DB
:104F8000CDE700002DE9F05F26484168F1B3DFF876
:104F900098B00E688146DBF8004087688078E11B96
:104FA00021F07F45ED1CB0B9DFF880804FF48030F0
:104FB000C8F84403C8F804031120FEF7AAFC112026
:104FC000FEF7B2FC4FF0010AC8F800A02F2002F053
:104FD000F3FC89F802A0B54200D23546124BE8191D
:104FE0003C3320F07F401860DBF800105A46091B64
:104FF00021F07F41001B20F07F40C91C81420FD966
:10500000106818602F2002F0D7FC00E004E0BDE833
:10501000F05F1120FEF793BCBDE8F05F04F0CABF5B
:10502000BDE8F09F942100200415014000100140CC
:105030002DE9F0410446806815460F46827CC17C0C
:10504000531A2A44DEB27F2A37D8002D35D00844BF
:1050500000F1140105F114021044721CFEF728FB44
:10506000A0682A46C17C084439461430FEF720FB6C
:10507000A0681430FFF780FCA16811A28874A068B2
:10508000C17C431808212046143302F061FAA0685D
:10509000C17C2944C174204600F08FF818B920461D
:1050A00000F0C8FD10B1204600F0A6F8002E04D094
:1050B0002046BDE8F04100F03DB9BDE8F0810000B8
:1050C0002573000010B5044612B11088002211E0CB
:1050D0004FF6FF70FAE7030A43EA0023A05C58404A
:1050E000C0F30313584080EA003080B2C3B280EAB4
:1050F0004310521C8A42EED310BD0000002904D098
:105100000A46006901A102F01DBF70471B5B2564C0
:105110004200000070B5054601F0F8FE0446007834
:105120006178884203D1A078E17888421AD0E1788A
:10513000A078814204D9081AC1B22846FFF7DEFFE1
:1051400020786178884205D9401AC1B2284600F01B
:1051500047F804E0081AC1B2284600F021F9A8680F
:10516000817CC17470BD70B5054601F0CFFE044668
:1051700001788079401C814202D1A07801281BD09F
:10518000A078012804D9401EC1B2284600F014F9C5
:105190002078A179884206D9401A401EC1B228461B
:1051A00000F01EF805E0081A401CC1B2284600F0C5
:1051B000F7F8A9680020C87470BD10B504460068EF
:1051C000FFF7DAFB0146A068C27C407B1144B1FBCB
:1051D000F0F200FB121008B1002010BD012010BD3C
:1051E000002904D00A46006901A102F0ABBE704755
:1051F0001B5B2564440000000069024A024902F07A
:10520000A1BE000016AF0200644302002DE9FC5F5E
:10521000002604468DF8046080683546B046B146E5
:1052200080219430FEF76BFA4149206902F08AFE32
:10523000206902F094FE002740F2E73B4FF47A7AAF
:105240006B46012201A92046FFF780FA0098D8B1E9
:105250009DF804001B2806D0A16891F894101B2922
:10526000EED152281CD0A26808F19401505408F1E4
:10527000010000F0FF08B8F1090F08D9A168042067
:1052800081F89490BDE8FC9F584602F0DBFB009843
:105290000028D5D17F1CBFB25745D1D30D20F1E7EF
:1052A000A16808F194004A4601F80090A16891F8BD
:1052B00095005B2803D081F894200B20E2E70220C0
:1052C0006FF02F070AE000BF05EB850507EB4505EA
:1052D000401C2B44C0B29DB2802808D200F1940338
:1052E000CB5C3B2BF0D1401CC0B2802809D30C20F2
:1052F000C8E700BF06EB860607EB460633449EB2BE
:10530000F1E700F19403CB5C002BF3D1FA20FA2EE5
:1053100001D9087200E00E72FA2D02D9A1688872D4
:1053200001E0A0688572A06880F894200020A9E7B9
:1053300034AF020070B5054601F0E8FD0446807800
:10534000E178884201D1012600E000262846FFF7D7
:1053500034FF18B9284600F06DFC10B12846FFF75D
:105360004BFF1EB160782178401A12E0E078A178F6
:10537000401AC1B2284600F01FF8207861788842B0
:1053800006D9401AC1B22846BDE8704000F008B8FE
:10539000081AC1B22846BDE87040FFF721BF0000DF
:1053A000002904D00A46006901A102F0CBBD704774
:1053B0001B5B256443000000002904D00A460069F5
:1053C00001A102F0BFBD70471B5B256441000000D6
:1053D00001490120087070472121002070B50C465A
:1053E000054602F021FA30B12846BDE8704000229F
:1053F000114602F0D5B8012C05D02846BDE8704012
:1054000003A1FFF70BBDBDE87040FFF7E1BF00004F
:1054100064656C6574655F616C6C000070B5124DFD
:1054200028786978E9B1002108421CD00F4C032686
:105430006068032805D320880DA106EB004003F027
:1054400023F904F0DFFB287000280CD160680328E2
:1054500009D320880CA106EB0040BDE8704003F0A2
:1054600013B90121E0E770BD21210020DC220020DA
:1054700044656C6574696E67206E6578742072652A
:10548000636F72642E0000001B5B313B33366D4E40
:105490006F207265636F726473206C65667420742C
:1054A0006F2064656C6574652E00000070B515464C
:1054B0000C46064602F0B8F930B13046BDE87040FF
:1054C0000022114602F06CB8032C05D23046BDE82C
:1054D00070400AA1FFF7A2BC102200216868FEF705
:1054E00046F9044610220021A868FEF740F902465A
:1054F00021463046BDE8704004F00CBB64656C6525
:10550000746500007FB50C4610B1012004B070BD79
:105510002079002638B141F61D5501281BD00228FC
:1055200026D00F20F2E70220207102960396E06851
:105530000190694601A804F0BFFB50B10298818830
:10554000E18000882081BDF80010029804F032FC50
:10555000DCE70A20DAE70A4B6A460021A01D04F0C6
:1055600067FB38B1064918398E61CE610A28CDD162
:105570002846CBE702488188019804F01BFCF5E738
:10558000C02100200E4910B50A784C780023A242B1
:1055900012D0521CD2B20A70022A00D10B70084AF3
:1055A0000B780C3252F8232002608868104420F0F7
:1055B0007F408860012010BD0360002010BD000006
:1055C000942100202DE9F843104D0F4680461E46D9
:1055D00091466946286801F0DCFC040014D01C21C7
:1055E000FEF78DF801202071C4F81490380BC4F830
:1055F0000080C4E902606946286801F0EBFC04F011
:1056000061FA0020BDE8F8830420FBE7D8B002006F
:1056100010B503780022072B06D2DFE803F005045B
:105620000610202930000A7010BD01230B70038979
:105630008B818388CB81C06888600A7410BD022288
:105640000A7002898A818288CA81C2688A60807DE4
:10565000062802D00020087410BD0120FBE70322B9
:105660000A70C2888A810289CA81C068886010BDB8
:1056700004230B70C0888881CA818A6010BD052010
:10568000087010BD70B5064D0646002455F824106C
:1056900009B130468847641C042CF7D370BD000064
:1056A0001429002030B50446006885B00D46806896
:1056B00000281CD014216846FEF721F80195A06847
:1056C0000490207910B101280DD104E001208DF85B
:1056D0000000206904E002208DF80000E06800036B
:1056E000029060690390206881686846884705B029
:1056F00030BD000070B5354E0446032570680328A0
:105700000DD33349606851F820302078403151F88A
:10571000202030882FA105EB004002F0C0FF207848
:1057200030B101280CD0032809D1606858B348E093
:105730006068002803D126490120091F087070BD48
:1057400060680028FBD170680328F8D3308829A14D
:1057500005EB0040A26802F09BFF70680328EED3BF
:105760003088A28905EB004027A102F091FF706804
:105770000328E4D33088E28905EB0040BDE870409F
:1057800025A102F085BF706803281AD3308819A1BB
:1057900005EB0040A26802F07BFF7068032810D37D
:1057A0003088A28905EB004017A102F071FF7068F4
:1057B000032806D33088E28905EB004016A102F0E9
:1057C00067FF03490020C91E487070BDDC2200201D
:1057D000242100201B5B313B33326D4576656E74AE
:1057E0003A202573207265636569766564202825F3
:1057F000732900005265636F72642049443A09308E
:10580000782530347800000046696C652049443AB8
:1058100009307825303478005265636F7264206BEC
:1058200065793A0930782530347800000C4808B59D
:10583000007888B1684604F07FF878B106210170DD
:10584000684604F087F80748017809B1012101731F
:1058500004F028F9002008BD022008BD082008BD7A
:10586000C8210020D8290020F0B589B0142168464D
:10587000FDF745FF2C4C207818B16846FFF702FF72
:1058800050E0201D012105AAFDF7D0FCB8BB4FF068
:10589000102041690004026940694B1C01D100FBE2
:1058A00002F1224800220161A1F54051C160204966
:1058B00002F075FC002820D11F481C238C221D49B2
:1058C000006801F053FB03F0A5FD050014D0022D84
:1058D00012D000270126062D12D006A804F02CF8BD
:1058E00088B106700C2D18D2DFE805F0170F170FDE
:1058F00017161716171113110B2009B0F0BD11E080
:1059000026706760B9E70820F7E7077105E0032113
:1059100000E00221017100E0067106A804F01AF807
:1059200004F0C0F80020E8E7C821002098220020F9
:10593000E8B0020024290020F8AE020038B50400C7
:1059400014D0694604F0B8F9A0B1BDF8000000EB2E
:105950008001094800EB8100C16849B1A17A39B1E1
:10596000C168491EC1600020A07238BD052038BD45
:10597000062038BD0A2038BDB029002038B50446BD
:105980000D48007888B194B1684603F0D5FF80B126
:1059900004210170002101712168C160684603F093
:1059A000D9FF04F07FF8002038BD022038BD052063
:1059B00038BD082038BD0000C82100201FB501A94E
:1059C000684604F035F904B010BD0B4602460021CC
:1059D000084604F02DB900002DE9FC410E460500F3
:1059E00031D076B3694604F067F958B36C68002289
:1059F0000621B4F8068067882046FFF763FBB900EC
:105A0000ADF80400012701AA04F10800091DFFF701
:105A100059FBADF80400404517D1BDF800000D4911
:105A200000EB800001EB800001AA39460C30FDF745
:105A300024FC346068680C307060AF720020BDE8F0
:105A4000FC8100E003E00520F9E70D20F7E70A20DC
:105A5000F5E70000B029002018B10323002205F06B
:105A60005FB8052070470223002205F059B80000F6
:105A7000094908B50A69042A0BD0084A096942F89D
:105A800021000548012110306A46FDF7F6FB002091
:105A900008BD0C2008BD0000A8210020142900200A
:105AA0002DE9F84F044623480078D8B1ECB1122113
:105AB0002046FDF724FE0320DFF87C90208000259F
:105AC00004F1100804F10E0A05EB850109EB8106CB
:105AD00030897189084487B2706803F029FC032873
:105AE00005D007E00220BDE8F88F0520FBE72088FD
:105AF000401E20806088F168084460802089718998
:105B000008442081608938446081C7F58060A1899C
:105B100080B2814200D2A0815346A21D211D284699
:105B2000CDF8008004F000FA6D1CADB2022DCBD38D
:105B30000020D8E7C8210020B02900202DE9F05F1F
:105B400017460E00814670D013B1F9B2FFF728FC5A
:105B50000024FDF75BFD8246006800E0641C315DB7
:105B6000415CC907FAD100253046FEF705FFD9F898
:105B70000810001B4A7BD11B814228D306EB040886
:105B800005E000BF18F805100A290CD06D1C8542ED
:105B9000F8D33119D9F8100002F0D4F94846BDE81D
:105BA000F05FFFF729BBD9F8100002F0D8F94146A1
:105BB00000232A464846FFF707F92C444846641C50
:105BC000FFF71AFBF9B24846FFF7EAFBE1E78B461D
:105BD000DAF8001006EB040818F805000B5CDB0788
:105BE00002D0AB460A2804D0E819904201D26D1CBD
:105BF000F2E7D9F8100002F0B2F9414600235A4604
:105C00004846FFF7E1F85C44DAF8000000E0641C65
:105C1000315D415CC907FAD14846FFF7EDFAF9B2A8
:105C20004846FFF7BDFB9EE7FFE7BDE8F09F4068F1
:105C300003F098BE10B504460068FEF79DFE0146CD
:105C4000A068827C407B1144B1FBF0F200FB121093
:105C500008B1002010BD012010BD000010B50446A1
:105C6000FFF7E4FD002809D0054906A251F82030CD
:105C70002046BDE81040022101F06ABC10BD0000C2
:105C8000242100206572726F723A2067617262612E
:105C9000676520636F6C6C656374696F6E207265F5
:105CA0007475726E65642025730D0A0070B508B1B5
:105CB000012070BD194C0025207B08B1257301E03F
:105CC00000F0A0F82078082826D2DFE800F02504AC
:105CD000080C10251420BDE8704000F021B8BDE884
:105CE000704000F07DB8BDE8704000F05FB8BDE8DE
:105CF000704000F03BB86088084900EB800028390C
:105D000001EB80004068BDE8704003F063BB656054
:105D1000BDE8704003F06CBB0F2070BDD829002097
:105D20001149F0B48A1C00200346A1F128050C1883
:105D3000A67A4EB1A37200EB800405EB8404E668FA
:105D400016B9247C012C0AD0401C80B20228EED364
:105D50000B704B804B60F0BC41F61D5070471080BB
:105D6000F0BC00F03DB80000D82900200C48418864
:105D700001EB8102A0F1280101EB8201CA6852B156
:105D8000052101700748022181800168002301225A
:105D9000054802F0DDB9042202704968F6E7000008
:105DA000D8290020D02100209822002038B50A49A7
:105DB000084803240B684268898803EB81015388F3
:105DC0000470DB1C00201B0400909B0B034802F0B6
:105DD0005DFA38BDD8290020D0210020982200206B
:105DE000074910B54888091D03F0B6FF18B1BDE892
:105DF0001040FFF7DBBFBDE81040FFF7B7BF000062
:105E0000D8290020F0B51F481F4901250678022433
:105E10008B88A0F12802082E19D2DFE806F00418BA
:105E2000181B222F2F170189491C01810021418055
:105E300080F80C1001EB810312F8233043B10023EA
:105E40004418491C89B2A3720229F3D30570F0BD2E
:105E50000123F5E742685288D21C1A448A800470F4
:105E6000F0BD46880D6806EB860602EB8602566892
:105E70000E60556013818C80062100E007210170BF
:105E8000F0BD0000D8290020D0210020428800EB7E
:105E900082020C328A4201D9022070478188A1F522
:105EA0007F42FF3A03D0008808B1002070470120EC
:105EB0007047884204D20068401C01D0012070471E
:105EC00000207047FEB50026044600960196029613
:105ED0008068E9B3D0E94D128A4271D0D0F8300120
:105EE00000286DD02046FFF73EF9A068D0F8385161
:105EF000002D68D0002309226946284602F0A8FD3B
:105F0000A1689DF808500098C1F83801A0680023E6
:105F10000922D0F83801694602F09AFDA1689DF87F
:105F200008200923D1F838011431521C02F090FDE9
:105F3000A1689DF80800C874A1689DF808008874DD
:105F40009DF80800A84202D22046FEF703FA00E0BE
:105F50000BE0A3682BA208212046143301F0F8FAC5
:105F60002046FFF72AF960BB42E0D0F8380100284C
:105F700046D02046FFF7F7F8A06800230922D0F8A2
:105F80003801694602F064FDA0680199C0F8381133
:105F9000A0680029857CB9D19430FEF7EDFC00287B
:105FA000A06805D000F194011430FDF7C8FB00E0B3
:105FB0000675A0681430FEF7DFFC8DF80800B7E71F
:105FC0001EE01AE0FFE71430FEF7D6FC10F0FF05E4
:105FD000A068D0F83011C0F83811A06805D000F1E1
:105FE00014019430FDF7ABFB90E780F894608DE7E7
:105FF0002046FFF71FFE002802D02046FFF7FCF8DE
:10600000FEBD000025730000FEB50D468168044604
:106010000026D1F8300138B300230922694602F086
:1060200017FD0195A06800230922D0F830016946C8
:1060300002F014FD0196A068D0F830110091807C28
:106040008DF80800A068C0F8305100230922694685
:10605000284602F003FDA168092328468A7C1431F2
:10606000521C02F0FBFCFEBDC1F83051A068C0F824
:10607000345100960196A068807C8DF80800E4E712
:10608000FEB504468068D0F83461002E28D0002385
:1060900009226946304602F0DBFCA1680198002520
:1060A000C1F83401009501952B4609226946304616
:1060B000029502F0D3FC304602F097FCA168D1F8BB
:1060C000340170B100230922694602F0C1FC009539
:1060D000A06800230922D0F83401694602F0BEFC12
:1060E000FEBDC1F83051FEBDFEB5044680681430D7
:1060F000FEF742FC10F0FF05A0684FF00006C0F864
:10610000386133D0A068D0F83001E0B10023092213
:10611000694602F09DFC9DF80820AA4213D1A068B0
:10612000092300F19401D0F83001521C02F090FCD8
:10613000A06800F194011430FDF7F3FA0028A0687C
:1061400080F8946012D000260A352946606902F072
:106150001CFC0100204604D003B0BDE8F040FFF76E
:1061600053BFFFF78DFF761C082EEED3FEBD000057
:1061700038B504460A4801216A46FDF709F968B9AD
:106180000848606002F0F0FF05491C238C22087467
:1061900004488C39001F006800F0E8FE002038BD7C
:1061A000842A0020DCB002002DE9F0412D4F0025AB
:1061B00018B17D600120BDE8F0810879012258B155
:1061C000294E01280CD0274C4FF002080834022831
:1061D00021D0032842D128E00A7103F009F93BE0FD
:1061E0005FF0000000EB800116F82110022908D0B2
:1061F000401C80B20228F5D33A707D6041F61D50F4
:10620000D9E700EB800006F8205006EB80004068DC
:1062100003F0E0F820E00D71A4F8048000230122CF
:106220001248216801F094FF16E00D71206803F018
:10623000D1F80D4923682831498801EB810206EB2A
:106240008201D1F804C0C4F800C04B60A3880B8160
:10625000A4F8048006F822500028ACD07D600E20FF
:10626000A9E70000C8210020B029002098220020C2
:106270002DE9FC5F0E008346DDE90C47C6F1000006
:1062800098469246814600D40846012503E000BFA7
:1062900090FBFAF06D1C5045FADAA84500D9454646
:1062A00024B1002E01DB780700D5641EB80702D5A3
:1062B000B8F1000F0AD0F80708D13CB1A54205D2C9
:1062C00020215846641EFDF7E5FEF6E7002E02DAAF
:1062D0004E462D2102E0780703D52B215846FDF7C5
:1062E000D9FE07F0030002280BD1B8F1000F08D146
:1062F0003CB1A54205D230215846641EFDF7CAFEC6
:10630000F6E7CDE90047434652463146584604F089
:1063100073FABDE8FC9F000070B50E460446007994
:1063200018494FF4A27501EB4010017F2068A1B11C
:106330004FF4887102F0AEFF4FF49071206802F0C4
:10634000A9FF4FF49271206802F0A4FF294620684B
:1063500002F0A0FF0C49206809E04FF48E7102F0B2
:1063600088FF2946206802F084FF08492068C0F8A9
:106370000413206801F0D3FB3146BDE8704001F002
:10638000B2BB0000D02700201003020080000200F2
:106390000248007A002800D001207047842A00209B
:1063A000800701D000207047012070472DE9F04799
:1063B000394E002780463D46DFF8E090D6F804A02D
:1063C00057E003D00446D0F81C8035E099F800204F
:1063D00002EB4201521CD2B289F8002009EBC10144
:1063E00099F80230091D9A4201D189F80050486895
:1063F0000A780446012A12D0022A02D0032A3BD18D
:1064000008E003F0FFFF00B10127257434E00574B4
:10641000C06900E070680028F9D170602CE0207C31
:1064200050BB88686060C868A0600869E06048691F
:10643000A061F07800B165606268B168184B501ACD
:1064400020F07F40984202D2A168084406E0881AF2
:10645000A16820F07F40814202D9081A206000E044
:10646000256065600120A56020742046E56103F089
:10647000ABFFB8F10000A4D199F8001099F8010021
:106480008142A3D117B97168514502D00120BDE8FE
:10649000F0870020FBE7000094210020F027002077
:1064A000FFFF7F001CB5012905D0816891F83D11DF
:1064B000C1F3400131B102B00022BDE810401146E5
:1064C00001F06EB8536804A1CDE90013136808A267
:1064D000022101F03DF81CBD20756E6B6E6F776E6A
:1064E00020706172616D657465723A200000000071
:1064F00025733A257325730D0A0000002DE9F74F27
:1065000082B0154602980F004FF00006C068007A6E
:10651000009058D0072248A12868FDF719F978B1F2
:10652000082247A12868FDF713F9002830D02B680E
:1065300045A2029805B00221BDE8F04F01F008B86D
:10654000012F02D0022F08D008E0029805B044A223
:10655000BDE8F04F022100F0FBBF0126DFF81881F3
:10656000002400BF58F824100A226868FDF7F0F8EC
:1065700010B1641C052CF5D3052C06D004F0FF09DE
:106580000224002E54D0002419E03CA26B68D0E70E
:10659000012F4FF00009F6D0012449E04A46214678
:1065A000009800F077FC48B90021204602F070F90D
:1065B00003463AA20221029800F0CAFF641C02F0CE
:1065C00015F9A042EAD805B0BDE8F08F4FF0000AF7
:1065D00055F824B002F00AF98046002609E00021AF
:1065E000304602F055F920225946FDF7B1F890B136
:1065F000761C4645F3D3464506D155F8243030A2E3
:106600000221029800F0A4FF4A465146009800F08B
:1066100041FC10B10BE0B246EDE70021504602F01C
:1066200037F903461DA20221029800F091FF641C75
:10663000BC42CBD3C7E70000656E61626C650000A9
:1066400064697361626C6500556E6B6E6F776E2066
:106650006F7074696F6E3A2025730D0A0000000098
:1066600042616420706172616D6574657220636F50
:10667000756E742E0D0A0000E4210020556E6B6EBD
:106680006F776E207365766572697479206C6576B4
:10669000656C3A2025730D0A000000004C65766594
:1066A0006C20756E617661696C61626C6520666FE5
:1066B00072206D6F64756C653A2025730D0A0000B9
:1066C000556E6B6E6F776E206D6F64756C653A25D5
:1066D000730D0A00C068012141727047C068002133
:1066E0004172704770B588B0214800F085FC2048A1
:1066F000001F064600F080FC1E4DD5E9014105E073
:10670000C0F3891202EB9050641C044404EA0100B7
:1067100005EB8000C0688207F2D000200DF108026E
:1067200004EA010305EB8303641CDB6842F82030B4
:10673000401C0228F4D3029800F00300012808D07E
:1067400002280AD10298032101EB905004EB900437
:1067500003E00298C0F3831004443046002101AAEC
:10676000FCF70DFF002800D06C6008B070BD000081
:10677000802F0020682B00202DE9FE4F814602F07B
:1067800035F80746D9F80C0090F80880407A20B90F
:106790001FA20221484600F0DBFE22A324A208210A
:1067A000484600F0D5FE2AA20821484600F0D0FE57
:1067B000002429E001231A462146404602F020F831
:1067C0008246002301222146404602F019F8054680
:1067D000032801D2064600E003260121204602F0EC
:1067E00057F80346AE4201D225A200E017A2254881
:1067F00050F8261050F82A008DE8070022A2082140
:10680000484600F0A5FE641CBC42D3D3BDE8FE8F11
:106810004C6F6773206172652068616C74656421D8
:106820000D0A00006D6F64756C655F6E616D6500CB
:10683000252D323473207C2063757272656E74204E
:106840007C206275696C64696E200D0A000000008E
:106850002D2D2D2D2D2D2D2D2D2D2D2D2D2D2D2D68
:106860002D2D2D2D2D2D2D2D2D2D2D2D2D2D2D2D58
:106870002D2D2D2D2D2D2D2D2D2D0D0A000000003F
:106880002A000000E4210020252D323473207C20D2
:10689000252D3773207C20257325730D0A000000F9
:1068A0008EB002F019FC08B1FDF78CFA0BA901209B
:1068B00002F0CCFA08B1FDF785FA0BA802F052FB02
:1068C00008B1FDF77FFAFDF79BFA08B1FDF77AFAF8
:1068D000002001F043FF08B1FDF774FAFDF758FE00
:1068E000794C03256068032805D3208877A105EB40
:1068F000004001F0C9FE7B48FFF7BAF86068032842
:1069000005D3208878A105EB004001F0BDFEFEF71D
:10691000ABFF08B1FDF756FA784E3078002877D0F3
:106920006068032856D3208875A105EB004001F06C
:10693000ABFE606803284DD3208876A105EB0040AC
:1069400001F0A2FE6068032844D3208878A105EBFB
:10695000004001F099FE606803283BD320887DA1A8
:1069600005EB004001F090FE6068032832D32088D8
:1069700080A105EB004001F087FE6068032829D361
:10698000208882A105EB004001F07EFE60680328AC
:1069900020D3208884A105EB004001F075FE6068DB
:1069A000032817D3208887A105EB004001F06CFE77
:1069B000606803280ED320888AA105EB004001F00F
:1069C00063FE6068032805D320888EA105EB004094
:1069D00001F05AFE142101A8FCF791FE01A8FFF76F
:1069E0005FF808B1FDF7EEF96068032814D320883A
:1069F000BDF8082005EB00408BA101F049FE60685E
:106A0000032809D32088BDF80A2005EB004000E0E8
:106A100028E08BA101F03CFE00260696079608961A
:106A2000099609AB06AA47F210014FF210000A9628
:106A3000FEF7C4FFC0B16068032805D320888EA18B
:106A400005EB004001F020FE914906A8FFF70BF886
:106A500008B1FDF7B7F9FDF781FE00BF01F008FDB1
:106A600058B32BE03EDF58E70B960BA906A80C960F
:106A7000FEF7B2FF08B1FDF7A5F9204818225C30F7
:106A80000C99FCF715FE1D4E60685C36032806D392
:106A9000208880A105EB0040326801F0F9FD3068E4
:106AA000401C306006A8FEF749FF08B1FDF78AF9DF
:106AB000774906A8FEF7D0FFCAE73EDFFDF740FEA4
:106AC000FEF7ACFCCAE70000DC22002066647320FD
:106AD0006578616D706C6520737461727465642192
:106AE00000000000F5560200496E697469616C6926
:106AF0007A696E67206664732E2E2E002021002096
:106B0000417661696C61626C6520636F6D6D616E69
:106B100064733A002D207072696E7420616C6C0988
:106B2000097072696E74207265636F72647300001D
:106B30002D207072696E7420636F6E6669670970CC
:106B400072696E7420636F6E6669677572617469CD
:106B50006F6E00002D207570646174650909757091
:106B60006461746520636F6E6669677572617469CC
:106B70006F6E00002D2073746174090973686F775C
:106B80002073746174697374696373002D20777264
:106B9000697465090977726974652061206E65778B
:106BA000207265636F7264002D2064656C65746586
:106BB000090964656C6574652061207265636F7294
:106BC000640000002D2064656C6574655F616C6C09
:106BD0000964656C65746520616C6C207265636F17
:106BE000726473002D206763090972756E206761F6
:106BF000726261676520636F6C6C656374696F6E48
:106C00000000000052656164696E6720666C617304
:106C10006820757361676520737461746973746942
:106C200063732E2E2E000000466F756E642025645F
:106C30002076616C6964207265636F7264732E00E4
:106C4000466F756E642025642064697274792072C1
:106C500065636F7264732028726561647920746F54
:106C6000206265206761726261676520636F6C6C8A
:106C70006563746564292E0057726974696E6720B4
:106C8000636F6E6669672066696C652E2E2E000044
:106C9000ECAE0200436F6E6669672066696C652022
:106CA000666F756E642C207570646174696E672000
:106CB000626F6F7420636F756E7420746F2025642B
:106CC0002E0000002DE9FF4F4FF0000881B0144660
:106CD0008B468146C246C0F800802578002D71D0D1
:106CE000FCF794FC00900068405DC00702D004F8F7
:106CF00001AB84E0D9F800008300401CC9F8000013
:106D00004BF8034015E02678002E78D0B8F1000F3C
:106D100005D1222E10D0272E0ED05C2E1ED0B045CD
:106D200014D12046FDF728FE0246611C2046FCF7E0
:106D3000BFFC4FF00008E6E72046FDF71DFE0246C7
:106D4000611C2046FCF7B4FCB046DCE7B8F1000F4C
:106D500050D05C2E61D16078404508D12046FDF7C7
:106D60000BFE0246611C2046FCF7A2FC55E03028D1
:106D70001CD100270225605DA0F13001072906D84B
:106D80006D1C41EAC701EDB2CFB2052DF3D3022D40
:106D90000CD92046FDF7F0FD421B61192046491E23
:106DA000921CFCF785FC04F8017BACE778281ED127
:106DB00000270225605DA0F13001092903D841EACE
:106DC00007100DE021E0A0F16101052901D8573835
:106DD00004E0A0F14101052907D8373840EA07103F
:106DE0006D1CEDB2C7B2042DE4D3022DD1D8B8F199
:106DF000000F12D100980068805DC0070DD0D9F84F
:106E0000001004988142FFF468AFD9F80020404692
:106E10004BF822A005B0BDE8F08F641C73E72DE9A4
:106E2000F047C7880446181D16468946B0FBF7F19F
:106E3000B0FBF7F207FB12009A193A44D21CB2FBDE
:106E4000F7F2DDF820A001E02468491E0029FBD1FB
:106E50003D1A8846B54216D818E0BAF1000F05D0A1
:106E6000211809EB08002A46091D04E0204409EB1B
:106E700008012A46001DFCF71BFC00202468761B35
:106E8000A844B74201D9354600E03D46002EE4D182
:106E9000BDE8F08770B5144600230D4606461A4635
:106EA00001F0AEFC844201D9002070BD2246294683
:106EB000304601F0CBFC012070BD000030B5024629
:106EC00069B101F093FC0021084C0BE001EB410398
:106ED00004EB830315685B88AB4202D1116000208C
:106EE00030BD491C8142F1D3052030BDAC220020C9
:106EF00010B50C460021E16061600349A1600121E9
:106F000001F0C6FC206010BD0CB2020070B58468B0
:106F1000006804F10805FDF72FFDC1B2A971E07CFE
:106F20006A790844B0FBF2F302FB13035B1C2B707D
:106F3000E07C0844B0FBF2F35B1CAB70A07C08441F
:106F4000B0FBF2F35B1CEB70A07C0844B0FBF2F1E9
:106F500002FB1101491C6970284670BD10B5FCF791
:106F6000F2F908B1002010BD112010BD10B531B1EB
:106F7000B2FBF3F403FB14241CB1092010BD0E2056
:106F800010BD01600021416081608281C38108469B
:106F900010BD70B50C460546FCF78AF9002802D0F2
:106FA00021882868084470BD10B50A8849888A423B
:106FB00003D1FCF7BFF9012010BD002010BD70B552
:106FC0000C460546FCF799F9002802D0618828682C
:106FD000084470BD10B50A8849888A4203D1FCF77D
:106FE00083F9012010BD002010BD08B500216A46BC
:106FF000FCF777FA009808BD08B501216A46FCF74E
:10700000B1FA009808BD08B501216A46FCF75CFAA0
:1070100008BD08B56A46FCF730F9009808BD38B5D8
:10702000044600258DF800506846FCF767FF21688C
:107030006268086890420ED9401E08600178238A71
:10704000E26801FB0325227A2168101AC0B20A798E
:10705000824200D208719DF80000FCF773FF2846B9
:1070600038BD38B5054600208DF800000C4668464E
:10707000FCF744FFE868298A201AB0FBF1F12A687E
:107080001068431C136001709DF80000FCF75AFF64
:1070900038BD10B530B1017A42680368891AC9B2A7
:1070A0001A6006E00E2010BD03681A68541C1C60AC
:1070B0001170491EC9B2F7D200680021017108465B
:1070C00010BD000070B51546826892F83D41C4F3CA
:1070D000400424B11A46294600F062FA06E039B1AC
:1070E000516804A20B68022100F032FA012070BD41
:1070F000002070BD25733A20626164207061726166
:107100006D6574657220636F756E740D0A00000002
:1071100010B5044602290CD1A06890F83D01C0F3D7
:10712000400030B120460022BDE81040114600F07A
:1071300037BA064A06A1206900F004FF034A206915
:10714000BDE81040093202A100F0FCBE30AF0200E1
:10715000257300001CB5012905D002290BD014D9D4
:107160004FF0010112E002B04FF00002BDE8104004
:10717000114600F015BA53680849CDE900131368A9
:1071800007A2022100F0E4F91CBD002102B0002397
:10719000BDE810401A46FFF795BF000044AF02005B
:1071A00025733A257325730D0A0000003EB5044689
:1071B000012901D0012100E0002100231A46FFF738
:1071C00081FF002818D1E068C06801F0ADFCC0B2B2
:1071D000642110FB01F2E168C9688968B2FBF1F231
:1071E000D2B20092CDE90101A06804A20821D0F832
:1071F0002C31204600F0ACF93EBD00004C6F73749A
:10720000204C4F47733A2025750D0A4D6178204C6C
:107210004F47207175657565207574696C697A6171
:1072200074696F6E3A2025752525205B25752F25FD
:10723000755D0D0A0000000010B50446012901D05B
:10724000012100E0002100231A46FFF73BFF002840
:1072500008D1A168C1F82C01E068C068BDE8104001
:1072600001F065BC10BD00007CB51446054601293F
:1072700003D0022908D0012107E002B00022BDE8B6
:107280007040114600F08CB9002100231A46FFF728
:1072900019FF002809D161680448CDE9000104A262
:1072A00002212846236800F053F97CBD44AF020058
:1072B00025733A257325730D0A00000010B50446A6
:1072C000012901D0012100E0002100231A46FFF727
:1072D000F9FE002806D1A06890F83D1121F00401C4
:1072E00080F83D1110BD10B50446012901D00121DF
:1072F00000E0002100231A46FFF7E4FE002806D133
:10730000A06890F83D1141F0040180F83D1110BDD6
:107310007CB514460D460646022901D9012100E03C
:10732000002100231A46FFF7CDFE002812D1022DBE
:1073300006D0B06890F83D0100070CD50AA30BE019
:1073400061680A48CDE9000109A20221304623689C
:1073500000F0FEF87CBD09A302B03046BDE87040E5
:1073600007A2082100F0F4B86F6E000044AF0200DD
:1073700025733A257325730D0A0000006F666600B9
:107380004563686F207374617475733A2025730DBB
:107390000A00000010B50446012901D0012100E0D7
:1073A000002100231A46FFF78DFE002806D1A068B1
:1073B00090F83D1121F0080180F83D1110BD10B585
:1073C0000446012901D0012100E0002100231A46D2
:1073D000FFF778FE002806D1A06890F83D1141F033
:1073E000080180F83D1110BD7FB50446012901D088
:1073F000012100E0002100231A46FFF763FE002868
:1074000027D1A0680026D0F83451F5B101E0082E4C
:107410001BD20023092201A9284601F019FB9DF87F
:107420000C20A168092328469431521C01F010FB5E
:10743000A068334694300090029D761C05A2082176
:10744000204600F085F8002DE1D1A168002081F8E8
:1074500094007FBD5B2533645D2025730D0A000019
:107460007CB515460446012903D0022917D901210C
:1074700016E0A16801F10C020D3102F031FF002885
:107480001ED0A16850200FA24873A168182008736D
:1074900002B02046BDE87040042100F059B8002138
:1074A00000231A46FFF70EFE002809D16968154827
:1074B000CDE9000114A2022120462B6800F048F813
:1074C0007CBD00006E6F20726573706F6E736520F7
:1074D00066726F6D207465726D696E616C2C2061CF
:1074E0007373756D65642038307832342063686159
:1074F00072732073637265656E2073697A650D0A15
:107500000000000044AF020025733A257325730D77
:107510000A00000010B50446012901D0012100E055
:10752000002100231A46FFF7CDFD00280AD1064AA4
:1075300006A1206900F006FDA16850204873A168EB
:107540001820087310BD00003EAF02002573000034
:107550000FB438B5044607A80090A06890F83D2104
:10756000520717D5C27B8A4214D0B0F80F5020467C
:1075700003F03AFA6A462069069900F0FCFCE9B289
:10758000204603F031FA290A204603F00FFA38BCEE
:107590005DF814FB6A462069069900F0ECFCF6E7FA
:1075A0002DE9F04F804689B016460C468948FDF714
:1075B000E3F9054687485438FDF7DEF9281A1FFA23
:1075C00080F9844884A241380090D8F80800082146
:1075D000406803684046FFF7BBFFD8F808004068E2
:1075E0000068FDF7C9F905467A484138FDF7C4F946
:1075F000284482B2D8F80800002340684168404619
:10760000FEF79CFA76A208214046FFF7A1FF16B3C9
:107610000CB300251DE000BF05EB450A04EB8A0B07
:10762000DBF80400FDF7A8F9074654F82A00FDF737
:10763000A3F9391849450BD9DBF80400FDF79CF98B
:10764000074654F82A00FDF797F938441FFA80F9E5
:107650006D1CB542E0D35F485438FDF78DF94844BE
:10766000801C1FFA80F95B4800904B465FA20821FE
:107670004046FFF76DFF09F1030087B20790002332
:107680003A465CA14046FEF759FA002C52D000253C
:107690004EE000BF05EB450A04EB8A0B54F82A00C4
:1076A000DBF804306BB350B34A4957A25439CDE9E3
:1076B000001008214046FFF74BFF09F1020000903F
:1076C000DBF80400FDF758F9074654F82A00FDF7E7
:1076D00053F907443F485438FDF74EF939180098DC
:1076E000401A801EC1B24046FDF75AFE3A2249496F
:1076F000D8F8100000F026FC0098401C0AE0009327
:1077000001E040B100904B4638A208214046FFF707
:107710001FFF079887B2DBF8081029B100233A460B
:107720004046FEF70BFA02E04046FDF765FD6D1C92
:10773000B542AFD3D8F8080040688068002845D02B
:10774000814600200446064603AD02903246761C70
:1077500002AB012148460095FDF782FB029850B12B
:107760000068FDF709F9A042F0D902980068FDF71A
:1077700003F984B2EAE7012E28D027A20821404667
:10778000FFF7E6FE00273A467F1C02AB0121484680
:107790000095FDF765FB0298002817D0A11C8EB25A
:1077A00000680090334611A208214046FFF7D0FE42
:1077B0000298F61CB2B2416821B100234046FEF7A0
:1077C000BDF9E0E74046FDF717FDDCE709B0BDE88D
:1077D000F08F00006DAF02002573257300000000DC
:1077E0004F7074696F6E733A0D0A00002020252DCA
:1077F0002A733A0053686F7720636F6D6D616E6412
:107800002068656C702E0000202025732573257379
:107810000000000050430200537562636F6D6D619C
:107820006E64733A0D0A0000806890F83D01C0F361
:10783000400070472DE9F0411E460546069F00F0C6
:1078400011F804000CD15EB13946E86800F080FD03
:10785000002802DA0420BDE8F081E86801214172C5
:107860002046F8E770B50446C068154623464461D3
:10787000606802681668234AB047002840D16069F2
:1078800001F0D3F800283BD1A168C1F83001A1680C
:10789000C1F834014FF4A071A068FBF730FFA06875
:1078A000012180F83C11A268184B92F83D0165F364
:1078B000820082F83D01A26840F0080082F83D0194
:1078C000A068134A0170A16850204873A16818206D
:1078D000087300210C48D21A07E000BF03EBC10473
:1078E0006468246840F82140491CB1EBD20FF5D3FD
:1078F000072A04D9D108074B0422FBF78BFE00208E
:1079000070BD0000914C0200602200205CC20200A9
:10791000CCC20200D9A202000023FDF755BA000034
:1079200010B5044680680078D8B1012819D0022823
:1079300017D12046FCF720FF00212046FCF748FE27
:1079400078B10AA2032120462368FFF701FEA3684D
:1079500006A2082120461433FFF7FAFD2046FDF762
:10796000E9FC2069BDE8104000F0F9BA2573000079
:1079700070B5044680680078012801D0082070BDE9
:10798000606801688A680021904705000FD10821CE
:10799000204603F029F80121204603F007F805A14D
:1079A000206900F0CFFA02212046FCF7D1FF2846DB
:1079B00070BD00000D0A0A0000283ED01F49204A71
:1079C000096800BF00BF00BF00BF00BF00BF00BF0D
:1079D00000BF91422FD000BF00BF00BF00BF00BF5B
:1079E00000BF00BF00BF00BF00BF00BF00BF00BF9F
:1079F00000BF00BF00BF00BF00BF00BF00BF00BF8F
:107A000000BF00BF00BF00BF00BF00BF00BF00BF7E
:107A100000BF00BF00BF00BF00BF00BF00BF00BF6E
:107A200000BF00BF00BF00BF00BF00BF00BF00BF5E
:107A300000BF00BF00BF0138C3D1704758220020EB
:107A40000024F40000283ED01F49204A096800BFE6
:107A500000BF00BF00BF00BF00BF00BF00BF91421A
:107A60002FD000BF00BF00BF00BF00BF00BF00BFDE
:107A700000BF00BF00BF00BF00BF00BF00BF00BF0E
:107A800000BF00BF00BF00BF00BF00BF00BF00BFFE
:107A900000BF00BF00BF00BF00BF00BF00BF00BFEE
:107AA00000BF00BF00BF00BF00BF00BF00BF00BFDE
:107AB00000BF00BF00BF00BF00BF00BF00BF00BFCE
:107AC00000BF0138C3D17047582200200024F400C1
:107AD00000F01F02012191404009800000F1E020E8
:107AE000C0F8801170474907090E002806DA00F037
:107AF0000F0202F1E02282F8141D03E000F1E022FF
:107B000082F8001400F01F0201219140400980001A
:107B100000F1E020C0F88012C0F800117047000B9F
:107B200040B270470121B1EB507F01D10120704775
:107B3000002070472DE9F04105460079164F904628
:107B400007EB40140E46E07E10B10820BDE8F0813E
:107B5000707F20772846FCF70FFA5FEA0800606024
:107B60003169216003D0317F2846FEF7D5FB2879A3
:107B700007EB4010007F0028286801D0082100E0B2
:107B80000421C0F800150020E0752076A0750121C1
:107B9000E176A076DAE70000D02700202DE9F04159
:107BA00005460079284E904606EB40140F46207F8C
:107BB00018B10846FFF7B6FF80B1626800234FF4A2
:107BC00004704FF4017172B12A7906EB4212127FF0
:107BD000002A2A6805D0C2F8080304E01020BDE896
:107BE000F081C2F80813E27DB2B1227E7AB16268F8
:107BF0005AB12A7906EB4212127F1AB12968C1F8EC
:107C0000040302E02868C0F804131120E7E72761A5
:107C1000012384F8188005E084F817800020E760CD
:107C2000607620762879424606EB40103946007F80
:107C30000028284603D0BDE8F04100F06FB8BDE849
:107C4000F04100F017B80000D02700200179084A61
:107C500002EB411101220B7F01680BB14A607047B2
:107C60004FF40173C1F808330068426070470000A8
:107C7000D02700202DE9F05F04460079264901EB6A
:107C80004015A87E184302D1204602F0D6F9686854
:107C90000028206806D04FF40171C0F804130020BA
:107CA000BDE8F09F4FF4A276314601F0E2FAB1460A
:107CB0004FF4927A4FF4847B5146206801F0D4FA55
:107CC00006465946206801F0CFFA804649462068AA
:107CD00001F0CAFA074648EA07003043ECD056EAFA
:107CE000070007D12946206802F082F9E87D697E05
:107CF0008842E1D80020E8750EB10320D0E70FB12B
:107D00000F20CDE7A97E01200029216801D008605D
:107D1000C5E74860C3E70000D02700202DE9F05FE9
:107D2000894604464FF488759A46904600260068B6
:107D3000294601F0AFFA4FF4A2773946206801F0E6
:107D4000A9FA2068C0F83495C0F838852068BAF1DF
:107D5000000F14D0D0F8001241F02001C0F800123A
:107D60002179DFF8648008EB4110406850B1206849
:107D70004FF40471C0F804133046BDE8F09F0121B0
:107D80000160EDE7AA46B9464FF4927B5146206860
:107D900001F07BFA07464946206801F076FA05466D
:107DA0005946206801F071FA014647EA0500084388
:107DB000ECD02379002208EB4310C27501B10326F1
:107DC000002DD9D00F26D7E7D02700202DE9F04786
:107DD000054600793F4E904606EB40140F46207F43
:107DE00018B10846FFF79EFE30B1284600F074F83F
:107DF00020B11120BDE8F0871020FBE784F8168041
:107E0000A7600027A78228794FF0010806EB4014ED
:107E10003E46207F0028286825D04FF490794946B7
:107E200001F038FA4FF4AC7A5146286801F032FA82
:107E30002868A17DA268C0F84425C0F848152868C4
:107E4000C0F808806068F0B94946286801F01DFA5A
:107E500080465146286801F018FA58EA0001F3D02C
:107E600058BBA7750FE04FF48E7A514601F001FA26
:107E70002868C0F808802146286802F051FB616834
:107E80004FF4807089B13046B4E75146286801F05C
:107E9000EBF910B9A08A4845F7D1A08A484505D02A
:107EA0002146286802F03CFB00E08146A08AA17DC3
:107EB0008842EAD3A08A484501D10F26D1E751462E
:107EC000286801F0D1F90028F9D02868C0F80C80A2
:107ED000C7E70000D02700200079044901EB4010DB
:107EE000807D002800D0012070470000D0270020AE
:107EF00070B5044600791149002601EB4015206851
:107F00002A7FC0F80065686888B1207901EB4010CD
:107F1000007F0028206801D0094901E008498C3918
:107F2000C0F808132068FFF7FAFDFFF7D1FD2046DF
:107F300001F0FEFAEE766E6070BD0000D0270020E2
:107F4000100302000FB408B50399002904D004AA55
:107F500000926A4600F00FF801B05DF814FB10B50E
:107F600082680446002A05D0D4E9040321689847B2
:107F70000020A06010BD2DE9FC4791460C00804612
:107F800076D014F8011B39B125290ED04046FCF7F4
:107F900081F820780028F4D198F80C00002867D0E8
:107FA0004046BDE8FC47FFF7DABF002001222178F8
:107FB0002B291BD02D2902D0302908D102E040F016
:107FC000010001E040F00200641C002AEFD100250E
:107FD0002A290ED02178A1F130020A2A11D205EB0C
:107FE000850201EB4205641C303DF1E740F00400DE
:107FF000EAE7D9F800100B1DC9F800300968641CC5
:108000000D44217800232E290BD114F8011FA1F172
:1080100030020A2A05D203EB830201EB4203303B14
:10802000F3E76C290DD068290BD0692921D00BDC2E
:10803000252918D0582931D063290ED0642915D1AB
:1080400017E014F8011FECE7702969D0732932D0CA
:1080500075291BD0782909D120E0D9F80000011D2D
:10806000C9F8001001784046FCF714F8641C90E74A
:108070006CE0D9F800100A1DC9F800200968CDE9A4
:1080800000500A224046FEF7F3F8EFE7D9F8001057
:108090000A1DC9F8002009680A2206E0D9F8001074
:1080A0000A1DC9F8002009681022CDE90050404699
:1080B00002F0A2FBDAE7D9F8001000270A1DC9F880
:1080C00000200E68C00705D112E04046761C7F1CD8
:1080D000FBF7E0FF31780029F7D104E0202140468A
:1080E0006D1EFBF7D7FFBD42C0D9002DF6D1BDE70D
:1080F0004EB13046FBF70EFB074604E02021404618
:108100006D1EFBF7C7FFBD4206D9002DF6D103E077
:108110004046761CFBF7BEFF31780029F8D1A5E771
:10812000D9F80000011DC9F800100568302140464B
:10813000FBF7B0FF78214046FBF7ACFF0820002199
:10814000CDE90001034610222946B0E7BDE8FC87CF
:108150002DE9F0411F46154604000E4616D0206852
:10816000B8B1C5B160680268501E304215D16A438B
:108170002046FBF7D8FD80B120683B462A46D0F860
:1081800010C031462046BDE8F04160470E20BDE8F2
:10819000F0810820FBE70920F9E71020F7E720B17C
:1081A00019B101600B68114618470E207047000096
:1081B000044801214174007A08B100207047012071
:1081C00070470000842A0020012801D0032808D12C
:1081D0000449002201284A7400D00020087401F0EC
:1081E00015BC7047842A002070B5254C0246207AC1
:1081F000012837D0022841D122480023022A0068F2
:1082000002D0032A2ED11BE0E360017911B10129CC
:1082100028D10DE0D0E90565711B4FF48056B142BD
:1082200000D33146294481614569A9420ED019E045
:108230000169491C01614269914213D1237217E01F
:10824000E168491CE16008290CD9E3602372022A25
:108250000ED00D21FDF726FA0B480A49091D0068CA
:10826000FEF7A2FE607C28B1BDE8704000F082BF3E
:108270000021EFE7BDE8704001F0C8BB70BD000011
:10828000842A0020DC210020D8B002002DE9F84328
:108290001D46089F1646884604000DD066B120682A
:1082A00060B135B160684068B5FBF0F100FB11507A
:1082B00030B10920BDE8F8830E20FBE70820F9E77C
:1082C0004046FBF72AFD90B13046FBF726FD70B122
:1082D0002A4641462046FBF726FD40B1009720681C
:1082E0002B463246C76841462046B847E2E7102091
:1082F000E0E770B541EA4201DDE904564FF0A044E1
:1083000041EA830141EA052104EB800041EA06418C
:10831000C0F8001770BD1CB5002100910B4601226A
:108320000191FFF7E6FF1CBD1CB500220B46009231
:1083300011460192FFF7DDFF1CBD1CB50021009125
:108340000B46012201911146FFF7D3FF1CBD00002F
:108350002DE9F0410E461D4904460025D1F81024B0
:10836000104609E0037AAB4205D16D1C0A2DF7DBFC
:108370004FF0FF3527E040680028F3D1681C22D079
:108380002572D1F8100430B140686060D1F8100453
:108390004460002713E00020C1F810446060F8E753
:1083A00000231A463946284600F02AFAB04200D384
:1083B00030460246207A394600F048FA7F1C00F029
:1083C00015FAB842ECD82846BDE8F081682B0020A9
:1083D000704710B54469606801688A680121904758
:1083E00018B10420A168087010BD0320FAE72DE938
:1083F000F34146690446B068007804281ED003287B
:1084000007D0002501A9E06800F09CFB85F001077A
:1084100009E00125F6E739463046FCF7D9F801A90D
:10842000E06800F08FFB0028F5D1019800F0F6FA23
:10843000002D03D000213046FCF7CAF8BDE8FC81CE
:108440000A4A012902EBC00007D0022907D00329FC
:1084500007D0042907D0002070470220704704206D
:10846000704700797047407970470000CCC2020025
:108470002DE9F04F8DB0FBF71DFE18B100200DB0B7
:10848000BDE8F08F7D480021C0F81814BFF34F8F6E
:10849000D0E9014504EA050100EB81014FF0000934
:1084A0000AE000BFC1F3891202EB9151641C0C4435
:1084B00004EA050100EB8101C9688A07F2D00021B6
:1084C00007AA804604EA050308EB8300641CC06821
:1084D00042F82100491C0229F4D3079800F0030058
:1084E000022806D00128079850D0C04380077DD0CD
:1084F000BEE007985022810D0B91B2EB905F00D83F
:1085000050210F4667F39F50C0F3C20A079008310D
:108510005B4800F03AFA060069D000F07FFA4B465B
:10852000082207A9304600F099FA04EA0501681A02
:108530008000001D09F1080B874220D94F4D0C35F2
:1085400030B1C2B208EB8101381A91460C3104E017
:108550002946FAB2002591462846C7B25B46304606
:1085600000F07CFA0BEB090325B13A462946304668
:1085700000F074FA0B98C01C04EB90043DE008EB8B
:1085800081015B463A4630460C31F1E7C0F3831077
:10859000062800D30620079960F38911C1F38310E0
:1085A000C1F3C20A801C07918100354800F0EDF943
:1085B00006005DD000F032FA4B46082207A930468B
:1085C00000F04CFA09F1080900270DE004EA050063
:1085D00008EB80014B46042230460C31641C00F04D
:1085E0003DFA09F104097F1C079801E00FE03FE024
:1085F000C0F38310B842E9D8D6B3D8F81054D8F8ED
:108600001804474608B3304600F011FA30E0D8F8B5
:10861000180400283FF433AF2AE0687A012813D108
:108620000899184A01EB410102EB8101287A896817
:1086300000EB4000C14001F00700504504D3296819
:1086400028460A68314690476D68002DE5D13046CE
:1086500000F0EDF900208DF800006846FBF74EFCB5
:10866000D7F8180400B97C609DF80000FBF76AFC9D
:10867000FBF720FD80F0010001E70000682B0020DF
:1086800014B20200AC22002000231A4601F0DCBD27
:1086900008B5012300926A4601F0D6FD08BD1CB55D
:1086A000CDE9002302236A4601F0CEFD1CBD000087
:1086B0002DE9F0470E4680461C46924608293ED8D2
:1086C00094F80C90002020731946104600F08AFFA1
:1086D0000025B54206D218F805201AA12046FFF75A
:1086E00031FC03E019A12046FFF72CFC6D1C082D7E
:1086F000EFD317A12046FFF725FC0025B54210D285
:1087000018F80570FAF782FF0068C05D10F03E0FA0
:1087100001D03A4600E02E220EA12046FFF712FCBF
:1087200003E00DA12046FFF70DFC6D1C082DE5D3DD
:1087300001222146504600F037FF84F80C90BDE836
:10874000F087000020253032780000002020200033
:108750007C00000025630000200000002DE9F047A8
:108760001D484FF00009FF21C0F80090C0E90191B9
:10877000C0F81894C0F8149480F81C94174800F0BE
:1087800054F9002826D11649DFF85880A1EB0800DB
:10879000C70800241BE0002635460CE0AC4209D097
:1087A00058F8340058F835101422FAF7D1FF002891
:1087B00000DD761C6D1CBD42F0D30B4904EB440078
:1087C00001EB8000C0F8049004804680641CBC4229
:1087D000E1D30020BDE8F087682B002014B202002E
:1087E0000CC30200CCC20200AC22002002480349A4
:1087F000401AC008704700000CC30200CCC202003F
:108800007FB505461146002401A87BB1FEF756FB53
:10881000A0B901980B4900EB400001EB800005EB8B
:1088200045018068C84000F0070407E0FEF746FBFA
:1088300020B90548019900EBC100847904B02046B5
:1088400070BD0000AC220020CCC2020030B50F4B3E
:1088500001EB410103EB810400EB40000723A56815
:1088600003FA00F18D4302F00701814029430025FE
:108870002A46A16003FA02F00840D040A84200D97D
:108880000546D21C0A2AF5D3656030BDAC22002013
:1088900013B56846FEF712FB08B100201CBD024864
:1088A000009950F831001CBDCCC2020070B50848D8
:1088B0000125D0F8104480F81C5405E06572216849
:1088C0002046496888476468002CF7D170BD0000D5
:1088D000682B00202DE9FF4781460C9D00200C46A7
:1088E0002F7B2873984616462946184600F07AFED4
:1088F000072E42D2DFE806F004090F161F2A3600C1
:1089000049462846FFF71EFB37E0494628462268BD
:10891000FFF718FB31E0D4E9002349462846FFF76A
:1089200011FB2AE0A0680090D4E9002349462846BC
:10893000FFF708FB21E0D4E90201CDE90001D4E909
:10894000002349462846FFF7FDFA16E004F1080027
:1089500007C88DE80700D4E9002349462846FFF7F9
:10896000F1FA0AE004F108000FC88DE80F00D4E91D
:10897000002349462846FFF7E5FA002229464046EB
:1089800000F012FE2F73BDE8FF872DE9F041058A44
:1089900080462D1F4819C01CB0FBF5F0C6B24046FA
:1089A000FEF73DFB040019D000202071012060710A
:1089B000E58000272546761EC4F800800BE040467F
:1089C000FEF72DFB60B16179491C61712860054695
:1089D0007F1CC0F80080B742F1D32046BDE8F0818B
:1089E000204600F002F80020F8E72DE9F041457933
:1089F00001466B1E002201E00968521C9A42FBD31B
:108A00000F680146002605E038460C68FEF729FB92
:108A10002146761CAE42F7D3BDE8F08108B50121AE
:108A20006A46001DFAF729FD08BDFEF732BB38B5CE
:108A30000446001D01216A46FAF72CFD009810F04B
:108A4000FF0F04D12046BDE83840FFF7CEBF38BD48
:108A500038B501240094FEF7E2F938BD38B500249A
:108A60000094FEF7DCF938BD70472DE9F843044661
:108A7000002790460E468DF800706846FBF73EFAD8
:108A8000204600F039F838B105279DF80000FBF7C3
:108A900059FA3846BDE8F88320680568B8F1000F38
:108AA00005D10168204600F046F821680860E268B8
:108AB000012A0CD0022A0ED0042A11D06068082A9C
:108AC00013D005FB02013046FAF7F2FDDDE76068DE
:108AD000405D3070D9E7606830F815003080D4E729
