:020000040000FA
:10000000C02900204D0300005503000057030000E5
:10001000590300005B0300005D03000000000000C6
:100020000000000000000000000000005F0300006E
:10003000610300000000000063030000650300008E
:100040002506000067030000B109000067030000F7
:1000500067030000670300004D0400006703000011
:1000600067030000670300006703000067030000E8
:1000700067030000670300006703000067030000D8
:10008000670300008D06000067030000670300009F
:10009000B10600006703000067030000670300006B
:1000A00067030000670300006703000067030000A8
:1000B0007D06000067030000000000000000000053
:1000C0006703000067030000670300006703000088
:1000D00067030000670300006703000000000000E2
:1000E0000000000000000000000000000000000010
:1000F0000000000000000000000000000000000000
:1001000000000000000000000000000000000000EF
:1001100000000000000000000000000000000000DF
:1001200000000000000000000000000000000000CF
:1001300000000000000000000000000000000000BF
:1001400000000000000000000000000000000000AF
:10015000000000000000000000000000000000009F
:10016000000000000000000000000000000000008F
:10017000000000000000000000000000000000007F
:10018000000000000000000000000000000000006F
:10019000000000000000000000000000000000005F
:1001A000000000000000000000000000000000004F
:1001B000000000000000000000000000000000003F
:1001C000000000000000000000000000000000002F
:1001D000000000000000000000000000000000001F
:1001E000000000000000000000000000000000000F
:1001F00000000000000000000000000000000000FF
:10020000DFF80CD000F0E4F8004800470D1A0000B9
:10021000C029002030B4044654E8000F0D4644E8DD
:100220000053002BF8D1156030BC704730B4044641
:1002300054E8000F40EA010544E80053002BF7D1D1
:10024000156030BC704730B4044654E8000F00EA33
:10025000010544E80053002BF7D1156030BC70470E
:1002600030B4044654E8000F80EA010544E8005326
:10027000002BF7D1156030BC704730B4044654E809
:10028000000F00EB010544E80053002BF7D1156087
:1002900030BC704730B4044654E8000FA0EB0105B1
:1002A00044E80053002BF7D1156030BC70470000C4
:1002B00030B4044654E8000F0D4644E80053002BC8
:1002C000F8D1156030BC704730B4044654E8000FD4
:1002D00040EA010544E80053002BF7D1156030BC1B
:1002E000704730B4044654E8000F00EA010544E8C2
:1002F0000053002BF7D1156030BC704730B4044672
:1003000054E8000F80EA010544E80053002BF7D1C0
:10031000156030BC704730B4044654E8000F00EB61
:10032000010544E80053002BF7D1156030BC70473D
:1003300030B4044654E8000FA0EB010544E8005334
:10034000002BF7D1156030BC70470000064880478D
:1003500006480047FEE7FEE7FEE7FEE7FEE7FEE7AA
:10036000FEE7FEE7FEE7FEE7B5060000010200003B
:10037000004870472037000040EA01039B0703D084
:1003800009E008C9121F08C0042AFAD203E011F8D4
:10039000013B00F8013B521EF9D27047D2B201E096
:1003A00000F8012B491EFBD270470022F6E710B57A
:1003B00013460A4604461946FFF7F0FF204610BDD3
:1003C000421C10F8011B0029FBD1801A7047000065
:1003D000064C074D06E0E06840F0010394E8070092
:1003E00098471034AC42F6D3FFF70EFFB437000045
:1003F000D437000070B58C1810F8015B15F00703B6
:1004000001D110F8013B2A1106D110F8012B03E0AD
:1004100010F8016B01F8016B5B1EF9D12B0705D4B5
:100420000023521E0DD401F8013BFAE710F8013BFE
:10043000CB1A921C03E013F8015B01F8015B521E1A
:10044000F9D5A142D8D3002070BD00002DE9F047B6
:1004500000268CB0DFF86091B0464FF4807501241F
:1004600037460696284602F0DBF838B1D9F804037F
:10047000204203D0284602F0C9F826432D1D64000F
:100480007F1CADB2082FEDD34FF4BE74204602F0AE
:10049000C7F848B1204602F0B9F846F0004606AA6F
:1004A0000121002002F09EF8444D16F0FF0F15D0F8
:1004B0000127002437420DD009EB8401D1F8100543
:1004C000D1F81015C0F3042055F82420C1F30141E0
:1004D00002B190477F00641C082CEBD3002E67DA32
:1004E0004FF0FF30CDE9088000263446281910F877
:1004F000507F90F9000027F0C008401C44D009A9A3
:10050000404601F06AFB58B34FEA9719404600F0A5
:10051000D3FD55F820701FB1B9F1030F03D00FE0E0
:10052000B9F1030F30D108A84FEAD80208F0070349
:10053000815C4FF0010C0CFA03FC41EA0C01815480
:100540004FF0A04101EB8800D0F8000706A9C0F3E6
:10055000014A404601F041FB18B1BAF1020F03D045
:1005600012E0BAF1030F0FD1B9F1030F08D1BAF1BC
:10057000020F1BD00221404602F018F8761CF6B29A
:1005800017B149464046B847641C042CAED3002E30
:100590000ED06A460121002002F024F80699009846
:1005A000884205D00690089809909DE70321E2E76C
:1005B0000CB0BDE8F087000000600040DC020020C5
:1005C00000F01F02012191404009800000F1E0206D
:1005D000C0F88012704700F01F02012191404009CD
:1005E000800000F1E020C0F80011704700F01F0209
:1005F000012191404009800000F1E020C0F8001284
:1006000070474907090E002806DA00F00F0000F1D4
:10061000E02080F8141D704700F1E02080F80014FD
:10062000704700002DE9F0414FF48077384601F023
:10063000DCFA0124104EA50748B1384601F0DCFA77
:100640000120C5F808037470002000F03DFD4FF450
:100650008277384601F0C9FA00280BD0384601F0FD
:10066000CBFA0220C5F80803B470BDE8F0410120C0
:1006700000F02ABDBDE8F081C8020020014902480F
:1006800001F0A4B88000002000C00140074800210C
:10069000C0F84011C0F84411C0F84811C0F84C111E
:1006A000C0F80011C0F8041102F03CBD0010014078
:1006B00002F08ABCF0B5AE480023021D0178012586
:1006C000101D4FF0805406290BD11678360708D13B
:1006D0000678C6F30316032E06D0042E04D0052E8A
:1006E00002D0062907D00EE0B4F82463A14FC6F368
:1006F00004263E6002E01678360704D10678C6F379
:100700000316032E02D0062904D00FE09B4F9A4E09
:100710007E670EE01678360708D10678C6F3031612
:10072000032E06D0042E04D0052E02D0062907D0B1
:100730000EE0D4F84462924FC6F342363E6002E0C7
:100740001678360704D10678C6F30316032E02D0B6
:10075000062906D011E08B4E376827F08077376086
:100760000EE01678360708D10678C6F30316032E76
:1007700006D0042E04D0052E02D006290AD011E09E
:100780004FF08046C6F80C31C6F810317C4E361F4B
:10079000336002E01678360704D10678C6F30316F4
:1007A000032E02D0062905D00CE0754F03266437CE
:1007B0003E600AE01678360704D10678C6F30316C1
:1007C000032E02D006290DD014E06F4F05263E609F
:1007D0006D4E783635606C4E083633603F263F1DCF
:1007E0003E6002E01678360704D10678C6F3031699
:1007F000052E02D0062957D062E0644E3668644F59
:100800003E60624E361D36683F1D3E605F4E0836C4
:1008100036683F1D3E605D4E0C3636683F1D3E60BB
:100820005A4E103636683F1D3E60584E14363668B4
:100830003F1D3E60554E18363668554F20373E6096
:10084000524E1C3636683F1D3E60504E203636688C
:100850003F1D3E604D4E243636683F1D3E604B4E78
:10086000283636683F1D3E60484E2C3636683F1DA0
:100870003E60464E30363668454F40373E60434E08
:10088000343636683F1D3E60404E383636683F1D70
:100890003E603E4E3C3636683F1D3E603B4E403625
:1008A00036683F1D3E6002E01678360708D10678AC
:1008B000C6F30316032E06D0042E04D0052E02D054
:1008C000062907D019E0D4F85812324A01F04F0136
:1008D000116002E0117809070FD10078C0F303100E
:1008E000032803D0042801D0052806D12A4801682E
:1008F000C90702D06FF00101016022487438016815
:1009000041F470010160BFF34F8FBFF36F8F4FF061
:100910001021D1F80002002803DBD1F804020028DE
:1009200022DA1E4A15601E480468002CFCD01524EB
:10093000C1F800420568002DFCD0C1F804420168EE
:100940000029FCD0136001680029FCD0BFF34F8F51
:100950000C48F0380168134A01F4E061114301606A
:10096000BFF34F8F00BFFDE710490F480860F0BD8F
:10097000E00F00F0403501400DF0ADBA00C0074077
:100980003C050040FCED00E010560040040400105F
:1009900020C50040E40E00400004004004E5014092
:1009A00000E401400400FA050090D0031401002087
:1009B0000448017F04480029024901D002F0C7BC65
:1009C00002F036BC340300200020004002E008C8DA
:1009D000121F08C1002AFAD170477047002001E0B9
:1009E00001C1121F002AFBD17047704770B5002467
:1009F000064D06E06868012110F8340001F0C6F9E0
:100A0000641C28788442F5D3002070BD8800002043
:100A1000F8B515460C460646052A01D20720F8BD52
:100A200001F09AFA18B901F069FA0028F7D11049D3
:100A300000204E600C70C1E902500E4D08610DE0BF
:100A400006EBC4006968009181788DF80110007888
:100A5000094A694601F0ECF90028E0D1641EE4B2CD
:100A6000EED2BDE8F840054A0021024800F052B835
:100A7000880000204436000055160000B51500001F
:100A800070B514460D46064600F071F92246294617
:100A90003046BDE8704000F00BB80EB50021009163
:100AA000CDE901106A4644F20100FFF7E9FF0EBDEF
:100AB00008B501238DF800309DF80030144B186004
:100AC00059609A606FF48041401807D001280FD117
:100AD000DA60D86800889861D86807E01A611869F8
:100AE0008068586118690088986118694068D86101
:100AF000186858689868D868186958699869D869F2
:100B000072B600BF9DF800000028FBD162B608BD98
:100B100074030020074B9B7823B12AB120B10068F1
:100B2000037C1BB108207047072070474174426165
:100B3000002070479403002070B502F07FF9104840
:100B400000240B21047044700E4D817014206C60E1
:100B50002C706C70FFF734FD07211420FFF751FD56
:100B60001420FFF738FD0848046007211120FFF723
:100B700048FD0548001F0068A860002070BD000007
:100B8000940300209C000020081501402DE9F84343
:100B9000DFF8709099F802305BB350B3052902D2A8
:100BA0000720BDE8F88343691BB3437C012B22D0A7
:100BB00000270446002588461646284600F036F8E9
:100BC000684602F097FCC0B1012101700E494460F3
:100BD0000968C0E90218C0E904769DF8000089F8A8
:100BE0000100002000F024F81420FFF7FFFC284645
:100BF000D7E70820D5E70F46DBE70425002000F003
:100C000017F8F4E794030020041501400649897899
:100C100039B130B1416921B100210174022102F0E2
:100C200061BA0820704700009403002000F002B869
:100C300000F008B872B602480168491C01607047AC
:100C4000B000002003490868401E086000D162B669
:100C500070470000B00000202DE9F041064608680A
:100C60000C46411C4FF0A0474FF0010506D005FA95
:100C700000F1C7F80815206801F08EFC6068411C7F
:100C800002D0002101F07FFC3079204901EB4010B7
:100C9000A169007F00283068C0F8241525D0607D48
:100CA000227D31681043C1F86C05D4E90012306828
:100CB000C0F80C15C0F8142524E0A068411C02D02F
:100CC000002101F060FCE068411C05D08540C7F8B8
:100CD0000855E06801F060FCD4E902123068C0F801
:100CE0000825C0F81015BDE8F081607D217D3268CF
:100CF0000843C2F86C05D4E900123068C0F8142526
:100D0000C0F80C15207D0128D7D0ECE73403002073
:100D10000249085C012101F05ABC000017360000AE
:100D20000249085C002101F052BC000017360000A7
:100D30007CB50024084E25460122305D0095002335
:100D40001146019501F0E0FB641C042CF4D3BDE8CE
:100D50007C4000F003B800001736000010B50024F6
:100D60002046FFF7D5FF641C042CF9D310BD10B545
:100D700000242046FFF7D4FF641C042CF9D310BDD7
:100D800010B50246064B4FF0FF3000215C5C9442E8
:100D900001D1084610BD491C0329F7D310BD00003E
:100DA000143600002DE9F05F884606460024FFF760
:100DB000E7FF054603284DD2DFF89CB0DFF89C9092
:100DC000274FABF1040AB8F1000F1AD0B8F1010FA8
:100DD00009D0B8F1020F3DD100EB40003844042E99
:100DE000447835D029E0042E03D1D9F80800FFF764
:100DF0000DFF05EB45003C5C384481780BF805108D
:100E00001BE0042E03D0D9F80800FFF7FFFE05EB26
:100E1000450038441BF805108078814200D1044613
:100E2000042E0AD10C4A4FF4C031521ED9F80800E2
:100E3000FFF7ACFE08B98AF80360002C0AD000BFA7
:100E4000DAF80C10002905D02046BDE8F05F08470D
:100E50001524F5E7BDE8F09F740000201C36000063
:100E60009C020020FFF7C2BD70B50023032810D2FA
:100E70000D4D00EB4004012A02D101290CD00022C3
:100E8000094E00EB4000304461B1012906D002292F
:100E900006D00723184670BD0E30C2B22A55F9E7B6
:100EA0004270F7E78270F5E79C02002070B586B0CB
:100EB0000646142219496846FFF75EFA184C0025C9
:100EC0000E2E617806D00F2E25D1042908D2491C98
:100ED000617006E009B1491EFAE70420607000E085
:100EE00065702078C00703D00D48001D01F0FCF8A4
:100EF0002078800703D50A480C3001F0F5F82078F7
:100F0000400703D50648143001F0EEF825706178EB
:100F10005DF82100804706B070BD0000003600007B
:100F20000000002070B506461E480024C0E902619A
:100F3000B00720D50025012211462846FFF794FF6F
:100F40006D1C0446032D02D2002CF4D013E094B99A
:100F500040F2666203211448FFF75AFD04000AD1EB
:100F6000FFF744FD040006D10F48104A0021001F7E
:100F7000FFF7D0FD0446F00701D0FFF7D9FE74B9A2
:100F800009480B4A00210C38FFF7C4FD040006D1C4
:100F90000548084A01210838FFF7BCFD04462046F1
:100FA00070BD000070000020283600004D100000C9
:100FB0007F180000EB0900002DE9F041871C0E4668
:100FC00001250020FFF732FE124C20683060D4E982
:100FD0000001401AA168091ABE1C06E000F0CCFC12
:100FE000D4E90001401AA168091A491C8E42F5D8BB
:100FF000A1682068084004EB8000C16841F003014B
:10100000C1602068384420600020FFF711FE2846A8
:10101000BDE8F081A005002030B482680468531C4C
:101020008360A154D0E901128A4202D330BC01F09E
:1010300072B930BC70470000034803C8814201D137
:101040000120704700207047A00500200078022191
:10105000FFF7A8BE05494FF0FF32082841F82020CD
:1010600002D3084480F8482070470000DC020020CA
:10107000F0B54FF0FF3512B10023082601E0082338
:101080000C260C4C05E000BF54F823707F1C04D0E4
:101090005B1CB342F8D32846F0BD26185DB286F833
:1010A000305044F82310002AF5D1E11881F84800A7
:1010B000F1E70000DC0200200249084490F930000A
:1010C00070470000DC02002070B5084C050009D014
:1010D00010342168002907D0086820604968284634
:1010E0008847F6E70834F4E770BD0000C802002026
:1010F0002DE9F05F26484168F1B3DFF898B00E683B
:101100008146DBF8004087688078E11B21F07F454D
:10111000ED1CB0B9DFF880804FF48030C8F844038C
:10112000C8F804031120FFF74BFA1120FFF753FA18
:101130004FF0010AC8F800A02F2000F065FD89F8E3
:1011400002A0B54200D23546124BE8193C3320F0DC
:101150007F401860DBF800105A46091B21F07F41E0
:10116000001B20F07F40C91C81420FD91068186015
:101170002F2000F049FD00E004E0BDE8F05F112001
:10118000FFF734BABDE8F05F01F058BEBDE8F09F4C
:101190009C0000200415014000100140FFB5002311
:1011A00001244FF0A0456E46CA5CFF2A12D0D70931
:1011B00022F0800246F8232004FA02F702D0C5F894
:1011C000087501E0C5F80C7505EB82020327C2F82B
:1011D000007703E04FF0FF3246F823205B1CDBB2C0
:1011E000042BE1D3016832465FF0000001EB80047C
:1011F00052F82030C4F86035401CC0B20428F5D342
:10120000FFBD00000EB515480321008801EB00402A
:1012100013A101F0D3FB144A07CA8DE80700134A53
:101220006946134800F0D8FE08B1FFF736FC104AB3
:101230000223121F02F11C01107840F0010010700F
:101240000020088048808880C8809070064901226C
:101250001039074800F010FF0EBD000054010020B7
:1012600044656D6F203100003435000075120000B8
:101270000400002070B5002822D112484FF000026F
:1012800000F11C0483785D0813F0010F34F8151089
:1012900004D0C8390904090C06D006E0C83189B267
:1012A00042F21076B14200D3012224F81510002A30
:1012B00006D05B1CD9B28170082901D3002181704E
:1012C00070BD00000000002010B5204803218CB044
:1012D000008801EB00401EA101F070FB1E4C09AB21
:1012E00004F11C0007C883E80700002209A91B4875
:1012F00000F072FE08B1FFF7D0FB1848184B001F32
:101300004FF4C872017841F00101017000210846D4
:10131000114489B223F81010401CC0B21928F7D329
:1013200028340DF1040C0FCC8CE80F0094E80F006A
:101330000DF1140C8CE80F0002200090012305AA87
:1013400001A9064800F01AFE0CB010BD540100209F
:1013500044656D6F20320000243500000400002039
:101360006001002010B51548032188B0008801EB0A
:10137000004013A101F022FB134C04AB04F1480020
:1013800007C883E80700002204A9104800F024FEE3
:1013900008B1FFF782FB0D485434001F017841F07B
:1013A0000101017094E80F008DE80F000123032272
:1013B0006946064800F060FE08B010BD54010020E8
:1013C00044656D6F203300002435000004000020C8
:1013D000F0B5574803219BB0008801EB004055A1B0
:1013E00001F0ECFA554E02AB06F16400FF2407C889
:1013F00083E8070091208DF808008DF809409220BD
:101400008DF80A0007208DF80D0047F61220ADF880
:10141000100001208DF812008DF80B40002202A967
:10142000474800F0D9FD08B1FFF737FB444D05AF41
:101430002D1F7036287840F00100287096E80F00C4
:1014400087E80F0004208DF80D00002041F2883657
:10145000ADF810603B4A8DF8120001466423194430
:1014600089B222F8101002EB400C771A401CC0B26F
:10147000ACF864703228F2D38DF808408DF809403A
:1014800093208DF80A002E488DF80B40002202A907
:10149000083000F0A1FD08B1FFF7FFFA2878274EC9
:1014A00040F00200803628700FCE09AF87E80F00A9
:1014B00096E80F000DAF103E87E80F008DF808404A
:1014C0008DF809408DF80A4094208DF80B001C48D7
:1014D000002202A9103000F07FFD08B1FFF7DDFA0D
:1014E0002878203640F0040028700FCE11AC84E834
:1014F0000F0096E80F0015AC84E80F0002230122CC
:1015000005A90F4800F0B8FD0D48022401230DAADB
:1015100009A90830009400F031FD0948012315AAFB
:1015200011A91030009400F029FD1BB0F0BD00009F
:101530005401002044656D6F203400002435000004
:10154000040000209201002010B51548032188B046
:10155000008801EB004013A101F030FA134C04ABFA
:1015600004F1400007C883E80700002204A91048DE
:1015700000F032FD08B1FFF790FA0D484C34001F1F
:10158000017841F00101017094E80F008DE80F002F
:10159000022301226946064800F06EFD08B010BD26
:1015A0005401002044656D6F20350000A435000013
:1015B000040000202DE9F04100260125144C22E012
:1015C0006068226900EBC607387805FA00F111421D
:1015D00017D08A43226100F087FC02463878E3681E
:1015E00005FA00F1194002FA00F3994209D179781D
:1015F000012901D0012100E0002151407A6802B1A7
:101600009047761CF6B220788642D9D3BDE8F081A7
:10161000880000200E4910B50A784C780023A242B9
:1016200012D0521CD2B20A70022A00D10B70084AA2
:101630000B780C3252F8232002608868104420F0A6
:101640007F408860012010BD0360002010BD0000B5
:101650009C0000202DE9F041124E07460125BD40B7
:101660003068FFF7D3FA00280DD10F4C20692842CB
:1016700007D1384600F038FC0028E06805D0284340
:1016800004E0A8432061BDE8F081A843E060206940
:1016900028432061A1683068BDE8F0410022FFF7CF
:1016A00075BA000044360000880000202DE9FC5F78
:1016B0000E008346DDE90C47C6F1000098469246CD
:1016C000814600D40846012503E000BF90FBFAF0F4
:1016D0006D1C5045FADAA84500D9454624B1002EC4
:1016E00001DB780700D5641EB80702D5B8F1000FFA
:1016F0000AD0F80708D13CB1A54205D220215846AE
:10170000641EFFF789FCF6E7002E02DA4E462D2113
:1017100002E0780703D52B215846FFF77DFC07F040
:10172000030002280BD1B8F1000F08D13CB1A5424B
:1017300005D230215846641EFFF76EFCF6E7CDE96E
:101740000047434652463146584601F079FEBDE80F
:10175000FC9F000070B50E460446007918494FF40E
:10176000A27501EB4010017F2068A1B14FF4887190
:1017700001F0BEFA4FF49071206801F0B9FA4FF40D
:101780009271206801F0B4FA2946206801F0B0FA9D
:101790000C49206809E04FF48E7101F098FA29464F
:1017A000206801F094FA08492068C0F80413206802
:1017B00000F0E9FA3146BDE8704000F0C8BA000018
:1017C00034030020100302008000020070B50C46B4
:1017D0004FF488760546314601F05AFA50B1314649
:1017E000284601F05AFA6079400703D5216809B10B
:1017F000012088474FF48A763146284601F048FA9E
:1018000050B13146284601F048FA6079000703D507
:10181000216809B1022088474FF48E763146284668
:1018200001F036FA50B13146284601F036FA6079B7
:10183000C00603D4216809B1002088474FF482769E
:101840003146284601F024FA00280CD031462846BB
:1018500001F023FA012020712168002903D0BDE89E
:1018600070400320084770BD0268134602E08A42B8
:1018700004D01268002AFAD10B60016070477047EB
:101880002DE9F047394E002780463D46DFF8E090CD
:10189000D6F804A057E003D00446D0F81C8035E009
:1018A00099F8002002EB4201521CD2B289F80020C4
:1018B00009EBC10199F80230091D9A4201D189F85A
:1018C000005048680A780446012A12D0022A02D041
:1018D000032A3BD108E001F0D5FB00B101272574B4
:1018E00034E00574C06900E070680028F9D17060C8
:1018F0002CE0207C50BB88686060C868A0600869E4
:10190000E0604869A061F07800B165606268B16824
:10191000184B501A20F07F40984202D2A168084428
:1019200006E0881AA16820F07F40814202D9081A97
:10193000206000E0256065600120A56020742046DD
:10194000E56101F081FBB8F10000A4D199F8001025
:1019500099F801008142A3D117B97168514502D0AD
:101960000120BDE8F0870020FBE700009C0000207C
:1019700094030020FFFF7F0070B588B0214800F07D
:10198000D9F82048001F064600F0D4F81E4DD5E9CE
:10199000014105E0C0F3891202EB9050641C04443D
:1019A00004EA010005EB8000C0688207F2D0002045
:1019B0000DF1080204EA010305EB8303641CDB68F4
:1019C00042F82030401C0228F4D3029800F00300B3
:1019D000012808D002280AD10298032101EB905077
:1019E00004EB900403E00298C0F3831004443046F3
:1019F000002101AAFEF775FC002800D06C6008B039
:101A000070BD0000B8090020A005002000F042F9D8
:101A100008B1FFF742F8002000F05EF9FFF78CF8FC
:101A200008B1FFF73AF813490220FFF77BFA08B133
:101A3000FFF733F8FFF716FA08B1FFF72EF800208A
:101A400001F016F808B1FFF728F800F0B7FE0A48D1
:101A50000321008801EB004008A100F0AFFFFFF771
:101A6000D1FB20BF40BF20BF00F0B6FE0028FBD155
:101A7000F7E70000AD0E00005401002050574D2044
:101A80006578616D706C65002DE9F047C788044684
:101A9000181D16468946B0FBF7F1B0FBF7F207FBBD
:101AA00012009A193A44D21CB2FBF7F2DDF820A0DA
:101AB00001E02468491E0029FBD13D1A8846B54241
:101AC00016D818E0BAF1000F05D0211809EB08006C
:101AD0002A46091D04E0204409EB08012A46001D9E
:101AE000FEF74AFC00202468761BA844B74201D9BF
:101AF000354600E03D46002EE4D1BDE8F087000009
:101B000030B5024669B100F0E1FF0021084C0BE05E
:101B100001EB410304EB830315685B88AB4202D100
:101B20001160002030BD491C8142F1D3052030BD39
:101B30001801002008B501216A46FEF7C5FB009890
:101B400008BD70B5044600252846FFF76FF82168E8
:101B50006268086890420ED9401E08600178238AA6
:101B6000E26801FB0325227A2168101AC0B20A79C3
:101B7000824200D208710020FFF75AF8284670BD53
:101B800070B505460C460020FFF750F8E868298A32
:101B9000201AB0FBF1F12A681068431C1360017031
:101BA000BDE870400020FFF743B810B530B1017AAE
:101BB00042680368891AC9B21A6006E00E2010BD97
:101BC00003681A68541C1C601170491EC9B2F7D210
:101BD000006800210171084610BDC20800F007032B
:101BE0000120895C98400840704700F180400068FF
:101BF000002800D00120704708B500F18040002186
:101C000001600068009008BD00283ED01F49204AAE
:101C1000096800BF00BF00BF00BF00BF00BF00BF1A
:101C200000BF91422FD000BF00BF00BF00BF00BF68
:101C300000BF00BF00BF00BF00BF00BF00BF00BFAC
:101C400000BF00BF00BF00BF00BF00BF00BF00BF9C
:101C500000BF00BF00BF00BF00BF00BF00BF00BF8C
:101C600000BF00BF00BF00BF00BF00BF00BF00BF7C
:101C700000BF00BF00BF00BF00BF00BF00BF00BF6C
:101C800000BF00BF00BF0138C3D17047140100205E
:101C90000024F40070B50E4C0025207808B185258D
:101CA00013E00021A16061602161E1604FF0E0205C
:101CB000D0F80001012610F0010F03D10721002008
:101CC00000F045F8034806602670284670BD000005
:101CD000C80200201805004070B5154D0446A878CC
:101CE00038B114B16168012088470020FEF79EFFDB
:101CF00015E00020FEF79AFF24B10D482146103070
:101D0000FFF7B2FDE86850B94FF48270FFF774FF37
:101D100002204107C1F80403064901200860E86871
:101D2000401CE860BDE870400020FEF781BF000065
:101D3000C80200200800004000F01F02012191406D
:101D40004009800000F1E020C0F880117047490789
:101D5000090E002806DA00F00F0202F1E02282F8F4
:101D6000141D03E000F1E02282F8001400F01F02CD
:101D7000012191404009800000F1E020C0F880126C
:101D8000C0F800117047000B40B270472DE9F041D8
:101D90008846054600F0B2FF234E002828461AD098
:101DA000FFF78AF9304490F848008009032802D0F0
:101DB00001280ED007E04FF0A040D0F81005E84011
:101DC00010F0010F05D003212846BDE8F04100F0D6
:101DD000EDBB0221F8E700F09DFF002822D0284645
:101DE000FFF76AF904464FF4807000EB84000F4F50
:101DF00081B207EB8400D0F8102542F00102C0F850
:101E00001025084600F002FCB8F1000F0AD0284661
:101E1000FFF752F956F82000002803D00120A04017
:101E2000C7F80403BDE8F081DC0200200060004038
:101E30002DE9FC41DFF8A480044608EB04000027EC
:101E400090F930001346C0170E46401C01D00827F9
:101E500041E0F27819462046FFF70AF90546401C92
:101E600038D0B07850B14FF0A04000EB8400D0F8EB
:101E7000001721F00201C0F8001707E00021737875
:101E8000204600910A46019100F050FBF078C0B165
:101E90001348317800EB8500D0F81025114B1A401B
:101EA000C0F810254FF4F8524FF4403302EA0422F0
:101EB00003EA01410A43D0F810150A43C0F810257F
:101EC00009E008EB0500327810F8481F41EA82115A
:101ED000017000E004273846BDE8FC81DC020020E8
:101EE00000600040FFE0FCFF4FF0A041D1F810156A
:101EF000C14011F0010000D00120704770B5144DB1
:101F000095F8540008B1082070BD0020411E2A1821
:101F1000401CC0B282F830102028F8D3002420469C
:101F2000FFF798F8641CE4B20C2CF8D307210620C4
:101F3000FFF70DFF4FF4BE7000F068FB05494FF04E
:101F40000040C1F80403012085F85400002070BD52
:101F5000DC02002000600040034890F85400002894
:101F600000D0012070470000DC0200200121B1EB0D
:101F7000507F01D101207047002070472DE9F041CA
:101F8000904604460079134A1F4602EBC0060A46F3
:101F9000069D0021206800F086FE4246012120684F
:101FA00000F081FE2068C0F81475E80701D0102009
:101FB00004E0A80701D5042000E000202168C1F852
:101FC0000002EAB231462046BDE8F041082300F0A5
:101FD0008DBF0000800000202DE9F0410D46044631
:101FE0000079244901EBC006307910B10820BDE822
:101FF000F081294620463260FFF7D0F8206801279B
:10200000C0F8007520686B79AA792989C0F80C3569
:10201000C0F80425C0F80815AA7AE87A216842EACF
:102020000020C1F8100520680021C0F800122068C7
:10203000C0F800134FF48E71206800F02EFE4FF4AC
:102040008871206800F029FE4FF48A71206800F042
:1020500024FE4FF48271206800F01FFE306828B122
:1020600020682979000B40B2FFF771FE377100201C
:10207000BDE70000800000202DE9F0410F46044636
:1020800000791849164601EBC0081D463A46002162
:10209000206800F008FE3A460121206800F003FEA7
:1020A000206806F0010101EB5602C0F81425E8078C
:1020B00001D0102007E0A80704D509B1082002E0EC
:1020C000042000E000202268C2F8000209B10C23BD
:1020D00000E00823EAB241462046BDE8F04100F0A6
:1020E00005BF00008000002010B501790A4A0123D5
:1020F00002EBC1020168090B49B201F01F04A340C1
:102100004909890001F1E021C1F88031006800210E
:10211000C0F80015117110BD800000202DE9F041BC
:1021200005460079164F904607EB40140E46E07EB8
:1021300010B10820BDE8F081707F20772846FEF7B7
:102140008BFD5FEA080060603169216003D0317F58
:102150002846FFF7FFFA287907EB4010007F002898
:10216000286801D0082100E00421C0F800150020F3
:10217000E0752076A0750121E176A076DAE700000F
:10218000340300202DE9F047054600793F4E904684
:1021900006EB40140F46207F18B10846FFF7E6FE15
:1021A00030B1284600F074F820B11120BDE8F08766
:1021B0001020FBE784F81680A7600027A782287903
:1021C0004FF0010806EB40143E46207F00282868A7
:1021D00025D04FF49079494600F08AFD4FF4AC7A4F
:1021E0005146286800F084FD2868A17DA268C0F8E7
:1021F0004425C0F848152868C0F808806068F0B920
:102200004946286800F06FFD80465146286800F076
:102210006AFD58EA0001F3D058BBA7750FE04FF4F0
:102220008E7A514600F053FD2868C0F80880214698
:10223000286800F0B1FF61684FF4807089B13046C2
:10224000B4E75146286800F03DFD10B9A08A484522
:10225000F7D1A08A484505D02146286800F09CFFA8
:1022600000E08146A08AA17D8842EAD3A08A484541
:1022700001D10F26D1E75146286800F023FD002840
:10228000F9D02868C0F80C80C7E7000034030020AC
:102290000079044901EB4010807D002800D0012026
:1022A000704700003403002070B5044600791149DE
:1022B000002601EB401520682A7FC0F80065686899
:1022C00088B1207901EB4010007F0028206801D000
:1022D000094901E008498C39C0F808132068FFF764
:1022E00052FDFFF729FD204600F020FDEE766E60DE
:1022F00070BD000034030020100302000FB408B5C5
:102300000399002904D004AA00926A4600F00FF84D
:1023100001B05DF814FB10B582680446002A05D0B0
:10232000D4E90403216898470020A06010BD2DE97E
:10233000FC4791460C00804676D014F8011B39B159
:1023400025290ED04046FEF767FE20780028F4D1FC
:1023500098F80C00002867D04046BDE8FC47FFF71E
:10236000DABF0020012221782B291BD02D2902D091
:10237000302908D102E040F0010001E040F0020005
:10238000641C002AEFD100252A290ED02178A1F162
:1023900030020A2A11D205EB850201EB4205641CCA
:1023A000303DF1E740F00400EAE7D9F800100B1DDA
:1023B000C9F800300968641C0D44217800232E29D7
:1023C0000BD114F8011FA1F130020A2A05D203EB48
:1023D000830201EB4203303BF3E76C290DD06829FF
:1023E0000BD0692921D00BDC252918D0582931D0F0
:1023F00063290ED0642915D117E014F8011FECE70A
:10240000702969D0732932D075291BD0782909D158
:1024100020E0D9F80000011DC9F8001001784046FD
:10242000FEF7FAFD641C90E76CE0D9F800100A1D75
:10243000C9F800200968CDE900500A224046FFF79C
:1024400035F9EFE7D9F800100A1DC9F8002009682E
:102450000A2206E0D9F800100A1DC9F80020096810
:102460001022CDE90050404600F0EAFFDAE7D9F843
:10247000001000270A1DC9F800200E68C00705D10A
:1024800012E04046761C7F1CFEF7C6FD317800291D
:10249000F7D104E0202140466D1EFEF7BDFDBD4290
:1024A000C0D9002DF6D1BDE74EB13046FDF788FF0B
:1024B000074604E0202140466D1EFEF7ADFDBD42FB
:1024C00006D9002DF6D103E04046761CFEF7A4FDA8
:1024D00031780029F8D1A5E7D9F80000011DC9F825
:1024E0000010056830214046FEF796FD78214046F1
:1024F000FEF792FD08200021CDE9000103461022DD
:102500002946B0E7BDE8FC8770B541EA4201DDE944
:1025100004564FF0A04441EA830141EA052104EB4F
:10252000800041EA0641C0F8001770BD70B541EA6D
:102530004201DDE904564FF0A04441EA830141EA3B
:10254000052104EB800041EA0641C0F8001770BD88
:1025500070B541EA4201DDE904564FF0A04441EA7A
:10256000830141EA052104EB800041EA0641C0F8FD
:10257000001770BD1CB5002100910B46012201918E
:10258000FFF7E6FF1CBD1CB500220B46009211466A
:102590000192FFF7DDFF1CBD1CB5002100910B4629
:1025A000012201911146FFF7D3FF1CBD4FF0A0425D
:1025B00002EB8000D0F8002722F44032C0F8002758
:1025C000D0F8002742EA0141C0F800177047012205
:1025D0004FF0A043824011B1C3F808257047C3F8FB
:1025E0000C25704718B5084B6C4601441B680093D6
:1025F00006E000BF54F82030D3F81035401C08C264
:102600008142F7D818BD000040360000034908B5E4
:102610000844002101600068009008BD006000408F
:1026200002494058012800D0002070470060004057
:1026300030B5124B01460020D3F81044224609E081
:10264000157A854205D1401C0A28F7DB4FF0FF3090
:1026500030BD5268002AF3D1421CF9D00872D3F879
:1026600010242AB152684A60D3F81024516030BD5A
:102670000022C3F810144A6030BD0000A0050020FD
:10268000F0B595B01C4615460F4608461A9E00F058
:10269000D9FA182109A8FDF788FE0E96CDE909544C
:1026A0000023082203A9384600F0E6FA05980690B0
:1026B0000498ADF81C0000208DF82000039808262F
:1026C00000F00300012802D002281DD03CE003984E
:1026D0003346850AC0F3C2008DF81E0003980FA987
:1026E000C0F380008DF81F000398C0F38314A2008C
:1026F000384600F0C1FA09A8009006AB22460FA99F
:10270000284600F0FBF91FE00398840DC0F3C200D7
:102710008DF81E000398C0F380008DF81F00082C70
:1027200001D2254600E0082533462A460FA938463F
:1027300000F0A2FA2E44641B09AB06AA29460FA892
:1027400000F040F9002CEAD1384600F084FA15B0C8
:10275000F0BD7047012000F043BD000010B50448F3
:10276000FFF7A2FDBDE81040002000F039BD0000D9
:10277000B800002008B5034A00924023024AFFF740
:102780007FFF08BDC52E0000A00400200A4A0129D1
:1027900002EBC00007D0022907D0032907D0042983
:1027A00007D000207047022070470420704700794E
:1027B0007047407970470000D437000010B5FFF72C
:1027C000C9FF04210348FFF733FF02490120487283
:1027D00010BD0000C00000202DE9FE4FFEF72CFCCC
:1027E00010B10020BDE8FE8F72480021C0F8181417
:1027F000BFF34F8FD0E9014604EA060100EB8101E7
:102800004FF000090AE000BFC1F3891202EB9151B9
:10281000641C0C4404EA060100EB8101C9688A07C4
:10282000F2D000216A46804604EA060008EB8000E8
:10283000641CC06842F82100491C43460229F3D3B6
:10284000009800F00300022806D0012800984FD01D
:10285000C04380077ED0A8E000985022810D8A46B0
:10286000B2EB905F00D850210D4665F39F50009069
:102870000831514800F09DF907006CD000F0E2F9F2
:102880004B4608226946384600F0FCF904EA060087
:10289000311A8900091D09F1080B8D4221D9454ED5
:1028A0000C3631B1CAB208EB8000691A91460C307F
:1028B00004E03046EAB2002691463146CDB20146E8
:1028C0005B46384600F0DEF90BEB090326B12A46D9
:1028D0003146384600F0D6F90AF1030004EB9004C3
:1028E0003BE008EB80015B462A4638460C31F1E7B5
:1028F000C0F38310062800D30620009960F38911E5
:10290000C1F38310801C009181002B4800F051F925
:1029100007004AD000F096F94B460822694638462F
:1029200000F0B0F909F1080900250DE004EA0600FD
:1029300008EB80014B46042238460C31641C00F041
:10294000A1F909F104096D1C0098C0F38310A84295
:10295000ECD801E00BE028E03FB3D8F81054D8F8E9
:102960001804464690B1384600F075F91DE0D3F8DA
:10297000180400283FF436AF17E0687A012804D124
:102980002A6828463946126890476D68002DF4D1B0
:10299000384600F060F90020FEF748F9D6F8180430
:1029A00000B974600020FEF743F9FEF745FB80F0A4
:1029B000010017E7A00500208836000000231A4612
:1029C00000F0BABA2DE9F0470E4680461C46924602
:1029D00008293ED894F80C90002020731946104620
:1029E00000F0FEF90025B54206D218F805201AA11C
:1029F0002046FFF783FC03E019A12046FFF77EFC89
:102A00006D1C082DEFD317A12046FFF777FC00259A
:102A1000B54210D218F80570FDF7AAFC0068C05D39
:102A200010F03E0F01D03A4600E02E220EA12046C3
:102A3000FFF764FC03E00DA12046FFF75FFC6D1C6F
:102A4000082DE5D301222146504600F0ABF984F869
:102A50000C90BDE8F087000020253032780000009F
:102A6000202020007C0000002563000020000000E2
:102A7000114810B5FF218160002101604160C0F85C
:102A80001814C0F8141480F81C140C4800F0E1F875
:102A900000280FD10A480B490B4B401AC1080020EF
:102AA00005E000BF00EB400223F82200401C8842F2
:102AB000F8D3002010BD0000A005002088360000DB
:102AC00004380000D43700001801002002480349F0
:102AD000401AC0087047000004380000D4370000D6
:102AE00013B56846FFF70CF808B100201CBD02487A
:102AF000009950F831001CBDD43700002DE9FF4784
:102B000081460C9D00200C462F7B28739846164664
:102B10002946184600F064F9072E42D2DFE806F095
:102B200004090F161F2A360049462846FFF7E6FB20
:102B300037E0494628462268FFF7E0FB31E0D4E958
:102B4000002349462846FFF7D9FB2AE0A0680090F9
:102B5000D4E9002349462846FFF7D0FB21E0D4E919
:102B60000201CDE90001D4E9002349462846FFF7D8
:102B7000C5FB16E004F1080007C88DE80700D4E99A
:102B8000002349462846FFF7B9FB0AE004F1080094
:102B90000FC88DE80F00D4E9002349462846FFF707
:102BA000ADFB00222946404600F0FCF82F73BDE83B
:102BB000FF872DE9F041058A80462D1F4819C01C6A
:102BC000B0FBF5F0C6B24046FEF7BBFF040019D0DB
:102BD0000020207101206071E58000272546761EC7
:102BE000C4F800800BE04046FEF7ABFF60B16179AE
:102BF000491C6171286005467F1CC0F80080B742FF
:102C0000F1D32046BDE8F081204600F002F8002014
:102C1000F8E72DE9F041457901466B1E002201E0FD
:102C20000968521C9A42FBD30F680146002605E052
:102C300038460C68FEF7A4FF2146761CAE42F7D357
:102C4000BDE8F08108B501216A46001DFDF715FBBE
:102C500008BDFEF7AABF38B50446001D01216A462B
:102C6000FDF718FB009810F0FF0F04D12046BDE8D7
:102C70003840FFF7CEBF38BD38B501240094FEF7C9
:102C800003FF38BD38B500240094FEF7FDFE38BDC3
:102C90004058002800D00120704708B5002242505B
:102CA0004058009008BD00EB41101368C0F8203573
:102CB0009188C0F824159168C0F82815D168C0F82B
:102CC0002C1570474058002800D00120704708B5E7
:102CD000002242504058009008BDD0F8040308403C
:102CE00000D0012070474058002800D001207047D4
:102CF00008B5002242504058009008BD04490844DD
:102D000090F93000082801DB01207047002070474F
:102D1000DC0200200449084490F93000082801D260
:102D20000120704700207047DC02002070B5034688
:102D300000791B4901EB40101968027F4FF0FF300A
:102D4000002AD1F80C25D1F81465D1F80855D1F82E
:102D5000104504D0C1F80C05C1F8140503E0C1F812
:102D60001405C1F80C051968C1F80805C1F810056B
:102D7000501C02D01046FFF7FDFB701C02D03046FD
:102D8000FFF7F8FB601C02D02046FFF7F3FB681C3E
:102D900004D02846BDE87040FFF7ECBB70BD0000D2
:102DA0003403002010B50C46C17949B11AB109A10C
:102DB0002046FFF7A3FA2046BDE81040FFF7ABBA64
:102DC000007A0028F3D0044804A102682046FFF7E7
:102DD00095FAECE70D0A0000F000002025730000D2
:102DE00070B50446C0790D4600281CD1207A50B138
:102DF000A179A088FFF7CAFC0B4951F820200BA14C
:102E00002846FFF77BFAA0880021FFF769FE0346FA
:102E10000549A079143951F820202846BDE87040B2
:102E200003A1FFF76BBA70BDF0000020257300000E
:102E30003C25733E2025733A2000000070B5012622
:102E400070044FF0E0210025C1F88001084C4010CB
:102E5000C4F84803C4F8080366602F20FEF7D4FEC8
:102E6000A660044C2F20A560FEF7CEFEA57070BDB5
:102E7000001001409C00002070B50546C87D0C463E
:102E800000284FF4847128460AD0FFF720FFD5F8B8
:102E90001805627EE1688854607E401C607670BDD3
:102EA000FFF715FFD5F8180570BD1FB501238DF884
:102EB00000308DF808100192D0E900126846904762
:102EC0001FBD000010B5084C0020D2B22070201D9C
:102ED000FFF758F908B1FDF7E0FD6078002802D04F
:102EE00021780029FAD010BDB400002070B5054645
:102EF00002201E46144608714A71086870B182218A
:102F0000600700D59221200701D541F02001E0069D
:102F100001D521F080012868C0F800134FF48271B8
:102F20002868FFF7BAFE2006286801D5304470BD36
:102F300001218151002070BD2DE9F843214C8846C4
:102F4000054691461F4669461846A668FEF734F8BE
:102F500070B30098811C00220AE000BF01EA060C51
:102F600059F8223004EB8C0C491C521CCCF80C3064
:102F7000BA42F3D30246401C304004EB80002B0CD5
:102F8000C36002EA060004EB8002E80652F80C0F68
:102F900002D540F0040001E020F0040065F3C50014
:102FA00067F3891068F39F2020F00300401C106035
:102FB00094F81C0402E000BFFFF70EFC0028FBD1D0
:102FC000BDE8F883A00500202DE9F84F1D4C002531
:102FD0006846D4E901A6FEF71DFB002738B300239D
:102FE000009A61681CE0D1F800C00846944503D9F6
:102FF000ACEB02020A6015E0A2EB0C02634407602E
:10300000D0F80CC0C1698146BCF1000F08D006EBB6
:10301000030828F07F48C0E9018CC9F81C50054618
:103020000029E0D128466160FEF72AFC03E028462B
:10303000FEF726FC10B15046FEF75AF8E770BDE8DF
:10304000F88F00009C0000200D4B10B5596831B17D
:1030500002680C68A24204D8A21A0A60C1615860D2
:1030600010BD0B4603E00B46C969121B21B10C6869
:103070009442F8D3A41A0C600260C161D86110BDFB
:103080009C0000202DE9F041144E77683D462C4607
:1030900003E0844204D02546E469002CF9D11BE00A
:1030A000D4B1A5420BD1F869706040B90C49012038
:1030B00088600021B160F0702F20FEF7A5FD216827
:1030C000E069E86110B102681144016070688742EC
:1030D00002D00120BDE8F0810020FBE79C00002029
:1030E00000100140F8B5064600240D462046FDF7C5
:1030F0009DFD684600F0FEF968B10570084946601C
:103100009DF8000048700020FDF792FD1420FDF7A7
:103110006DFA2046F8BD04240020FDF789FDF8E78C
:10312000940300202DE9F041194D6C68002C2CD03F
:10313000184800270068A968B846401A20F07F4662
:103140002068B0420CD82146361A0744E469087C4E
:1031500020B181F81080886949698847002CEFD137
:1031600029786878814206D1401CC0B26870022874
:1031700001D185F80180064869780C3040F821704B
:10318000BDE8F0411420FDF731BABDE8F081000040
:103190009C0000200415014070B50C4605464FF414
:1031A0008E71FFF794FDA18AA068415CA08A401C43
:1031B000A082C5F81C1570BD1FB500228DF8002037
:1031C0008DF80810816801918275D0E90012684677
:1031D00090471FBD0149012008707047B4000020CE
:1031E00010B588B0044620220E496846FDF7C4F8A1
:1031F00006200090C01F0190029003904FF0EB70EA
:1032000006900CB1084A00E0002269460748FEF724
:1032100085FF08B1FDF741FC0448001F447008B069
:1032200010BD000068360000D5310000B800002055
:103230002DE9FF470C4605464FF40071FFF74DFDA1
:1032400001274FF40178002618B34FF492794946CC
:103250002846FFF737FDE0B149462846FFF737FD1E
:10326000C5F80883A07E00B96F6002208DF80000C9
:10327000D5F88004C5F880040390E07D8DF808003F
:10328000E0680190E6752676D4E90012684690471A
:1032900027E004212846FFF720FD10B34FF4847186
:1032A0002846FFF70FFDE0B121462846FFF7E4FD71
:1032B000E07D617E884214D1207E38B1617EE26873
:1032C000E0752069E0602676667607E0A07E00B9AA
:1032D0006F60C5F80883E675617EE2682046FFF7F7
:1032E000E4FD4FF48E7841462846FFF7EBFC88B1A9
:1032F000A08AA17D884204D221462846FFF74CFFD0
:1033000008E041462846FFF7E2FCA17D11B12046C6
:10331000FFF752FF4FF4A27841462846FFF7D2FC50
:10332000002812D041462846FFF7D1FCA07E00B10C
:103330002F60E07D002808D0E675617EE26804B069
:103340002046BDE8F047FFF7B0BDBDE8FF872DE997
:10335000FF410C464FF4927705463946FFF7C3FC10
:103360000026C0B139462846FFF7C2FC02208DF87E
:103370000000D5F88004C5F880040390D5F83C051A
:103380008DF80800E0680190E6752676D4E9001211
:103390006846904724E04FF4887739462846FFF77F
:1033A000A2FCE8B139462846FFF7A2FCD5F83C0557
:1033B000C1B2E07D884213D1207E60B1E268D5F8C9
:1033C000000220F02000C5F80002207EE075206990
:1033D000E060267601E0E675E2682046FFF765FDCD
:1033E0004FF4A27739462846FFF77DFC68B139468D
:1033F0002846FFF77DFCE07D38B1E675D5F83C0541
:10340000E268C1B22046FFF750FD4FF49076314696
:103410002846FFF768FC00280FD031462846FFF702
:1034200067FCA07D002808D0D5F84C0504B0C1B2D7
:103430002046BDE8F041FFF7BFBEBDE8FF810000B8
:103440002DE9F05F8346DDE90A4A994690460D462C
:103450000846012703E000BFB0FBF8F07F1C4045A1
:10346000FAD2B94500D94F465FEACA7012D18CB181
:103470005FEA8A7002D5B9F1000F01D0202607E07B
:10348000302605E031465846641EFDF7C5FD0CB1F7
:10349000A742F7D35FF00106B9F1010F02D9A9F1F4
:1034A000010903E0B5FBF6F0404502D306FB08F640
:1034B000F2E7DFF83C9000BFB5FBF6F000FB1655D5
:1034C00019F800105846FDF7A7FDB6FBF8F6002ED8
:1034D000F2D15FEACA7009D0002C07D0A74205D20A
:1034E00020215846641EFDF797FDF5E7BDE8F09FE3
:1034F0004C3600000A494A788B78521CD2B293426B
:1035000000D100220B78934201D100207047027055
:10351000487800EB400001EBC000001D7047000040
:10352000940300201C0000200400000000000000A4
:1035300000000000111F1F1F010001000300000018
:10354000919293940705000010270000600100206D
:10355000190000000100000000000000240000200D
:1035600006000000040000000000000091FFFFFFC3
:1035700007070000A86100003000002006000000DE
:103580000000000004000000000000000700000030
:10359000000000003C0000200800000001000000C6
:1035A0000000000092010020640000000000000004
:1035B000000000004C000020020000009500000008
:1035C000000000004C00002002000000310000005C
:1035D00000000000920100206400000002000000D2
:1035E000000000009193949207070000093D02003B
:1035F000500000201000000000000000000000004B
:1036000005120000C912000065130000D11300006C
:103610004915000004050611121314005C02002075
:103620007C020020A802002004000300A50D000079
:1036300005000300A50D000006000300A50D000015
:1036400000000050540300200300000030313233EA
:1036500034353637383941424344454675270000F2
:103660005D27000053270000FFFFFFFFFFFFFFFF64
:10367000FFFFFFFFFFFFFFFF000000000000000052
:103680000000D60107010000D4000020CC0000207B
:10369000D4000020E004002018000000004040405A
:1036A0004040404040404141414141404040404015
:1036B00040404040404040404040404040050202C1
:1036C0000202020202020202020202020220202080
:1036D00020202020202020020202020202029090DC
:1036E00090909090101010101010101010101010DA
:1036F000101010101010101002020202020288882E
:103700008888888808080808080808080808080839
:103710000808080808080808020202024000000021
:103720009D3600007761726E696E67006465627530
:10373000670000001B5B313B33306D001B5B306D5D
:10374000000000001B5B313B33316D001B5B313BE4
:1037500033326D001B5B313B33336D001B5B313B00
:1037600033346D001B5B313B33356D001B5B313BEC
:1037700033366D001B5B313B33376D00696E666F0E
:10378000000000006572726F72000000636C6F636E
:103790006B0000006770696F7465000070776D00E2
:1037A000756172740000000062616C6C6F630000F0
:1037B000617070000438000000000020600100000B
:1037C000F40300005C380000600100206028000065
:1037D000DC0900008C370000000000009437000076
:1037E000000000009C37000000000000A03700002F
:1037F00000000000A837000000000000B037000003
:10380000000003005154C0014045100240015A20FD
:1038100008A15A8004890A490E89162902891009CB
:10382000200A0140122039B4031E5C362384371A63
:1038300024041A7C041A2C041A3C041A34041A4472
:10384000041A4C041A54041A5C041A64041A6C0412
:0C3850001A740411044890D0030000001A
:0400000500000201F4
:00000001FF
