:020000040000FA
:10000000182B0020E9030000F1030000F3030000B7
:10001000F5030000F7030000F903000000000000F2
:10002000000000000000000000000000FB030000D2
:10003000FD03000000000000FF03000001040000B9
:100040004D06000003040000C9090000030400007D
:100050000304000003040000030400000304000084
:100060000304000003040000030400000304000074
:100070000304000003040000030400000304000064
:1000800003040000A50600000304000003040000B0
:10009000C90600000304000003040000030400007C
:1000A0000304000003040000030400000304000034
:1000B0000304000003040000000000000000000032
:1000C0000304000003040000030400000304000014
:1000D000030400000304000003040000000000000B
:1000E0000000000000000000000000000000000010
:1000F0000000000000000000000000000000000000
:1001000000000000000000000000000000000000EF
:1001100000000000000000000000000000000000DF
:1001200000000000000000000000000000000000CF
:1001300000000000000000000000000000000000BF
:1001400000000000000000000000000000000000AF
:10015000000000000000000000000000000000009F
:10016000000000000000000000000000000000008F
:10017000000000000000000000000000000000007F
:10018000000000000000000000000000000000006F
:10019000000000000000000000000000000000005F
:1001A000000000000000000000000000000000004F
:1001B000000000000000000000000000000000003F
:1001C000000000000000000000000000000000002F
:1001D000000000000000000000000000000000001F
:1001E000000000000000000000000000000000000F
:1001F00000000000000000000000000000000000FF
:10020000DFF80CD000F0B4F900480047E92C0000FA
:10021000182B002030B4044654E8000F0D4644E883
:100220000053002BF8D1156030BC704730B4044641
:1002300054E8000F40EA010544E80053002BF7D1D1
:10024000156030BC704730B4044654E8000F00EA33
:10025000010544E80053002BF7D1156030BC70470E
:1002600030B4044654E8000F80EA010544E8005326
:10027000002BF7D1156030BC704730B4044654E809
:10028000000F00EB010544E80053002BF7D1156087
:1002900030BC704730B4044654E8000FA0EB0105B1
:1002A00044E80053002BF7D1156030BC70470000C4
:1002B00030B4044654E8000F0D4644E80053002BC8
:1002C000F8D1156030BC704730B4044654E8000FD4
:1002D00040EA010544E80053002BF7D1156030BC1B
:1002E000704730B4044654E8000F00EA010544E8C2
:1002F0000053002BF7D1156030BC704730B4044672
:1003000054E8000F80EA010544E80053002BF7D1C0
:10031000156030BC704730B4044654E8000F00EB61
:10032000010544E80053002BF7D1156030BC70473D
:1003300030B4044654E8000FA0EB010544E8005334
:10034000002BF7D1156030BC7047000030B4044674
:1003500054E8000F0D4644E80053002BF8D1156017
:1003600030BC704730B4044654E8000F40EA010541
:1003700044E80053002BF7D1156030BC704730B40F
:10038000044654E8000F00EA010544E80053002B3E
:10039000F7D1156030BC704730B4044654E8000F04
:1003A00080EA010544E80053002BF7D1156030BC0A
:1003B000704730B4044654E8000F00EB010544E8F0
:1003C0000053002BF7D1156030BC704730B40446A1
:1003D00054E8000FA0EB010544E80053002BF7D1CF
:1003E000156030BC7047000006488047064800474B
:1003F000FEE7FEE7FEE7FEE7FEE7FEE7FEE7FEE7D5
:10040000FEE7FEE7CD06000001020000004870474D
:10041000905B00002DE9FE43994615468846074645
:1004200001AC022942D3002D40D000200290A8F157
:1004300001004FF0FF36009022E000FB057201FB47
:10044000057011464A469047002805DC54F82600FE
:10045000304444F8260013E060682A4600FB05712A
:1004600054F8040C00FB057007E00B7890F800C00E
:1004700001F801CB00F8013B521E002AF5D176426B
:1004800054F8040C61688842D7DC4B462A4638464B
:10049000FFF7C0FF54F8040C4B46A8EB0001401CCA
:1004A00000FB05702A46491EFFF7B4FFBDE8FE8336
:1004B00010B5431A934209D28318881803E010F844
:1004C000011D03F8011D521EF9D210BD40EA0103BF
:1004D0009B0703D009E008C9121F08C0042AFAD2FA
:1004E00003E011F8013B00F8013B521EF9D210BDA8
:1004F000D2B201E000F8012B491EFBD27047002266
:10050000F6E710B513460A4604461946FFF7F0FF12
:10051000204610BD421C10F8011B0029FBD1801A97
:10052000704710B5002200E0521C835C8C5CA34233
:1005300001D1002BF8D1D8B2E1B2401A10BD034668
:1005400011F8012B00F8012B002AF9D11846704749
:1005500030B505460020034600E05B1C934205D2FF
:10056000EC5CC85C201A01D1002CF6D130BD000033
:10057000064C074D06E0E06840F0010394E80700F0
:1005800098471034AC42F6D3FFF73EFE44610000BA
:100590006461000070B58C1810F8015B15F007035A
:1005A00001D110F8013B2A1106D110F8012B03E00C
:1005B00010F8016B01F8016B5B1EF9D12B0705D414
:1005C0000023521E0DD401F8013BFAE710F8013B5D
:1005D000CB1A921C03E013F8015B01F8015B521E79
:1005E000F9D5A142D8D3002070BD00F01F0201212F
:1005F00091404009800000F1E020C0F8801270476F
:1006000000F01F02012191404009800000F1E0202C
:10061000C0F80011704700F01F020121914040090D
:10062000800000F1E020C0F8001270474907090E71
:10063000002806DA00F00F0000F1E02080F8141D19
:10064000704700F1E02080F8001470472DE9F04178
:100650004FF48077384603F0CBF90124104EA507FC
:1006600048B1384603F0CBF90120C5F8080374708F
:10067000002001F0D1F94FF48277384603F0B8F941
:1006800000280BD0384603F0BAF90220C5F8080359
:10069000B470BDE8F041012001F0BEB9BDE8F081C1
:1006A000F404002007480021C0F84011C0F84411AC
:1006B000C0F84811C0F84C11C0F80011C0F804117E
:1006C00004F028BE0010014004F076BDF0B5AE483D
:1006D0000023021D01780125101D4FF080540629CA
:1006E0000BD11678360708D10678C6F30316032E09
:1006F00006D0042E04D0052E02D0062907D00EE025
:10070000B4F82463A14FC6F304263E6002E01678D5
:10071000360704D10678C6F30316032E02D0062945
:1007200004D00FE09B4F9A4E7E670EE01678360796
:1007300008D10678C6F30316032E06D0042E04D083
:10074000052E02D0062907D00EE0D4F84462924F5D
:10075000C6F342363E6002E01678360704D10678CA
:10076000C6F30316032E02D0062906D011E08B4EE5
:10077000376827F0807737600EE01678360708D1A3
:100780000678C6F30316032E06D0042E04D0052ED9
:1007900002D006290AD011E04FF08046C6F80C318D
:1007A000C6F810317C4E361F336002E016783607EB
:1007B00004D10678C6F30316032E02D0062905D00D
:1007C0000CE0754F032664373E600AE01678360762
:1007D00004D10678C6F30316032E02D006290DD0E5
:1007E00014E06F4F05263E606D4E783635606C4ED6
:1007F000083633603F263F1D3E6002E0167836071C
:1008000004D10678C6F30316052E02D0062957D068
:1008100062E0644E3668644F3E60624E361D366854
:100820003F1D3E605F4E083636683F1D3E605D4EA0
:100830000C3636683F1D3E605A4E103636683F1DF6
:100840003E60584E143636683F1D3E60554E183691
:100850003668554F20373E60524E1C3636683F1D75
:100860003E60504E203636683F1D3E604D4E243669
:1008700036683F1D3E604B4E283636683F1D3E6051
:10088000484E2C3636683F1D3E60464E3036366840
:10089000454F40373E60434E343636683F1D3E601C
:1008A000404E383636683F1D3E603E4E3C36366818
:1008B0003F1D3E603B4E403636683F1D3E6002E0C5
:1008C0001678360708D10678C6F30316032E06D02D
:1008D000042E04D0052E02D0062907D019E0D4F842
:1008E0005812324A01F04F01116002E011780907F5
:1008F0000FD10078C0F30310032803D0042801D0DF
:10090000052806D12A480168C90702D06FF0010105
:10091000016022487438016841F470010160BFF33E
:100920004F8FBFF36F8F4FF01021D1F800020028D6
:1009300003DBD1F80402002822DA1E4A15601E48A3
:100940000468002CFCD01524C1F800420568002D75
:10095000FCD0C1F8044201680029FCD01360016892
:100960000029FCD0BFF34F8F0C48F0380168134AC0
:1009700001F4E06111430160BFF34F8F00BFFDE759
:1009800010490F480860F0BDE00F00F0403501400D
:100990000DF0ADBA00C007403C050040FCED00E0A2
:1009A000105600400404001020C50040E40E004032
:1009B0000004004004E5014000E401400400FA05A1
:1009C0000090D003CC0000200448017F0448002997
:1009D000024901D004F0BCBD04F02BBD0805002085
:1009E0000020004002E008C8121F08C1002AFAD106
:1009F00070477047002001E001C1121F002AFBD19F
:100A00007047000003F0ECFE03F0DEFC0028FBD191
:100A1000134C606830B12088012101EB004011A126
:100A200003F0DCFD12480068C00700D000BE60681B
:100A3000022806D32088022101EB00400DA103F01B
:100A4000CDFDBFF34F8F0A48E43801680D4A01F429
:100A5000E06111430160BFF34F8F00BFFDE700006D
:100A60002C010020466174616C206572726F720007
:100A7000F0ED00E053797374656D207265736574F1
:100A8000000000000400FA050EB500210091CDE938
:100A900001106A4644F20100FFF7B4FF0EBD0000EA
:100AA000074B9B7823B12AB120B10068037C1BB1AE
:100AB000082070470720704741744261002070474A
:100AC0002805002070B504F073FA104800240B21AB
:100AD000047044700E4D817014206C602C706C702A
:100AE000FFF783FD07211420FFF7A0FD1420FFF777
:100AF00087FD0848046007211120FFF797FD05488E
:100B0000001F0068A860002070BD000028050020BC
:100B100040000020081501402DE9F843DFF87090EF
:100B200099F802305BB350B3052902D20720BDE823
:100B3000F88343691BB3437C012B22D00027044672
:100B4000002588461646284600F036F8684604F028
:100B5000D1FDC0B1012101700E4944600968C0E9AE
:100B60000218C0E904769DF8000089F80100002011
:100B700000F024F81420FFF74EFD2846D7E70820A0
:100B8000D5E70F46DBE70425002000F017F8F4E76F
:100B900028050020041501400649897839B130B193
:100BA000416921B100210174022104F093BB0820A6
:100BB000704700002805002000F002B800F008B8D7
:100BC00072B602480168491C016070475400002059
:100BD00003490868401E086000D162B670470000F3
:100BE000540000202DE9F041064608680C46411CDF
:100BF0004FF0A0474FF0010506D005FA00F1C7F805
:100C00000815206803F046FB6068411C02D00021F3
:100C100003F037FB3079204901EB4010A169007FD8
:100C200000283068C0F8241525D0607D227D316809
:100C30001043C1F86C05D4E900123068C0F80C15F7
:100C4000C0F8142524E0A068411C02D0002103F064
:100C500018FBE068411C05D08540C7F80855E068DE
:100C600003F018FBD4E902123068C0F80825C0F878
:100C70001015BDE8F081607D217D32680843C2F81F
:100C80006C05D4E900123068C0F81425C0F80C15C2
:100C9000207D0128D7D0ECE7080500202DE9F041A0
:100CA000871C0E4601250020FFF786FF124C2068A6
:100CB0003060D4E90001401AA168091ABE1C06E0A0
:100CC00001F034FFD4E90001401AA168091A491C57
:100CD0008E42F5D8A1682068084004EB8000C16806
:100CE00041F00301C1602068384420600020FFF714
:100CF00065FF2846BDE8F081F406002030B4826824
:100D00000468531C8360A154D0E901128A4202D3C3
:100D100030BC03F0A2B930BC70470000034803C8E0
:100D2000814201D10120704700207047F406002065
:100D300070B5816804468A7C002A4DD0C87C0028A2
:100D40004AD0121A0844D5B200F114016A1C1330BB
:100D5000FFF7AEFBA068C17C491EC174A068817C0E
:100D6000491E81748DB308221C49206903F068F97B
:100D7000204602F041F98178C078814211D1A06803
:100D800017A2C17C431808212046143302F002FC4C
:100D9000204600F013F929462046BDE8704000F0D7
:100DA000F3BF204600F01EF9204600F007F9A068C6
:100DB0000BA2C17C431808212046143302F0EAFB41
:100DC0002046BDE8704000F003B92069BDE87040DE
:100DD000044A03A103F034B970BD0000B80F00004D
:100DE00025730000BC58000070B504468068827C02
:100DF000C17C521A12F0FF053AD0084400F11501E7
:100E00002A461430FFF754FBA068817C491E817488
:100E1000204602F0F1F88178C078814214D1A068B0
:100E200014A2C17C431808212046143302F0B2FBFF
:100E3000114A10A1206903F003F96D1EE9B22046A2
:100E4000BDE8704000F0A0BF204600F0CBF820467F
:100E500000F0B4F8A06807A2C17C4318082120461E
:100E6000143302F097FB2046BDE8704000F0B0B8A4
:100E700070BD000025730000C05800002DE9F0414E
:100E8000044680680F4690F83D11C27C11F00106BF
:100E9000817CA1EB0203DDB20AD07F2901D3002DB2
:100EA0007ED0A068C17C08440021077566B113E0BC
:100EB0007F297CD2002DF4D0831803F114012A4637
:100EC000481CFFF7F5FAECE7A068827C521CD2B20E
:100ED0008274A068143281544DB3204602F08CF81D
:100EE0008178C07881420ED1A06832A2C17C4318BB
:100EF00008212046143302F04DFBA81BC1B2204646
:100F000000F042FF21E0204600F06CF8A06829A222
:100F1000C17C431808212046143302F03BFB2046D5
:100F200000F056F80121204601F00EF80DE03EB128
:100F3000A068827C521CD2B28274A06814328154A0
:100F40003A461DA1206903F07BF8A168C87C401CCB
:100F5000C874204600F005FF0028204603D0BDE8F5
:100F6000F04100F01DBF01F040FA00281FD02046DC
:100F700002F042F80546C078A978401A401EC1B276
:100F8000204600F08FFE204600F00AFFE878A9789E
:100F9000401AC1B2204600F0E3FF2878401E00E06E
:100FA00005E0C1B22046BDE8F04100F0CDBFBDE88C
:100FB000F081000025730000256300000069024AEB
:100FC00002A103F03DB80000B458000025730000F2
:100FD0000069024A024903F033B80000AB58000030
:100FE000CC0F00000069024A024903F029B8000052
:100FF000A8580000CC0F00002DE9F04F4FF0000979
:101000009DB005464E464C46CDF8149000F05CFD70
:10101000284601F00FFBAA680C2308A901A8143286
:1010200001F0C6FE0346019840B15BB159A202210E
:10103000284602F0AFFA1DB0BDE8F08F284600F058
:10104000AFFEF8E75A4859490027A1EB00080DF117
:10105000200A83461AE00FD3284600F082FE0100E2
:101060005448089B009001D053A200E054A20221F2
:10107000284602F08FFADEE70BEBC70460680168D0
:101080005AF82900FFF74DFA18B17F1CB7EBD80FBB
:10109000E1D94FF0000BCDF868B06068C7680FB1B8
:1010A000A9684860606809F101044FF00008806891
:1010B0000DF1580906900198844237D25AF824005D
:1010C00042A1FFF72EFA50B35AF8240040A1FFF7CF
:1010D00028FA20B3424608F101081AAB2146CDF8A0
:1010E0000090069800F0ACFCB8F1000F1ED01A98E2
:1010F000E0B101685AF82400FFF713FA0028DAD1AA
:101100001A98C16829B1A8F10101DDF818B0264686
:10111000059180684FF00008641C0690CBE7A86832
:1011200090F83D1141F0020180F83D11284600F091
:10113000C5FD284600F015FE10B9284600F030FE27
:10114000BBF1000F12D0CDF800901AAB31465846D3
:10115000059A00F075FCA9681A980AEB86024860A7
:101160000199C368891B284698470AE027B108AA55
:1011700028460199B84704E017A20221284602F048
:1011800009FAA86890F83D1121F0020180F83D119C
:1011900051E700000D0A6E6F74207465726D696E00
:1011A000617465643A2025630D0A0000A4610000A3
:1011B00064610000F1580000257325730D0A0000DA
:1011C0000D0A257325730D0A000000002D6800002C
:1011D0002D2D68656C700000506C6561736520731F
:1011E00070656369667920737562636F6D6D616E9A
:1011F000642E0D0A000000002DE9F0410446C0688D
:101200008EB00D460026C068324601A903F0F7FBF8
:1012100018B100200EB0BDE8F0816DB1019803F067
:10122000A0FBA168D1F82C01401CC1F82C0100F0F2
:10123000070001287ED10126204601F0DDFE05468B
:101240008078012804D9401EC1B2204600F088FEF3
:101250002878012804D9401EC1B2204600F094FD30
:101260002046FFF7ABFE2EB133A20221204602F04A
:1012700091F95FE04FF000080023082202A90198CD
:1012800003F080FB049805900398ADF818008DF8E2
:101290001C800298082700F00300012802D00228D1
:1012A0001DD03CE002983B46860AC0F3C2008DF890
:1012B0001A00029808A9C0F380008DF81B0002985C
:1012C000C0F38315AA00019803F05CFB206900902D
:1012D00005AB2A4608A9304603F096FA1FE00298AB
:1012E000850DC0F3C2008DF81A000298C0F380008B
:1012F0008DF81B00082D01D22E4600E008263B4643
:10130000324608A9019803F03DFB3744AD1B05AAFE
:10131000314608A8236903F065F9002DEAD1019848
:1013200003F01FFBE068002201A9C06803F067FB1F
:101330000028A1D001206DE74C6F7374204C4F47FB
:1013400073202D20696E637265617365204C4F4771
:10135000206261636B656E642071756575652073CD
:10136000697A652E0D0A000030B44068046824696B
:10137000A44630BC60472DE9FC4100270446019794
:1013800001AB012269462046FFF7EEFF01980028D5
:101390001CD09DF800007F28F2D803F02FFBA56831
:1013A000687820B101285DD002285FD163E0207EFB
:1013B0009DF80060B0420ED1A87C0028204607D0DE
:1013C000FFF71AFE0221204600F0C0F8BDE8FC81BC
:1013D00000F0E6FCF6E7092E1BD004DC002ECFD08F
:1013E000082E04D11DE01B2E11D07F2E21D0FFF737
:1013F0000DF80068805D10F03E0FC1D095F83D01FA
:1014000000071ED531462046FFF738FDB8E701201A
:101410002FE095F83D010007B2D5204600F0B0F866
:10142000AEE795F83D010007AAD52046FFF780FCFE
:10143000A6E795F83D010007A2D52046FFF7D4FCAA
:101440009EE7A87C7F289BD2E87C2918401CE87482
:101450000E75A068C17C08440775A068817C491C92
:1014600081748DE79DF800005B2801D06F7087E7DD
:101470000220687084E76F70A16891F83D0102074F
:10148000A4D59DF80020413A0C2ABFD2DFE802F033
:1014900007090E31065006540606065870E701216A
:1014A00000E00021204600F0B3FF69E7204601F08C
:1014B000A3FD054600786978884203D1A978EA78C7
:1014C0009142A3D0697988424FF0010120460AD1A8
:1014D00000F0E8FB6979204600F056FCA168C87C62
:1014E000401CC8744CE700F02FFDA068C17C491C6B
:1014F00015E0204601F080FD05460078A979491CD9
:10150000884202D1A97801298AD001284FF001012F
:10151000204606D000F038FCA068C17C491EC1748A
:101520002EE700F01DFD6979204600F00DFDF3E780
:10153000204600F0C3FB23E7204600F0E8FB1FE74E
:10154000421C62F3000081F83D0119E7826802291C
:1015500011700BD18268002111758268D174826884
:10156000917403A20321036802F014B870470000CD
:1015700025730000002801D0FEF7CCBF70470000A3
:101580002DE9F04FA5B04FF000080546CDF82880B2
:10159000CDF8108080684746817CC1F17F01C9B2D7
:1015A0005FEA010B7BD0C27C00F114019430FEF79E
:1015B0007FFFA8680024C17C084480F89440FEF7AF
:1015C00025FF20900168A8680C23C27C0244D27CCD
:1015D000895CC0F83841AA6801F001090DA91FA86B
:1015E000943201F0E5FB0D98FFF7C4FFC6B2A246A6
:1015F0001A940C941F9818B14844401EB8426AD8F7
:10160000B9F1000F01D0002605E00DA850F8270021
:10161000FFF7B0FFC6B200241BA822460090641C4E
:101620001AAB3946504600F00BFA1A9800286BD0D6
:1016300001680DA8324650F82700FEF789FF002800
:101640000C9802D00028E7D05EE0D8B11A98006864
:10165000FFF790FF0499C0B2884200D90490BBF113
:10166000000F2BD021A800900CAB424639465046C3
:1016700000F0E6F91A98006883190C98006882193E
:10168000002015E0601E0A901A980068FFF772FFAC
:10169000C0B20490801B584510DAC0B20DE07FE064
:1016A00012F800C0614506D1401C10F0FF0010D0B8
:1016B000195C0029F4D1834500D983461A98B4F106
:1016C00001080C90A8D262A20421284601F062FF12
:1016D0001AE0FF20EFE700241BA822460090641CBC
:1016E0001AAB3946504600F0ABF9ECB31A98002813
:1016F00056D001680DA850F82700FEF712FF002809
:10170000EAD11A98D0F808A0BAF1000F09D01A98B7
:1017100038B11F997F1CFFB201EB09008742FFF42B
:1017200069AF0C9800283BD00A98414640455DD1EE
:101730009AF8000038B11BA80A4600900CAB394655
:10174000504600F07DF90C980068FFF713FFB04297
:1017500006D00C985A4600688119284600F058FABD
:101760002098A968026800E01DE0C87C0B181B7D6A
:10177000D25CD2071DD0897C884211D2284601F064
:101780003BFCA9688478C87C401CC874284601F0DA
:1017900033FC8078A04225D10121284600F0D4FBFB
:1017A00025B0BDE8F08F2AA20421284601F0F2FE00
:1017B000F6E791F83D01C2070FD020F0010081F853
:1017C0003D0120212846FFF759FBA86890F83D11FC
:1017D00041F0010180F83D11E2E720212846FFF7A2
:1017E0004DFBDDE7284600F0DBFAD9E7002128466B
:1017F000049A03F001FB0DF16C090A9C0EE01AAB90
:10180000224639465046CDF8009000F019F91A9852
:10181000049A0168284603F0EFFA641C4445EED9A7
:1018200017A2032128462B6801F0B4FEAB6816A26C
:1018300008212846143301F0ADFE284600F04EFB87
:101840000C985A4600688119284600F0E1F9A7E78C
:101850005461622066756E6374696F6E3A20636FBF
:101860006D6D616E647320636F756E746572206F49
:10187000766572666C6F7765642E0D0A0000000055
:101880000D0A25730000000025730000002803D016
:101890008968012081F83C017047000070B504465A
:1018A00040680D4690F8280030B1A0680068FFF746
:1018B00073F908B108280CD1012685B1606902F0DE
:1018C00095FB616800220831606902F0B1F908B146
:1018D000062070BD606880F82960002070BD6068D7
:1018E00090F8280048B9074A0021A068FFF7D8F807
:1018F0006168002881F82860F0D12046BDE870407A
:1019000003F0A9BBB151000070B5044640680D4614
:101910000260606800224360606880F82820606888
:1019200080F82920606820220830FEF7C1FD2C6174
:10193000074A2946606902F07BF9050005D1E06895
:1019400003F016FA206903F013FA284670BD000070
:10195000C55300001A60C0681A4603F047B910B5B5
:101960000446406902F042FBA0680068BDE81040F0
:10197000FFF712B97CB51A60044600691A4603F0F5
:1019800073F905001CD1606902F024FBC0B9FF2087
:10199000009001236A4601A9206903F0B1F978B9E2
:1019A00000980199C2B2606902F08EFA054660683B
:1019B00090F8290020B11DB92069009903F08DF934
:1019C00028467CBD2DE9F8431E4615468846074645
:1019D000002418E0786808EB04016B460268D2F82E
:1019E0000CC02A46E047009804442D1A58B9B8683C
:1019F0000178032907D000BF90F83C110029FBD0E3
:101A0000002180F83C11002DE4D1002E01D0009877
:101A10003060BDE8F883000070B5084C050009D0BF
:101A200010342168002907D00868206049682846DA
:101A30008847F6E70834F4E770BD0000F40400209E
:101A40002DE9F05F1C460A9E15464FF0000959B17A
:101A500080B3017839B342683146284690473068F0
:101A6000D8B12660BDE8F09F14491548A1EB0008E5
:101A7000B5EBD80F11D2DFF84CA00026834609E061
:101A80000BEBC607786801685AF82500FEF749FD98
:101A900030B1761CB6EBD80FF2D3C4F80090E1E772
:101AA00078682060DEE7406800EB0210016809B149
:101AB0001860D7E7FFE7C3F80090D3E7A461000000
:101AC00064610000D00000202DE9F04185680646E1
:101AD0000024287D002812D0A046FEF797FC074678
:101AE000D0F8000004F1140104F10104695CE4B2CF
:101AF000415CC90705D0002CF4D185F81480BDE8FD
:101B0000F081641E14F0FF040FD0A87C021B04F1C6
:101B10001400291805F11400521CFEF7C9FCB16825
:101B2000887C001B8874B168C874B2683D68937C77
:101B3000D01813300446002102E0491CC9B2401EEF
:101B40000778EF5DFF07F8D18442D8D05B1A1433D1
:101B500002F80380B268907C401A9074B168C8742F
:101B6000CDE700002DE9F05F26484168F1B3DFF8CA
:101B700098B00E688146DBF8004087688078E11BEA
:101B800021F07F45ED1CB0B9DFF880804FF4803044
:101B9000C8F84403C8F804031120FEF726FD1120FD
:101BA000FEF72EFD4FF0010AC8F800A02F2001F02B
:101BB0002FFF89F802A0B54200D23546124BE81932
:101BC0003C3320F07F401860DBF800105A46091BB8
:101BD00021F07F41001B20F07F40C91C81420FD9BA
:101BE000106818602F2001F013FF00E004E0BDE84A
:101BF000F05F1120FEF70FBDBDE8F05F03F0D8B92C
:101C0000BDE8F09F40000020041501400010014095
:101C10002DE9F0410446806815460F46827CC17C60
:101C2000531A2A44DEB27F2A37D8002D35D0084413
:101C300000F1140105F114021044721CFEF738FC87
:101C4000A0682A46C17C084439461430FEF730FCAF
:101C5000A0681430FFF78EFCA16811A28874A068F8
:101C6000C17C431808212046143301F093FCA0687E
:101C7000C17C2944C174204600F073F818B920468D
:101C800000F0B3FB10B1204600F08AF8002E04D01B
:101C90002046BDE8F04100F021B9BDE8F081000028
:101CA00025730000002904D00A46006901A102F052
:101CB000C7B970471B5B25644200000070B505463C
:101CC00001F09AF9044600786178884203D1A0783F
:101CD000E17888421AD0E178A078814204D9081AC4
:101CE000C1B22846FFF7DEFF20786178884205D927
:101CF000401AC1B2284600F047F804E0081AC1B201
:101D0000284600F021F9A868817CC17470BD70B5C7
:101D1000054601F071F9044601788079401C814242
:101D200002D1A07801281BD0A078012804D9401E38
:101D3000C1B2284600F014F92078A179884206D96A
:101D4000401A401EC1B2284600F01EF805E0081AED
:101D5000401CC1B2284600F0F7F8A9680020C874FA
:101D600070BD10B504460068FFF704FC0146A0688A
:101D7000C27C407B1144B1FBF0F200FB121008B1B1
:101D8000002010BD012010BD002904D00A460069C2
:101D900001A102F055B970471B5B256444000000A7
:101DA0000069024A024902F04BB90000AE58000037
:101DB000CC0F00002DE9FC5F002604468DF804607E
:101DC00080683546B046B14680219430FEF797FBD7
:101DD0004149206902F034F9206902F03EF90027F8
:101DE00040F2E73B4FF47A7A6B46012201A9204684
:101DF000FFF7BAFA0098D8B19DF804001B2806D066
:101E0000A16891F894101B29EED152281CD0A26829
:101E100008F19401505408F1010000F0FF08B8F1F6
:101E2000090F08D9A168042081F89490BDE8FC9FAF
:101E3000584601F033FE00980028D5D17F1CBFB270
:101E40005745D1D30D20F1E7A16808F194004A4627
:101E500001F80090A16891F895005B2803D081F803
:101E600094200B20E2E702206FF02F070AE000BF6A
:101E700005EB850507EB4505401C2B44C0B29DB220
:101E8000802808D200F19403CB5C3B2BF0D1401C9E
:101E9000C0B2802809D30C20C8E700BF06EB860635
:101EA00007EB460633449EB2F1E700F19403CB5CA6
:101EB000002BF3D1FA20FA2E01D9087200E00E723D
:101EC000FA2D02D9A168887201E0A0688572A06825
:101ED00080F894200020A9E7CC58000070B5054692
:101EE00001F08AF804468078E178884201D1012621
:101EF00000E000262846FFF734FF18B9284600F016
:101F000074FA10B12846FFF74BFF1EB160782178B4
:101F1000401A12E0E078A178401AC1B2284600F0D9
:101F20001FF820786178884206D9401AC1B2284645
:101F3000BDE8704000F008B8081AC1B22846BDE8F4
:101F40007040FFF721BF0000002904D00A46006955
:101F500001A102F075B870471B5B256443000000C7
:101F6000002904D00A46006901A102F069B870474F
:101F70001B5B2564410000000E4910B50A784C78BF
:101F80000023A24212D0521CD2B20A70022A00D1FF
:101F90000B70084A0B780C3252F8232002608868D4
:101FA000104420F07F408860012010BD03600020B5
:101FB00010BD00004000002030B44FF08052506946
:101FC0000C49401E886012690B4C5043C1E9000265
:101FD0000A4D0246C8601368A34208D0AB4203D141
:101FE00002F58072CA60F6E730BC02F0D7BC30BCA4
:101FF00070470000E4040020A55A5AA500005AA525
:102000001CB5012905D0816891F83D11C1F340014B
:1020100031B102B00022BDE81040114601F0E2BA31
:10202000536804A1CDE90013136808A2022101F04E
:10203000B1FA1CBD20756E6B6E6F776E2070617289
:10204000616D657465723A200000000025733A25C1
:102050007325730D0A00000010B5034C206802F0D0
:102060009DFC2068E06010BDE40400202DE9F043F1
:10207000194D0746194E2C68E86891B0A04224D14A
:102080002068B04221D016A205E02068B04209D0F5
:10209000484507D01AA20421384601F07BFA11B056
:1020A000BDE8F0830020414604EB800212790A5417
:1020B000401CC0B23E28F7D96B4617A2082138460B
:1020C00001F068FA04F5807402E0DFF85490E84605
:1020D000E868A042D9D2E2E7E4040020A55A5AA554
:1020E000506C6561736520777269746520736F6DDC
:1020F000657468696E672066697273742E0D0A00D4
:10210000436F7272757074656420646174612066D7
:102110006F756E642E0D0A0025730D0A0000000015
:1021200000005AA52DE9F84316460746022906D2B3
:1021300033A00090136838A24FF0020106E00AD9DC
:1021400037A00090136834A24FF00401384601F024
:1021500021FABDE8F8837068FEF7DCF905463E28F1
:1021600008D901B03846BDE8F0433E2337A202212A
:1021700001F010BA444CDFF81481E06801684A1C91
:102180001CD0414503D042A24FF002010AE015D114
:10219000226800F50071A1EB0201B1F5805F06D95C
:1021A00046A204213846BDE8F84301F0F3B94F498F
:1021B00002F00CFCE06800F58070E06074684C4E42
:1021C0000346021D012030604A486D1C0168002949
:1021D000FCD0002106E0675C42F821700768002F00
:1021E000FCD0491CA942F6D30021316001680029C6
:1021F000FCD041461846BDE8F84302F0E7BB0000BA
:102200002062616420706172616D65746572206323
:102210006F756E740D0A000025733A257300000077
:102220002062616420706172616D65746572206303
:102230006F756E74202D20706C65617365207573E9
:10224000652071756F7465730D0A0000546F6F20FF
:102250006C6F6E6720737472696E672E20506C65A8
:10226000617365206C696D697420656E7465726553
:102270006420737472696E6720746F202564206314
:10228000686172732E0D0A00E4040020A55A5AA555
:10229000466C61736820636F727275707465642C2C
:1022A00020706C6561736520657272617365206969
:1022B000742066697273742E000000004E6F7420E3
:1022C000656E6F756768207370616365202D20707F
:1022D0006C6561736520657261736520666C6173FE
:1022E000682066697273742E0D0A000000005AA5FA
:1022F00004E5014000E401402DE9F05F17460E00BF
:10230000814670D013B1F9B2FFF71EFE0024FEF72C
:102310007DF88246006800E0641C315D415CC907BD
:10232000FAD100253046FFF725F9D9F80810001B2F
:102330004A7BD11B814228D306EB040805E000BF8D
:1023400018F805100A290CD06D1C8542F8D33119F4
:10235000D9F8100001F074FE4846BDE8F05FFFF7C1
:102360001FBDD9F8100001F078FE414600232A462F
:102370004846FFF727FB2C444846641CFFF710FD36
:10238000F9B24846FFF7E0FDE1E78B46DAF80010C6
:1023900006EB040818F805000B5CDB0702D0AB461F
:1023A0000A2804D0E819904201D26D1CF2E7D9F84E
:1023B000100001F052FE414600235A464846FFF7FE
:1023C00001FB5C44DAF8000000E0641C315D415C14
:1023D000C907FAD14846FFF7E3FCF9B24846FFF7D0
:1023E000B3FD9EE7FFE7BDE8F09F10B50446006827
:1023F000FFF7C0F80146A068827C407B1144B1FB26
:10240000F0F200FB121008B1002010BD012010BD39
:10241000FEB5002604460096019602968068E9B350
:10242000D0E94D128A4271D0D0F8300100286DD029
:102430002046FFF76CFCA068D0F83851002D68D01A
:10244000002309226946284602F09CFAA1689DF8FB
:1024500008500098C1F83801A06800230922D0F87C
:102460003801694602F08EFAA1689DF80820092318
:10247000D1F838011431521C02F084FAA1689DF899
:102480000800C874A1689DF8080088749DF80800C9
:10249000A84202D22046FEF791FD00E00BE0A368BF
:1024A0002BA208212046143301F074F82046FFF7D0
:1024B00058FC60BB42E0D0F83801002846D02046E6
:1024C000FFF725FCA06800230922D0F838016946EF
:1024D00002F058FAA0680199C0F83811A0680029E4
:1024E000857CB9D19430FFF745F80028A06805D065
:1024F00000F194011430FEF722F800E00675A068A0
:102500001430FFF737F88DF80800B7E71EE01AE03F
:10251000FFE71430FFF72EF810F0FF05A068D0F8A1
:102520003011C0F83811A06805D000F114019430C2
:10253000FEF705F890E780F894608DE72046FFF7F6
:1025400054FF002802D02046FFF72AFCFEBD000001
:1025500025730000FEB50D46816804460026D1F8BB
:10256000300138B300230922694602F00BFA0195C5
:10257000A06800230922D0F83001694602F008FA69
:102580000196A068D0F830110091807C8DF8080089
:10259000A068C0F83051002309226946284602F09D
:1025A000F7F9A168092328468A7C1431521C02F0ED
:1025B000EFF9FEBDC1F83051A068C0F83451009663
:1025C0000196A068807C8DF80800E4E7FEB504461B
:1025D0008068D0F83461002E28D000230922694693
:1025E000304602F0CFF9A16801980025C1F8340106
:1025F000009501952B46092269463046029502F066
:10260000C7F9304602F08BF9A168D1F8340170B1F6
:1026100000230922694602F0B5F90095A06800235D
:102620000922D0F83401694602F0B2F9FEBDC1F8C2
:102630003051FEBDFEB5044680681430FEF79AFFA7
:1026400010F0FF05A0684FF00006C0F8386133D0E5
:10265000A068D0F83001E0B100230922694602F0F9
:1026600091F99DF80820AA4213D1A068092300F12E
:102670009401D0F83001521C02F084F9A06800F1F6
:1026800094011430FDF74DFF0028A06880F8946095
:1026900012D000260A352946606902F010F90100BF
:1026A000204604D003B0BDE8F040FFF753BFFFF76A
:1026B0008DFF761C082EEED3FEBD00002DE9FC5FD9
:1026C0000E008346DDE90C47C6F1000098469246AD
:1026D000814600D40846012503E000BF90FBFAF0D4
:1026E0006D1C5045FADAA84500D9454624B1002EA4
:1026F00001DB780700D5641EB80702D5B8F1000FDA
:102700000AD0F80708D13CB1A54205D2202158468D
:10271000641EFEF7F3FAF6E7002E02DA4E462D218C
:1027200002E0780703D52B215846FEF7E7FA07F0B9
:10273000030002280BD1B8F1000F08D13CB1A5422B
:1027400005D230215846641EFEF7D8FAF6E7CDE9E7
:102750000047434652463146584602F071FFBDE8F5
:10276000FC9F000070B50E460446007918494FF4EE
:10277000A27501EB4010017F2068A1B14FF4887170
:1027800002F034FB4FF49071206802F02FFB4FF4FD
:102790009271206802F02AFB2946206802F026FB8D
:1027A0000C49206809E04FF48E7102F00EFB2946B7
:1027B000206802F00AFB08492068C0F8041320686A
:1027C00001F02BFA3146BDE8704001F00ABA000072
:1027D0000805002010030200800002000268134672
:1027E00002E08A4204D01268002AFAD10B6001602C
:1027F000704700002DE9F047394E002780463D46DE
:10280000DFF8E090D6F804A057E003D00446D0F8F3
:102810001C8035E099F8002002EB4201521CD2B234
:1028200089F8002009EBC10199F80230091D9A428C
:1028300001D189F8005048680A780446012A12D06C
:10284000022A02D0032A3BD108E002F013FD00B1B6
:102850000127257434E00574C06900E07068002821
:10286000F9D170602CE0207C50BB88686060C8683B
:10287000A0600869E0604869A061F07800B1656017
:102880006268B168184B501A20F07F40984202D21B
:10289000A168084406E0881AA16820F07F408142C0
:1028A00002D9081A206000E0256065600120A5605B
:1028B00020742046E56102F0BFFCB8F10000A4D10D
:1028C00099F8001099F801008142A3D117B97168F5
:1028D000514502D00120BDE8F0870020FBE7000051
:1028E0004000002028050020FFFF7F001CB50129C3
:1028F00005D0816891F83D11C1F3400131B102B0BA
:102900000022BDE81040114600F06CBE536804A1DF
:10291000CDE90013136808A2022100F03BFE1CBDA4
:1029200020756E6B6E6F776E20706172616D65746D
:1029300065723A200000000025733A257325730D57
:102940000A0000002DE9F74F82B0154602980F00EB
:102950004FF00006C068007A009058D0072248A1C6
:102960002868FDF7F5FD78B1082247A12868FDF732
:10297000EFFD002830D02B6845A2029805B0022157
:10298000BDE8F04F00F006BE012F02D0022F08D0A4
:1029900008E0029805B044A2BDE8F04F022100F023
:1029A000F9BD0126DFF81881002400BF58F8241073
:1029B0000A226868FDF7CCFD10B1641C052CF5D324
:1029C000052C06D004F0FF090224002E54D0002468
:1029D00019E03CA26B68D0E7012F4FF00009F6D058
:1029E000012449E04A462146009800F0C9FA48B956
:1029F0000021204601F0E6FE03463AA20221029899
:102A000000F0C8FD641C01F08BFEA042EAD805B0BE
:102A1000BDE8F08F4FF0000A55F824B001F080FEB9
:102A20008046002609E00021304601F0CBFE20223E
:102A30005946FDF78DFD90B1761C4645F3D34645CA
:102A400006D155F8243030A20221029800F0A2FDF0
:102A50004A465146009800F093FA10B10BE0B24696
:102A6000EDE70021504601F0ADFE03461DA2022114
:102A7000029800F08FFD641CBC42CBD3C7E7000076
:102A8000656E61626C65000064697361626C65000B
:102A9000556E6B6E6F776E206F7074696F6E3A2033
:102AA00025730D0A000000004261642070617261AC
:102AB0006D6574657220636F756E742E0D0A00006B
:102AC0005C000020556E6B6E6F776E2073657665C7
:102AD00072697479206C6576656C3A2025730D0AED
:102AE000000000004C6576656C20756E617661694A
:102AF0006C61626C6520666F72206D6F64756C65C9
:102B00003A2025730D0A0000556E6B6E6F776E20AC
:102B10006D6F64756C653A25730D0A00C0680121FC
:102B200041727047C06800214172704770B588B02B
:102B3000214800F090FA2048001F064600F08BFA6A
:102B40001E4DD5E9014105E0C0F3891202EB90501A
:102B5000641C044404EA010005EB8000C06882079D
:102B6000F2D000200DF1080204EA010305EB830313
:102B7000641CDB6842F82030401C0228F4D3029821
:102B800000F00300012808D002280AD1029803218E
:102B900001EB905004EB900403E00298C0F3831023
:102BA00004443046002101AAFDF7E9FB002800D0CB
:102BB0006C6008B070BD00000C0B0020F406002013
:102BC0002DE9FE4F814601F0ABFD0746D9F80C0018
:102BD00090F80880407A20B91FA20221484600F0F0
:102BE000D9FC22A324A20821484600F0D3FC2AA243
:102BF0000821484600F0CEFC002429E001231A46B3
:102C00002146404601F096FD8246002301222146DE
:102C1000404601F08FFD0546032801D2064600E03C
:102C200003260121204601F0CDFD0346AE4201D22C
:102C300025A200E017A2254850F8261050F82A00D7
:102C40008DE8070022A20821484600F0A3FC641C7E
:102C5000BC42D3D3BDE8FE8F4C6F677320617265B1
:102C60002068616C746564210D0A00006D6F6475E5
:102C70006C655F6E616D6500252D323473207C209C
:102C800063757272656E74207C206275696C64690C
:102C90006E200D0A000000002D2D2D2D2D2D2D2D27
:102CA0002D2D2D2D2D2D2D2D2D2D2D2D2D2D2D2D54
:102CB0002D2D2D2D2D2D2D2D2D2D2D2D2D2D2D2D44
:102CC0002D2D0D0A000000002A0000005C000020ED
:102CD000252D323473207C20252D3773207C202530
:102CE0007325730D0A0000008AB0002001F0D0FCAB
:102CF00008B1FDF7C9FEFDF7E5FE08B1FDF7C4FE1A
:102D000000F012FF002420B1852802D0FDF7BCFEA0
:102D100002E0002000F02AFFFFF74EF920221B49B5
:102D200001A8FDF7C5FB14201325CDE901050320FB
:102D30000090164801238DF818401A4601A91C3846
:102D400000F094FD08B1FDF79FFE10481C3800F01C
:102D50002BFE08B1FDF798FE0D4C606803280ED3DA
:102D600020880CA145EA004001F038FC6068032887
:102D700005D320880D4945EA004001F02FFC01F001
:102D800023FB02481C3800F0E7FDF8E7305800004C
:102D90002C010020466C6173687772697465206548
:102DA00078616D706C652E0D0A000000945B000068
:102DB0002DE9FF4F4FF0000881B014468B46814645
:102DC000C246C0F800802578002D71D0FDF71EFBAB
:102DD00000900068405DC00702D004F801AB84E0B9
:102DE000D9F800008300401CC9F800004BF80340EC
:102DF00015E02678002E78D0B8F1000F05D1222EEC
:102E000010D0272E0ED05C2E1ED0B04514D12046F7
:102E1000FEF7B0FB0246611C2046FDF749FB4FF070
:102E20000008E6E72046FEF7A5FB0246611C2046A7
:102E3000FDF73EFBB046DCE7B8F1000F50D05C2E4A
:102E400061D16078404508D12046FEF793FB0246E9
:102E5000611C2046FDF72CFB55E030281CD10027D3
:102E60000225605DA0F13001072906D86D1C41EAFA
:102E7000C701EDB2CFB2052DF3D3022D0CD92046F8
:102E8000FEF778FB421B61192046491E921CFDF794
:102E90000FFB04F8017BACE778281ED10027022540
:102EA000605DA0F13001092903D841EA07100DE067
:102EB00021E0A0F16101052901D8573804E0A0F113
:102EC0004101052907D8373840EA07106D1CEDB2DB
:102ED000C7B2042DE4D3022DD1D8B8F1000F12D11E
:102EE00000980068805DC0070DD0D9F800100498E4
:102EF0008142FFF468AFD9F8002040464BF822A089
:102F000005B0BDE8F08F641C73E72DE9F047C78872
:102F10000446181D16468946B0FBF7F1B0FBF7F2E0
:102F200007FB12009A193A44D21CB2FBF7F2DDF803
:102F300020A001E02468491E0029FBD13D1A8846E3
:102F4000B54216D818E0BAF1000F05D0211809EBE8
:102F500008002A46091D04E0204409EB08012A461E
:102F6000001DFDF7A5FA00202468761BA844B7428F
:102F700001D9354600E03D46002EE4D1BDE8F0879A
:102F800070B5144600230D4606461A4601F0D2FBE2
:102F9000844201D9002070BD22462946304601F006
:102FA000EFFB012070BD000030B5024669B101F0B1
:102FB000B7FB0021084C0BE001EB410304EB83035A
:102FC00015685B88AB4202D11160002030BD491CFE
:102FD0008142F1D3052030BDF000002010B50C4631
:102FE0000021E16061600349A160012101F0EAFB79
:102FF000206010BD705A000070B58468006804F14C
:103000000805FEF7B7FAC1B2A971E07C6A790844F5
:10301000B0FBF2F302FB13035B1C2B70E07C084453
:10302000B0FBF2F35B1CAB70A07C0844B0FBF2F386
:103030005B1CEB70A07C0844B0FBF2F102FB1101B9
:10304000491C6970284670BD08B500216A46FDF725
:1030500048F9009808BD08B501216A46FDF782F9D4
:10306000009808BD08B501216A46FDF72DF908BD95
:1030700070B5044600252846FDF79EFD216862686C
:10308000086890420ED9401E08600178238AE268E1
:1030900001FB0325227A2168101AC0B20A79824204
:1030A00000D208710020FDF789FD284670BD70B57B
:1030B00005460C460020FDF77FFDE868298A201AA6
:1030C000B0FBF1F12A681068431C13600170BDE881
:1030D00070400020FDF772BD10B530B1017A426832
:1030E0000368891AC9B21A6006E00E2010BD036891
:1030F0001A68541C1C601170491EC9B2F7D20068CE
:1031000000210171084610BD70B51546826892F81D
:103110003D41C4F3400424B11A46294600F062FA46
:1031200006E039B1516804A20B68022100F032FABE
:10313000012070BD002070BD25733A2062616420BB
:10314000706172616D6574657220636F756E740D68
:103150000A00000010B5044602290CD1A06890F8BE
:103160003D01C0F3400030B120460022BDE81040D0
:10317000114600F037BA064A06A1206900F060FF48
:10318000034A2069BDE81040093202A100F058BF8F
:10319000C8580000257300001CB5012905D002297C
:1031A0000BD014D94FF0010112E002B04FF0000231
:1031B000BDE81040114600F015BA53680849CDE942
:1031C0000013136807A2022100F0E4F91CBD0021DE
:1031D00002B00023BDE810401A46FFF795BF00007B
:1031E000DC58000025733A257325730D0A00000092
:1031F0003EB50446012901D0012100E00021002351
:103200001A46FFF781FF002818D1E068C06801F076
:1032100052FCC0B2642110FB01F2E168C968896800
:10322000B2FBF1F2D2B20092CDE90101A06804A292
:103230000821D0F82C31204600F0ACF93EBD00004A
:103240004C6F7374204C4F47733A2025750D0A4D0F
:103250006178204C4F4720717565756520757469DC
:103260006C697A6174696F6E3A2025752525205B3B
:1032700025752F25755D0D0A0000000010B5044668
:10328000012901D0012100E0002100231A46FFF7A7
:103290003BFF002808D1A168C1F82C01E068C06894
:1032A000BDE8104001F00ABC10BD00007CB514461A
:1032B0000546012903D0022908D0012107E002B008
:1032C0000022BDE87040114600F08CB900210023B7
:1032D0001A46FFF719FF002809D161680448CDE9B3
:1032E000000104A202212846236800F053F97CBDA6
:1032F000DC58000025733A257325730D0A00000081
:1033000010B50446012901D0012100E0002100236D
:103310001A46FFF7F9FE002806D1A06890F83D1183
:1033200021F0040180F83D1110BD10B504460129BB
:1033300001D0012100E0002100231A46FFF7E4FE3E
:10334000002806D1A06890F83D1141F0040180F8F2
:103350003D1110BD7CB514460D460646022901D923
:10336000012100E0002100231A46FFF7CDFE0028CE
:1033700012D1022D06D0B06890F83D0100070CD59F
:103380000AA30BE061680A48CDE9000109A2022105
:103390003046236800F0FEF87CBD09A302B0304639
:1033A000BDE8704007A2082100F0F4B86F6E00007D
:1033B000DC58000025733A257325730D0A000000C0
:1033C0006F6666004563686F207374617475733A45
:1033D0002025730D0A00000010B50446012901D014
:1033E000012100E0002100231A46FFF78DFE00288E
:1033F00006D1A06890F83D1121F0080180F83D1138
:1034000010BD10B50446012901D0012100E00021C2
:1034100000231A46FFF778FE002806D1A06890F82E
:103420003D1141F0080180F83D1110BD7FB5044603
:10343000012901D0012100E0002100231A46FFF7F5
:1034400063FE002827D1A0680026D0F83451F5B1DA
:1034500001E0082E1BD20023092201A9284601F011
:1034600091FA9DF80C20A168092328469431521C3A
:1034700001F088FAA068334694300090029D761CD3
:1034800005A20821204600F085F8002DE1D1A168B1
:10349000002081F894007FBD5B2533645D20257397
:1034A0000D0A00007CB515460446012903D0022907
:1034B00017D9012116E0A16801F10C020D3101F0CC
:1034C00047FE00281ED0A16850200FA24873A168B3
:1034D0001820087302B02046BDE87040042100F0B7
:1034E00059B8002100231A46FFF70EFE002809D123
:1034F00069681548CDE9000114A2022120462B6815
:1035000000F048F87CBD00006E6F20726573706F2C
:103510006E73652066726F6D207465726D696E6181
:103520006C2C20617373756D65642038307832348B
:103530002063686172732073637265656E207369BE
:103540007A650D0A00000000DC58000025733A255A
:103550007325730D0A00000010B50446012901D03F
:10356000012100E0002100231A46FFF7CDFD0028CD
:103570000AD1064A06A1206900F062FDA168502028
:103580004873A1681820087310BD0000D6580000C9
:10359000257300000FB438B5044607A80090A06852
:1035A00090F83D21520717D5C27B8A4214D0B0F85B
:1035B0000F50204602F0D4F86A462069069900F0C0
:1035C00058FDE9B2204602F0CBF8290A204602F065
:1035D000A9F838BC5DF814FB6A462069069900F02A
:1035E00048FDF6E72DE9F04F804689B016460C46B7
:1035F0008948FDF7BFFF054687485438FDF7BAFFF5
:10360000281A1FFA80F9844884A241380090D8F81B
:1036100008000821406803684046FFF7BBFFD8F860
:10362000080040680068FDF7A5FF05467A48413864
:10363000FDF7A0FF284482B2D8F8080000234068B4
:1036400041684046FEF758FE76A208214046FFF743
:10365000A1FF16B30CB300251DE000BF05EB450A22
:1036600004EB8A0BDBF80400FDF784FF074654F8EF
:103670002A00FDF77FFF391849450BD9DBF8040014
:10368000FDF778FF074654F82A00FDF773FF38442A
:103690001FFA80F96D1CB542E0D35F485438FDF73E
:1036A00069FF4844801C1FFA80F95B4800904B4634
:1036B0005FA208214046FFF76DFF09F1030087B2C2
:1036C000079000233A465CA14046FEF715FE002C09
:1036D00052D000254EE000BF05EB450A04EB8A0BF3
:1036E00054F82A00DBF804306BB350B34A4957A2B0
:1036F0005439CDE9001008214046FFF74BFF09F18E
:1037000002000090DBF80400FDF734FF074654F890
:103710002A00FDF72FFF07443F485438FDF72AFFE2
:1037200039180098401A801EC1B24046FEF70CFCC2
:103730003A224949D8F8100000F082FC0098401C59
:103740000AE0009301E040B100904B4638A2082106
:103750004046FFF71FFF079887B2DBF8081029B132
:1037600000233A464046FEF7C7FD02E04046FEF71A
:1037700017FB6D1CB542AFD3D8F8080040688068CD
:10378000002845D0814600200446064603AD02903D
:103790003246761C02AB012148460095FEF750F9EF
:1037A000029850B10068FDF7E5FEA042F0D90298FA
:1037B0000068FDF7DFFE84B2EAE7012E28D027A2D9
:1037C00008214046FFF7E6FE00273A467F1C02AB81
:1037D000012148460095FEF733F90298002817D0DA
:1037E000A11C8EB200680090334611A20821404609
:1037F000FFF7D0FE0298F61CB2B2416821B1002357
:103800004046FEF779FDE0E74046FEF7C9FADCE7FF
:1038100009B0BDE8F08F000005590000257325733D
:10382000000000004F7074696F6E733A0D0A00005B
:103830002020252D2A733A0053686F7720636F6D1F
:103840006D616E642068656C702E00002020257309
:103850002573257300000000B80F000053756263E4
:103860006F6D6D616E64733A0D0A00002DE9F041D1
:103870001E460546069F00F011F804000CD15EB10B
:103880003946E86800F010FD002802DA0420BDE89F
:10389000F081E868012141722046F8E770B50446DE
:1038A000C068154623464461606802681668234A6A
:1038B000B047002840D1606901F051F800283BD1A1
:1038C000A168C1F83001A168C1F834014FF4A071BA
:1038D000A068FCF714FEA068012180F83C11A268E2
:1038E000184B92F83D0165F3820082F83D01A26811
:1038F00040F0080082F83D01A068134A0170A168F9
:1039000050204873A1681820087300210C48D21A6F
:1039100007E000BF03EBC1046468246840F821405D
:10392000491CB1EBD20FF5D3072A04D9D108074BB4
:103930000422FCF76FFD002070BD00008D18000010
:10394000D000002064610000A46100004951000023
:103950000023FEF737B8000010B5044680680078F1
:10396000D8B1012819D0022817D12046FDF703FD50
:1039700000212046FDF740FC78B10AA20321204631
:103980002368FFF707FEA36806A208212046143328
:10399000FFF700FE2046FEF7A1FA2069BDE81040BF
:1039A00000F05BBB2573000070B5044680680078AA
:1039B000012801D0082070BD606801688A68002174
:1039C000904705000FD10821204601F0C9FE0121D2
:1039D000204601F0A7FE05A1206900F031FB02217D
:1039E0002046FDF7B3FD284670BD00000D0A0A0011
:1039F00000F180400068002800D00120704708B521
:103A000000F18040002101600068009008BD0000C6
:103A100000283ED01F49204A096800BF00BF00BFF0
:103A200000BF00BF00BF00BF00BF91422FD000BF4A
:103A300000BF00BF00BF00BF00BF00BF00BF00BF8E
:103A400000BF00BF00BF00BF00BF00BF00BF00BF7E
:103A500000BF00BF00BF00BF00BF00BF00BF00BF6E
:103A600000BF00BF00BF00BF00BF00BF00BF00BF5E
:103A700000BF00BF00BF00BF00BF00BF00BF00BF4E
:103A800000BF00BF00BF00BF00BF00BF00BF0138C4
:103A9000C3D17047CC0000200024F40000283ED0A1
:103AA0001F49204A096800BF00BF00BF00BF00BF18
:103AB00000BF00BF00BF91422FD000BF00BF00BFBA
:103AC00000BF00BF00BF00BF00BF00BF00BF00BFFE
:103AD00000BF00BF00BF00BF00BF00BF00BF00BFEE
:103AE00000BF00BF00BF00BF00BF00BF00BF00BFDE
:103AF00000BF00BF00BF00BF00BF00BF00BF00BFCE
:103B000000BF00BF00BF00BF00BF00BF00BF00BFBD
:103B100000BF00BF00BF00BF00BF0138C3D1704766
:103B2000CC0000200024F40070B50E4C0025207855
:103B300008B1852513E00021A16061602161E16089
:103B40004FF0E020D0F80001012610F0010F03D162
:103B50000721002000F045F803480660267028463B
:103B600070BD0000F40400201805004070B5154D2C
:103B70000446A87838B114B1616801208847002054
:103B8000FDF71AF815E00020FDF716F824B10D48EE
:103B900021461030FEF722FEE86850B94FF48270DB
:103BA000FFF72DFF02204107C1F804030649012059
:103BB0000860E868401CE860BDE870400020FCF741
:103BC000FDBF0000F40400200800004000F01F02C8
:103BD000012191404009800000F1E020C0F88011EF
:103BE00070474907090E002806DA00F00F0202F1BB
:103BF000E02282F8141D03E000F1E02282F80014B4
:103C000000F01F02012191404009800000F1E020F6
:103C1000C0F88012C0F800117047000B40B2704726
:103C20000121B1EB507F01D1012070470020704786
:103C30002DE9F04105460079164F904607EB4014F8
:103C40000E46E07E10B10820BDE8F081707F20773D
:103C50002846FCF7C7FF5FEA080060603169216011
:103C600003D0317F2846FEF77DFD287907EB401011
:103C7000007F0028286801D0082100E00421C0F856
:103C800000150020E0752076A0750121E176A07670
:103C9000DAE70000080500202DE9F041054600792B
:103CA000284E904606EB40140F46207F18B1084678
:103CB000FFF7B6FF80B1626800234FF404704FF441
:103CC000017172B12A7906EB4212127F002A2A682A
:103CD00005D0C2F8080304E01020BDE8F081C2F866
:103CE0000813E27DB2B1227E7AB162685AB12A79B4
:103CF00006EB4212127F1AB12968C1F8040302E0F0
:103D00002868C0F804131120E7E72761012384F82D
:103D1000188005E084F817800020E7606076207640
:103D20002879424606EB40103946007F0028284695
:103D300003D0BDE8F04100F06FB8BDE8F04100F0FD
:103D400017B80000080500200179084A02EB41116C
:103D500001220B7F01680BB14A6070474FF4017379
:103D6000C1F8083300684260704700000805002071
:103D70002DE9F05F04460079264901EB4015A87E45
:103D8000184302D1204601F056F9686800282068DF
:103D900006D04FF40171C0F804130020BDE8F09F75
:103DA0004FF4A276314601F010F8B1464FF4927A02
:103DB0004FF4847B5146206801F002F806465946CC
:103DC000206800F0FDFF80464946206800F0F8FFBB
:103DD000074648EA07003043ECD056EA070007D10F
:103DE0002946206801F002F9E87D697E8842E1D821
:103DF0000020E8750EB10320D0E70FB10F20CDE70A
:103E0000A97E01200029216801D00860C5E748602B
:103E1000C3E70000080500202DE9F05F894604464D
:103E20004FF488759A46904600260068294600F0AF
:103E3000DDFF4FF4A2773946206800F0D7FF2068F5
:103E4000C0F83495C0F838852068BAF1000F14D056
:103E5000D0F8001241F02001C0F800122179DFF8FB
:103E6000648008EB4110406850B120684FF4047141
:103E7000C0F804133046BDE8F09F01210160EDE772
:103E8000AA46B9464FF4927B5146206800F0A9FF3C
:103E900007464946206800F0A4FF054659462068B9
:103EA00000F09FFF014647EA05000843ECD0237964
:103EB000002208EB4310C27501B10326002DD9D0B2
:103EC0000F26D7E7080500202DE9F04705460079C1
:103ED0003F4E904606EB40140F46207F18B108462F
:103EE000FFF79EFE30B1284600F074F820B1112093
:103EF000BDE8F0871020FBE784F81680A760002754
:103F0000A78228794FF0010806EB40143E46207F37
:103F10000028286825D04FF49079494600F066FFC4
:103F20004FF4AC7A5146286800F060FF2868A17D04
:103F3000A268C0F84425C0F848152868C0F8088071
:103F40006068F0B94946286800F04BFF804651464A
:103F5000286800F046FF58EA0001F3D058BBA77567
:103F60000FE04FF48E7A514600F02FFF2868C0F81A
:103F700008802146286801F007FA61684FF48070D4
:103F800089B13046B4E75146286800F019FF10B9EE
:103F9000A08A4845F7D1A08A484505D0214628681F
:103FA00001F0F2F900E08146A08AA17D8842EAD3BF
:103FB000A08A484501D10F26D1E75146286800F074
:103FC000FFFE0028F9D02868C0F80C80C7E7000081
:103FD000080500200079044901EB4010807D00288D
:103FE00000D00120704700000805002070B504468D
:103FF00000791149002601EB401520682A7FC0F89E
:104000000065686888B1207901EB4010007F0028C6
:10401000206801D0094901E008498C39C0F808132B
:104020002068FFF7FAFDFFF7D1FD204600F02CFFD6
:10403000EE766E6070BD00000805002010030200DF
:104040000FB408B50399002904D004AA00926A4667
:1040500000F00FF801B05DF814FB10B5826804465B
:10406000002A05D0D4E90403216898470020A06005
:1040700010BD2DE9FC4791460C00804676D014F81F
:10408000011B39B125290ED04046FCF737FE2078B8
:104090000028F4D198F80C00002867D04046BDE80D
:1040A000FC47FFF7DABF0020012221782B291BD023
:1040B0002D2902D0302908D102E040F0010001E0B2
:1040C00040F00200641C002AEFD100252A290ED0FE
:1040D0002178A1F130020A2A11D205EB850201EB09
:1040E0004205641C303DF1E740F00400EAE7D9F8EE
:1040F00000100B1DC9F800300968641C0D442178BC
:1041000000232E290BD114F8011FA1F130020A2A35
:1041100005D203EB830201EB4203303BF3E76C294A
:104120000DD068290BD0692921D00BDC252918D0A6
:10413000582931D063290ED0642915D117E014F81D
:10414000011FECE7702969D0732932D075291BD083
:10415000782909D120E0D9F80000011DC9F8001024
:1041600001784046FCF7CAFD641C90E76CE0D9F882
:1041700000100A1DC9F800200968CDE900500A2284
:104180004046FEF79BFAEFE7D9F800100A1DC9F880
:10419000002009680A2206E0D9F800100A1DC9F8B3
:1041A000002009681022CDE90050404601F048FA8D
:1041B000DAE7D9F8001000270A1DC9F800200E68B8
:1041C000C00705D112E04046761C7F1CFCF796FD27
:1041D00031780029F7D104E0202140466D1EFCF71C
:1041E0008DFDBD42C0D9002DF6D1BDE74EB13046A0
:1041F000FCF790F9074604E0202140466D1EFCF7CD
:104200007DFDBD4206D9002DF6D103E04046761C67
:10421000FCF774FD31780029F8D1A5E7D9F8000042
:10422000011DC9F80010056830214046FCF766FD05
:1042300078214046FCF762FD08200021CDE900010D
:10424000034610222946B0E7BDE8FC8770B541EA75
:104250004201DDE904564FF0A04441EA830141EAFE
:10426000052104EB800041EA0641C0F8001770BD4B
:104270001CB5002100910B4601220191FFF7E6FFDA
:104280001CBD1CB500220B46009211460192FFF79F
:10429000DDFF1CBD1CB5002100910B4601220191E0
:1042A0001146FFF7D3FF1CBD2DE9F0410E461D4915
:1042B00004460025D1F81024104609E0037AAB42E9
:1042C00005D16D1C0A2DF7DB4FF0FF3527E0406864
:1042D0000028F3D1681C22D02572D1F8100430B127
:1042E00040686060D1F810044460002713E00020AB
:1042F000C1F810446060F8E700231A4639462846A2
:1043000000F018FAB04200D330460246207A39460F
:1043100000F036FA7F1C00F003FAB842ECD82846C9
:10432000BDE8F081F4060020704710B5446960686C
:1043300001688A680121904718B10420A1680870BB
:1043400010BD0320FAE72DE9F34146690446B06841
:10435000007804281ED0032807D0002501A9E068B2
:1043600000F0B7FB85F0010709E00125F6E73946C3
:104370003046FCF741FF01A9E06800F0AAFB0028E5
:10438000F5D1019800F0E4FA002D03D00021304669
:10439000FCF732FFBDE8FC810A4A012902EBC000AC
:1043A00007D0022907D0032907D0042907D000200D
:1043B00070470220704704207047007970474079A9
:1043C00070470000A46100002DE9F04F8DB0FCF7AC
:1043D000A5FC18B100200DB0BDE8F08F7C4800218D
:1043E000C0F81814BFF34F8FD0E9014504EA050166
:1043F00000EB81014FF000090AE000BFC1F3891210
:1044000002EB9151641C0C4404EA050100EB8101AC
:10441000C9688A07F2D0002103AA804604EA050091
:1044200008EB8000641CC06842F82100491C434628
:104430000229F3D3039800F00300022806D00128D4
:10444000039853D0C043800770D0BCE0039850223B
:10445000810D8B46B2EB905F00D850210F4667F379
:104460009F50C0F3C20A039008315A4800F027FA5F
:1044700006007AD000F06CFA4B46082203A93046B9
:1044800000F086FA09F1080004EA05010190681AB3
:104490008000001D874222D94D4D0C3530B1C2B28B
:1044A00008EB8101381A91460C3104E02946FAB232
:1044B000002591462846C7B23046019B00F068FAB5
:1044C000019800EB09032DB13A4629464FEA060050
:1044D00000F05EFA0BF1030004EB90043CE008EB03
:1044E00081013A4630460C31019BF1E7C0F383105D
:1044F000062800D30620039960F38911C1F38310C5
:10450000C1F3C20A801C03918100324800F0D7F940
:10451000060058D000F01CFA4B46082203A930468A
:1045200000F036FA09F1080900270FE01EE000BF8D
:1045300004EA050008EB80014B46042230460C31AA
:10454000641C00F025FA09F104097F1C0398C0F3EC
:104550008310B842ECD846B1D8F81054D8F81804F3
:10456000474608B3304600F0FCF92CE0D3F81804B5
:1045700000283FF430AF26E0687A012813D1049870
:10458000154A00EB400002EB8000297A806801EBBD
:104590004101C84000F00700504504D32A6828466E
:1045A0003146126890476D68002DE5D1304600F025
:1045B000D8F90020FCF700FBD7F8180400B97C609C
:1045C0000020FCF7FBFAFCF7A9FB80F0010002E7F2
:1045D000F4060020785A0000F000002000231A465C
:1045E00000F06ABD2DE9F0470E4680461C46924613
:1045F00008293ED894F80C900020207319461046E4
:1046000000F09CFC0025B54206D218F805201AA13E
:104610002046FFF715FD03E019A12046FFF710FD26
:104620006D1C082DEFD317A12046FFF709FD0025CB
:10463000B54210D218F80570FBF7E8FE0068C05DBF
:1046400010F03E0F01D03A4600E02E220EA1204687
:10465000FFF7F6FC03E00DA12046FFF7F1FC6D1C0F
:10466000082DE5D301222146504600F049FC84F88C
:104670000C90BDE8F0870000202530327800000063
:10468000202020007C0000002563000020000000A6
:104690002DE9F0471D484FF00009FF21C0F80090B8
:1046A000C0E90191C0F81894C0F8149480F81C94E3
:1046B000174800F054F9002826D11649DFF8588031
:1046C000A1EB0800C70800241BE0002635460CE0DB
:1046D000AC4209D058F8340058F835101422FBF7D2
:1046E00037FF002800DD761C6D1CBD42F0D30B495E
:1046F00004EB440001EB8000C0F804900480468085
:10470000641CBC42E1D30020BDE8F087F406002021
:10471000785A0000D4610000A4610000F00000207D
:1047200002480349401AC00870470000D4610000E5
:10473000A46100007FB505461146002401A87BB1A5
:10474000FEF732FCA0B901980B4900EB400001EBE9
:10475000800005EB45018068C84000F0070407E0D1
:10476000FEF722FC20B90548019900EBC1008479CD
:1047700004B0204670BD0000F0000020A4610000DD
:1047800030B50F4B01EB410103EB810400EB40001E
:104790000723A56803FA00F18D4302F00701814069
:1047A000294300252A46A16003FA02F00840D040C0
:1047B000A84200D90546D21C0A2AF5D3656030BD4F
:1047C000F000002013B56846FEF7EEFB08B10020AC
:1047D0001CBD0248009950F831001CBDA4610000C6
:1047E00070B508480125D0F8104480F81C5405E045
:1047F000657221682046496888476468002CF7D1B3
:1048000070BD0000F40600202DE9FF4781460C9D95
:1048100000200C462F7B28739846164629461846DA
:1048200000F08CFB072E42D2DFE806F004090F16D9
:104830001F2A360049462846FFF702FC37E0494662
:1048400028462268FFF7FCFB31E0D4E90023494603
:104850002846FFF7F5FB2AE0A0680090D4E9002382
:1048600049462846FFF7ECFB21E0D4E90201CDE9F7
:104870000001D4E9002349462846FFF7E1FB16E092
:1048800004F1080007C88DE80700D4E90023494671
:104890002846FFF7D5FB0AE004F108000FC88DE8B1
:1048A0000F00D4E9002349462846FFF7C9FB002240
:1048B0002946404600F024FB2F73BDE8FF872DE911
:1048C000F041058A80462D1F4819C01CB0FBF5F049
:1048D000C6B24046FEF7CCFB040019D00020207180
:1048E00001206071E58000272546761EC4F800800F
:1048F0000BE04046FEF7BCFB60B16179491C617179
:10490000286005467F1CC0F80080B742F1D32046DE
:10491000BDE8F081204600F002F80020F8E72DE91C
:10492000F041457901466B1E002201E00968521CE6
:104930009A42FBD30F680146002605E038460C6812
:10494000FEF7B5FB2146761CAE42F7D3BDE8F081F9
:1049500008B501216A46001DFBF78FFC08BDFEF774
:10496000BBBB38B50446001D01216A46FBF792FC2B
:10497000009810F0FF0F04D12046BDE83840FFF743
:10498000CEBF38BD38B501240094FEF7BEFA38BD5D
:1049900038B500240094FEF7B8FA38BD0949022260
:1049A0000A60BFF36F8FBFF34F8F0A1D1060064878
:1049B0000268002AFCD000200860BFF36F8FBFF3AD
:1049C0004F8F704704E5014000E40140094A01238C
:1049D0001360BFF36F8FBFF34F8F0160064801680C
:1049E0000029FCD000201060BFF36F8FBFF34F8F02
:1049F0007047000004E5014000E4014070472DE9E4
:104A0000F0410446002790460E463846FCF7D4F89D
:104A1000204600F038F830B105270020FCF7CEF82A
:104A20003846BDE8F08120680568B8F1000F05D16F
:104A30000168204600F046F821680860E268012A13
:104A40000CD0022A0ED0042A11D06068082A13D094
:104A500005FB02013046FBF72BFDDEE76068405D99
:104A60003070DAE7606830F815003080D5E76068AC
:104A700050F825003060D0E700EBC500D0E9001009
:104A8000C6E90010C9E7016808684968884201D191
:104A9000012070470020704701680A6849688068F3
:104AA000884201D9491C00E00021914201D1012036
:104AB00070470020704700688068704700680021D8
:104AC000816070478068884201D9481C7047002087
:104AD00070472DE9F04104464FF000080E4640466D
:104AE000FCF76AF82046FFF7D7FF070009D0207CC3
:104AF00038B14FF004080020FCF760F84046BDE8EC
:104B0000F0812068456841682046FFF7DBFF216897
:104B1000486037B1206801682046FFF7D3FF21685D
:104B20000860E268012A14D0022A16D0042A19D09B
:104B3000082A1CD06068314605FB0200FBF7B8FC70
:104B4000204600F029FA21688A688242D3D2886020
:104B5000D1E7616830784855F2E76168308821F81C
:104B60001500EDE76168306841F82500E8E7D6E90F
:104B70000001626802EBC502C2E90001E0E72DE92D
:104B8000F0411E0015460F46044606D0A068FEF709
:104B900069FA10B11120BDE8F081A0686268D0E91F
:104BA0000331A3EB010C501C844507D10020286081
:104BB00016B1A068FEF748FA0020ECE703EA02000D
:104BC00001EA0206B04202D3111A491C00E0C91AD8
:104BD0002A688A4200D21146296021680844386058
:104BE000A0682A68C1681144C160E5E72DE9F04179
:104BF0000546806817468846001DFEF733FA10B157
:104C00001120BDE8F081A868816800690C1A386835
:104C1000A04200D204463C60AA68696810699268A4
:104C200008400A40824201D9161A01E00E1A761C89
:104C3000B44208D92968324608444146FBF738FC9B
:104C4000A41B0020B0442968224601444046FBF7DB
:104C50002FFCA8683A68016911440161A868001D29
:104C6000FEF7F2F90020CCE72DE9F04105461746A2
:104C700088468068FEF7F6F910B11120BDE8F08192
:104C8000A86881680069081A69680C1A3868641C89
:104C9000A04200D204463C60A86869688068084069
:104CA0000E1A761CB44208D9296832460844414697
:104CB000FBF7FEFBA41B0020B044296822460844F1
:104CC0004146FBF7F5FBA8683A68816811448160AA
:104CD000A868FEF7B9F90020D0E710B5826894689B
:104CE0001369E41AA14201D9042010BD19441161CD
:104CF000826851618068001DFEF7A6F9002010BD92
:104D00002DE9F0411E0014460F46054607D0A8685D
:104D1000001DFEF7A7F910B11120BDE8F081A868C9
:104D2000816840690A1A09D06B68184019408142AD
:104D30000DD9266896420AD9226010E00020206032
:104D40001EB1A868001DFEF77FF90020E5E781424B
:104D500005D8191A2268491C8A4200D9216029689D
:104D600008443860A8682268416911444161ECE751
:104D70008268002191608268116182685161826855
:104D8000D1608268516080680160704738B5826880
:104D9000456894681369E31AEB1A5B1C994201D9C0
:104DA000042038BD6318936081686A46CB608068D0
:104DB0000021FBF796FA08B1002038BD082038BD65
:104DC0004058002800D00120704708B5002242500A
:104DD0004058009008BDD0F80403084000D00120DE
:104DE00070474058002800D00120704708B50022C5
:104DF00042504058009008BD2DE9F84317460C007A
:104E000005462BD0DFF870804646D8F80000FCF746
:104E1000B1FB3844C7B23068FCF7ACFBA968497BEA
:104E2000081AB0FBF7F0C6B22046FCF7A3FBA9684E
:104E3000381AC7B2487CB0FBF6F206FB1202401CDF
:104E4000487482B123460DA207212846FEF7A2FB33
:104E500039462846BDE8F843FDF776B8A968002032
:104E60004874BDE8F883009405A207212846D8F8C5
:104E70000030FEF78FFBEBE75800002025730000A1
:104E80000D0A25732573000070B5034600791B4990
:104E900001EB40101968027F4FF0FF30002AD1F873
:104EA0000C25D1F81465D1F80855D1F8104504D077
:104EB000C1F80C05C1F8140503E0C1F81405C1F8E8
:104EC0000C051968C1F80805C1F81005501C02D07E
:104ED0001046FFF7CDF9701C02D03046FFF7C8F935
:104EE000601C02D02046FFF7C3F9681C04D0284696
:104EF000BDE87040FFF7BCB970BD00000805002098
:104F000010B50C46C17949B11AB109A12046FFF785
:104F100097F82046BDE81040FFF79FB8007A0028B8
:104F2000F3D0044804A102682046FFF789F8ECE7B3
:104F30000D0A0000A80000202573000070B504468B
:104F4000C0790D4600281CD1207A50B1A179A088E3
:104F5000FFF722FA0B4951F820200BA12846FFF752
:104F60006FF8A0880021FFF72DFC03460549A079C2
:104F7000143951F820202846BDE8704003A1FFF7FE
:104F80005FB870BDA8000020257300003C25733E6B
:104F90002025733A2000000001680A6849689142A0
:104FA00001D3881A70478068801A0844401C7047F3
:104FB00070B5012670044FF0E0210025C1F8800192
:104FC000084C4010C4F84803C4F8080366602F205A
:104FD000FEF71EFDA660044C2F20A560FEF718FD0D
:104FE000A57070BD001001404000002070B505465E
:104FF000C87D0C4600284FF4847128460AD0FFF77C
:10500000E4FED5F81805627EE1688854607E401C95
:10501000607670BDFFF7D9FED5F8180570BD1FB5D5
:1050200001238DF800308DF808100192D0E90012AC
:10503000684690471FBD10B5044600684FF4927152
:10504000FFF7C3FE4FF484712068FFF7BEFE2068AF
:105050000121016010BD1CB50446FF200190012311
:1050600001AA6946E068FFF78AFD002810D101997E
:1050700000290DD0CAB260690099FEF70DFE002824
:1050800006D1A068224640F6CD410068FBF744FDFA
:105090001CBD00000022CA604A60054A8A600528DB
:1050A00003D2044A52F8200000E000200860704754
:1050B000705A0000700000202DE9F843214C88460A
:1050C000054691461F4669461846A668FBF7E6FD69
:1050D00070B30098811C00220AE000BF01EA060CB0
:1050E00059F8223004EB8C0C491C521CCCF80C30C3
:1050F000BA42F3D30246401C304004EB80002B0C34
:10510000C36002EA060004EB8002E80652F80C0FC6
:1051100002D540F0040001E020F0040065F3C50072
:1051200067F3891068F39F2020F00300401C106093
:1051300094F81C0402E000BFFFF746F90028FBD1F9
:10514000BDE8F883F406002009680068FBF7E9B9B8
:105150002DE9F04115460E460446FCF72BFE78B9C2
:10516000A068FA21077A90F80A802046FCF7ECFE46
:10517000FA212046FCF796FD2046FCF71BFE10B1F5
:105180000620BDE8F081A068007A3070A068807ABF
:1051900028703078C01BC1B22046FCF7F5FD297895
:1051A000A1EB0800C1B22046FCF7DAFE0020E8E7D8
:1051B0004069FEF7C9BD00002DE9F84F1D4C0025E0
:1051C0006846D4E901A6FCF7D7FE002738B30023D0
:1051D000009A61681CE0D1F800C00846944503D9E4
:1051E000ACEB02020A6015E0A2EB0C02634407601C
:1051F000D0F80CC0C1698146BCF1000F08D006EBA5
:10520000030828F07F48C0E9018CC9F81C50054606
:105210000029E0D128466160FDF7ECFA03E028465A
:10522000FDF7E8FA10B15046FCF79CFCE770BDE8CA
:10523000F88F0000400000200D4B10B5596831B1C7
:1052400002680C68A24204D8A21A0A60C1615860C0
:1052500010BD0B4603E00B46C969121B21B10C6857
:105260009442F8D3A41A0C600260C161D86110BDE9
:10527000400000202DE9F041144E77683D462C4651
:1052800003E0844204D02546E469002CF9D11BE0F8
:10529000D4B1A5420BD1F869706040B90C49012026
:1052A00088600021B160F0702F20FEF7B1FB21680B
:1052B000E069E86110B102681144016070688742DA
:1052C00002D00120BDE8F0810020FBE74000002073
:1052D00000100140F8B5064600240D462046FBF7B5
:1052E0006BFC684600F006FA68B105700849466034
:1052F0009DF8000048700020FBF760FC1420FBF7CD
:105300008AF92046F8BD04240020FBF757FCF8E793
:10531000280500202DE9F041194D6C68002C2CD097
:10532000184800270068A968B846401A20F07F4650
:105330002068B0420CD82146361A0744E469087C3C
:1053400020B181F81080886949698847002CEFD125
:1053500029786878814206D1401CC0B26870022862
:1053600001D185F80180064869780C3040F8217039
:10537000BDE8F0411420FBF74EB9BDE8F081000014
:10538000400000200415014070B50C4605464FF45E
:105390008E71FFF71AFDA18AA068415CA08A401CAB
:1053A000A082C5F81C1570BD1FB500228DF8002025
:1053B0008DF80810816801918275D0E90012684665
:1053C00090471FBD7CB5FF260546009600780C4629
:1053D000B8B1012806D0022812D1297AE068FFF777
:1053E000D5FC0AE0297AE068FFF7D0FC287A20B1E2
:1053F0006068D0E90021002090472046FFF72BFE8F
:105400007CBD297A2069FFF768FC009601236A4673
:1054100001A92069FFF774FC009820B1C2B260694D
:105420000199FEF751FD6068D0E900210120904705
:105430007CBD2DE9FF470C4605464FF40071FFF790
:10544000CAFC01274FF40178002618B34FF4927973
:1054500049462846FFF7B4FCE0B149462846FFF725
:10546000B4FCC5F80883A07E00B96F6002208DF8F7
:105470000000D5F88004C5F880040390E07D8DF825
:105480000800E0680190E6752676D4E900126846C7
:10549000904727E004212846FFF79DFC10B34FF406
:1054A00084712846FFF78CFCE0B121462846FFF7BF
:1054B0009DFDE07D617E884214D1207E38B1617E01
:1054C000E268E0752069E0602676667607E0A07EF7
:1054D00000B96F60C5F80883E675617EE268204612
:1054E000FFF79DFD4FF48E7841462846FFF768FC94
:1054F00088B1A08AA17D884204D221462846FFF7C0
:1055000043FF08E041462846FFF75FFCA17D11B14B
:105510002046FFF749FF4FF4A27841462846FFF79F
:105520004FFC002812D041462846FFF74EFCA07ED3
:1055300000B12F60E07D002808D0E675617EE2684A
:1055400004B02046BDE8F047FFF769BDBDE8FF871E
:105550002DE9FF410C464FF4927705463946FFF797
:1055600040FC0026C0B139462846FFF73FFC022028
:105570008DF80000D5F88004C5F880040390D5F8B4
:105580003C058DF80800E0680190E6752676D4E9C0
:1055900000126846904724E04FF488773946284641
:1055A000FFF71FFCE8B139462846FFF71FFCD5F886
:1055B0003C05C1B2E07D884213D1207E60B1E26833
:1055C000D5F8000220F02000C5F80002207EE0752A
:1055D0002069E060267601E0E675E2682046FFF784
:1055E0001EFD4FF4A27739462846FFF7FAFB68B153
:1055F00039462846FFF7FAFBE07D38B1E675D5F865
:105600003C05E268C1B22046FFF709FD4FF49076F1
:1056100031462846FFF7E5FB00280FD031462846E3
:10562000FFF7E4FBA07D002808D0D5F84C0504B0B6
:10563000C1B22046BDE8F041FFF7B6BEBDE8FF812C
:105640002DE9F05F8346DDE90A4A994690460D460A
:105650000846012703E000BFB0FBF8F07F1C40457F
:10566000FAD2B94500D94F465FEACA7012D18CB15F
:105670005FEA8A7002D5B9F1000F01D0202607E059
:10568000302605E031465846641EFBF737FB0CB167
:10569000A742F7D35FF00106B9F1010F02D9A9F1D2
:1056A000010903E0B5FBF6F0404502D306FB08F61E
:1056B000F2E7DFF83C9000BFB5FBF6F000FB1655B3
:1056C00019F800105846FBF719FBB6FBF8F6002E48
:1056D000F2D15FEACA7009D0002C07D0A74205D2E8
:1056E00020215846641EFBF709FBF5E7BDE8F09F53
:1056F000605A00000A494A788B78521CD2B2934211
:1057000000D100220B78934201D100207047027033
:10571000487800EB400001EBC000001D704700001E
:10572000280500201CB5002913D08268127C8A420B
:105730000FD008A3D3E90023CDE9002301F12F0204
:105740008DF803208268117400696A4603A1FEF790
:1057500077FC1CBD1B5B34006D000000257300004E
:105760001CB5826899B1D27B8A420FD00CA2D2E9D3
:105770000032CDE9003201F12F028DF80520826858
:10578000D17300696A4608A1FEF75AFC1CBDD173AB
:10579000006902B0054ABDE8104003A1FEF750BC05
:1057A0001B5B313B33006D0025730000B8580000CF
:1057B00038010020580100203F000000980100201F
:1057C000B00100200F000000C001002000200040B8
:1057D000000000004C5A0000D8010020B057000023
:1057E000C0570000B4570000CC57000058030020F9
:1057F0004403002004000000040000000100000039
:105800003800002030000020380000206403002011
:1058100030000000F85B0000D457000004020020B4
:105820001800002000000020005800000D000000BB
:10583000FFFFFFFFFFFFFFFFFFFFFFFFFFFFFFFF78
:1058400000000000000000000000D6010701000079
:105850000000000058580000985C0000685C0000E0
:105860000000000059200000905C0000785C0000FF
:10587000000000006D200000A05C0000085C00003B
:1058800000000000252100000000000000000000D2
:105890000000000000000000C05C0000A85C0000E8
:1058A00050580000012000001B37001B38001B452A
:1058B000002C20001B5B4A001B5B6D0008200800C9
:1058C0001B5B4B00202D20001B5B48001B5B366ED2
:1058D000001B5B324A001B5B3F336C0020756E6B14
:1058E0006E6F776E20706172616D657465723A20BB
:1058F000003A20636F6D6D616E64206E6F74206678
:105900006F756E64002D682C202D2D68656C7000FD
:10591000474300002B43000029430000D85C0000EF
:10592000C85C0000000000005531000000000000CD
:1059300034590000105D0000F85C00000000000019
:1059400001330000145D0000E05C00000000000076
:105950002B330000000000000000000000000000E9
:1059600000000000305D0000185D00002C590000B0
:10597000AD320000000000007C590000105D000006
:10598000645D000000000000D9330000145D0000D9
:10599000385D00000000000003340000000000003B
:1059A000000000000000000000000000A85D0000F2
:1059B000945D00007459000055330000C45D000080
:1059C000B05D0000000000002D3400000000000069
:1059D000D4590000145E0000CC5D000000000000FF
:1059E0005935000000000000000000000000000029
:1059F00000000000B85E00001C5E0000CC590000F2
:105A0000A5340000000000000C5A00000C5F0000EC
:105A1000C05E000000000000F1310000105F0000D7
:105A2000E45E0000000000007D3200000000000085
:105A3000000000000000000000000000285F0000DF
:105A4000185F0000045A0000993100000919000095
:105A50005F1900009D18000075190000551900001D
:105A60003031323334353637383941424344454694
:105A700001000000DD2F00008C00002084000020C9
:105A80008C000020340600201800000001000000F7
:105A900095500000000000009C5A00005860000073
:105AA000E45F0000705A00004529000050600000CB
:105AB000605F00008C5A00004529000080600000F3
:105AC00060600000000000001D2B00009C600000D2
:105AD0007060000000000000252B000094600000B2
