:020000040002F8
:10300000906A0020E9330200F1330200F33302003A
:10301000F5330200F7330200F9330200000000002C
:10302000000000000000000000000000FB33020070
:10303000FD33020000000000FF33020001340200F3
:10304000DD37020003340200C53C020003340200F5
:103050000334020003340200053602000334020088
:10306000033402000334020003340200033402007C
:10307000033402000334020003340200033402006C
:103080000334020035380200033402000334020026
:10309000C139020003340200C539020003340200C2
:1030A000033402000334020003340200033402003C
:1030B000033402000334020000000000000000009E
:1030C000033402000334020003340200033402001C
:1030D00059380200033402000334020000000000EB
:1030E00000000000000000000000000000000000E0
:1030F00000000000000000000000000000000000D0
:1031000000000000000000000000000000000000BF
:1031100000000000000000000000000000000000AF
:10312000000000000000000000000000000000009F
:10313000000000000000000000000000000000008F
:10314000000000000000000000000000000000007F
:10315000000000000000000000000000000000006F
:10316000000000000000000000000000000000005F
:10317000000000000000000000000000000000004F
:10318000000000000000000000000000000000003F
:10319000000000000000000000000000000000002F
:1031A000000000000000000000000000000000001F
:1031B000000000000000000000000000000000000F
:1031C00000000000000000000000000000000000FF
:1031D00000000000000000000000000000000000EF
:1031E00000000000000000000000000000000000DF
:1031F00000000000000000000000000000000000CF
:10320000DFF80CD000F0C0F9004800474D7802000C
:10321000906A002030B4044654E8000F0D4644E89C
:103220000053002BF8D1156030BC704730B4044611
:1032300054E8000F40EA010544E80053002BF7D1A1
:10324000156030BC704730B4044654E8000F00EA03
:10325000010544E80053002BF7D1156030BC7047DE
:1032600030B4044654E8000F80EA010544E80053F6
:10327000002BF7D1156030BC704730B4044654E8D9
:10328000000F00EB010544E80053002BF7D1156057
:1032900030BC704730B4044654E8000FA0EB010581
:1032A00044E80053002BF7D1156030BC7047000094
:1032B00030B4044654E8000F0D4644E80053002B98
:1032C000F8D1156030BC704730B4044654E8000FA4
:1032D00040EA010544E80053002BF7D1156030BCEB
:1032E000704730B4044654E8000F00EA010544E892
:1032F0000053002BF7D1156030BC704730B4044642
:1033000054E8000F80EA010544E80053002BF7D190
:10331000156030BC704730B4044654E8000F00EB31
:10332000010544E80053002BF7D1156030BC70470D
:1033300030B4044654E8000FA0EB010544E8005304
:10334000002BF7D1156030BC7047000030B4044644
:1033500054E8000F0D4644E80053002BF8D11560E7
:1033600030BC704730B4044654E8000F40EA010511
:1033700044E80053002BF7D1156030BC704730B4DF
:10338000044654E8000F00EA010544E80053002B0E
:10339000F7D1156030BC704730B4044654E8000FD4
:1033A00080EA010544E80053002BF7D1156030BCDA
:1033B000704730B4044654E8000F00EB010544E8C0
:1033C0000053002BF7D1156030BC704730B4044671
:1033D00054E8000FA0EB010544E80053002BF7D19F
:1033E000156030BC7047000006488047064800471B
:1033F000FEE7FEE7FEE7FEE7FEE7FEE7FEE7FEE7A5
:10340000FEE7FEE7C93902000132020000487047BA
:1034100064C902002DE9FE439946154688460746D1
:1034200001AC022942D3002D40D000200290A8F127
:1034300001004FF0FF36009022E000FB057201FB17
:10344000057011464A469047002805DC54F82600CE
:10345000304444F8260013E060682A4600FB0571FA
:1034600054F8040C00FB057007E00B7890F800C0DE
:1034700001F801CB00F8013B521E002AF5D176423B
:1034800054F8040C61688842D7DC4B462A4638461B
:10349000FFF7C0FF54F8040C4B46A8EB0001401C9A
:1034A00000FB05702A46491EFFF7B4FFBDE8FE8306
:1034B00010B5431A934209D28318881803E010F814
:1034C000011D03F8011D521EF9D210BD40EA01038F
:1034D0009B0703D009E008C9121F08C0042AFAD2CA
:1034E00003E011F8013B00F8013B521EF9D210BD78
:1034F000D2B201E000F8012B491EFBD27047002236
:10350000F6E710B513460A4604461946FFF7F0FFE2
:10351000204610BD421C10F8011B0029FBD1801A67
:10352000704710B5002200E0521C835C8C5CA34203
:1035300001D1002BF8D1D8B2E1B2401A10BD30B59C
:1035400004460020034600E05B1C934203D2E05C8B
:10355000CD5C401BF8D030BD034611F8012B00F8BC
:10356000012B002AF9D11846704730B505460020D6
:10357000034600E05B1C934205D2EC5CC85C201A59
:1035800001D1002CF6D130BD064C074D06E0E068B5
:1035900040F0010394E8070098471034AC42F6D39A
:1035A000FFF732FE3CD702005CD7020070B58C18E2
:1035B00010F8015B15F0070301D110F8013B2A1147
:1035C00006D110F8012B03E010F8016B01F8016B34
:1035D0005B1EF9D12B0705D40023521E0DD401F830
:1035E000013BFAE710F8013BCB1A921C03E013F8F9
:1035F000015B01F8015B521EF9D5A142D8D300202E
:1036000070BD00002DE9F04700268CB0DFF8609116
:10361000B0464FF48075012437460696284606F0DA
:1036200061FA38B1D9F80403204203D0284606F0E5
:103630004FFA26432D1D64007F1CADB2082FEDD339
:103640004FF4BE74204606F04DFA48B1204606F00D
:103650003FFA46F0004606AA0121002006F024FAAF
:10366000444D16F0FF0F15D00127002437420DD02E
:1036700009EB8401D1F81005D1F81015C0F304202E
:1036800055F82420C1F3014102B190477F00641C2A
:10369000082CEBD3002E67DA4FF0FF30CDE908801D
:1036A00000263446281910F8507F90F9000027F0C2
:1036B000C008401C44D009A9404604F02BFC58B374
:1036C0004FEA9719404601F053FC55F820701FB19E
:1036D000B9F1030F03D00FE0B9F1030F30D108A8FF
:1036E0004FEAD80208F00703815C4FF0010C0CFA96
:1036F00003FC41EA0C0181544FF0A04101EB88002A
:10370000D0F8000706A9C0F3014A404604F002FCC5
:1037100018B1BAF1020F03D012E0BAF1030F0FD1C2
:10372000B9F1030F08D1BAF1020F1BD002214046B4
:1037300006F09EF9761CF6B217B149464046B847E6
:10374000641C042CAED3002E0ED06A46012100204A
:1037500006F0AAF906990098884205D006900898C4
:1037600009909DE70321E2E70CB0BDE8F087000077
:10377000006000403841002000F01F02012191400C
:103780004009800000F1E020C0F88012704700F08E
:103790001F02012191404009800000F1E020C0F8A3
:1037A0000011704700F01F02012191404009800084
:1037B00000F1E020C0F8001270474907090E002808
:1037C00006DA00F00F0000F1E02080F8141D7047C9
:1037D00000F1E02080F80014704700002DE9F0416E
:1037E0004FF48077384605F027FB0124104EA507DB
:1037F00048B1384605F027FB0120C5F8080374706E
:10380000002002F025FC4FF48277384605F014FBC7
:1038100000280BD0384605F016FB0220C5F8080337
:10382000B470BDE8F041012002F012BCBDE8F081A7
:103830002441002007480021C0F84011C0F844117D
:10384000C0F84811C0F84C11C0F80011C0F80411BC
:1038500008F064B90010014004220021014805F07D
:103860004FBD000000400240044900EB400001EB66
:10387000C000416D806D081A7047000008480020A4
:1038800000F02EBAF8B5064600208DF80000144668
:103890000D46684600F0E8FE22462946304600F014
:1038A00007F804469DF8000000F002FF2046F8BD2E
:1038B0002DE9F0471B4D0746164628780C4608B9F7
:1038C00000F00EFA07EB470005EBC007A046D7E96A
:1038D0001595002448374D4511D9B868441BB442AA
:1038E00000D334467868224641194046FFF7E0FD90
:1038F000B868361B2544A044A84200D10025A9EB96
:103900000500B04200D206463EB178683246411901
:103910004046FFF7CDFD3444354404B13D612046B7
:10392000BDE8F08708480020F8B50D4B0646144660
:1039300018780D4608B900F0D3F900208DF8000082
:10394000684600F091FE22462946304600F00AF80B
:1039500004469DF8000000F0ABFE2046F8BD0000D4
:103960000848002070B50E46144900EB400001EBFA
:10397000C0051446E86A183520B101280FD0022886
:1039800005D113E0284600F0DFF9A04201D200245F
:1039900011E022463146284600F00EFA0BE0284698
:1039A00000F0D2F9A042F4D20446F2E731462846AC
:1039B00000F0D5F90446204670BD000008480020FC
:1039C00007F0FABF07F03AB8F0B5AE480023021D81
:1039D00001780125101D4FF0805406290BD116786F
:1039E000360708D10678C6F30316032E06D0042E38
:1039F00004D0052E02D0062907D00EE0B4F82463C7
:103A0000A14FC6F304263E6002E01678360704D1C3
:103A10000678C6F30316032E02D0062904D00FE061
:103A20009B4F9A4E7E670EE01678360708D10678CF
:103A3000C6F30316032E06D0042E04D0052E02D0A2
:103A4000062907D00EE0D4F84462924FC6F34236FE
:103A50003E6002E01678360704D10678C6F30316F6
:103A6000032E02D0062906D011E08B4E376827F0CE
:103A7000807737600EE01678360708D10678C6F3EF
:103A80000316032E06D0042E04D0052E02D00629DC
:103A90000AD011E04FF08046C6F80C31C6F810315C
:103AA0007C4E361F336002E01678360704D1067864
:103AB000C6F30316032E02D0062905D00CE0754F7D
:103AC000032664373E600AE01678360704D106788C
:103AD000C6F30316032E02D006290DD014E06F4F53
:103AE00005263E606D4E783635606C4E0836336084
:103AF0003F263F1D3E6002E01678360704D1067867
:103B0000C6F30316052E02D0062957D062E0644E94
:103B10003668644F3E60624E361D36683F1D3E601B
:103B20005F4E083636683F1D3E605D4E0C36366887
:103B30003F1D3E605A4E103636683F1D3E60584E5F
:103B4000143636683F1D3E60554E18363668554F60
:103B500020373E60524E1C3636683F1D3E60504E48
:103B6000203636683F1D3E604D4E243636683F1D78
:103B70003E604B4E283636683F1D3E60484E2C3620
:103B800036683F1D3E60464E30363668454F4037FA
:103B90003E60434E343636683F1D3E60404E3836F8
:103BA00036683F1D3E603E4E3C3636683F1D3E60E7
:103BB0003B4E403636683F1D3E6002E016783607C1
:103BC00008D10678C6F30316032E06D0042E04D0BF
:103BD000052E02D0062907D019E0D4F85812324A2F
:103BE00001F04F01116002E0117809070FD1007850
:103BF000C0F30310032803D0042801D0052806D100
:103C00002A480168C90702D06FF00101016022480B
:103C10007438016841F470010160BFF34F8FBFF346
:103C20006F8F4FF01021D1F80002002803DBD1F88C
:103C30000402002822DA1E4A15601E480468002C7F
:103C4000FCD01524C1F800420568002DFCD0C1F855
:103C5000044201680029FCD0136001680029FCD0EF
:103C6000BFF34F8F0C48F0380168134A01F4E0614C
:103C700011430160BFF34F8F00BFFDE710490F48AC
:103C80000860F0BDE00F00F0403501400DF0ADBA26
:103C900000C007403C050040FCED00E0105600402D
:103CA0000404001020C50040E40E00400004004061
:103CB00004E5014000E401400400FA050090D0034F
:103CC000843500200448017F04480029024901D0BE
:103CD00008F066B807F0D5BF9041002000200040F2
:103CE00010B5124C02202061606111A0A06104F1A6
:103CF0007800E0614FF4007020620020A0626062F2
:103D00000BA1A164E06204F51E71E1641021A065BD
:103D1000C4E91410E06509A1E01DFFF71DFC08A12E
:103D20002046FFF719FC2020A07110BD0848002094
:103D30005465726D696E616C00000000525454004D
:103D400053454747455200000269C1688A4203D87B
:103D50008068401A104400E0501A401E70472DE958
:103D6000F047C4681746894606464FF00008306998
:103D7000A04201D9051B02E0B168201A0D1AB068F3
:103D80006D1E001BA84200D80546BD4200D33D462B
:103D900070682A4620444946FFF78AFBB0687F1BBB
:103DA0002C44A844A944A04200D10024F460002F70
:103DB000DDD14046BDE8F0872DE9F0410446884654
:103DC000D4E90207C51BE168606816460844B5429D
:103DD00006D94146FFF76CFBB819E060BDE8F081F9
:103DE0002A464146FFF764FB761B08EB0501324685
:103DF0006068FFF75DFBE660F0E702E008C8121FAD
:103E000008C1002AFAD170477047002001E001C1C3
:103E1000121F002AFBD170470121202803DA8140BC
:103E20000548014003E0402802DA2038814009B10A
:103E30000120704700207047FC06FFBD082806D20D
:103E400028B1012803D0042801D0012070470020A8
:103E5000704770B500238D880C680DE0E618E15CB2
:103E60007678864206D1E018801C491E1060918049
:103E7000002070BD0B445B1C9D42EFD8052070BD37
:103E80001FB50D4B0FCB8DE80F000C48416803297F
:103E900006D30088032101EB004009A106F04EF88B
:103EA000002000F071FF0121684673DF002801D077
:103EB00000F038FB1FBD0000B4C302003036002004
:103EC0005374617274696E67206164766572746997
:103ED00073696E672E0000002DE9F041384E0546EB
:103EE0000C460A7830880327716807EB00406AB1F6
:103EF000012A21D0022A61D1032903D331A16268AA
:103F000006F020F8BDE8F04107F0DEBC032902D33B
:103F100036A106F013F86188221D284604F002F845
:103F200008B100F0FFFA284604F032F8002845D026
:103F3000BDE8F04100F0F6BA344DA0684FF000083B
:103F400018B9C5F80C80C5F81080A088E968084445
:103F5000E860B0F5806F16D9022000F0FFFEE86837
:103F6000A0F58060E8602A69521C2A617068032805
:103F700005D3308826A107EB004005F0E3FF294870
:103F8000E16804F0A9F9E068B0F5801F16D30220BB
:103F900000F0F6FEC5F80C80C5F8108070680328A4
:103FA00006D3308820A107EB0040E26805F0CAFF85
:103FB000E168BDE8F0411B4804F08EB9BDE8F0812E
:103FC00030360020506565722072656365697665DC
:103FD00064202575206279746573206F66204154D2
:103FE00054207061796C6F61642E0000414D542043
:103FF0007365727669636520646973636F76657251
:10400000656420617420706565722E003031002077
:104010005265636569766564202575206B627974E5
:1040200065730000703700205472616E73666572AC
:1040300020636F6D706C6574652C207265636569B3
:10404000766564202575206279746573206F66201B
:10405000415454207061796C6F61642E000000003F
:104060002DE9F041834C10F0FF022DED028B0F463D
:1040700020884FF00305616882B005EB00404FF0E7
:10408000010853D0012A75D0022A74D0032A7DD1A9
:1040900002F0FAF9022000F073FE032000F074FE33
:1040A00002F0C6F9064600EE106AF900B8EE400AC2
:1040B000DFED710A606880EE201A00EE101A032806
:1040C000F8EE401A81EE810A80EE208A7DD32088A6
:1040D0006AA105EB004005F031FF60680328F5D3C5
:1040E000208868A105EB004005F028FF60680328E0
:1040F000ECD34FF47A70B6FBF0F1B6FBF0F200FBB4
:104100001163208867A105EB004005F022FF60687D
:104110000328DBD3B5EEC08AF1EE10FABDEEC80A73
:10412000B8EEC00A54DD38EE400A53E0032902D34A
:1041300064A105F003FF012000F026FE6748454614
:1041400080F803800178012920D100F11401498809
:1041500006291AD000F11C021180518011460089F5
:1041600075DF020012D0606800280FD0208805EBB0
:10417000004002E00FE01BE008E002B058A1BDECF7
:10418000028BBDE8F04105F0DDBEC57102B0BDECAB
:10419000028BBDE8F081032902D35DA105F0CEFEBC
:1041A00002B00120BDEC028BBDE8F04100F0E8BD9B
:1041B000032903D3BA0A5CA105F0C4FE02B00220B1
:1041C000BDEC028BBDE8F04100E03EE000F0C6BD72
:1041D00030EE480ADFED580AB5EEC08A20EE200A1C
:1041E000BDEEC00AF1EE10FA8DED000A06D218EE0F
:1041F000100A10F1814F01D250A200E043A2BDEE9F
:10420000C80A20884EA105EB004010EE103A05F0D8
:10421000A8FE6068032818D320881AA105EB004087
:1042200005F08CFE606803280FD320883A4605EB22
:1042300000404AA105F086FE6068032805D3208867
:104240004EA105EB004005F079FE594803F07AFFD6
:1042500002009BD0606828B1218808EB014055A17D
:1042600005F070FE02B0BDEC028BBDE8F04107F036
:104270002BBB00003036002000007A44446F6E658E
:104280002E0000003D3D3D3D3D3D3D3D3D3D3D3D24
:104290003D3D3D3D3D3D3D3D3D3D3D3D3D3D3D3D4E
:1042A0003D00000054696D653A2025752E252E329B
:1042B00075207365636F6E647320656C61707365E0
:1042C000642E00004E6F74696669636174696F6E75
:1042D0007320656E61626C65642E000030310020D1
:1042E00073645F626C655F6761705F636F6E6E5F62
:1042F000706172616D5F75706461746528292066F4
:1043000061696C65643A20307825782E00000000E1
:104310004E6F74696669636174696F6E7320646956
:104320007361626C65642E0053656E742025752080
:104330004B427974657300000000C8422D000000F4
:104340005468726F7567687075743A2025732564B8
:104350002E25303264204B6270732E0053656E74CC
:10436000202575206279746573206F66204154544E
:10437000207061796C6F61642E0000005265747268
:10438000696576696E6720616D6F756E74206F6602
:10439000206279746573207265636569766564204F
:1043A00066726F6D20706565722E2E2E0000000003
:1043B0005C3700206E72665F626C655F616D74636E
:1043C0005F7263625F726561642829206661696C4F
:1043D00065643A20307825782E00000070B50024FE
:1043E000084D05E0686810F8340004F025FE641CF0
:1043F00028788442F6D304480068BDE8704000F095
:1044000023B90000D8340020ACC4020070B50024E9
:10441000064D06E06868012110F8340004F030FE13
:10442000641C28788442F5D3002070BDD834002065
:10443000F8B515460C460646052A01D20720F8BDF8
:1044400004F004FF18B904F0D3FE0028F7D1104996
:1044500000204E600C70C1E902500E4D08610DE065
:1044600006EBC4006968009181788DF8011000782E
:10447000094A694604F056FE0028E0D1641EE4B201
:10448000EED2BDE8F840054A0021024800F05CB8D1
:10449000D8340020ACC40200B56D02003D690200B2
:1044A00005F06CFE05F03EFC0028FBD1134C606863
:1044B00030B12088012101EB004011A105F03EFD43
:1044C00012480068C00700D000BE6068022806D30A
:1044D0002088022101EB00400DA105F02FFDBFF364
:1044E0004F8F0A48E43801680D4A01F4E061114336
:1044F0000160BFF34F8F00BFFDE7000030360020A2
:10450000466174616C206572726F7200F0ED00E0BC
:1045100053797374656D20726573657400000000D3
:104520000400FA050EB500210091CDE901106A469C
:1045300044F20100FFF7B4FF0EBD0000014800681F
:104540007047000004150140074B9B7823B12AB146
:1045500020B10068037C1BB108207047072070471A
:104560004174426100207047D041002070B506F0D0
:1045700031FF104800240B21047044700E4D8170EF
:1045800014206C602C706C70FFF7F6F80721142073
:10459000FFF713F91420FFF7FAF808480460072121
:1045A0001120FFF70AF90548001F0068A8600020E5
:1045B00070BD0000D0410020EC34002008150140FF
:1045C0002DE9FC47DFF8789099F8023073B368B3AF
:1045D000052902D20720BDE8FC87436933B3437C39
:1045E000012B25D0002704460025884616468DF865
:1045F0000050684600F038F801A807F0B1FCC8B1D7
:10460000012101700F4944600968C0E90218C0E93E
:1046100004769DF8040089F801009DF8000000F080
:1046200047F81420FFF7BEF82846D4E70820D2E761
:104630000F46D8E704259DF8000000F039F8F3E7AD
:10464000D0410020041501400649897839B130B1C4
:10465000416921B100210174022107F03BBA082011
:1046600070470000D041002030B5EFF3108172B6E2
:104670000D4A9468012324B10370002900D162B669
:1046800030BD93604FF0E023D3F88051074C2540B4
:104690001560C3F88041D3F8844154605A17C3F8B9
:1046A000842100220270E8E7DC420020FC06FFBD06
:1046B0000B498A68002A11D000280FD1EFF310802F
:1046C00072B60B684FF0E022C2F800314B68C2F8B6
:1046D000043100228A60002800D162B670470000D1
:1046E000DC4200202DE9F041064608680C46411CDA
:1046F0004FF0A0474FF0010506D005FA00F1C7F8CA
:104700000815206805F0AAF96068411C02D0002154
:1047100005F09BF93079204901EB4010A169007F39
:1047200000283068C0F8241525D0607D227D3168CE
:104730001043C1F86C05D4E900123068C0F80C15BC
:10474000C0F8142524E0A068411C02D0002105F027
:104750007CF9E068411C05D08540C7F80855E06841
:1047600005F07CF9D4E902123068C0F80825C0F8D9
:104770001015BDE8F081607D217D32680843C2F8E4
:104780006C05D4E900123068C0F81425C0F80C1587
:10479000207D0128D7D0ECE79041002070B5054678
:1047A0000C46084602F0ECFA23462846BDE8704065
:1047B00001A2082104F012B9415454204D5455204F
:1047C00073697A652073657420746F202564206294
:1047D000797465732E0D0A002DE9FC4700251788B2
:1047E0000646158090F82D001446894630B13A46A9
:1047F0002146484600F070F9050009D1B0784FF025
:104800000C0A18B32088C846001DB84202D9504689
:10481000BDE8FC87684679DF0028F9D120880321AC
:1048200008F8001020881921401C80B2208008F868
:1048300000102088401C80B2208000EB0801BDF8E9
:10484000000007F025FB218808442080F078022230
:10485000C8B1218896F9033001F1030C4846BC45E4
:10486000D5D8425421884FF0010C491C89B22180CF
:1048700000F801C02188491C89B2218009F8013063
:104880002088401C20807068B8B1218890F90030E1
:1048900001F1030C4846BC45B9D8425421880A228C
:1048A000491C89B2218042542188491C89B2218047
:1048B00009F801302088401C2080308950B1CDE9B2
:1048C00000474B460622022106F1080007F060FB74
:1048D00005009DD1308A50B1CDE900474B460722F3
:1048E000032106F1100007F053FB050090D1308B37
:1048F00050B1CDE900474B461522142106F11800AE
:1049000007F046FB050083D1306A30B13B462246B2
:10491000494601F021FD0500DBD1706A30B13B460C
:104920002246494603F071F90500D2D196F82C00D1
:1049300038B13B4622464946304606F075FE050032
:10494000C7D1307838B13B4622464946304603F05D
:104950002DFA0500BDD128465AE7F0B50C4693B0B4
:104960001F210726ADF80010ADF80410002750B144
:10497000C17849070DD56A4602A9FFF72DFF002827
:1049800008D102AD02E00025ADF800706CB1E0780E
:1049900010B1304613B0F0BD01AA0AA92046FFF7B6
:1049A0001BFF0028F6D10AAA02E00022ADF804702D
:1049B000BDF80400C3B2BDF80000C1B2284672DFE2
:1049C000E8E7000070B540B10C4D297839B10446D4
:1049D00006F0E4FC28B1002070BD0E2070BD082058
:1049E00070BDE868062807D20549226801EB8001FE
:1049F000401C0A60E860EEE7042070BDC03400206F
:104A00000C3E002040B1054900220123CA600B7012
:104A1000C1E90102104670470E207047C0340020E3
:104A200070B504002DD000292BD020480078002834
:104A300027D020880D46112815D0302804D03228E0
:104A400007D033281ED109E0211D284606F0F6FACA
:104A500018E0211D284606F05FF913E0211D2846C5
:104A600006F038FA0EE0A088B5F8CA12884209D1DB
:104A7000002085F8C70285F8C8024FF6FF70A5F838
:104A8000CA0270BD95F8C8020028FAD020883028E4
:104A9000F7D34F28F5D8A088B5F8CA128842F0D1CC
:104AA0002846BDE8704001F0DFBF0000C0340020A0
:104AB00048B1084A137843B1D26832B190F8C7229E
:104AC0002AB1112070470E2070470820704701F06E
:104AD000CBBF0000C03400207CB5054608880C46DA
:104AE0000930904201D90C207CBD68466DDF00285A
:104AF000FAD121880820685420881B21401C80B2EC
:104B0000208029542088401C80B220802844DDF871
:104B100001100160BDF8051081802088801D80B2E1
:104B200020809DF80010490800D0012129542088D8
:104B3000401C208000207CBD2DE9FC414E4D0388A7
:104B4000041D4C4A0127032669681F2B65D015DC1C
:104B50002D88112B45D008DC012B7ED0102B74D171
:104B60002046BDE8FC4106F069B8122B4CD01D2B45
:104B70006BD12046BDE8FC4106F000B83B2B27D0A6
:104B800022DC212B70D0222B5FD100F10804007AA7
:104B900023285AD097716278002062F30700A27828
:104BA000032962F30F2050D306F026FB034620783A
:104BB000002856D031A2288833A106EB004002B06D
:104BC000BDE8F04105F0C5B9522B40D0562B3CD181
:104BD0001321108976DF002837D0BDE8FC41FFF7AC
:104BE000A1BC4FF6FF701081907838B1022905D32F
:104BF000022000EB05402CA105F0A0F900F0DEF842
:104C0000BDE8FC4106F060BED77103291DD3E388DF
:104C1000A28806EB054033A1D1E7D4E90101CDE933
:104C200000012088694675DF08B1FFF77BFC6868E2
:104C300003280AD32888E388A28806EB004001E015
:104C40000BE002E032A105F084F9BDE8FC8100230D
:104C500020881A461946A9DFBDE78088002166DF53
:104C6000B9E739A2A7E7FFE70249208818318FDFAB
:104C7000B1E70000303100203036002072656A65EF
:104C800063746564000000005048592075706461C9
:104C900074652025732E2050485920736574207444
:104CA0006F2025732E000000474150206469736314
:104CB0006F6E6E656374696F6E206576656E7420C5
:104CC0007265636569766564207768696C652074D0
:104CD000657374207761732072756E6E696E672ECE
:104CE00000000000436F6E6E656374696F6E20692B
:104CF0006E74657276616C20757064617465643A77
:104D000020307825782C20307825782E000000007F
:104D1000436F6E6E656374696F6E20696E74657241
:104D200076616C2075706461746564202875706F9D
:104D30006E2072657175657374293A203078257814
:104D40002C20307825782E0061636365707465646B
:104D500000000000007800F00100704707490B5C7C
:104D60004FF0A041D1F804250120984020EA020329
:104D7000C1F808351040C1F80C0570470CC402009A
:104D80000021082004F085BE0121082004F081BE26
:104D90007CB50024084E25460122305D0095002395
:104DA0001146019504F012FE641C042CF4D3BDE8F6
:104DB0007C4000F003B800000CC4020010B50024D1
:104DC0000021082004F065FE641C042CF8D310BDFB
:104DD000F8B5C71C00208DF800000E460125684676
:104DE000FFF742FC124C20683060D4E90001401A01
:104DF000A168091AFE1C06E002F04AFCD4E9000191
:104E0000401AA168091A491C8E42F5D8A168206889
:104E1000084004EB8000C16841F00301C1602068D4
:104E2000384420609DF80000FFF742FC2846F8BD9A
:104E3000E843002030B482680468531C8360A154A6
:104E4000D0E901128A4202D330BC04F0C6BC30BCA7
:104E500070470000034803C8814201D10120704718
:104E600000207047E8430020164A10B5516803231C
:104E70001288134C03EB024205280CD0062816D1E9
:104E8000032903D3104610A105F058F802F014F9D5
:104E9000012020700BE0032903D3104612A105F076
:104EA0004DF802202070FEF7EBFF06F009FBFFF73C
:104EB00095FA002803D0BDE81040FFF733BB10BDC2
:104EC00030310020303600205468697320626F61F1
:104ED00072642077696C6C20616374206173207444
:104EE00065737465722E00005468697320626F6187
:104EF00072642077696C6C20616374206173207226
:104F00006573706F6E6465722E00000005494FF086
:104F1000FF32082841F8202002D3084480F84820B6
:104F20007047000038410020F0B54FF0FF3512B156
:104F30000023082601E008230C260C4C05E000BFE6
:104F400054F823707F1C04D05B1CB342F8D328466E
:104F5000F0BD26185DB286F8305044F82310002AC0
:104F6000F5D1E11881F84800F1E700003841002050
:104F70000249084490F93000704700003841002091
:104F800070B5816804468A7C002A4DD0C87C002810
:104F90004AD0121A0844D5B200F114016A1C133029
:104FA000FEF786FAA068C17C491EC174A068817CA6
:104FB000491E81748DB308221C49206904F000FC4D
:104FC000204602F0CBFE8178C078814211D1A068E2
:104FD00017A2C17C431808212046143303F0FEFCBD
:104FE000204600F065FA29462046BDE8704001F0F1
:104FF00025BB204600F070FA204600F059FAA06860
:105000000BA2C17C431808212046143303F0E6FCB0
:105010002046BDE8704000F055BA2069BDE87040F8
:10502000044A03A104F0CCBB70BD0000085202008A
:1050300025730000C8C4020070B504468068827CF5
:10504000C17C521A12F0FF053AD0084400F1150154
:105050002A461430FEF72CFAA068817C491E817420
:10506000204602F07BFE8178C078814214D1A0688E
:1050700014A2C17C431808212046143303F0AEFC6F
:10508000114A10A1206904F09BFB6D1EE9B2204675
:10509000BDE8704001F0D2BA204600F01DFA20466B
:1050A00000F006FAA06807A2C17C43180821204638
:1050B000143303F093FC2046BDE8704000F002BAC0
:1050C00070BD000025730000CCC402002DE9F04142
:1050D000044680680F4690F83D11C27C11F001062D
:1050E000817CA1EB0203DDB20AD07F2901D3002D20
:1050F0007ED0A068C17C08440021077566B113E02A
:105100007F297CD2002DF4D0831803F114012A46A4
:10511000481CFEF7CDF9ECE7A068827C521CD2B2A5
:105120008274A068143281544DB3204602F016FEFA
:105130008178C07881420ED1A06832A2C17C431828
:1051400008212046143303F049FCA81BC1B22046B5
:1051500001F074FA21E0204600F0BEF9A06829A20F
:10516000C17C431808212046143303F037FC204645
:1051700000F0A8F90121204601F040FB0DE03EB10E
:10518000A068827C521CD2B28274A068143281540E
:105190003A461DA1206904F013FBA168C87C401C9D
:1051A000C874204601F037FA0028204603D0BDE835
:1051B000F04101F04FBA01F076FD00281FD02046E3
:1051C00002F0CCFD0546C078A978401A401EC1B255
:1051D000204601F0C1F9204601F03CFAE878A978B0
:1051E000401AC1B2204601F015FB2878401E00E0AD
:1051F00005E0C1B22046BDE8F04101F0FFBABDE8CC
:10520000F081000025730000256300002DE9F041C6
:10521000C6B00446408BADF80001216AB1F5801F8D
:105220000CD30322304662F30700626990470020E6
:1052300020762062E06146B0BDE8F0811D4B41ADB3
:10524000DFF874800FCB85E80F00A088ADF804016B
:1052500040A84390CDF810D101276946206A06F096
:105260001CFE208841A9A6DF054613281FD055B192
:10527000D8F8041039B1B8F800002A4607EB00400E
:105280000EA104F05FFEBDF80011206A0144216206
:10529000E069B0EB912F07D0880AE061022060F34B
:1052A0000706626930469047002DD6D0C3E72776BF
:1052B000C1E700000CC10200B835002073645F62D2
:1052C0006C655F67617474735F68767828292066FF
:1052D00061696C65643A2030782578002DE9F043E7
:1052E0008146887891B090460C4600B901208DF82F
:1052F0003E002088ADF83C0000250095607C6946A2
:1053000006F0D6F96E46A07C711C06F0D1F9E07B60
:1053100000289DF8020002D040F0080001E020F0D3
:1053200008008DF80200217C11B140F0100001E06E
:1053300020F010008DF80200217B11B140F0010037
:1053400001E020F001008DF80200217D09B1022169
:1053500000E0012161F342008DF802001C2102A847
:10536000FEF7CDF8607BC10601D4800617D50E95F7
:105370000EAFE07C791C06F09BF99DF8380007978A
:1053800020F00F00401C20F0F00010308DF83800A5
:105390009DF83A0020F00600801C8DF83A00607BF2
:1053A0008DF80800A07B8DF80900142109A8FEF7EC
:1053B000A6F80FA8CDE90906A088ADF83000A068CE
:1053C00020B1E088ADF82C00A0680D90A06998B3DA
:1053D00001950088ADF81000A06901AD01A94088D1
:1053E000ADF81200A069406806950390A069007BA3
:1053F00006F05EF9A069691C407B06F059F9A069C6
:10540000807A00289DF8060002D040F0080001E0F4
:1054100020F008008DF80600A169C97A11B140F0AA
:10542000100001E020F010008DF80600A169097A53
:1054300019B140F0010002E00DE020F001008DF80C
:105440000600A169897B09B1022100E0012161F315
:1054500042008DF80600E06900B10590434609AAB4
:1054600002A94846A2DF11B0BDE8F08308B50246A4
:1054700090F8C6020B4600EB8001C1EB801002EBF6
:10548000400092F8C52242B1521ED2B202EBC201D4
:1054900000EB4102518A491C00E0C188ADF80010C0
:1054A0000089ADF802006946184696DF08BD000085
:1054B0000069024A02A104F083B90000C0C40200DE
:1054C000257300000069024A024904F079B900001E
:1054D000B7C40200C05402000069024A024904F045
:1054E0006FB90000B4C40200C05402002DE9F04FAF
:1054F0004FF000099DB005464E464C46CDF814903D
:1055000000F03CFE284601F093FDAA680C2308A990
:1055100001A8143202F0CCFA0346019840B15BB105
:1055200059A20221284603F059FA1DB0BDE8F08FB8
:10553000284601F08FF8F8E75A4859490027A1EBAF
:1055400000080DF1200A83461AE00FD3284601F027
:1055500062F801005448089B009001D053A200E07B
:1055600054A20221284603F039FADEE70BEBC70408
:10557000606801685AF82900FDF7D3FF18B17F1C55
:10558000B7EBD80FE1D94FF0000BCDF868B06068E9
:10559000C7680FB1A9684860606809F101044FF05D
:1055A000000880680DF1580906900198844237D2AE
:1055B0005AF8240042A1FDF7B4FF50B35AF8240072
:1055C00040A1FDF7AEFF20B3424608F101081AAB37
:1055D0002146CDF80090069800F06AFDB8F1000F62
:1055E0001ED01A98E0B101685AF82400FDF799FF1F
:1055F0000028DAD11A98C16829B1A8F10101DDF8B3
:1056000018B02646059180684FF00008641C06908B
:10561000CBE7A86890F83D1141F0020180F83D11F8
:10562000284600F0A5FF284600F0F5FF10B92846EF
:1056300001F010F8BBF1000F12D0CDF800901AABBA
:1056400031465846059A00F033FDA9681A980AEBCE
:10565000860248600199C368891B284698470AE07A
:1056600027B108AA28460199B84704E017A20221E9
:10567000284603F0B3F9A86890F83D1121F0020123
:1056800080F83D1151E700000D0A6E6F74207465BB
:10569000726D696E617465643A2025630D0A0000BD
:1056A000A4D702005CD70200FDC402002573257355
:1056B0000D0A00000D0A257325730D0A0000000075
:1056C0002D6800002D2D68656C700000506C6561C0
:1056D0007365207370656369667920737562636FA3
:1056E0006D6D616E642E0D0A00000000164810B545
:1056F00000688AB0C0074FF0030409D001231A469E
:1057000000211248009403F0D5FA08B1FEF70AFF11
:105710000E492022783101A8FDF7CAFE142001901D
:105720001320029000208DF81800084801231A4623
:1057300001A91C38009403F0BDFA002801D0FEF73F
:10574000F1FE0AB010BD0000F0ED00E04CC3020015
:105750002DE9F0410446C0688EB00D460026C068B1
:10576000324601A904F0E9FD18B100200EB0BDE8F1
:10577000F0816DB1019804F0C2FDA168D1F82C014F
:10578000401CC1F82C0100F0070001287ED1012641
:10579000204602F0E3FA05468078012804D9401E2D
:1057A000C1B2204601F036F82878012804D9401EFD
:1057B000C1B2204600F042FF2046FFF779FE2EB12D
:1057C00033A20221204603F009F95FE04FF0000800
:1057D00000230C2202A9019804F0A2FD0498059070
:1057E0000398ADF818008DF81C8002980C2700F083
:1057F0000300012802D002281DD03CE002983B465D
:10580000860AC0F3C2008DF81A00029808A9C0F3F6
:1058100080008DF81B000298C0F38315AA00019840
:1058200004F07EFD2069009005AB2A4608A93046A9
:1058300004F0B8FC1FE00298850DC0F3C2008DF89B
:105840001A000298C0F380008DF81B00082D01D2C9
:105850002E4600E008263B46324608A9019804F08F
:105860005FFD3744AD1B05AA314608A8236904F043
:1058700081FB002DEAD1019804F041FDE06800228F
:1058800001A9C06804F059FD0028A1D001206DE7EE
:105890004C6F7374204C4F4773202D20696E6372D8
:1058A00065617365204C4F47206261636B656E6470
:1058B0002071756575652073697A652E0D0A000083
:1058C00030B4406804682469A44630BC60470000D6
:1058D00070B5044640680E460025007A38B1A068CD
:1058E0000068FEF7B1FE08B108281AD10025BEB93C
:1058F0006068007A50B90B4A0021A068FEF724FEC8
:10590000616805004FF00100087209D1A0682246C5
:105910004FF4A4710068FEF753FE0546FDF7B0FF93
:10592000284670BD81B9020010B541680A6041681F
:105930004B60406800210172FDF7A2FF002010BDFE
:1059400010B51C460020FDF79DFF2060002010BD13
:1059500080680068FEF778BE2DE9F0410B481E46CE
:10596000144600680F46C0070DD000252246394670
:105970000020FDF7D9FF0544241AF7D106B13560A0
:105980000020BDE8F0811A60FAE70000F0ED00E0C9
:1059900010B5054803F02CFA002803D0BDE81040EC
:1059A000FEF7C0BD10BD000030C302002DE9FC4170
:1059B00000270446019701AB012269462046FFF704
:1059C0007FFF019800281CD09DF800007F28F2D8A6
:1059D00004F0B2FCA568687820B101285DD00228E7
:1059E0005FD163E0207E9DF80060B0420ED1A87CBC
:1059F0000028204607D0FFF779FD0221204600F05D
:105A0000C1F8BDE8FC8100F025FEF6E7092E1BD0A9
:105A100004DC002ECFD0082E04D11DE01B2E11D0A7
:105A20007F2E21D0FDF7F2FC0068805D10F03E0F64
:105A3000C1D095F83D0100071ED531462046FFF73D
:105A400045FBB8E701202FE095F83D010007B2D5EE
:105A5000204600F0B1F8AEE795F83D010007AAD561
:105A60002046FFF78DFAA6E795F83D010007A2D57D
:105A70002046FFF7E1FA9EE7A87C7F289BD2E87CCE
:105A80002918401CE8740E75A068C17C084407758D
:105A9000A068817C491C81748DE79DF800005B281B
:105AA00001D06F7087E70220687084E76F70A1688B
:105AB00091F83D010207A4D59DF80020413A0C2A37
:105AC000BFD2DFE802F007090E3106500654060681
:105AD000065870E7012100E00021204601F096F908
:105AE00069E7204602F03AF905460078697888426D
:105AF00003D1A978EA789142A3D0697988424FF01E
:105B0000010120460AD100F027FD6979204600F006
:105B100095FDA168C87C401CC8744CE700F06EFE7F
:105B2000A068C17C491C15E0204602F017F9054623
:105B30000078A979491C884202D1A97801298AD024
:105B400001284FF00101204606D000F077FDA06843
:105B5000C17C491EC1742EE700F05CFE69792046C5
:105B600000F04CFEF3E7204600F002FD23E720465C
:105B700000F027FD1FE7421C62F3000081F83D01A1
:105B800019E700008268022911700BD18268002198
:105B900011758268D1748268917403A2032103682D
:105BA00002F01CBF7047000025730000002801D0E0
:105BB000FDF7B0BC704700002DE9F04FA5B04FF0E5
:105BC00000080546CDF82880CDF81080806847464B
:105BD000817CC1F17F01C9B25FEA010B7BD0C27C3D
:105BE00000F114019430FDF763FCA8680024C17C27
:105BF000084480F89440FDF709FC20900168A868EB
:105C00000C23C27C0244D27C895CC0F83841AA686B
:105C100001F001090DA91FA8943201F049FF0D9868
:105C2000FFF7C4FFC6B2A2461A940C941F9818B18D
:105C30004844401EB8426AD8B9F1000F01D000268E
:105C400005E00DA850F82700FFF7B0FFC6B200240A
:105C50001BA822460090641C1AAB3946504600F03F
:105C600027FA1A9800286BD001680DA8324650F820
:105C70002700FDF77AFC00280C9802D00028E7D016
:105C80005EE0D8B11A980068FFF790FF0499C0B29F
:105C9000884200D90490BBF1000F2BD021A80090BE
:105CA0000CAB42463946504600F002FA1A9800689A
:105CB00083190C9800688219002015E0601E0A9074
:105CC0001A980068FFF772FFC0B20490801B584515
:105CD00010DAC0B20DE07FE012F800C0614506D1D5
:105CE000401C10F0FF0010D0195C0029F4D183454E
:105CF00000D983461A98B4F101080C90A8D262A288
:105D00000421284602F06AFE1AE0FF20EFE7002493
:105D10001BA822460090641C1AAB3946504600F07E
:105D2000C7F9ECB31A98002856D001680DA850F8AE
:105D30002700FDF7F6FB0028EAD11A98D0F808A052
:105D4000BAF1000F09D01A9838B11F997F1CFFB221
:105D500001EB09008742FFF469AF0C9800283BD0A3
:105D60000A98414640455DD19AF8000038B11BA819
:105D70000A4600900CAB3946504600F099F90C9851
:105D80000068FFF713FFB04206D00C985A4600682F
:105D90008119284600F096FA2098A968026800E068
:105DA0001DE0C87C0B181B7DD25CD2071DD0897CFE
:105DB000884211D2284601F0D1FFA9688478C87CB6
:105DC000401CC874284601F0C9FF8078A04225D144
:105DD0000121284600F012FD25B0BDE8F08F2AA26F
:105DE0000421284602F0FAFDF6E791F83D01C207CA
:105DF0000FD020F0010081F83D0120212846FFF757
:105E000065F9A86890F83D1141F0010180F83D1155
:105E1000E2E720212846FFF759F9DDE7284600F0A0
:105E200019FCD9E700212846049A05F07BF90DF109
:105E30006C090A9C0EE01AAB224639465046CDF852
:105E4000009000F035F91A98049A0168284605F088
:105E500069F9641C4445EED917A2032128462B6832
:105E600002F0BCFDAB6816A208212846143302F0EC
:105E7000B5FD284600F08CFC0C985A460068811944
:105E8000284600F01FFAA7E75461622066756E632A
:105E900074696F6E3A20636F6D6D616E6473206319
:105EA0006F756E746572206F766572666C6F77655C
:105EB000642E0D0A000000000D0A2573000000008A
:105EC00025730000002803D08968012081F83C0177
:105ED0007047000070B5044640680D4690F82800F1
:105EE00030B1A0680068FEF7AFFB08B108280CD1FC
:105EF000012685B1606903F039FC61680022083130
:105F0000606903F055FA08B1062070BD606880F83A
:105F10002960002070BD606890F8280048B9074AE1
:105F20000021A068FEF710FB6168002881F8286056
:105F3000F0D12046BDE8704005F0A3BAB3B9020025
:105F400070B5044640680D460260606800224360F8
:105F5000606880F82820606880F829206068202226
:105F60000830FDF7A5FA2C61074A2946606903F05D
:105F70001FFA050005D1E06804F09EFB206904F0DB
:105F80009BFB284670BD000015BC02001A60C0686B
:105F90001A4604F0CFBA10B50446406903F0E6FB98
:105FA000A0680068BDE81040FEF74EBB7CB51A60E3
:105FB000044600691A4604F0FBFA05001CD160692A
:105FC00003F0C8FBC0B9FF20009001236A4601A975
:105FD000206904F039FB78B900980199C2B2606970
:105FE00003F032FB0546606890F8290020B11DB926
:105FF0002069009904F015FB28467CBD2DE9F84383
:106000001E46154688460746002418E0786808EBC7
:1060100004016B460268D2F80CC02A46E04700989B
:1060200004442D1A58B9B8680178032907D000BF75
:1060300090F83C110029FBD0002180F83C11002D84
:10604000E4D1002E01D000983060BDE8F883000054
:1060500070B5084C050009D010342168002907D01C
:1060600008682060496828468847F6E70834F4E75E
:1060700070BD0000244100209E21FEF78FBB172138
:10608000FEF78CBBF721FEF789BB00F003BA4FF493
:10609000A07100F0ABB9282100F0A8B9062100F0EA
:1060A000A5B9002100F00EBD012100F00BBD0000DC
:1060B0002DE9F05F1C460A9E15464FF0000959B1C4
:1060C00080B3017839B3426831462846904730683A
:1060D000D8B12660BDE8F09F14491548A1EB00082F
:1060E000B5EBD80F11D2DFF84CA00026834609E0AB
:1060F0000BEBC607786801685AF82500FDF711FA1E
:1061000030B1761CB6EBD80FF2D3C4F80090E1E7BB
:1061100078682060DEE7406800EB0210016809B192
:106120001860D7E7FFE7C3F80090D3E7A4D70200D1
:106130005CD7020088350020012105F03BB8022120
:1061400005F038B810B5044601F0DEF818B1BDE826
:10615000104005F085BB2046BDE8104001A2022199
:1061600002F03CBC57726F6E6720626F61726420F0
:106170007365747570210D0A000000002DE9F0416F
:10618000856806460024287D002812D0A046FDF729
:106190003DF90746D0F8000004F1140104F10104B0
:1061A000695CE4B2415CC90705D0002CF4D185F8E4
:1061B0001480BDE8F081641E14F0FF040FD0A87CA9
:1061C000021B04F11400291805F11400521CFDF7FC
:1061D0006FF9B168887C001B8874B168C874B268B4
:1061E0003D68937CD01813300446002102E0491C1E
:1061F000C9B2401E0778EF5DFF07F8D18442D8D0BE
:106200005B1A143302F80380B268907C401A9074D1
:10621000B168C874CDE700002DE9F05F26484168F9
:10622000F1B3DFF898B00E688146DBF8004087686C
:106230008078E11B21F07F45ED1CB0B9DFF880804C
:106240004FF48030C8F84403C8F804031120FDF768
:1062500093FA1120FDF79BFA4FF0010AC8F800A04D
:106260002F2002F0F9FD89F802A0B54200D2354690
:10627000124BE8193C3320F07F401860DBF8001027
:106280005A46091B21F07F41001B20F07F40C91CAA
:1062900081420FD9106818602F2002F0DDFD00E068
:1062A00004E0BDE8F05F1120FDF77CBABDE8F05FC7
:1062B00005F090B8BDE8F09FEC34002004150140D3
:1062C000001001402DE9F0410446806815460F4654
:1062D000827CC17C531A2A44DEB27F2A37D8002D33
:1062E00035D0084400F1140105F114021044721C69
:1062F000FDF7DEF8A0682A46C17C08443946143010
:10630000FDF7D6F8A0681430FFF750FCA16811A281
:106310008874A068C17C431808212046143302F019
:106320005DFBA068C17C2944C174204600F073F96C
:1063300018B9204600F0B7FC10B1204600F08AF9E9
:10634000002E04D02046BDE8F04100F021BABDE89F
:10635000F0810000257300002DE9F0411788064602
:10636000B81D14460D46984202D90C20BDE8F081B4
:106370003188072206290AD34FF4486C4FF6FF7381
:10638000614501D9994202D17088062801D2104690
:10639000ECE7604501D99842F9D1994203D098427F
:1063A00001D08142F3D80520E85520881221401CF5
:1063B00080B2208029542088401C80B2208041195E
:1063C000308805F065FD2188084480B2208041199D
:1063D000708805F05DFD2188084420800020C5E715
:1063E00001494880704700004431002070B50546DF
:1063F0000C460846FFF7F4FF23462846BDE87040E8
:1064000001A2082102F0EABA436F6E6E65637469F7
:106410006F6E20696E74657276616C20736574208E
:10642000746F20256420756E6974732E0D0A000048
:106430000148006870470000044502401CB50B4944
:106440000B4AD1E90001CDE900012020ADF80000A0
:1064500006486946083002F023FF08B1FEF762F8EB
:106460000248083002F09CFF1CBD00001CC1020065
:1064700011B402000348012100688160014802F064
:1064800003BF000024C10200014802F0F1BE000079
:1064900024C1020070B51A4C064686B02078012847
:1064A00014D02078022813D016A51AA2082130464D
:1064B00002F094FA208BADF80000009804F09CFEE6
:1064C0000F491431CA792AB11CA304E01CA5ECE7DA
:1064D0001DA5EAE71EA38A790AB118A400E01CA44E
:1064E0004A88CDE90330CDE90124088800902B4685
:1064F000184A0821304602F071FA06B070BD00005B
:10650000303100206E6F742073656C656374656450
:10651000000000003D3D3D3D2043757272656E7484
:10652000207465737420636F6E6669677572617439
:10653000696F6E203D3D3D3D0D0A00006F6E00000D
:10654000746573746572000064756D6D7900000088
:106550006F666600ACCB0200002904D00A460069D1
:1065600001A103F02DB970471B5B256442000000B8
:1065700070B5054601F0F2FB044600786178884268
:1065800003D1A078E17888421AD0E178A0788142DE
:1065900004D9081AC1B22846FFF7DEFF20786178D7
:1065A000884205D9401AC1B2284600F047F804E0F5
:1065B000081AC1B2284600F021F9A868817CC1748C
:1065C00070BD70B5054601F0C9FB044601788079BD
:1065D000401C814202D1A07801281BD0A07801285C
:1065E00004D9401EC1B2284600F014F92078A179E0
:1065F000884206D9401A401EC1B2284600F01EF853
:1066000005E0081A401CC1B2284600F0F7F8A96856
:106610000020C87470BD10B504460068FFF7C6FAC4
:106620000146A068C27C407B1144B1FBF0F200FB44
:10663000121008B1002010BD012010BD002904D0A7
:106640000A46006901A103F0BBB870471B5B2564D3
:10665000440000000069024A024903F0B1B800009A
:10666000BAC40200C05402002DE9FC5F00260446B3
:106670008DF8046080683546B046B146802194307C
:10668000FCF73DFF4149206903F09AF8206903F0C7
:10669000A4F8002740F2E73B4FF47A7A6B460122D8
:1066A00001A92046FFF70CF90098D8B19DF8040025
:1066B0001B2806D0A16891F894101B29EED152280E
:1066C0001CD0A26808F19401505408F1010000F0B8
:1066D000FF08B8F1090F08D9A168042081F8949047
:1066E000BDE8FC9F584602F0FDFB00980028D5D17C
:1066F0007F1CBFB25745D1D30D20F1E7A16808F147
:1067000094004A4601F80090A16891F895005B2832
:1067100003D081F894200B20E2E702206FF02F07CE
:106720000AE000BF05EB850507EB4505401C2B443F
:10673000C0B29DB2802808D200F19403CB5C3B2B01
:10674000F0D1401CC0B2802809D30C20C8E700BF9C
:1067500006EB860607EB460633449EB2F1E700F1EE
:106760009403CB5C002BF3D1FA20FA2E01D90872E6
:1067700000E00E72FA2D02D9A168887201E0A068CB
:106780008572A06880F894200020A9E7D8C4020090
:1067900070B5054601F0E2FA04468078E178884257
:1067A00001D1012600E000262846FFF734FF18B982
:1067B000284600F078FA10B12846FFF74BFF1EB1CB
:1067C00060782178401A12E0E078A178401AC1B2CE
:1067D000284600F01FF820786178884206D9401AD0
:1067E000C1B22846BDE8704000F008B8081AC1B22E
:1067F0002846BDE87040FFF721BF0000002904D003
:106800000A46006901A102F0DBBF70471B5B2564EB
:1068100043000000002904D00A46006901A102F0EB
:10682000CFBF70471B5B256441000000054988719C
:1068300008B1FB2200E01B224FF6FF71024801F075
:1068400099BD000044310020403700200146014836
:1068500001F024BC5C3700201CB5012905D08168FB
:1068600091F83D11C1F3400131B102B00022BDE801
:106870001040114602F0DAB8536804A1CDE90013C4
:10688000136808A2022102F0A9F81CBD20756E6BE6
:106890006E6F776E20706172616D657465723A20FB
:1068A0000000000025733A257325730D0A000000CF
:1068B0002DE9F843054690F8C6020F4600EB80012B
:1068C000C1EB801005EB400695F8C542914604EBFC
:1068D000C40006EB40013279601C0A31904226D197
:1068E0006B460022284600F0E9FC18B310E0401E79
:1068F000A04201D1002004E004EBC40006EB4000FC
:106900001C30804602466B46284600F0D7FC30B16A
:10691000002038706946484697DFBDE8F88395F84F
:10692000C5024146401C641C85F8C502E4B23079BA
:10693000A042DCD8012038700020EEE72DE9F041BC
:1069400000260125144C22E06068226900EBC6078E
:10695000387805FA00F1114217D08A43226102F01B
:106960003DFC02463878E36805FA00F1194002FA66
:1069700000F3994209D17978012901D0012100E081
:10698000002151407A6802B19047761CF6B2207817
:106990008642D9D3BDE8F081D83400202DE9F047F4
:1069A000894690F8C612904601EB8102C2EB811134
:1069B00000EB4107384604F0F1FC06002FD0194CDB
:1069C000A06806282BD2184D762205EBC010394658
:1069D000A0F80280001DFCF76BFD0027B9F1000F45
:1069E00004D0A06805EBC010077004E0A168022085
:1069F00005EBC1110870A06805EBC011401CCE6703
:106A0000A060E16888420AD1002604E005EBC610C8
:106A1000C16F8847761CE0688642F7D3A760BDE85F
:106A2000F0870000C0340020243E002070B50E46E0
:106A300090F8C612154601EB8102C2EB8111A0B09D
:106A400000EB410004F0AAFC040009D07C220549B7
:106A50006846FCF72DFDADF8025068460196A04748
:106A600020B070BD14C4020070B50E4604464FF449
:106A70003371FCF744FD11480025A4F8CA62856013
:106A800084F8C9520E4884F8C65284F8C55200688A
:106A9000206022460121304694DF0121112806D0D2
:106AA000002809D184F8C71284F8C85203E084F89A
:106AB000C71284F8C812002070BD0000C034002046
:106AC0000C3E002070B505460C460846FFF7AEFEAA
:106AD0000CB105A300E005A32846BDE8704004A260
:106AE000082101F07BBF00006F6E00006F6666003A
:106AF00044617461204C656E6774682045787465E4
:106B00006E73696F6E2025732E0D0A000E4910B545
:106B10000A784C780023A24212D0521CD2B20A70DA
:106B2000022A00D10B70084A0B780C3252F823204D
:106B300002608868104420F07F408860012010BD0A
:106B40000360002010BD0000EC3400207FB50D462E
:106B500000F110010291C07B0024C008ADF80C00C8
:106B60006A4602A90920FDF774F958B92846FCF7CE
:106B7000D1FCBDF80420904204D128460099FCF7CE
:106B8000DEFC88B16A4602A90820FDF762F960B907
:106B90002846FCF7BFFCBDF80420904205D104480C
:106BA0000099FCF7CCFC00B9012404B0204670BD6C
:106BB00068C302002DE9F05F17460E00814670D0D1
:106BC00013B1F9B2FFF71AFE0024FCF71FFC82464E
:106BD000006800E0641C315D415CC907FAD1002502
:106BE0003046FEF7E3FFD9F80810001B4A7BD11BA3
:106BF000814228D306EB040805E000BF18F8051011
:106C00000A290CD06D1C8542F8D33119D9F810002F
:106C100002F0D6FD4846BDE8F05FFFF71BBDD9F88E
:106C2000100002F0DAFD414600232A464846FFF7ED
:106C3000E5F92C444846641CFFF70CFDF9B24846C0
:106C4000FFF7DCFDE1E78B46DAF8001006EB0408FD
:106C500018F805000B5CDB0702D0AB460A2804D00D
:106C6000E819904201D26D1CF2E7D9F8100002F049
:106C7000B4FD414600235A464846FFF7BFF95C443D
:106C8000DAF8000000E0641C315D415CC907FAD10C
:106C90004846FFF7DFFCF9B24846FFF7AFFD9EE735
:106CA000FFE7BDE8F09F10B504460068FEF77EFFE1
:106CB0000146A068827C407B1144B1FBF0F200FBEE
:106CC000121008B1002010BD012010BD70B50A8857
:106CD00013480C4603264168008801230F4DA2F596
:106CE000206206EB0040773A05D002F6FD72B2F55D
:106CF000604F0DD105E02B71032909D3A28809A1AA
:106D000004E06B71032903D3227913A103F01AF96C
:106D10002146BDE87040194801F0D5BA3031002055
:106D200030360020415454204D5455206578636816
:106D3000616E676520636F6D706C657465642E208D
:106D40004D54552073657420746F20257520627929
:106D50007465732E0000000044617461206C656EE0
:106D6000677468207570646174656420746F202591
:106D7000752062797465732E000000007037002062
:106D800010B50446094821460480094801F0E6FA96
:106D900008B1FDF7C7FB2146054801F0D3FA0028EA
:106DA00003D0BDE81040FDF7BDBB10BD443100204D
:106DB000403700202DE9F041124E07460125BD4025
:106DC0003068FDF741FC00280DD10F4C20692842A6
:106DD00007D1384602F002FA0028E06805D02843BF
:106DE00004E0A8432061BDE8F081A843E060206989
:106DF00028432061A1683068BDE8F0410022FDF71A
:106E0000DFBB0000ACC40200D8340020FEB5002671
:106E100004460096019602968068E9B3D0E94D12C7
:106E20008A4271D0D0F8300100286DD02046FFF79B
:106E3000C8FBA068D0F83851002D68D00023092283
:106E40006946284603F06CFAA1689DF8085000983E
:106E5000C1F83801A06800230922D0F8380169463A
:106E600003F05EFAA1689DF808200923D1F83801E3
:106E70001431521C03F054FAA1689DF80800C8743C
:106E8000A1689DF8080088749DF80800A84202D205
:106E90002046FEF70DFB00E00BE0A3682BA20821C3
:106EA0002046143301F09AFD2046FFF7B4FB60BB87
:106EB00042E0D0F83801002846D02046FFF781FB99
:106EC000A06800230922D0F83801694603F028FAA7
:106ED000A0680199C0F83811A0680029857CB9D153
:106EE0009430FEF763FE0028A06805D000F19401FD
:106EF0001430FCF731FB00E00675A0681430FEF793
:106F000055FE8DF80800B7E71EE01AE0FFE71430E1
:106F1000FEF74CFE10F0FF05A068D0F83011C0F865
:106F20003811A06805D000F114019430FCF714FB6F
:106F300090E780F894608DE72046FFF7B4FE0028C4
:106F400002D02046FFF786FBFEBD0000257300003F
:106F5000FEB50D46816804460026D1F8300138B3ED
:106F600000230922694603F0DBF90195A06800239C
:106F70000922D0F83001694603F0D8F90196A068DB
:106F8000D0F830110091807C8DF80800A068C0F81E
:106F90003051002309226946284603F0C7F9A16849
:106FA000092328468A7C1431521C03F0BFF9FEBD28
:106FB000C1F83051A068C0F8345100960196A0681D
:106FC000807C8DF80800E4E7FEB504468068D0F8C0
:106FD0003461002E28D0002309226946304603F090
:106FE0009FF9A16801980025C1F834010095019529
:106FF0002B46092269463046029503F097F9304640
:1070000003F05BF9A168D1F8340170B100230922C3
:10701000694603F085F90095A06800230922D0F89D
:107020003401694603F082F9FEBDC1F83051FEBD5E
:10703000FEB5044680681430FEF7B8FD10F0FF0579
:10704000A0684FF00006C0F8386133D0A068D0F8CF
:107050003001E0B100230922694603F061F99DF88F
:107060000820AA4213D1A068092300F19401D0F8A6
:107070003001521C03F054F9A06800F1940114305F
:10708000FCF74FFA0028A06880F8946012D0002620
:107090000A352946606903F0E0F80100204604D073
:1070A00003B0BDE8F040FFF753BFFFF78DFF761C3C
:1070B000082EEED3FEBD000070B5104C60680328AA
:1070C0001AD32088032505EB00400DA102F036FFFE
:1070D0006068032810D3208817A105EB004002F058
:1070E0002DFF6068032807D3208820A105EB00400E
:1070F000BDE8704002F022BF70BD000030360020B5
:10710000547970652027636F6E6669672720746FF6
:10711000206368616E67652074686520636F6E66C2
:10712000696775726174696F6E20706172616D65F7
:10713000746572732E000000596F752063616E20B4
:107140007573652074686520544142206B65792011
:10715000746F206175746F636F6D706C65746520FA
:10716000796F757220696E7075742E005479706530
:10717000202772756E27207768656E20796F7520DD
:1071800061726520726561647920746F2072756E1A
:107190002074686520746573742E00002DE9FC5F0F
:1071A0000E008346DDE90C47C6F100009846924682
:1071B000814600D40846012503E000BF90FBFAF0A9
:1071C0006D1C5045FADAA84500D9454624B1002E79
:1071D00001DB780700D5641EB80702D5B8F1000FAF
:1071E0000AD0F80708D13CB1A54205D22021584663
:1071F000641EFDF71FFEF6E7002E02DA4E462D2133
:1072000002E0780703D52B215846FDF713FE07F05F
:10721000030002280BD1B8F1000F08D13CB1A54200
:1072200005D230215846641EFDF704FEF6E7CDE98D
:107230000047434652463146584604F037FEBDE803
:10724000FC9F000070B50E460446007918494FF4C3
:10725000A27501EB4010017F2068A1B14FF4887145
:1072600003F086FC4FF49071206803F081FC4FF42A
:107270009271206803F07CFC2946206803F078FCBA
:107280000C49206809E04FF48E7103F060FC294638
:10729000206803F05CFC08492068C0F804132068EB
:1072A00001F0C7FE3146BDE8704001F0A6BE000007
:1072B00090410020100302008000020010B50989EF
:1072C0002AB1D088491C814218D1002010BD90F805
:1072D000C62202EB8204C4EB821200EB4202128946
:1072E0009142F2D0491C198090F8C61201EB81023C
:1072F000C2EB811100EB4100008902E01980D088C7
:10730000401E5880012010BD02480078012800D09E
:1073100000207047303100200649012008600648EF
:107320000168C1F300410029FAD1044900208870A6
:10733000704700000C000040180400402441002069
:10734000F721018017214180002101714171FB214A
:1073500081711B21C17170472DE9F047394E00271B
:1073600080463D46DFF8E090D6F804A057E003D011
:107370000446D0F81C8035E099F8002002EB420169
:10738000521CD2B289F8002009EBC10199F80230F1
:10739000091D9A4201D189F8005048680A780446CC
:1073A000012A12D0022A02D0032A3BD108E004F0BD
:1073B00061FB00B10127257434E00574C06900E069
:1073C00070680028F9D170602CE0207C50BB886880
:1073D0006060C868A0600869E0604869A061F078F2
:1073E00000B165606268B168184B501A20F07F40A8
:1073F000984202D2A168084406E0881AA16820F0E9
:107400007F40814202D9081A206000E02560656053
:107410000120A56020742046E56104F00DFBB8F161
:107420000000A4D199F8001099F801008142A3D17D
:1074300017B97168514502D00120BDE8F0870020DE
:10744000FBE70000EC340020D0410020FFFF7F006C
:107450001CB5012905D0816891F83D11C1F34001A7
:1074600031B102B00022BDE81040114601F0DEBA91
:10747000536804A1CDE90013136808A2022101F0AA
:10748000ADFA1CBD20756E6B6E6F776E20706172E9
:10749000616D657465723A200000000025733A251D
:1074A0007325730D0A0000002DE9F74F82B01546D1
:1074B00002980F004FF00006C068007A009058D084
:1074C000072248A12868FCF750F878B1082247A1A4
:1074D0002868FCF74AF8002830D02B6845A20298AB
:1074E00005B00221BDE8F04F01F078BA012F02D0BB
:1074F000022F08D008E0029805B044A2BDE8F04F82
:10750000022101F06BBA0126DFF81881002400BFC8
:1075100058F824100A226868FCF727F810B1641C98
:10752000052CF5D3052C06D004F0FF090224002E0B
:1075300054D0002419E03CA26B68D0E7012F4FF033
:107540000009F6D0012449E04A462146009800F09F
:10755000C9FB48B90021204602F002FE03463AA2C8
:107560000221029801F03AFA641C02F0A7FDA04241
:10757000EAD805B0BDE8F08F4FF0000A55F824B006
:1075800002F09CFD8046002609E00021304602F012
:10759000E7FD20225946FBF7E8FF90B1761C4645EF
:1075A000F3D3464506D155F8243030A20221029883
:1075B00001F014FA4A465146009800F093FB10B1CE
:1075C0000BE0B246EDE70021504602F0C9FD03464C
:1075D0001DA20221029801F001FA641CBC42CBD327
:1075E000C7E70000656E61626C65000064697361E5
:1075F000626C6500556E6B6E6F776E206F7074698C
:107600006F6E3A2025730D0A00000000426164206D
:10761000706172616D6574657220636F756E742E32
:107620000D0A000010350020556E6B6E6F776E20CE
:107630007365766572697479206C6576656C3A203D
:1076400025730D0A000000004C6576656C20756E90
:10765000617661696C61626C6520666F72206D6F26
:1076600064756C653A2025730D0A0000556E6B6ECB
:107670006F776E206D6F64756C653A25730D0A0027
:10768000C068012141727047C06800214172704793
:1076900070B588B0214800F0DEFB2048001F064688
:1076A00000F0D9FB1E4DD5E9014105E0C0F3891278
:1076B00002EB9050641C044404EA010005EB8000D6
:1076C000C0688207F2D000200DF1080204EA01032D
:1076D00005EB8303641CDB6842F82030401C032860
:1076E000F4D3029800F00300012808D002280AD140
:1076F0000298032101EB905004EB900403E0029800
:10770000C0F3831004443046002101AAFBF737FE82
:10771000002800D06C6008B070BD00000048002058
:10772000E84300202DE9FE4F814602F0C7FC0746E2
:10773000D9F80C0090F80880407A20B91FA20221E5
:10774000484601F04BF922A324A20821484601F043
:1077500045F92AA20821484601F040F9002429E011
:1077600001231A462146404602F0B2FC824600231D
:1077700001222146404602F0ABFC0546032801D217
:10778000064600E003260121204602F0E9FC0346FC
:10779000AE4201D225A200E017A2254850F82610DB
:1077A00050F82A008DE8070022A20821484601F07F
:1077B00015F9641CBC42D3D3BDE8FE8F4C6F6773D0
:1077C000206172652068616C746564210D0A000097
:1077D0006D6F64756C655F6E616D6500252D32346B
:1077E00073207C2063757272656E74207C206275D4
:1077F000696C64696E200D0A000000002D2D2D2D8E
:107800002D2D2D2D2D2D2D2D2D2D2D2D2D2D2D2DA8
:107810002D2D2D2D2D2D2D2D2D2D2D2D2D2D2D2D98
:107820002D2D2D2D2D2D0D0A000000002A00000009
:1078300010350020252D323473207C20252D377300
:10784000207C20257325730D0A00000090B06A4843
:1078500002F0E6FB08B1FCF765FE02F055FAFDF711
:1078600045FFFDF795FAFCF781FE08B1FCF75AFEDB
:10787000FEF7E4FD40F2666202216048FCF7D8FDA5
:1078800008B1FCF74FFE03F0A3F808B1FCF74AFE7D
:10789000002469460120009402F046FF08B1FCF77D
:1078A00041FE684602F0F8FF08B1FCF73BFE9DF888
:1078B000000053A120F00F00401C20F0F000103019
:1078C0008DF800000E2268467CDF08B1FCF72AFE26
:1078D0004F487ADF08B1FCF725FE4E494E4800F0CC
:1078E0006BFD08B1FCF71EFE3C224C496846FBF7D5
:1078F000DFFD00216846FDF730F808B1FCF712FE05
:1079000045484749303000F041FC4648FDF77AF8D9
:1079100008B1FCF707FE404843491C3000F00EFB5D
:1079200008B1FCF7FFFD3A4D083D2888FFF728FA1B
:10793000A879FEF77BFFE87900948DF800000194A8
:107940006946022067DF08B1FCF7ECFD304C1C3CB7
:10795000FEF71EF8FCF75AFD08B1FCF7E3FD334DC6
:1079600003266868032817D3288831A106EB004056
:1079700002F0E4FA686803280ED3288833A106EBE6
:10798000004002F0DBFA6868032805D328883CA190
:1079900006EB004002F0D2FA5FF0010702F0C2F9F4
:1079A0000028FBD11D48483801F0FAF92078012859
:1079B0001BD1E079C8B1E078B8B12079A8B160797D
:1079C00098B1A07988B1A07878B96868032805D300
:1079D000288833A106EB004002F0B0FAA770FEF74A
:1079E00049FD0D48303000F035FC02F09BF90028CD
:1079F000D8D13EDFD6E700003D45020030340020FC
:107A00004E6F726469635F4154545F4D545500007A
:107A10004C310020CD6C02004037002078C30200BA
:107A2000614002004D680200D93E0200303600205D
:107A3000415454204D5455206578616D706C65201B
:107A4000737461727465642E000000005072657377
:107A50007320627574746F6E2033206F6E207468AB
:107A60006520626F61726420636F6E6E656374651A
:107A70006420746F207468652050432E000000005D
:107A8000507265737320627574746F6E2034206F4A
:107A90006E206F7468657220626F6172642E0000E0
:107AA000546573742073746172746564000000001F
:107AB0002DE9FF4F4FF0000881B014468B468146F8
:107AC000C246C0F800802578002D71D0FBF79EFCDF
:107AD00000900068405DC00702D004F801AB84E06C
:107AE000D9F800008300401CC9F800004BF803409F
:107AF00015E02678002E78D0B8F1000F05D1222E9F
:107B000010D0272E0ED05C2E1ED0B04514D12046AA
:107B1000FEF74CF80246611C2046FBF7C9FC4FF00B
:107B20000008E6E72046FEF741F80246611C2046C1
:107B3000FBF7BEFCB046DCE7B8F1000F50D05C2E7E
:107B400061D16078404508D12046FEF72FF8024603
:107B5000611C2046FBF7ACFC55E030281CD1002707
:107B60000225605DA0F13001072906D86D1C41EAAD
:107B7000C701EDB2CFB2052DF3D3022D0CD92046AB
:107B8000FEF714F8421B61192046491E921CFBF7B0
:107B90008FFC04F8017BACE778281ED10027022572
:107BA000605DA0F13001092903D841EA07100DE01A
:107BB00021E0A0F16101052901D8573804E0A0F1C6
:107BC0004101052907D8373840EA07106D1CEDB28E
:107BD000C7B2042DE4D3022DD1D8B8F1000F12D1D1
:107BE00000980068805DC0070DD0D9F80010049897
:107BF0008142FFF468AFD9F8002040464BF822A03C
:107C000005B0BDE8F08F641C73E770B51446828838
:107C10000E4605462088111D0144921C994201D848
:107C2000FE2A01D90C2070BD521C32542088FF213D
:107C3000401C80B2208031542088401C80B22080BB
:107C40008119288804F024F92188084480B2208012
:107C5000AA8842B1A96841B13044FBF729FC2088C9
:107C6000A98808442080002070BD072070BD2DE940
:107C7000F047C7880446181D16468946B0FBF7F141
:107C8000B0FBF7F207FB12009A193A44D21CB2FB80
:107C9000F7F2DDF820A001E02468491E0029FBD19D
:107CA0003D1A8846B54216D818E0BAF1000F05D043
:107CB000211809EB08002A46091D04E0204409EBBD
:107CC00008012A46001DFBF7F3FB00202468761B01
:107CD000A844B74201D9354600E03D46002EE4D124
:107CE000BDE8F08770B5144600230D4606461A46D7
:107CF00002F0EEF9844201D9002070BD22462946E7
:107D0000304602F00BFA012070BD000030B502468B
:107D100069B102F0D3F90021084C0BE001EB4103FB
:107D200004EB830315685B88AB4202D1116000202D
:107D300030BD491C8142F1D3052030BDAC35002057
:107D400010B50C460021E16061600349A16001218A
:107D500002F006FA206010BDA0C7020070B584686A
:107D6000006804F10805FDF721FFC1B2A971E07CAC
:107D70006A790844B0FBF2F302FB13035B1C2B701F
:107D8000E07C0844B0FBF2F35B1CAB70A07C0844C1
:107D9000B0FBF2F35B1CEB70A07C0844B0FBF2F18B
:107DA00002FB1101491C6970284670BDF8B50E46EA
:107DB000017814460546012901D1687830B1208840
:107DC000821C9A422DD8012902D006E00720F8BD76
:107DD00069780144891C994223D8181A801E87B2F9
:107DE000ADF800702188B01C084469467DDF00288A
:107DF000EDD12878022805D1BDF80010B94201D88C
:107E000009210AE00821012805D16878B84202D882
:107E1000ADF8000001E0ADF80070BDF80000FE28EC
:107E200001D90C20F8BD2288401CB0542088401C89
:107E300080B2208031542088401C2080BDF8001082
:107E4000084420800020F8BD08B500216A46FBF7F1
:107E500048FA009808BD08B501216A46FBF782FA86
:107E6000009808BD08B501216A46FBF72DFA08BD48
:107E700038B5044600258DF800506846FCF7F4FB41
:107E800021686268086890420ED9401E0860017837
:107E9000238AE26801FB0325227A2168101AC0B206
:107EA0000A79824200D208719DF80000FCF700FCBC
:107EB000284638BD38B5054600208DF800000C4630
:107EC0006846FCF7D1FBE868298A201AB0FBF1F17B
:107ED0002A681068431C136001709DF80000FCF7CD
:107EE000E7FB38BD10B530B1017A42680368891AE2
:107EF000C9B21A6006E00E2010BD03681A68541C4F
:107F00001C601170491EC9B2F7D2006800210171CE
:107F1000084610BDC20800F007030120895C9840A4
:107F20000840704740B1018022B11168C0F80210CA
:107F30009188C180002070470E20704730B585B011
:107F40000D4604001FD0F5B1104B0FCB8DE80F008C
:107F500004F10C01684662DF002812D1207B8DF805
:107F6000120041F22350ADF810000020A5604FF63A
:107F7000FF71206121806080A080E08004A8FCF770
:107F800021FD05B030BD0E20FBE70000ECC0020073
:107F900070B518B30288A2F57F41FF391CD0104C90
:107FA0004388104D206800EB8001401C00F0070062
:107FB000206005EB810102204B81C881081D08610A
:107FC00000248C810120087208714C710A8088702D
:107FD00003F0DEFD204670BD082070BD0E2070BD90
:107FE00028310020603600207FB505460C0054D0B3
:107FF000002D52D02888112823D036282ED038289A
:1080000043D0392841D108460988AA8891423CD1F9
:1080100069898288914238D1EA89016911440161F4
:1080200001218DF80010A988ADF80210E989ADF89A
:108030000410EA7C296962F31F61029101690391CE
:1080400020E02088A98888421FD14FF6FF70208049
:1080500000206080A080E080206116E0084609884A
:10806000AA88914211D16989C28891420DD1022119
:108070008DF80010A988ADF80210EA7C296962F336
:108080001F6101918268694690472088A9888842CB
:1080900003D1BDE87F4003F07BBD7FBD2DE9FF41EB
:1080A0000A78002A4BD18A88A2F5A853233B46D1EF
:1080B0008A79037B9A4242D14A88ADF80220002295
:1080C00041F22456771C21E002EBC20301EB43048A
:1080D000D4F80E309DB2B5420DD190F80CE0C3F348
:1080E000074CF44507D1B4F818C0ADF804C0B4F893
:1080F00016C0ADF806C0BD4207D1057BC3F30743E8
:10810000AB4202D1E38AADF80830521C0B7A93429D
:10811000DAD80188A1F57F42FF3A09D0418839B900
:10812000818829B90199C0F80210BDF80810C180F2
:10813000002101618DF80010826869469047BDE812
:10814000FF81000010B5D8B10188A1F57F42FF3A48
:1081500014D00C4B0C4C1A6802EB820104EB810129
:10816000C4888C800088088000208870521C02F02F
:108170000700186003F00CFD002010BD082010BDA2
:108180000E2010BD283100206036002070B5304B25
:108190000E4604460FCB96B001AD85E80F00A11C3A
:1081A00001A862DF08B1FCF7BDF9A0788DF8560090
:1081B00041F22350ADF854006A4615A90120A0DF12
:1081C00008B1FCF7AFF9202105A8FBF798F941F2B7
:1081D0002450ADF81400A0788DF81600F720ADF803
:1081E00018009DF82100012540F010008DF82100B5
:1081F0008DF827508DF82050221D05A9BDF80000EC
:10820000FDF76CF808B1FCF78DF920210DA8FBF7FC
:1082100076F941F22550ADF83400A0788DF836009B
:108220000420ADF838009DF841008DF8455040F02D
:1082300002008DF8410004F10C020DA9BDF8000008
:10824000FDF74CF808B1FCF76DF9666116B070BD2A
:10825000FCC002000021C1610162FCF7D7BF70B50C
:108260000C46018810290FD011290FD00026502963
:1082700010D057290DD1217E2046002909D006763D
:10828000BDE87040FCF7C2BF808801E04FF6FF7088
:10829000208070BD30F8061F22899142F9D14189B2
:1082A0000229F6D10C30FCF755FD18B1284666F3CB
:1082B000070003E00121284661F307006269BDE879
:1082C0007040394610470A88A2F52063773B02D1F7
:1082D0008988C91E418370473EB5044600200A467E
:1082E0000090019002A9104603F0D7FDADF8000000
:1082F00002A80190A18920886A46A4DF02000AD062
:1083000005484168002906D00088012101EB0040A2
:1083100002A101F017FE3EBDB835002073645F6214
:108320006C655F67617474735F76616C75655F73AC
:1083300065742829206661696C65643A2030782567
:108340007800000028B1A1F11702E12A03D3072029
:1083500070470E20704741800020704728B1A1F17E
:108360001702E12A03D3072070470E2070470180CF
:10837000002070471CB50B4600210091019168B1A7
:10838000A3F57F41FF3903D0022B09D307201CBD81
:10839000FB2A00D3FB22027100201CBD0E201CBD55
:1083A00000EBC30069460273ADF80020ADF802206F
:1083B0000022184690DF1CBD70B5040010D0F720D5
:1083C000A16120806080FB202071002504EBC500A6
:1083D000801DFEF7B5FF6D1C022DF7D3002070BD88
:1083E0000E2070BD2DE9F047858890B00C46022D17
:1083F0007DD20188DFF848910026DFF848A14FF0D0
:10840000010824293ED006DC102909D011290CD0FE
:10841000232975D152E03A290DD0552970D12CE08D
:108420000146204602F002FD6AE004EBC500801D13
:10843000FEF786FF64E0294604EBC107408937F860
:10844000062F824200D810467880172800D21720C5
:108450007880A06970B1787960B1D9E90020CDE960
:108460000020ADF802107888ADF80400A26920461B
:10847000694690477E713E7142E00146204602F017
:10848000A1FD3DE0011D34226846FBF711F8BDF85F
:108490000000BDF8042004EBC0014A73A2693AB39E
:1084A000D9E90432CDE90D32ADF83600487B8DF8BC
:1084B0003800A26920460DA9904721E00096019658
:1084C00030F8041F04EBC1020179127B8A4200D20A
:1084D0001146ADF80010ADF8021000880022694680
:1084E00090DF02000CD0DAF8041009B101E024E0BA
:1084F00006E0BAF8001008EB0140134901F022FD34
:1085000004EBC504A07A002817D0E18828469EDF36
:1085100002000FD0112A10D0DAF8041000290CD074
:10852000BAF8001010B008EB0140BDE8F047074969
:1085300001F008BDA67284F80B8010B0BDE8F0878A
:1085400090C40200D0350020F4CC02006CCC0200B4
:1085500070B51546826892F83D41C4F3400424B1D9
:108560001A46294600F062FA06E039B1516804A2C1
:108570000B68022100F032FA012070BD002070BDAE
:1085800025733A2062616420706172616D65746563
:108590007220636F756E740D0A00000010B50446FA
:1085A00002290CD1A06890F83D01C0F3400030B121
:1085B00020460022BDE81040114600F037BA064AB6
:1085C00006A1206901F0FCF8034A2069BDE81040CB
:1085D000093202A101F0F4B8D4C4020025730000EE
:1085E0001CB5012905D002290BD014D94FF0010187
:1085F00012E002B04FF00002BDE81040114600F05A
:1086000015BA53680849CDE90013136807A202217F
:1086100000F0E4F91CBD002102B00023BDE81040C9
:108620001A46FFF795BF0000E8C4020025733A25FB
:108630007325730D0A0000003EB50446012901D0E0
:10864000012100E0002100231A46FFF781FF0028E6
:1086500018D1E068C06801F0CFFEC0B2642110FB01
:1086600001F2E168C9688968B2FBF1F2D2B2009206
:10867000CDE90101A06804A20821D0F82C312046E0
:1086800000F0ACF93EBD00004C6F7374204C4F47B6
:10869000733A2025750D0A4D6178204C4F472071A3
:1086A00075657565207574696C697A6174696F6E3A
:1086B0003A2025752525205B25752F25755D0D0A2A
:1086C0000000000010B50446012901D0012100E09E
:1086D000002100231A46FFF73BFF002808D1A168BC
:1086E000C1F82C01E068C068BDE8104001F087BE09
:1086F00010BD00007CB514460546012903D00229AF
:1087000008D0012107E002B00022BDE87040114608
:1087100000F08CB9002100231A46FFF719FF00284A
:1087200009D161680448CDE9000104A2022128466C
:10873000236800F053F97CBDE8C4020025733A2594
:108740007325730D0A00000010B50446012901D0FD
:10875000012100E0002100231A46FFF7F9FE00285E
:1087600006D1A06890F83D1121F0040180F83D1178
:1087700010BD10B50446012901D0012100E00021FF
:1087800000231A46FFF7E4FE002806D1A06890F8FF
:108790003D1141F0040180F83D1110BD7CB5144637
:1087A0000D460646022901D9012100E000210023DF
:1087B0001A46FFF7CDFE002812D1022D06D0B06870
:1087C00090F83D0100070CD50AA30BE061680A4848
:1087D000CDE9000109A202213046236800F0FEF82D
:1087E0007CBD09A302B03046BDE8704007A2082155
:1087F00000F0F4B86F6E0000E8C4020025733A255B
:108800007325730D0A0000006F6666004563686F8C
:10881000207374617475733A2025730D0A0000008B
:1088200010B50446012901D0012100E000210023F8
:108830001A46FFF78DFE002806D1A06890F83D117A
:1088400021F0080180F83D1110BD10B50446012942
:1088500001D0012100E0002100231A46FFF778FE35
:10886000002806D1A06890F83D1141F0080180F879
:108870003D1110BD7FB50446012901D0012100E062
:10888000002100231A46FFF763FE002827D1A068C5
:108890000026D0F83451F5B101E0082E1BD2002398
:1088A000092201A9284601F03BFD9DF80C20A16892
:1088B000092328469431521C01F032FDA06833464A
:1088C00094300090029D761C05A20821204600F0FD
:1088D00085F8002DE1D1A168002081F894007FBDCA
:1088E0005B2533645D2025730D0A00007CB51546B9
:1088F0000446012903D0022917D9012116E0A168F5
:1089000001F10C020D3102F07BFF00281ED0A1689E
:1089100050200FA24873A1681820087302B02046A7
:10892000BDE87040042100F059B8002100231A4628
:10893000FFF70EFE002809D169681548CDE900014E
:1089400014A2022120462B6800F048F87CBD0000EC
:108950006E6F20726573706F6E73652066726F6DD7
:10896000207465726D696E616C2C20617373756D16
:108970006564203830783234206368617273207304
:10898000637265656E2073697A650D0A00000000E8
:10899000E8C4020025733A257325730D0A00000010
:1089A00010B50446012901D0012100E00021002377
:1089B0001A46FFF7CDFD00280AD1064A06A1206914
:1089C00000F0FEFEA16850204873A16818200873CB
:1089D00010BD0000E2C40200257300000FB438B5DA
:1089E000044607A80090A06890F83D21520717D5CB
:1089F000C27B8A4214D0B0F80F50204603F04EFBE1
:108A00006A462069069900F0F4FEE9B2204603F0B8
:108A100045FB290A204603F023FB38BC5DF814FB14
:108A20006A462069069900F0E4FEF6E72DE9F04F6A
:108A3000804689B016460C468948FDF7B7F80546CA
:108A400087485438FDF7B2F8281A1FFA80F984488D
:108A500084A241380090D8F80800082140680368D3
:108A60004046FFF7BBFFD8F8080040680068FDF7F4
:108A70009DF805467A484138FDF798F8284482B2B7
:108A8000D8F808000023406841684046FEF792F895
:108A900076A208214046FFF7A1FF16B30CB30025CC
:108AA0001DE000BF05EB450A04EB8A0BDBF8040070
:108AB000FDF77CF8074654F82A00FDF777F83918D7
:108AC00049450BD9DBF80400FDF770F8074654F868
:108AD0002A00FDF76BF838441FFA80F96D1CB54287
