:020000040000FA
:1000000028200020150200001D0200001F02000031
:100010002102000023020000250200000000000071
:1000200000000000000000000000000027020000A7
:1000300029020000000000002B0200002D02000039
:100040005D0200002F0200002F0200002F020000BE
:100050002F0200002F0200002F0200002F020000DC
:100060002F0200002F0200002F020000B502000046
:100070002F0200002F0200002F0200002F020000BC
:100080002F0200002F0200002F0200002F020000AC
:100090002F0200002F0200002F0200002F0200009C
:1000A0002F0200002F0200002F0200002F0200008C
:1000B0002F0200002F0200000000000000000000DE
:1000C0002F0200002F0200002F0200002F0200006C
:1000D0002F0200002F0200002F020000000000008D
:1000E0000000000000000000000000000000000010
:1000F0000000000000000000000000000000000000
:1001000000000000000000000000000000000000EF
:1001100000000000000000000000000000000000DF
:1001200000000000000000000000000000000000CF
:1001300000000000000000000000000000000000BF
:1001400000000000000000000000000000000000AF
:10015000000000000000000000000000000000009F
:10016000000000000000000000000000000000008F
:10017000000000000000000000000000000000007F
:10018000000000000000000000000000000000006F
:10019000000000000000000000000000000000005F
:1001A000000000000000000000000000000000004F
:1001B000000000000000000000000000000000003F
:1001C000000000000000000000000000000000002F
:1001D000000000000000000000000000000000001F
:1001E000000000000000000000000000000000000F
:1001F00000000000000000000000000000000000FF
:10020000DFF80CD000F018F8004800479506000011
:10021000282000200648804706480047FEE7FEE702
:10022000FEE7FEE7FEE7FEE7FEE7FEE7FEE7FEE7A6
:10023000C502000001020000064C074D06E0E06820
:1002400040F0010394E8070098471034AC42F6D31D
:10025000FFF7DAFF200A0000400A00002DE9F04114
:100260004FF48077384600F049FA0124104EA50774
:1002700048B1384600F049FA0120C5F80803747007
:10028000002000F0E7F94FF48277384600F036FAA4
:1002900000280BD0384600F038FA0220C5F80803D1
:1002A000B470BDE8F041012000F0D4B9BDE8F081A0
:1002B0001400002003220021014800F01BBB0000B5
:1002C00000B00040F0B5AE480023021D01780125C2
:1002D000101D4FF0805406290BD11678360708D12F
:1002E0000678C6F30316032E06D0042E04D0052E7E
:1002F00002D0062907D00EE0B4F82463A14FC6F35C
:1003000004263E6002E01678360704D10678C6F36C
:100310000316032E02D0062904D00FE09B4F9A4EFD
:100320007E670EE01678360708D10678C6F3031606
:10033000032E06D0042E04D0052E02D0062907D0A5
:100340000EE0D4F84462924FC6F342363E6002E0BB
:100350001678360704D10678C6F30316032E02D0AA
:10036000062906D011E08B4E376827F0807737607A
:100370000EE01678360708D10678C6F30316032E6A
:1003800006D0042E04D0052E02D006290AD011E092
:100390004FF08046C6F80C31C6F810317C4E361F3F
:1003A000336002E01678360704D10678C6F30316E8
:1003B000032E02D0062905D00CE0754F03266437C2
:1003C0003E600AE01678360704D10678C6F30316B5
:1003D000032E02D006290DD014E06F4F05263E6093
:1003E0006D4E783635606C4E083633603F263F1DC3
:1003F0003E6002E01678360704D10678C6F303168D
:10040000052E02D0062957D062E0644E3668644F4C
:100410003E60624E361D36683F1D3E605F4E0836B8
:1004200036683F1D3E605D4E0C3636683F1D3E60AF
:100430005A4E103636683F1D3E60584E14363668A8
:100440003F1D3E60554E18363668554F20373E608A
:10045000524E1C3636683F1D3E60504E2036366880
:100460003F1D3E604D4E243636683F1D3E604B4E6C
:10047000283636683F1D3E60484E2C3636683F1D94
:100480003E60464E30363668454F40373E60434EFC
:10049000343636683F1D3E60404E383636683F1D64
:1004A0003E603E4E3C3636683F1D3E603B4E403619
:1004B00036683F1D3E6002E01678360708D10678A0
:1004C000C6F30316032E06D0042E04D0052E02D048
:1004D000062907D019E0D4F85812324A01F04F012A
:1004E000116002E0117809070FD10078C0F3031002
:1004F000032803D0042801D0052806D12A48016822
:10050000C90702D06FF00101016022487438016808
:1005100041F470010160BFF34F8FBFF36F8F4FF055
:100520001021D1F80002002803DBD1F804020028D2
:1005300022DA1E4A15601E480468002CFCD01524DF
:10054000C1F800420568002DFCD0C1F804420168E2
:100550000029FCD0136001680029FCD0BFF34F8F45
:100560000C48F0380168134A01F4E061114301605E
:10057000BFF34F8F00BFFDE710490F480860F0BD83
:10058000E00F00F0403501400DF0ADBA00C007406B
:100590003C050040FCED00E0105600400404001053
:1005A00020C50040E40E00400004004004E5014086
:1005B00000E401400400FA050090D0031000002080
:1005C00002E008C8121F08C1002AFAD1704770471C
:1005D000002001E001C1121F002AFBD1704700007A
:1005E00009480068C00700D000BEBFF34F8F06481F
:1005F000E4380168054A01F4E06111430160BFF38A
:100600004F8F00BFFDE70000F0ED00E00400FA05A9
:100610000EB500210091CDE901106A4644F20100B7
:10062000FFF7DEFF0EBD00F003B800F009B80000D0
:1006300072B602480168491C016070470C00002036
:1006400003490868401E086000D162B67047000088
:100650000C00002070B5084C050009D0103421684A
:10066000002907D008682060496828468847F6E7CF
:100670000834F4E770BD000014000020026813463F
:1006800002E08A4204D01268002AFAD10B600160AD
:10069000704700001CB500F041F808B1FFF7B8FF43
:1006A000002000F05DF81349134AD1E90001CDE9BB
:1006B000000140F6FF70ADF800000E4869460830B2
:1006C00000F0E8F808B1FFF7A3FF0A48012108305D
:1006D00000F060F90748012318220021083000F0DB
:1006E0008BF808B1FFF794FF0248083000F0C6F815
:1006F000FEE70000100A0000E109000000F1804060
:100700000068002800D00120704708B500F1804043
:10071000002101600068009008BD000070B50E4C1B
:100720000025207808B1852513E00021A1606160D3
:100730002161E1604FF0E020D0F80001012610F0C7
:10074000010F03D10721002000F03AF803480660AA
:100750002670284670BD00001400002018050040D7
:1007600070B5154D0446A87838B114B16168012000
:1007700088470020FFF757FF15E00020FFF753FFE1
:1007800024B10D4821461030FFF778FFE86850B9D2
:100790004FF48270FFF7B9FF02204107C1F804034C
:1007A000064901200860E868401CE860BDE8704028
:1007B0000020FFF73ABF00001400002008000040AE
:1007C0004907090E002806DA00F00F0202F1E022C4
:1007D00082F8141D03E000F1E02282F8001400F01A
:1007E0001F02012191404009800000F1E020C0F883
:1007F0008012C0F8001170472DE9F04105464FF412
:10080000A07000EB810086B228684FF480348C40E1
:10081000C0F848432868C0F8084322F07F406A794E
:10082000154F02EB42023A445278002A2A6802EB42
:100830008101C1F8400512D02968D1F80425111AA8
:10084000824202D26FF07F400144687900EB4000A1
:1008500038448078884202DD0D20BDE8F08133B154
:100860003146286800F0B6F82868C0F804432868C4
:10087000C0F844430020F0E7040000200168012292
:100880000A604079024A00EB40000221115470478F
:100890000400002070B50D4604465AB16079144931
:1008A0000E1F41F82020607900EB4000305C18B149
:1008B000082070BD072070BDA97894F90400FFF7E7
:1008C0007FFF20682988C0F808156179287901EB35
:1008D0004101314448706179E87801EB41013144CC
:1008E00088706179012001EB41017054002070BDD6
:1008F000080000202DE9F0479146884604464FF451
:1009000080354FF4A0760027DFF884A016E000BF02
:10091000D4F8040328420DD0A05958B1C4F8485364
:10092000C4F808533146204600F054F85AF828100D
:10093000F8B28847361D6D00B6B27F1C4F45E7D32D
:10094000D4F804034FF4807110F0010F09D0D4F8EB
:10095000000130B1204600F03DF85AF8281004207C
:100960008847D4F804034FF4827110F0020F0CD0C2
:10097000D4F80401002808D0204600F02BF85AF8DB
:100980002810BDE8F04705200847BDE8F0870000C3
:100990000800002070B50E4605464FF48071012412
:1009A000006800F017F82868C0F84443002E02D011
:1009B0002868C0F8044370BD4FF0A042D2F8043557
:1009C0000121814021EA0300C2F808051940C2F85C
:1009D0000C15704708B5002242504058009008BDE1
:1009E00010B550B104280FD1084C2068072809DD44
:1009F0000720FFF7E1FF002005E0BDE810400820D8
:100A0000FFF7DABF401C206010BD0000000000208E
:100A1000000007410000000000B000400B00030090
:100A2000400A00000000002014000000C005000083
:100A3000540A00001400002014200000D00500001B
:100A400000000000000000000000000000000000A6
:040A50000090D0033F
:0400000500000201F4
:00000001FF
