:020000040000FA
:10000000C8200020150200001D0200001F02000091
:100010002102000023020000250200000000000071
:1000200000000000000000000000000027020000A7
:1000300029020000000000002B0200002D02000039
:100040002F0200002F0200002F0200002F020000EC
:100050002F0200002F020000810200002F0200008A
:100060002F0200002F0200002F0200002F020000CC
:100070002F0200002F0200002F0200002F020000BC
:100080002F0200002F0200002F0200002F020000AC
:100090002F0200002F0200002F0200002F0200009C
:1000A0002F0200002F020000E10600002F020000D6
:1000B0002F0200002F0200000000000000000000DE
:1000C0002F0200002F0200002F0200002F0200006C
:1000D0002F0200002F0200002F020000000000008D
:1000E0000000000000000000000000000000000010
:1000F0000000000000000000000000000000000000
:1001000000000000000000000000000000000000EF
:1001100000000000000000000000000000000000DF
:1001200000000000000000000000000000000000CF
:1001300000000000000000000000000000000000BF
:1001400000000000000000000000000000000000AF
:10015000000000000000000000000000000000009F
:10016000000000000000000000000000000000008F
:10017000000000000000000000000000000000007F
:10018000000000000000000000000000000000006F
:10019000000000000000000000000000000000005F
:1001A000000000000000000000000000000000004F
:1001B000000000000000000000000000000000003F
:1001C000000000000000000000000000000000002F
:1001D000000000000000000000000000000000001F
:1001E000000000000000000000000000000000000F
:1001F00000000000000000000000000000000000FF
:10020000DFF80CD000F02AF8004800471D0C000071
:10021000C82000200648804706480047FEE7FEE762
:10022000FEE7FEE7FEE7FEE7FEE7FEE7FEE7FEE7A6
:10023000E50300000102000040EA01039B0703D030
:1002400009E008C9121F08C0042AFAD203E011F815
:10025000013B00F8013B521EF9D27047064C074D96
:1002600006E0E06840F0010394E807009847103486
:10027000AC42F6D3FFF7C8FF34140000541400005A
:100280002DE9F04700268AB0DFF85091B0464FF4D0
:100290008075012437460596284600F0CBFF38B11B
:1002A000D9F80403204203D0284600F0B9FF2643C2
:1002B0002D1D64007F1CADB2082FEDD34FF4BE742A
:1002C000204600F0B7FF48B1204600F0A9FF46F0F5
:1002D000004605AA0121002000F08EFF404D16F0D7
:1002E000FF0F15D00127002437420DD009EB840100
:1002F000D1F81005D1F81015C0F3042055F82420CA
:10030000C1F3014102B190477F00641C082CEBD37C
:10031000002E3DDA4FF0FF304FF00109CDF820807C
:10032000069095F84460002770B226F0C004401C87
:100330002ED006A9204600F099FC002828D04FEACC
:100340009618204600F050FC55F820601EB1B8F118
:10035000030F03D00CE0B8F1030F19D108A8E1088E
:1003600004F00702435C09FA02FC43EA0C0343541D
:100370004FF0A04000EB8400D0F8000705A9C0F3BF
:10038000014A204600F072FC28B1BAF1020F05D0F4
:100390000AB0BDE8F087BAF1030FF9D1B8F1030F45
:1003A00007D1BAF1020F17D00221204600F013FF47
:1003B000012716B141462046B047002FE8D06A46D3
:1003C0000121002000F018FF059900988842DFD035
:1003D000059008980690A4E70321E6E70060004036
:1003E00040000020F0B5AE480023021D0178012531
:1003F000101D4FF0805406290BD11678360708D10E
:100400000678C6F30316032E06D0042E04D0052E5C
:1004100002D0062907D00EE0B4F82463A14FC6F33A
:1004200004263E6002E01678360704D10678C6F34B
:100430000316032E02D0062904D00FE09B4F9A4EDC
:100440007E670EE01678360708D10678C6F30316E5
:10045000032E06D0042E04D0052E02D0062907D084
:100460000EE0D4F84462924FC6F342363E6002E09A
:100470001678360704D10678C6F30316032E02D089
:10048000062906D011E08B4E376827F08077376059
:100490000EE01678360708D10678C6F30316032E49
:1004A00006D0042E04D0052E02D006290AD011E071
:1004B0004FF08046C6F80C31C6F810317C4E361F1E
:1004C000336002E01678360704D10678C6F30316C7
:1004D000032E02D0062905D00CE0754F03266437A1
:1004E0003E600AE01678360704D10678C6F3031694
:1004F000032E02D006290DD014E06F4F05263E6072
:100500006D4E783635606C4E083633603F263F1DA1
:100510003E6002E01678360704D10678C6F303166B
:10052000052E02D0062957D062E0644E3668644F2B
:100530003E60624E361D36683F1D3E605F4E083697
:1005400036683F1D3E605D4E0C3636683F1D3E608E
:100550005A4E103636683F1D3E60584E1436366887
:100560003F1D3E60554E18363668554F20373E6069
:10057000524E1C3636683F1D3E60504E203636685F
:100580003F1D3E604D4E243636683F1D3E604B4E4B
:10059000283636683F1D3E60484E2C3636683F1D73
:1005A0003E60464E30363668454F40373E60434EDB
:1005B000343636683F1D3E60404E383636683F1D43
:1005C0003E603E4E3C3636683F1D3E603B4E4036F8
:1005D00036683F1D3E6002E01678360708D106787F
:1005E000C6F30316032E06D0042E04D0052E02D027
:1005F000062907D019E0D4F85812324A01F04F0109
:10060000116002E0117809070FD10078C0F30310E0
:10061000032803D0042801D0052806D12A48016800
:10062000C90702D06FF001010160224874380168E7
:1006300041F470010160BFF34F8FBFF36F8F4FF034
:100640001021D1F80002002803DBD1F804020028B1
:1006500022DA1E4A15601E480468002CFCD01524BE
:10066000C1F800420568002DFCD0C1F804420168C1
:100670000029FCD0136001680029FCD0BFF34F8F24
:100680000C48F0380168134A01F4E061114301603D
:10069000BFF34F8F00BFFDE710490F480860F0BD62
:1006A000E00F00F0403501400DF0ADBA00C007404A
:1006B0003C050040FCED00E0105600400404001032
:1006C00020C50040E40E00400004004004E5014065
:1006D00000E401400400FA050090D0031800002057
:1006E0002DE9F84306270F4C00254FF4A0784FF46E
:1006F0008036A94608EB850006FA05F122585AB162
:10070000D4F804230A4207D044F800902158064A3E
:1007100000915168126890476D1CEDB2BD42E9D35B
:10072000BDE8F88300A001408800002002E008C86E
:10073000121F08C1002AFAD170477047002001E05B
:1007400001C1121F002AFBD1704700000948006850
:10075000C00700D000BEBFF34F8F0648E4380168E1
:10076000054A01F4E06111430160BFF34F8F00BF00
:10077000FDE70000F0ED00E00400FA050EB50021F1
:100780000091CDE901106A4644F20100FFF7DEFF57
:100790000EBD000030B542680B4C1379E15C0120BE
:1007A000FF290ED0FE290DD012684FF4A86505EB85
:1007B00081015158054A52F82320914202D1FF206D
:1007C000E054002030BD00000D0000209400002007
:1007D00003681B8B9BB253436422B3FBF2F292B2C9
:1007E000AFF3008070B50446006816460D4690F8D9
:1007F000212001EB450100EB8101022A01D00820F4
:1008000070BD4968B14205D1C16909B3606800791A
:1008100088471DE02046FFF7BDFF08B1112070BDDD
:1008200061680C4AFE200979505432462946204618
:1008300000F07AFD2068C06950B16168064A022064
:10084000097902EB410148550221606800F0ECFB98
:10085000002070BD0D000020A80000202DE9F84FF9
:1008600007688946054601EB490897F821001E46AE
:10087000924607EB880410B10820BDE8F88F4FF0CE
:10088000000B3248C4F804B0A672006800900A2237
:10089000296802EB8800085C40B100208DF8010057
:1008A0006946504600F04AFAB0B901E00120F5E788
:1008B00047F828A04FF001084FF0A04108FA0AF0CD
:1008C00016B1C1F80C0501E0C1F808050027E019D0
:1008D000083000F0E3FA08B10420CEE77F1CFFB235
:1008E000022FF4D3207A00F02BFB607A00F028FB73
:1008F000206836B100F0DEF90646206800F0C2FA42
:1009000005E000F0BFFA0646206800F0D3F907467C
:100910004946686800F079FB0146207A324600F0CB
:10092000EDFA0221686800F070FB0146607A3A46F1
:1009300000F0E4FA84F80B806968054A097902EB53
:10094000410202F809B0002097E7000028140000D7
:10095000A80000202DE9F0470025DFF8689007681F
:100960000446A846626805EB450007EB800613794C
:1009700009EB430202F80580F17A71B10A2221687D
:1009800002EB8000085CD8B10021306800F044FA26
:10099000306800F02FFAC6F804806D1C022DE1D3F8
:1009A0006168094AFF2009795054606800F018FB1B
:1009B000606800F059FB022087F82100BDE8F0874D
:1009C0000121E2E7A80000200D0000202DE9F74FEB
:1009D00084B00E00044607D0256895F8210028B1A0
:1009E000082007B0BDE8F08F0B20FAE700F0ECFA22
:1009F00018B1852801D00420F3E700F095F920B95B
:100A000000F064F908B10320EBE74E48DFF838A1A5
:100A1000002100784FF0010BC0F30310032821D010
:100A20008AF800B0FF2285F82020002091464FF080
:100A3000FF3C00BF00EB400705EB8703401CD97269
:100A400083F8089083F80990C0B245F827C00228BF
:100A5000F0D305F1200000F021FA30B1204600F07B
:100A6000FDFBC8E78AF80010DCE7002756F82720CE
:100A7000501C12D0F0193946037A2046FFF7EEFEDB
:100A80005FEA000804D0204600F0E8FB4046A8E7F3
:100A9000002239462046FFF7A5FE7F1CFFB2022F39
:100AA000E4D3002009224FF48053316901E0490862
:100AB000401C994201D39042F9D39AF8001009B131
:100AC00000B90120214AD2E90112CDE901128DF8C5
:100AD000040060681E4A01A900790290606800F075
:100AE000E7FA070004D0204600F0B8FB384678E764
:100AF000606831690068D0F810050E01C640AE612B
:100B0000606800F06DFACDF800B05F46042332460D
:100B10000221606800F0B6FA0221606800F07DFAF8
:100B20000698E86160680B49074A0079521C41F851
:100B300020406168097902F8019085F82170002051
:100B40004FE70000E80F00F00C0000202814000020
:100B5000D1120000B400002000F002B800F008B884
:100B600072B602480168491C0160704714000020F9
:100B700003490868401E086000D162B67047000053
:100B80001400002005494FF0FF32082841F82020CA
:100B900002D3084480F83C20704700004000002049
:100BA000F0B54FF0FF3512B10023082601E008230D
:100BB00009260C4C05E000BF54F823707F1C04D0BC
:100BC0005B1CB342F8D32846F0BD26185DB286F808
:100BD000245044F82310002AF5D1E11881F83C0094
:100BE000F1E70000400000200249084490F9240089
:100BF0007047000040000020012181400348406808
:100C0000014201D0012070470020704704000020FD
:100C100001218140080300D00120704786B01422D2
:100C200010496846FFF708FB01208DF809000D48C0
:100C30000D4A69460838FFF7C9FE08B1FFF79EFD67
:100C400008480838FFF786FE00240648224600219F
:100C50000838FFF7BDFD1128F7D0641CE4B2022C60
:100C6000F3D3F1E710140000C5120000C20800F031
:100C700007030120895C9840084070474907090E26
:100C8000002806DA00F00F0202F1E02282F8141DBB
:100C900003E000F1E02282F8001400F01F020121BD
:100CA00091404009800000F1E020C0F88012C0F8B7
:100CB0000011704710B5FFF797FF602101EB80002E
:100CC0000149C0B2084410BD0060004070B5144D29
:100CD00095F8450008B1082070BD0020411E2A1873
:100CE000401CC0B282F824102028F8D300242046EB
:100CF000FFF748FF641CE4B2092CF8D30721062053
:100D0000FFF7BCFF4FF4BE7000F08AFA05494FF0C0
:100D10000040C1F80403012085F84500002070BDA3
:100D20004000002000600040034890F84500002883
:100D300000D0012070470000400000202DE9FC4158
:100D4000044629480F462044002590F92410491CE8
:100D500001D0082541E0B978002651B301220021D5
:100D60002046FFF71DFF411C21D083001F483A7821
:100D700018447978D0F81035DFF874C003EA0C0312
:100D8000C0F81035D0F810354FF4F85C0CEA042C9C
:100D900043EA0C034FF4403C0CEA02424FF4801C3F
:100DA0000CEA01510A431343C0F8103504E004254E
:100DB00013E0FE2180F824107A780120A0404FF043
:100DC000A041012A0CD0C1F80C0501222046009652
:100DD00000231146019600F0E3F92846BDE8FC81A6
:100DE000C1F80805F1E70000400000200060004065
:100DF000FFE0ECFF0649084490F924008100054813
:100E00000844D0F8101541F00301C0F810157047E0
:100E1000400000200060004001B10121064A10445A
:100E200090F92400820005481044D0F8102561F3A1
:100E30001452C0F8102570474000002000600040A8
:100E400010B5044600F0FEF970B12046FFF7CCFE65
:100E5000C0B2FFF797FE2046FFF7C6FE074A002103
:100E600002EB8000C0F810150549FF20214481F8ED
:100E700024002046BDE8104000F0A4B90060004006
:100E80004000002010B5FFF7AFFE302101EB8000DD
:100E90000149C0B2084410BD006000402DE9F04790
:100EA0000427144E814600244FF001080020FFF76C
:100EB00053FE08FA04F5354203D02046FFF79CFEA6
:100EC00058B10020FFF74AFE27B104F10104AE43F8
:100ED000E4B2EBD13846BDE8F087074908FA04F0E0
:100EE00000274A681043486089F800403846FFF7F9
:100EF00035FEEFE7FFFF0F00040000202DE9F04171
:100F000014460D00074612D08CB10026FFF780FE74
:100F100078B13846FFF770FE68B1084800EBC700AB
:100F2000C0F81055C0F814453046BDE8F0810E20D9
:100F3000FBE70726F8E70826F6E7000000F0014087
:100F400070B5044601260025A640FFF761FE18B1E2
:100F50002046FFF751FE18B102480660284670BDD2
:100F60000825FBE708F5014070B504460126002579
:100F7000A640FFF74DFE18B12046FFF73DFE18B121
:100F800002480660284670BD0825FBE704F50140CD
:100F900070B504460026FFF73BFE78B108480125EE
:100FA000A54005600020FFF7D7FD06484168A9432A
:100FB00041600020FFF7D2FD304670BD0726FBE7F9
:100FC00008F50140040000200448017809B185209B
:100FD00070470121017000207047000004000020CC
:100FE00000680121C160704730B54FF48034056856
:100FF0008C4013B1C5F8044301E0C5F8084300680C
:1010000000EB8100C0F8402530BD02684FF4A070AD
:1010100000EB810080B21044704702684FF48030CA
:101020008840C2F80803704718B54FF4A07202EB6D
:101030008102036892B200249C509A580092026880
:101040004FF480308840C2F8040318BD02680121C3
:1010500011610079034A00EB400002EB800001724D
:101060007047000088000020016801220A600079B2
:10107000034A00EB400002EB80000221017270473E
:1010800088000020F0B40468049E40F20115D4F8F2
:1010900000728D40AF43C4F800720468D4F8005267
:1010A0001D43C4F800523346F0BCFFF79DBF00005B
:1010B000F8B504460D460079204900EB400001EBED
:1010C0008006307A08B10820F8BD3AB1326068680D
:1010D0007060002003464FF4A07709E00720F8BDB8
:1010E000226807EB800153505158401CC0B2009158
:1010F00061798142F4D82068E978000B40B2FFF7AB
:10110000BDFD20686978D0F8042561F30102C0F8BC
:1011100004252068A978D0F8082561F30102C0F8F9
:10112000082520682978D0F8102561F30302C0F85B
:101130001025012030720020F8BD0000880000203A
:1011400030B5034600680121000B40B200F01F02D9
:1011500091404009800000F1E020C0F8801119683A
:101160004FF0FF30D1F800220024C1F80042196886
:10117000C1F808031879094D00EB400005EB800029
:10118000007A022802D11846FFF760FF187900EBB9
:10119000400005EB8000047230BD00008800002094
:1011A00070B541EA4201DDE904564FF0A04441EA3E
:1011B000830141EA052104EB800041EA0641C0F8C1
:1011C000001770BD1CB5002100910B460122019152
:1011D000FFF7E6FF1CBD4FF0A04202EB8000D0F805
:1011E000002722F44032C0F80027D0F8002742EA56
:1011F0000141C0F80017704718B5084B6C46014410
:101200001B68009306E000BF54F82030D3F8103577
:10121000401C08C28142F7D818BD00002414000009
:10122000034908B50844002101600068009008BD2A
:101230000060004002494058012800D0002070475B
:10124000006000400449084490F92400082801D2B5
:101250000120704700207047400000202DE9F05F1A
:101260000668834696F82000FFF792FE002505EBFE
:10127000450800244FF0FF0A06EB880707EB040936
:1012800099F80800FF2803D0FFF782FE89F808A02C
:10129000641CE4B2022CF1D356F82800411C05D09E
:1012A000FFF7CEFD4FF0FF3146F8281000206D1CEF
:1012B000EDB2F872022DDAD3DBF80400BDE8F05F7E
:1012C000FFF73EBF01490120087070470000002071
:1012D0002DE9F04113480D460127002400F10C08C8
:1012E00000EB4506305D28B1305D401E3055305D65
:1012F00070B10027641CE4B2022CF3D3002F0ED08F
:1013000058F8250002214068BDE8F041FFF785BE8E
:1013100058F825000068C16928468847EAE7BDE813
:10132000F0810000A80000202DE9F047884605461E
:10133000076801EB480007EB8004164697F8200089
:10134000FFF7FEFDDFF8B0904FF0FF0A7EB1B869FD
:10135000B04211D886B2207AFFF7F2FD94F8090066
:10136000FFF702FE69680A7909F802A040E0607A96
:10137000FFF7E6FD207AF3E76268824228D03AB3AD
:10138000B24225D9002303216868FFF72DFEA07A19
:101390000028206802D0FFF78DFC01E0FFF772FD06
:1013A000824603216868FFF730FE014617F8200FD8
:1013B0005246FFF7A3FD3878FFF7D6FD69680A7932
:1013C00009F8028068680D49007941F8206003E05F
:1013D00069680A7909F802A0002332464146686824
:1013E000FFF702FE207AFFF7BFFD607AFFF7BCFD32
:1013F0006660BDE8F08700000D000020940000202A
:1014000000900040000400001C00002000140000B8
:1014100011000000FFFFFFFF0000000001000000BE
:10142000E803000000000050030001000000000776
:101430000000000054140000000000201C00000008
:101440002C070000701400001C000020AC200000DD
:101450003C07000000000000000000000000000049
:101460000000000000000000000000000090D00319
:0400000500000201F4
:00000001FF
