:020000040002F8
:1030000070760020153202001D3202001F320200CD
:1030100021320200233202002532020000000000AB
:103020000000000000000000000000002732020045
:1030300029320200000000002B3202002D32020073
:103040002F3202002F3202002F3202002F320200F4
:103050002F3202002F3202002F3202002F320200E4
:103060002F3202002F3202002F3202002F320200D4
:103070002F3202002F3202002F3202002F320200C4
:103080002F3202002F3202002F3202002F320200B4
:103090002F3202002F3202005D3202002F32020076
:1030A0002F3202002F3202002F3202002F32020094
:1030B0002F3202002F32020000000000000000004A
:1030C0002F3202002F3202002F3202002F32020074
:1030D0002F3202002F3202002F32020000000000C7
:1030E00000000000000000000000000000000000E0
:1030F00000000000000000000000000000000000D0
:1031000000000000000000000000000000000000BF
:1031100000000000000000000000000000000000AF
:10312000000000000000000000000000000000009F
:10313000000000000000000000000000000000008F
:10314000000000000000000000000000000000007F
:10315000000000000000000000000000000000006F
:10316000000000000000000000000000000000005F
:10317000000000000000000000000000000000004F
:10318000000000000000000000000000000000003F
:10319000000000000000000000000000000000002F
:1031A000000000000000000000000000000000001F
:1031B000000000000000000000000000000000000F
:1031C00000000000000000000000000000000000FF
:1031D00000000000000000000000000000000000EF
:1031E00000000000000000000000000000000000DF
:1031F00000000000000000000000000000000000CF
:10320000DFF80CD000F018F800480047393602000B
:10321000707600200648804706480047FEE7FEE734
:10322000FEE7FEE7FEE7FEE7FEE7FEE7FEE7FEE776
:103230006132020001320200064C074D06E0E068F0
:1032400040F0010394E8070098471034AC42F6D3ED
:10325000FFF7DAFF483802006838020000F060BA71
:10326000F0B5AE480023021D01780125101D4FF076
:10327000805406290BD11678360708D10678C6F394
:103280000316032E06D0042E04D0052E02D00629E4
:1032900007D00EE0B4F82463A14FC6F304263E60C5
:1032A00002E01678360704D10678C6F30316032E1B
:1032B00002D0062904D00FE09B4F9A4E7E670EE0A5
:1032C0001678360708D10678C6F30316032E06D003
:1032D000042E04D0052E02D0062907D00EE0D4F823
:1032E0004462924FC6F342363E6002E016783607DB
:1032F00004D10678C6F30316032E02D0062906D0A1
:1033000011E08B4E376827F0807737600EE0167833
:10331000360708D10678C6F30316032E06D0042E0E
:1033200004D0052E02D006290AD011E04FF08046C5
:10333000C6F80C31C6F810317C4E361F336002E0FF
:103340001678360704D10678C6F30316032E02D08A
:10335000062905D00CE0754F032664373E600AE06D
:103360001678360704D10678C6F30316032E02D06A
:1033700006290DD014E06F4F05263E606D4E78365D
:1033800035606C4E083633603F263F1D3E6002E0DC
:103390001678360704D10678C6F30316052E02D038
:1033A000062957D062E0644E3668644F3E60624E34
:1033B000361D36683F1D3E605F4E083636683F1D3D
:1033C0003E605D4E0C3636683F1D3E605A4E1036EC
:1033D00036683F1D3E60584E143636683F1D3E60CD
:1033E000554E18363668554F20373E60524E1C36C3
:1033F00036683F1D3E60504E203636683F1D3E60A9
:103400004D4E243636683F1D3E604B4E283636689A
:103410003F1D3E60484E2C3636683F1D3E60464E8E
:1034200030363668454F40373E60434E3436366856
:103430003F1D3E60404E383636683F1D3E603E4E72
:103440003C3636683F1D3E603B4E403636683F1D79
:103450003E6002E01678360708D10678C6F30316F8
:10346000032E06D0042E04D0052E02D0062907D044
:1034700019E0D4F85812324A01F04F01116002E00D
:10348000117809070FD10078C0F30310032803D087
:10349000042801D0052806D12A480168C90702D0AE
:1034A0006FF00101016022487438016841F4700135
:1034B0000160BFF34F8FBFF36F8F4FF01021D1F832
:1034C0000002002803DBD1F80402002822DA1E4A99
:1034D00015601E480468002CFCD01524C1F8004279
:1034E0000568002DFCD0C1F8044201680029FCD019
:1034F000136001680029FCD0BFF34F8F0C48F038EF
:103500000168134A01F4E06111430160BFF34F8F7A
:1035100000BFFDE710490F480860F0BDE00F00F064
:10352000403501400DF0ADBA00C007403C050040F9
:10353000FCED00E0105600400404001020C50040DF
:10354000E40E00400004004004E5014000E40140B6
:103550000400FA050090D0036856002002E008C875
:10356000121F08C1002AFAD170477047002001E0FD
:1035700001C1121F002AFBD17047000009480068F2
:10358000C00700D000BEBFF34F8F0648E438016883
:10359000054A01F4E06111430160BFF34F8F00BFA2
:1035A000FDE70000F0ED00E00400FA050EB5002193
:1035B0000091CDE901106A4644F20100FFF7DEFFF9
:1035C0000EBD000007490B5C4FF0A041D1F8042567
:1035D0000120984020EA0203C1F808351040C1F8E4
:1035E0000C057047CE3702000249085C012100F04B
:1035F0008BB80000CE3702007CB50024084E25466B
:103600000122305D009500231146019500F06AF813
:10361000641C032CF4D3BDE87C4000F003B8000028
:10362000CE37020010B500242046FFF7DDFF641CF2
:10363000032CF9D310BD0000FFF7DEFF054D002479
:103640002046FFF7BFFF284600F006F8641C032C55
:10365000F6DBF4E720A1070000283ED01F49204AEE
:10366000096800BF00BF00BF00BF00BF00BF00BFB0
:1036700000BF91422FD000BF00BF00BF00BF00BFFE
:1036800000BF00BF00BF00BF00BF00BF00BF00BF42
:1036900000BF00BF00BF00BF00BF00BF00BF00BF32
:1036A00000BF00BF00BF00BF00BF00BF00BF00BF22
:1036B00000BF00BF00BF00BF00BF00BF00BF00BF12
:1036C00000BF00BF00BF00BF00BF00BF00BF00BF02
:1036D00000BF00BF00BF0138C3D17047685600204B
:1036E0000024F40070B541EA4201DDE904564FF0D0
:1036F000A04441EA830141EA052104EB800041EA4C
:103700000641C0F8001770BD01224FF0A04382406F
:1037100011B1C3F808257047C3F80C2570470000A5
:103720000EB50749684600F02BF805E0D0E9001017
:103730008847684600F03BF802980028F6D10EBD95
:10374000003802001FB5684648DF30B1052814D0A4
:1037500004B0BDE81040FFF729BF084901A800F0F8
:103760000FF806E0D0E900210098904701A800F08A
:103770001EF803980028E6D0F4E71FBD3C3802008D
:10378000016009684160AFF3008010B5D0E9002105
:103790005368994201D1002104E0D1E90034A342E9
:1037A00002D01946816010BD08314160F0E78168A0
:1037B00000290BD0026892680A44826041684B6815
:1037C0009A4203D108314160FFF7DFBF7047070815
:1037D00009040506000000000000000000000000D1
:1037E0000000000001000007D4370200E4370200A7
:1037F000080000000C3802001C380200080000001D
:103800001C3802002C3802000800000000000000F4
:103810000000000000000000000000006838020006
:1038200070380200000000000000000000000000EE
:103830000000000000000000000000002C38020022
:103840003C38020008000000703802006856002072
:10385000040000005C350200743802006C56002041
:10386000042000006C350200453702000000000013
:043870000090D003F1
:0400000500023201C2
:00000001FF
