:020000040002F8
:10300000A8490020E9350200F1350200F33502003D
:10301000F5350200F7350200F93502000000000026
:10302000000000000000000000000000FB3502006E
:10303000FD35020000000000FF35020001360200ED
:103040007D39020003360200FD3C02000336020017
:103050000336020003360200A537020003360200E1
:103060000336020003360200033602000336020074
:103070000336020003360200033602000336020064
:1030800003360200D539020003360200033602007F
:10309000F939020003360200FD390200033602004E
:1030A0000336020003360200033602000336020034
:1030B000033602000336020000000000000000009A
:1030C0000336020003360200033602000336020014
:1030D000033602000336020003360200000000003F
:1030E00000000000000000000000000000000000E0
:1030F00000000000000000000000000000000000D0
:1031000000000000000000000000000000000000BF
:1031100000000000000000000000000000000000AF
:10312000000000000000000000000000000000009F
:10313000000000000000000000000000000000008F
:10314000000000000000000000000000000000007F
:10315000000000000000000000000000000000006F
:10316000000000000000000000000000000000005F
:10317000000000000000000000000000000000004F
:10318000000000000000000000000000000000003F
:10319000000000000000000000000000000000002F
:1031A000000000000000000000000000000000001F
:1031B000000000000000000000000000000000000F
:1031C00000000000000000000000000000000000FF
:1031D00000000000000000000000000000000000EF
:1031E00000000000000000000000000000000000DF
:1031F00000000000000000000000000000000000CF
:10320000DFF80CD000F090FA00480047F96802009F
:10321000A849002030B4044654E8000F0D4644E8A5
:103220000053002BF8D1156030BC704730B4044611
:1032300054E8000F40EA010544E80053002BF7D1A1
:10324000156030BC704730B4044654E8000F00EA03
:10325000010544E80053002BF7D1156030BC7047DE
:1032600030B4044654E8000F80EA010544E80053F6
:10327000002BF7D1156030BC704730B4044654E8D9
:10328000000F00EB010544E80053002BF7D1156057
:1032900030BC704730B4044654E8000FA0EB010581
:1032A00044E80053002BF7D1156030BC7047000094
:1032B00030B450E8012F93B2C48923448489A342D7
:1032C00028BF1B1B0489A34202BFBFF32F8F00201E
:1032D00007E0C3EA020340E80134002CE9D14FF0D3
:1032E00001000A6030BC704750E8012FC2EA024278
:1032F00040E801210029F7D1704730B450E8022F8F
:103300001FFAA2F3C488A34202BFBFF32F8F00208D
:103310000DE0C48923448489A34228BF1B1BC2EA51
:10332000034340E80234002CE8D14FF001000A606A
:1033300030BC704750E8022FC2EA224240E8022126
:103340000029F7D17047034653E8022FD988B2EB22
:10335000324F4FF0000017BF92B241EA014142EAFA
:10336000014104E05A68B2EB324F08BF012043E844
:103370000212002AE8D1704730B4044654E8000F26
:103380000D4644E80053002BF8D1156030BC70475F
:1033900030B4044654E8000F40EA010544E8005305
:1033A000002BF7D1156030BC704730B4044654E8A8
:1033B000000F00EA010544E80053002BF7D1156027
:1033C00030BC704730B4044654E8000F80EA010571
:1033D00044E80053002BF7D1156030BC704730B47F
:1033E000044654E8000F00EB010544E80053002BAD
:1033F000F7D1156030BC704730B4044654E8000F74
:10340000A0EB010544E80053002BF7D1156030BC58
:103410007047000030B4044654E8000F0D4644E8FD
:103420000053002BF8D1156030BC704730B404460F
:1034300054E8000F40EA010544E80053002BF7D19F
:10344000156030BC704730B4044654E8000F00EA01
:10345000010544E80053002BF7D1156030BC7047DC
:1034600030B4044654E8000F80EA010544E80053F4
:10347000002BF7D1156030BC704730B4044654E8D7
:10348000000F00EB010544E80053002BF7D1156055
:1034900030BC704730B4044654E8000FA0EB01057F
:1034A00044E80053002BF7D1156030BC7047000092
:1034B00030B4044654E8000F0D4644E80053002B96
:1034C000F8D1156030BC704730B4044654E8000FA2
:1034D00040EA010544E80053002BF7D1156030BCE9
:1034E000704730B4044654E8000F00EA010544E890
:1034F0000053002BF7D1156030BC704730B4044640
:1035000054E8000F80EA010544E80053002BF7D18E
:10351000156030BC704730B4044654E8000F00EB2F
:10352000010544E80053002BF7D1156030BC70470B
:1035300030B4044654E8000FA0EB010544E8005302
:10354000002BF7D1156030BC7047000030B4044642
:1035500054E8000F0D4644E80053002BF8D11560E5
:1035600030BC704730B4044654E8000F40EA01050F
:1035700044E80053002BF7D1156030BC704730B4DD
:10358000044654E8000F00EA010544E80053002B0C
:10359000F7D1156030BC704730B4044654E8000FD2
:1035A00080EA010544E80053002BF7D1156030BCD8
:1035B000704730B4044654E8000F00EB010544E8BE
:1035C0000053002BF7D1156030BC704730B404466F
:1035D00054E8000FA0EB010544E80053002BF7D19D
:1035E000156030BC70470000064880470648004719
:1035F000FEE7FEE7FEE7FEE7FEE7FEE7FEE7FEE7A3
:10360000FEE7FEE7013A0200013202002DE9F05F19
:103610000546002092469B46884606468146402441
:103620001BE0284641464746224600F06CF85346C8
:103630005A46C01A914110D311461846224600F04E
:1036400053F82D1A67EB01084F462246012000214E
:1036500000F04AF817EB00094E41201EA4F10104C6
:10366000DFDC484631462A464346BDE8F09F00006D
:103670000048704748B9020040EA01039B0703D0A5
:1036800009E008C9121F08C0042AFAD203E011F8A1
:10369000013B00F8013B521EF9D27047D2B201E063
:1036A00000F8012B491EFBD270470022F6E710B547
:1036B00013460A4604461946FFF7F0FF204610BDA0
:1036C000421C10F8011B0029FBD1801A704730B54D
:1036D00004460020034600E05B1C934203D2E05CFA
:1036E000CD5C401BF8D030BD202A04DB203A00FA24
:1036F00002F1002070479140C2F1200320FA03F349
:10370000194390407047202A04DB203A21FA02F046
:103710000021704721FA02F3D040C2F1200291400B
:103720000843194670470000064C074D06E0E06864
:1037300040F0010394E8070098471034AC42F6D3F8
:10374000FFF762FD24C0020044C0020070B58C186F
:1037500010F8015B15F0070301D110F8013B2A11A5
:1037600006D110F8012B03E010F8016B01F8016B92
:103770005B1EF9D12B0705D40023521E0DD401F88E
:10378000013BFAE710F8013BCB1A921C03E013F857
:10379000015B01F8015B521EF9D5A142D8D300208C
:1037A00070BD00002DE9F04700268CB0DFF8609175
:1037B000B0464FF48075012437460696284604F03B
:1037C00045F838B1D9F80403204203D0284604F064
:1037D00033F826432D1D64007F1CADB2082FEDD3B6
:1037E0004FF4BE74204604F031F848B1204604F08E
:1037F00023F846F0004606AA0121002004F008F84C
:10380000444D16F0FF0F15D00127002437420DD08C
:1038100009EB8401D1F81005D1F81015C0F304208C
:1038200055F82420C1F3014102B190477F00641C88
:10383000082CEBD3002E67DA4FF0FF30CDE908807B
:1038400000263446281910F8507F90F9000027F020
:10385000C008401C44D009A9404603F017FA58B3E9
:103860004FEA9719404601F087FA55F820701FB1CA
:10387000B9F1030F03D00FE0B9F1030F30D108A85D
:103880004FEAD80208F00703815C4FF0010C0CFAF4
:1038900003FC41EA0C0181544FF0A04101EB880088
:1038A000D0F8000706A9C0F3014A404603F0EEF93C
:1038B00018B1BAF1020F03D012E0BAF1030F0FD121
:1038C000B9F1030F08D1BAF1020F1BD00221404613
:1038D00003F08CFF761CF6B217B149464046B84754
:1038E000641C042CAED3002E0ED06A4601210020A9
:1038F00003F08EFF06990098884205D0069008983C
:1039000009909DE70321E2E70CB0BDE8F0870000D5
:10391000006000402821002000F01F02012191409A
:103920004009800000F1E020C0F88012704700F0EC
:103930001F02012191404009800000F1E020C0F801
:103940000011704700F01F020121914040098000E2
:1039500000F1E020C0F8001270474907090E002866
:1039600006DA00F00F0000F1E02080F8141D704727
:1039700000F1E02080F80014704700002DE9F041CC
:103980004FF48077384603F03FFA0124104EA50724
:1039900048B1384603F03FFA0120C5F808037470B7
:1039A000002001F00DFA4FF48277384603F02CFA2C
:1039B00000280BD0384603F02EFA0220C5F8080381
:1039C000B470BDE8F041012001F0FAB9BDE8F08122
:1039D0001421002007480021C0F84011C0F844110C
:1039E000C0F84811C0F84C11C0F80011C0F804111B
:1039F00007F022B90010014007F06CB804F064BC75
:103A0000F0B5AE480023021D01780125101D4FF0CE
:103A1000805406290BD11678360708D10678C6F3EC
:103A20000316032E06D0042E04D0052E02D006293C
:103A300007D00EE0B4F82463A14FC6F304263E601D
:103A400002E01678360704D10678C6F30316032E73
:103A500002D0062904D00FE09B4F9A4E7E670EE0FD
:103A60001678360708D10678C6F30316032E06D05B
:103A7000042E04D0052E02D0062907D00EE0D4F87B
:103A80004462924FC6F342363E6002E01678360733
:103A900004D10678C6F30316032E02D0062906D0F9
:103AA00011E08B4E376827F0807737600EE016788C
:103AB000360708D10678C6F30316032E06D0042E67
:103AC00004D0052E02D006290AD011E04FF080461E
:103AD000C6F80C31C6F810317C4E361F336002E058
:103AE0001678360704D10678C6F30316032E02D0E3
:103AF000062905D00CE0754F032664373E600AE0C6
:103B00001678360704D10678C6F30316032E02D0C2
:103B100006290DD014E06F4F05263E606D4E7836B5
:103B200035606C4E083633603F263F1D3E6002E034
:103B30001678360704D10678C6F30316052E02D090
:103B4000062957D062E0644E3668644F3E60624E8C
:103B5000361D36683F1D3E605F4E083636683F1D95
:103B60003E605D4E0C3636683F1D3E605A4E103644
:103B700036683F1D3E60584E143636683F1D3E6025
:103B8000554E18363668554F20373E60524E1C361B
:103B900036683F1D3E60504E203636683F1D3E6001
:103BA0004D4E243636683F1D3E604B4E28363668F3
:103BB0003F1D3E60484E2C3636683F1D3E60464EE7
:103BC00030363668454F40373E60434E34363668AF
:103BD0003F1D3E60404E383636683F1D3E603E4ECB
:103BE0003C3636683F1D3E603B4E403636683F1DD2
:103BF0003E6002E01678360708D10678C6F3031651
:103C0000032E06D0042E04D0052E02D0062907D09C
:103C100019E0D4F85812324A01F04F01116002E065
:103C2000117809070FD10078C0F30310032803D0DF
:103C3000042801D0052806D12A480168C90702D006
:103C40006FF00101016022487438016841F470018D
:103C50000160BFF34F8FBFF36F8F4FF01021D1F88A
:103C60000002002803DBD1F80402002822DA1E4AF1
:103C700015601E480468002CFCD01524C1F80042D1
:103C80000568002DFCD0C1F8044201680029FCD071
:103C9000136001680029FCD0BFF34F8F0C48F03847
:103CA0000168134A01F4E06111430160BFF34F8FD3
:103CB00000BFFDE710490F480860F0BDE00F00F0BD
:103CC000403501400DF0ADBA00C007403C05004052
:103CD000FCED00E0105600400404001020C5004038
:103CE000E40E00400004004004E5014000E401400F
:103CF0000400FA050090D003F01C00200448017F66
:103D000004480029024901D007F0ABB807F01AB8FF
:103D1000802100200020004002E008C8121F08C1D6
:103D2000002AFAD170477047002001E001C1121F3C
:103D3000002AFBD1704700000121202803DA8140CE
:103D40000548014003E0402802DA2038814009B1EB
:103D50000120704700207047FC06FFBD082806D2EE
:103D600028B1012803D0042801D001207047002089
:103D7000704710B560B159B102780B785208B2EBB8
:103D8000530F05D10622401C491CFFF7A0FC08B1C7
:103D9000002010BD012010BD800701D00020704719
:103DA00001207047C3688B4206D811440069491E40
:103DB000814201D8012070470020704770B5002370
:103DC0008D880C680DE0E618E15C7678864206D1B5
:103DD000E018801C491E10609180002070BD0B44CB
:103DE0005B1C9D42EFD8052070BD10B50122022159
:103DF000002000F021FE08B1072810D1072202217F
:103E0000012000F019FE08B1072808D100210A227C
:103E1000084600F011FE08B1072800D1002010BDAF
:103E200070B58CB015460E4600236C46C3F10F01E9
:103E3000415CE1545B1C102BF8D30D2104F1100000
:103E4000FFF733FC0020C0F10F02315C2244401C1C
:103E500011740328F7D3684643DF0020C0F10F0137
:103E6000214491F820102954401C0328F6D30CB0AB
:103E700070BD022000F0F0BC0149097900F080BA61
:103E8000041C002070B50024064D06E0686801217E
:103E900010F8340003F072F8641C28788442F5D3DB
:103EA000002070BD241C0020F8B515460C460646BF
:103EB000052A01D20720F8BD03F046F918B903F02E
:103EC00015F90028F7D1104900204E600C70C1E9A7
:103ED00002500E4D08610DE006EBC40069680091C8
:103EE00081788DF801100078094A694603F098F846
:103EF0000028E0D1641EE4B2EED2BDE8F840054AE5
:103F00000021024800F050B8241C002058B60200DE
:103F10009D5A0200594F020003F02EFF03F072FD7C
:103F20000028FBD1104C0121208801EB00400FA19B
:103F300003F060FE10480068C00700D000BE208873
:103F4000022101EB00400DA103F054FEBFF34F8F9F
:103F50000948E43801680D4A01F4E0611143016049
:103F6000BFF34F8F00BFFDE7501D00204661746115
:103F70006C206572726F7200F0ED00E0537973741B
:103F8000656D207265736574000000000400FA0519
:103F90000EB500210091CDE901106A4644F20100FE
:103FA000FFF7BAFF0EBD0000074B9B7823B12AB183
:103FB00020B10068037C1BB10820704707207047C0
:103FC0004174426100207047C021002070B505F0A7
:103FD000C7FE104800240B21047044700E4D817000
:103FE00014206C602C706C70FFF796FC0721142075
:103FF000FFF7B3FC1420FFF79AFC08480460072180
:104000001120FFF7AAFC0548001F0068A8600020E7
:1040100070BD0000C0210020381C002008150140A0
:104020002DE9FC47DFF8789099F8023073B368B354
:10403000052902D20720BDE8FC87436933B3437CDE
:10404000012B25D0002704460025884616468DF80A
:104050000050684600F038F801A806F0F1FFC8B13A
:10406000012101700F4944600968C0E90218C0E9E4
:1040700004769DF8040089F801009DF8000000F026
:1040800047F81420FFF75EFC2846D4E70820D2E763
:104090000F46D8E704259DF8000000F039F8F3E753
:1040A000C0210020041501400649897839B130B19A
:1040B000416921B100210174022106F099BD082057
:1040C00070470000C021002030B5EFF3108172B6B8
:1040D0000D4A9468012324B10370002900D162B60F
:1040E00030BD93604FF0E023D3F88051074C25405A
:1040F0001560C3F88041D3F8844154605A17C3F85F
:10410000842100220270E8E7CC220020FC06FFBDDB
:104110000B498A68002A11D000280FD1EFF31080D4
:1041200072B60B684FF0E022C2F800314B68C2F85B
:10413000043100228A60002800D162B67047000076
:10414000CC2200202DE9F041064608680C46411CAF
:104150004FF0A0474FF0010506D005FA00F1C7F86F
:104160000815206803F027FB6068411C02D000217D
:1041700003F018FB3079204901EB4010A169007F62
:1041800000283068C0F8241525D0607D227D316874
:104190001043C1F86C05D4E900123068C0F80C1562
:1041A000C0F8142524E0A068411C02D0002103F0CF
:1041B000F9FAE068411C05D08540C7F80855E06869
:1041C00003F0F9FAD4E902123068C0F80825C0F803
:1041D0001015BDE8F081607D217D32680843C2F88A
:1041E0006C05D4E900123068C0F81425C0F80C152D
:1041F000207D0128D7D0ECE7802100202DE9F04771
:10420000074600888EB0804600F07EF8064640469D
:1042100001F016FF824604462E4800252A46017802
:10422000404600F0C3F8002E50D07879400734D5CE
:1042300001254FF6FF7603AB2A460721504604F0CE
:1042400059FB010004D0404606F08CF800252BE015
:10425000B1463146049801F046FE064648450FD067
:1042600004460146404601F0D5FE4046FFF704FEF5
:1042700030B9404606F050F84046FFF7FDFD48B122
:1042800022460721504604F0CBFB010003D04046F4
:1042900006F068F800254E4506D0404604F02EFD95
:1042A00010B1504601F0B8FE02208DF81800ADF8AC
:1042B0001A807879400701D5012000E002208DF8AE
:1042C00020008DF8215006A800F092FF0EB0BDE846
:1042D000F0870000041C002002494A6C091D05F00B
:1042E000CDBE0000001E002002460248016D001DE8
:1042F00005F0B1BE001E00200249C86C896C084060
:1043000005F0E1BE001E002070B50A4E05460024EF
:104310002A46301D716C05F09EFE40B12A46301DC4
:10432000F16C05F098FE08B1022400E0012420465B
:1043300070BD0000001E002010B50024204606F0CD
:1043400073FE28B1641CE4B2182CF7D3182010BDFA
:1043500003480122A240016811430160204610BDBC
:10436000001E002010B5044606F05EFE002803D0B3
:10437000024800EB8400806D10BD0000001E00208C
:1043800070B505460C46084606F04EFE002809D0DA
:1043900005482A4600EB8401001D896DBDE8704088
:1043A00005F059BE70BD0000001E002070B5064625
:1043B00015460C46084606F037FE00280AD0064887
:1043C0002B4600EB84013246BDE87040001D583199
:1043D00005F088BE70BD0000001E00202DE9FF5FC3
:1043E0000546041D00884FF0000B1F2872D025DC05
:1043F000DFF8E48110282BD011283AD00327774E1C
:104400001B2868D01D2838D198F80000C1464FF00D
:10441000010AA0B372482379211D02785208B2EB39
:10442000530F2AD10622401C491CFFF750F90028DF
:1044300023D130886BA107EB004084E021287DD098
:104440003B287CD0562818D1A888132176DFBBE002
:104450002088A8F80400072000F010FB08B1FFF73F
:1044600097FD0021B8F8040004F020FF08B1FFF721
:104470008FFDFFF741FF00287CD0BDE8FF9FFFE7DD
:1044800057481030FFF71CF9010005F1180004F13E
:10449000040128D00290C87B514DC008ADF80C0033
:1044A00010356A4602A90920FFF788FCB0B16A46B8
:1044B00002A90820FFF782FC0028DED1BDF8042005
:1044C00028460099FFF703F90028D6D1308807EB7A
:1044D000004001E067E059E04BA134E0BDF8042062
:1044E00028460099EEE70290C87B41F60105C00816
:1044F000ADF80C006A4602A90220FFF75FFC30B15C
:104500006A4602A90320FFF759FC0028B5D1002014
:104510004FF6FF7C5346BDF8042033E0009903EBCF
:10452000400811F808100CEA0128009911F8101041
:1045300041EA0801A94224D1308801E037E040E097
:1045400007EB004039A103F055FB8BDF2248244ADA
:10455000801D01230178083221F00201017001461B
:10456000201D8CDF020089F801B086D031880AEB6B
:10457000014000E013E004B035A1BDE8F05F03F0B6
:104580003DBB401CB0EB520FC8D376E72079012821
:10459000FBD1308838A107EB004003F02BFBBDE8CE
:1045A000FF5F05F021BC2088211D75DF0CE0CDF8F0
:1045B00000B0A88869468FDF0028E6D0FFF7E8FC46
:1045C0005BE7A888132176DF0028DED004B0BDE8C1
:1045D000F05FFFF7DDBC0000A01B0020501D002095
:1045E000D4B4020041646472657373206D617463B6
:1045F000682073656E6420636F6E6E6563745F72AE
:104600006571756573742E004E616D65206D617402
:1046100063682073656E6420636F6E6E6563745F9C
:10462000726571756573742E00000000555549441C
:10463000206D617463682073656E6420636F6E6EB5
:104640006563745F726571756573742E0000000098
:10465000436F6E6E656374696F6E20526571756528
:104660007374204661696C65642C20726561736F98
:104670006E2025642E0000005363616E2074696D06
:104680006564206F75742E0010B51A4C018860683F
:1046900010290ED011292BD1401E606028D1FFF7C0
:1046A000A4FB002824D02168002921D0BDE81040B7
:1046B0000847D0B900210122084600F0BDF908B131
:1046C00007280FD107220221012000F0B5F908B117
:1046D000072807D104220221002000F0ADF920B103
:1046E000072802D0216801B188476068401C6060DB
:1046F00010BD0000C01B00202DE9F04704460388D0
:104700003F480122A4B000F1480A102B09D0112B18
:1047100054D01A2B70D1217AB2EB111F53D201233E
:1047200052E0D0E911218A430546011D12A805F087
:10473000A5FC442212A901A8FEF79EFFDFF8C09055
:104740000026374609F144090DF104080AE000BFCC
:1047500008EB46001D2283884946281D009705F076
:104760003FFC761C0198B042F2D8686CA688C04322
:1047700005F058FCA0F57F41FF3917D005EB40004C
:104780000123868032465146281D05F0ABFC0123EB
:1047900032464946281D05F0A5FCE07B02280BD0D7
:1047A00000231749A2884C31281D20E024B00420A2
:1047B000BDE8F047FFF7ECBB0123F2E70023A28836
:1047C0005146001D13E000230D490546A2885031D3
:1047D000001D05F087FC207A0221B1EB101F01D2E9
:1047E000012300E000230649A2885431281D24B08B
:1047F000BDE8F04705F076BC24B0BDE8F0870000C6
:10480000001E002010B504460748007800280AD092
:10481000204601F09BFA204605F082FE2046BDE8C6
:10482000104001F015B810BDF41B00200149085CD0
:1048300070470000F5B402000649095C4FF0A04043
:10484000D0F81005C84010F0010000D0012080F021
:1048500001007047F5B4020007490B5C4FF0A0411E
:10486000D1F804250120984020EA0203C1F8083558
:104870001040C1F80C057047F1B402000649095C0C
:104880004FF0A040D0F80405C84010F0010000D05F
:10489000012080F001007047F1B4020010B502461B
:1048A000064B4FF0FF3000215C5C944201D108467A
:1048B00010BD491C0429F7D310BD0000F5B4020057
:1048C00070B50C4E0C004FF0000530600BD001208D
:1048D00000F06AF808B1022004E0002000F064F85B
:1048E00000B10B202070706810B9FFF77EFA054602
:1048F000284670BDC01B002010B5002000F0B2F9A2
:1049000008B1062806D1012000F0ACF908B106284C
:1049100000D1002010BD00002DE9F0470D46814672
:10492000FFF7BCFF0446042836D2DFF874801B482A
:104930001C4EA8F10C0725B3012D0ED0022D2BD152
:1049400004EB440030444578002D25D0B968002997
:1049500022D02846BDE8F047084704EB4401755CC7
:104960000E44717849B10E4A4FF40041093A80680B
:10497000FFF756FB08B987F80390B17808F80410E0
:10498000E2E78068FFF790FB04EB4401314418F83C
:1049900004008D78A842D7D0BDE8F087FCB40200AF
:1049A000BC1B0020D41D0020FFF746BF10B5184CDB
:1049B00004280ED0072817D00A2805D00E2825D1A4
:1049C000BDE8104004F082BDBDE81040002003F0B7
:1049D000E7BA1321A08876DF082817D0002815D061
:1049E000BDE81040FFF7D4BA607800280ED109481E
:1049F0000321008801EB004007A103F0FBF8012030
:104A000060708BDFBDE8104005F0EEB910BD00000E
:104A1000A01B0020501D002057686974656C6973E5
:104A2000742074656D706F726172696C792064694D
:104A30007361626C65642E0070B50023042810D287
:104A40000D4D00EB4004012A02D101290CD00022B7
:104A5000094E00EB4000304461B1012906D0022923
:104A600006D00723184670BD0E30C2B22A55F9E7AA
:104A70004270F7E78270F5E7D41D0020044A014632
:104A800000201279D20702D0084600F045B87047DE
:104A9000B01B00201B4A10B5C2E90101800721D5D7
:104AA0000024012211462046FFF7C6FF641C042C97
:104AB00002D20028F5D010BD0028FCD140F2666279
:104AC00004211148FFF7F0F90028F4D1FFF7DAF9D3
:104AD0000028F0D10C480D4A0021001FFFF764FAAE
:104AE0000028E8D108480A4A00210C38FFF75CFA90
:104AF0000028E0D104480121BDE81040054A0838EB
:104B0000FFF752BAB01B002008B502000D4D02009D
:104B1000B1630200733E02002DE9F05F4F4C054681
:104B200000266078B34618B184F801B001F034FC77
:104B30004B4F4FF47A694FF4C87A4FF00108182DA3
:104B400023D2DFE805F0870C0C23383E454A4C554C
:104B50004C554A5E5E5E5E5E878787874A4A0020C4
:104B6000FFF78CFE30B1022D02D14FF4E16014E06A
:104B7000484612E0022D01D1C8200EE050460CE05C
:104B800000223868FFF74CFA064660E00020FFF785
:104B900075FE0028F0D04FF44870410CC0034FF46C
:104BA000FA72801841F10001257052000023FEF7CF
:104BB0002DFD0146E4E70020FFF760FE0028DDD070
:104BC000D6E70020FFF75AFE257041F69A11D7E785
:104BD0000020FFF741FE257006E0257037E084F8DD
:104BE00001800120FFF738FE002240F6CD41C8E7E2
:104BF00084F801800120FFF72FFE00224FF480414E
:104C0000BFE77868FFF750FA0646D5F1110000D0EB
:104C100016B184F802B01AE0012816D980B2C82172
:104C20004843C117C90341EA5041C0034FF4FA7227
:104C3000801841F1000152000023FEF7E7FC014615
:104C400000227868FFF7ECF9064684F802803046C7
:104C5000BDE8F09F01F0A0FBBFE70000B01B002003
:104C6000FCB4020010B5FFF7E1FD032102F0ADFD39
:104C7000002010BDF8B5871C00208DF800000E46FE
:104C800001256846FFF720FA124C20683060D4E90D
:104C90000001401AA168091ABE1C06E001F0E2FDFD
:104CA000D4E90001401AA168091A491C8E42F5D8BE
:104CB000A1682068084004EB8000C16841F003014E
:104CC000C1602068384420609DF80000FFF720FA9A
:104CD0002846F8BD8425002030B482680468531C3F
:104CE0008360A154D0E901128A4202D330BC02F0A1
:104CF0003ABB30BC70470000034803C8814201D171
:104D00000120704700207047842500200078022190
:104D1000FFF702BE05494FF0FF32082841F8202076
:104D200002D3084480F84820704700002821002062
:104D3000F0B54FF0FF3512B10023082601E008233B
:104D40000C260C4C05E000BF54F823707F1C04D0E7
:104D50005B1CB342F8D32846F0BD26185DB286F836
:104D6000305044F82310002AF5D1E11881F84800AA
:104D7000F1E70000282100200249084490F93000A2
:104D8000704700002821002070B504464FF6FF75DB
:104D90000A462846AC4208D14FF48074214610469A
:104DA00004F0B2FBA04209D070BDFF2CFCD8214614
:104DB000104604F09CFB08B1204670BD284670BD2B
:104DC00070B5084C050009D010342168002907D0BF
:104DD00008682060496828468847F6E70834F4E701
:104DE00070BD0000142100202DE9F05F26484168C5
:104DF000F1B3DFF898B00E688146DBF800408768B1
:104E00008078E11B21F07F45ED1CB0B9DFF8808090
:104E10004FF48030C8F84403C8F804031120FEF7AB
:104E20007BFD1120FEF783FD4FF0010AC8F800A0BA
:104E30002F2001F0F9FF89F802A0B54200D23546D3
:104E4000124BE8193C3320F07F401860DBF800106B
:104E50005A46091B21F07F41001B20F07F40C91CEE
:104E600081420FD9106818602F2001F0DDFF00E0AB
:104E700004E0BDE8F05F1120FEF764BDBDE8F05F1F
:104E800004F06EBFBDE8F09F381C002004150140FF
:104E900000100140F0B585B016460F4604461D4689
:104EA00014220B496846FEF7E7FB0A488DF80870A4
:104EB000ADF80240ADF80A608DF80C500178002280
:104EC0002046FFF773FA684600F092F905B0F0BD8E
:104ED00014B60200041C00207FB50C4610B101205E
:104EE00004B070BD2079002638B141F61D55012867
:104EF0001BD0022826D00F20F2E702202071029654
:104F00000396E0680190694601A804F085FE50B15F
:104F100002988188E18000882081BDF80010029805
:104F200004F0F8FEDCE70A20DAE70A4B6A460021C3
:104F3000A01D04F02DFE38B1064918398E61CE61EE
:104F40000A28CDD12846CBE702488188019804F091
:104F5000E1FEF5E7641C00202DE9F0410026012563
:104F6000144C22E06068226900EBC607387805FA25
:104F700000F1114217D08A43226102F0ADF80246D7
:104F80003878E36805FA00F1194002FA00F3994213
:104F900009D17978012901D0012100E00021514097
:104FA0007A6802B19047761CF6B220788642D9D34F
:104FB000BDE8F081241C00200E4910B50A784C7819
:104FC0000023A24212D0521CD2B20A70022A00D18F
:104FD0000B70084A0B780C3252F823200260886864
:104FE000104420F07F408860012010BD0360002045
:104FF00010BD0000381C002013460A460021FFF7B0
:1050000049BF00002DE9F843104D0F4680461E466B
:1050100091466946286801F0AEFD040014D01C21B9
:10502000FEF743FB01202071C4F81490380BC4F83C
:105030000080C4E902606946286801F0BDFD04F003
:1050400043FD0020BDE8F8830420FBE788B602009A
:1050500010B503780022072B06D2DFE803F0050421
:105060000610202930000A7010BD01230B7003893F
:105070008B818388CB81C06888600A7410BD02224E
:105080000A7002898A818288CA81C2688A60807DAA
:10509000062802D00020087410BD0120FBE703227F
:1050A0000A70C2888A810289CA81C068886010BD7E
:1050B00004230B70C0888881CA818A6010BD0520D6
:1050C000087010BD70B5064D0646002455F8241032
:1050D00009B130468847641C042CF7D370BD00002A
:1050E000E422002030B50446006885B00D46806893
:1050F00000281CD014216846FEF7D7FA0195A06855
:105100000490207910B101280DD104E001208DF820
:105110000000206904E002208DF80000E068000330
:10512000029060690390206881686846884705B0EE
:1051300030BD70B586B015460C00064619D0112C4E
:1051400017D0082C15D014216846FEF7AEFAADF83A
:105150000260304600F074FFADF804000D2C0AD058
:10516000862C1CD007208DF800000294684600F0C1
:105170004DF806B070BD03208DF8000025B12878E9
:10518000C00701D0012000E002208DF808000020B7
:105190008DF80C0041F20110ADF80A00E6E7062098
:1051A0008DF80000E2E7000010B50446408800F0EA
:1051B00047FFA080024801682046BDE8104008472C
:1051C000D01B00202DE9F04107460024064E074D74
:1051D00005E000BF56F8241038468847641CE8787C
:1051E0008442F7DBBDE8F081C8200020F41B0020DA
:1051F00010B50446408800F023FFA08002480168F3
:105200002046BDE810400847E8B50200014909689A
:105210000847000050B602007047000070B586B025
:10522000044614216846FEF740FAA0890026A0F53E
:105230004040ADF8040020782D4D062835D2DFE837
:1052400000F0340303032E4EA08900F0C7F90121BA
:1052500030B9E08943F6FE72A0F54040904224D870
:10526000A07B8DF808002078032810D05FF00000A4
:105270008DF80900A0680390606850B109208DF88E
:10528000000060680490684603F012FC0DE0012005
:10529000EEE708208DF800008DF81010F3E7A089E4
:1052A00000F09CF908B1E08938B16878002802D094
:1052B0006E7003F02DFD06B070BD606838B10B2034
:1052C0008DF800006E70AE7003F022FDDBE70A205F
:1052D0008DF80000BDF8040003F0AAFDF2E71320EA
:1052E0008DF800004FF6FF70ADF80400CBE700002A
:1052F000E01B002038B504460E480078A8B1A4F59C
:105300007F40FF380FD0684604F018FB78B10521C4
:10531000017001210171C480684604F01DFB04F096
:10532000C3FB002038BD042038BD022038BD082052
:1053300038BD00006C1C00200C4808B5007888B10E
:10534000684604F0FBFA78B106210170684604F063
:1053500003FB0748017809B10121017304F0A4FBA4
:10536000002008BD022008BD082008BD6C1C0020DC
:10537000A8230020F0B589B014216846FEF795F9FE
:105380002C4C207818B16846FFF79CFE50E0201D99
:10539000012105AAFDF74AFFB8BB4FF01020416973
:1053A0000004026940694B1C01D100FB02F1224854
:1053B00000220161A1F54051C160204902F0F3F8DB
:1053C000002820D11F481C238C221D49006801F0B1
:1053D000BFFB03F021F9050014D0022D12D00027E5
:1053E0000126062D12D006A804F0A8FA88B106708E
:1053F0000C2D18D2DFE805F0170F170F1716171628
:10540000171113110B2009B0F0BD11E02670676071
:10541000B9E70820F7E7077105E0032100E0022162
:10542000017100E0067106A804F096FA04F03CFB56
:105430000020E8E76C1C0020F41C002098B6020055
:10544000F422002060B6020038B5040014D069468A
:1054500004F0E2FBA0B1BDF8000000EB80010948B8
:1054600000EB8100C16849B1A17A39B1C168491E18
:10547000C1600020A07238BD052038BD062038BDAF
:105480000A2038BD802300201FB501A9684604F01A
:105490007FFB04B010BD07B513460A4669460020DD
:1054A00004F076FB0EBD07B513460A460021684698
:1054B00004F06EFB0EBD20B119B100680860002039
:1054C00070470520704700007CB50D46040019D0D8
:1054D000C5B1694604F0A0FBB0B1BDF800000B49AE
:1054E00000EB800001EB8000012101AA0C3066680E
:1054F000FDF7C3FE2E6060680C3068600120A0726A
:1055000000207CBD05207CBD0A207CBD80230020BE
:1055100018B10323002205F0B5BE05207047022311
:10552000002205F0AFBE12B1022305F0ABBE05208C
:1055300070470000094908B50A69042A0BD0084AD7
:10554000096942F821000548012110306A46FDF73B
:1055500094FE002008BD0C2008BD00004C1C00205B
:10556000E422002038B5044609480D46007858B1B9
:1055700064B16946284605F07FFF002803D1BDF8D5
:1055800000102180658038BD022038BD052038BD5F
:105590006C1C002010B504460E48007898B1A4B1E8
:1055A0002188022913D80C4A01EB810002EB80020A
:1055B00060885289C31C934209D805F051FF00202E
:1055C0002080608010BD022010BD052010BD042089
:1055D00010BD00006C1C00208023002043F6FE71EB
:1055E000A0F54040884201D8012070470020704754
:1055F00010B504460078182802D1FEF79DFE2070F1
:1056000010BD10B504460078182802D1FEF794FEAC
:10561000207010BD70B51346002206461546862937
:1056200002D0112902D002E0012200E001250D4C38
:1056300073B1A179FEF7BAFE2A4661793046FEF7CA
:10564000B5FE0022A1783046FEF7B0FE002203E04E
:10565000A178FEF7ABFE2A4661783046BDE870407F
:10566000FEF7A4BE0C1C0020406804F07DB90000C9
:1056700070B508B1012070BD194C0025207B08B120
:10568000257301E000F0A0F82078082826D2DFE892
:1056900000F02504080C10251420BDE8704000F02F
:1056A00021B8BDE8704000F07DB8BDE8704000F062
:1056B0005FB8BDE8704000F03BB86088084900EB77
:1056C0008000283901EB80004068BDE8704002F09E
:1056D00083BF6560BDE8704002F08CBF0F2070BDD5
:1056E000A82300201149F0B48A1C00200346A1F130
:1056F00028050C18A67A4EB1A37200EB800405EBC6
:105700008404E66816B9247C012C0AD0401C80B2BF
:105710000228EED30B704B804B60F0BC41F61D505D
:1057200070471080F0BC00F03DB80000A8230020B6
:105730000C48418801EB8102A0F1280101EB8201B4
:10574000CA6852B1052101700748022181800168B1
:1057500000230122054801F0FFBE042202704968BF
:10576000F6E70000A8230020741C0020F41C002091
:1057700038B50A49084803240B684268898803EB56
:10578000810153880470DB1C00201B0400909B0BDC
:10579000034801F0A7FF38BDA8230020741C002097
:1057A000F41C0020074910B54888091D04F084FA4C
:1057B00018B1BDE81040FFF7DBBFBDE81040FFF7B0
:1057C000B7BF0000A8230020F0B51F481F490125DE
:1057D000067802248B88A0F12802082E19D2DFE86F
:1057E00006F00418181B222F2F170189491C01816C
:1057F0000021418080F80C1001EB810312F8233066
:1058000043B100234418491C89B2A3720229F3D37F
:105810000570F0BD0123F5E742685288D21C1A4496
:105820008A800470F0BD46880D6806EB860602EBA0
:10583000860256680E60556013818C80062100E058
:1058400007210170F0BD0000A8230020741C002077
:1058500030B501888588224C85B0502924D0522942
:1058600002D0542932D103E0284600F0A5FF2DE0F4
:1058700014221C496846FDF7FFFEADF80250284689
:1058800000F0DEFBADF8040000F034F9002261798D
:105890002846FEF78BFD002221792846FEF786FD7B
:1058A0006846FFF781FC11E0017B01290ED1817A66
:1058B00001290BD10089A0F52451023906D101211B
:1058C000284600F0ADFFA07803F0B2FBE07803F0CB
:1058D000AFFB207905B0BDE8304003F0A9BB000064
:1058E000C81B002064B5020010B5044600780028EB
:1058F0000FD1608800F060FF608800F0A3F90028F5
:1059000007D00449608801220979BDE81040FEF7FC
:105910004DBD10BDC81B002010B5124C00202070DA
:10592000FEF70AFDA070FEF707FDE070FEF704FD2C
:105930002071FEF701FD6071A17818290FD0E17880
:1059400018290CD02179182909D0182807D001214D
:10595000601C03F0C5FD01202070002010BD032055
:1059600010BD0000C81B00202DE9F04192B000F0EE
:10597000D9F86846FEF7B0FC00246E460D4D4FF690
:10598000FF780DE006EB4407B88800F059FB40456E
:1059900004D1B88801222979FEF708FD641CA4B25D
:1059A0000098A042EED8287903F042FB12B0BDE87F
:1059B000F0810000C81B00207CB5044600781C4D17
:1059C00008282FD1607A38BB207A4FF6FF7601285D
:1059D0000DD0072802D0082824D11EE0A08800F0AE
:1059E00019FAB0421ED0012100F01AFF1AE0A08877
:1059F0006A46012102F054FF70B90198007858B14D
:105A0000A08800F007FAB0420CD001222979FEF7F5
:105A1000CDFC287903F00CFB04E005480021401C74
:105A200003F099FDA878BDE87C4003F001BB0000BD
:105A3000C81B002010B504460A4841782046FEF7EE
:105A40009FFC68B10848002101EB410200EB820293
:105A50005288A24201D1C8B210BD491C1429F3D307
:105A6000FF2010BDDA1B0020B81E002070B5094DC4
:105A7000094E002404EB440005EB80007178408857
:105A8000FEF77EFC20B1641C142CF3D3FF2070BD04
:105A9000E0B270BDB81E0020DA1B00202DE9F041F5
:105AA000124E07460125BD403068FEF7FDFA00287A
:105AB0000DD10F4C2069284207D1384601F00CFB6C
:105AC0000028E06805D0284304E0A8432061BDE831
:105AD000F081A843E060206928432061A168306814
:105AE000BDE8F0410022FEF79BBA000058B6020064
:105AF000241C00201CB5054AD2E90212CDE900128F
:105B00000022694602F0F1FE1CBD00007CB50200D7
:105B100003484FF6FF71818001210170002070471A
:105B2000D41B002010B54FF6FF7002F071FE034940
:105B30008880BDE8104004F03DBC0000D41B00206C
:105B40002DE9FC41804600F07BFA00240325012763
:105B5000A0F57F412646FF3908D06A46082102F0A9
:105B60009FFE18B90198841D8688056832462B4629
:105B700021464046A9DF042804D0082804D00B2879
:105B800008D002E0112000E00020002F00D10B20FF
:105B9000BDE8FC810027A80701D50125E6E73443CD
:105BA000F5D0002426460325E0E72DE9FC41804698
:105BB00000F046FA0646A0F57F40FF380ED00125DA
:105BC0002A466D1C0027ADB26B460821304602F014
:105BD00091FE040006D0072C25D025E043F20200F8
:105BE000BDE8FC81019903230A1D0B604046891D15
:105BF000AADF040004D00C2C09D0052C09D009E040
:105C000032460821104602F00BFF04460CE0012743
:105C100000E000240821304602F0EEFE00B103242B
:105C2000002FCDD100E00C242046D9E7044880881D
:105C3000A0F57F41FF3901D004F0BCBB70470000E4
:105C4000D41B00200EB502A9019100F0F9F96A46B3
:105C5000012102F025FE08B100200EBD0198007858
:105C60000EBD00002DE9F04107464FF6FF760A48C9
:105C7000ABDF10B10320BDE8F081074C43F2030510
:105C8000A41E324661883846A7DFA842F3D1608857
:105C9000401C6080F5E70000D61B0020428800EB26
:105CA00082020C328A4201D9022070478188A1F514
:105CB0007F42FF3A03D0008808B1002070470120DE
:105CC0007047884204D20068401C01D00120704710
:105CD000002070473EB5027802230C46B3EB520F0A
:105CE00017D1B0F80110ADF80010C1788DF802108E
:105CF0008188ADF8041080798DF8060002AA01A908
:105D00002046FEF78DF8032202A96846FDF7DFFC66
:105D100008B100203EBD01203EBD000010B50C467C
:105D2000FFF788FEFF280CD0074900EB400001EB8D
:105D30008000416821600189A180807AA0710020E3
:105D400010BD052010BD0000B81E002070B50188F0
:105D500092B0102959D1011D34226846FDF78CFC00
:105D60009DF804004FF6FF76032134466D46B1EBF3
:105D7000500F2AD002F00AFF9DF8040040080ED010
:105D800001280CD0022820D118E00F99281D1131CC
:105D9000FDF7EFFF18B100BFBDF8344015E00EAAC3
:105DA0000DA9072002F0C6FE0028EED10DE00F99E4
:105DB000281D491CFFF78EFF0028EDD10EAA0DA962
:105DC000072002F0B7FE0028F1D1BDF80000291D20
:105DD00000F068FEB44218D0BDF80000214600F083
:105DE00019F9BDF80000ADF836000020ADF83840D4
:105DF000074E8DF834000DAD044600BF56F8241050
:105E000028468847641C022CF8D312B070BD0000ED
:105E100090B50200094A002101EB410332F823301A
:105E2000834205D101EB410002EB800040887047BE
:105E3000491C1429F0D34FF6FF707047B81E00209C
:105E40002DE9F041CEB00D46070019D0C5B10DF1D6
:105E5000B8085020CDE94B80B8216846FDF725FCF5
:105E6000002042A94FEA0D06C0EBC00202EB00126F
:105E7000324441F82020401C0828F5D300242BE0B0
:105E80000022114610466FDF4EB0BDE8F081502170
:105E90002EA8FDF70AFC37F814004CAB4AAA0721DC
:105EA00002F07CFE05280AD0072808D09DF8C9001A
:105EB000400806D0012804D043F20220E4E7052080
:105EC000E2E7C4EBC40000EB04103044172208F1F1
:105ED0000101FDF7D1FB641CAC42D8D3EAB200212A
:105EE00042A86FDFD0E73EB50C46054602F04EFEF5
:105EF0000BE0BDF80000A04207D02846029900F050
:105F00002FF810B1BDF800003EBD01AA6946072078
:105F100002F010FE0028ECD14FF6FF703EBD0000ED
:105F200010B50D4C18200D4A607000204FF6FF711F
:105F300000EB400302EB8303401C59801428F7D385
:105F4000FEF7FAF96070182803D0012020700020B5
:105F500010BD032010BD0000DA1B0020B81E002079
:105F60002DE9F0410C46054600F1110701F111063B
:105F70001022491C401CFDF7AAFB48B9681C00F020
:105F8000FBF928B1601C00F0F7F908B1012400E02A
:105F9000002431463846FDF7ECFE3B780222B2EB96
:105FA000530F0CD00321B1EB530F08D03378B2EB71
:105FB000530F04D0B1EB530F01D0012100E00021B9
:105FC000084201D18C4302D00120BDE8F0810020BD
:105FD000FBE7018811B9421892780AB10120704795
:105FE000491C0829F7D30020704710B50C4603461A
:105FF000FFF7EFFF00280AD018882188884205D1D2
:106000000822A11C981CFDF762FB08B1002010BDFE
:10601000012010BD02F060BF70B50446FFF7FAFE24
:106020000546204602F03FFC4FF6FF7104468D42C4
:1060300003D014B9284602F04FFF204670BD00007F
:1060400010B5FFF7F7FCFF2805D0044900EB40002E
:1060500031F8200010BD4FF6FF7010BDB81E0020B3
:106060003EB5044602F092FD0EE00199204646310D
:10607000FFF7BBFF28B9019920462A31FFF7B5FF8A
:1060800010B1BDF808003EBD6A4602A9072002F023
:1060900051FD0028E9D14FF6FF703EBD7CB5144696
:1060A0000A000A49897802D015688D4203D323B1CA
:1060B0001D688D4201D204207CBDCDE9004313460A
:1060C0000246034802F054FF7CBD0000DA1B0020AA
:1060D000A81F002070B50C4606469AB0102118483B
:1060E000FDF7E3FA174800252EB324B3847062004D
:1060F00031461348FDF7C0FA382102A81895FDF77C
:10610000D4FA009518AB02AA21463046019502F058
:106110002FFF00280DD110AA0DF10801C0EBC0031C
:106120000B4442F82030401C0828F7D3E1B2104657
:106130006EDF1AB070BD8570002108466EDFF8E78B
:10614000A81F0020DA1B002038B504460A480121A8
:106150006A46FDF71DF968B90848606002F0C6F8A4
:1061600005491C238C22087404488C39001F0068E0
:1061700000F0EEFC002038BD542400208CB6020054
:106180002DE9F0412D4F002518B17D600120BDE8BB
:10619000F0810879012258B1294E01280CD0274CF2
:1061A0004FF002080834022821D0032842D128E009
:1061B0000A7102F01FFA3BE05FF0000000EB800183
:1061C00016F82110022908D0401C80B20228F5D30D
:1061D0003A707D6041F61D50D9E700EB800006F86B
:1061E000205006EB8000406802F0F6F920E00D71C7
:1061F000A4F80480002301221248216801F0ACF9C0
:1062000016E00D71206802F0E7F90D492368283186
:10621000498801EB810206EB8201D1F804C0C4F881
:1062200000C04B60A3880B81A4F8048006F82250BC
:106230000028ACD07D600E20A9E700006C1C002077
:1062400080230020F41C00202DE9FC5F0E00834613
:10625000DDE90C47C6F1000098469246814600D41D
:106260000846012503E000BF90FBFAF06D1C504585
:10627000FADAA84500D9454624B1002E01DB78079B
:1062800000D5641EB80702D5B8F1000F0AD0F80790
:1062900008D13CB1A54205D220215846641EFEF724
:1062A0001BFDF6E7002E02DA4E462D2102E07807AC
:1062B00003D52B215846FEF70FFD07F003000228F7
:1062C0000BD1B8F1000F08D13CB1A54205D2302165
:1062D0005846641EFEF700FDF6E7CDE90047434649
:1062E00052463146584604F045FEBDE8FC9F00008A
:1062F00070B50E460446007918494FF4A27501EBBB
:106300004010017F2068A1B14FF4887102F084F839
:106310004FF49071206802F07FF84FF4927120687A
:1063200002F07AF82946206802F076F80C492068D5
:1063300009E04FF48E7102F05EF82946206802F001
:106340005AF808492068C0F80413206800F013FECA
:106350003146BDE8704000F0F2BD00008021002011
:1063600010030200800002000248007A002800D0DA
:1063700001207047542400200021425C0AB1012012
:106380007047491C1029F8D300207047800701D0BE
:10639000002070470120704704488078002803D00F
:1063A0000220401C0428FCD370470000B01B0020D2
:1063B00003480179C90702D00078FEF7ADBB7047EA
:1063C000B01B002006490120086006480168C1F39F
:1063D00000410029FAD1044900208870704700006C
:1063E0000C000040180400401421002017210180F7
:1063F00041800021017141711B218171C171704780
:106400002DE9FE4F2A4D984691460F00824601D055
:1064100000260DE0684600F071FB6A4600215046F8
:1064200002F0ADF92878009E10B99DF8090098B1E6
:106430004A463146504604F0D7F904460146002248
:106440005046FFF7E7F8112C1AD008DC74B3082C7B
:106450002CD00D2C09D129E00520BDE8FE8F862C1B
:106460001AD0A4F54050023820D00325B8F1000F0F
:1064700004D0324621465046FEF75BFE2846ECE744
:106480003A4629795046FDF791FF4A46E978504649
:10649000FDF78CFF0025E9E73A4629795046FDF7DC
:1064A00085FF4A46E9785046FDF780FF2546DDE73F
:1064B0000C1C00207CB50D4606466A46072128467E
:1064C00002F0EEF9040005D0052C0FD0112C1DD0E0
:1064D00003241BE0019C94F84400183410F00100E0
:1064E00001D0019C34340CB110B106E011240DE050
:1064F00004F11200FFF76DFD38B1224604F11201DC
:10650000304685DF04000FD000E00B24002100227C
:10651000304603F0CDFE4CB1002200232946304620
:1065200003F0AAFE20467CBD0121F0E70122F4E73A
:106530002DE9FC4716000D4681464FF002084FF04A
:10654000000710D03078C00720D04FF6FF744FF00E
:106550000108A54203D102F099F905460127A54299
:1065600006D1032417E0002148467EDF04461BE0E5
:106570006B4601220721284602F0BCF904000AD12B
:106580000721284602F060FA040004D1314648464B
:106590007EDF04001CD00721284602F02DFA18B136
:1065A000052801D0032404E0042C01D084B100E0CC
:1065B000112400214246484603F07AFE54B10022DD
:1065C0003B462946484603F057FE2046BDE8FC8777
:1065D0000121EFE70122F3E72DE9F041204F0E46BC
:1065E000154604463978FDF7CBFE002835D0204605
:1065F00002F0A0F850B32046FFF722FD8046204667
:10660000B978FDF7BDFE08B1012700E0022720465A
:1066100002F074FB0028404602D0FFF7FDFC0DE0BD
:10662000A8F57F41FF3909D0072102F0E5F9010003
:1066300004D0052902D0204603F094FE2B463246B2
:1066400039462046BDE8F041FEF724BC2A463146D3
:106650002046BDE8F041FEF7CFBCBDE8F081000068
:10666000041C00202DE9F04391B08146FDF77AFE2D
:10667000002820D06846FDF72FFE00246E4617E064
:1066800006EB44054946A888FDF77AFE78B10B4F22
:10669000A888F978FDF774FE8046A8883979FDF757
:1066A0006FFE0146A88801234246FFF7A9FE641C3D
:1066B0000098A042E4D811B0BDE8F0830C1C002083
:1066C0002DE9F047394E002780463D46DFF8E0903F
:1066D000D6F804A057E003D00446D0F81C8035E07B
:1066E00099F8002002EB4201521CD2B289F8002036
:1066F00009EBC10199F80230091D9A4201D189F8CC
:10670000005048680A780446012A12D0022A02D0B2
:10671000032A3BD108E004F03BFA00B101272574BD
:1067200034E00574C06900E070680028F9D1706039
:106730002CE0207C50BB88686060C868A060086955
:10674000E0604869A061F07800B165606268B16896
:10675000184B501A20F07F40984202D2A16808449A
:1067600006E0881AA16820F07F40814202D9081A09
:10677000206000E0256065600120A560207420464F
:10678000E56104F0E7F9B8F10000A4D199F8001030
:1067900099F801008142A3D117B97168514502D01F
:1067A0000120BDE8F0870020FBE70000381C002036
:1067B000C0210020FFFF7F0030B585B005460024D2
:1067C00014216846FCF771FFA5F57F40ADF8025033
:1067D000FF3815D02846FFF7B3F998B10B2815D02C
:1067E000112811D0A0F54051023903D001462846A6
:1067F00003F0A4FD09482246C1782846FDF7D6FDDE
:1068000005B030BD0E2002E00124F3E70F208DF823
:1068100000006846FEF7C8FCECE70000C81B00203B
:106820000A4602498978FDF7C1BD0000C81B002057
:10683000F8B5054600780C46002620420FD100200E
:106840008DF800006846FDF73FFC2878204202D111
:106850002043287001269DF80000FDF759FC3046C2
:10686000F8BD000070B588B0214800F0B0F92048AC
:10687000001F064600F0ABF91E4DD5E9014105E0C9
:10688000C0F3891202EB9050641C044404EA010036
:1068900005EB8000C0688207F2D000200DF10802ED
:1068A00004EA010305EB8303641CDB6842F8203033
:1068B000401C0228F4D3029800F00300012808D0FD
:1068C00002280AD10298032101EB905004EB9004B6
:1068D00003E00298C0F3831004443046002101AA6B
:1068E000FCF74DFE002800D06C6008B070BD0000C1
:1068F0009C2900208425002000F084F804F0B8FBD7
:106900000B480321008801EB00400AA101F072F955
:1069100001F078F80028FBD10E4803F0C3FA00BF5D
:1069200001F070F80028FBD101F018FBF8E7000037
:10693000501D0020474154542053657276696365A9
:106940002073657276657220737461727465642E4B
:1069500000000000A31B00202DE9F047C788044673
:10696000181D16468946B0FBF7F1B0FBF7F207FB9E
:1069700012009A193A44D21CB2FBF7F2DDF820A0BB
:1069800001E02468491E0029FBD13D1A8846B54222
:1069900016D818E0BAF1000F05D0211809EB08004D
:1069A0002A46091D04E0204409EB08012A46001D7F
:1069B000FCF762FE00202468761BA844B74201D988
:1069C000354600E03D46002EE4D1BDE8F0870000EA
:1069D00030B5024669B101F0B7F90021084C0BE06F
:1069E00001EB410304EB830315685B88AB4202D1E2
:1069F0001160002030BD491C8142F1D3052030BD1B
:106A0000081D002038B5002001F070F908B1FDF72D
:106A1000BFFA00F0E9FFFDF7D9FA08B1FDF7B8FABF
:106A200001F088FA08B1FDF7B3FA1B4C1B490320AB
:106A3000FEF730F808B1FDF7ABFA69460020FDF724
:106A40003FFF08B1FDF7A4FA9DF80000022820D00E
:106A50000020207001F002FC08B1FDF799FA002037
:106A600000906946012001F0C5FA08B1FDF790FADF
:106A7000684601F041FB08B1FDF78AFA0021084899
:106A800000F00CF908B1FDF783FABDE8384002F0D8
:106A900031BA0120DDE70000A31B0020AD49020050
:106AA000801D002070B505460C004FF0FF0020D07F
:106AB0004FF6FF76B5421CD00E4801224178284699
:106AC000FDF774FC2846FEF7B5FFFF2803D1FEF75B
:106AD000CDFFFF280DD0084B00EB400203EB8201F5
:106AE0004D8023F8226022684A60A2880A81A27938
:106AF0008A7270BDDA1B0020B81E0020034A0021F4
:106B00009268C0E900218160704700000C1C0020E1
:106B100070B54FF6FF750E46A84201D1002000E087
:106B2000401C84B208E02146304602F008FD08B15E
:106B3000204670BD641CA4B2FF2CF4D9284670BD59
:106B400010B5FCF700FC08B1002010BD112010BDED
:106B500010B531B1B2FBF3F403FB14241CB10920CE
:106B600010BD0E2010BD0160002141608160828156
:106B7000C381084610BD70B50C460546FCF798FB6E
:106B8000002802D021882868084470BD10B50A8802
:106B900049888A4203D1FCF7CDFB012010BD0020BB
:106BA00010BD70B50C460546FCF7A7FB002802D0C7
:106BB00061882868084470BD10B50A8849888A42EF
:106BC00003D1FCF791FB012010BD002010BD08B5DA
:106BD00001216A46FCF7C6FC009808BD08B56A4664
:106BE000FCF74BFB009808BD38B5044600258DF82E
:106BF00000506846FDF768FA2168626808689042AC
:106C00000ED9401E08600178238AE26801FB032543
:106C1000227A2168101AC0B20A79824200D2087121
:106C20009DF80000FDF774FA284638BD38B50546D2
:106C300000208DF800000C466846FDF745FAE8682C
:106C4000298A201AB0FBF1F12A681068431C1360EE
:106C500001709DF80000FDF75BFA38BD10B530B14A
:106C6000017A42680368891AC9B21A6006E00E20E8
:106C700010BD03681A68541C1C601170491EC9B20B
:106C8000F7D2006800210171084610BDC20800F06B
:106C900007030120895C98400840704710B560B137
:106CA0000161172120F8021B20F8021B1B2100F8AC
:106CB000021BFFF79BFB002010BD0E2010BD000043
:106CC0002DE9F043858895B00C46002D3DD1018813
:106CD000DFF824810026DFF82491012724293CD005
:106CE00006DC102909D011290CD023296DD150E0E0
:106CF0003A290BD0552968D12AE00146204601F0F7
:106D000091FB62E0A01DFFF771FB5EE02246408927
:106D100034F8061F814200D808466080172800D248
:106D200017206080106970B1607960B1D8E90010F7
:106D3000CDE90310ADF80E506088ADF8100013696E
:106D400003A9104698476671267115B0BDE8F08317
:106D50000146204601F0B4FB37E0011D342206A8AD
:106D6000FCF78AFCBDF81800BDF81C2004EBC0013C
:106D70004A7322694AB3D8E90432CDE90432ADF846
:106D80001200487B8DF814002269204604A9904720
:106D90001BE00496059630F8041F04EBC10201794C
:106DA000127B8A4200D21146ADF81010ADF81210D5
:106DB0000088002204A990DF020006D0B9F8000084
:106DC0000F4907EB004000F019FFA07A0028BCD063
:106DD000E18828469EDF02000BD0112AB5D0B9F811
:106DE000000015B007EB0040BDE8F043054900F096
:106DF00005BFA672E772A8E798B50200081D00203B
:106E000028BA0200A0B9020000F180400068002802
:106E100000D00120704708B500F1804000210160DA
:106E20000068009008BD000000283ED01F49204A9D
:106E3000096800BF00BF00BF00BF00BF00BF00BFA8
:106E400000BF91422FD000BF00BF00BF00BF00BFF6
:106E500000BF00BF00BF00BF00BF00BF00BF00BF3A
:106E600000BF00BF00BF00BF00BF00BF00BF00BF2A
:106E700000BF00BF00BF00BF00BF00BF00BF00BF1A
:106E800000BF00BF00BF00BF00BF00BF00BF00BF0A
:106E900000BF00BF00BF00BF00BF00BF00BF00BFFA
:106EA00000BF00BF00BF0138C3D17047F01C0020F5
:106EB0000024F40070B50F4C0025207808B185251A
:106EC00016E00021A16061602161E1604FF0E020E7
:106ED000D0F80001012610F0010F03D10721002096
:106EE00000F02DF801F002FA08B903480660267098
:106EF000284670BD142100201805004008B5002068
:106F00008DF800006846FDF7DFF80648C168491EA5
:106F1000C160C06808B9FFF755FA9DF80000FDF799
:106F2000F7F808BD1421002000F01F020121914054
:106F30004009800000F1E020C0F880117047490747
:106F4000090E002806DA00F00F0202F1E02282F8B2
:106F5000141D03E000F1E02282F8001400F01F028B
:106F6000012191404009800000F1E020C0F880122A
:106F7000C0F800117047000B40B270472DE9F04196
:106F80008846054602F0C0F8234E002828461AD04D
:106F9000FDF7F2FE304490F848008009032802D043
:106FA00001280ED007E04FF0A040D0F81005E840CF
:106FB00010F0010F05D003212846BDE8F04100F094
:106FC00015BC0221F8E702F0ABF8002822D02846D1
:106FD000FDF7D2FE04464FF4807000EB84000F4FA3
:106FE00081B207EB8400D0F8102542F00102C0F80E
:106FF0001025084600F020FCB8F1000F0AD0284602
:10700000FDF7BAFE56F82000002803D00120A0406A
:10701000C7F80403BDE8F08128210020006000408B
:107020002DE9FC41DFF8A480044608EB04000027AA
:1070300090F930001346C0170E46401C01D00827B7
:1070400041E0F27819462046FDF772FE0546401CE5
:1070500038D0B07850B14FF0A04000EB8400D0F8A9
:10706000001721F00201C0F8001707E00021737833
:10707000204600910A46019100F067FBF078C0B10C
:107080001348317800EB8500D0F81025114B1A40D9
:10709000C0F810254FF4F8524FF4403302EA0422AE
:1070A00003EA01410A43D0F810150A43C0F810253D
:1070B00009E008EB0500327810F8481F41EA821118
:1070C000017000E004273846BDE8FC81282100203B
:1070D00000600040FFE0FCFF4FF0A041D1F8101528
:1070E000C14011F0010000D00120704770B5144D6F
:1070F00095F8540008B1082070BD0020411E2A18E0
:10710000401CC0B282F830102028F8D3002420465A
:10711000FDF700FE641CE4B20C2CF8D30721062016
:10712000FFF70DFF4FF4BE7000F086FB05494FF0EE
:107130000040C1F80403012085F85400002070BD10
:107140002821002000600040034890F854000028E7
:1071500000D0012070470000282100200121B1EB60
:10716000507F01D101207047002070472DE9F04188
:1071700005460079164F904607EB40140E46E07E18
:1071800010B10820BDE8F081707F20772846FCF719
:10719000D9FF5FEA080060603169216003D0317F68
:1071A0002846FFF7A5F8287907EB4010007F002854
:1071B000286801D0082100E00421C0F80015002053
:1071C000E0752076A0750121E176A076DAE700006F
:1071D000802100202DE9F047054600793F4E90467A
:1071E00006EB40140F46207F18B10846FFF7B6FFA4
:1071F00030B1284600F074F820B11120BDE8F087C6
:107200001020FBE784F81680A7600027A782287962
:107210004FF0010806EB40143E46207F0028286806
:1072200025D04FF49079494601F0F6F84FF4AC7A46
:107230005146286801F0F0F82868A17DA268C0F8DE
:107240004425C0F848152868C0F808806068F0B97F
:107250004946286801F0DBF880465146286801F06D
:10726000D6F858EA0001F3D058BBA7750FE04FF4E9
:107270008E7A514601F0BFF82868C0F80880214690
:10728000286803F013FD61684FF4807089B13046BF
:10729000B4E75146286801F0A9F810B9A08A48451A
:1072A000F7D1A08A484505D02146286803F0FEFCA6
:1072B00000E08146A08AA17D8842EAD3A08A4845A1
:1072C00001D10F26D1E75146286801F08FF8002838
:1072D000F9D02868C0F80C80C7E7000080210020A2
:1072E0000079044901EB4010807D002800D0012086
:1072F000704700008021002070B5044600791149D4
:10730000002601EB401520682A7FC0F800656868F8
:1073100088B1207901EB4010007F0028206801D05F
:10732000094901E008498C39C0F808132068FFF7C3
:1073300022FEFFF7F9FD204601F0FEFEEE766E60BC
:1073400070BD000080210020100302000FB408B5BA
:107350000399002904D004AA00926A4600F00FF8AD
:1073600001B05DF814FB10B582680446002A05D010
:10737000D4E90403216898470020A06010BD2DE9DE
:10738000FC4791460C00804676D014F8011B39B1B9
:1073900025290ED04046FDF79FFC20780028F4D127
:1073A00098F80C00002867D04046BDE8FC47FFF77E
:1073B000DABF0020012221782B291BD02D2902D0F1
:1073C000302908D102E040F0010001E040F0020065
:1073D000641C002AEFD100252A290ED02178A1F1C2
:1073E00030020A2A11D205EB850201EB4205641C2A
:1073F000303DF1E740F00400EAE7D9F800100B1D3A
:10740000C9F800300968641C0D44217800232E2936
:107410000BD114F8011FA1F130020A2A05D203EBA7
:10742000830201EB4203303BF3E76C290DD068295E
:107430000BD0692921D00BDC252918D0582931D04F
:1074400063290ED0642915D117E014F8011FECE769
:10745000702969D0732932D075291BD0782909D1B8
:1074600020E0D9F80000011DC9F80010017840465D
:10747000FDF732FC641C90E76CE0D9F800100A1D9F
:10748000C9F800200968CDE900500A224046FEF7FD
:10749000DBFEEFE7D9F800100A1DC9F800200968E3
:1074A0000A2206E0D9F800100A1DC9F80020096870
:1074B0001022CDE90050404603F05CFDDAE7D9F830
:1074C000001000270A1DC9F800200E68C00705D16A
:1074D00012E04046761C7F1CFDF7FEFB3178002948
:1074E000F7D104E0202140466D1EFDF7F5FBBD42BB
:1074F000C0D9002DF6D1BDE74EB13046FCF7E0F81B
:10750000074604E0202140466D1EFDF7E5FBBD4225
:1075100006D9002DF6D103E04046761CFDF7DCFBD2
:1075200031780029F8D1A5E7D9F80000011DC9F884
:107530000010056830214046FDF7CEFB782140461B
:10754000FDF7CAFB08200021CDE900010346102207
:107550002946B0E7BDE8FC872DE9F0411F461546F6
:1075600004000E4616D02068B8B1C5B16068026844
:10757000501E304215D16A432046FCF713FC80B1FF
:1075800020683B462A46D0F810C031462046BDE868
:10759000F04160470E20BDE8F0810820FBE709209C
:1075A000F9E71020F7E720B119B101600B68114627
:1075B00018470E20704700002DE9F04128B10168FE
:1075C00019B1C969BDE8F04108470D4D0D480024C7
:1075D000461B14270DE000BF04EB840005EB800080
:1075E000016829B1C969884710B10120BDE8F0815F
:1075F000641CB6FBF7F0A042EED80020F6E70000CE
:10760000F41C0020081D0020044801214174007A68
:1076100008B100207047012070470000542400206A
:10762000012801D0032808D10449002201284A7406
:1076300000D00020087402F0EBB9704754240020F9
:1076400070B5254C0246207A012837D0022841D156
:1076500022480023022A006802D0032A2ED11BE010
:10766000E360017911B1012928D10DE0D0E9056568
:10767000711B4FF48056B14200D3314629448161D9
:107680004569A9420ED019E00169491C01614269AE
:10769000914213D1237217E0E168491CE160082987
:1076A0000CD9E3602372022A0ED00D21FDF71AFDDA
:1076B0000B480A49091D0068FFF768FA607C28B189
:1076C000BDE8704000F018BE0021EFE7BDE8704053
:1076D00002F09EB970BD0000542400207C1C0020E4
:1076E00088B602002DE9F8431D46089F16468846D5
:1076F00004000DD066B1206860B135B160684068A3
:10770000B5FBF0F100FB115030B10920BDE8F88362
:107710000E20FBE70820F9E74046FCF73DFB90B15F
:107720003046FCF739FB70B12A4641462046FCF74B
:1077300039FB40B1009720682B463246C768414666
:107740002046B847E2E71020E0E770B541EA420181
:10775000DDE904564FF0A04441EA830141EA0521E6
:1077600004EB800041EA0641C0F8001770BD70B517
:1077700041EA4201DDE904564FF0A04441EA8301A9
:1077800041EA052104EB800041EA0641C0F80017F8
:1077900070BD1CB5002100910B4601220191FFF73D
:1077A000E6FF1CBD1CB500220B460092114601925B
:1077B000FFF7DDFF1CBD1CB5002100910B46012227
:1077C00001911146FFF7D3FF1CBD4FF0A04202EB21
:1077D0008000D0F8002722F44032C0F80027D0F80B
:1077E000002742EA0141C0F8001770474FF0A0425D
:1077F00002EB8000D0F8002722F44032C0F80027C6
:10780000D0F8002742EA0141C0F800177047000095
:1078100018B5084B6C4601441B68009306E000BF96
:1078200054F82030D3F81035401C08C28142F7D8F4
:1078300018BD000054B60200034908B508440021F1
:1078400001600068009008BD006000400249405897
:10785000012800D0002070470060004030B5124B76
:1078600001460020D3F81044224609E0157A8542EB
:1078700005D1401C0A28F7DB4FF0FF3030BD5268BD
:10788000002AF3D1421CF9D00872D3F810242AB18F
:1078900052684A60D3F81024516030BD0022C3F80A
:1078A00010144A6030BD000084250020F0B595B06A
:1078B0001C4615460F4608461A9E00F015FB182177
:1078C00009A8FBF7F2FE0E96CDE909540023082221
:1078D00003A9384600F022FB059806900498ADF8FD
:1078E0001C0000208DF820000398082600F00300FB
:1078F000012802D002281DD03CE003983346850AB7
:10790000C0F3C2008DF81E0003980FA9C0F38000D9
:107910008DF81F000398C0F38314A200384600F0CE
:10792000FDFA09A8009006AB22460FA9284600F0F0
:1079300037FA1FE00398840DC0F3C2008DF81E00D3
:107940000398C0F380008DF81F00082C01D2254653
:1079500000E0082533462A460FA9384600F0DEFA33
:107960002E44641B09AB06AA29460FA800F068F94B
:10797000002CEAD1384600F0C0FA15B0F0BD7047CF
:10798000012003F0B7B9000010B50448FFF7B4FCBC
:10799000BDE81040002003F0ADB90000901C0020AD
:1079A00008B5034A00924023024AFFF77FFF08BD53
:1079B0008DA30200842400200A4A012902EBC000A2
:1079C00007D0022907D0032907D0042907D00020B7
:1079D0007047022070470420704700797047407953
:1079E0007047000044C0020010B5FFF7C9FF042132
:1079F0000348FFF733FF02490120487210BD000021
:107A0000981C00202DE9F04F8DB0FDF775F918B1E5
:107A100000200DB0BDE8F08F74480021C0F81814A4
:107A2000BFF34F8FD0E9014604EA060100EB810164
:107A30004FF000090AE000BFC1F3891202EB915137
:107A4000641C0C4404EA060100EB8101C9688A0742
:107A5000F2D0002103AA804604EA060008EB800069
:107A6000641CC06842F82100491C43460229F3D334
:107A7000039800F00300022806D0012803984FD095
:107A8000C04380077ED0ACE003985022810D8A4627
:107A9000B2EB905F00D850210D4665F39F500390E4
:107AA0000831534800F0D7F907006CD000F01CFAF9
:107AB0004B46082203A9384600F036FA04EA0601CC
:107AC000701A8000001D09F1080B854221D9474E2C
:107AD0000C3630B1C2B208EB8101281A91460C3144
:107AE00004E03146EAB2002691463046C5B25B4614
:107AF000384600F019FA0BEB09032EB12A4631463D
:107B00004FEA070000F010FA0AF1030004EB9004BA
:107B10003BE008EB81015B462A4638460C31F1E731
:107B2000C0F38310062800D30620039960F389115F
:107B3000C1F38310801C039181002D4800F08BF964
:107B400007004ED000F0D0F94B46082203A9384672
:107B500000F0EAF909F1080900250DE004EA060041
:107B600008EB80014B46042238460C31641C00F0BF
:107B7000DBF909F104096D1C0398C0F38310A842D6
:107B8000ECD801E00BE02CE05FB3D8F81054D8F843
:107B90001804464690B1384600F0AFF921E0D3F81A
:107BA000180400283FF435AF1BE0687A012804D19F
:107BB000296828460A68394690476D68002DF4D137
:107BC000384600F09AF900208DF800006846FCF76E
:107BD0007BFAD6F8180400B974609DF80000FCF731
:107BE00097FAFDF789F880F0010012E7842500205C
:107BF0000CB8020000231A4602F024BF08B5012386
:107C000000926A4602F01EFF08BD1CB5CDE90023B4
:107C100002236A4602F016FF1CBD3EB5069C8DE8A5
:107C20001C0003236A4602F00DFF3EBD7FB5DDE96F
:107C300008458DE83C0004236A4602F003FF7FBD3F
:107C40002DE9F0470E4680461C46924608293ED84C
:107C500094F80C90002020731946104601F040FE65
:107C60000025B54206D218F805201AA12046FFF7D4
:107C70006DFB03E019A12046FFF768FB6D1C082D82
:107C8000EFD317A12046FFF761FB0025B54210D2C4
:107C900018F80570FBF7ECFC0068C05D10F03E0FB3
:107CA00001D03A4600E02E220EA12046FFF74EFBFF
:107CB00003E00DA12046FFF749FB6D1C082DE5D31D
:107CC00001222146504601F0EDFD84F80C90BDE8FC
:107CD000F0870000202530327800000020202000AE
:107CE0007C0000002563000020000000114810B552
:107CF000FF218160002101604160C0F81814C0F8C4
:107D0000141480F81C140C4800F0F5F800280FD16A
:107D10000A480B490B4B401AC108002005E000BF80
:107D200000EB400223F82200401C8842F8D30020D8
:107D300010BD0000842500200CB8020094C0020091
:107D400044C00200081D002002480349401AC00830
:107D50007047000094C0020044C0020013B568469A
:107D6000FEF736FE08B100201CBD0248009950F80D
:107D700031001CBD44C0020070B508480125D0F890
:107D8000104480F81C5405E065722168204649685B
:107D900088476468002CF7D170BD0000842500205E
:107DA0002DE9FF4781460C9D00200C462F7B287350
:107DB000984616462946184601F092FD072E42D2F3
:107DC000DFE806F004090F161F2A36004946284648
:107DD000FFF7BCFA37E0494628462268FFF7B6FAB3
:107DE00031E0D4E9002349462846FFF7AFFA2AE0FC
:107DF000A0680090D4E9002349462846FFF7A6FA78
:107E000021E0D4E90201CDE90001D4E9002349468B
:107E10002846FFF79BFA16E004F1080007C88DE832
:107E20000700D4E9002349462846FFF78FFA0AE005
:107E300004F108000FC88DE80F00D4E9002349467B
:107E40002846FFF783FA00222946404601F02AFD22
:107E50002F73BDE8FF872DE9F041058A80462D1F6D
:107E60004819C01CB0FBF5F0C6B24046FEF7BCFE98
:107E7000040019D00020207101206071E5800027E6
:107E80002546761EC4F800800BE04046FEF7ACFEA7
:107E900060B16179491C6171286005467F1CC0F89A
:107EA0000080B742F1D32046BDE8F081204600F0C3
:107EB00002F80020F8E72DE9F041457901466B1EF4
:107EC000002201E00968521C9A42FBD30F68014668
:107ED000002605E038460C68FEF7A8FE2146761C11
:107EE000AE42F7D3BDE8F08108B501216A46001D16
:107EF000FBF7C3FA08BDFEF7B1BE38B50446001D56
:107F000001216A46FBF7C6FA009810F0FF0F04D172
:107F10002046BDE83840FFF7CEBF38BD38B5012454
:107F20000094FEF719FD38BD38B500240094FEF723
:107F300013FD38BD064910B500204870091D0860C2
:107F4000BFF35F8F0349044800F002FA002010BD20
:107F5000841C0020D0B602007824002008B5002040
:107F60008DF800006846FCF7AFF8F1EE100A20F03B
:107F70009F00E1EE100ABFF35F8F08494020C1F86F
:107F800080029DF80000FCF7C3F800F0AFF908B1DB
:107F90003EDF08BD20BF40BF20BF08BD04E000E0B9
:107FA000F8B504460D4801216A46FBF781FABFF394
:107FB0005F8F002500280AD10121084E042C09D02A
:107FC000301F427822B100BFBFF35F8F3560F8BD2C
:107FD0000470417002F066FAF6E70000881C002089
:107FE00020B1034909680160002070470E207047E6
:107FF00098B80200FEB502460E460846FFF7F0FFAD
:1080000000286CD1002500950195012403208DF8EE
:108010000020ADF8040002958DF80240694620204A
:10802000326869DF2E4F48B100F0D6F93988024630
:1080300004EB01432B491846FFF7E0FD00958DF84E
:1080400000508DF80140019502958DF80240694677
:108050004020326869DF40B100F0BEF9024638883E
:10806000214904EB0040FFF7C9FD009501950295F9
:108070008DF8005069460120326869DF48B100F090
:10808000ABF93988024604EB014318491846FFF75B
:10809000B5FDF8200090019502956946A12032684F
:1080A00069DF40B100F098F902463888104904EBC6
:1080B0000040FFF7A3FD0095019502958DF8004063
:1080C0006946A020326869DF40B100F085F90246B8
:1080D0003888084904EB0040FFF790FD0020FEBD02
:1080E000681D002034BF02007CBF020094BE020065
:1080F000E0BE020040BE02002DE9F0410446D0F887
:1081000000E060DF2368144D0646734515D02888CB
:10811000022707EB0040724610A1FFF776FDF80634
:10812000D0F80C012168800200F10050421A288822
:1081300016A107EB0040FFF761FD56B1304600F095
:108140004BF902462888012101EB004018A1FFF7F6
:1081500055FD3046BDE8F081681D002052414D209C
:1081600073746172747320617420307825782C20C8
:1081700063616E2062652061646A75737465642052
:10818000746F20307825782E0000000052414D2079
:1081900073697A652063616E2062652061646A7527
:1081A0007374656420746F20307825782E00000089
:1081B00073645F626C655F656E61626C652829201F
:1081C00072657475726E65642025732E0000000060
:1081D00030B593B05FF03805ADF8445011A903A84D
:1081E00061DF30B1052816D013B0BDE83040FBF791
:1081F000CFBE03AC0949684600F0AAF807E000BF0B
:10820000D0E9002120469047684600F0B8F802986F
:108210000028E1D0F4E713B030BD00009CB80200A4
:1082200010B50D4C2078A0B10120A07001F0AAFE7D
:1082300011280CD0022001F0BDFE11DF002807D16B
:108240002070A07002F0BAFB032001F0B3FE002002
:1082500010BD082010BD0000EC1C002038B5174CE4
:10826000207808B1082038BD0125A570002001F054
:1082700089FE112820D0002001F09CFE10481149F1
:1082800000680090684610DF0028ECD12570A070CF
:1082900060700721162001F029FE08B1FBF778FE77
:1082A0000721152001F022FE08B1FBF771FE02F054
:1082B000A1FB012001F07EFE002038BDEC1C002057
:1082C00030B80200193F02000EB50749684600F0B9
:1082D0003FF805E0D0E900108847684600F04FF805
:1082E00002980028F6D10EBD4CB802000148007873
:1082F00070470000EC1C00200548817819B1007817
:1083000018B1FFF78DBF08207047FFF7A7BF000027
:10831000EC1C00201FB5684648DF30B1052814D09A
:1083200004B0BDE81040FBF733BE084901A800F0D7
:108330000FF806E0D0E900210098904701A800F06E
:108340001EF803980028E6D0F4E71FBDB8B8020075
:10835000016009684160AFF3008010B5D0E90021E9
:108360005368994201D1002104E0D1E90034A342CD
:1083700002D01946816010BD08314160F0E7816884
:1083800000290BD0026892680A44826041684B68F9
:108390009A4203D108314160FFF7DFBF7047000008
:1083A0000C4A10B502F1F0030EE0991AC91001EB66
:1083B000D171491002EBC1010C68844201D90B460E
:1083C00002E005D201F108029A42EED3002010BD6E
:1083D000486810BDF0B6020000B5FFF7E1FF0028C5
:1083E00000D1014800BD0000DCB602004058002862
:1083F00000D00120704708B500224250405800903C
:1084000008BDD0F80403084000D001207047405850
:10841000002800D00120704708B500224250405883
:10842000009008BD2DE9FC418E88027900EBC6055D
:10843000AC1D2A73C97B012902D0022904D101E0B5
:10844000008800E040882080218860880127DFF8CC
:10845000648081420CD930469EDF020025D0112A6B
:1084600025D0B8F80000144907EB0040FFF7C6FB21
:10847000A079E179884216D9002000900190287BEC
:10848000ADF80000287BADF80200002269463046B6
:1084900090DF030007D0B8F80000324607EB004039
:1084A0000649FFF7B2FBBDE8FC816771E0E7277181
:1084B000DEE70000081D0020A0B9020070BA02002B
:1084C0007CB506468D88C88806EBC504A41D172810
:1084D00000D217202188814200D808466080002001
:1084E000207121882846ADDF020007D00E48012107
:1084F000008801EB00400D49FFF780FB6079002800
:1085000010D1306900280DD00948D0E90210CDE91A
:108510000010ADF802506088ADF804003269694679
:10852000304690477CBD0000081D0020E4B90200E1
:1085300098B5020048B1064A0168914205D14068E9
:108540000449401802D0012800D0032070470000E1
:10855000DEC0ADDE02FEE10E0389CA1C1A440281B0
:108560004289511AC91E4181704700002DE9F0412E
:108570000D460221904600F58056298000F108043E
:10858000144F1BE031462046FDF788FB40B1B8F19F
:10859000000F02D0012288F80020022816D004E043
:1085A000A0687969884200D9786128886188084480
:1085B000C01C2880608804EB80040C3431462046BF
:1085C000FDF77FFB0028DDD1BDE8F0814FF480602E
:1085D0002880F9E74C1C002008B5002100910146D5
:1085E0000823024A0248FFF77DF808BD70B6020072
:1085F000F41C002008B50020009004480823044A19
:1086000001680448FFF76EF808BD0000741C0020E4
:1086100068B60200F41C00202DE9F05F0025DFF8A9
:108620000891DFF808B12C464FF00308AA462F4600
:10863000D9F80C0000EB07363046FFF77BFF78B324
:10864000012847D0032862D100204FF4806200BF88
:1086500056F82010491C0ED004EB84010BEB81026C
:10866000A8F10100566003221FFA80F80BF82120C0
:10867000641CA4B24BE0401C9042E9D32C48016832
:1086800079B104EB840102200BF821000BEB81018E
:108690004E600881254828304480641CA4B205E05F
:1086A00007E00221066081804FF0010A45F00105D4
:1086B0002DE004EB840100220BF821200BEB81015B
:1086C00001F110024E6030460831FFF74FFF45F0D0
:1086D0000205CDE7BAF1000F0CD0022004EB8401B3
:1086E000134A0BF821000BEB810112684A60641CED
:1086F0000881A4B20E480022011D06603046FFF733
:1087000035FF0B48808802280CD0082005437F1CC9
:10871000BFB2032F8CD3B8F1020F00D20025E8B20C
:10872000BDE8F09F0420F1E7F41C00208023002026
:10873000741C002001494978FBF722BE041C00206C
:10874000F0B591B00746FBF70DFE002815D068463E
:10875000FBF7C2FD00246D460CE000BF05EB4406AC
:108760003946B088FBF70CFE18B1B088002102F042
:10877000EFF8641C0098A042F0D811B0F0BD30B5FD
:1087800085B00C4605218DF800101546ADF80200A5
:10879000FDF756FCADF804006846CDE90245FCF74C
:1087A00035FD05B030BD000070B5054D064600240E
:1087B000304655F824108847641C042CF8D370BD4B
:1087C000C8B502003EB50F4D002400BF05EB0410F4
:1087D00002F032FD641C022CF8D301245020022147
:1087E0000094CDE901100749074BB039A02201F1EF
:1087F000A00000F00BFD08B103203EBD024844700C
:1088000000203EBD68200020EC1B002000F08EB947
:1088100000F08EB970B504460025C168194A284693
:1088200002EB00139B688B4202D102EB001003E0C5
:10883000401C0228F4DB00202178082904D00929F3
:1088400008D0132915D113E0617A91B988B102F0EB
:1088500003FD0EE0617A61B958B10B494A68521CB8
:108860004A6000218160817B41F00201817303E055
:1088700001252046FFF798FF2846BDE8704001F02B
:1088800053B9000068200020EC1B002000F005BA5E
:1088900008B513889B0000936B4600F07FF908BD74
:1088A000002300F07BB938B505460024204609E0D6
:1088B0008178284600F0A0F810B1052800D00324E4
:1088C0000098401C00906946284602F0A1FC002850
:1088D000EED134B9284600F0E4F910B1072802D0EF
:1088E0000324204638BD0724FBE71346002200F08E
:1088F00089B900002DE9F0475FEA030815460E46E6
:10890000824604D0072E05D0082E17D102E00E2093
:10891000BDE8F08795B1022D10D8504600F0CCF993
:1089200060B14FF000093146504602F057FC040098
:1089300015D0207BA8421DD24F460AE04FF0070019
:10894000E6E7607B3844C1B22A4800F093FC7F1C04
:10895000FFB2207BB842F4D8204602F06DFC5746A7
:10896000FF214FF6FF7002F039FC040014D007809D
:10897000A6700DE00CD9EFB207E0607B3844C1B2BD
:108980001C4800F077FC7F1CFFB2207BB842F4D873
:10899000607BFF2802D00AE01120B9E7294615487C
:1089A00000F006FC6073FF2813D04FF00109257317
:1089B000617B104800F04AFC02000ED0ABB2314699
:1089C000404600F00FFAB9F1000F11D0082E06D082
:1089D0000EE0204602F030FCDEE7032098E7B8F80E
:1089E00000006FF0050101EB8000D8F804108880CA
:1089F00000208DE75820002070B5002402F0EEFB27
:108A000005000BD0686820B100F06FF9040000D0B9
:108A10000324284602F020FC204670BD052070BDCE
:108A200070B515460C46072903D0082C01D0072045
:108A300070BD02F0D3FB28B105808470BDE87040A2
:108A400002F07EBB052070BD7CB50D46072903D022
:108A5000082D01D007207CBD002602F0BFFB0400DA
:108A600002D0606810B11CE005207CBD617B0F481E
:108A700000F0ECFB02004FF00000009001908DF838
:108A8000025010D0237B2946684600F03DF9684625
:108A900002F044FB211D684600F010F90646092843
:108AA00001D030467CBD03207CBD00005820002052
:108AB0004FF6FF714180014909680847B0B50200CF
:108AC00030B587B01748FCF735FD10B1032007B06B
:108AD00030BDFCF74FFC08B18620F8E700F0D4F970
