:020000040000FA
:10000000403800204D030000550300005703000056
:10001000590300005B0300005D03000000000000C6
:100020000000000000000000000000005F0300006E
:10003000610300000000000063030000650300008E
:100040006703000067030000AD0B0000A10800007B
:1000500067030000670300006703000067030000F8
:1000600067030000670300006703000067030000E8
:1000700067030000670300006703000067030000D8
:1000800067030000670300006703000067030000C8
:1000900067030000670300006703000067030000B8
:1000A00067030000670300006703000067030000A8
:1000B000670300006703000000000000000000006C
:1000C0006703000067030000670300006703000088
:1000D00067030000670300006703000000000000E2
:1000E0000000000000000000000000000000000010
:1000F0000000000000000000000000000000000000
:1001000000000000000000000000000000000000EF
:1001100000000000000000000000000000000000DF
:1001200000000000000000000000000000000000CF
:1001300000000000000000000000000000000000BF
:1001400000000000000000000000000000000000AF
:10015000000000000000000000000000000000009F
:10016000000000000000000000000000000000008F
:10017000000000000000000000000000000000007F
:10018000000000000000000000000000000000006F
:10019000000000000000000000000000000000005F
:1001A000000000000000000000000000000000004F
:1001B000000000000000000000000000000000003F
:1001C000000000000000000000000000000000002F
:1001D000000000000000000000000000000000001F
:1001E000000000000000000000000000000000000F
:1001F00000000000000000000000000000000000FF
:10020000DFF80CD000F0FAFA0048004709110000AE
:100210004038002030B4044654E8000F0D4644E84E
:100220000053002BF8D1156030BC704730B4044641
:1002300054E8000F40EA010544E80053002BF7D1D1
:10024000156030BC704730B4044654E8000F00EA33
:10025000010544E80053002BF7D1156030BC70470E
:1002600030B4044654E8000F80EA010544E8005326
:10027000002BF7D1156030BC704730B4044654E809
:10028000000F00EB010544E80053002BF7D1156087
:1002900030BC704730B4044654E8000FA0EB0105B1
:1002A00044E80053002BF7D1156030BC70470000C4
:1002B00030B4044654E8000F0D4644E80053002BC8
:1002C000F8D1156030BC704730B4044654E8000FD4
:1002D00040EA010544E80053002BF7D1156030BC1B
:1002E000704730B4044654E8000F00EA010544E8C2
:1002F0000053002BF7D1156030BC704730B4044672
:1003000054E8000F80EA010544E80053002BF7D1C0
:10031000156030BC704730B4044654E8000F00EB61
:10032000010544E80053002BF7D1156030BC70473D
:1003300030B4044654E8000FA0EB010544E8005334
:10034000002BF7D1156030BC70470000064880478D
:1003500006480047FEE7FEE7FEE7FEE7FEE7FEE7AA
:10036000FEE7FEE7FEE7FEE7B1080000010200003D
:1003700000487047C027000040EA01039B0703D0F4
:1003800009E008C9121F08C0042AFAD203E011F8D4
:10039000013B00F8013B521EF9D27047D2B201E096
:1003A00000F8012B491EFBD270470022F6E710B57A
:1003B00013460A4604461946FFF7F0FF204610BDD3
:1003C000421C10F8011B0029FBD1801A704703461C
:1003D00011F8012B00F8012B002AF9D118467047BB
:1003E0002DE9FE4F804681EA0300C00F0C460090C5
:1003F00021F0004123F00045B8EB0200A94105D2ED
:100400004046214690461C460B46024623F00040DB
:10041000104347D0270DC7F30A00C3F30A510290D7
:10042000401A019040286BDAC3F3130040F4801B9C
:100430000098924620B10023D2EB030A63EB0B0B2A
:1004400001985946C0F14002504600F022F9064694
:100450000D4650465946019A00F02AF910EB080063
:100460006141002487EA115284EAE7731A4340D0BD
:10047000009A62B3019A012A4FEA075215DC001B69
:1004800061EB02014FF0004202EA0752CDE900425F
:10049000001C41F5801132462B4600F061F903B093
:1004A000BDE8F08F40462146F9E7001B61EB0201F1
:1004B000001C41F5801300185B412018A2F50017BD
:1004C00047EB030140EAD570B6196D4111E06D08A4
:1004D0004FEA360645EAC0754FEA0752001B61EB4A
:1004E0000201001C41F5801149084FEA3000001953
:1004F000514132462B4603B0BDE8F04F00F021B920
:100500000098012240000023D0EB020263EBE0736D
:10051000009821464FEAE074B8EB000061EB04015B
:10052000E9E783F000435BE781F0004158E72DE9FC
:10053000FE4F81EA030404F0004421F000410094DE
:100540004FF0000B23F0004350EA01045ED052EA62
:1005500003045BD0C3F30A54C1F30A552C44A4F23C
:10056000F3340194A0FB0254C1F3130141F4801150
:10057000C3F3130343F4801301FB024400FB034E57
:10058000840A970A44EA815447EA8357A4FB076820
:1005900002958D0A05FB07854FEA932C04FB0C544A
:1005A0002705029D4FEA065847EA1637B5EB0805BE
:1005B0006EEB070C870E920E47EA811742EA831210
:1005C000A7FB0201B6EB0B0164EB00042B0D43EA21
:1005D0000C335E1844EB1C50DA465146E7FB02012F
:1005E000C5F313044FEA0B3343EA14534FEA0432C2
:1005F000019C43EA0603A4F10C040294009CCDE99B
:1006000000B400F0ADF803B0BDE8F08F0020014663
:10061000F9E70EB5C10F80EAE0700844CA0700216F
:1006200040F233438DE80E000A460B4600F098F87E
:1006300003B000BD00F0004230F000400AD0C10D10
:1006400001F56071C0F3160042EA0151C20840078B
:100650001143704700200146704701F0004330B459
:1006600021F0004150EA010206D00A0DA2F56072A5
:10067000C1F31301002A02DC30BC00207047440F94
:1006800044EAC104C100E01830BC00EBC25000F0E5
:1006900021B8202A04DB203A00FA02F1002070473A
:1006A0009140C2F1200320FA03F3194390407047B0
:1006B000202A06DBCB17203A41FA02F043EAE07326
:1006C00006E041FA02F3D040C2F120029140084313
:1006D000194670470029A8BF7047401C490008BF51
:1006E00020F00100704710B4B0FA80FC00FA0CF062
:1006F00050EA010404BF10BC704749B1CCF120049A
:1007000021FA04F411FA0CF118BF01212143084326
:10071000A3EB0C01CB1D4FEA00614FEA102042BF52
:10072000002010BC704700EBC35010440029A4BF48
:1007300010BC7047401C490008BF20F0010010BCED
:10074000704710B5141E73F1000408DA401C41F123
:10075000000192185B411A4301D120F0010010BD45
:100760002DE9F04D92469B4611B1B1FA81F202E0BB
:10077000B0FA80F220329046FFF78BFF04460F4616
:1007800040EA0A0041EA0B0153465A46084313D097
:10079000114653EA010019D0C8F14002504600F05A
:1007A0003FF805460E46504659464246FFF771FF50
:1007B000084305D0012004E020463946BDE8F08D0D
:1007C0000020054346EAE0762C4337430A98630548
:1007D000E40AA0EB08000022FD0A44EA47540A306C
:1007E00002D500200146E9E7010510196941DDE95C
:1007F000084500196941BDE8F04DA2E7064C074DD8
:1008000006E0E06840F0010394E8070098471034E0
:10081000AC42F6D3FFF7F8FC44280000642800003F
:10082000202A04DB203A21FA02F00021704721FA45
:1008300002F3D040C2F120029140084319467047AC
:1008400000F0DAB970B50E46144900EB400001EB38
:10085000C0051446E86A183520B101280FD00228D7
:1008600005D113E0284600F0FBF9A04201D2002494
:1008700011E022463146284600F02AFA0BE02846CD
:1008800000F0EEF9A042F4D20446F2E731462846E1
:1008900000F0F1F90446204670BD0000B4150020B8
:1008A0000149024800F03FBB8C00002000300040AE
:1008B000F0B5AE480023021D01780125101D4FF050
:1008C000805406290BD11678360708D10678C6F36E
:1008D0000316032E06D0042E04D0052E02D00629BE
:1008E00007D00EE0B4F82463A14FC6F304263E609F
:1008F00002E01678360704D10678C6F30316032EF5
:1009000002D0062904D00FE09B4F9A4E7E670EE07E
:100910001678360708D10678C6F30316032E06D0DC
:10092000042E04D0052E02D0062907D00EE0D4F8FC
:100930004462924FC6F342363E6002E016783607B4
:1009400004D10678C6F30316032E02D0062906D07A
:1009500011E08B4E376827F0807737600EE016780D
:10096000360708D10678C6F30316032E06D0042EE8
:1009700004D0052E02D006290AD011E04FF080469F
:10098000C6F80C31C6F810317C4E361F336002E0D9
:100990001678360704D10678C6F30316032E02D064
:1009A000062905D00CE0754F032664373E600AE047
:1009B0001678360704D10678C6F30316032E02D044
:1009C00006290DD014E06F4F05263E606D4E783637
:1009D00035606C4E083633603F263F1D3E6002E0B6
:1009E0001678360704D10678C6F30316052E02D012
:1009F000062957D062E0644E3668644F3E60624E0E
:100A0000361D36683F1D3E605F4E083636683F1D16
:100A10003E605D4E0C3636683F1D3E605A4E1036C5
:100A200036683F1D3E60584E143636683F1D3E60A6
:100A3000554E18363668554F20373E60524E1C369C
:100A400036683F1D3E60504E203636683F1D3E6082
:100A50004D4E243636683F1D3E604B4E2836366874
:100A60003F1D3E60484E2C3636683F1D3E60464E68
:100A700030363668454F40373E60434E3436366830
:100A80003F1D3E60404E383636683F1D3E603E4E4C
:100A90003C3636683F1D3E603B4E403636683F1D53
:100AA0003E6002E01678360708D10678C6F30316D2
:100AB000032E06D0042E04D0052E02D0062907D01E
:100AC00019E0D4F85812324A01F04F01116002E0E7
:100AD000117809070FD10078C0F30310032803D061
:100AE000042801D0052806D12A480168C90702D088
:100AF0006FF00101016022487438016841F470010F
:100B00000160BFF34F8FBFF36F8F4FF01021D1F80B
:100B10000002002803DBD1F80402002822DA1E4A72
:100B200015601E480468002CFCD01524C1F8004252
:100B30000568002DFCD0C1F8044201680029FCD0F2
:100B4000136001680029FCD0BFF34F8F0C48F038C8
:100B50000168134A01F4E06111430160BFF34F8F54
:100B600000BFFDE710490F480860F0BDE00F00F03E
:100B7000403501400DF0ADBA00C007403C050040D3
:100B8000FCED00E0105600400404001020C50040B9
:100B9000E40E00400004004004E5014000E4014090
:100BA0000400FA050090D003580000200448017F9B
:100BB00004480029024901D001F0C3BC01F032BC55
:100BC000B4000020002000407CB5002014460D46F3
:100BD0008DF804000090012301AA1C21054800F0B3
:100BE00007FD002805D1E3B22A461C21014800F088
:100BF000EDFC7CBDE826000010B5124C02202061FF
:100C0000606111A0A06104F17800E0614FF4007010
:100C100020620020A06260620BA1A164E06204F582
:100C20001E71E1641021A065C4E91410E06509A1FA
:100C3000E01DFFF7CCFB08A12046FFF7C8FB2020F2
:100C4000A07110BDB41500205465726D696E616CA1
:100C500000000000525454005345474745520000DD
:100C60000269C1688A4203D88068401A104400E0D3
:100C7000501A401E70472DE9F047C4681746894650
:100C800006464FF000083069A04201D9051B02E07A
:100C9000B168201A0D1AB0686D1E001BA84200D85A
:100CA0000546BD4200D33D4670682A462044494669
:100CB000FFF762FBB0687F1B2C44A844A944A04204
:100CC00000D10024F460002FDDD14046BDE8F0875C
:100CD0002DE9F04104468846D4E90207C51BE168C6
:100CE000606816460844B54206D94146FFF744FB02
:100CF000B819E060BDE8F0812A464146FFF73CFBA9
:100D0000761B08EB050132466068FFF735FBE660AD
:100D1000F0E702E008C8121F08C1002AFAD17047A4
:100D20007047002001E001C1121F002AFBD170476B
:100D300000F0FEFF00F058FE0028FBD1104C01210E
:100D4000208801EB00400FA100F040FF1048006830
:100D5000C00700D000BE2088022101EB00400DA199
:100D600000F034FFBFF34F8F0948E43801680D4AA3
:100D700001F4E06111430160BFF34F8F00BFFDE755
:100D800080000020466174616C206572726F720091
:100D9000F0ED00E053797374656D207265736574CE
:100DA000000000000400FA050EB500210091CDE915
:100DB00001106A4644F20100FFF7BAFF0EBD00F0D1
:100DC00003B800F009B8000072B602480168491C77
:100DD000016070470000002003490868401E086059
:100DE00000D162B670470000000000202DE9F041FC
:100DF000871C0E4601250020FFF7E1FF124C2068FA
:100E00003060D4E90001401AA168091ABE1C06E04E
:100E100000F030F9D4E90001401AA168091A491C10
:100E20008E42F5D8A1682068084004EB8000C168B4
:100E300041F00301C1602068384420600020FFF7C2
:100E4000C0FF2846BDE8F0819411002030B48268CC
:100E50000468531C8360A154D0E901128A4202D372
:100E600030BC00F0F6BB30BC70470000034803C83C
:100E7000814201D101207047002070479411002069
:100E80002DE9FC5F0E008346DDE90C47C6F100004A
:100E900098469246814600D40846012503E000BFEB
:100EA00090FBFAF06D1C5045FADAA84500D945468A
:100EB00024B1002E01DB780700D5641EB80702D5E7
:100EC000B8F1000F0AD0F80708D13CB1A54205D20D
:100ED00020215846641EFFF7B9FFF6E7002E02DA1C
:100EE0004E462D2102E0780703D52B215846FFF707
:100EF000ADFF07F0030002280BD1B8F1000F08D1B5
:100F00003CB1A54205D230215846641EFFF79EFF32
:100F1000F6E7CDE90047434652463146584601F0D0
:100F200089FBBDE8FC9F2DE9FF470D464FF4927702
:100F30000446394600F0DAFF4FF002094FF001088D
:100F40004FF4827640B13946204600F0D4FF314656
:100F5000204600F0CBFFB0B3B2463146204600F049
:100F6000C5FF4FF0FF36002770B35146204600F012
:100F7000C2FF05F10C0001AB07C883E8070095F834
:100F8000230078B1287B01282DD0D4F84C05C0B2BD
:100F90008DF80600287B022828D0D4F84C05C0B272
:100FA0008DF807004FF4B071204600F0A4FF4FF415
:100FB000AE71204600F09FFF95F8250080B395F8AC
:100FC000230068BB3CE000E013E0A868C4F8080315
:100FD000C5F80890A868C4F80403C4F82080C4F8D1
:100FE0001480BDE8FF87D4F83C05D0E7D4F83C0571
:100FF000D5E74FF4A471204600F07DFF287B80B137
:101000004FF40070C4F80002801CA860C4F80863A4
:10101000A868C4F80403C4F80880C4F82080E0E796
:1010200008E005F10C0001AB07C883E8070095F85C
:10103000250028B90020C4F80002AF60C4F8086396
:10104000D4F8C404C4F8C404810702D58DF8008024
:1010500006E0400702D58DF8009001E08DF80070A1
:1010600095F8250008B985F82470D5E9002168466F
:101070009047B6E770B588B0214800F04DF9204898
:10108000001F064600F048F91E4DD5E9014105E074
:10109000C0F3891202EB9050641C044404EA01007E
:1010A00005EB8000C0688207F2D000200DF1080235
:1010B00004EA010305EB8303641CDB6842F820307B
:1010C000401C0228F4D3029800F00300012808D045
:1010D00002280AD10298032101EB905004EB9004FE
:1010E00003E00298C0F3831004443046002101AAB3
:1010F000FFF7F7F8002800D06C6008B070BD000062
:10110000AC150020941100202DED088B84B0002038
:1011100000F0C8FD08B1FFF747FE00F057FC354C62
:10112000032535A1208805EB004000F04FFD00BFEE
:1011300000F05AFC0028FBD101F024F89FED328B1F
:101140009FED339B9FED34AB9FED35BB4FF47A663B
:10115000042202A91C20FFF737FD0746304600F0A5
:101160002FF9380001D0FFF71FFE9DF80B109DF8F6
:101170000A00CDE9000120889DF809309DF808207B
:1011800005EB004028A100F02CFD9DF808109DF80B
:10119000090001F03F0140EA0120FFF73AFA53EC61
:1011A000182BFFF7BEF953EC192BFFF7C0F953ECDE
:1011B0001A2BFFF7BCF9FFF750FAFFF73BFA53EC95
:1011C0001B2BFFF7B4F9FFF748FA00EE100A20884E
:1011D0001FA1BCEEC00A05EB004010EE102A00F083
:1011E000F9FC00BF00F000FC0028FBD11E4800F015
:1011F000E7F8ADE780000020545749207363616E23
:101200006E65722E00000000000000000000C0406B
:10121000000000000000103F00000000000000403F
:1012200021B0726891256F400D0A2074656D7020A1
:101230003A3D2025642C207072657373203A3D205E
:1012400025642C202025642C20256420000000002B
:101250000D0A2074656D70203A3D207072657373BD
:10126000203A3D202564200040420F002DE9F04740
:10127000C7880446181D16468946B0FBF7F1B0FB37
:10128000F7F207FB12009A193A44D21CB2FBF7F2AC
:10129000DDF820A001E02468491E0029FBD13D1A99
:1012A0008846B54216D818E0BAF1000F05D02118CB
:1012B00009EB08002A46091D04E0204409EB080157
:1012C0002A46001DFFF758F800202468761BA84422
:1012D000B74201D9354600E03D46002EE4D1BDE8D5
:1012E000F087000030B5024669B100F009FD002129
:1012F000084C0BE001EB410304EB830315685B88AA
:10130000AB4202D11160002030BD491C8142F1D3B3
:10131000052030BD5C00002008B501216A46FEF7BB
:10132000D3FF009808BD70B5044600252846FFF796
:1013300046FD21686268086890420ED9401E086028
:101340000178238AE26801FB0325227A2168101ABA
:10135000C0B20A79824200D208710020FFF731FD45
:10136000284670BD70B505460C460020FFF727FDE6
:10137000E868298A201AB0FBF1F12A681068431C3A
:1013800013600170BDE870400020FFF71ABD10B572
:1013900030B1017A42680368891AC9B21A6006E05E
:1013A0000E2010BD03681A68541C1C601170491E81
:1013B000C9B2F7D2006800210171084610BD0000D3
:1013C00000283ED01F49204A096800BF00BF00BF67
:1013D00000BF00BF00BF00BF00BF91422FD000BFC1
:1013E00000BF00BF00BF00BF00BF00BF00BF00BF05
:1013F00000BF00BF00BF00BF00BF00BF00BF00BFF5
:1014000000BF00BF00BF00BF00BF00BF00BF00BFE4
:1014100000BF00BF00BF00BF00BF00BF00BF00BFD4
:1014200000BF00BF00BF00BF00BF00BF00BF00BFC4
:1014300000BF00BF00BF00BF00BF00BF00BF01383A
:10144000C3D17047580000200024F40000283ED08B
:101450001F49204A096800BF00BF00BF00BF00BF8E
:1014600000BF00BF00BF91422FD000BF00BF00BF30
:1014700000BF00BF00BF00BF00BF00BF00BF00BF74
:1014800000BF00BF00BF00BF00BF00BF00BF00BF64
:1014900000BF00BF00BF00BF00BF00BF00BF00BF54
:1014A00000BF00BF00BF00BF00BF00BF00BF00BF44
:1014B00000BF00BF00BF00BF00BF00BF00BF00BF34
:1014C00000BF00BF00BF00BF00BF0138C3D17047DD
:1014D000580000200024F4004907090E002806DA0D
:1014E00000F00F0202F1E02282F8141D03E000F187
:1014F000E02282F8001400F01F020121914040090F
:10150000800000F1E020C0F88012C0F800117047A0
:101510000121B1EB507F01D10120704700207047BD
:101520000179064A01EB8101006802EBC101062244
:10153000C0F80025022081F8220070478C000020AE
:1015400070B506460D4600791F4900EB800001EB9F
:10155000C00494F8220008B1082070BD0020C4E93E
:101560000023A06084F8250084F82400A87B84F878
:101570002700687B10B1284600F0AEFD296840F2D4
:101580000C60890001F1A041C1F800076968890079
:1015900001F1A041C1F80007D5E900123068C0F898
:1015A0000815C0F80C25A968C0F82415206828B1D2
:1015B0003068297B000B40B2FFF78EFF012084F8D2
:1015C0002200002070BD00008C0000203EB5074DB9
:1015D0002C68AD6800948DF80110019202958DF889
:1015E00002300022694600F015F83EBD00270000D9
:1015F0003EB500250095069C8DF8011002958DF8EA
:10160000023001920CB1202200E00022694600F075
:1016100001F83EBD30B40379064C03EB830304EBC1
:10162000C304006813460A460146204630BC00F059
:10163000BFBD00008C0000200FB408B5039900293D
:1016400004D004AA00926A4600F00FF801B05DF8D9
:1016500014FB10B582680446002A05D0D4E90403BF
:10166000216898470020A06010BD2DE9FC479146F5
:101670000C00804676D014F8011B39B125290ED014
:101680004046FFF7E3FB20780028F4D198F80C00DF
:10169000002867D04046BDE8FC47FFF7DABF0020CE
:1016A000012221782B291BD02D2902D0302908D1E5
:1016B00002E040F0010001E040F00200641C002A5A
:1016C000EFD100252A290ED02178A1F130020A2A73
:1016D00011D205EB850201EB4205641C303DF1E7B8
:1016E00040F00400EAE7D9F800100B1DC9F80030FB
:1016F0000968641C0D44217800232E290BD114F8AD
:10170000011FA1F130020A2A05D203EB830201EB8B
:101710004203303BF3E76C290DD068290BD06929CF
:1017200021D00BDC252918D0582931D063290ED0BF
:10173000642915D117E014F8011FECE7702969D06E
:10174000732932D075291BD0782909D120E0D9F826
:101750000000011DC9F8001001784046FFF776FB34
:10176000641C90E76CE0D9F800100A1DC9F800204D
:101770000968CDE900500A224046FFF781FBEFE7F8
:10178000D9F800100A1DC9F8002009680A2206E0ED
:10179000D9F800100A1DC9F8002009681022CDE907
:1017A0000050404600F046FFDAE7D9F80010002765
:1017B0000A1DC9F800200E68C00705D112E0404696
:1017C000761C7F1CFFF742FB31780029F7D104E03B
:1017D000202140466D1EFFF739FBBD42C0D9002DC8
:1017E000F6D1BDE74EB13046FEF7EAFD074604E00C
:1017F000202140466D1EFFF729FBBD4206D9002D72
:10180000F6D103E04046761CFFF720FB3178002933
:10181000F8D1A5E7D9F80000011DC9F80010056846
:1018200030214046FFF712FB78214046FFF70EFBC0
:1018300008200021CDE90001034610222946B0E727
:10184000BDE8FC874FF0A04201218140C2F8081595
:101850007047000030B5124B01460020D3F8104409
:10186000224609E0157A854205D1401C0A28F7DB9B
:101870004FF0FF3030BD5268002AF3D1421CF9D03E
:101880000872D3F810242AB152684A60D3F81024A1
:10189000516030BD0022C3F810144A6030BD000012
:1018A000941100207047FEF7CBBF704708B5044A7B
:1018B00000924FF48053034A00F006F808BD000080
:1018C0001F200000D4000020F0B595B01C4615463E
:1018D0000F4608461A9E00F0E3FA182109A8FEF701
:1018E00064FD0E96CDE909540023082203A9384669
:1018F00000F0F0FA059806900498ADF81C0000205E
:101900008DF820000398082600F00300012802D07B
:1019100002281DD03CE003983346850AC0F3C2007C
:101920008DF81E0003980FA9C0F380008DF81F00EA
:101930000398C0F38314A200384600F0CBFA09A83C
:10194000009006AB22460FA9284600F005FA1FE0DA
:101950000398840DC0F3C2008DF81E000398C0F3F5
:1019600080008DF81F00082C01D2254600E00825D4
:1019700033462A460FA9384600F0ACFA2E44641BC1
:1019800009AB06AA29460FA800F036F9002CEAD1C7
:10199000384600F08EFA15B0F0BD00000A4A012961
:1019A00002EBC00007D0022907D0032907D0042981
:1019B00007D000207047022070470420704700794C
:1019C00070474079704700006428000010B5FFF7A9
:1019D0006AFF04210348FFF73DFF024901204872D6
:1019E00010BD0000040000202DE9FE4FFFF73EFA75
:1019F00010B10020BDE8FE8F72480021C0F8181415
:101A0000BFF34F8FD0E9014604EA060100EB8101E4
:101A10004FF000090AE000BFC1F3891202EB9151B7
:101A2000641C0C4404EA060100EB8101C9688A07C2
:101A3000F2D000216A46804604EA060008EB8000E6
:101A4000641CC06842F82100491C43460229F3D3B4
:101A5000009800F00300022806D0012800984FD01B
:101A6000C04380077ED0A8E000985022810D8A46AE
:101A7000B2EB905F00D850210D4665F39F50009067
:101A80000831514800F0C3F907006CD000F008FAA3
:101A90004B4608226946384600F022FA04EA06005E
:101AA000311A8900091D09F1080B8D4221D9454ED3
:101AB0000C3631B1CAB208EB8000691A91460C307D
:101AC00004E03046EAB2002691463146CDB20146E6
:101AD0005B46384600F004FA0BEB090326B12A46B0
:101AE0003146384600F0FCF90AF1030004EB90049B
:101AF0003BE008EB80015B462A4638460C31F1E7B3
:101B0000C0F38310062800D30620009960F38911E2
:101B1000C1F38310801C009181002B4800F077F9FD
:101B200007004AD000F0BCF94B4608226946384607
:101B300000F0D6F909F1080900250DE004EA0600D5
:101B400008EB80014B46042238460C31641C00F03F
:101B5000C7F909F104096D1C0098C0F38310A8426D
:101B6000ECD801E00BE028E03FB3D8F81054D8F8E7
:101B70001804464690B1384600F09BF91DE0D3F8B2
:101B8000180400283FF436AF17E0687A012804D122
:101B90002A6828463946126890476D68002DF4D1AE
:101BA000384600F086F90020FFF709F9D6F8180446
:101BB00000B974600020FFF704F9FFF757F980F0CF
:101BC000010017E7941100202827000000231A467F
:101BD00000F03ABA08B5012300926A4600F034FAE0
:101BE00008BD7FB5DDE908458DE83C0004236A4661
:101BF00000F02AFA7FBD00002DE9F0470E4680462E
:101C00001C46924608293ED894F80C900020207378
:101C10001946104600F0B0F90025B54206D218F872
:101C200005201AA12046FFF707FD03E019A1204671
:101C3000FFF702FD6D1C082DEFD317A12046FFF71B
:101C4000FBFC0025B54210D218F80570FEF790FB9A
:101C50000068C05D10F03E0F01D03A4600E02E2231
:101C60000EA12046FFF7E8FC03E00DA12046FFF798
:101C7000E3FC6D1C082DE5D301222146504600F0FF
:101C80005DF984F80C90BDE8F08700002025303223
:101C900078000000202020007C0000002563000068
:101CA00020000000114810B5FF2181600021016073
:101CB0004160C0F81814C0F8141480F81C140C48C3
:101CC00000F0F5F800280FD10A480B490B4B401AD9
:101CD000C108002005E000BF00EB400223F822000D
:101CE000401C8842F8D3002010BD00009411002051
:101CF0002827000084280000642800005C000020E1
:101D000002480349401AC0087047000084280000B8
:101D10006428000013B56846FFF7E4FA08B1002014
:101D20001CBD0248009950F831001CBD6428000019
:101D300070B508480125D0F8104480F81C5405E01F
:101D4000657221682046496888476468002CF7D18D
:101D500070BD0000941100202DE9FF4781460C9DC5
:101D600000200C462F7B28739846164629461846B5
:101D700000F002F9072E42D2DFE806F004090F1640
:101D80001F2A360049462846FFF756FC37E04946E9
:101D900028462268FFF750FC31E0D4E90023494689
:101DA0002846FFF749FC2AE0A0680090D4E9002308
:101DB00049462846FFF740FC21E0D4E90201CDE97D
:101DC0000001D4E9002349462846FFF735FC16E018
:101DD00004F1080007C88DE80700D4E9002349464C
:101DE0002846FFF729FC0AE004F108000FC88DE837
:101DF0000F00D4E9002349462846FFF71DFC0022C6
:101E00002946404600F09AF82F73BDE8FF872DE978
:101E1000F041058A80462D1F4819C01CB0FBF5F023
:101E2000C6B24046FFF77FFA040019D000202071A7
:101E300001206071E58000272546761EC4F80080E9
:101E40000BE04046FFF76FFA60B16179491C6171A0
:101E5000286005467F1CC0F80080B742F1D32046B9
:101E6000BDE8F081204600F002F80020F8E72DE9F7
:101E7000F041457901466B1E002201E00968521CC1
:101E80009A42FBD30F680146002605E038460C68ED
:101E9000FFF768FA2146761CAE42F7D3BDE8F08121
:101EA00008B501216A46001DFEF7E7F908BDFFF7F6
:101EB0006EBA38B50446001D01216A46FEF7EAF9FC
:101EC000009810F0FF0F04D12046BDE83840FFF71E
:101ED000CEBF38BD38B501240094FFF7C7F938BD2F
:101EE00038B500240094FFF7C1F938BD40580028E8
:101EF00000D00120704708B50022425040580090A1
:101F000008BD4058002800D00120704708B50022C5
:101F100042504058009008BDD0F80403084000D05B
:101F2000012070474058002800D00120704708B5B4
:101F3000002242504058009008BD000010B50C46E9
:101F4000C17949B11AB109A12046FFF775FB2046B6
:101F5000BDE81040FFF77DBB007A0028F3D00448AD
:101F600004A102682046FFF767FBECE70D0A0000BA
:101F7000340000202573000070B50446C0790D467A
:101F800000281CD1207A50B1A179A088FFF706FD66
:101F90000B4951F820200BA12846FFF74DFBA088E4
:101FA0000021FFF7B7FE03460549A079143951F81F
:101FB00020202846BDE8704003A1FFF73DBB70BD5F
:101FC00034000020257300003C25733E2025733A21
:101FD0002000000070B50546C87D0C4600284FF46F
:101FE000847128460AD0FFF791FFD5F81805627E64
:101FF000E1688854607E401C607670BDFFF786FF04
:10200000D5F8180570BD1FB501238DF800308DF887
:1020100008100192D0E90012684690471FBD2DE9D3
:10202000F04114000F460DD000250A2679192246EA
:102030000020FEF707FC0544241A08B9761E01D0DB
:10204000002CF3D1BDE8F0812DE9F843214C8846FE
:10205000054691461F4669461846A668FEF7C6FE25
:1020600070B30098811C00220AE000BF01EA060C50
:1020700059F8223004EB8C0C491C521CCCF80C3063
:10208000BA42F3D30246401C304004EB80002B0CD4
:10209000C36002EA060004EB8002E80652F80C0F67
:1020A00002D540F0040001E020F0040065F3C50013
:1020B00067F3891068F39F2020F00300401C106034
:1020C00094F81C0402E000BFFFF78EFC0028FBD14F
:1020D000BDE8F883941100202DE9F041044640F258
:1020E0000C602168890001F1A041C1F80007616816
:1020F000890001F1A041C1F800072068FFF7A2FBA9
:102100006068FFF79FFB216840F20D60890001F1D4
:10211000A041C1F800076168890001F1A041C1F840
:1021200000070420FFF792F900274FF0A046012591
:102130002179D6F81005C84010F0010F02D0002F09
:102140001DD010E0217805FA01F0C6F80C05042036
:10215000FFF77CF92068FFF775FB0420FFF776F99D
:102160007F1C092FE4DB20798540C6F80C5504203C
:10217000FFF76CF96068BDE8F041FFF763BBBDE8AD
:10218000F08100001FB5094B0FCB8DE80F00074809
:1021900000231A4669460838FFF7D2F908B1FEF75E
:1021A00003FE02480838FFF7BBF91FBDF026000008
:1021B0002DE9F05F06461F4615460C464FF0000A13
:1021C0004FF0080B4FF482795068FFF7A1F900280F
:1021D0007ED04FF0FF30C4F8080396F8240028B1F1
:1021E000B068C4F804031120BDE8F09F780703D459
:1021F000F80601D4012000E0002086F8240095E8CC
:10220000070006F10C0383E80700C7F3001086F807
:1022100025006878C4F888054FF482712046FFF7DE
:102220006AFE4FF492712046FFF765FEF8074FF003
:10223000010800D04046C4F85005B80701D5404613
:1022400000E00020C4F84005287800286CD0012860
:102250007DD002284ED0032814D04FF0070A38074B
:1022600004D42878032801D044F80B803068002873
:102270006ED0780702D54FF40070B060B068C4F833
:102280000403ACE0A868FFF743F908B34FF480708B
:10229000C4F80002A8786968C4F84415C4F8480571
:1022A0004FF4A8712046FFF726FE4FF4B071204688
:1022B000FFF721FE4FF4A4712046FFF71CFEC4F87F
:1022C0002080C4F8088000BF4FF4A871204600E0C9
:1022D00028E0FFF70BFE0028F6D04FF4A871204647
:1022E000FFF709FEE878A968C4F84415C4F8480562
:1022F0003C4815E0A8786968C4F84415C4F8480556
:10230000A868FFF705F968B1E878A968C4F834153A
:10231000C4F838054FF48450C4F8000240F202209B
:10232000B0609CE710205FE7A8786968C4F844159E
:10233000C4F84805B8060FD54FF48070C4F8000201
:102340002848B0604FF4A4794946204601E00CE0EB
:102350001BE0FFF7D0FD05E04FF40070C4F8000269
:10236000801CB060C4F8208079E7A8786968C4F858
:102370003415C4F838054FF48050C4F8000240F218
:102380000220B0604FF0000BECE747464FF4827537
:102390004FF492780BE041462046FFF7A7FD30B19D
:1023A00041462046FFF7A7FD27626761A9464946D7
:1023B0002046FFF79BFD0028EDD0D4F8C404C4F8F4
:1023C000C404002186F8241048B10321820701D5F6
:1023D00048F20121400701D548F202218A465046C1
:1023E00002E700000002040070B50C4605464FF4F9
:1023F0008E71FFF78BFDA18AA068415CA08A401C0A
:10240000A082C5F81C1570BD1FB500228DF80020F4
:102410008DF80810816801918275D0E90012684634
:1024200090471FBD2DE9FF470C4605464FF400714C
:10243000FFF772FD01274FF40178002618B34FF41F
:10244000927949462846FFF75CFDE0B149462846A7
:10245000FFF75CFDC5F80883A07E00B96F6002201D
:102460008DF80000D5F88004C5F880040390E07D65
:102470008DF80800E0680190E6752676D4E9001230
:102480006846904727E004212846FFF745FD10B332
:102490004FF484712846FFF734FDE0B12146284609
:1024A000FFF798FDE07D617E884214D1207E38B12F
:1024B000617EE268E0752069E0602676667607E076
:1024C000A07E00B96F60C5F80883E675617EE2689A
:1024D0002046FFF798FD4FF48E7841462846FFF7D7
:1024E00010FD88B1A08AA17D884204D221462846E9
:1024F000FFF77AFF08E041462846FFF707FDA17D78
:1025000011B12046FFF780FF4FF4A27841462846DC
:10251000FFF7F7FC002812D041462846FFF7F6FCEB
:10252000A07E00B12F60E07D002808D0E675617EB6
:10253000E26804B02046BDE8F047FFF764BDBDE89F
:10254000FF872DE9FF410C464FF492770546394647
:10255000FFF7E8FC0026C0B139462846FFF7E7FC44
:1025600002208DF80000D5F88004C5F8800403909F
:10257000D5F83C058DF80800E0680190E6752676F0
:10258000D4E900126846904724E04FF48877394632
:102590002846FFF7C7FCE8B139462846FFF7C7FCD5
:1025A000D5F83C05C1B2E07D884213D1207E60B1F0
:1025B000E268D5F8000220F02000C5F80002207E75
:1025C000E0752069E060267601E0E675E268204665
:1025D000FFF719FD4FF4A27739462846FFF7A2FC12
:1025E00068B139462846FFF7A2FCE07D38B1E675B0
:1025F000D5F83C05E268C1B22046FFF704FD4FF470
:10260000907631462846FFF78DFC00280FD03146E2
:102610002846FFF78CFCA07D002808D0D5F84C0593
:1026200004B0C1B22046BDE8F041FFF7EDBEBDE801
:10263000FF8100002DE9F05F8346DDE90A4A9946F3
:1026400090460D460846012703E000BFB0FBF8F0B6
:102650007F1C4045FAD2B94500D94F465FEACA709F
:1026600012D18CB15FEA8A7002D5B9F1000F01D0A6
:10267000202607E0302605E031465846641EFEF766
:10268000E5FB0CB1A742F7D35FF00106B9F1010FEA
:1026900002D9A9F1010903E0B5FBF6F0404502D3E8
:1026A00006FB08F6F2E7DFF83C9000BFB5FBF6F05A
:1026B00000FB165519F800105846FEF7C7FBB6FB8D
:1026C000F8F6002EF2D15FEACA7009D0002C07D0CC
:1026D000A74205D220215846641EFEF7B7FBF5E756
:1026E000BDE8F09F0C270000003000400001000012
:1026F0001B0000001A00000000009801020000000A
:102700000100000000000000000000003031323302
:10271000343536373839414243444546AD18000018
:10272000AB180000A51800001800002010000020C1
:1027300018000020D4100020180000000040404085
:102740004040404040404141414141404040404084
:102750004040404040404040404040404005020230
:1027600002020202020202020202020202202020EF
:10277000202020202020200202020202020290904B
:102780009090909010101010101010101010101049
:10279000101010101010101002020202020288889D
:1027A00088888888080808080808080808080808A9
:1027B0000808080808080808020202024000000091
:1027C0003D2700007761726E696E6700646562750F
:1027D000670000001B5B313B33306D001B5B306DCD
:1027E000000000001B5B313B33316D001B5B313B54
:1027F00033326D001B5B313B33336D001B5B313B70
:1028000033346D001B5B313B33356D001B5B313B5B
:1028100033366D001B5B313B33376D00696E666F7D
:10282000000000006572726F72000000747769002A
:10283000756172740000000062616C6C6F6300006F
:102840006170700084280000000000208C000000EF
:10285000120D0000102900008C000020B437000089
:10286000220D00002C28000000000000302800008D
:102870000000000038280000000000004028000090
:1028800000000300000000001C2700000000000002
:102890000000000000000000000000000000000038
:1028A000000000000000000024280000C4270000F1
:1028B0001C280000CC270000DC270000D4270000E3
:1028C000E4270000EC270000F4270000FC270000AC
:1028D000042800000C280000142800000090D003F9
:1028E00000000000000000000000000000000000E8
:1028F00000000000000000000000000000000000D8
:1029000000000000000000000000000000000000C7
:0400000500000201F4
:00000001FF
